:100000000C94D61F0C9407200C9407200C94072006
:100010000C9407200C9407200C9407200C940720C4
:100020000C9407200D94553F0D94553F0D94553F6A
:100030000C9407200C9407200C9407200C940720A4
:100040000C9407200C944BAB0C9407200C940720C5
:100050000C9407200C9407200D943D0B0C9408C1C0
:100060000C9407200C942E470C9424470C940720E2
:100070000C9407200C9407200C9407200C94072064
:100080000C94963B0C9407200C9407200C940720AA
:100090000C947CC10C9452C10C9407200C94072042
:1000A0000C9407200C9407200C94683B0C940720B8
:1000B0000C9407200C9407200C9407200C943A3BD6
:1000C0000C9407200C9407200C9407200C94072014
:1000D0000C9407200C9407200C9407200C94072004
:1000E0000C940720CA48D048DB48E648F148FC4851
:1000F0000749124946494649464946491D49654905
:10010000714982499349A449B549C649D7490E4A1C
:100110000E4A0E4A0E4AE5492D4A394A4A4A5B4A76
:100120006C4A7D4A8E4A9F4AD64AD64AD64AD64A11
:10013000AD4AF54AFE4A0D4B184B234B2E4B394B1B
:10014000434B714B714B714B714B4B4B9F4B664CFF
:10015000A54BAF4BB94BC34BD94BE64B664CF34B5E
:10016000664C014C664C094C134C664C664C274C53
:10017000314C394C434C4D4C5C4C854C7F4D8E4C36
:100180009B4CA84CB54CCE4CDE4C7F4DEE4C7F4D7D
:10019000FF4C7F4D0A4D1A4D7F4D7F4D314D3E4DE9
:1001A000494D564D634D754D9E4D984EA74DB44DDE
:1001B000C14DCE4DE74DF74D984E074E984E184E17
:1001C000984E234E334E984E984E4A4E574E624E9E
:1001D0006F4E7C4E8E4EB74E6F4FBD4EC54ECD4EC0
:1001E000D54EEB4EF64E6F4F014F6F4F0D4F6F4F89
:1001F000154F224F6F4F6F4F394F414F494F514F5E
:10020000594F684F066D456B7E6B426D7E6B7E6B02
:100210007E6B7E6B7E6B7E6B7E6B7E6B7E6B7E6B96
:100220007E6B7E6B7E6B7E6B7E6B7E6B7E6B7E6B86
:100230007E6B7E6B7E6B7E6B7E6B7E6B7E6B7E6B76
:100240003C6D7E6B7E6B7E6B7E6B7E6B7E6B7E6BA6
:100250007E6B156D7E6B7E6B7E6B7E6B7E6B7E6BBD
:100260007E6B7E6B7E6B7E6B596D7B6B65CB6BCBD8
:1002700070CB7ECB84CB86CB8CCB91CBADCBADCBB7
:1002800098CBADCB9DCBA3CBA8CBCDCBD3CBD8CB71
:10029000E6CBECCBEECBF4CBF9CB15CC15CC00CC2C
:1002A00015CC05CC0BCC10CC35CC3BCC40CC4ECCBB
:1002B00054CC56CC5CCC61CC7DCC7DCC68CC7DCC98
:1002C0006DCC73CC78CC9CCCA2CCA7CCB5CCBBCC21
:1002D000BDCCC3CCC8CCE4CCE4CCCFCCE4CCD4CC27
:1002E000DACCDFCC6A033604F8035602EE0148028A
:1002F000AC04340496037E0360041C0330021C0427
:100300002E036C025803AA030E03B604B004EC01DA
:10031000120376038E045003AA032A04D8028C0326
:100320004002BA034A033403C8026A046E04F802A6
:10033000A404C203A60490022C0336026A049E049D
:10034000E6032402084AD73B3BCE016E84BCBFFDC6
:10035000C12F3D6C74319ABD56833DDA3D00C77F95
:1003600011BED9E4BB4C3E916BAAAABE000000802E
:100370003F05A84CCDB2D44EB93836A9020C50B9BD
:10038000918688083CA6AAAA2ABE000000803F00E9
:100390000C94765B0C9484CB0C9471490C9445A816
:1003A0000C949CCC0C9473CC0C94414F0C944569E8
:1003B0000C94156D0C94DACC0C9449A80C94EAFEBC
:1003C0000C94F9CB0C9493490C945B4A0C947F4D9C
:1003D0000D94C0320C94A84C0D947B3E0D944108B2
:1003E0000D94D3320C9498CB0C9468580C94274CF1
:1003F0000C9454550C947DCC0C94F34B0C944A8182
:100400000C94154F0D94762E0C94CFC10C94A449E6
:100410000C9465CB0C94314C0C9446490C94F482AA
:100420000C94234B0C943C6D0C9405CC0D941C2E19
:100430000C94B0A20C94DFCC0D94C5320C94735B79
:100440000C94C8CC0C949E4D0D94DE400C94494DF8
:100450000C94ADCB0D945E2D0C94C5C10C947E6BA9
:100460000D94663E0C94D0480C94FC480D94C0400A
:100470000C94FE4A0C94184E0C942F690C947ECB6D
:100480000D9451400C94AD4A0C94DE4C0C94234EC8
:100490000D9444080C94E9510C94C5690C94DE6ADF
:1004A0000C94634D0C94A2CC0C9434A80D945B086E
:1004B0000C94E74D0C94D4CC0C94B7C10C94AB7055
:1004C0000D94AC040D94D5040C94486A0C94B16955
:1004D0000C94996A0C94594F0D945C3E0C94BBCCCF
:1004E0000C946F4F0C94014F0C946AC00C94BD7027
:1004F0000C944B4B0C94C3700D94CC040D946D0173
:100500000C94426D0C94B66A0C9486CB0C940A4DF4
:100510000C94515B0C94E6A20D94382E0C94564D1D
:100520000D94A7400D94D81C0C94F54A0C94094CDA
:100530000D94B9080D94D82D0C9456CC0C9400CC85
:100540000C942D4A0C94EE4C0C94CE4D0C94B44D5E
:100550000C94E6C00C941D490C946BC70C941BA81A
:100560000C94777E0C9440C00C9499C00C94E7696D
:100570000C94AD530C944DC40C94C7590D94C655AE
:100580000C94B74E0C9471C20D94A8550C9454CC95
:100590000D946F400C9450550C94DB7F0C940E6AB4
:1005A0000C94C54E0C94456B0C94CA480C948E4E1A
:1005B0000D94973E0C94D54E0C94A8CB0D94B40496
:1005C0000C94B7700C942E4B0C946BC30C94A369D1
:1005D0000C947C4E0C94D9690C944D5B0C9443A8FC
:1005E0000C948E4A0C940AFF0C9465490C943BCCF5
:1005F0000D9481400C94D5700D94D2040C9401A3F9
:100600000C94406F0C94857E0C940BC60D94DB14F7
:100610000C947F7E0C9410CC0D94DB040D946D3EF5
:100620000C946DCC0D947F3E0D94BC040C944A4EFA
:100630000D94CF040C94C6FB0D9450080C94C2C1C9
:100640000C9483C20C94E6CB0C9477C20C94BCFB44
:100650000C940D4B0C94077E0D94B6400D94583EAF
:100660000C944DC20D94543A0D9465400C948D87B2
:100670000C9440CC0C94DEFE0C941A4D0C949DCB43
:100680000D94D8040C9482490D94EA3A0C94B170FC
:100690000C94D8CB0D945B400C94314D0C9478CCD9
:1006A0000D948D3E0C94FAFE0C940D4F0C948CCB53
:1006B0000D94623E0C94D3CB0C94F1480C94CD4E27
:1006C0000C94E4CC0C94F64E0C94DB480C94656AC4
:1006D0000C94B5CC0D9458080C94574E0C9495A2DC
:1006E0000C943E4D0C948E4C0C9499700D94853E58
:1006F0000C94074E0C94C9FB0C940BCC0D9466081B
:100700000C9435CC0C9457C20C949F4A0C942B6AD1
:100710000C9459690C9454850D949B3E0C9402FFE3
:100720000C94207E0C946D690C94984E0D944A089C
:100730000C9407490D94DD320C94394A0C9470CB1B
:100740000C94434C0C947AA20C94CDCB0D94D8020B
:100750000C944BA80D94A03E0C944D4C0C94C97075
:100760000C949B4C0C94086A0C946E7E0C94514F24
:100770000C94664C0D9456400C9489C20C94D9C1CB
:100780000C94EB4E0D9493400D94D32E0C940E4A82
:100790000D94C0040C94184B0C944ECC0C946980AE
:1007A0000C946F4E0C94596D0C94C36A0C947DC2DA
:1007B0000D94A32D0C94725B0D94011D0C94C3CC6D
:1007C0000C94D4C10D94C5000C94F74D0D94D440F5
:1007D0000C940DFE0C94E6480C94134C0C9421716F
:1007E0000C94394B0C94494F0C9491CB0C9493700E
:1007F0000D943E080C944E550C94CBA20C94BCC1A5
:100800000C94D94B0C9479C00C94EECB0C94C1FB96
:100810000C94E4FE0C945C4C0C9412490C94A54B83
:100820000C94754D0C94394C0C94D7490C94CE4CC7
:100830000C94A5700C94854C0D94693E0C9462A6A2
:100840000D94753A0D94502D0C94E64B0C949F70BA
:100850000C94B94B0D94933E0C94CF700C9471A4EE
:100860000C9499FB0C9481690D9453080D943B08EA
:100870000C94A74D0C94F5690C94AF4B0C9461CC7F
:100880000C94714B0C946BCB0C94684F0C94F2FE4F
:100890000C947D4A0D94C8040D94FA2D0C94C14D0E
:1008A0000D94A4040C947B6B0C9452C20C94BD4E1A
:1008B0000C94A3CB0D94C22D0C94F4700C94334E75
:1008C0000D944D080C9447A80D943E060C9468CCEA
:1008D0000C944C550D94E8400C94C87D0D947940CF
:1008E0000C94F4CB0D94CA320C94E5490C944A4A0A
:1008F0000C94624E0C94BDCC0C947CA40C94956921
:100900000C94394F0C94066D0D94B0040D94C404EE
:100910000C94434B0C94CCFC0D94C5080D94893E6B
:100920000C94014C0C94A7CC0C9415CC0C94B2C133
:100930000D94A8040C94FF4C0C94D64A0D94CA4014
:100940000C94ECCB0C9452550D9489400D949D4021
:100950000C949F4B0C94826A0D9447080C94CAC166
:100960000D94773E0C945CCC0C94B5490D94713E7B
:100970000C94367F0C94B54C0C94CA6A0D94AB2D34
:100980000C94C6490D94B8040C94D16A0C94CFCC45
:100990000C940B6A0C946C4A0C94224F0C94C34B2D
:1009A0000C94C76E4E414E494E495459494E46CD5E
:1009B000CCCC3D0AD7233C17B7D13877CC2B329516
:1009C00095E6241FB14F0A000020410000C84200F4
:1009D000401C4620BCBE4CCA1B0E5AAEC59D7400BE
:1009E000407A10F35A00A0724E18090010A5D4E8FE
:1009F0000000E87648170000E40B54020000CA9A91
:100A00003B000000E1F505000080969800000040E2
:100A1000420F000000A08601000000102700000027
:100A200000E803000000006400000000000A00006D
:100A30000000000100000000002C76D888DC674F21
:100A40000823DFC1DFAE59E1B1B796E5E3E453C651
:100A50003AE651997696E8E6C28426EB898C9B6249
:100A6000ED407C6FFCEFBC9C9F40F2BAA56FA5F4F3
:100A700090055A2AF75C936B6CF9676DC11BFCE01B
:100A8000E40D47FEF520E6B500D0ED902E0300946E
:100A90003577050080841E080000204E0A00000003
:100AA000C80C333333330F986E12831141EF8D210D
:100AB00014893BE65516CFFEE6DB18D1844B381B74
:100AC000F77C1D901DA4BBE424203284725E228139
:100AD00000C9F124ECA1E53D27434F4D4D554E494A
:100AE000434154494F4E0044525952554E004552CD
:100AF000524F525300494E464F004543484F00471E
:100B0000322F47332062616420706172616D6574B9
:100B10006572730A00536C6565702E2E2E005A2084
:100B200050726F62652050617374204265640A00E0
:100B30005A2050726F626520506173742042656460
:100B400000486F6D652058592066697273740A00F9
:100B5000486F6D65205859204669727374004D6561
:100B6000736820706F696E742063616E6E6F74209D
:100B70006265207265736F6C7665640A00456E6409
:100B80002066696C65206C6973740A004265676948
:100B90006E2066696C65206C6973740A00286E6F3C
:100BA0002066696C65290043757272656E742066F3
:100BB000696C653A20005344207072696E74696EE6
:100BC00067206279746520004E6F74205344207052
:100BD00072696E74696E670A005072696E7420746F
:100BE000696D653A20000A53746174733A2046694E
:100BF0006C616D656E7420757365643A20002C20FD
:100C00004C6F6E67657374206A6F623A2000546F90
:100C100074616C2074696D653A20002C204661690E
:100C20006C65643A20002C2046696E6973686564BF
:100C30003A20005072696E74733A200053746174E4
:100C4000733A200045202553006F666600444542F4
:100C500055473A004D3131322053687574646F77CF
:100C60006E004D3131332053005468696E6B6572EC
:100C70002056325F424C5F32323039204F46462E8A
:100C8000004348414D4245525F54454D5045524105
:100C900054555245004D4F54494F4E5F4D4F4445BA
:100CA0005300544845524D414C5F50524F544543B8
:100CB00054494F4E004155544F5245504F52545F86
:100CC00053445F5354415455530050524F4D505468
:100CD0005F535550504F525400454D455247454E75
:100CE00043595F50415253455200434153455F4C75
:100CF000494748545F4252494748544E4553530070
:100D0000544F47474C455F4C494748545300534F55
:100D10004654574152455F504F574552004255493E
:100D20004C445F50455243454E54004C4556454C4B
:100D3000494E475F44415441005A5F50524F42452B
:100D4000004155544F4C4556454C005052494E5465
:100D50005F4A4F420050524F47524553530041554E
:100D6000544F5245504F52545F54454D5000564FCA
:100D70004C554D45545249430042494E4152595FEA
:100D800046494C455F5452414E53464552005345E7
:100D90005249414C5F584F4E5F584F4646004649B6
:100DA000524D574152455F4E414D453A4D61726C2F
:100DB000696E20322E302E7820284769744875627B
:100DC0002920534F555243455F434F44455F555289
:100DD0004C3A68747470733A2F2F6769746875623F
:100DE0002E636F6D2F4D61726C696E4669726D77FF
:100DF0006172652F4D61726C696E2050524F544F75
:100E0000434F4C5F56455253494F4E3A312E302096
:100E10004D414348494E455F545950453A546869DD
:100E20006E6B65722056325F424C5F323230392031
:100E300045585452554445525F434F554E543A31EC
:100E400020555549443A63656465326132662D34F4
:100E50003161322D343734382D396231322D6335DA
:100E6000356336326633363766660A002F2F200028
:100E70004D31343520533C696E6465783E206F7582
:100E800074206F662072616E67652028302D3129CD
:100E90000A0020466C6F773A200050726F746563C9
:100EA0007465642050696E0A00206F7574206F6647
:100EB0002072616E67650A0020536572766F2000AC
:100EC000496E76616C6964206578747275646572C8
:100ED0000A0020693A006469730043290A006162CC
:100EE0006C656420286D696E2074656D7020004308
:100EF0006F6C6420657874727564657320617265C7
:100F000020004D34323120696E636F7272656374F4
:100F100020706172616D65746572207573616765BB
:100F20000A00454550524F4D204F4B0A0020746532
:100F30006D7065726174757265207072657761722B
:100F40006E207472696767657265643A2000206874
:100F50006F6D696E672073656E7369746976697405
:100F6000793A2000FA0AF50AEE0AE70AD90A457228
:100F7000726F722077726974696E6720746F204592
:100F80004550524F4D210A00627573793A207061C5
:100F90007573656420666F7220696E7075740A00DF
:100FA000627573793A2070617573656420666F723B
:100FB00020757365720A00627573793A2070726FDA
:100FC00063657373696E670A004E6F2043686563DB
:100FD0006B73756D2077697468206C696E65206E1F
:100FE000756D6265722C204C617374204C696E655E
:100FF0003A2000636865636B73756D206D69736D6E
:10100000617463682C204C617374204C696E653A7E
:1010100020004C696E65204E756D626572206973A3
:10102000206E6F74204C617374204C696E65204E85
:10103000756D6265722B312C204C617374204C6984
:101040006E653A20004D313130004D313137004D61
:1010500033310053442072656164206572726F728F
:101060000A00446F6E65207072696E74696E672045
:1010700066696C650A002063757272656E7420641F
:10108000656372656173656420746F20006D41292A
:101090000A0020647269766572206F7665727465E5
:1010A0006D7065726174757265207761726E696EBC
:1010B00067212028004B494C4C206361757365649F
:1010C000206279204B494C4C20627574746F6E2FEE
:1010D00070696E0A004B494C4C20636175736564FE
:1010E00020627920746F6F206D75636820696E616E
:1010F00063746976652074696D65202D206375724F
:1011000072656E7420636F6D6D616E643A200025A8
:10111000301D0C282924311C0B4527232F1B164476
:1011200043212A193F40222B1A414203380906362F
:101130000308020600014C6F616400506F7765720E
:101140002D6C6F73732066696C6520636C6F7365BB
:10115000206661696C65642E0A00506F7765722D98
:101160006C6F73732066696C652077726974652093
:101170006661696C65642E0A005772697465002D9A
:101180002D2D0A00494E56414C49442044415441BA
:101190000A007072696E745F6A6F625F656C61707D
:1011A0007365643A20007364706F733A200073644F
:1011B0005F66696C656E616D653A20000A20666144
:1011C00064653A20006C6576656C696E673A20004C
:1011D00066616E5F73706565643A20007461726762
:1011E00065745F74656D70657261747572655F6258
:1011F00065643A20007461726765745F74656D7030
:10120000657261747572653A200066656564726125
:1012100074653A2000706F736974696F6E5F7368EC
:101220006966743A2000686F6D655F6F6666736506
:10123000743A200063757272656E745F706F7369C3
:1012400074696F6E3A20002076616C69645F666F26
:101250006F743A00204A6F62205265636F76657240
:101260007920496E666F2E2E2E0A76616C69645F56
:10127000686561643A002568753A25303268750002
:10128000256875642025303268753A2530326875D6
:1012900000447269766572206572726F7200636FC6
:1012A000696C2073686F7274206369726375697406
:1012B0000A006F76657274656D706572617475721F
:1012C000650A0020647269766572206572726F72B9
:1012D0002064657465637465643A203078006D61DC
:1012E00078002F33310009204261642072657370E9
:1012F0006F6E736521004C6F6164206D6D00556EDB
:101300006C6F6164206D6D0046696C2E20446961CC
:101310002E004520696E206D6DC2B3002008204666
:10132000616374002008204D6178002008204D6919
:101330006E004175746F74656D70005654726176FD
:10134000204D696E00566D696E00566D61782045BE
:1013500000566D6178205A00566D6178205900560C
:101360006D6178205800416D6178204500416D61C4
:1013700078205A00416D6178205900416D617820D4
:101380005800412D54726176656C00412D52657490
:101390007261637400416363656C0056652D4A6534
:1013A000726B00565A2D4A65726B0056592D4A656C
:1013B000726B0056582D4A65726B00656E717565CB
:1013C0007565696E672022006F6B00526573656EEC
:1013D000643A200025697920256964202569682000
:1013E00025696D202569730042656420436F6F6C29
:1013F000696E672E2E2E004265642048656174690F
:101400006E672E2E2E0023646566696E6520444546
:101410004641554C545F004B6420004B6920004B03
:10142000702000504944204175746F74756E6520BA
:1014300066696E69736865642120507574207468EC
:1014400065206C617374204B702C204B6920616E99
:1014500064204B6420636F6E7374616E74732066D6
:10146000726F6D2062656C6F7720696E746F2043B8
:101470006F6E66696775726174696F6E2E680A00B7
:10148000504944204175746F74756E6520666169BA
:101490006C6564212074696D656F75740A000A209B
:1014A000436C617373696320504944200A00204BE8
:1014B000643A2000204B693A2000204B703A20000B
:1014C0000A204E6F206F76657273686F6F740A0022
:1014D0002054753A2000204B753A2000206D617829
:1014E0003A2000206D696E3A200020643A200020E6
:1014F000626961733A2000504944204175746F74E9
:10150000756E652073746172740A005049442041FD
:1015100075746F74756E65206661696C65642120F1
:1015200054656D706572617475726520746F6F209B
:10153000686967680A00504944204175746F747582
:101540006E65206661696C65642120426164206576
:1015500078747275646572206E756D6265720A00CA
:101560004572723A207574663820666F6E74206E0C
:101570006F7420696E697469616C697A65642E00A4
:10158000000C0D00FE07022603BC017FFE08FE08CA
:10159000FE05080806000040F0C888889878100505
:1015A0000808060000C0F88888888888F8050505BE
:1015B0000600012030F830200508080600002070E1
:1015C000F820202020E00509090600FF2070A8A8C7
:1015D000B888887020050606060001E08CEA8C8A2F
:1015E0000A0509090600FFF8A88888888888A8F8ED
:1015F000050A0A0600FE205050505088A8A888709E
:1016000003030306000340A040FFFFFFFFFFFFFFAF
:10161000FFFFFFFFFFFFFFFFFFFFFFFFFFFFFF00D9
:1016200000000605FF010707060200808080808019
:101630000080030303060105A0A0A005060606001E
:101640000050F85050F8500509090600FF2070A816
:10165000A07028A87020050707060000C8C8102041
:1016600040989805070706000040A0A040A8906891
:101670000103030602058080800309090601FF209B
:1016800040408080804040200309090601FF8040DF
:101690004020202040408005070706000020A87059
:1016A0002070A8200505050600012020F820200252
:1016B00003030601FFC04080050101060003F80294
:1016C0000202060100C0C00507070600000810104E
:1016D00020404080050707060000708898A8C88849
:1016E0007003070706010040C040404040E0050786
:1016F00007060000708808102040F805070706005C
:1017000000F8081030088870050707060000103040
:101710005090F81010050707060000F880F0080840
:101720008870050707060000304080F08888700543
:101730000707060000F808101020202005070706FC
:1017400000007088887088887005070706000070A0
:10175000888878081060020505060100C0C000C036
:10176000C00206060601FFC0C000C0408003050598
:101770000601012040804020050303060002F80016
:10178000F803050506010180402040800507070693
:101790000000708810202000200507070600007058
:1017A00088B8A8B88070050707060000708888F818
:1017B000888888050707060000F04848704848F008
:1017C000050707060000708880808088700507077D
:1017D000060000F04848484848F0050707060000A2
:1017E000F88080F08080F8050707060000F8808008
:1017F000F080808005070706000070888080988848
:1018000070050707060000888888F888888803071D
:1018100007060100E04040404040E00507070600A1
:10182000003810101010906005070706000088901F
:10183000A0C0A090880507070600008080808080F7
:1018400080F805070706000088D8A88888888805DA
:1018500007070600008888C8A89888880507070633
:10186000000070888888888870050707060000F0E7
:101870008888F080808005070706000070888888C7
:10188000A89068050707060000F08888F0A09088F7
:101890000507070600007088807008887005070734
:1018A000060000F820202020202005070706000061
:1018B00088888888888870050707060000888888D7
:1018C0008850502005070706000088888888A8A847
:1018D00050050707060000888850205088880507B3
:1018E00007060000888850202020200507070600F2
:1018F00000F80810204080F80309090601FFE08085
:10190000808080808080E0050707060000804040DE
:10191000201010080309090601FFE02020202020E4
:101920002020E0050303060005205088050101067C
:1019300000FEF803030306010580402005050506A7
:10194000000070087888780507070600008080F09E
:10195000888888F00505050600007080808870057D
:1019600007070600000808788888887805050506B6
:1019700000007088F08070050707060000304840BE
:10198000E04040400507070600FE70888888780818
:10199000700507070600008080F0888888880307A4
:1019A000070601004000C0404040E004090906016C
:1019B000FE100030101010109060050707060000A0
:1019C00080808890E09088030707060100C04040AF
:1019D000404040E0050505060000D0A8A8A8A805DD
:1019E0000505060000B0C8888888050505060000C2
:1019F00070888888700507070600FEF0888888F0E0
:101A000080800507070600FE788888887808080522
:101A10000505060000B0C8808080050505060000A9
:101A200078807008F00507070600002020F82020C5
:101A300020180505050600008888889868050505B2
:101A40000600008888885020050505060000888863
:101A5000A8A85005050506000088502050880507F5
:101A6000070600FE8888885020408005050506008E
:101A700000F8102040F80309090601FF204040400B
:101A800080404040200109090602FF80808080805C
:101A9000808080800309090601FF8040404020408B
:101AA00040408005030306000248A890FF73746558
:101AB000616C746843686F70004D32342053256C3C
:101AC000642054256C64004739322E392045257333
:101AD00000473120462564004739322E39205A25E7
:101AE00073004731205A30204632303000473120D1
:101AF00058257320592573204633303030004D343B
:101B0000323020532569205A2573004D313036205C
:101B100050256920532569004739322E3920453038
:101B20005A300A47315A320A47323852305859002F
:101B30004D31303920532569004D3139302053253E
:101B400069004D32303020442573004D343230204E
:101B50005330205A300020506F7765722D4C6F73D0
:101B600073205265636F7665727920446174610AEF
:101B700000496E76616C6964004E6F00496E766153
:101B80006C69640A0056616C69640A004E6F2050EB
:101B90004C520A00504C52204578697374730A0005
:101BA000506F7765722D6C6F7373207265636F76FB
:101BB0006572792000617869733A70776D5F73633D
:101BC000616C652F637572725F7363616C652F6DF5
:101BD0006563685F6C6F61647C666C6167737C775A
:101BE00061726E636F756E740A004452565F53548F
:101BF00041545553090050574D5F5343414C4509DB
:101C00000050574D434F4E460900434F4F4C434FF2
:101C10004E46090043484F50434F4E460900544832
:101C200049474809090054434F4F4C5448525309FF
:101C3000005450574D544852530900545354455082
:101C400009090054504F574552444F574E09004917
:101C50004F494E0909004753544154090900494866
:101C60004F4C445F4952554E090047434F4E460979
:101C700009007370726561644379636C6500206468
:101C80007269766572206D6F64653A09002064722E
:101C9000697665722063757272656E743A200020F1
:101CA0007072657761726E20666C616720636C6527
:101CB000617265640A0020496E76616C6964206512
:101CC0007874727564657220004F75746167652061
:101CD0005265636F7665727900436F6E66696775EA
:101CE000726174696F6E003F0043616E63656C00E2
:101CF000313530004245443A486973656E7320338C
:101D00003935300052756E6177617920576174639F
:101D1000683A204F4E004D61782054656D70003256
:101D20003735004D696E2054656D700045313A209D
:101D3000486973656E732033393530005053550050
:101D400047656E657269630050726F746F636F6C84
:101D500000312E3000426175640032353030303051
:101D60000052616D626F0042696C696E656172203C
:101D70004C6576656C696E6700457874727564654C
:101D80007273005468696E6B65722056325F424C04
:101D90005F3232303900323031392D31322D30312D
:101DA000005072696E7465722053746174730054CC
:101DB0006865726D6973746F727300426F617264EB
:101DC00020496E666F005072696E74657220496EAC
:101DD000666F004D313030300053746F7020507298
:101DE000696E7400526573756D65205072696E740A
:101DF0000053746F70004D3231004368616E676547
:101E0000204D656469610041626F7574205072698C
:101E10006E7465720054756E65004E6F204D65647A
:101E2000696100496E666F2053637265656E005389
:101E300074617274205072696E740043616E6E6FCB
:101E40007420656E746572207375626469723A20DD
:101E500000022E2E006F70656E00545249474745B0
:101E6000524544007A5F6D696E00795F6D696E005E
:101E7000785F6D696E005265706F7274696E67206D
:101E8000656E6473746F70207374617475730A0087
:101E900020436F756E7420583A0020453A00486F11
:101EA0006D696E67204661696C6564005761726E8A
:101EB000696E673A20486F6D696E672042756D7074
:101EC0002044697669736F72203C20310A0000005B
:101ED0000000000020410000000000004842000017
:101EE00048420000804002020400000000000000A0
:101EF000000000004000009643000096430000C828
:101F000043FFFFFF2062797465733B206372632097
:101F10000053657474696E67732053746F726564DF
:101F2000202800454550524F4D206461746173690B
:101F30007A65206572726F722E0A002073746F7258
:101F400065642073657474696E677320726574725A
:101F50006965766564202800202863616C63756C70
:101F60006174656429210A0020213D200045455007
:101F7000524F4D20435243206D69736D6174636805
:101F8000202D202873746F726564292000496E64C7
:101F900065783A2000204D61726C696E3D56373489
:101FA000290A00454550524F4D2076657273696F7E
:101FB0006E206D69736D61746368202845455052C9
:101FC0004F4D3D000000964300009B430000C84376
:101FD0004573746570732F6D6D005A7374657073FB
:101FE0002F6D6D005973746570732F6D6D0058738C
:101FF000746570732F6D6D00496E6974004D3432D5
:102000003800496E697469616C697A65204545508C
:10201000524F4D0053746570732F6D6D00416363B3
:10202000656C65726174696F6E0056656C6F63698B
:1020300074790053657420486F6D65204F66667330
:10204000657473004661646520486569676874005B
:102050004732380A473239004C6576656C20426554
:102060006400436D643A2053746F7700436D643AA3
:10207000204465706C6F7900436D643A2053656C41
:10208000662D5465737400436D643A2053572D4D8B
:102090006F646500436D643A205265736574004651
:1020A000616E2053706565640024F4D43050C38E93
:1020B00020C2A24017828B7011127A910D816CD9C7
:1020C0000AA861E108C7586607615143061E4B5DC7
:1020D00005C145A7041A411104093D98037139311E
:1020E000034036DB0265339102D4305402802E1D4A
:1020F00002632CEE01752AC501B028A001102781CA
:10210000018F2564012B244B01E0223401AC211FF7
:10211000018D200D01801FFC00841EED00971DDF46
:1021200000B81CD200E61BC600201BBC00641AB21B
:1021300000B219A8000A19A0006A189900D11791D5
:102140000040178B00B516840031167E00B3157958
:10215000003A157300C7146F0058146A00EE136636
:10216000008813630025135E00C7125B006C1257D2
:102170000015125400C111510070114F0021114B74
:1021800000D61049008D104700461044000210424E
:1021900000C00F4000800F3E00420F3C00060F3B86
:1021A00000CB0E3800930E37005C0E3500270E343E
:1021B00000F30D3200C10D3100900D3000600D2E86
:1021C00000320D2D00050D2C00D90C2B00AE0C2972
:1021D00000850C29005C0C2700350C27000E0C260E
:1021E00000E80B2400C40B2400A00B23007D0B236C
:1021F000005A0B2100390B2100180B2000F80A1F90
:1022000000D90A1E00BB0A1E009D0A1D00800A1D7F
:1022100000630A1C00470A1B002C0A1B00110A1A43
:1022200000F7091A00DD091900C4091900AB0919E2
:1022300000920917007B091800630917004C091662
:102240000036091600200916000A091500F50815C0
:1022500000E0081400CC081400B8081400A4081406
:1022600000900813007D0812006B08130058081234
:10227000004608120034081100230811001208114A
:102280000001081100F0071000E0071000D007104F
:1022900000C0071000B0070F00A107100091070E43
:1022A0000083070F0074070F0065070E0057070E25
:1022B0000049070E003B070D002E070E0020070DFA
:1022C0000013070D0006070D00F9060C00ED060DC2
:1022D00000E0060C00D4060C00C8060C00BC060C7E
:1022E00000B0060C00A4060B0099060C008D060B2E
:1022F0000082060B0077060B006C060B0061060AD5
:102300000057060B004C060A0042060A0038060A6F
:10231000002E060A0024060A001A060A0010060902
:102320000007060A00FD050900F4050900EB050990
:1023300000E2050900D9050900D0050900C7050913
:1023400000BE050900B5050800AD050800A5050992
:10235000009C050800940508008C05080084050809
:10236000007C050800740508006C05070065050879
:10237000005D050700560508004E050700470507E4
:10238000004005080038050700310507002A050749
:1023900000230507001C050600160507000F0507AA
:1023A000000805060002050700FB040600F5040707
:1023B00000EE040600E8040600E2040700DB040661
:1023C00000D5040600CF040600C9040600C30406B5
:1023D00000BD040600B7040600B1040500AC040605
:1023E00000A6040600A00405009B04060095040551
:1023F00000900406008A0405008504050080040698
:10240000007A04050075040500700405006B0405DE
:102410000066040500610405005C0405005704051E
:1024200000520405004D040500480405004304055E
:10243000003E0404003A040500350405003004049D
:10244000002C04050027040400230405001E0404D6
:10245000001A04040016040500110404000D04040D
:1024600000090405000404040000040400FC030443
:1024700000F8030400F4030400F0030400EC030478
:1024800000E8030400E4030400E0030400DC0304A8
:1024900000D8030400D4030400D0030400CC0304D8
:1024A00000C8030300C503030024F404D9201BC49F
:1024B0000C5C0E9804C4095F0265077101F405F90C
:1024C00000FB04B30048048700C1036900580355AA
:1024D0000003034500BE023A008402310053022A81
:1024E000002902250004022000E4011C00C8011993
:1024F00000AF01170098011400840113007101104E
:10250000006101100051010E0043010D0036010B66
:10251000002B010B0020010B00150109000C010923
:102520000003010800FB000800F3000800EB0007AF
:1025300000E4000600DE000600D8000600D2000617
:1025400000CC000500C7000500C2000500BD000466
:1025500000B9000400B5000400B1000400AD00049F
:1025600000A9000400A5000300A20003009F0004CE
:10257000009B0003009800030095000200930003F5
:1025800000900003008D0002008B00030088000211
:10259000008600020084000300810002007F000228
:1025A000007D0002007B000200790002007700013C
:1025B0000076000200740002007200010071000247
:1025C000006F0002006D0001006C0002006A000153
:1025D000006900020067000100660001006500015B
:1025E000006400020062000100610001006000015F
:1025F000005F0002005D0001005C0001005B000163
:10260000005A000100590001005800010057000164
:102610000056000100550001005400010053000065
:102620000053000100520001005100010050000160
:10263000004F0001004E0000004E0001004D00015F
:10264000004C0001004B0000004B0001004A00015B
:102650000049000100480000004800010047000157
:102660000046000000460001004500000045000152
:10267000004400010043000000430001004200004C
:102680000042000100410000004100010040000143
:10269000003F0000003F0001003E0000003E00013E
:1026A000003D0000003D0001003C0000003C000037
:1026B000003C0001003B0000003B0001003A00002C
:1026C000003A000100390000003900010038000024
:1026D000003800000038000100370000003700011A
:1026E0000036000000360000003600010035000012
:1026F0000035000000350001003400000034000007
:1027000000340001003300000033000000330001FA
:1027100000320000003200000032000100310000F1
:1027200000310000003100010030000000300000E6
:1027300000300001002F0000002F0000002F0000DB
:10274000002F0001002E0000002E0000002E0001CE
:10275000002D0000002D0000002D0000002D0001C4
:10276000002C0000002C0000002C0000002C0001B8
:10277000002B0000002B0000002B0000002B0001AC
:10278000002A0000002A0000002A0000002A0001A0
:102790000029000000290000002900000029000095
:1027A0000029000100280000002800000028000087
:1027B000002800000028000100270000002700007A
:1027C000002700000027000000270001002600006D
:1027D0000026000000260000002600000026000160
:1027E0000025000000250000002500000025000055
:1027F0000025000000250001002400000024000046
:102800000024000000240000002400010023000038
:10281000002300000023000000230000002300002C
:10282000002300000023000100220000002200001D
:10283000002200000022000000220000002200010F
:102840000021000000210000002100000021000004
:1028500000210000002100000021000100200000F4
:1028600000200000002000000020000000200000E8
:10287000002000000020000000200001001F0000D8
:10288000001F0000001F0000001F0000001F0000CC
:10289000001F0000001F0001001E0000001E0000BD
:1028A000001E0000001E000000043700001E29006A
:1028B00000511B00005810000010090000CC04005B
:1028C00000780200004101000050726F62696E677B
:1028D00020506F696E740025532025692F256900EB
:1028E00050726F62696E67206D65736820706F69E2
:1028F0006E742000202844525952554E2900473208
:1029000039204175746F20426564204C6576656C92
:10291000696E67003F20284C2C522C462C422920FF
:102920006F7574206F6620626F756E64732E0A0077
:102930003F2856296572626F7365206C6576656CF9
:1029400020696D706C61757369626C652028302D2B
:1029500034292E0A00426164205A2076616C756524
:102960000A004E6F2062696C696E65617220677241
:1029700069640A00416363656C65726174696F6EB6
:102980003A2050005741524E494E4721204C6F7714
:10299000205A204A65726B206D6179206C656164F4
:1029A00020746F20756E77616E7465642070617538
:1029B0007365732E0A00204D39322058004E6F2067
:1029C0004D6F76652E0020204D61783A2000202042
:1029D0004D696E3A2000536F667420656E6473749F
:1029E0006F70733A2000687474703A2F2F6D6172A3
:1029F0006C696E66772E6F726700322E302E78000B
:102A00004D31303030205300205049445F64543AF7
:102A10000020643A002069693A0020703A002020C2
:102A2000506C616E6E65724275666665724279744D
:102A300065733A20002046726565204D656D6F72A2
:102A4000793A2000436F6D70696C65643A20417576
:102A50006720203520323032300A00204C617374F8
:102A600020557064617465643A20323031392D31FB
:102A7000322D3031207C20417574686F723A2028E5
:102A80006E6F6E652C2064656661756C7420636F73
:102A90006E666967290A00322E302E780A004D6171
:102AA000726C696E0020536F667477617265205294
:102AB000657365740A00205761746368646F6720EA
:102AC00052657365740A002042726F776E206F75CD
:102AD000742052657365740A002045787465726EBF
:102AE000616C2052657365740A00506F776572558A
:102AF000700A006175746F25632E6700473238587D
:102B000059006572726F722077726974696E6720FE
:102B1000746F2066696C650A00446F6E652073618E
:102B200076696E672066696C652E0A004D32390041
:102B3000456E6473746F70730025532025632025E0
:102B40006320256320256300205A3A0020593A006B
:102B5000656E6473746F7073206869743A20000145
:102B6000FFFFFFFFFFFFFFFFFFFFFFFFFF0FFFFF65
:102B7000FFFFFFFFFFFFFFFFFFFFFF1E0000000042
:102B800000000000000007FFFF3800000000000008
:102B90000000000003FFFF700000000000000000C4
:102BA000000001FFFF6000000000000000000000C6
:102BB00000FFFF6000000000000000000000007F38
:102BC000FFC000000000000000007800003FFFC0D0
:102BD0000FC0FC00000000007818001FFFC03FE19C
:102BE000FF0000000000783C000FFFC07FF3FF8073
:102BF00000000000783C0007FFC0FFFFFFC000009E
:102C00000000783C0003FFC1F87F87E0000000006F
:102C100078000001FFC1F03F03E0000000007800F1
:102C20000000FFC1E01E01E01F0003E0783C03F05C
:102C30007FC1E01E01E07FC00FF8783C07FC3FC178
:102C4000E01E01E1FFE01FFC783C0FFE1FC1E01E0B
:102C500001E3FFF03FFE783C1FFE0FC1E01E01E3E1
:102C6000F3F83F3E783C3F3F07C1E01E01E7E0FC40
:102C70007C1F783C3E1F07C1E01E01E7C07C7C0F33
:102C8000783C3C0F03C1E01E01E7807C780F783C64
:102C90003C0F03C1E01E01E7803C7800783C3C0F0C
:102CA00003C1E01E01E7803C7800783C3C0F03C183
:102CB000E01E01E7803C7800783C3C0F03C1E01E39
:102CC00001E7C03C7800783C3C0F03C1E01E01E303
:102CD000E03C78007C3C3C0F03C1E01E01E3FF3F79
:102CE000F8007FBC3C0F03C1E01E01E1FF3FF8008C
:102CF0003FBFFC0F03C1E01E01E0FF3FF8001FBF14
:102D0000FC0F03C1E01E01E07F3FF8000FBFFC0F86
:102D100003600000000000000000000000000760E9
:102D2000000000000000000000000000067000002D
:102D3000000000000000000000000E38000000004D
:102D400000000000000000001C1E00000000000049
:102D5000000000000000780FFFFFFFFFFFFFFFFFF4
:102D6000FFFFFFFFF001FFFFFFFFFFFFFFFFFFFF80
:102D7000FFFF804D6F74696F6E004175746F20485E
:102D80006F6D650054656D70657261747572650074
:102D90004D38340044697361626C6520537465700A
:102DA0007065727300473238205A00486F6D652095
:102DB0005A00473238205900486F6D652059004746
:102DC0003238205800486F6D65205800473238006F
:102DD0005072656865617420504C4120456E6400F6
:102DE0005072656865617420504C412042656400F2
:102DF00050726568656174204142532042656400E9
:102E0000507265686561742041425320456E6400CC
:102E1000436F6F6C646F776E0044726976657220E1
:102E20007265676973746572733A0A0073327673F8
:102E30006209007332767361090031323043090050
:102E400031343343090031353043090031353743DC
:102E500009006F7409006F7470770900733267613D
:102E600009007332676209006F6C6109006F6C6260
:102E700009007374737409004452565354415455F5
:102E800053005374616C6C6775617264207468726E
:102E900073002D73746172740900687973746572BC
:102EA000657369730A2D656E640900626C616E6BEF
:102EB0002074696D65006F66662074696D65004FEA
:102EC00054207072657761726E206861730A626562
:102ED000656E20747269676765726564004F54207F
:102EE0007072657761726E005B6D6D2F735D0900A6
:102EF00070776D0A7468726573686F6C64007473C0
:102F000074657009006D737465707309007673657C
:102F10006E7365090050574D207363616C65004303
:102F2000532061637475616C00486F6C6420637535
:102F30007272656E740052756E2063757272656E82
:102F400074004D41582063757272656E7400524D65
:102F5000532063757272656E7400536574206375D7
:102F60007272656E7400456E61626C656409004141
:102F70006464726573730900303D2E33323500315D
:102F80003D2E3138004F46460A00466164652048B0
:102F900065696768742000426564204C6576656CDD
:102FA000696E6720004661696C656420746F2065F6
:102FB0006E61626C6520426564204C6576656C6963
:102FC0006E670A00496E76616C6964206D6573688E
:102FD0002E0A007C3C3E5E2B3D3F2F5B5D3B2C2A46
:102FE000225C0020746F6F206C6F6E6720657874B0
:102FF000727573696F6E2070726576656E74656444
:103000000A0020636F6C6420657874727573696F51
:103010006E2070726576656E7465640A00220A001F
:10302000556E6B6E6F776E20636F6D6D616E643A77
:103030002022004C4F570048494748004F4B00455D
:1030400072726F723A20416C6C200020636F6E6E5A
:10305000656374696F6E2E2E2E200054657374693B
:103060006E672000506C65617365205265736574EE
:10307000005052494E5445522048414C544544005A
:1030800025533A202553004B494C4C45442E2000F3
:103090005072696E7465722068616C7465642E206C
:1030A0006B696C6C28292063616C6C6564210A0073
:1030B0006563686F3A004572726F723A0066616CC0
:1030C000736500747275650042696C696E65617242
:1030D000204C6576656C696E6720477269643A0AB0
:1030E0000053544F505045442E20005072696E7466
:1030F00065722073746F70706564206475652074E8
:103100006F206572726F72732E2046697820746822
:1031100065206572726F7220616E64207573652020
:103120004D39393920746F20726573746172742E51
:10313000202854656D7065726174757265206973BD
:103140002072657365742E20536574206974206144
:10315000667465722072657374617274696E672932
:103160000A0053544F502063616C6C6564206265A3
:103170006361757365206F6620424C546F75636898
:10318000206572726F72202D207265737461727483
:103190002077697468204D3939390A00486F7465A1
:1031A0006E6420746F6F20636F6C640A004D36305C
:1031B000303A20546F6F20436F6C64005072657317
:1031C0007320627574746F6E20746F2072657375EE
:1031D0006D650A00507265737320627574746F6E4A
:1031E00020746F2068656174206E6F7A7A6C650A4E
:1031F000006F70656E206661696C65642C2046699D
:103200006C653A20004F6666004F6E00544D4320B7
:10321000447269766572730050726F6265205A203D
:103220004F66667365740046616E20537065656411
:10323000203D004E6F7A7A6C65004D61696E0053D7
:103240007465616C746843686F7020456E61626C70
:103250006564005374657070696E67204D6F6465B6
:103260000053656E736F726C65737320486F6D6980
:103270006E67004472697665722043757272656E7E
:103280007400436F6E74726F6C00466C6F77004C05
:103290006F61642053657474696E67730053746F53
:1032A00072652053657474696E677300416476615A
:1032B0006E6365642053657474696E677300554E60
:1032C0004C4F41442046494C414D454E54004649DF
:1032D0004C414D454E54204348414E4745005265B0
:1032E00073746F7265206661696C73616665005006
:1032F0007265686561742041425320436F6E6600B9
:103300005072656865617420504C4120436F6E6651
:1033100000424C546F756368004D3730322054259D
:1033200064004D36303020423020542564004D3743
:103330003032203B2564004D373031205425640065
:103340004D373032004D373031004D36303020426D
:103350003000436F6E74696E7565005075726765F5
:10336000206D6F726500524553554D45204F5054A6
:10337000494F4E533A005052494E542050415553F4
:1033800045440020204E6F7A7A6C653A2000256C07
:10339000642E25696D0045787472756465642054E7
:1033A0006F74616C004C6F6E67657374204A6F6256
:1033B0002054696D65003E2000546F74616C20508C
:1033C00072696E742074696D6500436F6D706C6511
:1033D000746564005072696E7420436F756E74007A
:1033E0005061726B696E672E2E2E00000057616966
:1033F0007420666F720066696C616D656E7420631F
:1034000068616E676500746F207374617274005731
:1034100061697420666F720066696C616D656E74B7
:1034200020756E6C6F616400004E6F7A7A6C652057
:1034300068656174696E6700506C656173652077BB
:103440006169742E2E2E00005072657373206275B0
:1034500074746F6E00746F2068656174206E6F7A8B
:103460007A6C650000496E736572742066696C61E0
:103470006D656E7400616E64207072657373206296
:103480007574746F6E00746F20636F6E74696E75FF
:1034900065005761697420666F720066696C616DC2
:1034A000656E74206C6F61640000507265737320E8
:1034B000427574746F6E00746F20726573756D65FC
:1034C000207072696E7400005761697420666F72B3
:1034D000207072696E7400746F20726573756D650B
:1034E0002E2E2E00005761697420666F7200666987
:1034F0006C616D656E742070757267650000453192
:1035000000626564002C2073797374656D20737498
:103510006F7070656421204865617465725F49440D
:103520003A200048656174696E67204661696C6580
:10353000640048656174696E67206661696C6564E2
:1035400000202D20496E76616C6964206578747264
:1035500075646572206E756D62657220210A005473
:103560004845524D414C2052554E41574159005407
:103570006865726D616C2052756E61776179004586
:1035800072723A204D415854454D50004D415854A7
:10359000454D5020747269676765726564004572B5
:1035A000723A204D494E54454D50004D494E5445B8
:1035B0004D5020747269676765726564004D3834D8
:1035C00020582059205A204500202F002042403A00
:1035D0000020403A0020573A000040012C017301BE
:1035E0002201AB011801F3010E0148020401AC02F3
:1035F000FA002A03F000C303E6008004DC006D0536
:10360000D2006C06C800C707BE007009B4006D0B7D
:10361000AA00CB0DA000CF138C00F21B7800E92488
:103620006400142E50009C353C00B83A2800A03DA0
:1036300014000B3F00002020202020202000256CBB
:103640006425636D001FE020102010201010201052
:10365000202010201030300840048003001FE03F7D
:10366000F03FF03FF01FE01FE03FF03FF03FF00F72
:10367000C0078003003FFFF038007030FC3020FCB2
:10368000102078102030102C00D02E31D02F7BD07D
:103690002F7BD02E31D02C00D0203010207810205D
:1036A000FC1030FC303800703FFFF03FFFF0380076
:1036B000703186302387102787902F87D02F03D033
:1036C0002030102078102078102030102F03D02FB9
:1036D00087D02787902387103186303800703FFFCE
:1036E000F01FFFF81FFFF804104002082002082016
:1036F0000410400820801041001041000820800480
:1037000010400000001FFFF81FFFF82053697A6582
:103710003A200043616E6E6F74206F70656E207387
:103720007562646972200053442063617264206F83
:103730006B0A006F70656E526F6F74206661696C02
:1037400065640A00766F6C756D652E696E6974200C
:103750006661696C65640A00534420696E6974206F
:103760006661696C0A004D32332025730057726917
:1037700074696E6720746F2066696C653A20004634
:10378000696C652073656C65637465640A004669DD
:103790006C65206F70656E65643A200066726573B3
:1037A0006800646F696E67004E6F772000454E4475
:1037B00020535542524F5554494E450A002220701D
:1037C0006F73002220706172656E743A2200535547
:1037D00042524F5554494E452043414C4C20746150
:1037E000726765743A2200747279696E6720746F2B
:1037F0002063616C6C207375622D67636F64652054
:1038000066696C6573207769746820746F6F206DCA
:10381000616E79206C6576656C732E204D41582061
:103820006C6576656C2069733A310A0044656C6595
:1038300074696F6E206661696C65642C2046696CE2
:10384000653A200046696C652064656C6574656442
:103850003A00506F7765722D6C6F73732066696CD8
:10386000652064656C657465005072696E742066CD
:10387000726F6D204D6564696100205A3A20002006
:10388000593A200042656420583A20004368616E2E
:1038900067652046696C616D656E7400556E6C6F6E
:1038A00061642046696C616D656E74004C6F616483
:1038B0002046696C616D656E740050726568656163
:1038C0007420414253005072656865617420504C09
:1038D00041005072656865617420437573746F6D43
:1038E000004261636B0050726F62696E67204661CF
:1038F000696C65640A0050726F62696E6720466188
:10390000696C656400486F6D6520257325732573A8
:1039100020466972737400496E736572742066691B
:103920006C616D656E7420616E6420707265737376
:1039300020627574746F6E0A004D6963726F7374E0
:1039400065707320756E617661696C61626C650A81
:103950000045313A200045303A20004D53312C4D7E
:1039600053322C4D53332050696E730A583A20005D
:103970005072696E74205061757365640050617592
:103980007365205072696E74004D656469612052E0
:10399000656D6F766564004D6564696120496E737D
:1039A0006572746564005468696E6B657220563286
:1039B0005F424C5F323230392052656164792E00AB
:1039C0005072696E74696E672E2E2E005072696E89
:1039D000742041626F72746564004D323520500A64
:1039E0004D32340000002100240027002A002D0061
:1039F0003000330001010000040107010A0100004A
:103A00002200250028002B002E0031003400020186
:103A10000000050108010B01000020002300260022
:103A200029002C002F0032000001000003010601D4
:103A30000901050505050705080808080202020234
:103A40000A0A08080404040401010101010101013A
:103A50000303030303030303040707070C0C0C0C05
:103A60000C0C0C0C020202020606060606060606EE
:103A70000B0B0B0B0B0B0B0B07070A0A0A0A0A0AA4
:103A80000505050404040808010210202008081098
:103A900020401020408002010201080402010102BE
:103AA0000408102040808040201008040201800497
:103AB00002018040201008040201080402010102F2
:103AC00004081020408001020408102040801008E3
:103AD0000408801020400440801020400480000032
:103AE0000A0B02090C0D0E08070304010000000078
:103AF00000000000000000000000000000000000C6
:103B00000000000000000000000012111000000082
:103B100000000000000000000000000000000000A5
:103B20000000000000000000000000000000000095
:103B3000000000004D6F76652025736D6D004D6FA0
:103B4000766520302E316D6D004D6F766520316DBC
:103B50006D004D6F76652031306D6D004D6F76656F
:103B6000204178697300486F74656E6420746F6FCC
:103B700020636F6C64004578747275646572004DE3
:103B80006F7665205A004D6F76652059004D6F762F
:103B90006520580020540020520048617264636F11
:103BA0006465642044656661756C74205365747443
:103BB000696E6773204C6F616465640A0020204D54
:103BC0003930360020204D3931340020204D353633
:103BD000392053310020204D36303320002055004D
:103BE00046696C616D656E74206C6F61642F756ED3
:103BF0006C6F6164206C656E677468733A0A004488
:103C00007269766572207374657070696E67206D75
:103C10006F64653A0A005374616C6C477561726435
:103C2000207468726573686F6C643A0A00205430BF
:103C30002045005374657070657220647269766502
:103C4000722063757272656E743A0A0020204D38D6
:103C500035312058005A2D50726F6265204F6666CC
:103C60007365740020204D343133205300506F773A
:103C700065722D4C6F7373205265636F7665727930
:103C80003A0A0020204D33303420500020204D339C
:103C900030312050005049442073657474696E6758
:103CA000733A0A0020460020480020204D31343568
:103CB0002053004D6174657269616C2068656174A0
:103CC000757020706172616D65746572733A0A0077
:103CD000204A002020473239205720490020204D1B
:103CE0003432302053004175746F20426564204C9B
:103CF0006576656C696E673A0A0020204D32303671
:103D0000205800486F6D65206F66667365743A0AC7
:103D10000020204D32303520420020453C6D617836
:103D20005F655F6A65726B3E0020583C6D61785F2D
:103D3000785F6A65726B3E20593C6D61785F795F90
:103D40006A65726B3E205A3C6D61785F7A5F6A6586
:103D5000726B3E00416476616E6365643A20423C5A
:103D60006D696E5F7365676D656E745F74696D65AF
:103D70005F75733E20533C6D696E5F666565647266
:103D80006174653E20543C6D696E5F747261766546
:103D90006C5F66656564726174653E0020204D321B
:103DA0003034205000416363656C65726174696FE3
:103DB0006E2028756E6974732F7332293A20503C37
:103DC0007072696E745F616363656C3E20523C7211
:103DD0006574726163745F616363656C3E20543C1B
:103DE00074726176656C5F616363656C3E0A002086
:103DF000204D3230312058004D6178696D756D204D
:103E0000416363656C65726174696F6E2028756EBD
:103E10006974732F7332293A0A0020204D323033EF
:103E20002058004D6178696D756D20666565647216
:103E3000617465732028756E6974732F73293A0A4B
:103E40000053746570732070657220756E69743AE2
:103E50000A0020204D3230302044300A0020204D0E
:103E60003230302044002044697361626C65640A1A
:103E70000046696C616D656E742073657474696E5B
:103E800067733A0020204D3134392043203B2055C0
:103E90006E69747320696E2043656C736975730A6B
:103EA0000020286D6D29002020473231202020205D
:103EB0003B20556E69747320696E206D6D000000A3
:103EC00096430000964300000C420000C8410000E9
:103ED000A0420000A0420000C8430000BA42DC0536
:103EE0000000DC05000096000000DC0500004F66C5
:103EF0006673657473204170706C69656400457207
:103F0000723A20546F6F206661722100546F6F20E7
:103F10006661722066726F6D207265666572656E8D
:103F2000636520706F696E740A004361703A0043E4
:103F30006C69636B20746F20526573756D652E2EEE
:103F40002E0050726F6265204F6666736574205A4A
:103F50000050726F6265204F66667365745A3A202E
:103F6000003F5A206F7574206F662072616E67651E
:103F70002028003F59206F7574206F662072616E93
:103F8000676520282D003F58206F7574206F6620CC
:103F900072616E676520282D0050726F6265204F38
:103FA0006666736574205800BE02C40211241FBEE9
:103FB000CFEFD1E2DEBFCDBF00E00CBF13E0A0E049
:103FC000B2E0E8E7F3ED02E00BBF02C007900D920C
:103FD000A23BB107D9F728E1A2EBB3E001C01D92E3
:103FE000A539B207E1F71FE1C5EDDFE100E006C04A
:103FF00021970109802FFE010F94CD65C43DD107A3
:1040000080E00807A9F70F94824F0D94AA690C94D9
:1040100000002F923F924F925F926F927F928F9209
:104020009F92AF92BF92CF92DF92EF92FF920F9347
:104030001F93CF93DF93CDB7DEB7C555D1090FB628
:10404000F894DEBF0FBECDBF66968FAF6697209106
:10405000851725962FAF259781E08093851780914E
:104060008A188D3409F408C4843511F40C94DF31B6
:10407000873411F00C94FA31209088183090891808
:104080003BE12316310409F418C1C4F454E02516A9
:10409000310444F482E0281631040CF041C037FEAC
:1040A00033C0E6C394E02916310409F4C7C0A5E182
:1040B0002A16310411F40C94FC31DAC3BAE22B163F
:1040C000310409F4AEC26CF4FDE12F16310409F499
:1040D0001EC10CF40CC13EE12316310409F42BC1BE
:1040E000C7C34BE52416310409F4E5C15CE5251688
:1040F000310409F4E5C18AE52816310409F0B8C392
:104100001092BB030C94FC3180917002882311F44F
:104110000C94FC310E943A730E94C58C0C94FC31C3
:1041200080917002882311F40C94FC310E943A7340
:1041300082E50E94D3CA882309F44EC00E9470C849
:104140006B017C0120E030E0A9010F94E05E882340
:1041500011F40C94C43220914102309142024091FA
:104160004302509144022CA33DA34EA35FA3809130
:10417000450290914602A0914702B091480288A75B
:1041800099A7AAA7BBA78090290590902A05A0907F
:104190002B05B0902C0540902D0550902E05609079
:1041A0002F0570903005A50194016CA17DA18EA111
:1041B0009FA10F94E05E81110C940932A30192013A
:1041C00068A579A58AA59BA50F94E05E882311F4C4
:1041D0000C94C4320C94093289E40E94D3CA882317
:1041E00029F00E9470C86B017C0103C0C12CD12C46
:1041F00076018AE40E94D3CA882311F40C94CB324E
:104200000E9470C86CA77DA78EA79FA720E030E012
:10421000A901C701B6010F94E05E81110C94D83258
:1042200020E030E0A9016CA57DA58EA59FA50F9487
:10423000E05E81110C94D8320C94C43280E50E9467
:10424000D3CA882329F00E9436B96B017C0103C0D0
:10425000C12CD12C760183E50E94D3CA882361F05A
:104260000E9470C820E030E04AE754E40F94465FB3
:104270000F9480676B017C010E9418B58091B11783
:10428000811105C060E085E19BE00F941B3A0F941B
:104290002B41C60ED71EE81EF91E0F942B41DC01E0
:1042A000CB018C199D09AE09BF09B7FD02C00C9462
:1042B000FC3180E00E94F03CF0CF0F94CE268111BB
:1042C0000C94FC318CE0E9E8F2E0DE0111960190FB
:1042D0000D928A95E1F760E070E080E50E94B57D7F
:1042E000BE016F5F7F4F0F94CC380C94FC318091EE
:1042F00082178770873011F00C94673660E08FE486
:104300000E94E0CA81110C94FC310C9467360F9422
:10431000CE2681110C94FC3180914E05882311F436
:104320000C94BC3760E08FE40E94E0CA81110C94C9
:10433000FC310C94BC37209176173091771740915F
:1043400078175091791760914102709142028091E3
:104350004302909144020F940D66AB01BC0188E5C5
:104360000E94955F69837A838B839C8320917A175F
:1043700030917B1740917C1750917D1760914502D9
:104380007091460280914702909148020F940D6609
:10439000AB01BC0189E50E94955F6D837E838F83AD
:1043A0009887BE016B5F7F4FCE0101960E94CAB90C
:1043B000882311F40C94FC3180E00E9420EC0E94D0
:1043C000B98F61E085E40E94E0CA21E0482FBE0178
:1043D0006B5F7F4FCE0101960F9424276B017C0108
:1043E0009B01AC010F94FF6881115FC089809A80A6
:1043F000AB80BC8020E030E0A901C501B4010F947E
:10440000E05E87FF05C027E137EB41E558EB04C0CC
:1044100027E137EB41E558E3C501B4010F940D6680
:10442000AB01BC0184E898E30E9400F18D809E807E
:10443000AF80B88420E030E0A901C501B4010F9439
:10444000E05E87FF05C027E137EB41E558EB04C08C
:1044500027E137EB41E558E3C501B4010F940D6640
:10446000AB01BC018FE798E30E9400F120E030E04F
:10447000A901C701B6010F94E05E87FF05C067E19F
:1044800077EB81E598EB04C067E177EB81E598E392
:10449000A70196010F940D66AB01BC018AE798E372
:1044A0000E9400F18AE00E94C43B0E94A08F0E94FB
:1044B000BC920C94FC318FE08093BB030C94FC31D4
:1044C00080918718882349F1893009F0A6C035E921
:1044D000A32E32E0B32E41E4E42E42E0F42ED12CA0
:1044E00000E010E0D5018D915D010E94D3CA8823C0
:1044F00069F00E9470C8F70160837183828393839F
:10450000133011F401E002C0DD24D3941F5FF4E006
:10451000EF0EF11C143031F775C085E9282E82E0CA
:10452000382E9DE1E92E95E0F92E21E432E03DA3FD
:104530002CA32AE6C22E27E1D22E00E010E0D10102
:104540008D911D010E94D3CA882309F44BC00E949B
:1045500070C82B013C01133049F0F60120813181F4
:10456000428153810F940C662B013C01ACA1BDA18B
:104570002D913D914D915C91C301B2010F940C6658
:104580004B015C012DEB37E346E855EB0F946D686A
:1045900087FD0AC02DEB37E346E855E3C501B401BA
:1045A0000F94E05E1816F4F4133051F440924D026B
:1045B00050924E0260924F027092500201E012C07F
:1045C000A5019401F70160817181828193810F942B
:1045D0000D66D7016D937D938D939C931397812FD7
:1045E0000E94088C1F5FB4E0EB0EF11CECA1FDA152
:1045F0003496FDA3ECA3F4E0CF0ED11C143009F0E7
:104600009ECF05C0DD2019F00E94819106C00023D5
:1046100021F08DE492E00E9429B50E94BC920C9496
:10462000FC3180917002882311F40C94FC3189E4F0
:104630000E94D3CAE82E882321F00E946CC8082F5C
:1046400001C000E08AE40E94D3CAF82E882321F03A
:104650000E946CC8182F01C010E0EE2011F003304A
:1046600020F4FF2041F0133030F08EE59BE00E94F3
:1046700042F00C94FC3180E1E1E4F2E0A9E2B5E023
:1046800001900D928A95E1F7EE2019F1602F000F4D
:10469000770B880B990B0F94E75E209131183091BE
:1046A000321840913318509134180F94465F20917E
:1046B0006F053091700540917105509172050F940E
:1046C0000D666093290570932A0580932B059093BE
:1046D0002C05FF2019F1612F110F770B880B990B17
:1046E0000F94E75E209135183091361840913718B5
:1046F000509138180F94465F2091730530917405DE
:1047000040917505509176050F940D6660932D05C7
:1047100070932E0580932F059093300560E080E51F
:104720000E94E0CA8823C1F1EE20D1F020917617D3
:10473000309177174091781750917917609129053A
:1047400070912A0580912B0590912C050F940C6691
:104750006093290570932A0580932B0590932C056F
:10476000FF20D1F020917A1730917B1740917C1770
:1047700050917D1760912D0570912E0580912F0528
:10478000909130050F940C6660932D0570932E0563
:1047900080932F059093300540E050E0BA0186E405
:1047A0000E94955F6B017C0120E030E0A9010F942D
:1047B0006D6818165CF420E030E040E752E4C70171
:1047C000B6010F9407676B017C0103C0C12CD12C8B
:1047D000760180907C0290907D02A0907E02B09045
:1047E0007F0220E030E0A901C701B6010F94E05E2E
:1047F000882341F0C0927C02D0927D02E0927E023A
:10480000F0927F0200911A0210911B0284E690E060
:1048100090931B0280931A02C0905102D0905202D2
:10482000E0905302F090540280E090E0A0E8BFE3F3
:104830008093510290935202A0935302B09354027A
:104840000E94C58C80927C0290927D02A0927E0292
:10485000B0927F0210931B0200931A02C092510281
:10486000D0925202E0925302F09254020C94FC3126
:104870000E94CCE80C94FC310091881810918918A2
:104880000B39110509F409C60CF03BC103351105BC
:1048900009F44AC60CF0A2C00B31110509F421C37A
:1048A0000CF05AC00531110509F488C2C4F5013174
:1048B000110509F47FC24CF40230110510F00C947C
:1048C000DC310F94D74C0C94FC310231110509F402
:1048D00032C60431110511F00C94DC318CE89BE0F8
:1048E0000E9442F086E992E10E94E4D08BE1E6E981
:1048F000F2E1DE01119601900D928A95E1F760E0F8
:1049000070E0CE0101960F940724CE0101960E941B
:10491000E1518DE79BE00E9442F00C94FC3108319C
:10492000110509F469C274F40631110509F44AC28B
:104930000731110511F00C94DC31E0918518F091EC
:1049400086184DC20931110509F4B2C20A311105A8
:1049500009F4B9C20C94DC310A32110509F478C3A8
:10496000FCF40E31110509F419C384F40C3111055E
:1049700009F40AC30D31110511F00C94DC3180915A
:1049800079128E7F809379120C94FC310F311105CE
:1049900009F43EC30032110509F410C30C94DC3154
:1049A0000D34110509F47BC36CF40B34110509F4C3
:1049B00072C30C34110511F00C94DC310E9412A06A
:1049C0000C94FC310135110509F48DC50CF0A5C519
:1049D0000E34110509F467C30C94DC31003711055E
:1049E00009F415C5E4F50A36110509F485C4CCF4BB
:1049F0000C35110509F4BBC554F40435110509F44F
:104A00009AC50535110509F499C50C94DC310836B1
:104A1000110509F4DAC30936110509F457C40C94D9
:104A2000DC310D36110509F4F4C37CF40B361105A5
:104A300009F486C40C36110511F00C94DC31109287
:104A40008417109240020C94FC310E36110509F4C3
:104A500086C40F36110509F495C40C94DC31073770
:104A6000110509F4CDC62CF50337110509F41DC64F
:104A70007CF40137110509F4D2C40237110511F095
:104A80000C94DC310E9418B50E94BC920C94FC314D
:104A90000537110509F472C60637110511F00C949B
:104AA000DC31009185181091861894E0F12C40E0DB
:104AB0008BC60A37110511F40C940B318CF40837AE
:104AC000110509F4A0C60937110511F00C94DC3169
:104AD0001092F6051092F5050F9488430C94FC3162
:104AE0000C38110509F4BDC40139110509F493C648
:104AF0000D37110511F00C94DC310E94E87C0C9408
:104B0000FC310D3921E0120711F40C94D6310CF070
:104B100096C0083141E0140711F40C94CA2DECF54D
:104B20000D3C110509F461C7E4F4093C110509F4D1
:104B30001AC754F40E3B110509F4ACC4083C110526
:104B400009F4C4C60C94DC310B3C110509F42EC7E2
:104B50000C3C110511F00C94DC310E94C0B80C948F
:104B6000FC310C3D110509F466C76CF40E3C1105CF
:104B700009F43EC7033D110511F00C94DC310E948D
:104B800016B70C94FC310D3D110509F461C7023EC6
:104B9000110509F4B3C70C94DC31003381E0180728
:104BA00011F40C94F92E1CF50D32A1E01A0711F442
:104BB0000C94792E6CF40232E1E01E0711F40C948F
:104BC000612E0C32114011F40C94642E0C94DC31E3
:104BD0000E3221E0120711F40C946C2F0F321140A9
:104BE00011F00C94DC310E94AC5F0C94FC31003964
:104BF00041E0140711F40C94B02F7CF40E3581E0E1
:104C0000180711F40C9493310F35114011F00C94E6
:104C1000DC310E94A6B60C94FC310239A1E01A07DF
:104C200011F40C94B92F14F40C94B32F0A391140D9
:104C300011F00C94DC310E9408390C94FC310B35D6
:104C4000F2E01F0711F40C9455300CF04DC0063FF4
:104C500031E0130711F40C942D301CF50C3A51E09F
:104C6000150711F40C9427306CF4043A91E01907FD
:104C700011F40C94BF2F053A114011F40C94C22F7B
:104C80000C94DC31043FB1E01B0711F40C942A3082
:104C9000053F114011F00C94DC310F942B450C941E
:104CA000FC310C30F2E01F0711F40C944A306CF424
:104CB000073F31E0130711F40C943030083F1140E6
:104CC00011F40C9439300C94DC31093352E015079F
:104CD00011F40C9411310835124011F00C94DC31B0
:104CE0000E94F07B0C94FC310C3893E0190711F40E
:104CF0000C94FC3044F50335B3E01B0711F40C941D
:104D000052307CF40D3BF2E01F0711F40C94CC30D0
:104D10000E3B124011F00C94DC310E94CE790C94C1
:104D2000FC310A3833E0130711F40C940E310B38C0
:104D3000134011F00C94DC3125E9E22E22E0F22E32
:104D400010E00C94D230023953E0150711F40C94A2
:104D500049317CF40F3893E0190711F40C941431A5
:104D60000039134011F00C94DC310E9489740C94CA
:104D7000FC31073EB3E01B0711F40C94C831083E28
:104D8000E3E01E0711F40C94D931003A134011F0FE
:104D90000C94DC312091851830918618909179120D
:104DA00092609093791240E060E0C9010F94E6228E
:104DB0000C94FC310E9457B80C94FC310F94AF1F37
:104DC0000C94FC310F943E1F80917912877F809361
:104DD00079120C94FC31803209F410823196808172
:104DE0008111F9CF40E061E080918518909186189B
:104DF0000F94E6220C94FC3183E50E94D3CA8823E9
:104E000021F00E9438C80E94166884E50E94D3CA27
:104E10008823A9F00E9438C86B017C010E94F79F8B
:104E2000C0928805D0928905E0928A05F0928B05A0
:104E3000CD28CE28CF2819F081E08093900580916D
:104E4000F9158823E9F080E090E0A8ECB2E488A3AB
:104E500099A3AAA3BBA31C8E1D8E1E8E1F8E198222
:104E60001A821B821C8220E0AE01405E5F4FBE01B1
:104E7000645E7F4FCE0101960E9446F20C94FC3195
:104E80000E944A39882381F00F944F1F0E946E3987
:104E900083EA96E10F94F41E109255041092560482
:104EA00010925704109258040F94C73A0C94FC3196
:104EB0008091791282FF03C08B7F809379120E94C8
:104EC000E87C0C94FC318091791283FD02C00C9433
:104ED000FC3183E50E94D3CA81110C94BF370C9436
:104EE000FC3183E40E94A7C8882319F187EA9BE07C
:104EF0000E9442F08091DD13882391F0BE016F5F24
:104F00007F4F8AED93E10E945BD48E010F5F1F4FAC
:104F1000D8018D918D01882339F00E94C43BF8CFD0
:104F20008DE99BE00E9442F08AE00E94C43B0C9411
:104F3000FC318091791282FF21C086EB9BE00E94B8
:104F400042F0609175127091761280917712909173
:104F500078124AE00E94CB3B8FE20E94C43B6091F2
:104F600071127091721280917312909174124AE0D2
:104F70000E94CB3B0E94C93C0C94FC3188EC9BE026
:104F80000E9442F00C94FC3140E060E08091851872
:104F9000909186180F94E6220C94FC31809179123E
:104FA00083FD02C00C94FC310E94B5E88091851805
:104FB000909186180F9418220C94FC3180917912EC
:104FC00082FD0E9418B58091791283FD02C00C9475
:104FD000FC3160E080E50E94E0CA182F482F61E0B4
:104FE00080918518909186180F94E62283E50E949F
:104FF000D3CA882321F00E9438C80E9416680F94F3
:105000004F1F11110C94FC310E946E390C94FC312D
:105010000E94C39F6C8F7D8F8E8F9F8FBE016F5FAD
:105020007F4FCE014C960E94376760E0CE0101961B
:105030000F94A23A0E9407F2BE016F5F7F4F89ED85
:105040009BE00E941EF18AE00E94C43B0C94FC315C
:1050500083E50E94D3CA882311F40C94FC310E948A
:1050600048C8F82E6DE070E080E50E9400BB8C011E
:1050700097FF02C00C94FC31E82E60E089E40E94A6
:10508000E0CA81110C94C437802F0F942D4F8111E9
:1050900052C50C94C4370E946E390C94FC310E94A6
:1050A000DAB30C94FC3160E070E083E50E9400BB51
:1050B0008E34910531F40E944BB40F94C73A0C948E
:1050C000FC318CE39CE00E9442F06091E505709118
:1050D000E60583E39CE00E94F6F06091E70570919D
:1050E000E80586E29CE00E94F6F06091E50570918B
:1050F000E6058091E7059091E805681B790B8091A2
:105100009005815021E030E0823010F020E030E066
:10511000621B730B8BE19CE00E94F6F08AE00E9418
:10512000C43B8CE39CE00E9442F08091E9059091A1
:10513000EA05A091EB05B091EC058C8F9D8FAE8FA9
:10514000BF8FBE016F5F7F4FCE014C960E943767C5
:10515000BE016F5F7F4F8EE09CE00E941EF1809148
:10516000ED059091EE05A091EF05B091F0058C8FC3
:105170009D8FAE8FBF8FBE016F5F7F4FCE014C966C
:105180000E943767BE016F5F7F4F8EEF9BE00E94EA
:105190001EF120E030E04AE754E46091F10570919F
:1051A000F2058091F3059091F4050F940767AB0128
:1051B000BC0186EE9BE00E9400F18DE60E94C43B9C
:1051C0008AE00E94C43B0C94FC318091030D83FF64
:1051D00002C00C94FC310E94547487FF02C00C94EE
:1051E000FC3183E50E94D3CA882379F00E9470C8FD
:1051F0000F9479678B01CB010E9419D806351105F0
:1052000024F40E94DAB30F94C73A0F94524F0C94CF
:10521000FC318091030D83FF02C00C94FC310E948D
:105220005474F82E87FF02C00C94FC3183E50E9471
:10523000D3CA082F811106C082E50E94D3CA182F55
:105240008823C1F10E9470C80F947967CB010E9436
:1052500019D80E9470C820E030E04AEA52E40F9466
:10526000E05E181614F40C94DD370E94DAB30F9444
:10527000C73A6091F2077091F307072E000C880B74
:10528000990B0F94E75E4B015C014090EE07509044
:10529000EF076090F0077090F107A30192010F945F
:1052A0006D68181614F40C94FB37002311F40C9459
:1052B000E13711E00F94524F112311F40C94FC319B
:1052C000602F8F2D0F94BC090C94FC310E945474F4
:1052D000182F87FD0AC088EC93E10E9442F0812FCD
:1052E0000F9445098AE00E94C43B2596BFAD2597DF
:1052F000B09385170C94FE3760E080E50E940FBBE9
:10530000182F823010F00C94FC3181E40E94A7C861
:10531000882321F06091D30770E002C06FEF70E046
:1053200083E50E94B57DE12FF0E0ED52F84F8F3F0D
:10533000910519F010F08FEF90E080830C94FC3110
:1053400060E080E50E940FBB823010F00C94FC31CD
:10535000E82FF0E0ED52F84F10820C94FC318EE40F
:105360000E94D3CA882311F40C94FC310E9438C8DF
:105370006093DD047093DE048093DF049093E00477
:105380000C94FC3183E50E94A7C8882331F060E0CB
:1053900083E50E940FBB8093030D0E9407F28DE40A
:1053A0009CE00E9442F08091030D882369F104E69D
:1053B000E02E0FE0F02E00E010E020E08091030DE1
:1053C00090E0A0E0B0E0002E04C0B695A7959795B8
:1053D00087950A94D2F780FF0EC0DD24D394D20EB5
:1053E000222319F08CE20E94C43BF701859194912D
:1053F0000E9442F02D2D0F5F1F4FE2E0EE0EF11CD8
:1054000005301105D9F690CD89E49CE08BCD41E0C3
:1054100060E070E084E59CE00E941BF5EDC783E549
:105420000E94D3CA882371F00E9448C8282F30E018
:105430002D3331051CF480930002DEC78CE380938A
:105440000002DAC70E9407F24091000250E060E0DB
:1054500070E082E69CE00E94E5F08AE00E94C43B96
:10546000CBC78091030D83FDC7C783E50E94D3CAD4
:10547000882309F4C1C70E9470C80F9479676C38FB
:1054800071050CF48B0110935E1500935D150F945C
:10549000C508B2C70E945A65AFC783E50E94D3CA48
:1054A000882309F4A9C70E9448C8182F90E0CD9717
:1054B0000CF01CE31093B6030F942B416B017C019D
:1054C000212F30E0A8EEB3E00F948A65C60ED71EF8
:1054D000E81EF91EC092B203D092B303E092B40367
:1054E000F092B50389C70F94750B0E94DAB30E943E
:1054F00094B60E944539109299071092980710921D
:10550000970768EE73E080E090E00E9485EF60E02E
:1055100089E69CE00F941B3A6FC78091BB038F7D97
:1055200080618093BB0368C78091BB038F7E8062DC
:105530008093BB0361C70E9405B85EC783E50E94E4
:10554000A7C8882309F458C70E9470C820E030E03B
:105550004AE754E40F94465F0F9480676093B70363
:105560007093B8038093B9039093BA0345C70E9420
:10557000547487FD41C790918B1894FD04C090919D
:105580008D1897FF0AC0B5E9CB2EB2E0DB2E14E0F0
:10559000E12E1DE0F12E10E009C090918E1893705D
:1055A00091F7682F81E00E9485B826C7D6018D91BA
:1055B0006D010E94D3CA882309F46DC0133009F02D
:1055C00063C00E9470C84B015C0120E030E040EAFB
:1055D00051E40F94E05E87FF4EC0A50194016091F5
:1055E000240D7091250D8091260D9091270D0F941B
:1055F00007672B013C019B01AC016091B7077091DB
:10560000B8078091B9079091BA070F94465F6093ED
:10561000B7077093B8078093B9079093BA07A301AF
:1056200092016091340D7091350D8091360D9091FD
:10563000370D0F94465F6093340D7093350D809352
:10564000360D9093370D6091C7077091C807809110
:10565000C9079091CA070F94E55EA30192010F94C8
:10566000465F0F9480676093C7077093C807809365
:10567000C9079093CA078092240D9092250DA0929D
:10568000260DB092270D07C00E9470C8F701648BE9
:10569000758B868B978B1F5FF4E0EF0EF11C143037
:1056A00009F084CF0E94F4B4A7C68EE99DE00E9461
:1056B00042F060E08EE89DE00F94654D60E089E780
:1056C0009DE00F94654D61E08DE090E20F94654D93
:1056D00061E08EE69DE00F94654D61E08EE59DE012
:1056E0000F94654D60E085E59DE00F94654D61E0A8
:1056F0008BE49DE00F94654D61E081E49DE00F94A3
:10570000654D61E089E39DE00F94654D61E08BE2BA
:105710009DE00F94654D60E08DE19DE00F94654D37
:1057200060E08EE09DE00F94654D60E080E09DE0DC
:105730000F94654D60E08AEE9CE00F94654D60E04B
:1057400089ED9CE00F94654D60E08AEC9CE00F943D
:10575000654D60E085EB9CE00F94654D61E082EA69
:105760009CE00F94654D60E085E99CE00F94654DE9
:1057700060E081E89CE00F94654D3EC680918518FD
:1057800090918618009709F48FCBDC012C9122238D
:1057900009F48ACB60E00F94A23A2EC6F80180810A
:1057A000282F2B7F213499F08035E9F481818053B3
:1057B0008A30C8F498012E5F3F4F89012F5F3F4F19
:1057C000F80180818032C9F3915041F70CC02181EA
:1057D000213349F4813421F0853461F741E0EACF87
:1057E000FF24F394E7CF41110E9407F2FF2021F03C
:1057F0008CE69EE00E9442F0C8010E94CF3CFCC5AE
:105800000E94DC93F9C581E08093F6058093F5054D
:105810000F948843F1C560E070E083E50E9400BB0F
:105820008C011127023011053CF00E9431F180E714
:105830009EE00E9442F0E0C588E40E94D3CA88231B
:10584000A9F00E946CC88A3A91053CF08530F1E0DD
:105850009F072CF084E091E002C08AEA90E0F80112
:10586000EE0FFF1FEB5EF84E9183808386E40E946B
:10587000D3CA882381F00E946CC897FD07C08F3F70
:10588000910529F024F08FEF90E001C080E0F8014D
:10589000EF5BF74E808382E40E94D3CA882309F429
:1058A000ABC50E946CC88530910534F08D389105E8
:1058B0002CF08CE890E002C085E090E0F801EE0F5B
:1058C000FF1FED5BF74E9183808396C50E94547451
:1058D000182F87FD91C584E40E94A7C8882309F486
:1058E0003FC00E9470C86B017C0101E020E030E005
:1058F000A9010F94E05E811101C000E0009345050D
:1059000020E030E0A901C701B6010F94E05E8823D2
:1059100039F10E9470C824E01202F0011124E65B04
:10592000FA4F608371838283938320E030E0A90182
:1059300060914A0570914B0580914C0590914D0501
:105940000F94E05E81110CC080E090E0A0EEBFE318
:1059500080934A0590934B05A0934C05B0934D0559
:105960000E948D8749C50E94547487FD45C565E92D
:10597000E62E62E0F62E04E01DE0D7018D917D0158
:105980000E94A7C8882359F00E9470C80F948067AE
:10599000F80160837183828393830E94ADB40C5FAE
:1059A0001F4FFDE004311F0741F726C50E945474C4
:1059B00087FD22C555E9E52E52E0F52E04E01DE0F5
:1059C000D7018D917D010E94A7C8882339F00E94DC
:1059D00070C8F80164A375A386A397A30C5F1F4F3B
:1059E000FDE004311F0761F707C50E9446B904C5F1
:1059F00035E9C32E32E0D32E4AEFE42E45E0F42EF3
:105A000010E0D6018D916D010E94A7C8882351F046
:105A10000E9470C8F7016083718382839383812F12
:105A20000E94088C1F5FF4E0EF0EF11C133049F761
:105A30000E94BC92E1C483E50E94D3CA882309F482
:105A4000DBC40E946CC890931B0280931A02D4C4DA
:105A50000E945474F82E87FDCFC483E50E94D3CAF8
:105A60000F2D0F2C000C110B882369F10E946CC8BC
:105A7000F801EE0FFF1FE05EFD4F91838083000F62
:105A8000111F000F111F98012F5A3D4F7901BC01C2
:105A9000990F880B990B0F94E75E2AE037ED43E2EC
:105AA0005CE30F94465FF801EA5BFA4F2081318195
:105AB000428153810F94465FD7016D937D938D93FF
:105AC0009C93139799C40E9407F285E40E94C43BFB
:105AD00080E38F0D0E94C43BF801EE0FFF1FE05ED4
