:100000000C94811F0C94B21F0C94B21F0C94B21F5D
:100010000C94B21F0C94B21F0C94B21F0C94B21F1C
:100020000C94B21F0C94C9DF0C94C9DF0C94C9DF87
:100030000C94B21F0C94B21F0C94B21F0C94B21FFC
:100040000C94B21F0C94D3A70C94B21F0C94B21F43
:100050000C94B21F0C94B21F0C9414FA0C9464CB41
:100060000C94B21F0C947A440C9470440C94B21FFC
:100070000C94B21F0C94B21F0C94B21F0C94B21FBC
:100080000C94B21F0C94B21F0C94B21F0C94B21FAC
:100090000C94D8CB0C94AECB0C94B21F0C94B21F22
:1000A0000C94B21F0C94B21F0C94B21F0C94B21F8C
:1000B0000C94B21F0C94B21F0C94B21F0C94B21F7C
:1000C0000C94B21F0C94B21F0C94B21F0C94B21F6C
:1000D0000C94B21F0C94B21F0C94B21F0C94B21F5C
:1000E0000C94B21F16461C46274632463D464846EB
:1000F00053465E4692469246924692466946B146BD
:10010000BD46CE46DF46F0460147124723475A47D1
:100110005A475A475A473147794785479647A7472D
:10012000B847C947DA47EB472248224822482248C5
:10013000F94741484A48594864486F487A488548D1
:100140008F48BD48BD48BD48BD489748EB48B249B7
:10015000F148FB4805490F4925493249B2493F4911
:10016000B2494D49B24955495F49B249B24973490B
:100170007D4985498F499949A849D149CB4ADA49EE
:10018000E749F449014A1A4A2A4ACB4A3A4ACB4A31
:100190004B4ACB4A564A664ACB4ACB4A7D4A8A4AA0
:1001A000954AA24AAF4AC14AEA4AE44BF34A004B95
:1001B0000D4B1A4B334B434BE44B534BE44B644BCB
:1001C000E44B6F4B7F4BE44BE44B964BA34BAE4B56
:1001D000BB4BC84BDA4B034CBB4C094C114C194C74
:1001E000214C374C424CBB4C4D4CBB4C594CBB4C3E
:1001F000614C6E4CBB4CBB4C854C8D4C954C9D4C16
:10020000A54CB44CD8BCDEBCE3BCF1BCF7BCF9BC1B
:10021000FFBC04BD20BD20BD0BBD20BD10BD16BD63
:100220001BBD40BD46BD4BBD59BD5FBD61BD67BD7A
:100230006CBD88BD88BD73BD88BD78BD7EBD83BDE6
:10024000A8BDAEBDB3BDC1BDC7BDC9BDCFBDD4BDC9
:10025000F0BDF0BDDBBDF0BDE0BDE6BDEBBD0FBE4A
:1002600015BE1ABE28BE2EBE30BE36BE3BBE57BE21
:1002700057BE42BE57BE47BE4DBE52BE58DC5BDCC9
:100280004ADC4EDC54DC92DC5FDC63DC69DC6DDC78
:1002900071DC77DC7BDC7FDC92DC85DC89DC8DDC6F
:1002A000C5E0CAE0CFE0D9E0E3E05CE1EDE0F5E0F5
:1002B000FDE007E111E11BE12AE134E15CE13EE10F
:1002C00048E152E1CFE70EE647E60BE847E647E6AE
:1002D00047E647E647E647E647E647E647E647E6B6
:1002E00047E647E647E647E647E647E647E647E6A6
:1002F00047E647E647E647E647E647E647E647E696
:1003000005E847E647E647E647E647E647E647E6C5
:1003100047E6DEE747E647E647E647E647E647E6DD
:1003200047E647E647E647E622E844E62C034E0365
:10033000E2016E02080456045002D803D603FA0301
:1003400078027003084AD73B3BCE016E84BCBFFDE8
:10035000C12F3D6C74319ABD56833DDA3D00C77F95
:1003600011BED9E4BB4C3E916BAAAABE000000802E
:100370003F05A84CCDB2D44EB93836A9020C50B9BD
:10038000918688083CA6AAAA2ABE000000803F00E9
:100390000C9416460C9452E10C9482E90C94DA49C0
:1003A0000C94004B0C94EB480C9441480C94128D27
:1003B0000C9442CB0C9425490D945E260C945EE47B
:1003C0000C943E8D0D94671D0C94A7470C94924697
:1003D0000C94424C0C94A54C0D945F4F0C94D8BCDB
:1003E0000C94DBCA0C94F8E30C94C7CA0C94374CF9
:1003F0000D94F5190C9413F50C947A480C94CAE0FA
:100400000C944ADC0C947FE50C9496470C947FDCAA
:100410000C94F7BC0C94F4E40C94D4BD0C94C15C23
:100420000C94664A0C948DDC0C94A24A0C9407B48C
:100430000C946F480C94F0F10C94745D0C9443B3DD
:100440000C943A4A0C943A8D0C9458DC0C9455490F
:100450000C947D4A0C94AEBD0C946AE90D94EE1D8B
:100460000C94BB4C0C94598B0C94AE4B0C9447BE23
:100470000C9473BD0D94131A0D9429270C944D4CB4
:100480000C94A2E40D94CF260C944BBD0C9401B4B3
:100490000C949CF70D94FD190C9431470C947BDC63
:1004A0000D94701D0C948CE50C947CE90D948B26B6
:1004B0000C9435B30C9428BE0C947F4B0C941A61A9
:1004C0000C9410BD0C94E44B0C9457B30C941A4A42
:1004D0000C940EE40C94C9470C94A95C0D94841DF3
:1004E0000C94E7490C94D9E00C9427460C9407E14E
:1004F0000D94761D0C9421F50C94034C0C94CE466F
:100500000C94854C0C947D490C944DBE0C94324651
:100510000D94E9190D9486270C9448B30C9489B76F
:100520000D94EB260D94732B0C94A05D0C947A76AD
:100530000C944D490D94902B0C9452BE0C946889E8
:100540000C940EE60C9436E40C941C460C94BD48B6
:100550000C94E9B80C94DA470D9456260C94C1BD5E
:100560000C946F4B0D94782B0C9430B30C94094C75
:100570000C94AF4A0C94A45D0C94014A0C94B3BD46
:100580000C948EE40C94CBB50C943F490D94F11966
:100590000C944EDC0C94E9B40D941C1A0C948ECA85
:1005A0000C9463DC0C94D1490C9411E10C9483BD40
:1005B0000C947AE40C948A4A0C9453460C9440BDF3
:1005C0000C94F4F60C9485490D9411260D94AD26E7
:1005D0000D9428330C9479470D9475260C942AE1D8
:1005E0000C94F5F10C94F4490C946CE40C94434B8A
:1005F0000C9464480C94C7BD0C948F490C94A7E5E7
:100600000C9436BE0D940D1A0D94161A0C94D6E95E
:100610000C94E3E00D94051A0C94E6BD0C94F4716F
:100620000C9485DC0C9442BE0C94B0E40C94954A76
:100630000C94DBBD0C94FD710C9473890D94F91925
:100640000C9448460C940F490C9404BD0D94414FF2
:100650000C945BDC0C944DB30D94811D0C940D4BEC
:100660000C94EE4E0C943BBE0C94DA780D94101A58
:100670000C9448E10C9446BD0C94EA4E0C94C14A8B
:100680000C94A8BD0C94964B0C945FBD0C94C9BD02
:100690000C944E710C94D0B30C94194C0D94641DB1
:1006A0000C9459480C94B75C0C94F5E00C94FDE064
:1006B0000D94E21D0C94564A0C9445E50C94644B41
:1006C0000C94DF460C9405490C9422E40C94F9BC7C
:1006D0000C9485470C943AB30C94534B0C9434E12E
:1006E0000D94791D0C943CF40C9489DC0C94CFBDD2
:1006F0000C945F490C9401470C94408D0C949748DE
:100700000C9411E50C9474660C9447E60D94073331
:100710000C9494E90C949D4C0C946CBD0C9432494F
:100720000C94CBB30D94ED190C9405720C94EFB3AB
:100730000C941ABE0C94F9470C94F5CA0C942EE54F
:100740000C9454DC0C945A470C94114C0C9439F5CD
:100750000C9419F50C94BC720C9457BE0C94B146D1
:100760000C9467BD0C94594C0C9423470C944AE4A8
:100770000C9422480C948D710C94BD460C94DEBCF4
:100780000C9431F50C948EE90C94D0740C944A4876
:100790000C94EBF10C9405E80C945EE90C942A4A55
:1007A0000C94D7E40C94A34B0D949D330D94731DBE
:1007B0000D947C1D0C942EBE0C942B8D0C9470E922
:1007C0000C94065E0C94FBB30C9464E90C94F04614
:1007D0000C946DDC0C94F8F10C94EF730C945E4661
:1007E0000C9492DC0C94FFBC0C94954C0C9488BD3A
:1007F0000C94EBBD0D948F1D0C94C5E00D94091A5B
:100800000C9458E90C9488E90C9459BD0C94A849AF
:100810000D946A1D0D94E5190D94B2030C941BBD43
:100820000C94CFE70C9452B30C940DF50C94D4E4D3
:100830000D94862B0C940FBE0C9461BD0C948D4CC2
:100840000C9469DC0C94214C0C9478BD0C945FDC06
:100850000C943C8D0C94CFE00C9471DC0C94848E41
:100860000C941A4B0C94F34A0C941BE10C949AE5EB
:100870000C94FBF20C9476E90C945CE10C9444E645
:100880000C94DE620C9415BE0C9440B30D94171EAC
:100890000C948F480C94D5B30C94FB480C94F1BC89
:1008A0000C9412470C9493E50C9420BD0D946D1D8F
:1008B0000C9461730C94614C0C94C8F10D94011A62
:1008C0000D9419180C940B720C947EBD0C94B55CAD
:1008D0000C94EB4E0C94B2490C94DA4B0D947D2B96
:1008E0000C94B44C0C94E3BC0C943D460D94191A32
:1008F0000C943D640C94334B0C94B35C0C94B95C35
:100900000C946E4C0C9429F50C9462E50C9422E83E
:100910000C94CB4A0C9477DC0C940BE80C94BEE45A
:100920000C94E19A0C944B4A0C94A6710C94B84721
:100930000C94EDE00C94F0BD0C94DEE70C94B8CA76
:100940000C94BB4B0D947F1B0C9430BE0C94428DC9
:100950000C94F5B30C94D1E40C9473490C9499491C
:100960000D94AE160C9485480C94C84B0C94F14829
:100970000C94EB470C94E0BD0C940BBD0C94EA4A2C
:100980000C9416BD0C9469460C943EE14E414E49C0
:100990004E495459494E46CDCCCC3D0AD7233C173D
:1009A000B7D13877CC2B329595E6241FB14F0A008A
:1009B0000020410000C84200401C4620BCBE4CCA7A
:1009C0001B0E5AAEC59D7400407A10F35A00A072F7
:1009D0004E18090010A5D4E80000E876481700007A
:1009E000E40B54020000CA9A3B000000E1F5050048
:1009F0000080969800000040420F000000A0860191
:100A0000000000102700000000E803000000006460
:100A100000000000000A00000000000100000000CB
:100A2000002C76D888DC674F0823DFC1DFAE59E1A0
:100A3000B1B796E5E3E453C63AE651997696E8E60F
:100A4000C28426EB898C9B62ED407C6FFCEFBC9CE2
:100A50009F40F2BAA56FA5F490055A2AF75C936BF4
:100A60006CF9676DC11BFCE0E40D47FEF520E6B5AF
:100A700000D0ED902E0300943577050080841E0889
:100A80000000204E0A000000C80C333333330F98A7
:100A90006E12831141EF8D2114893BE65516CFFE6E
:100AA000E6DB18D1844B381BF77C1D901DA4BBE4FA
:100AB00024203284725E228100C9F124ECA1E53D3C
:100AC00027434F4D4D554E49434154494F4E0044E5
:100AD000525952554E004552524F525300494E46BC
:100AE0004F004543484F0047322F4733206261642F
:100AF00020706172616D65746572730A00536C6574
:100B000065702E2E2E005A2050726F626520506143
:100B10007374204265640A005A2050726F62652027
:100B2000506173742042656400486F6D65205859A8
:100B30002066697273740A00486F6D6520585920E9
:100B40004669727374004D65736820706F696E74C6
:100B50002063616E6E6F74206265207265736F6CC6
:100B60007665640A00456E642066696C65206C6970
:100B700073740A00426567696E2066696C65206C53
:100B80006973740A00286E6F2066696C65290043DA
:100B9000757272656E742066696C653A2000534404
:100BA000207072696E74696E6720627974652000C6
:100BB0004E6F74205344207072696E74696E670AB8
:100BC000005072696E742074696D653A20000A5392
:100BD000746174733A2046696C616D656E7420753A
:100BE0007365643A20002C204C6F6E676573742027
:100BF0006A6F623A2000546F74616C2074696D658D
:100C00003A20002C204661696C65643A20002C2053
:100C100046696E69736865643A20005072696E7443
:100C2000733A200053746174733A200045202553B1
:100C3000006F66660044454255473A004D313132F7
:100C40002053687574646F776E004D3131332053D3
:100C5000005468696E6B65722056325F4E504E5F6D
:100C600032323039204F46462E004348414D4245EE
:100C7000525F54454D5045524154555245004D4FD9
:100C800054494F4E5F4D4F44455300544845524DD3
:100C9000414C5F50524F54454354494F4E004155CB
:100CA000544F5245504F52545F53445F5354415434
:100CB00055530050524F4D50545F535550504F5262
:100CC0005400454D455247454E43595F504152539C
:100CD000455200434153455F4C494748545F425297
:100CE000494748544E45535300544F47474C455F7E
:100CF0004C494748545300534F4654574152455F5F
:100D0000504F574552004255494C445F504552435D
:100D1000454E54004C4556454C494E475F4441545E
:100D200041005A5F50524F4245004155544F4C4587
:100D300056454C005052494E545F4A4F4200505263
:100D40004F4752455353004155544F5245504F520F
:100D5000545F54454D5000564F4C554D45545249E3
:100D6000430042494E4152595F46494C455F5452F7
:100D7000414E534645520053455249414C5F584FEE
:100D80004E5F584F4646004649524D574152455FC7
:100D90004E414D453A4D61726C696E20322E302EB7
:100DA0007820284769744875622920534F5552436B
:100DB000455F434F44455F55524C3A6874747073B5
:100DC0003A2F2F6769746875622E636F6D2F4D61BE
:100DD000726C696E4669726D776172652F4D6172D2
:100DE0006C696E2050524F544F434F4C5F564552E2
:100DF00053494F4E3A312E30204D414348494E45DC
:100E00005F545950453A5468696E6B65722056328A
:100E10005F4E504E5F32323039204558545255445F
:100E200045525F434F554E543A3120555549443A47
:100E300063656465326132662D343161322D343739
:100E400034382D396231322D6335356336326633AD
:100E5000363766660A002F2F20004D313435205377
:100E60003C696E6465783E206F7574206F662072F1
:100E7000616E67652028302D31290A0020466C6F8D
:100E8000773A200050726F7465637465642050690E
:100E90006E0A00496E76616C6964206578747275BB
:100EA0006465720A0020693A006469730043290A84
:100EB0000061626C656420286D696E2074656D70D8
:100EC0002000436F6C6420657874727564657320CC
:100ED00061726520004D34323120696E636F727229
:100EE00065637420706172616D65746572207573DD
:100EF0006167650A004F66667365747320417070A0
:100F00006C696564004572723A20546F6F206661A7
:100F1000722100546F6F206661722066726F6D20BF
:100F20007265666572656E636520706F696E740ABE
:100F300000454550524F4D204F4B0A002074656DBF
:100F40007065726174757265207072657761726E1A
:100F5000207472696767657265643A200020686F63
:100F60006D696E672073656E7369746976697479EB
:100F70003A2000E20ADD0AD60ACF0AC10A45727297
:100F80006F722077726974696E6720746F204545AF
:100F900050524F4D210A00627573793A2070617585
:100FA00073656420666F7220696E7075740A0062E2
:100FB0007573793A2070617573656420666F72206D
:100FC000757365720A00627573793A2070726F6387
:100FD000657373696E670A0053544F505045442E31
:100FE00020005072696E7465722073746F70706542
:100FF000642064756520746F206572726F72732E41
:101000002046697820746865206572726F7220616D
:101010006E6420757365204D39393920746F2072E4
:101020006573746172742E202854656D70657261E9
:10103000747572652069732072657365742E205310
:1010400065742069742061667465722072657374BA
:10105000617274696E67290A004E6F204368656388
:101060006B73756D2077697468206C696E65206E8E
:10107000756D6265722C204C617374204C696E65CD
:101080003A2000636865636B73756D206D69736DDD
:10109000617463682C204C617374204C696E653AEE
:1010A00020004C696E65204E756D62657220697313
:1010B000206E6F74204C617374204C696E65204EF5
:1010C000756D6265722B312C204C617374204C69F4
:1010D0006E653A20004D313130004D313137004DD1
:1010E00033310053442072656164206572726F72FF
:1010F0000A00446F6E65207072696E74696E6720B5
:1011000066696C650A002063757272656E7420648E
:10111000656372656173656420746F20006D412999
:101120000A0020647269766572206F766572746554
:101130006D7065726174757265207761726E696E2B
:1011400067212028004B494C4C206361757365640E
:10115000206279204B494C4C20627574746F6E2F5D
:1011600070696E0A004B494C4C206361757365646D
:1011700020627920746F6F206D75636820696E61DD
:1011800063746976652074696D65202D20637572BE
:1011900072656E7420636F6D6D616E643A20002518
:1011A000301D0C282924311C0B4527232F1B0444F8
:1011B00043212A193F40222B1A414203380906369F
:1011C0000308020600014C6F616400506F7765727E
:1011D0002D6C6F73732066696C6520636C6F73652B
:1011E000206661696C65642E0A00506F7765722D08
:1011F0006C6F73732066696C652077726974652003
:101200006661696C65642E0A005772697465002D09
:101210002D2D0A00494E56414C4944204441544129
:101220000A007072696E745F6A6F625F656C6170EC
:101230007365643A20007364706F733A20007364BE
:101240005F66696C656E616D653A20000A206661B3
:1012500064653A20006C6576656C696E673A2000BB
:1012600066616E5F73706565643A200074617267D1
:1012700065745F74656D70657261747572655F62C7
:1012800065643A20007461726765745F74656D709F
:10129000657261747572653A200066656564726195
:1012A00074653A2000706F736974696F6E5F73685C
:1012B0006966743A2000686F6D655F6F6666736576
:1012C000743A200063757272656E745F706F736933
:1012D00074696F6E3A20002076616C69645F666F96
:1012E0006F743A00204A6F62205265636F766572B0
:1012F0007920496E666F2E2E2E0A76616C69645FC6
:10130000686561643A002568753A25303268750071
:10131000256875642025303268753A253032687545
:1013200000447269766572206572726F7200636F35
:10133000696C2073686F7274206369726375697475
:101340000A006F76657274656D706572617475728E
:10135000650A0020647269766572206572726F7228
:101360002064657465637465643A203078006D614B
:1013700078002F3331000920426164207265737058
:101380006F6E73652100656E7175657565696E6751
:101390002022006F6B00526573656E643A20002551
:1013A000697920256964202569682025696D2025D3
:1013B00069730042656420436F6F6C696E672E2EFF
:1013C0002E004265642048656174696E672E2E2E7A
:1013D0000023646566696E652044454641554C545A
:1013E0005F004B6420004B6920004B702000504987
:1013F00044204175746F74756E652066696E6973FB
:10140000686564212050757420746865206C617370
:1014100074204B702C204B6920616E64204B64203B
:10142000636F6E7374616E74732066726F6D206289
:10143000656C6F7720696E746F20436F6E666967A5
:1014400075726174696F6E2E680A005049442041BC
:1014500075746F74756E65206661696C65642120B2
:1014600074696D656F75740A000A20436C6173734B
:10147000696320504944200A00204B643A20002030
:101480004B693A2000204B703A20000A204E6F2012
:101490006F76657273686F6F740A002054753A2016
:1014A00000204B753A2000206D61783A2000206DB5
:1014B000696E3A200020643A200020626961733A24
:1014C0002000504944204175746F74756E65207317
:1014D000746172740A00504944204175746F7475C8
:1014E0006E65206661696C6564212054656D706568
:1014F00072617475726520746F6F20686967680A1D
:1015000000504944204175746F74756E65206661A2
:10151000696C656421204261642065787472756429
:101520006572206E756D6265720A004572723A20AE
:101530007574663820666F6E74206E6F7420696EE5
:10154000697469616C697A65642E00000C0D00FE97
:1015500007022603BC017FFE08FE08FE05080806F8
:10156000000040F0C8888898781005080806000038
:10157000C0F88888888888F80505050600012030AD
:10158000F830200508080600002070F820202020F0
:10159000E00509090600FF2070A8A8B88888702017
:1015A000050606060001E08CEA8C8A0A0509090690
:1015B00000FFF8A88888888888A8F8050A0A060025
:1015C000FE205050505088A8A888700303030600DE
:1015D0000340A040FFFFFFFFFFFFFFFFFFFFFFFFF4
:1015E000FFFFFFFFFFFFFFFFFFFF0000000605FFFB
:1015F00001070706020080808080800080030303CB
:10160000060105A0A0A005060606000050F85050EF
:10161000F8500509090600FF2070A8A07028A870DE
:1016200020050707060000C8C81020409898050745
:101630000706000040A0A040A8906801030306022E
:10164000058080800309090601FF204040808080DA
:101650004040200309090601FF804040202020402F
:10166000408005070706000020A8702070A820050C
:1016700005050600012020F820200203030601FFD3
:10168000C04080050101060003F8020202060100C5
:10169000C0C0050707060000081010204040800564
:1016A0000707060000708898A8C888700307070617
:1016B000010040C040404040E005070706000070C0
:1016C0008808102040F8050707060000F8081030C9
:1016D00008887005070706000010305090F81010B9
:1016E000050707060000F880F0080888700507075E
:1016F000060000304080F08888700507070600006B
:10170000F8081010202020050707060000708888C0
:1017100070888870050707060000708888780810B0
:1017200060020505060100C0C000C0C00206060632
:1017300001FFC0C000C04080030505060101204034
:10174000804020050303060002F800F803050506A3
:1017500001018040204080050707060000708810C6
:10176000202000200507070600007088B8A8B88070
:1017700070050707060000708888F88888880507C4
:1017800007060000F04848704848F00507070600C3
:101790000070888080808870050707060000F04888
:1017A00048484848F0050707060000F88080F080A8
:1017B00080F8050707060000F88080F0808080052B
:1017C0000707060000708880809888700507070664
:1017D0000000888888F8888888030707060100E0E9
:1017E0004040404040E00507070600003810101058
:1017F0001090600507070600008890A0C0A09088A0
:10180000050707060000808080808080F8050707B4
:1018100006000088D8A88888888805070706000081
:101820008888C8A8988888050707060000708888F7
:1018300088888870050707060000F08888F0808097
:101840008005070706000070888888A8906805074B
:1018500007060000F08888F0A090880507070600BA
:101860000070888070088870050707060000F8205F
:101870002020202020050707060000888888888807
:101880008870050707060000888888885050200562
:10189000070706000088888888A8A850050707065B
:1018A00000008888502050888805070706000088B7
:1018B000885020202020050707060000F808102087
:1018C0004080F80309090601FFE080808080808065
:1018D00080E0050707060000804040201010080344
:1018E00009090601FFE020202020202020E0050338
:1018F000030600052050880501010600FEF80303D9
:1019000003060105804020050505060000700878E3
:1019100088780507070600008080F0888888F00531
:101920000505060000708080887005070706000026
:10193000080878888888780505050600007088F012
:101940008070050707060000304840E04040400531
:1019500007070600FE708888887808700507070664
:1019600000008080F088888888030707060100400F
:1019700000C0404040E00409090601FE100030109C
:10198000101010906005070706000080808890E026
:101990009088030707060100C04040404040E00532
:1019A0000505060000D0A8A8A8A8050505060000A2
:1019B000B0C888888805050506000070888888708A
:1019C0000507070600FEF0888888F0808005070775
:1019D0000600FE7888888878080805050506000056
:1019E000B0C880808005050506000078807008F08A
:1019F0000507070600002020F8202020180505050F
:101A00000600008888889868050505060000888813
:101A10008850200505050600008888A8A8500505FF
:101A20000506000088502050880507070600FE883C
:101A3000888850204080050505060000F8102040E9
:101A4000F80309090601FF20404040804040402043
:101A50000109090602FF80808080808080808003E9
:101A600009090601FF8040404020404040800503B6
:101A70000306000248A890FF4C6F6164206D6D0062
:101A8000556E6C6F6164206D6D0046696C2E20444C
:101A900069612E004520696E206D6DC2B30020087B
:101AA0002046616374002008204D617800200820E2
:101AB0004D696E004175746F74656D700056547297
:101AC0006176204D696E00566D696E00566D6178C5
:101AD000204500566D6178205A00566D6178205976
:101AE00000566D6178205800416D617820450041B5
:101AF0006D6178205A00416D6178205900416D6117
:101B000078205800412D54726176656C00412D5249
:101B100065747261637400416363656C007374651E
:101B2000616C746843686F70004D32342053256CCB
:101B3000642054256C64004739322E3920452573C2
:101B400000473120462564004739322E39205A2576
:101B500073004731205A3020463230300047312060
:101B600058257320592573204633303030004D34CA
:101B7000323020532569205A2573004D31303620EC
:101B800050256920532569004D313039205325698E
:101B9000004D31393020532569004D32303020441A
:101BA0002573004739322E392045305A300A4731E3
:101BB0005A320A47323852305859004D34323020A8
:101BC0005330205A300020506F7765722D4C6F7360
:101BD00073205265636F7665727920446174610A7F
:101BE00000496E76616C6964004E6F00496E7661E3
:101BF0006C69640A0056616C69640A004E6F20507B
:101C00004C520A00504C52204578697374730A0094
:101C1000506F7765722D6C6F7373207265636F768A
:101C20006572792000617869733A70776D5F7363CC
:101C3000616C652F637572725F7363616C652F6D84
:101C40006563685F6C6F61647C666C6167737C77E9
:101C500061726E636F756E740A004452565F53541E
:101C600041545553090050574D5F5343414C45096A
:101C70000050574D434F4E460900434F4F4C434F82
:101C80004E46090043484F50434F4E4609005448C2
:101C900049474809090054434F4F4C54485253098F
:101CA000005450574D544852530900545354455012
:101CB00009090054504F574552444F574E090049A7
:101CC0004F494E09090047535441540909004948F6
:101CD0004F4C445F4952554E090047434F4E460909
:101CE00009007370726561644379636C65002064F8
:101CF0007269766572206D6F64653A0900206472BE
:101D0000697665722063757272656E743A20002080
:101D10007072657761726E20666C616720636C65B6
:101D2000617265640A0020496E76616C69642065A1
:101D30007874727564657220004F757461676520F0
:101D40005265636F7665727900436F6E6669677579
:101D5000726174696F6E003F0043616E63656C0071
:101D6000313530004245443A486973656E7320331B
:101D70003935300052756E6177617920576174632F
:101D8000683A204F4E004D61782054656D700032E6
:101D90003735004D696E2054656D700045313A202D
:101DA000486973656E7320333935300050535500E0
:101DB00047656E657269630050726F746F636F6C14
:101DC00000312E30004261756400323530303030E1
:101DD0000052616D626F0042696C696E65617220CC
:101DE0004C6576656C696E670045787472756465DC
:101DF0007273005468696E6B65722056325F4E5084
:101E00004E5F3232303900323031392D31322D309F
:101E100031005072696E746572205374617473007E
:101E2000546865726D6973746F727300426F61728A
:101E30006420496E666F005072696E746572204945
:101E40006E666F004D313030300053746F7020502B
:101E500072696E7400526573756D65205072696E9B
:101E6000740053746F70004D3231004368616E67C7
:101E700065204D656469610041626F757420507220
:101E8000696E746572004E6F204D6564696100541F
:101E9000756E6500496E666F2053637265656E00EE
:101EA0005374617274205072696E740043616E6E77
:101EB0006F7420656E746572207375626469723A1E
:101EC0002000022E2E002062797465733B2063721D
:101ED00063200053657474696E67732053746F7266
:101EE0006564202800454550524F4D20646174615F
:101EF00073697A65206572726F722E0A002073749E
:101F00006F7265642073657474696E67732072659F
:101F100074726965766564202800202863616C63AB
:101F2000756C6174656429210A0020213D200045FB
:101F30004550524F4D20435243206D69736D61747B
:101F40006368202D202873746F726564292000490E
:101F50006E6465783A2000204D61726C696E3D5662
:101F60003734290A00454550524F4D20766572732B
:101F7000696F6E206D69736D6174636820284545D3
:101F800050524F4D3D000000964300009B4300001F
:101F9000C84356652D4A65726B00565A2D4A6572C4
:101FA0006B0056592D4A65726B0056582D4A657262
:101FB0006B004573746570732F6D6D005A73746593
:101FC00070732F6D6D005973746570732F6D6D0094
:101FD0005873746570732F6D6D00496E6974004D90
:101FE00034323800496E697469616C697A652045DC
:101FF0004550524F4D0053746570732F6D6D004105
:102000006363656C65726174696F6E0056656C6FB1
:10201000636974790053657420486F6D65204F665D
:102020006673657473004661646520486569676816
:1020300074004732380A473239004C6576656C20A7
:102040004265640046616E2053706565640050729D
:102050006F62696E6720506F696E7400255320258A
:10206000692F25690050726F62696E67206D657314
:102070006820706F696E74200020284452595255B0
:102080004E2900473239204175746F204265642023
:102090004C6576656C696E67003F20284C2C522C8D
:1020A000462C4229206F7574206F6620626F756E12
:1020B00064732E0A003F2856296572626F7365208B
:1020C0006C6576656C20696D706C61757369626CA6
:1020D000652028302D34292E0A00426164205A20C0
:1020E00076616C75650A004E6F2062696C696E6579
:1020F000617220677269640A00416363656C65728E
:102100006174696F6E3A2050005741524E494E47F4
:1021100021204C6F77205A204A65726B206D6179BF
:10212000206C65616420746F20756E77616E7465D4
:1021300064207061757365732E0A00204D3932205A
:1021400058004E6F204D6F76652E0020204D61782F
:102150003A200020204D696E3A2000536F667420AB
:10216000656E6473746F70733A20006F70656E00F3
:10217000545249474745524544007A5F6D696E00A5
:10218000795F6D696E00785F6D696E005265706F82
:102190007274696E6720656E6473746F70207374F7
:1021A000617475730A0020436F756E7420583A008D
:1021B00020453A00486F6D696E67204661696C651D
:1021C00064005761726E696E673A20486F6D696E80
:1021D000672042756D702044697669736F72203C88
:1021E00020310A0000000000000020410000000033
:1021F0000000484200004842000080400202040003
:1022000000000000000000000000400000964300B5
:102210000096430000C843FFFFFF24F4D43050C3AE
:102220008E20C2A24017828B7011127A910D816CA0
:10223000D90AA861E108C7586607615143061E4BD9
:102240005D05C145A7041A411104093D9803713980
:1022500031034036DB0265339102D4305402802EC4
:102260001D02632CEE01752AC501B028A0011027BC
:1022700081018F2564012B244B01E0223401AC2124
:102280001F018D200D01801FFC00841EED00971D95
:10229000DF00B81CD200E61BC600201BBC00641A7D
:1022A000B200B219A8000A19A0006A189900D11743
:1022B000910040178B00B516840031167E00B315CF
:1022C00079003A157300C7146F0058146A00EE13B2
:1022D00066008813630025135E00C7125B006C1252
:1022E000570015125400C111510070114F002111F7
:1022F0004B00D61049008D104700461044000210D4
:102300004200C00F4000800F3E00420F3C00060F0D
:102310003B00CB0E3800930E37005C0E3500270EC5
:102320003400F30D3200C10D3100900D3000600D0E
:102330002E00320D2D00050D2C00D90C2B00AE0CFB
:102340002900850C29005C0C2700350C27000E0C99
:102350002600E80B2400C40B2400A00B23007D0BF7
:1023600023005A0B2100390B2100180B2000F80A1A
:102370001F00D90A1E00BB0A1E009D0A1D00800A0C
:102380001D00630A1C00470A1B002C0A1B00110ACF
:102390001A00F7091A00DD091900C4091900AB0970
:1023A0001900920917007B091800630917004C09EE
:1023B000160036091600200916000A091500F5084E
:1023C0001500E0081400CC081400B8081400A40894
:1023D0001400900813007D0812006B0813005808C1
:1023E00012004608120034081100230811001208D8
:1023F000110001081100F0071000E0071000D007DD
:102400001000C0071000B0070F00A10710009107CF
:102410000E0083070F0074070F0065070E005707B3
:102420000E0049070E003B070D002E070E00200787
:102430000D0013070D0006070D00F9060C00ED0650
:102440000D00E0060C00D4060C00C8060C00BC060B
:102450000C00B0060C00A4060B0099060C008D06BB
:102460000B0082060B0077060B006C060B00610662
:102470000A0057060B004C060A0042060A003806FE
:102480000A002E060A0024060A001A060A00100690
:10249000090007060A00FD050900F4050900EB051F
:1024A0000900E2050900D9050900D0050900C705A2
:1024B0000900BE050900B5050800AD050800A50521
:1024C00009009C050800940508008C050800840597
:1024D00008007C050800740508006C050700650508
:1024E00008005D050700560508004E050700470572
:1024F00007004005080038050700310507002A05D8
:102500000700230507001C050600160507000F0538
:1025100007000805060002050700FB040600F50495
:102520000700EE040600E8040600E2040700DB04EE
:102530000600D5040600CF040600C9040600C30443
:102540000600BD040600B7040600B1040500AC0493
:102550000600A6040600A00405009B0406009504DE
:102560000500900406008A04050085040500800427
:1025700006007A04050075040500700405006B046C
:10258000050066040500610405005C0405005704AD
:102590000500520405004D040500480405004304ED
:1025A00005003E0404003A0405003504050030042B
:1025B00004002C04050027040400230405001E0465
:1025C00004001A04040016040500110404000D049C
:1025D0000400090405000404040000040400FC03D2
:1025E0000400F8030400F4030400F0030400EC0307
:1025F0000400E8030400E4030400E0030400DC0337
:102600000400D8030400D4030400D0030400CC0366
:102610000400C8030300C503030024F404D9201BED
:10262000C40C5C0E9804C4095F0265077101F405CF
:10263000F900FB04B30048048700C1036900580394
:10264000550003034500BE023A00840231005302E4
:102650002A002902250004022000E4011C00C80110
:102660001900AF01170098011400840113007101D3
:1026700010006101100051010E0043010D003601F0
:102680000B002B010B0020010B00150109000C01B0
:10269000090003010800FB000800F3000800EB003C
:1026A0000700E4000600DE000600D8000600D200A5
:1026B0000600CC000500C7000500C2000500BD00F3
:1026C0000400B9000400B5000400B1000400AD002E
:1026D0000400A9000400A5000300A20003009F005D
:1026E00004009B0003009800030095000200930083
:1026F0000300900003008D0002008B00030088009F
:1027000002008600020084000300810002007F00B6
:1027100002007D0002007B000200790002007700C9
:1027200001007600020074000200720001007100D6
:1027300002006F0002006D0001006C0002006A00E0
:1027400001006900020067000100660001006500E9
:1027500001006400020062000100610001006000ED
:1027600001005F0002005D0001005C0001005B00F1
:1027700001005A00010059000100580001005700F3
:1027800001005600010055000100540001005300F3
:1027900000005300010052000100510001005000F0
:1027A00001004F0001004E0000004E0001004D00EE
:1027B00001004C0001004B0000004B0001004A00EA
:1027C00001004900010048000000480001004700E6
:1027D00001004600000046000100450000004500E1
:1027E00001004400010043000000430001004200DA
:1027F00000004200010041000000410001004000D3
:1028000001003F0000003F0001003E0000003E00CC
:1028100001003D0000003D0001003C0000003C00C4
:1028200000003C0001003B0000003B0001003A00BA
:1028300000003A00010039000000390001003800B2
:1028400000003800000038000100370000003700A9
:10285000010036000000360000003600010035009F
:102860000000350000003500010034000000340095
:10287000000034000100330000003300000033008A
:10288000010032000000320000003200010031007F
:102890000000310000003100010030000000300075
:1028A0000000300001002F0000002F0000002F006A
:1028B00000002F0001002E0000002E0000002E005E
:1028C00001002D0000002D0000002D0000002D0053
:1028D00001002C0000002C0000002C0000002C0047
:1028E00001002B0000002B0000002B0000002B003B
:1028F00001002A0000002A0000002A0000002A002F
:102900000100290000002900000029000000290022
:102910000000290001002800000028000000280015
:102920000000280000002800010027000000270008
:1029300000002700000027000000270001002600FB
:1029400000002600000026000000260000002600EF
:1029500001002500000025000000250000002500E2
:1029600000002500000025000100240000002400D4
:1029700000002400000024000000240001002300C7
:1029800000002300000023000000230000002300BB
:1029900000002300000023000100220000002200AC
:1029A000000022000000220000002200000022009F
:1029B0000100210000002100000021000000210092
:1029C0000000210000002100000021000100200083
:1029D0000000200000002000000020000000200077
:1029E00000002000000020000000200001001F0067
:1029F00000001F0000001F0000001F0000001F005B
:102A000000001F0000001F0001001E0000001E004B
:102A100000001E0000001E000000043700001E29F8
:102A20000000511B00005810000010090000CC04E9
:102A3000000078020000410100004D6F74696F6E64
:102A4000004175746F20486F6D650054656D706549
:102A5000726174757265004D383400446973616247
:102A60006C6520537465707065727300473238204E
:102A70005A00486F6D65205A004732382059004887
:102A80006F6D65205900473238205800486F6D65DA
:102A900020580047323800507265686561742050D4
:102AA0004C4120456E640050726568656174205029
:102AB0004C41204265640050726568656174204134
:102AC000425320426564005072656865617420411C
:102AD000425320456E6400436F6F6C646F776E00E5
:102AE0004472697665722072656769737465727382
:102AF0003A0A0073327673620900733276736109A1
:102B0000003132304309003134334309003135306C
:102B10004309003135374309006F7409006F747041
:102B20007709007332676109007332676209006FC9
:102B30006C6109006F6C620900737473740900445E
:102B40005256535441545553005374616C6C67751D
:102B50006172642074687273002D737461727409F9
:102B600000687973746572657369730A2D656E64A4
:102B70000900626C616E6B2074696D65006F66663A
:102B80002074696D65004F54207072657761726EB4
:102B9000206861730A6265656E2074726967676593
:102BA000726564004F54207072657761726E005BCD
:102BB0006D6D2F735D090070776D0A7468726573AF
:102BC000686F6C6400747374657009006D7374656C
:102BD000707309007673656E7365090050574D2058
:102BE0007363616C650043532061637475616C00AD
:102BF000486F6C642063757272656E740052756EF6
:102C00002063757272656E74004D41582063757251
:102C100072656E7400524D532063757272656E74E6
:102C2000005365742063757272656E7400456E6141
:102C3000626C6564090041646472657373090030F5
:102C40003D2E33323500313D2E3138004F46460A95
:102C500000466164652048656967687420004265C4
:102C600064204C6576656C696E6720004661696C0E
:102C7000656420746F20656E61626C6520426564D6
:102C8000204C6576656C696E670A00496E76616CEA
:102C90006964206D6573682E0A007C3C3E5E2B3DA6
:102CA0003F2F5B5D3B2C2A225C00687474703A2FC6
:102CB0002F6D61726C696E66772E6F726700322EAF
:102CC000302E78004D3130303020530020504944B0
:102CD0005F64543A0020643A002069693A00207029
:102CE0003A002020506C616E6E65724275666665B2
:102CF0007242797465733A20002046726565204DF2
:102D0000656D6F72793A2000436F6D70696C656410
:102D10003A204A756C20333120323032300A00209C
:102D20004C61737420557064617465643A2032306C
:102D300031392D31322D3031207C20417574686F4E
:102D4000723A20286E6F6E652C2064656661756C22
:102D50007420636F6E666967290A00322E302E7800
:102D60000A004D61726C696E0020536F6674776162
:102D700072652052657365740A0020576174636838
:102D8000646F672052657365740A002042726F7722
:102D90006E206F75742052657365740A0020457843
:102DA0007465726E616C2052657365740A00506FB1
:102DB00077657255700A006175746F25632E670020
:102DC0004732385859006572726F72207772697491
:102DD000696E6720746F2066696C650A00446F6EC7
:102DE0006520736176696E672066696C652E0A00DE
:102DF0004D323900456E6473746F70730025532033
:102E0000256320256320256320256300205A3A008E
:102E100020593A00656E6473746F7073206869742A
:102E20003A200001FFFFFFFFFFFFFFFFFFFFFFFF53
:102E3000FF0FFFFFFFFFFFFFFFFFFFFFFFFFFF1E73
:102E40000000000000000000000007FFFF38000045
:102E5000000000000000000003FFFF700000000001
:102E600000000000000001FFFF6000000000000003
:102E70000000000000FFFF600000000000000000F4
:102E80000000007FFFC0000000000000000078008C
:102E9000003FFFC00FC0FC00000000007818001FBA
:102EA000FFC03FE1FF0000000000783C000FFFC0C2
:102EB0007FF3FF8000000000783C0007FFC0FFFFA9
:102EC000FFC000000000783C0003FFC1F87F87E0EE
:102ED0000000000078000001FFC1F03F03E00000A7
:102EE000000078000000FFC1E01E01E01F0003E0C9
:102EF000783C03F07FC1E01E01E07FC00FF8783C12
:102F000007FC3FC1E01E01E1FFE01FFC783C0FFE23
:102F10001FC1E01E01E3FFF03FFE783C1FFE0FC122
:102F2000E01E01E3F3F83F3E783C3F3F07C1E01E5F
:102F300001E7E0FC7C1F783C3E1F07C1E01E01E773
:102F4000C07C7C0F783C3C0F03C1E01E01E7807C15
:102F5000780F783C3C0F03C1E01E01E7803C78000D
:102F6000783C3C0F03C1E01E01E7803C7800783CD0
:102F70003C0F03C1E01E01E7803C7800783C3C0F29
:102F800003C1E01E01E7C03C7800783C3C0F03C160
:102F9000E01E01E3E03C78007C3C3C0F03C1E01EF6
:102FA00001E3FF3FF8007FBC3C0F03C1E01E01E1DD
:102FB000FF3FF8003FBFFC0F03C1E01E01E0FF3FF1
:102FC000F8001FBFFC0F03C1E01E01E07F3FF800C7
:102FD0000FBFFC0F036000000000000000000000B5
:102FE000000007600000000000000000000000007A
:102FF00006700000000000000000000000000E3815
:103000000000000000000000000000001C1E000086
:1030100000000000000000000000780FFFFFFFFF2D
:10302000FFFFFFFFFFFFFFFFF001FFFFFFFFFFFFBD
:10303000FFFFFFFFFFFF8020746F6F206C6F6E67D4
:1030400020657874727573696F6E2070726576652D
:103050006E7465640A0020636F6C64206578747216
:103060007573696F6E2070726576656E7465640A3B
:1030700000220A00556E6B6E6F776E20636F6D6D68
:10308000616E643A2022004C4F570048494748007F
:103090004F4B004572726F723A20416C6C200020D9
:1030A000636F6E6E656374696F6E2E2E2E200054F2
:1030B000657374696E6720000000210024002700FA
:1030C0002A002D0030003300010100000401070137
:1030D0000A0100002200250028002B002E003100EC
:1030E000340002010000050108010B01000020006E
:1030F0002300260029002C002F00320000010000D0
:10310000030106010901050505050705080808086A
:10311000020202020A0A080804040404010101016F
:10312000010101010303030303030303040707076A
:103130000C0C0C0C0C0C0C0C02020202060606060F
:10314000060606060B0B0B0B0B0B0B0B07070A0AED
:103150000A0A0A0A050505040404080801021020E9
:1031600020080810204010204080020102010804BD
:103170000201010204081020408080402010080451
:1031800002018004020180402010080402010804AA
:1031900002010102040810204080010204081020EE
:1031A0004080100804088010204004408010204017
:1031B000048000000A0B02090C0D0E08070304012D
:1031C00000000000000000000000000000000000FF
:1031D00000000000000000000000000000001211CC
:1031E00010000000000000000000000000000000CF
:1031F00000000000000000000000000000000000CF
:1032000000000000000000004D6F76652025736D02
:103210006D004D6F766520302E316D6D004D6F76EF
:103220006520316D6D004D6F76652031306D6D001C
:103230004D6F7665204178697300486F74656E64E0
:1032400020746F6F20636F6C6400457874727564CE
:103250006572004D6F7665205A004D6F7665205976
:10326000004D6F76652058004368616E67652046A3
:10327000696C616D656E7400556E6C6F616420469B
:10328000696C616D656E74004C6F61642046696C99
:10329000616D656E740050726568656174204142AD
:1032A00053005072656865617420504C4100507243
:1032B000656865617420437573746F6D0042616366
:1032C0006B006F70656E206661696C65642C2046CA
:1032D000696C653A20004F6666004F6E00544D439E
:1032E00020447269766572730050726F6265205A6D
:1032F000204F66667365740046616E205370656585
:1033000064203D004E6F7A7A6C65004D61696E00F5
:10331000537465616C746843686F7020456E6162B8
:103320006C6564005374657070696E67204D6F64DE
:10333000650053656E736F726C65737320486F6DB3
:10334000696E6700447269766572204375727265B2
:103350006E7400436F6E74726F6C00466C6F770012
:10336000453100626564002C2073797374656D20AB
:1033700073746F7070656421204865617465725F55
:1033800049443A200048656174696E672046616966
:103390006C65640048656174696E67206661696C7C
:1033A000656400202D20496E76616C696420657823
:1033B000747275646572206E756D62657220210A83
:1033C00000544845524D414C2052554E41574159A9
:1033D00000546865726D616C2052756E6177617919
:1033E000004572723A204D415854454D50004D41B0
:1033F0005854454D50207472696767657265640062
:103400004572723A204D494E54454D50004D494E3B
:1034100054454D5020747269676765726564004D4C
:10342000383420582059205A204500202F002042AF
:10343000403A0020403A0020573A000040012C0159
:1034400073012201AB011801F3010E0148020401CE
:10345000AC02FA002A03F000C303E6008004DC009B
:103460006D05D2006C06C800C707BE007009B40025
:103470006D0BAA00CB0DA000CF138C00F21B7800BF
:10348000E9246400142E50009C353C00B83A280012
:10349000A03D14000B3F0000202020202020200011
:1034A000256C6425636D001FE02010201020101093
:1034B0002010202010201030300840048003001F0E
:1034C000E03FF03FF03FF01FE01FE03FF03FF03FF4
:1034D000F00FC0078003003FFFF038007030FC3071
:1034E00020FC102078102030102C00D02E31D02F4E
:1034F0007BD02F7BD02E31D02C00D02030102078E4
:103500001020FC1030FC303800703FFFF03FFFF01F
:103510003800703186302387102787902F87D02F6F
:1035200003D02030102078102078102030102F0386
:10353000D02F87D0278790238710318630380070AE
:103540003FFFF01FFFF81FFFF804104002082002A1
:10355000082004104008208010410010410008207D
:10356000800410400000001FFFF81FFFF8506C653A
:10357000617365205265736574005052494E54451D
:10358000522048414C5445440025533A20255300CD
:103590004B494C4C45442E20005072696E74657244
:1035A0002068616C7465642E206B696C6C2829201E
:1035B00063616C6C6564210A006563686F3A00455D
:1035C00072726F723A0066616C7365007472756531
:1035D0000042696C696E656172204C6576656C6944
:1035E0006E6720477269643A0A00486F74656E64BA
:1035F00020746F6F20636F6C640A004D3630303A70
:1036000020546F6F20436F6C640050726573732099
:10361000627574746F6E20746F20726573756D655A
:103620000A00507265737320627574746F6E207433
:103630006F2068656174206E6F7A7A6C650A004C41
:103640006F61642053657474696E67730053746F9F
:1036500072652053657474696E67730041647661A6
:103660006E6365642053657474696E677300554EAC
:103670004C4F41442046494C414D454E540046492B
:103680004C414D454E54204348414E4745005265FC
:1036900073746F7265206661696C73616665005052
:1036A0007265686561742041425320436F6E660005
:1036B0005072656865617420504C4120436F6E669E
:1036C000004D37303220542564004D3630302042D2
:1036D0003020542564004D373032203B2564004DA6
:1036E00037303120542564004D373032004D3730AB
:1036F00031004D36303020423000436F6E74696EB9
:103700007565005075726765206D6F726500524572
:1037100053554D45204F5054494F4E533A00505247
:10372000494E54205041555345440020204E6F7A55
:103730007A6C653A2000256C642E25696D00457809
:1037400074727564656420546F74616C004C6F6EA4
:1037500067657374204A6F622054696D65003E206E
:1037600000546F74616C205072696E742074696DBE
:103770006500436F6D706C65746564005072696EAE
:103780007420436F756E74005061726B696E672EA2
:103790002E2E0000005761697420666F7200666902
:1037A0006C616D656E74206368616E676500746F2F
:1037B000207374617274005761697420666F7200BF
:1037C00066696C616D656E7420756E6C6F61640006
:1037D000004E6F7A7A6C652068656174696E670067
:1037E000506C6561736520776169742E2E2E000020
:1037F000507265737320627574746F6E00746F20FD
:1038000068656174206E6F7A7A6C650000496E732A
:103810006572742066696C616D656E7400616E64BA
:1038200020707265737320627574746F6E00746FAC
:1038300020636F6E74696E756500576169742066E8
:103840006F720066696C616D656E74206C6F616487
:103850000000507265737320427574746F6E00744B
:103860006F20726573756D65207072696E740000EB
:103870005761697420666F72207072696E7400748B
:103880006F20726573756D652E2E2E00005761696D
:103890007420666F720066696C616D656E7420706D
:1038A0007572676500002053697A653A20004361AC
:1038B0006E6E6F74206F70656E20737562646972CE
:1038C000200053442063617264206F6B0A006F70A4
:1038D000656E526F6F74206661696C65640A00766C
:1038E0006F6C756D652E696E6974206661696C65B3
:1038F000640A00534420696E6974206661696C0A29
:10390000004D32332025730057726974696E672049
:10391000746F2066696C653A200046696C65207397
:10392000656C65637465640A0046696C65206F7038
:10393000656E65643A2000667265736800646F693D
:103940006E67004E6F772000454E4420535542521B
:103950004F5554494E450A002220706F73002220B3
:10396000706172656E743A2200535542524F55543D
:10397000494E452043414C4C207461726765743A4E
:103980002200747279696E6720746F2063616C6CB9
:10399000207375622D67636F64652066696C65735B
:1039A000207769746820746F6F206D616E79206C68
:1039B0006576656C732E204D4158206C6576656C7C
:1039C0002069733A310A0044656C6574696F6E2032
:1039D0006661696C65642C2046696C653A20004616
:1039E000696C652064656C657465643A00506F7736
:1039F00065722D6C6F73732066696C652064656CED
:103A0000657465004D6963726F73746570732075BA
:103A10006E617661696C61626C650A0045313A20BD
:103A20000045303A20004D53312C4D53322C4D532C
:103A3000332050696E730A583A20005072696E74D0
:103A40002050617573656400506175736520507214
:103A5000696E74004D656469612052656D6F7665AD
:103A600064004D6564696120496E736572746564B4
:103A7000005468696E6B65722056325F4E504E5F1F
:103A8000323230392052656164792E005072696E8D
:103A900074696E672E2E2E005072696E742041621A
:103AA0006F72746564004D323520500A4D32340017
:103AB0005072696E742066726F6D204D6564696125
:103AC00000205A3A200020593A20004265642058CC
:103AD0003A200050726F62696E67204661696C65BA
:103AE000640A0050726F62696E67204661696C6596
:103AF0006400486F6D652025732573257320466922
:103B000072737400496E736572742066696C616DBE
:103B1000656E7420616E64207072657373206275C7
:103B200074746F6E0A002054002052004861726461
:103B3000636F6465642044656661756C74205365C9
:103B40007474696E6773204C6F616465640A002049
:103B5000204D3930360020204D3931340020204DA1
:103B60003536392053310020204D363033200020A7
:103B7000550046696C616D656E74206C6F61642FD1
:103B8000756E6C6F6164206C656E677468733A0A59
:103B900000447269766572207374657070696E672F
:103BA000206D6F64653A0A005374616C6C477561EF
:103BB0007264207468726573686F6C643A0A0020DE
:103BC00054302045005374657070657220647269CA
:103BD0007665722063757272656E743A0A002020F1
:103BE0004D3835312058005A2D50726F6265204F84
:103BF00066667365740020204D34313320530050C5
:103C00006F7765722D4C6F7373205265636F7665A5
:103C100072793A0A0020204D3330342050002020A1
:103C20004D3330312050005049442073657474691D
:103C30006E67733A0A0020460020480020204D316C
:103C400034352053004D6174657269616C2068657C
:103C50006174757020706172616D65746572733A1C
:103C60000A00204A002020473239205720490020EE
:103C7000204D3432302053004175746F204265640A
:103C8000204C6576656C696E673A0A0020204D32DB
:103C90003036205800486F6D65206F666673657416
:103CA0003A0A0020204D32303520420020453C6D3C
:103CB00061785F655F6A65726B3E0020583C6D619C
:103CC000785F785F6A65726B3E20593C6D61785F02
:103CD000795F6A65726B3E205A3C6D61785F7A5FEE
:103CE0006A65726B3E00416476616E6365643A207A
:103CF000423C6D696E5F7365676D656E745F746974
:103D00006D655F75733E20533C6D696E5F666565DA
:103D100064726174653E20543C6D696E5F747261BB
:103D200076656C5F66656564726174653E0020202F
:103D30004D323034205000416363656C65726174AC
:103D4000696F6E2028756E6974732F7332293A205B
:103D5000503C7072696E745F616363656C3E2052A3
:103D60003C726574726163745F616363656C3E206D
:103D7000543C74726176656C5F616363656C3E0A86
:103D80000020204D3230312058004D6178696D752A
:103D90006D20416363656C65726174696F6E202884
:103DA000756E6974732F7332293A0A0020204D32E0
:103DB00030332058004D6178696D756D20666565FA
:103DC0006472617465732028756E6974732F73292A
:103DD0003A0A0053746570732070657220756E69BD
:103DE000743A0A0020204D3230302044300A00203E
:103DF000204D3230302044002044697361626C658C
:103E0000640A0046696C616D656E74207365747434
:103E1000696E67733A0020204D3134392043203BCE
:103E200020556E69747320696E2043656C736975E3
:103E3000730A0020286D6D29002020473231202090
:103E400020203B20556E69747320696E206D6D00D3
:103E5000000096430000964300000C420000C84159
:103E60000000A0420000A0420000C8430000BA4287
:103E7000DC050000DC05000096000000DC05000009
:103E80004361703A00436C69636B20746F20526524
:103E900073756D652E2E2E0050726F6265204F6611
:103EA00066736574205A0050726F6265204F6666B3
:103EB0007365745A3A20003F5A206F7574206F66FC
:103EC0002072616E67652028003F59206F7574204D
:103ED0006F662072616E676520282D003F58206F45
:103EE0007574206F662072616E676520282D005002
:103EF000726F6265204F6666736574205800EC012E
:103F0000260311241FBECFEFD1E2DEBFCDBF00E0FC
:103F10000CBF13E0A0E0B2E0E0EFF3EC02E00BBF77
:103F200002C007900D92AE3AB107D9F728E1AEEA88
:103F3000B3E001C01D92AD35B207E1F71FE1C0E863
:103F4000DFE100E006C021970109802FFE010F94F8
:103F5000015ECF37D10780E00807A9F70F945848D2
:103F60000D94E6610C9400002F923F924F925F9265
:103F70006F927F928F929F92AF92BF92CF92DF9279
:103F8000EF92FF920F931F93CF93DF93CDB7DEB7DE
:103F9000C555D1090FB6F894DEBF0FBECDBF6696EA
:103FA0008FAF66972091B31725962FAF259781E0A5
:103FB0008093B317809152188D3409F40DC4843561
:103FC00011F40C945631873411F00C947131209017
:103FD0005018309051183BE12316310409F418C1F0
:103FE000C4F454E02516310444F482E02816310468
:103FF0000CF041C037FE33C0EBC394E02916310406
:1040000009F4C7C0A5E12A16310411F40C947331E8
:10401000DFC3BAE22B16310409F4B3C26CF4FDE13C
:104020002F16310409F41EC10CF40CC13EE1231615
:10403000310409F42BC1CCC34BE52416310409F437
:10404000EAC15CE52516310409F4EAC18AE52816BF
:10405000310409F0BDC31092B7030C947331809101
:104060006502882311F40C9473310E94C0660E948B
:1040700019A00C94733180916502882311F40C947B
:1040800073310E94C06682E50E9446BC882309F411
:104090004EC00E94EEB96B017C0120E030E0A90126
:1040A0000F941C57882311F40C943B322091410249
:1040B0003091420240914302509144022CA33DA30F
:1040C0004EA35FA38091450290914602A0914702C2
:1040D000B091480288A799A7AAA7BBA78090090515
:1040E00090900A05A0900B05B0900C0540900D052E
:1040F00050900E0560900F0570901005A501940179
:104100006CA17DA18EA19FA10F941C5781110C94CD
:104110008031A301920168A579A58AA59BA50F947A
:104120001C57882311F40C943B320C94803189E4A1
:104130000E9446BC882329F00E94EEB96B017C01E5
:1041400003C0C12CD12C76018AE40E9446BC88238E
:1041500011F40C9442320E94EEB96CA77DA78EA791
:104160009FA720E030E0A901C701B6010F941C57BA
:1041700081110C944F3220E030E0A9016CA57DA59F
:104180008EA59FA50F941C5781110C944F320C944F
:104190003B3280E50E9446BC882329F00E94DC93D4
:1041A0006B017C0103C0C12CD12C760183E50E94F8
:1041B00046BC882361F00E94EEB920E030E04AE777
:1041C00054E40F9482570F94BC5F6B017C010E94F2
:1041D000A2B18091E516811105C060E08DEF9AE0F3
:1041E0000F94CE320E949FE1C60ED71EE81EF91E24
:1041F0000E949FE1DC01CB018C199D09AE09BF092A
:10420000B7FD02C00C94733180E00E943C3AF0CFBD
:104210000F94D13881110C9473318CE0E9E8F2E00D
:10422000DE01119601900D928A95E1F760E070E051
:1042300080E50E943B71BE016F5F7F4F0F947F311D
:104240000C9473318091B0178770873011F00C9403
:10425000DE3560E08FE40E9453BC81110C94733111
:104260000C94DE350F94D13881110C947331809108
:104270002E05882311F40C94303760E08FE40E94FF
:1042800053BC81110C9473310C94303720919F17DB
:104290003091A0174091A1175091A217609141024F
:1042A0007091420280914302909144020F94495EC2
:1042B000AB01BC0188E50E940D5369837A838B832F
:1042C0009C832091A3173091A4174091A51750917A
:1042D000A617609145027091460280914702909125
:1042E00048020F94495EAB01BC0189E50E940D5361
:1042F0006D837E838F839887BE016B5F7F4FCE0176
:1043000001960E947094882311F40C94733180E01C
:104310000F948B0E0E940DA361E085E40E9453BCB4
:10432000182F21E0482FBE016B5F7F4FCE01019611
:104330000F9487396B017C019B01AC010F943B61A9
:1043400081115FC089809A80AB80BC8020E030E022
:10435000A901C501B4010F941C5787FF05C027E1CF
:1043600037EB41E558EB04C027E137EB41E558E373
:10437000C501B4010F94495EAB01BC018BEC9AE31B
:104380000F94D9128D809E80AF80B88420E030E0F9
:10439000A901C501B4010F941C5787FF05C027E18F
:1043A00037EB41E558EB04C027E137EB41E558E333
:1043B000C501B4010F94495EAB01BC0186EC9AE3E0
:1043C0000F94D91220E030E0A901C701B6010F9483
:1043D0001C5787FF05C067E177EB81E598EB04C0C8
:1043E00067E177EB81E598E3A70196010F94495EB9
:1043F000AB01BC0181EC9AE30F94D9128AE00E94D0
:1044000010390E94F4A2113011F40E941CAF0E94D6
:1044100002A60C9473318FE08093B7030C94733130
:1044200080914F18882349F1893009F0A6C045E9E9
:10443000A42E42E0B42E51E4E52E52E0F52ED12C0C
:1044400000E010E0D5018D915D010E9446BC8823FB
:1044500069F00E94EEB9F7016083718382839383D0
:10446000133011F401E002C0DD24D3941F5FF4E0A7
:10447000EF0EF11C143031F775C095E9292E92E04A
:10448000392E2DEFE22E24E0F22E21E432E03DA37E
:104490002CA333E9C32E37E1D32E00E010E0D10185
:1044A0008D911D010E9446BC882309F44BC00E94D7
:1044B000EEB92B013C01133049F0F6012081318126
:1044C000428153810F94485E2B013C01ACA1BDA1F8
:1044D0002D913D914D915C91C301B2010F94485EC5
:1044E0004B015C012DEB37E346E855EB0F94A960D7
:1044F00087FD0AC02DEB37E346E855E3C501B4015B
:104500000F941C571816F4F4133051F440924D02D6
:1045100050924E0260924F027092500201E012C01F
:10452000A5019401F70160817181828193810F94CB
:10453000495ED7016D937D938D939C931397812F43
:104540000E945C9F1F5FB4E0EB0EF11CECA1FDA18B
:104550003496FDA3ECA3F4E0CF0ED11C143009F087
:104560009ECF05C0DD2019F00E94D5A406C000230F
:1045700021F08DE492E00E94B3B10E9402A60C9457
:10458000733180916502882311F40C94733189E4AE
:104590000E9446BCE82E882321F00E94EAB9082F29
:1045A00001C000E08AE40E9446BCF82E882321F076
:1045B0000E94EAB9182F01C010E0EE2011F005307A
:1045C00020F4FF2041F0153030F086E49BE00F949A
:1045D0001B120C94733180E1E1E4F2E0A9E0B5E054
:1045E00001900D928A95E1F7EE2019F1602F000FEE
:1045F000770B880B990B0F9423572091B9173091A3
:10460000BA174091BB175091BC170F948257209155
:10461000E6043091E7044091E8045091E9040F94D6
:10462000495E6093090570930A0580930B0590938A
:104630000C05FF2019F1612F110F770B880B990BD7
:104640000F9423572091BD173091BE174091BF178B
:104650005091C0170F9482572091EA043091EB04D7
:104660004091EC045091ED040F94495E60930D0568
:1046700070930E0580930F059093100560E080E520
:104680000E9453BC8823C1F1EE20D1F020919F17E6
:104690003091A0174091A1175091A2176091090580
:1046A00070910A0580910B0590910C050F94485E5E
:1046B0006093090570930A0580930B0590930C0590
:1046C000FF20D1F02091A3173091A4174091A51796
:1046D0005091A61760910D0570910E0580910F0500
:1046E000909110050F94485E60930D0570930E0530
:1046F00080930F059093100540E050E0BA0186E4E6
:104700000E940D536B017C0120E030E0A9010F9461
:10471000A96018165CF420E030E040E752E4C701DD
:10472000B6010F94435F6B017C0103C0C12CD12CF7
:1047300076018090850290908602A0908702B090CA
:10474000880220E030E0A901C701B6010F941C5790
:10475000882341F0C0928502D0928602E0928702BF
:10476000F092880200911E0210911F0284E690E0F0
:1047700090931F0280931E02C0905102D09052026B
:10478000E0905302F090540280E090E0A0E8BFE394
:104790008093510290935202A0935302B09354021B
:1047A0000E9419A08092850290928602A0928702B0
:1047B000B092880210931F0200931E02C092510211
:1047C000D0925202E0925302F09254020C94733150
:1047D0000E94A1DB0C947331009150181091511874
:1047E0000139110509F4C8C70CF042C102351105A1
:1047F00009F438C60CF0BAC00B31110509F42BC30B
:104800000CF05AC00531110509F492C2C4F501310A
:10481000110509F489C24CF40230110510F00C9412
:1048200053310F947B460C9473310231110509F416
:1048300027C60431110511F00C94533184E79BE035
:104840000F941B128AEF91E10E9457C28BE1EAEFAD
:10485000F1E1DE01119601900D928A95E1F760E099
:1048600070E0CE0101960F941D25CE0101960F94A4
:10487000D10B85E69BE00F941B120C947331083129
:10488000110509F473C274F40631110509F454C218
:104890000731110511F00C945331E0914D18F0914E
:1048A0004E1857C20931110509F4BCC20A3111056D
:1048B00009F4C3C20C9453310A32110509F482C3BE
:1048C000FCF40E31110509F423C384F40C311105F5
:1048D00009F414C30D31110511F00C94533180917A
:1048E000DD118E7F8093DD110C9473310F31110532
:1048F00009F448C30032110509F41AC30C9453316A
:104900000D34110509F485C36CF40B34110509F459
:104910007CC30C34110511F00C9453310E940087B4
:104920000C9473310E34110509F477C30135110568
:1049300011F00C9453310E944CFA0E9464B00E9412
:104940001EB30E9448381092AF171092AE17109203
:10495000AD1768EE73E080E090E00F94F71160E02F
:1049600081E59CE00F94CE320C9473310F36110523
:1049700009F4C2C4BCF50936110509F461C4CCF4CC
:104980000535110509F47FC554F40335110509F403
:1049900070C50435110509F473C50C9453310C35F9
:1049A000110509F489C50836110509F4C8C30C942A
:1049B00053310C36110509F4E4C454F40A361105D8
:1049C00009F454C40B36110509F474C40C94533122
:1049D0000D36110509F4D7C30E36110509F479C453
:1049E0000C9453310637110509F482C6CCF4023712
:1049F000110509F4FFC554F40037110509F4C6C4C4
:104A00000137110509F4CAC40C9453310337110559
:104A100009F4F5C50537110509F45AC60C9453314C
:104A20000937110509F4A1C694F40737110509F4F3
:104A300099C60837110511F00C94533181E0809329
:104A4000C2058093C1050F94293D0C9473310D3735
:104A5000110509F404C50C38110509F4C1C40A375D
:104A6000110511F00C9453310E94D0690C947331EC
:104A70000D3921E0120711F40C944D310CF099C05E
:104A8000023E110509F4E8C70CF043C00C3C1105C7
:104A900009F45CC7E4F4083C110509F4C8C66CF4D9
:104AA0000B39110509F4B5C40E3B110511F00C9436
:104AB00053310E94D2580C947331093C110509F40A
:104AC00003C70B3C110509F422C70C945331033D75
:104AD000110509F45BC79CF40D3C110509F439C7B5
:104AE0000E3C110511F00C94533145E9C42E42E0FF
:104AF000D42E56ECE52E55E0F52E10E02DC70C3DDA
:104B0000110509F446C70D3D110509F44FC70C9472
:104B10005331003341E0140711F40C94102E0CF5BE
:104B20000D3281E0180711F40C94902D5CF40232E0
:104B3000A1E01A0709F4DCC70C32114009F4DBC705
:104B40000C9453310E32E1E01E0711F40C94832EC5
:104B50000F32114011F00C9453310E9424530C94E5
:104B60007331003921E0120711F40C94C72E7CF444
:104B70000E3541E0140711F40C940A310F35114041
:104B800011F00C9453310E944C910C947331023902
:104B900081E0180711F40C94D02E14F40C94CA2E52
:104BA0000A39114011F00C9453310E940B380C94C7
:104BB00073310B35B2E01B0711F40C94CD2F0CF0C0
:104BC0004DC0063FF1E01F0711F40C94A52F1CF512
:104BD0000C3A31E0130711F40C94442F6CF4043AAE
:104BE00051E0150711F40C94D82E053A114011F438
:104BF0000C94DB2E0C945331043F91E0190711F40F
:104C00000C94A22F053F114011F00C9453310F94D6
:104C1000CC3E0C9473310C30B2E01B0711F40C94B1
:104C2000C22F6CF4073FF1E01F0711F40C94A82F7A
:104C3000083F114011F40C94B12F0C9453310933F7
:104C400032E0130711F40C9488300835124011F04B
:104C50000C9453310E94766F0C9473310C3853E0EE
:104C6000150711F40C94763044F5033593E01907D9
:104C700011F40C94CA2F7CF40D3BB2E01B0711F425
:104C80000C9446300E3B124011F00C9453310E94AC
:104C9000546D0C9473310A38F3E01F0711F40C942F
:104CA00085300B38134011F00C94533125E9E22E76
:104CB00022E0F22E10E00C944C30023933E013075E
:104CC00011F40C94C0307CF40F3853E0150711F444
:104CD0000C948B300039134011F00C9453310E9426
:104CE0000F680C947331073E93E0190711F40C948C
:104CF0003F31083EA3E01A0711F40C945031003AFA
:104D0000134011F00C94533120914D1830914E18EE
:104D10009091DD1192609093DD1140E060E0C90157
:104D20000F94FC230C9473310E94FD920C94733108
:104D30000F94C5200C9473310F9454208091DD1191
:104D4000877F8093DD110C947331803209F41082D7
:104D5000319680818111F9CF40E061E080914D185A
:104D600090914E180F94FC230C94733183E50E94AC
:104D700046BC882321F00E94B6B90E948E5B84E570
:104D80000E9446BC8823A9F00E94B6B96B017C0141
:104D90000E94E586C0925205D0925305E0925405D8
:104DA000F0925505CD28CE28CF2819F081E08093C8
:104DB0005A0580919E158823E9F080E090E0A8ECE8
:104DC000B2E488A399A3AAA3BBA31C8E1D8E1E8E3A
:104DD0001F8E19821A821B821C8220E0AE01405E67
:104DE0005F4FBE01645E7F4FCE0101960F944D135D
:104DF0000C9473310E944D38882381F00F94652004
:104E00000E94713888E496E10F940A2010924204BF
:104E10001092430410924404109245040F947A3384
:104E20000C9473318091DD1182FF03C08B7F8093DE
:104E3000DD110E946E700C9473318091DD1183FD41
:104E400002C00C94733183E50E9446BC81110C941E
:104E500033370C94733183E40E9425BA882319F107
:104E60008FE89BE00F941B1280914113882391F0EF
:104E7000BE016F5F7F4F8EE393E10E94CEC58E012E
:104E80000F5F1F4FF80181918F01882339F00E9435
:104E90001039F8CF85E89BE00F941B128AE00E943E
:104EA00010390C9473318091DD1182FF21C08EE99D
:104EB0009BE00F941B126091D9117091DA118091CF
:104EC000DB119091DC114AE00E9417398FE20E94B9
:104ED00010396091D5117091D6118091D7119091B0
:104EE000D8114AE00E9417390E94153A0C94733188
:104EF00080EB9BE00F941B120C94733140E060E058
:104F000080914D1890914E180F94FC230C9473319E
:104F10008091DD1183FD02C00C9473310E948ADB05
:104F200080914D1890914E180F942E230C9473314C
:104F30008091DD1182FD0E94A2B18091DD1183FD7F
:104F400002C00C94733160E080E50E9453BC182FBE
:104F5000482F61E080914D1890914E180F94FC23DA
:104F600083E50E9446BC882321F00E94B6B90E94C6
:104F70008E5B0F94652011110C9473310E9471386F
:104F80000C9473310E94B1866C8F7D8F8E8F9F8FB2
:104F9000BE016F5F7F4FCE014C960E94AF5A60E01A
:104FA000CE0101960F9455330F940E13BE016F5F1F
:104FB0007F4F81EC9BE00F94F7128AE00E9410393A
:104FC0000C94733183E50E9446BC882311F40C9441
:104FD00073310E94C6B9F82E6DE070E080E50E9442
:104FE000A6958C0197FF02C00C947331E82E60E007
:104FF00089E40E9453BC81110C943837802F0F94A0
:10500000DC47811146C50C9438370E9471380C94E6
:1050100073310E9464B00C94733160E070E083E5FA
:105020000E94A6958E34910531F40E94D5B00F945C
:105030007A330C94733184E29CE00F941B126091DC
:10504000B1057091B2058BE19CE00F94CF12609195
:10505000B3057091B4058EE09CE00F94CF1260917F
:10506000B1057091B2058091B3059091B405681BAC
:10507000790B80915A05815021E030E0823010F0A8
:1050800020E030E0621B730B83E09CE00F94CF12B2
:105090008AE00E94103984E29CE00F941B128091F8
:1050A000B5059091B605A091B705B091B8058C8F64
:1050B0009D8FAE8FBF8FBE016F5F7F4FCE014C962D
:1050C0000E94AF5ABE016F5F7F4F86EF9BE00F9447
:1050D000F7128091B9059091BA05A091BB05B091E6
:1050E000BC058C8F9D8FAE8FBF8FBE016F5F7F4FD2
:1050F000CE014C960E94AF5ABE016F5F7F4F86EE85
:105100009BE00F94F71220E030E04AE754E460910E
:10511000BD057091BE058091BF059091C0050F94AB
:10512000435FAB01BC018EEC9BE00F94D9128DE67E
:105130000E9410398AE00E9410390C9473318091DA
:10514000C60C83FF02C00C9473310E94DA6787FF9C
:1051500002C00C94733183E50E9446BC882379F029
:105160000E94EEB90F94B55F8B01CB010E948CC9F0
:105170000635110524F40E9464B00F947A330F941D
:1051800001480C9473318091C60C83FF02C00C94CB
:1051900073310E94DA67F82E87FF02C00C947331D6
:1051A00083E50E9446BC082F811106C082E50E945B
:1051B00046BC182F8823C1F10E94EEB90F94B55F49
:1051C000CB010E948CC90E94EEB920E030E04AEA8F
:1051D00052E40F941C57181614F40C9451370E9483
:1051E00064B00F947A336091B5077091B607072EBB
:1051F000000C880B990B0F9423574B015C014090D6
:10520000B1075090B2076090B3077090B407A30144
:1052100092010F94A960181614F40C946F370023B0
:1052200011F40C94553711E00F940148112311F437
:105230000C947331602F8F2D0E9493F80C9473316E
:105240000E94DA67182F87FD0AC083E993E10F9463
:105250001B12812F0E941CF88AE00E9410392596AB
:10526000FFAD2597F093B3170C94C83760E080E545
:105270000E94B595182F823010F00C94733181E4A0
:105280000E9425BA882321F06091960770E002C041
:105290006FEF70E083E50E943B71E12FF0E0EA568A
:1052A000F84F8F3F910519F010F08FEF90E0808359
:1052B0000C94733160E080E50E94B595823010F067
:1052C0000C947331E82FF0E0EA56F84F10820C94FA
:1052D00073318EE40E9446BC882311F40C94733120
:1052E0000E94B6B96093CA047093CB048093CC0437
:1052F0009093CD040C94733183E50E9425BA8823E2
:1053000031F060E083E50E94B5958093C60C0F9460
:105310000E1385E39CE00F941B128091C60C88232A
:1053200069F183E7E82E8FE0F82E00E010E020E03E
:105330008091C60C90E0A0E0B0E0002E04C0B695CD
:10534000A795979587950A94D2F780FF0EC0DD2424
:10535000D394D20E222319F08CE20E941039F70167
:10536000859194910F941B122D2D0F5F1F4F32E0EA
:10537000E30EF11C05301105D9F690CD81E39CE0D8
:105380008BCD1092B21710924002ADC741E060E0A1
:1053900070E08CE39CE00F942216A5C783E50E9481
:1053A00046BC882371F00E94C6B9282F30E02D3307
:1053B00031051CF48093000296C78CE380930002B1
:1053C00092C70F940E134091000250E060E070E02D
:1053D0008AE49CE00F94BE128AE00E94103983C7D1
:1053E0008091C60C83FD7FC783E50E9446BC88235D
:1053F00009F479C70E94EEB90F94B55F6C38710556
:105400000CF48B011093BF140093BE140E949CF700
:105410006AC783E50E9446BC882309F464C70E94DA
:10542000C6B9182F90E0CD970CF01CE31093B2038F
:105430000E949FE16B017C01212F30E0A8EEB3E0D8
:105440000F949F5DC60ED71EE81EF91EC092AE03D4
:10545000D092AF03E092B003F092B10344C70E9430
:105460006E7041C78091B7038F7D80618093B703D1
:105470003AC78091B7038F7E80628093B70333C7AA
:105480000E94AB9230C783E50E9425BA882309F4B5
:105490002AC70E94EEB920E030E04AE754E40F94B6
:1054A00082570F94BC5F6093B3037093B4038093EF
:1054B000B5039093B60317C70E94DA6787FD13C739
:1054C0009091531894FD04C09091551897FF0AC00D
:1054D00015E9C12E12E0D12E07ECE02E0CE0F02EE3
:1054E00010E009C090915618937091F7682F81E0F1
:1054F0000E942B93F8C6D6018D916D010E9446BC87
:10550000882309F46DC0133009F063C00E94EEB91E
:105510004B015C0120E030E040EA51E40F941C575D
:1055200087FF4EC0A50194016091E70C7091E80CD3
:105530008091E90C9091EA0C0F94435F2B013C01A0
:105540009B01AC0160917A0770917B0780917C0789
:1055500090917D070F94825760937A0770937B0731
:1055600080937C0790937D07A30192016091F70CD3
:105570007091F80C8091F90C9091FA0C0F9482576D
:105580006093F70C7093F80C8093F90C9093FA0CDD
:1055900060918A0770918B0780918C0790918D079D
:1055A0000F942157A30192010F9482570F94BC5F6F
:1055B00060938A0770938B0780938C0790938D0775
:1055C0008092E70C9092E80CA092E90CB092EA0C61
:1055D00007C00E94EEB9F701648B758B868B978BA1
:1055E0001F5FF4E0EF0EF11C143009F084CF0E942D
:1055F0007EB179C60E94A2B10E9402A674C687E855
:105600009DE00F941B1260E087E79DE00F9409472F
:1056100060E082E69DE00F94094761E08FEE9FE134
:105620000F94094761E087E59DE00F94094761E029
:1056300087E49DE00F94094760E08EE39DE00F94BE
:10564000094761E084E39DE00F94094761E08AE245
:105650009DE00F94094761E082E29DE00F940947C5
:1056600061E084E19DE00F94094760E086E09DE001
:105670000F94094760E087EF9CE00F94094760E0D2
:1056800089EE9CE00F94094760E083ED9CE00F9465
:10569000094760E082EC9CE00F94094760E083EBEF
:1056A0009CE00F94094760E08EE99CE00F94094765
:1056B00061E08BE89CE00F94094760E08EE79CE096
:1056C0000F94094760E08AE69CE00F9409470BC6F7
:1056D00080914D1890914E18009709F49FCBDC01F2
:1056E0002C91222309F49ACB60E00F945533FBC52B
:1056F00000914D1810914E1894E0F12C40E091501B
:1057000021F1F8018081282F2B7F213421F4218180
:105710002133D9F407C08035C1F4818180538A30A8
:1057200048F013C0813421F0853421F441E002C0F7
:10573000FF24F39498012E5F3F4F89012F5F3F4F65
:10574000F80180818032C9F3DACF41110F940E1332
:10575000FF2021F086E59EE00F941B12C8010E94F5
:105760001B3AC1C50E9422A7BEC51092C205109265
:10577000C1050F94293DB7C560E070E083E50E9444
:10578000A6958C011127023011053CF00F940A13E5
:105790008AE59EE00F941B12A6C588E40E9446BCD1
:1057A0008823A9F00E94EAB98A3A91053CF0853035
:1057B000F1E09F072CF084E091E002C08AEA90E0DB
:1057C000F801EE0FFF1FEA5DF24F9183808386E4BC
:1057D0000E9446BC882381F00E94EAB997FD07C069
:1057E0008F3F910529F024F08FEF90E001C080E019
:1057F000F801E753F84E808382E40E9446BC882378
:1058000009F471C50E94EAB98530910534F08D38EC
:1058100091052CF08CE890E002C085E090E0F80162
:10582000EE0FFF1FE553F84E918380835CC50E9405
:10583000DA67182F87FD57C584E40E9425BA8823AC
:1058400009F43FC00E94EEB96B017C0101E020E049
:1058500030E0A9010F941C57811101C000E00093B2
:10586000250520E030E0A901C701B6010F941C57BF
:10587000882339F10E94EEB924E01202F0011124CC
:10588000E65DFA4F608371838283938320E030E08A
:10589000A90160912A0570912B0580912C059091AA
:1058A0002D050F941C5781110CC080E090E0A0EEF4
:1058B000BFE380932A0590932B05A0932C05B0930A
:1058C0002D050E94E19A0FC50E94DA6787FD0BC57E
:1058D00075E9E72E72E0F72E07EC1CE0D7018D91F9
:1058E0007D010E9425BA882359F00E94EEB90F94D9
:1058F000BC5FF80160837183828393830E9437B118
:105900000C5F1F4FFCE0073D1F0741F7ECC40E94EE
:10591000DA6787FDE8C465E9E62E62E0F62E07EC5B
:105920001CE0D7018D917D010E9425BA882339F0B2
:105930000E94EEB9F80164A375A386A397A30C5F38
:105940001F4FFCE0073D1F0761F7CDC40E9466931F
:10595000CAC40E94EC93C7C4D6018D916D010E9408
:1059600025BA882351F00E94EEB9F7016083718354
:1059700082839383812F0E945C9F1F5FF4E0EF0E70
:10598000F11C133049F70E9402A6ADC40E94BC91DD
:10599000AAC483E50E9446BC882309F4A4C40E94DB
:1059A000EAB990931F0280931E029DC40E94DA6799
:1059B000F82E87FD98C483E50E9446BC0F2D0F2C5E
:1059C000000C110B882369F10E94EAB9F801EE0F6F
:1059D000FF1FEC5DFD4F91838083000F111F000FAF
:1059E000111F98012F5A3D4F7901BC01990F880B67
:1059F000990B0F9423572AE037ED43E25CE30F94B1
:105A00008257F801EA5DFA4F20813181428153814A
:105A10000F948257D7016D937D938D939C93139729
:105A200062C40F940E1385E40E94103980E38F0D39
:105A30000E941039F801EE0FFF1FEC5DFD4F6081F1
:105A400071818CE79EE00F94EA1285E20E94103982
:105A50008AE00E94103947C480E50E9425BA882355
:105A600009F441C460E070E080E50E94A695F82E3C
:105A70006FEF7FEF83E50E94A6958C010196039757
:105A800008F031C4F7FC2FC48F2D0F94DC47882316
:105A900039F00F940A1384E89EE00F941B1223C47C
:105AA0000E94A2B160E08F2D0E9460E00F3FBFEF27
:105AB0001B0731F00130110571F000E010E00DC05E
:105AC0008F2D0F94B94E31E020E0892B09F030E0A2
:105AD000032F122F02C001E010E08F2D0F94B94E5A
