:100000000C94291B0C945A1B0C945A1B0C945A1BCD
:100010000C945A1B0C945A1B0C945A1B0C945A1B8C
:100020000C945A1B0C945A1B0C945A1B0C945A1B7C
:100030000C945A1B0C945A1B0C945A1B0C945A1B6C
:100040000C945A1B0C94B3700C945A1B0C945A1BAE
:100050000C945A1B0C945A1B0C94CC790C94B983B5
:100060000C945A1B0C94143E0C940A3E0C945A1B8C
:100070000C945A1B0C945A1B0C945A1B0C945A1B2C
:100080000C9410370C945A1B0C945A1B0C945A1B4A
:100090000C945A1B0C945A1B0C945A1B0C945A1B0C
:1000A0000C945A1B0C945A1B0C94E2360C945A1B59
:1000B0000C945A1B0C945A1B0C945A1B0C94B43677
:1000C0000C945A1B0C945A1B0C945A1B0C945A1BDC
:1000D0000C945A1B0C945A1B0C945A1B0C945A1BCC
:1000E0000C945A1B0C5B1B5B1E5BF25AF55AF85AB8
:1000F000FB5A075BFE5A195B015B045B9E89A18971
:10010000908994899A89D889A589A989AF89B38961
:10011000B789BD89C189C589D889CB89CF89D38958
:10012000148D198D1E8D288D328DAB8D3C8D448D97
:100130004C8D568D608D6A8D798D838DAB8D8D8DB7
:10014000978DA18D1CDD5BDB94DB58DD94DB94DBAC
:1001500094DB94DB94DB94DB94DB94DB94DB94DB27
:1001600094DB94DB94DB94DB94DB94DB94DB94DB17
:1001700094DB94DB94DB94DB94DB94DB94DB94DB07
:1001800052DD94DB94DB94DB94DB94DB94DB94DB37
:1001900094DB2BDD94DB94DB94DB94DB94DB94DB4E
:1001A00094DB94DB94DB94DB6FDD91DB084AD73B77
:1001B0003BCE016E84BCBFFDC12F3D6C74319ABD36
:1001C00056833DDA3D00C77F11BED9E4BB4C3E915A
:1001D0006BAAAABE000000803F05A84CCDB2D44E49
:1001E000B93836A9020C50B9918688083CA6AAAA4B
:1001F0002ABE000000803F000C943D840D94E72C43
:100200000C946C4F0C94B1570C94015B0C94E1BFAF
:100210000C948D570C9449920C946F5B0C9407C20C
:100220000C94D8D40C94BD890C94148D0C94018634
:100230000C94BEEA0C94AB8D0C94F4DA0C94E6BFEB
:100240000C9462900C94798D0C94D3890C94B3899E
:100250000C94B3900C9412C00C94C7D70C94C1D7D3
:100260000C94CB500C9491570C94BDC30C942684E1
:100270000C94F1DA0C94EEDA0C94C1EA0C9400C000
:100280000C94075B0C945C3E0C944EE60C941B5B48
:100290000C94C3E60C949A4C0C94C1890C94045BA6
:1002A0000C94984B0C94115A0C94198D0C94468410
:1002B0000C9430840C94054B0C9441550C9491DBB8
:1002C0000C94084D0C94D6D40C94F55A0C94A84D6B
:1002D0000C947D900C9495570C9447900C946B4B18
:1002E0000C943B4B0C94A1880C94904C0C941CDD0A
:1002F0000C94DCD40C94AD570C942BDD0C94B64BC1
:100300000C9499570C94DB950C94C4EA0C9468CE29
:100310000C94C84B0C94CE900C94FB5A0C9435530F
:100320000C94B74C0C944E530C945B3E0C9424EA02
:100330000C948D8D0C94FE5A0C94C3D70C94F14CF4
:100340000C946FDD0C94A0EF0C9435840C94DAD4EB
:100350000C9410CE0C94DBDA0C94B3540C942DE670
:100360000C94BFD70C9452DD0C945BDB0C94FDC154
:100370000C94328D0C94424D0C94CF890C947D7961
:100380000C94A18D0C940E540C949E4B0C945DC255
:100390000C94D7BF0C9457530C94F85A0C948AC4FD
:1003A0000C940C5B0C946F4B0D94C92C0C94BC4BAF
:1003B0000C945D530C94838D0C943C8D0C940CC068
:1003C0000C94BF870C94DED40C9494890C942D4B20
:1003D0000C94A5890C94A5570C949E890C943E927C
:1003E0000C941E8D0C9403840C9494DB0C94C5D750
:1003F0000C94C5890C94A9890C949D570C94C74AF8
:100400000C942B840C94C7EA0C94608D0C943A8461
:100410000C94AA4B0C94448D0C9422560C94A44B2F
:100420000C9498BF0C94288D0C94C2950C94568D06
:100430000C94195B0C944C8D0C94924B0C94DCBF77
:100440000C9402530C940F4D0C94C24B0C9420D678
:100450000D94CA050C94194B0C945F3E0C94CAEA97
:100460000C94F25A0C9458DD0C94AF890C943ACE4B
:100470000C9406C00C9491CE0C94A9570C94464D44
:100480000C94A1890C949A890C9498900C94F14A3C
:100490000C94494B0C94D44C0C9402C20C94D88903
:1004A0000C94BBEA0C944BEF0C948C4B0C949089FD
:1004B0000C94CB890C9455C20C9440840C94F8C1D4
:1004C0000C941E5B0C945D4B0C946A8D0C942F94D1
:1004D0000C94DD4A0C94A1570C94B04B0C94B78942
:1004E0000C942DEC0C94978D0C94EB4B0C944EC00B
:1004F0004E414E494E495459494E46CDCCCC3D0A09
:10050000D7233C17B7D13877CC2B329595E6241FEB
:10051000B14F0A000020410000C84200401C4620A4
:10052000BCBE4CCA1B0E5AAEC59D7400407A10F377
:100530005A00A0724E18090010A5D4E80000E87611
:1005400048170000E40B54020000CA9A3B00000068
:10055000E1F505000080969800000040420F000081
:1005600000A08601000000102700000000E8030042
:100570000000006400000000000A0000000000010C
:1005800000000000002C76D888DC674F0823DFC10C
:10059000DFAE59E1B1B796E5E3E453C63AE65199C7
:1005A0007696E8E6C28426EB898C9B62ED407C6FF0
:1005B000FCEFBC9C9F40F2BAA56FA5F490055A2AA7
:1005C000F75C936B6CF9676DC11BFCE0E40D47FEB3
:1005D000F520E6B500D0ED902E03009435770500A8
:1005E00080841E080000204E0A000000C80C33332F
:1005F00033330F986E12831141EF8D2114893BE63E
:100600005516CFFEE6DB18D1844B381BF77C1D90C6
:100610001DA4BBE424203284725E228100C9F1242F
:10062000ECA1E53D27434F4D4D554E4943415449BB
:100630004F4E0044525952554E004552524F52535C
:1006400000494E464F004543484F0047322F47333D
:100650002062616420706172616D65746572730AF5
:1006600000536C6565702E2E2E004D6573682070EA
:100670006F696E742063616E6E6F742062652072A4
:1006800065736F6C7665640A00436C69636B2074F4
:100690006F20526573756D652E2E2E00456E642099
:1006A00066696C65206C6973740A00426567696EDF
:1006B0002066696C65206C6973740A00286E6F206F
:1006C00066696C65290043757272656E742066698F
:1006D0006C653A20005344207072696E74696E67CD
:1006E000206279746520004E6F742053442070722C
:1006F000696E74696E670A005072696E742074695D
:100700006D653A20000A53746174733A2046696C2F
:10071000616D656E7420757365643A20002C204C01
:100720006F6E67657374206A6F623A2000546F744D
:10073000616C2074696D653A20002C204661696CFB
:1007400065643A20002C2046696E69736865643AD6
:1007500020005072696E74733A2000537461747390
:100760003A200045202553006F66660044454255F7
:10077000473A004D3131322053687574646F776E9B
:10078000004D3131332053005468696E6B6572201F
:1007900056325F424C204F46462E004348414D4260
:1007A00045525F54454D5045524154555245004DB8
:1007B0004F54494F4E5F4D4F4445530054484552A6
:1007C0004D414C5F50524F54454354494F4E0041A8
:1007D00055544F5245504F52545F53445F53544108
:1007E0005455530050524F4D50545F535550504F35
:1007F000525400454D455247454E43595F50415272
:1008000053455200434153455F4C494748545F426A
:1008100052494748544E45535300544F47474C455F
:100820005F4C494748545300534F46545741524533
:100830005F504F574552004255494C445F50455216
:1008400043454E54004C4556454C494E475F444144
:100850005441005A5F50524F4245004155544F4C4D
:100860004556454C005052494E545F4A4F42005045
:10087000524F4752455353004155544F5245504FE4
:1008800052545F54454D5000564F4C554D455452AF
:1008900049430042494E4152595F46494C455F54D5
:1008A00052414E534645520053455249414C5F58C0
:1008B0004F4E5F584F4646004649524D57415245AC
:1008C0005F4E414D453A4D61726C696E20322E305B
:1008D0002E7820284769744875622920534F555255
:1008E00043455F434F44455F55524C3A68747470BA
:1008F000733A2F2F6769746875622E636F6D2F4D81
:1009000061726C696E4669726D776172652F4D61B7
:10091000726C696E2050524F544F434F4C5F564596
:100920005253494F4E3A312E30204D414348494EA3
:10093000455F545950453A5468696E6B657220564C
:10094000325F424C2045585452554445525F434F04
:10095000554E543A3120555549443A6365646532E1
:100960006132662D343161322D343734382D39629D
:1009700031322D6335356336326633363766660A73
:10098000002F2F20004D31343520533C696E6465B3
:10099000783E206F7574206F662072616E676520E7
:1009A00028302D31290A0020466C6F773A200050FC
:1009B000726F7465637465642050696E0A00206FFD
:1009C0007574206F662072616E67650A002053653A
:1009D00072766F2000496E76616C69642065787468
:1009E00072756465720A0020693A00646973004395
:1009F000290A0061626C656420286D696E20746547
:100A00006D702000436F6C64206578747275646546
:100A1000732061726520004D34323120696E636F3E
:100A2000727265637420706172616D6574657220A5
:100A300075736167650A004F66667365747320415C
:100A400070706C696564004572723A20546F6F2053
:100A50006661722100546F6F206661722066726F4A
:100A60006D207265666572656E636520706F696E74
:100A7000740A00454550524F4D204F4B0A00496EB5
:100A800076616C69640A0056616C69640A004E6F95
:100A900020504C520A00504C5220457869737473B0
:100AA0000A00506F7765722D6C6F737320726563E7
:100AB0006F766572792000460641063A06330625B0
:100AC000064572726F722077726974696E6720745E
:100AD0006F20454550524F4D210A00627573793A97
:100AE0002070617573656420666F7220696E707521
:100AF000740A00627573793A2070617573656420B9
:100B0000666F7220757365720A00627573793A2098
:100B100070726F63657373696E670A004E6F20436E
:100B20006865636B73756D2077697468206C696E96
:100B300065206E756D6265722C204C617374204C5B
:100B4000696E653A2000636865636B73756D206D2F
:100B500069736D617463682C204C617374204C69F7
:100B60006E653A20004C696E65204E756D62657247
:100B7000206973206E6F74204C617374204C696E11
:100B800065204E756D6265722B312C204C6173743B
:100B9000204C696E653A20004D313130004D3131C5
:100BA00037004D3331005344207265616420657213
:100BB000726F720A00446F6E65207072696E74699C
:100BC0006E672066696C650A004B494C4C20636176
:100BD00075736564206279204B494C4C20627574B2
:100BE000746F6E2F70696E0A004B494C4C20636124
:100BF0007573656420627920746F6F206D7563680A
:100C000020696E6163746976652074696D65202D55
:100C10002063757272656E7420636F6D6D616E64B2
:100C20003A200025301D0C282924311C0B45272390
:100C30002F1B164443212A193F40222B1A414203FD
:100C40003809063603080206000142656420436F36
:100C50006F6C696E672E2E2E0042656420486561B8
:100C600074696E672E2E2E0023646566696E65209A
:100C700044454641554C545F004B6420004B69206D
:100C8000004B702000504944204175746F74756E9C
:100C9000652066696E6973686564212050757420EB
:100CA000746865206C617374204B702C204B692034
:100CB000616E64204B6420636F6E7374616E747335
:100CC0002066726F6D2062656C6F7720696E746F3D
:100CD00020436F6E66696775726174696F6E2E6806
:100CE0000A00504944204175746F74756E65206622
:100CF00061696C6564212074696D656F75740A00A3
:100D00000A20436C617373696320504944200A00D0
:100D1000204B643A2000204B693A2000204B703A67
:100D200020000A204E6F206F76657273686F6F74B3
:100D30000A002054753A2000204B753A2000206D9F
:100D400061783A2000206D696E3A200020643A20D4
:100D50000020626961733A20005049442041757453
:100D60006F74756E652073746172740A0050494423
:100D7000204175746F74756E65206661696C656479
:100D8000212054656D706572617475726520746F91
:100D90006F20686967680A00504944204175746F84
:100DA00074756E65206661696C65642120426164BA
:100DB000206578747275646572206E756D626572F7
:100DC0000A004572723A207574663820666F6E7438
:100DD000206E6F7420696E697469616C697A6564EC
:100DE0002E002568753A25303268750025687564CF
:100DF0002025303268753A253032687500000C0DB8
:100E000000FE07022603BC017FFE08FE08FE05085F
:100E10000806000040F0C888889878100508080681
:100E20000000C0F88888888888F805050506000154
:100E30002030F830200508080600002070F8202037
:100E40002020E00509090600FF2070A8A8B88888BE
:100E50007020050606060001E08CEA8C8A0A050966
:100E6000090600FFF8A88888888888A8F8050A0A73
:100E70000600FE205050505088A8A8887003030335
:100E800006000340A040FFFFFFFFFFFFFFFFFFFF43
:100E9000FFFFFFFFFFFFFFFFFFFFFFFF0000000658
:100EA00005FF010707060200808080808000800324
:100EB0000303060105A0A0A005060606000050F8E1
:100EC0005050F8500509090600FF2070A8A07028AE
:100ED000A87020050707060000C8C8102040989891
:100EE00005070706000040A0A040A8906801030382
:100EF0000602058080800309090601FF204040802A
:100F000080804040200309090601FF8040402020E6
:100F10002040408005070706000020A8702070A828
:100F2000200505050600012020F820200203030605
:100F300001FFC04080050101060003F8020202061D
:100F40000100C0C00507070600000810102040403F
:100F500080050707060000708898A8C888700307F6
:100F60000706010040C040404040E005070706007A
:100F700000708808102040F8050707060000F808F0
:100F8000103008887005070706000010305090F8F0
:100F90001010050707060000F880F00808887005A3
:100FA0000707060000304080F088887005070706B4
:100FB0000000F80810102020200507070600007028
:100FC0008888708888700507070600007088887810
:100FD000081060020505060100C0C000C0C002067E
:100FE000060601FFC0C000C04080030505060101E0
:100FF0002040804020050303060002F800F80305A6
:1010000005060101804020408005070706000070AA
:101010008810202000200507070600007088B8A867
:10102000B88070050707060000708888F8888888EF
:10103000050707060000F04848704848F005070714
:101040000600007088808080887005070706000011
:10105000F04848484848F0050707060000F8808037
:10106000F08080F8050707060000F88080F0808097
:101070008005070706000070888080988870050743
:1010800007060000888888F8888888030707060113
:1010900000E04040404040E00507070600003810EF
:1010A00010101090600507070600008890A0C0A0EF
:1010B0009088050707060000808080808080F80502
:1010C000070706000088D8A88888888805070706CB
:1010D00000008888C8A8988888050707060000705F
:1010E000888888888870050707060000F08888F0DF
:1010F00080808005070706000070888888A89068AF
:10110000050707060000F08888F0A090880507070B
:1011100006000070888070088870050707060000C8
:10112000F820202020202005070706000088888856
:1011300088888870050707060000888888885050CE
:101140002005070706000088888888A8A85005079A
:101150000706000088885020508888050707060089
:101160000088885020202020050707060000F80886
:1011700010204080F80309090601FFE0808080808C
:10118000808080E0050707060000804040201010A6
:10119000080309090601FFE020202020202020E08C
:1011A0000503030600052050880501010600FEF82E
:1011B00003030306010580402005050506000070B5
:1011C000087888780507070600008080F0888888FE
:1011D000F005050506000070808088700507070689
:1011E00000000808788888887805050506000070E2
:1011F00088F08070050707060000304840E0404056
:10120000400507070600FE70888888780870050783
:10121000070600008080F088888888030707060199
:10122000004000C0404040E00409090601FE1000F3
:1012300030101010109060050707060000808088AD
:1012400090E09088030707060100C04040404040FE
:10125000E0050505060000D0A8A8A8A80505050614
:101260000000B0C8888888050505060000708888D9
:1012700088700507070600FEF0888888F0808005E2
:1012800007070600FE78888888780808050505069F
:101290000000B0C8808080050505060000788070D9
:1012A00008F00507070600002020F8202020180578
:1012B0000505060000888888986805050506000071
:1012C00088888850200505050600008888A8A85051
:1012D0000505050600008850205088050707060010
:1012E000FE88888850204080050505060000F8101B
:1012F0002040F80309090601FF204040408040409B
:1013000040200109090602FF808080808080808063
:10131000800309090601FF80404040204040408092
:1013200005030306000248A890FF4C6F6164206D1E
:101330006D00556E6C6F6164206D6D0046696C2E9A
:10134000204469612E004520696E206D6DC2B30096
:1013500020082046616374002008204D6178002039
:1013600008204D696E004175746F74656D7000568C
:1013700054726176204D696E00566D696E00566D2F
:101380006178204500566D6178205A00566D61786D
:10139000205900566D61782058004F75746167655B
:1013A000205265636F7665727900436F6E66696778
:1013B00075726174696F6E00256C642E25696D000D
:1013C000457874727564656420546F74616C004C68
:1013D0006F6E67657374204A6F622054696D650093
:1013E0003E2000546F74616C205072696E742074DA
:1013F000696D6500436F6D706C6574656400507253
:10140000696E7420436F756E74003135300042454B
:10141000443A486973656E7320333935300052752C
:101420006E617761792057617463683A204F4E008E
:101430004D61782054656D7000323735004D696E0E
:101440002054656D700045313A20486973656E73AC
:101450002033393530005053550047656E65726949
:10146000630050726F746F636F6C00312E300042F6
:10147000617564003235303030300052616D626F1A
:101480000042696C696E656172204C6576656C69B5
:101490006E6700457874727564657273005468698C
:1014A0006E6B65722056325F424C00323031392DFE
:1014B00031322D3031005072696E74657220537470
:1014C00061747300546865726D6973746F72730030
:1014D000426F61726420496E666F005072696E746B
:1014E000657220496E666F004D31303030005374A4
:1014F0006F70205072696E7400526573756D65204F
:101500005072696E740053746F70004D3231004335
:1015100068616E6765204D656469610041626F7541
:1015200074205072696E7465720054756E65004E59
:101530006F204D6564696100496E666F2053637268
:1015400065656E005761697420666F720066696C2C
:10155000616D656E74206368616E676500746F20ED
:101560007374617274005761697420666F720066EB
:10157000696C616D656E7420756E6C6F61640000DE
:101580004E6F7A7A6C652068656174696E67005089
:101590006C6561736520776169742E2E2E00005092
:1015A0007265737320627574746F6E00746F206857
:1015B000656174206E6F7A7A6C650000496E7365A0
:1015C00072742066696C616D656E7400616E642072
:1015D000707265737320627574746F6E00746F201F
:1015E000636F6E74696E7565005761697420666F0C
:1015F000720066696C616D656E74206C6F61640069
:1016000000507265737320427574746F6E00746F4E
:1016100020726573756D65207072696E7400005775
:1016200061697420666F72207072696E7400746FE5
:1016300020726573756D652E2E2E000057616974DA
:1016400020666F720066696C616D656E74207075DE
:1016500072676500002020202020202000256C6477
:1016600025636D001FE02010201020101020102096
:101670002010201030300840048003001FE03FF0AD
:101680003FF03FF01FE01FE03FF03FF03FF00FC0A2
:10169000078003003FFFF038007030FC3020FC1062
:1016A0002078102030102C00D02E31D02F7BD02F5E
:1016B0007BD02E31D02C00D020301020781020FC90
:1016C0001030FC303800703FFFF03FFFF038007002
:1016D0003186302387102787902F87D02F03D02083
:1016E00030102078102078102030102F03D02F8752
:1016F000D02787902387103186303800703FFFF065
:101700001FFFF81FFFF80410400208200208200401
:101710001040082080104100104100082080041073
:10172000400000001FFFF81FFFF820627974657306
:101730003B20637263200053657474696E67732085
:1017400053746F726564202800454550524F4D20F8
:101750006461746173697A65206572726F722E0AB2
:10176000002073746F7265642073657474696E67AA
:10177000732072657472696576656420280020287C
:1017800063616C63756C6174656429210A002021B2
:101790003D2000454550524F4D20435243206D6936
:1017A000736D61746368202D202873746F72656493
:1017B000292000496E6465783A2000204D61726CE2
:1017C000696E3D563734290A00454550524F4D2029
:1017D00076657273696F6E206D69736D617463688D
:1017E0002028454550524F4D3D0024F4D43050C37D
:1017F0008E20C2A24017828B7011127A910D816CDB
:10180000D90AA861E108C7586607615143061E4B13
:101810005D05C145A7041A411104093D98037139BA
:1018200031034036DB0265339102D4305402802EFE
:101830001D02632CEE01752AC501B028A0011027F6
:1018400081018F2564012B244B01E0223401AC215E
:101850001F018D200D01801FFC00841EED00971DCF
:10186000DF00B81CD200E61BC600201BBC00641AB7
:10187000B200B219A8000A19A0006A189900D1177D
:10188000910040178B00B516840031167E00B31509
:1018900079003A157300C7146F0058146A00EE13EC
:1018A00066008813630025135E00C7125B006C128C
:1018B000570015125400C111510070114F00211131
:1018C0004B00D61049008D1047004610440002100E
:1018D0004200C00F4000800F3E00420F3C00060F48
:1018E0003B00CB0E3800930E37005C0E3500270E00
:1018F0003400F30D3200C10D3100900D3000600D49
:101900002E00320D2D00050D2C00D90C2B00AE0C35
:101910002900850C29005C0C2700350C27000E0CD3
:101920002600E80B2400C40B2400A00B23007D0B31
:1019300023005A0B2100390B2100180B2000F80A54
:101940001F00D90A1E00BB0A1E009D0A1D00800A46
:101950001D00630A1C00470A1B002C0A1B00110A09
:101960001A00F7091A00DD091900C4091900AB09AA
:101970001900920917007B091800630917004C0928
:10198000160036091600200916000A091500F50888
:101990001500E0081400CC081400B8081400A408CE
:1019A0001400900813007D0812006B0813005808FB
:1019B0001200460812003408110023081100120812
:1019C000110001081100F0071000E0071000D00717
:1019D0001000C0071000B0070F00A107100091070A
:1019E0000E0083070F0074070F0065070E005707EE
:1019F0000E0049070E003B070D002E070E002007C2
:101A00000D0013070D0006070D00F9060C00ED068A
:101A10000D00E0060C00D4060C00C8060C00BC0645
:101A20000C00B0060C00A4060B0099060C008D06F5
:101A30000B0082060B0077060B006C060B0061069C
:101A40000A0057060B004C060A0042060A00380638
:101A50000A002E060A0024060A001A060A001006CA
:101A6000090007060A00FD050900F4050900EB0559
:101A70000900E2050900D9050900D0050900C705DC
:101A80000900BE050900B5050800AD050800A5055B
:101A900009009C050800940508008C0508008405D1
:101AA00008007C050800740508006C050700650542
:101AB00008005D050700560508004E0507004705AC
:101AC00007004005080038050700310507002A0512
:101AD0000700230507001C050600160507000F0573
:101AE00007000805060002050700FB040600F504D0
:101AF0000700EE040600E8040600E2040700DB0429
:101B00000600D5040600CF040600C9040600C3047D
:101B10000600BD040600B7040600B1040500AC04CD
:101B20000600A6040600A00405009B040600950418
:101B30000500900406008A04050085040500800461
:101B400006007A04050075040500700405006B04A6
:101B5000050066040500610405005C0405005704E7
:101B60000500520405004D04050048040500430427
:101B700005003E0404003A04050035040500300465
:101B800004002C04050027040400230405001E049F
:101B900004001A04040016040500110404000D04D6
:101BA0000400090405000404040000040400FC030C
:101BB0000400F8030400F4030400F0030400EC0341
:101BC0000400E8030400E4030400E0030400DC0371
:101BD0000400D8030400D4030400D0030400CC03A1
:101BE0000400C8030300C503030024F404D9201B28
:101BF000C40C5C0E9804C4095F0265077101F4050A
:101C0000F900FB04B30048048700C10369005803CE
:101C1000550003034500BE023A008402310053021E
:101C20002A002902250004022000E4011C00C8014A
:101C30001900AF011700980114008401130071010D
:101C400010006101100051010E0043010D0036012A
:101C50000B002B010B0020010B00150109000C01EA
:101C6000090003010800FB000800F3000800EB0076
:101C70000700E4000600DE000600D8000600D200DF
:101C80000600CC000500C7000500C2000500BD002D
:101C90000400B9000400B5000400B1000400AD0068
:101CA0000400A9000400A5000300A20003009F0097
:101CB00004009B00030098000300950002009300BD
:101CC0000300900003008D0002008B0003008800D9
:101CD00002008600020084000300810002007F00F1
:101CE00002007D0002007B00020079000200770004
:101CF0000100760002007400020072000100710011
:101D000002006F0002006D0001006C0002006A001A
:101D10000100690002006700010066000100650023
:101D20000100640002006200010061000100600027
:101D300001005F0002005D0001005C0001005B002B
:101D400001005A000100590001005800010057002D
:101D5000010056000100550001005400010053002D
:101D6000000053000100520001005100010050002A
:101D700001004F0001004E0000004E0001004D0028
:101D800001004C0001004B0000004B0001004A0024
:101D90000100490001004800000048000100470020
:101DA000010046000000460001004500000045001B
:101DB0000100440001004300000043000100420014
:101DC000000042000100410000004100010040000D
:101DD00001003F0000003F0001003E0000003E0007
:101DE00001003D0000003D0001003C0000003C00FF
:101DF00000003C0001003B0000003B0001003A00F5
:101E000000003A00010039000000390001003800EC
:101E100000003800000038000100370000003700E3
:101E200001003600000036000000360001003500D9
:101E300000003500000035000100340000003400CF
:101E400000003400010033000000330000003300C4
:101E500001003200000032000000320001003100B9
:101E600000003100000031000100300000003000AF
:101E70000000300001002F0000002F0000002F00A4
:101E800000002F0001002E0000002E0000002E0098
:101E900001002D0000002D0000002D0000002D008D
:101EA00001002C0000002C0000002C0000002C0081
:101EB00001002B0000002B0000002B0000002B0075
:101EC00001002A0000002A0000002A0000002A0069
:101ED000010029000000290000002900000029005D
:101EE0000000290001002800000028000000280050
:101EF0000000280000002800010027000000270043
:101F00000000270000002700000027000100260035
:101F10000000260000002600000026000000260029
:101F2000010025000000250000002500000025001C
:101F3000000025000000250001002400000024000E
:101F40000000240000002400000024000100230001
:101F500000002300000023000000230000002300F5
:101F600000002300000023000100220000002200E6
:101F700000002200000022000000220000002200D9
:101F800001002100000021000000210000002100CC
:101F900000002100000021000000210001002000BD
:101FA00000002000000020000000200000002000B1
:101FB00000002000000020000000200001001F00A1
:101FC00000001F0000001F0000001F0000001F0095
:101FD00000001F0000001F0001001E0000001E0086
:101FE00000001E0000001E000000043700001E2933
:101FF0000000511B00005810000010090000CC0424
:10200000000078020000410100004D6963726F73A7
:102010007465707320756E617661696C61626C6560
:102020000A0045313A200045303A20004D53312C0A
:102030004D53322C4D53332050696E730A583A2059
:1020400000453100626564002C2073797374656DFE
:102050002073746F707065642120486561746572C7
:102060005F49443A200048656174696E67204661A3
:10207000696C65640048656174696E6720666169B2
:102080006C656400202D20496E76616C6964206562
:1020900078747275646572206E756D626572202148
:1020A0000A00544845524D414C2052554E4157412B
:1020B0005900546865726D616C2052756E6177616C
:1020C00079004572723A204D415854454D50004DAB
:1020D000415854454D502074726967676572656454
:1020E000004572723A204D494E54454D50004D49BD
:1020F0004E54454D5020747269676765726564007F
:102100004D383420582059205A2045000040012CD9
:102110000173012201AB011801F3010E0148020411
:1021200001AC02FA002A03F000C303E6008004DCDD
:10213000006D05D2006C06C800C707BE007009B468
:10214000006D0BAA00CB0DA000CF138C00F21B7802
:1021500000E9246400142E50009C353C00B83A2855
:1021600000A03D14000B3F0000687474703A2F2FDC
:102170006D61726C696E66772E6F726700322E30F9
:102180002E78004D31303030205300205049445FCC
:1021900064543A0020643A002069693A0020703A99
:1021A000002020506C616E6E6572427566666572C5
:1021B00042797465733A20002046726565204D654A
:1021C0006D6F72793A2000436F6D70696C65643A87
:1021D000204A756C20203420323032300A00204CE6
:1021E00061737420557064617465643A20323031D3
:1021F000392D31322D3031207C20417574686F7259
:102200003A20286E6F6E652C2064656661756C746B
:1022100020636F6E666967290A00322E302E780AB5
:10222000004D61726C696E0020536F667477617245
:10223000652052657365740A002057617463686491
:102240006F672052657365740A002042726F776E63
:10225000206F75742052657365740A002045787488
:1022600065726E616C2052657365740A00506F77F9
:10227000657255700A006175746F25632E6700479B
:1022800032385859006572726F72207772697469BA
:102290006E6720746F2066696C650A00446F6E6516
:1022A00020736176696E672066696C652E0A004D41
:1022B000323900456E6473746F70730025532025A6
:1022C0006320256320256320256300205A3A0020DF
:1022D000593A00656E6473746F7073206869743A5C
:1022E000200001FFFFFFFFFFFFFFFFFFFFFFFFFFDA
:1022F0000FFFFFFFFFFFFFFFFFFFFFFFFFFF1E00BE
:1023000000000000000000000007FFFF3800000090
:102310000000000000000003FFFF7000000000004C
:10232000000000000001FFFF60000000000000004E
:1023300000000000FFFF600000000000000000003F
:1023400000007FFFC00000000000000000780000D7
:102350003FFFC00FC0FC00000000007818001FFF06
:10236000C03FE1FF0000000000783C000FFFC07F8D
:10237000F3FF8000000000783C0007FFC0FFFFFF74
:10238000C000000000783C0003FFC1F87F87E00038
:1023900000000078000001FFC1F03F03E0000000F2
:1023A0000078000000FFC1E01E01E01F0003E0789C
:1023B0003C03F07FC1E01E01E07FC00FF8783C07CE
:1023C000FC3FC1E01E01E1FFE01FFC783C0FFE1F57
:1023D000C1E01E01E3FFF03FFE783C1FFE0FC1E0AD
:1023E0001E01E3F3F83F3E783C3F3F07C1E01E018A
:1023F000E7E0FC7C1F783C3E1F07C1E01E01E7C000
:102400007C7C0F783C3C0F03C1E01E01E7807C78A8
:102410000F783C3C0F03C1E01E01E7803C78007858
:102420003C3C0F03C1E01E01E7803C7800783C3C57
:102430000F03C1E01E01E7803C7800783C3C0F03AD
:10244000C1E01E01E7C03C7800783C3C0F03C1E0CE
:102450001E01E3E03C78007C3C3C0F03C1E01E0120
:10246000E3FF3FF8007FBC3C0F03C1E01E01E1FF2A
:102470003FF8003FBFFC0F03C1E01E01E0FF3FF843
:10248000001FBFFC0F03C1E01E01E07F3FF8000FFB
:10249000BFFC0F036000000000000000000000000F
:1024A00000076000000000000000000000000006BF
:1024B000700000000000000000000000000E380066
:1024C00000000000000000000000001C1E000000D2
:1024D000000000000000000000780FFFFFFFFFFF7A
:1024E000FFFFFFFFFFFFFFF001FFFFFFFFFFFFFF09
:1024F000FFFFFFFFFF8054656D7065726174757238
:10250000650050726F6265205A204F66667365746D
:10251000004E6F7A7A6C65004D61696E005072658D
:102520006865617420504C412042656400507265BA
:102530006865617420504C4120456E64005072659E
:10254000686561742041425320456E640050726595
:1025500068656174204142532042656400436F6F97
:102560006C646F776E0046616E2053706565642001
:102570003D00466C6F770000002100240027002AF0
:10258000002D003000330001010000040107010AA2
:102590000100002200250028002B002E003100340D
:1025A0000002010000050108010B010000200023CA
:1025B00000260029002C002F00320000010000033B
:1025C00001060109010505050507050808080802B7
:1025D0000202020A0A0808040404040101010101BC
:1025E0000101010303030303030303040707070CAB
:1025F0000C0C0C0C0C0C0C02020202060606060661
:102600000606060B0B0B0B0B0B0B0B07070A0A0A34
:102610000A0A0A050505040404080801021020201E
:102620000808102040102040800201020108040226
:10263000010102040810204080804020100804029C
:1026400001800402018040201008040201080402F5
:1026500001010204081020408001020408102040FB
:10266000801008040880102040044080102040049E
:102670008000000A0B02090C0D0E0807030401007C
:10268000000000000000000000000000000000004A
:102690000000000000000000000000000012111007
:1026A000000000000000000000000000000000002A
:1026B000000000000000000000000000000000001A
:1026C000000000000000004D6F76652025736D6DE1
:1026D000004D6F766520302E316D6D004D6F766543
:1026E00020316D6D004D6F76652031306D6D004D80
:1026F0006F7665204178697300486F74656E642059
:10270000746F6F20636F6C640045787472756465D4
:1027100072004D6F7665205A004D6F766520590026
:102720004D6F76652058004368616E676520466985
:102730006C616D656E7400556E6C6F6164204669E6
:102740006C616D656E74004C6F61642046696C61EC
:102750006D656E7400507265686561742041425306
:10276000005072656865617420504C41005072657C
:102770006865617420437573746F6D004261636BAB
:1027800000496E6974004D34323800496E697469CD
:10279000616C697A6520454550524F4D0053746510
:1027A00070732F6D6D00416363656C657261746950
:1027B0006F6E0056656C6F636974790053657420A1
:1027C000486F6D65204F666673657473004661647B
:1027D0006520486569676874004732380A473239AE
:1027E000004C6576656C2042656400436D643A2058
:1027F00053746F7700436D643A204465706C6F7951
:1028000000436D643A2053656C662D546573740003
:10281000436D643A20526573657400436D643A20D9
:1028200053572D4D6F64650046616E20537065658A
:10283000640050726F62696E6720506F696E740039
:1028400025532025692F25690050726F62696E67D4
:10285000206D65736820706F696E742000202844B5
:10286000525952554E2900473239204175746F2014
:10287000426564204C6576656C696E67003F202870
:102880004C2C522C462C4229206F7574206F6620E8
:10289000626F756E64732E0A003F28562965726256
:1028A0006F7365206C6576656C20696D706C617501
:1028B0007369626C652028302D34292E0A0042612C
:1028C00064205A2076616C75650A004E6F2062693B
:1028D0006C696E65617220677269640A00416363A6
:1028E000656C65726174696F6E3A20500057415291
:1028F0004E494E4721204C6F77205A204A65726B13
:10290000206D6179206C65616420746F20756E772D
:10291000616E746564207061757365732E0A0020A2
:102920004D39322058004E6F204D6F76652E0020B5
:10293000204D61783A200020204D696E3A200053E6
:102940006F667420656E6473746F70733A20004D07
:1029500032342053256C642054256C64004739328E
:102960002E3920452573004731204625640047391C
:10297000322E39205A2573004731205A30204632F2
:1029800030300047312058257320592573204633B5
:10299000303030004D34323020532569205A2573B1
:1029A000004D3130362050256920532569004D31C6
:1029B000303920532569004D3139302053256900C5
:1029C0004D32303020442573004739322E392045AE
:1029D000305A300A47315A320A4732385230585941
:1029E000004D343230205330205A300020506F7761
:1029F00065722D4C6F7373205265636F76657279C3
:102A000020446174610A00496E76616C6964004E0D
:102A10006F0020496E76616C696420657874727508
:102A2000646572200020746F6F206C6F6E67206584
:102A30007874727573696F6E2070726576656E74E6
:102A400065640A0020636F6C642065787472757326
:102A5000696F6E2070726576656E7465640A002019
:102A60002F002042403A0020403A0020573A007C94
:102A70003C3E5E2B3D3F2F5B5D3B2C2A225C003FA2
:102A80000043616E63656C004D6F74696F6E004149
:102A900075746F20486F6D650053746172742050B7
:102AA00072696E740043616E6E6F7420656E74653A
:102AB00072207375626469723A2000022E2E004DF6
:102AC00038340044697361626C65205374657070BA
:102AD00065727300473238205A00486F6D65205A7E
:102AE00000473238205900486F6D65205900473241
:102AF00038205800486F6D6520580047323800482C
:102B00006F74656E6420746F6F20636F6C640A006D
:102B10004D3630303A20546F6F20436F6C64005054
:102B20007265737320627574746F6E20746F207297
:102B30006573756D650A00507265737320627574F4
:102B4000746F6E20746F2068656174206E6F7A7A7E
:102B50006C650A004C6F616400506F7765722D6C74
:102B60006F73732066696C6520636C6F7365206694
:102B700061696C65642E0A00506F7765722D6C6F09
:102B800073732066696C652077726974652066616D
:102B9000696C65642E0A005772697465002D2D2DCD
:102BA0000A00494E56414C494420444154410A00D0
:102BB0007072696E745F6A6F625F656C6170736575
:102BC000643A20007364706F733A200073645F6628
:102BD000696C656E616D653A20000A206661646506
:102BE0003A20006C6576656C696E673A2000666114
:102BF0006E5F73706565643A200074617267657416
:102C00005F74656D70657261747572655F6265642D
:102C10003A20007461726765745F74656D706572E7
:102C200061747572653A20006665656472617465E9
:102C30003A2000706F736974696F6E5F73686966BC
:102C4000743A2000686F6D655F6F66667365743AED
:102C5000200063757272656E745F706F736974695A
:102C60006F6E3A20002076616C69645F666F6F74E6
:102C70003A00204A6F62205265636F766572792050
:102C8000496E666F2E2E2E0A76616C69645F6865E8
:102C900061643A004F46460A004661646520486513
:102CA000696768742000426564204C6576656C69CC
:102CB0006E6720004661696C656420746F20656EE4
:102CC00061626C6520426564204C6576656C696E56
:102CD000670A00496E76616C6964206D6573682EC1
:102CE0000A002053697A653A2000534420636172D8
:102CF00064206F6B0A006F70656E526F6F74206690
:102D000061696C65640A00766F6C756D652E696E1D
:102D10006974206661696C65640A00534420696EB9
:102D20006974206661696C0A004D32332025730096
:102D300057726974696E6720746F2066696C653AB2
:102D4000200046696C652073656C65637465640A70
:102D50000046696C65206F70656E65643A20006698
:102D60007265736800646F696E67004E6F7720004C
:102D7000454E4420535542524F5554494E450A0042
:102D80002220706F73002220706172656E743A2287
:102D900000535542524F5554494E452043414C4CE7
:102DA000207461726765743A2200747279696E6783
:102DB00020746F2063616C6C207375622D67636F84
:102DC00064652066696C6573207769746820746F28
:102DD0006F206D616E79206C6576656C732E204D69
:102DE0004158206C6576656C2069733A310A00445D
:102DF000656C6574696F6E206661696C65642C2012
:102E000046696C653A200046696C652064656C65AE
:102E10007465643A00506F7765722D6C6F73732020
:102E200066696C652064656C65746500416D6178E8
:102E3000204500416D6178205A00416D617820592C
:102E400000416D6178205800412D54726176656CA7
:102E500000412D5265747261637400416363656C57
:102E60000056652D4A65726B00565A2D4A65726B85
:102E70000056592D4A65726B0056582D4A65726B83
:102E8000004573746570732F6D6D005A73746570AF
:102E9000732F6D6D005973746570732F6D6D0058CD
:102EA00073746570732F6D6D005072696E7420506D
:102EB0006175736564005061757365205072696E49
:102EC00074004D656469612052656D6F76656400BC
:102ED0004D6564696120496E736572746564005460
:102EE00068696E6B65722056325F424C2052656194
:102EF00064792E005072696E74696E672E2E2E00F2
:102F00005072696E742041626F72746564004D3254
:102F10003520500A4D3234004C6F61642053657483
:102F200074696E67730053746F72652053657474AF
:102F3000696E6773004F6666004F6E00416476618C
:102F40006E6365642053657474696E677300554ED3
:102F50004C4F41442046494C414D454E5400464952
:102F60004C414D454E54204348414E474500526523
:102F700073746F7265206661696C73616665005079
:102F80007265686561742041425320436F6E66002C
:102F90005072656865617420504C4120436F6E66C5
:102FA00000424C546F756368004D37303220542511
:102FB00064004D36303020423020542564004D37B7
:102FC0003032203B2564004D3730312054256400D9
:102FD0004D373032004D373031004D3630302042E1
:102FE0003000436F6E74696E756500507572676569
:102FF000206D6F726500524553554D45204F50541A
:10300000494F4E533A005052494E54205041555367
:1030100045440020204E6F7A7A6C653A200050615A
:10302000726B696E672E2E2E0000006F70656E2029
:103030006661696C65642C2046696C653A200050B5
:103040006C65617365205265736574005052494E1A
:103050005445522048414C5445440025533A2025BC
:1030600053004B494C4C45442E20005072696E74FD
:1030700065722068616C7465642E206B696C6C28C5
:10308000292063616C6C6564210A006563686F3A8E
:10309000004572726F723A0042696C696E656172C6
:1030A000204C6576656C696E6720477269643A0AE0
:1030B0000053544F505045442E20005072696E7496
:1030C00065722073746F7070656420647565207418
:1030D0006F206572726F72732E2046697820746853
:1030E00065206572726F7220616E64207573652051
:1030F0004D39393920746F20726573746172742E82
:10310000202854656D7065726174757265206973ED
:103110002072657365742E20536574206974206174
:10312000667465722072657374617274696E672962
:103130000A0053544F502063616C6C6564206265D3
:103140006361757365206F6620424C546F756368C8
:10315000206572726F72202D2072657374617274B3
:103160002077697468204D3939390A006F70656EAF
:1031700000545249474745524544007A5F6D696E95
:1031800000795F6D696E00785F6D696E00526570E1
:103190006F7274696E6720656E6473746F702073EC
:1031A00074617475730A0020436F756E7420583A09
:1031B0000020453A00486F6D696E67204661696C72
:1031C0006564000000000000000000000000000036
:1031D000009643000096430000C8430000484200A8
:1031E000004842000080400202040000A0400000AD
:1031F000A04000000040FFFFFF5761726E696E67DC
:103200003A20486F6D696E672042756D7020446981
:103210007669736F72203C20310A004361703A0076
:1032200050726F6265204F6666736574205A005055
:10323000726F6265204F66667365745A3A20003F6C
:103240005A206F7574206F662072616E6765202842
:10325000003F59206F7574206F662072616E67653C
:1032600020282D0020746F20003F58206F75742097
:103270006F662072616E676520282D0050726F6244
:1032800065204F6666736574205800656E717565BC
:103290007565696E672022006F6B00526573656EFD
:1032A000643A200025697920256964202569682011
:1032B00025696D20256973005072696E74206672ED
:1032C0006F6D204D6564696100205A3A20002059D5
:1032D0003A200042656420583A200050726F6269BB
:1032E0006E67204661696C65640A0050726F62699E
:1032F0006E67204661696C656400486F6D652025C6
:10330000732573257320466972737400496E736563
:1033100072742066696C616D656E7420616E6420E4
:10332000707265737320627574746F6E0A00220A7E
:1033300000556E6B6E6F776E20636F6D6D616E649E
:103340003A20220043616E6E6F74206F70656E20AC
:103350007375626469722000205400205200486135
:103360007264636F6465642044656661756C742083
:1033700053657474696E6773204C6F616465640A89
:103380000020204D363033200020550046696C6106
:103390006D656E74206C6F61642F756E6C6F616407
:1033A000206C656E677468733A0A0020204D3835CA
:1033B000312058005A2D50726F6265204F66667337
:1033C00065740020204D343133205300506F7765F1
:1033D000722D4C6F7373205265636F766572793A04
:1033E0000A0020204D33303420500020204D33304F
:1033F000312050005049442073657474696E6773BE
:103400003A0A0020460020480020204D3134352063
:1034100053004D6174657269616C206865617475F3
:103420007020706172616D65746572733A0A002074
:103430004A002020473239205720490020204D34AF
:1034400032302053004175746F20426564204C6512
:1034500076656C696E673A0A0020204D323036205E
:103460005800486F6D65206F66667365743A0A0090
:1034700020204D32303520420020453C6D61785F80
:10348000655F6A65726B3E0020583C6D61785F78BD
:103490005F6A65726B3E20593C6D61785F795F6A47
:1034A00065726B3E205A3C6D61785F7A5F6A657227
:1034B0006B3E00416476616E6365643A20423C6D08
:1034C000696E5F7365676D656E745F74696D655F66
:1034D00075733E20533C6D696E5F6665656472610D
:1034E00074653E20543C6D696E5F74726176656CE4
:1034F0005F66656564726174653E0020204D323000
:1035000034205000416363656C65726174696F6E4D
:103510002028756E6974732F7332293A20503C70DD
:1035200072696E745F616363656C3E20523C7265C4
:1035300074726163745F616363656C3E20543C74B4
:10354000726176656C5F616363656C3E0A00202082
:103550004D3230312058004D6178696D756D2041D4
:103560006363656C65726174696F6E2028756E693E
:1035700074732F7332293A0A0020204D32303320E1
:1035800058004D6178696D756D206665656472617E
:103590007465732028756E6974732F73293A0A0055
:1035A00053746570732070657220756E69743A0A81
:1035B0000020204D3230302044300A0020204D328F
:1035C00030302044002044697361626C65640A00F5
:1035D00046696C616D656E742073657474696E679D
:1035E000733A0020204D3134392043203B20556E62
:1035F00069747320696E2043656C736975730A0082
:1036000020286D6D29002020473231202020203BCA
:1036100020556E69747320696E206D6D00000096F0
:10362000430000964300000C420000C8410000A087
:10363000420000A0420000C8430000BA42DC05007E
:1036400000DC05000096000000DC05000000FE0024
:10365000D40111241FBECFEFD1E2DEBFCDBF00E009
:103660000CBF13E0A0E0B2E0EAE0FBE702E00BBF32
:1036700002C007900D92A435B107D9F726E1A4E561
:10368000B3E001C01D92A839B207E1F71BE1C8E21F
:10369000DBE100E006C021970109802FFE010F94B5
:1036A000CD39C732D10780E00807A9F70F94F0247D
:1036B0000D94733D0C9400002F923F924F925F92B5
:1036C0006F927F928F929F92AF92BF92CF92DF9232
:1036D000EF92FF920F931F93CF93DF93CDB7DEB797
:1036E000C555D1090FB6F894DEBF0FBECDBF6696A3
:1036F0008FAF669720914F1625962FAF259791E0B3
:1037000090934F1680915E158D3409F408C484356A
:1037100011F40C94B12D873411F00C94CC2D209021
:103720005C1530905D153BE12316310409F418C196
:10373000C4F454E02516310444F482E02816310420
:103740000CF041C037FE33C0E6C394E029163104C3
:1037500009F4C7C0A5E12A16310411F40C94CE2D4A
:10376000DAC3BAE22B16310409F4AEC26CF4FDE1FF
:103770002F16310409F41EC10CF40CC13EE12316CE
:10378000310409F42BC1C7C34BE52416310409F4F5
:10379000E5C15CE52516310409F4E5C18AE5281682
:1037A000310409F0B8C310925D030C94CE2D8091C2
:1037B0000802882311F40C94CE2D0E9454A00E947C
:1037C0008AFF0C94CE2D80910802882311F40C946A
:1037D000CE2D0E9454A082E50E94DDC9882309F401
:1037E0004EC00E947AC76B017C0120E030E0A90145
:1037F0000F94E032882311F40C949A2E2091E6065F
:103800003091E7064091E8065091E9062CA33DA3CC
:103810004EA35FA38091EA069091EB06A091EC067F
:10382000B091ED0688A799A7AAA7BBA7809011150C
:1038300090901215A0901315B09014154090151586
:10384000509016156090171570901815A5019401E9
:103850006CA17DA18EA19FA10F94E03281110C94E7
:10386000DB2DA301920168A579A58AA59BA50F94DC
:10387000E032882311F40C949A2E0C94DB2D89E409
:103880000E94DDC9882329F00E947AC76B017C0160
:1038900003C0C12CD12C76018AE40E94DDC98823A3
:1038A00011F40C94A12E0E947AC76CA77DA78EA755
:1038B0009FA720E030E0A901C701B6010F94E032D4
:1038C00081110C94AE2E20E030E0A9016CA57DA5FD
:1038D0008EA59FA50F94E03281110C94AE2E0C940E
:1038E0009A2E80E50E94DDC9882329F00E94339931
:1038F0006B017C0103C0C12CD12C760183E50E94B1
:10390000DDC9882361F00E947AC720E030E04AE7F1
:1039100054E40F9446330F94493B6B017C010F94A0
:103920000F088091420E811105C060E081E696E0AB
:103930000E94F4E50E94EE8DC60ED71EE81EF91E09
:103940000E94EE8DDC01CB018C199D09AE09BF09E7
:10395000B7FD02C00C94CE2D80E00E946A38F0CFF3
:103960000F94DD1581110C94CE2D8CE0E2E7F2E08E
:10397000DE01119601900D928A95E1F760E070E00A
:1039800080E50E9471A7BE016F5F7F4F0E94CAE46D
:103990000C94CE2D80914C168770873011F00C94CA
:1039A0003B3260E08FE40E94EAC981110C94CE2D75
:1039B0000C943B320F94DD1581110C94CE2D809127
:1039C0003615882311F40C94D63260E08FE40E94FF
:1039D000EAC981110C94CE2D0C94D6322091401658
:1039E0003091411640914216509143166091E6067F
:1039F0007091E7068091E8069091E9060F94D63918
:103A0000AB01BC0188E50E94234369837A838B83E1
:103A10009C83209144163091451640914616509152
:103A200047166091EA067091EB068091EC06909142
:103A3000ED060F94D639AB01BC0189E50E94234302
:103A40006D837E838F839887BE016B5F7F4FCE012E
:103A500001960E94C799882311F40C94CE2D80E022
:103A60000E9461F70F947E0261E085E40E94EAC93A
:103A700021E0482FBE016B5F7F4FCE0101960F946E
:103A800033166B017C019B01AC010F94C83C811182
:103A90005FC089809A80AB80BC8020E030E0A901C3
:103AA000C501B4010F94E03287FF05C027E137EB71
:103AB00041E558EB04C027E137EB41E558E3C50188
:103AC000B4010F94D639AB01BC0183ED92E30E949F
:103AD0003BFC8D809E80AF80B88420E030E0A9015F
:103AE000C501B4010F94E03287FF05C027E137EB31
:103AF00041E558EB04C027E137EB41E558E3C50148
:103B0000B4010F94D639AB01BC018EEC92E30E9454
:103B10003BFC20E030E0A901C701B6010F94E03280
:103B200087FF05C067E177EB81E598EB04C067E1AB
:103B300077EB81E598E3A70196010F94D639AB01A5
:103B4000BC0189EC92E30E943BFC8AE00E943E3774
:103B50000F9465020F9448040C94CE2D8FE080934F
:103B60005D030C94CE2D80915B15882349F189303B
:103B700009F0A6C03EE7A32E32E0B32E46EEE42EB7
:103B800046E0F42ED12C00E010E0D5018D915D01CE
:103B90000E94DDC9882369F00E947AC7F70160831B
:103BA000718382839383133011F401E002C0DD241A
:103BB000D3941F5FF4E0EF0EF11C143031F775C0A1
:103BC0008EE7282E82E0382E95E0E92E95E1F92E39
:103BD00026EE36E03DA32CA324E3C22E26E1D22E0E
:103BE00000E010E0D1018D911D010E94DDC9882304
:103BF00009F44BC00E947AC72B013C01133049F0F5
:103C0000F60120813181428153810F94D5392B01F6
:103C10003C01ACA1BDA12D913D914D915C91C301A1
:103C2000B2010F94D5394B015C012DEB37E346E827
:103C300055EB0F94363C87FD0AC02DEB37E346E881
:103C400055E3C501B4010F94E0321816F4F41330B3
:103C500051F44092F2065092F3066092F40670928C
:103C6000F50601E012C0A5019401F70160817181A0
:103C7000828193810F94D639D7016D937D938D9373
:103C80009C931397812F0F94F10B1F5FB4E0EB0E01
:103C9000F11CECA1FDA13496FDA3ECA3F4E0CF0E42
:103CA000D11C143009F09ECF05C0DD2019F00F940F
:103CB000460406C0002321F082EF96E00F9420080E
:103CC0000F9448040C94CE2D80910802882311F49F
:103CD0000C94CE2D89E40E94DDC9E82E882321F0C2
:103CE0000E9476C7082F01C000E08AE40E94DDC967
:103CF000F82E882321F00E9476C7182F01C010E00B
:103D0000EE2011F0033020F4FF2041F0133030F0AA
:103D10008AE696E00E9483FB0C94CE2D80E1E6EECD
:103D2000F6E0A1E1B5E101900D928A95E1F7EE2070
:103D300019F1602F000F770B880B990B0F94E73266
:103D4000209158163091591640915A1650915B1691
:103D50000F94463320912A0430912B0440912C0477
:103D600050912D040F94D63960931115709312154C
:103D70008093131590931415FF2019F1612F110FE3
:103D8000770B880B990B0F94E73220915C163091DA
:103D90005D1640915E1650915F160F944633209148
:103DA0002E0430912F0440913004509131040F942F
:103DB000D639609315157093161580931715909347
:103DC000181560E080E50E94EAC98823C1F1EE2061
:103DD000D1F02091401630914116409142165091F9
:103DE00043166091111570911215809113159091E1
:103DF00014150F94D5396093111570931215809393
:103E0000131590931415FF20D1F020914416309192
:103E100045164091461650914716609115157091C0
:103E2000161580911715909118150F94D539609338
:103E3000151570931615809317159093181540E07B
:103E400050E0BA0186E40E9423436B017C0120E02C
:103E500030E0A9010F94363C18165CF420E030E005
:103E600040E752E4C701B6010F94D03A6B017C01E0
:103E700003C0C12CD12C760180906E0290906F020D
:103E8000A0907002B090710220E030E0A901C7015B
:103E9000B6010F94E032882341F0C0926E02D092B6
:103EA0006F02E0927002F09271020091550210913F
:103EB000560284E690E09093560280935502C0909B
:103EC0001C02D0901D02E0901E02F0901F0280E0C4
:103ED00090E0A0E8BFE380931C0290931D02A093A2
:103EE0001E02B0931F020E948AFF80926E0290927F
:103EF0006F02A0927002B09271021093560200936A
:103F00005502C0921C02D0921D02E0921E02F09255
:103F10001F020C94CE2D0F94E2140C94CE2D009120
:103F20005C1510915D150C38110509F4C2C60CF032
:103F300097C10135110509F4FEC60CF09FC00A3186
:103F4000110509F4FCC3BCF50431110509F455C38E
:103F50008CF40131110509F44CC334F4023011051D
:103F600008F4CBC20C94AE2D0231110509F404C73C
:103F70000C94AE2D0731110509F464C394F4053196
:103F8000110509F45BC30631110511F00C94AE2D37
:103F90000E945DD18091F311877F8093F3110C947F
:103FA000CE2D0831110509F463C30931110509F457
:103FB000BBC30C94AE2D0032110509F438C40CF0CB
:103FC00041C00D31110509F41BC49CF40B311105DE
:103FD00009F4C3C30C31110511F00C94AE2D40E06F
:103FE00060E08091591590915A150E94B5D30C94B8
:103FF000CE2D0E31110509F40AC40F31110511F04F
:104000000C94AE2D0E945E6E6C8F7D8F8E8F9F8F75
:10401000BE016F5F7F4FCE014C960F944A0D60E05A
:10402000CE0101960E947BE60E9442FDBE016F5FB9
:104030007F4F88EF96E00E9459FC8AE00E943E374D
:104040000C94CE2D0C34110509F44EC46CF40A32D4
:10405000110509F426C40B34110511F00C94AE2D92
:104060000E94E8340C94CE2D0D34110509F440C49F
:104070000E34110509F440C40C94AE2D0E36110512
:1040800009F496C5F4F50836110509F4C7C404F51A
:104090000435110509F470C68CF40235110509F4D4
:1040A00064C60335110511F00C94AE2D80915D03AB
:1040B0008F7E806280935D030C94CE2D05351105B3
:1040C00009F45DC60C35110509F472C60C94AE2DC9
:1040D0000B36110509F45DC554F40936110509F4D0
:1040E0001EC50A36110509F430C50C94AE2D0C36E8
:1040F000110509F4B4C50D36110509F4B3C40C94C7
:10410000AE2D0537110509F4F6C60CF08AC001374B
:10411000110509F4ACC594F40F36110509F45AC51C
:104120000037110511F00C94AE2D41E060E070E015
:1041300083E797E00E946AFD0C94CE2D02371105AB
:1041400009F4D4C60337110511F00C94AE2D88EB99
:1041500098E00E9483FB60E088EA98E00F94C01228
:1041600060E083E998E00F94C01261E086E997E28D
:104170000F94C01261E088E898E00F94C01261E0EB
:1041800088E798E00F94C01260E08FE698E00F9403
:10419000C01261E085E698E00F94C01261E08BE503
:1041A00098E00F94C01261E083E598E00F94C0128C
:1041B00061E085E498E00F94C01260E087E398E046
:1041C0000F94C01260E088E298E00F94C01260E0A3
:1041D0008AE198E00F94C01260E084E098E00F94C8
:1041E000C01260E083EF97E00F94C01260E084EEAD
:1041F00097E00F94C01260E08FEC97E00F94C0122C
:1042000061E08CEB97E00F94C01260E08FEA97E0DA
:104210000F94C01260E08BE997E00F94C0120C94E9
:10422000CE2D0837110509F4B0C66CF40637110518
:1042300009F471C60737110511F00C94AE2D0F94D7
:1042400068050C94CE2D0937110509F4A6C60D3763
:10425000110511F00C94AE2D0E94A4A60C94CE2D45
:10426000003921E0120711F40C94792B0CF088C06E
:104270000C3D110509F4A8C7CCF5093C110509F45A
:104280003BC7ACF40B39110509F42FC534F40139DF
:10429000110509F489C60C94AE2D0E3B110509F4E5
:1042A00021C5083C110509F4DAC60C94AE2D0D3C6D
:1042B000110509F463C76CF40B3C110509F43FC701
:1042C0000C3C110511F00C94AE2D0E94BD980C947D
:1042D000CE2D0E3C110509F454C7033D110511F014
:1042E0000C94AE2D0E9413970C94CE2D0D3241E00C
:1042F000140711F40C94422AF4F4083181E01807F1
:1043000011F40C94932954F40D3D110509F469C777
:10431000023E110509F4BBC70C94AE2D0232A1E098
:104320001A0711F40C942A2A0C32114011F40C943F
:104330002D2A0C94AE2D0033E1E01E0711F40C94ED
:10434000C22A7CF40E3221E0120711F40C94352BB2
:104350000F32114011F00C94AE2D0E943A430C9490
:10436000CE2D0E3541E0140711F40C94132D0F35AA
:10437000114011F00C94AE2D0E9484A70C94CE2D08
:10438000083F81E0180711F40C944B2C0CF059C035
:10439000053AA1E01A0711F40C94822B3CF50A3976
:1043A000E1E01E0709F460C494F4013921E012072A
:1043B00011F40C947C2B0239114011F00C94AE2DA9
:1043C00080E00E946B780F9448040C94CE2D0D3938
:1043D00041E0140711F40C94562D043A114011F0E9
:1043E0000C94AE2D0E94FAC70C94CE2D053F81E0AF
:1043F000180711F40C94452C7CF40C3AA1E01A0730
:1044000011F40C94E72B043F114011F00C94AE2DE5
:104410000E946C630C94CE2D063FE1E01E0711F460
:104420000C94482C073F114011F00C94AE2D61E024
:1044300083E50E94EAC991E089270F946C210C94CE
:10444000CE2D033523E0120711F40C94632C2CF5C8
:104450000B3542E0140711F40C94662C7CF40C30FC
:1044600082E0180711F40C945B2C0835124011F00F
:104470000C94AE2D0E94ACA50C94CE2D0D3BA2E069
:104480001A0711F40C94DF2C0E3B124011F00C941F
:10449000AE2D0E948AA30C94CE2D003AE3E01E07B5
:1044A00009F4EFC1DCF40B3823E0120711F40C948B
:1044B000E22C0C38134011F00C94AE2D60E070E04B
:1044C00083E50E94FC9A8C0160E070E080E50E9428
:1044D000FC9AB8010E9446700C94CE2D073E43E032
:1044E000140711F40C94482D083E134011F00C945D
:1044F000AE2D0E9497A10C94CE2DA0905915B0908E
:104500005A1580E50E94DDC9882359F00E9433992D
:104510006B017C0111E0672B682B692B31F410E0F3
:1045200004C010E0C12CD12C760183E50E94DDC9C6
:10453000882311F40C94D9320E947AC720E030E02D
:104540004AE754E40F9446330F94493B6B017C01D6
:1045500011110BC0672B682B692B39F4A114B1041E
:1045600021F0D5018C91811102C010E001C011E051
:104570000F940F08112329F061E0C5010E947BE62A
:1045800005C060E089E896E00E94F4E510914F16BE
:1045900083E080934F1681E080934E16C114D104BE
:1045A000E104F104B1F00E94EE8DC60ED71EE81EA4
:1045B000F91E0E94EE8DDC01CB018C199D09AE091C
:1045C000BF09B7FF0EC080914E1681110C94DE32E8
:1045D00008C080914E16882321F080E00E946A383E
:1045E000F8CF0E94A0E610924E1610934F160C942E
:1045F000CE2D0E9454980C94CE2D8BEA96E00E940A
:1046000083FB80E192E10E946FB88BE1E0E1F2E18F
:10461000DE01119601900D928A95E1F760E070E05D
:10462000CE0101960F94D81ECE0101960E940CCBAC
:104630008CE996E00E9483FB0C94CE2D0E94CED193
:104640000C94CE2DE0915915F0915A158081882354
:1046500029F0803209F410823196F8CF40E061E011
:104660008091591590915A150E94B5D30C94CE2D76
:1046700083E50E94DDC9882321F00E9442C70F9480
:10468000290E84E50E94DDC98823A9F00E9442C753
:104690006B017C010E94926EC0923B15D0923C153A
:1046A000E0923D15F0923E15CD28CE28CF2819F086
:1046B00081E0809343048091DE0C8823E9F080E060
:1046C00090E0A8ECB2E488A399A3AAA3BBA31C8E94
:1046D0001D8E1E8E1F8E19821A821B821C8220E064
:1046E000AE01405E5F4FBE01645E7F4FCE0101961A
:1046F0000E94B7CB0C94CE2D0E94C434882381F045
:104700000E946ED10E94E83488E89DE00E9413D197
:10471000109263151092641510926515109266152B
:104720000E94A0E60C94CE2D8091F31182FF03C06D
:104730008B7F8093F3110E94A4A60C94CE2D8091C0
:10474000F31183FD02C00C94CE2D83E50E94DDC9D8
:1047500081110C94E3320C94CE2D83E40E94B1C7F6
:10476000882319F186EC96E00E9483FB8091571311
:10477000882391F0BE016F5F7F4F84E593E10E9433
:1047800036B78E010F5F1F4FF80181918F0188238B
:1047900039F00E943E37F8CF8CEB96E00E9483FB05
:1047A0008AE00E943E370C94CE2D8091F31182FF57
:1047B00021C085ED96E00E9483FB6091EF1170911E
:1047C000F0118091F1119091F2114AE00E94453769
:1047D0008FE20E943E376091EB117091EC11809155
:1047E000ED119091EE114AE00E9445370E94433846
:1047F0000C94CE2D87EE96E00E9483FB0C94CE2D78
:104800008091F3118E7F8093F3110C94CE2D8091C3
:10481000F31183FD02C00C94CE2D0F94CB14809124
:10482000591590915A150E94E7D20C94CE2D809183
:10483000F31182FD0F940F088091F31183FD02C0E4
:104840000C94CE2D60E080E50E94EAC9182F482F15
:1048500061E08091591590915A150E94B5D383E576
:104860000E94DDC9882321F00E9442C70F94290EBF
:104870000E946ED111110C94CE2D0E94E8340C943C
:10488000CE2D2091591530915A159091F3119260C7
:104890009093F31140E060E0C9010E94B5D30C94FD
:1048A000CE2D83E50E94DDC9882311F40C94CE2D12
:1048B0000E9452C7F82E6DE070E080E50E94FC9ADD
:1048C0008C0197FF02C00C94CE2DE82E60E089E4A5
:1048D0000E94EAC981110C94E832802F0F94CB24F6
:1048E0008111F2C40C94E8320E94AD6E0C94CE2D6E
:1048F0000E940C790C94CE2D60E070E083E50E945C
:10490000FC9A8E34910531F40F9442070E94A0E680
:104910000C94CE2D8BE597E00E9483FB60911305EC
:104920007091140582E597E00E942EFC60911505B8
:104930007091160585E497E00E942EFC60911305A6
:10494000709114058091150590911605681B790BDF
:1049500080914304815021E030E0823010F020E06B
:1049600030E0621B730B8AE397E00E942EFC8AE022
:104970000E943E378BE597E00E9483FB80911705EC
:1049800090911805A0911905B0911A058C8F9D8FF3
:10499000AE8FBF8FBE016F5F7F4FCE014C960F94DD
:1049A0004A0DBE016F5F7F4F8DE297E00E9459FC78
:1049B00080911B0590911C05A0911D05B0911E05CD
:1049C0008C8F9D8FAE8FBF8FBE016F5F7F4FCE01EB
:1049D0004C960F944A0DBE016F5F7F4F8DE197E0BB
:1049E0000E9459FC20E030E04AE754E460911F0542
:1049F0007091200580912105909122050F94D03A65
:104A0000AB01BC0185E097E00E943BFC8DE60E9473
:104A10003E378AE00E943E370C94CE2D80915F0C89
:104A200083FF02C00C94CE2D0E946EA187FF02C0AE
:104A30000C94CE2D83E50E94DDC9882379F00E9475
:104A40007AC70F94423B8B01CB010E949EBC063576
:104A5000110524F40E940C790E94A0E60F94232EE5
:104A60000C94CE2D80915F0C83FF02C00C94CE2D50
:104A70000E946EA1F82E87FF02C00C94CE2D83E514
:104A80000E94DDC9082F811106C082E50E94DDC9A0
:104A9000182F8823C1F10E947AC70F94423BCB01A3
:104AA0000E949EBC0E947AC720E030E04AEA52E4AD
:104AB0000F94E032181614F40C9401330E940C7910
:104AC0000E94A0E660914E0770914F07072E000CE0
:104AD000880B990B0F94E7324B015C0140904A0719
:104AE00050904B0760904C0770904D07A3019201C6
:104AF0000F94363C181614F40C941F33002311F451
:104B00000C94053311E00F94232E112311F40C940F
:104B1000CE2D602F8F2D0E9426BD0C94CE2D0E948D
:104B20006EA1182F87FD0AC088E992E30E9483FBDB
:104B3000812F0E94AFBC8AE00E943E372596FFADD0
:104B40002597F0934F160C94783360E080E50E942F
:104B50000B9B182F823010F00C94CE2D81E40E9414
:104B6000B1C7882321F060912F0770E002C06FEF7A
:104B700070E083E50E9471A7E12FF0E0E15DF84F5E
:104B80008F3F910519F010F08FEF90E080830C9427
:104B9000CE2D60E080E50E940B9B823010F00C94DB
:104BA000CE2DE82FF0E0E15DF84F10820C94CE2D71
:104BB0008EE40E94DDC9882311F40C94CE2D0E944E
:104BC00042C76093EB157093EC158093ED159093AD
:104BD000EE15E4C783E50E94B1C7882331F060E099
:104BE00083E50E940B9B80935F0C0E9442FD8CE644
:104BF00097E00E9483FB80915F0C882369F107EBAB
:104C0000E02E0AE0F02E00E010E020E080915F0C42
:104C100090E0A0E0B0E0002E04C0B695A79597956F
:104C200087950A94D2F780FF0EC0DD24D394D20E6C
:104C3000222319F08CE20E943E37F701859194916E
:104C40000E9483FB2D2D0F5F1F4F32E0E30EF11CFE
:104C500005301105D9F6A4CD88E697E09FCD1092D6
:104C60004E16109217029AC70E94823497C783E5A6
:104C70000E94DDC9882371F00E9452C7282F30E0BE
:104C80002D3331051CF48093000288C78CE3809398
:104C9000000284C70E9442FD4091000250E060E0A3
:104CA00070E081E897E00E941DFC8AE00E943E3798
:104CB00075C780915F0C83FD71C783E50E94DDC9D4
:104CC000882309F46BC70E947AC70F94423B6C3863
:104CD00071050CF48B011093B60C0093B50C0E9477
:104CE0007D795CC70E94E84859C783E50E94DDC909
:104CF000882309F453C70E9452C7182F90E0CD971C
:104D00000CF01CE3109358030E94EE8D6B017C01A4
:104D1000212F30E0A8EEB3E00F948A39C60ED71EDB
:104D2000E81EF91EC0925403D0925503E092560338
:104D3000F092570333C70E94047A0E940C790F94B3
:104D40008B090E94BF341092E5061092E40610927F
:104D5000E30668EE73E080E090E00E94C6FA60E04F
:104D600088E897E00E94F4E519C780915D038F7D84
:104D7000806180935D0312C70E9402980FC783E58C
:104D80000E94B1C7882309F409C70E947AC720E0AE
:104D900030E04AE754E40F9446330F94493B609364
:104DA000590370935A0380935B0390935C03F6C698
:104DB0000E946EA187FDF2C690915F1594FD04C01C
:104DC0009091611597FF0AC0BEE7CB2EB2E0DB2EB3
:104DD00010E6E12E1CE0F12E10E009C09091621562
:104DE000937091F7682F81E00E948298D7C6D60110
:104DF0008D916D010E94DDC9882309F46DC01330C7
:104E000009F063C00E947AC74B015C0120E030E0EA
:104E100040EA51E40F94E03287FF4EC0A5019401AF
:104E20006091800C7091810C8091820C9091830C28
:104E30000F94D03A2B013C019B01AC016091130708
:104E40007091140780911507909116070F944633BF
:104E500060931307709314078093150790931607B8
:104E6000A30192016091900C7091910C8091920C31
:104E70009091930C0F9446336093900C7093910C27
:104E80008093920C9093930C609123077091240768
:104E900080912507909126070F94E532A301920196
:104EA0000F9446330F94493B609323077093240774
:104EB00080932507909326078092800C9092810C16
:104EC000A092820CB092830C07C00E947AC7F701AF
:104ED000648B758B868B978B1F5FF4E0EF0EF11C54
:104EE000143009F084CF0F94EB0758C60F940F08C5
:104EF0000F94480453C68091591590915A15009704
:104F000009F40ECCDC012C91222309F409CC60E0D9
:104F10000E947BE643C60091591510915A1594E002
:104F2000F12C40E0915021F1F8018081282F2B7F56
:104F3000213421F421812133D9F407C08035C1F413
:104F4000818180538A3048F013C0813421F0853448
:104F500021F441E002C0FF24F39498012E5F3F4FFB
:104F600089012F5F3F4FF80180818032C9F3DACF8A
:104F700041110E9442FDFF2021F081E899E00E944A
:104F800083FBC8010E94493809C681E0809324054B
:104F9000809323050F94BB0501C61092240510923F
:104FA00023050F94BB05FAC560E070E083E50E941D
:104FB000FC9A8C011127023011053CF00E946CFC18
:104FC00085E899E00E9483FBE9C588E40E94DDC979
:104FD0008823A9F00E9476C78A3A91053CF0853073
:104FE000F1E09F072CF084E091E002C08AEA90E0B3
:104FF000F801EE0FFF1FE053F94F9183808386E4A1
:105000000E94DDC9882381F00E9476C797FD07C002
:105010008F3F910529F024F08FEF90E001C080E0F0
:10502000F801E859F94E808382E40E94DDC98823A3
:1050300009F4B4C50E9476C78530910534F08D38E7
:1050400091052CF08CE890E002C085E090E0F8013A
:10505000EE0FFF1FE659F94E918380839FC50E9492
:105060006EA1182F87FD9AC584E40E94B1C78823DA
:1050700009F43FC00E947AC76B017C0101E020E087
:1050800030E0A9010F94E032811101C000E00093EB
:105090002D1520E030E0A901C701B6010F94E032E0
:1050A000882339F10E947AC724E01202F00111240A
:1050B000EE5CFA4E608371838283938320E030E05C
:1050C000A90160913215709133158091341590913A
:1050D00035150F94E03281110CC080E090E0A0EE15
:1050E000BFE38093321590933315A0933415B0939A
:1050F00035150F94CA0552C50E946EA187FD4EC595
:105100006EE7E62E62E0F62E00E61CE0D7018D91F8
:105110007D010E94B1C7882359F00E947AC70F947D
:10512000493BF80160837183828393830F94A407C2
:105130000C5F1F4FFCE000371F0741F72FC50E948F
:105140006EA187FD2BC55EE7E52E52E0F52E00E649
:105150001CE0D7018D917D010E94B1C7882339F0F1
:105160000E947AC7F80164A375A386A397A30C5F76
:105170001F4FFCE000371F0761F710C50E944399DD
:105180000DC53EE7C32E32E0D32E48E2E42E45E0C3
:10519000F42E10E0D6018D916D010E94B1C78823D5
:1051A00051F00E947AC7F7016083718382839383F1
:1051B000812F0F94F10B1F5FF4E0EF0EF11C133001
:1051C00049F70F944804EAC483E50E94DDC98823A7
:1051D00009F4E4C40E9476C7909356028093550266
:1051E000DDC40E946EA1F82E87FDD8C483E50E941D
:1051F000DDC90F2D0F2C000C110B882369F10E94C3
:1052000076C7F801EE0FFF1FE55AFD4F91838083AB
:10521000000F111F000F111F9801245E3D4F7901EF
:10522000BC01990F880B990B0F94E7322AE037EDF8
:1052300043E25CE30F944633F801E25DFA4E2081CD
:105240003181428153810F944633D7016D937D9311
:105250008D939C931397A2C40E9442FD85E40E9403
:105260003E3780E38F0D0E943E37F801EE0FFF1F9F
:10527000E55AFD4F6081718187EA99E00E944CFCFC
:1052800085E20E943E378AE00E943E3787C480E56F
:105290000E94B1C7882309F481C460E070E080E512
:1052A0000E94FC9AF82E6FEF7FEF83E50E94FC9A34
:1052B0008C010196039708F071C4F7FC6FC48F2D21
:1052C0000F94CB24882339F00E946CFC8FEA99E07C
:1052D0000E9483FB63C40F940F0860E08F2D0E942F
:1052E000AF8C0F3FBFEF1B0731F00130110571F09C
:1052F00000E010E00DC08F2D0F94A02C31E020E0D5
:10530000892B09F030E0032F122F02C001E010E0DA
:105310008F2D0F94A02C8017910709F43FC480E0D3
:105320000E946A38F5CF80E50E94B1C7882309F44E
:1053300035C40E9476C78C01892B09F07FC083E5B4
:105340000E94B1C7882389F00E9476C78F3FEFEF94
:105350009E0729F48CE491E10E94F6341FC4BC013D
:105360008CE491E10E94C63519C40E9442FD60E0C0
:1053700070E08DEC99E00E944CFC80914E1128E584
:1053800032E06901C81AD10887FDD394CC0CDD1C2A
:10539000CC0CDD1C0D2C000CEE08FF0880914D118B
:1053A00028E830E04901881A910887FD9394880C19
:1053B000991C880C991C092C000CAA08BB08809128
:1053C0004C118F3FC1F090E0FC01EE0FFF1F8E0FDC
:1053D0009F1FFC01E152FF4E2181328153E0220FD9
:1053E000331F5A95E1F764E0369527956A95E1F702
:1053F0002E5F3F4F02C020E030E02F5F3F4FC901DA
:10540000330FAA0BBB0B9C01AD01281939094A09BE
:105410005B09A4EBB0E00F947739A7019601281936
:1054200039094A095B090F945839B90189E290E2B8
:105430000E944CFC8AE00E943E37B0C30E946CFC84
:10544000B8018EEC99E00E944CFC8EEB99E00E9432
:1054500083FBA4C30F940D12A1C364E071E083E544
:105460000E9471A78C0168EE73E080E50E9471A72D
:105470008938F3E19F0710F088E893E1B8010E94B2
:10548000C7E58CC360E085E40E940B9B811173C06B
:1054900080E50E94B1C7882351F00E947AC76093CB
:1054A000510770935207809353079093540789E4F0
:1054B0000E94B1C7882381F00E947AC72CEA35EC9C
:1054C00047E25EE30F9446336093550770935607A7
:1054D000809357079093580784E40E94B1C78823AC
:1054E00081F00E947AC72CEA35EC47E25EE30F9424
:1054F000D03A6093590770935A0780935B07909353
:105500005C070E9442FD4091510750915207609103
:105510005307709154078DE991E20E943BFC2CEAFD
:1055200035EC47E25EE36091550770915607809134
:105530005707909158070F94D03AAB01BC0187EE02
:1055400099E00E943BFC2CEA35EC47E25EE3609177
:10555000590770915A0780915B0790915C070F94EF
:105560004633AB01BC0184E991E20E943BFC8AE036
:105570000E943E3713C30E946CFC85ED99E00E94A7
:1055800083FB0CC380E50E94B1C7882351F00E94C1
:105590007AC76093B80C7093B90C8093BA0C90934F
:1055A000BB0C89E40E94B1C7882381F00E947AC7AE
:1055B0002CEA35EC47E25EE30F9446336093BC0C73
:1055C0007093BD0C8093BE0C9093BF0C84E40E943A
:1055D000B1C7882381F00E947AC72CEA35EC47E2F4
:1055E0005EE30F94D03A6093C00C7093C10C80932B
:1055F000C20C9093C30C0E9442FD4091B80C509194
:10560000B90C6091BA0C7091BB0C8DE991E20E94CB
:105610003BFC2CEA35EC47E25EE36091BC0C7091F8
:10562000BD0C8091BE0C9091BF0C0F94D03AAB0191
:10563000BC0187EE99E00E943BFC2CEA35EC47E286
:105640005EE36091C00C7091C10C8091C20C90918E
:10565000C30C0F944633AB01BC0184E991E20E9474
:105660003BFC8AE00E943E3799C283E50E94B1C7A5
:10567000182F882371F00E947AC70F94423B7093D1
:1056800021026093200221E0672B09F020E02093A3
:10569000450780E50E94B1C7882359F02091200278
:1056A00030912102232B11F00E9466C78093450799
:1056B00075C2111173C20E9442FD84E09AE00E94FB
:1056C00083FB80914507882319F081E495E102C0AE
:1056D0008BEE99E00E9483FB609120027091210281
:1056E00083EF99E00E944CFC8FEE99E00E9483FBCF
:1056F00055C20F940F0852C281E00E946B780F943C
:1057000048044CC26FEF7FEF89E40E94FC9A182F87
:105710006FEF7FEF8AE40E94FC9A082F8AE50E94CF
:10572000B1C7F82E811105C081E50E94B1C7D82EFE
:1057300001C0D12C17FD06C007FD04C0F11009C03F
:10574000D11007C00E946CFC87E19AE00E9483FBA5
:1057500025C2133010F4033038F00E946CFC8AE646
:1057600096E00E9483FB1AC2E12E110FFF08002E63
:10577000000C110B0E947AC7D701AA0FBB1FDD20B6
:1057800081F0FD01EE0DFF1DE00FF11FEE0FFF1F79
:10579000EE0FFF1FE259F94E208131814281538182
:1057A00003C020E030E0A901EA0EFB1E0E0D1F1D14
:1057B000000F111F000F111F0259194E0F94D639F7
:1057C000D8016D937D938D939C931397E7C10F94AC
:1057D000DD158111E3C103EC11E3E6EEF6E0FDA374
:1057E000ECA39E012F5F3F4F190176EFC72E71E3A7
:1057F000D72E7901F8016591759185919491ACA1AD
:10580000BDA18D909D90AD90BD90BDA3ACA3A50111
:1058100094010F94D5392B013C01F701608371830A
:105820008283938320E030E040EA51EC0F94363CD1
:1058300087FD0AC020E030E040EA51E4C301B20134
:105840000F94E03218162CF4F601849118160CF41B
:10585000F9C6D7018D909D90AD90BD907D0120E05F
:1058600030E040EA51ECC501B4010F94363C87FDAD
:10587000F3C620E030E040EA51E4C501B4010F94E2
:10588000E03218160CF0FCC6E7C60F945E2186C104
:105890000F94CC1F83C1909353160E942F681092CF
:1058A0005316882309F47AC10E9442FD83E79AE0E7
:1058B0000E9483FB73C18091F31182FF6FC18064EA
:1058C0008093F3116BC10F94420F68C10E946EA1C7
:1058D000082F87FD63C185E50E94B1C78823B1F118
:1058E000E02E002E000CFF080E947AC74B015C01DD
:1058F00020E030E0A9010F94363C87FF04C0B7FADE
:10590000B094B7F8B094C70153E0880F991F5A9527
:10591000E1F79C01205A394E7901D9018D929D926F
:10592000AD92BC92139720E030E046E154E4C5010B
:10593000B4010F94363C18164CF480E090E0A6E1D8
:10594000B4E4F70180839183A283B3838CE40E9443
:10595000B1C7882309F422C1002E000C110B0E944C
:105960007AC76B017C0120E030E0A9010F94363C3E
:1059700087FF04C0F7FAF094F7F8F09420E030E0E5
:1059800046E154E4C701B6010F94363C980143E068
:10599000220F331F4A95E1F7F901E05AF94E181624
:1059A0002CF0C482D582E682F782F8C080E090E0D5
:1059B000A6E1B4E484839583A683B783EFC00E94F5
:1059C0006DA4ECC09EE7E92E92E0F92E10E0D7011D
:1059D0008D917D010E94DDC9882331F00E9476C738
:1059E000BC01812F0E9455701F5F143081F782E443
:1059F0000E94DDC9882331F00E9476C7BC0184E093
:105A00000E94557083E50E94DDC9882309F4C6C051
:105A100010E00E9476C7BC01812F0E9455701F5F65
:105A20001530B9F7BBC083E50E94B1C7811106C02C
:105A30008EE7E82E82E0F82E10E00EC010E00E9403
:105A400052C7682F812F0E9496831F5F1530B9F7C8
:105A5000EFCF1F5F143071F0F70181917F010E9439
:105A6000B1C78823B1F30E9452C7682F812F0E94CB
:105A70009683EFCF82E40E94B1C7882331F00E9461
:105A800052C7682F84E00E9496830E942F8386C0AD
:105A900081E0809308021092970E60E083E50E94F7
:105AA000EAC981117BC00F94470E78C083E50E943C
:105AB000B1C7882339F00E9466C7809327050E94EA
:105AC000F3CA14C00E9442FD82EA9AE00E9483FB5E
:105AD00080912705882319F08DE294E102C084EBC0
