:100000000C9487200C94B8200C94B8200C94B82041
:100010000C94B8200C94B8200C94B8200C94B82000
:100020000C94B8200D94B4420D94B4420D94B44293
:100030000C94B8200C94B8200C94B8200C94B820E0
:100040000C94B8200C9480A50C94B8200C94B82083
:100050000C94B8200C94B8200C94F3C60D949644DC
:100060000C94B8200C942B440C9421440C94B8208C
:100070000C94B8200C94B8200C94B8200C94B820A0
:100080000C94B8200C94B8200C94B8200C94B82090
:100090000C9466FF0C943CFF0C94B8200C94B82090
:1000A0000C94B8200C94B8200C94B8200C94B82070
:1000B0000C94B8200C94B8200C94B8200C94B82060
:1000C0000C94B8200C94B8200C94B8200C94B82050
:1000D0000C94B8200C94B8200C94B8200C94B82040
:1000E0000C94B820DE45E445EF45FA450546104638
:1000F0001B4626465A465A465A465A46314679467D
:1001000085469646A746B846C946DA46EB46224794
:10011000224722472247F94641474D475E476F47EE
:1001200080479147A247B347EA47EA47EA47EA4789
:10013000C1470948124821482C48374842484D4891
:10014000574885488548854885485F48B3487A4977
:10015000B948C348CD48D748ED48FA487A490749D5
:100160007A4915497A491D4927497A497A493B49CB
:1001700045494D495749614970499949934AA249AE
:10018000AF49BC49C949E249F249934A024A934AF4
:10019000134A934A1E4A2E4A934A934A454A524A60
:1001A0005D4A6A4A774A894AB24AAC4BBB4AC84A56
:1001B000D54AE24AFB4A0B4BAC4B1B4BAC4B2C4B8E
:1001C000AC4B374B474BAC4BAC4B5E4B6B4B764B16
:1001D000834B904BA24BCB4B834CD14BD94BE14B38
:1001E000E94BFF4B0A4C834C154C834C214C834C00
:1001F000294C364C834C834C4D4C554C5D4C654CD6
:100200006D4C7C4C1E9F5D9D969D5A9F969D969D24
:10021000969D969D969D969D969D969D969D969D46
:10022000969D969D969D969D969D969D969D969D36
:10023000969D969D969D969D969D969D969D969D26
:10024000549F969D969D969D969D969D969D969D56
:10025000969D2D9F969D969D969D969D969D969D6D
:10026000969D969D969D969D719F939D5C045004CE
:10027000F402CA0328047A02DA018A0458043C040E
:1002800084044A0342037A04CC030E040A03B8032D
:100290003804C602A202A202DA03A2022204C204A5
:1002A000B0038C02BC031E02A204BA026402200244
:1002B0001402520252029A0452022E040602BC0296
:1002C0001804E402C8036202F202EC025003D802EE
:1002D000FE02FE02A203FE024204E40324022A02FA
:1002E00096047404A602F203D002E00378028A03A3
:1002F0008A031C028A0338035203F001D4017C03F1
:10030000AE0328020C039402D202740208042A04E9
:10031000AE02980240048C03940258038E045802E3
:100320004E0212037204DC02F401CA0454030403F3
:10033000C2023E037202AA021A03B402CA04EC0308
:1003400030041C04084AD73B3BCE016E84BCBFFD81
:10035000C12F3D6C74319ABD56833DDA3D00C77F95
:1003600011BED9E4BB4C3E916BAAAABE000000802E
:100370003F05A84CCDB2D44EB93836A9020C50B9BD
:10038000918688083CA6AAAA2ABE000000803F00E9
:100390000D94A5130C941E4A0C94849B0C94364C1B
:1003A0000C9431640D9471150D94ED410C945748E3
:1003B0000C94EB460D94D7180C9426BB0C949949D9
:1003C0000C9410460C94524A0C94FEA10C9486A2F4
:1003D0000C9496460C94EF450D9499150C94B7F92E
:1003E0000D94CA3A0D94BB2D0D94CE430D94724CCE
:1003F0000C9430640C946FFA0C94834B0C94094861
:100400000C945E4B0C94DFA00C94CE9C0D94F639AA
:100410000C9412480C94969D0C940C850D94951593
:100420000C94764B0C942E4A0D94E4390C943DBBFD
:100430000C94834C0C9402750D94BA3A0D94C33904
:100440000D94DF390D9479150D94633A0C94CD48D1
:100450000D94E3410D94873A0C9477790C94DE4522
:100460000C94229C0C94D54A0C94BCF90C9475FA0B
:100470000C941E9F0C94939C0C94C84A0C94774A3D
:100480000D9491150C9444C00C94A57E0C946D8928
:100490000C945C9B0C94B24A0C9428A20D94B0432B
:1004A0000C9472C00D94003A0C9490FE0C945589F3
:1004B0000D9422420C9429850C94FC740C9459A23E
:1004C0000C946EC00D94393A0D94D9390D947E195F
:1004D0000D9475150C9499FD0C9428F80C94894A88
:1004E0000C945D9D0D94FC430D94F8410C941CA25A
:1004F0000D94B33A0D94D4180C94B8460C94CDFED8
:100500000D94A8150C94709B0C94027B0C94237B87
:100510000C94989B0C945D4C0D94B8390C94F24952
:100520000C94ED480C94C6F90D9427420C946F4737
:100530000D940C420C94E14B0C9426460D948915B5
:100540000C94294C0D9498390C9407490D94A03AB9
:100550000C9416A20D9406440C94554C0D9406422E
:100560000C94B3FE0C941EF80D941F440C941D497A
:100570000C94D14B0D94D7390D94FB390C941B4B33
:100580000C94C97B0D94E8430C94367D0D947C3912
:100590000C94C47D0C945F9C0C94B3480C94AC9B5D
:1005A0000D94A83A0D94F4410C94719F0C940C9CFA
:1005B0000D944C3A0C94C3480D94C4430C945A9F28
:1005C0000D94A2150C9434640D94263A0D94CE2DFE
:1005D0000C945A460C94259C0D94413A0C94704905
:1005E0000C94CB4B0D943F3A0D94CE180C94474B82
:1005F0000C94214C0C9441470C94154C0D94683A82
:100600000C944D470C9470C00D94E0430C94FE7410
:100610000C94BB4A0D946F390D94E9410C94E94B4D
:100620000C94FF4B0D94B5430C9415490C94B19C5C
:100630000C94E4450D9415440D9470350C94F8A178
:100640000D94544C0C949FBB0C94E29C0C9444FA73
:100650000C948BBE0C94917C0C9410A20C94D748F3
:100660000C9465890C94469B0C94429C0C945DC040
:100670000D94BF3A0C942C480D942C0A0D94F2431F
:100680000C942EF80D9450390C94374B0D94E5359D
:100690000C94FB4A0D94E0180C9434860C942D9F16
:1006A0000D94473A0D94C53A0D94D8430C9439FCF7
:1006B0000D941A420C94FE7A0D9471290C943B49C6
:1006C0000C94454A0C9475890C94DB9C0D9481150F
:1006D0000C9408880C9491470C94934A0C942EA285
:1006E0000C9457BB0C9482BC0C943FFA0C94A24718
:1006F0000C94AC4B0C940AA20D94F0410C94574905
:100700000C9404A20C9431F80C945D730C94118534
:100710000C940A4C0D94CF3A0D9414420C9466FE3E
:100720000C94A7460C945D890C9405460C9449FAE8
:100730000C947A490C94A24B0C94AF820C9485488B
:100740000C94C1F90D94533A0C94E07B0C94F69CF4
:100750000C94AF490D948D150C94904B0D94DF4182
:100760000D9493390C947B7B0D9455190C94E9846A
:100770000D9471390C9442480D94BE390C94024A80
:100780000C944D490D940B170D9485150C94E99C10
:100790000D942B3A0D94EB180D945B390C944D4845
:1007A0000C9445490C9422470C94134A0C94B3477B
:1007B0000C94DFC20D9483390C94DC9B0C941F9C29
:1007C0000D94AE3A0D943A120D945E3A0C9422A216
:1007D0000C94EEBA0C94EA470D9429440C94627B75
:1007E0000C9468BC0D94A63A0C94C9460C94D94B51
:1007F0000C94C89B0C941B460C94E2490C94F9464B
:100800000D949F150D9417290C94F4F80C944D4CED
:100810000D94FE410C9421480C945D4A0D94693965
:100820000C94BA9B0C944F800C947C4C0D94C52D69
:100830000D94203A0C9469FA0D943D440D94D328FC
:100840000D94A6280D9488390C94BC490C947BFA1D
:100850000D94D1180D9402420D947D150D94F0392C
:100860000D9433440C9485460C943AA20C94F09B5E
:100870000D9477390D94A5150D94F6180D949C15CB
:100880000D9410420D94583A0C94654C0C9486A427
:100890000C9449890C9480470C94C1470D944919D4
:1008A0000D94CB180C94FA480D94F5280D94C02D96
:1008B0000D94DA180C94D27B0D94E8180C947946B8
:1008C0000D949E280C9461490C94FA450C94C949E6
:1008D0000C946CC00C9437480C947C9C0C94B948D4
:1008E0000C9400750D94BA430D94923A0C9499713E
:1008F0000C9431460D9456390C9423F80C9474C022
:100900000C945F480C94B18B0D94DD180C946D4CD5
:100910000D9459280D94E3180C9427490D941E4208
:100920000C9463FA0C94A2490C9418780D948D3AA7
:100930000C9419850D94EB390D94CE290C940B4B26
:100940000C942C4B0D94D1390C944F890C94047554
:100950000C94DA460D9433290C946A4A0C94939DB6
:100960000D944F350C941AFF0D94BD280C9434A2AD
:100970000C9431870C945E470C94E24A0C94CBF9AA
:100980000C94FE9B0D948E390C941BBB0D94D82DAA
:100990000C94DA7B0D9447440C949FFE0C946B4BA3
:1009A0000C94549F0C9416854E414E494E4954590F
:1009B000494E46CDCCCC3D0AD7233C17B7D138772A
:1009C000CC2B329595E6241FB14F0A000020410040
:1009D00000C84200401C4620BCBE4CCA1B0E5AAE8A
:1009E000C59D7400407A10F35A00A0724E18090099
:1009F00010A5D4E80000E87648170000E40B540284
:100A00000000CA9A3B000000E1F5050000809698BE
:100A100000000040420F000000A08601000000100E
:100A20002700000000E80300000000640000000050
:100A3000000A00000000000100000000002C76D831
:100A400088DC674F0823DFC1DFAE59E1B1B796E517
:100A5000E3E453C63AE651997696E8E6C28426EB7B
:100A6000898C9B62ED407C6FFCEFBC9C9F40F2BA8E
:100A7000A56FA5F490055A2AF75C936B6CF9676D26
:100A8000C11BFCE0E40D47FEF520E6B500D0ED907B
:100A90002E0300943577050080841E080000204E48
:100AA0000A000000C80C333333330F986E128311E1
:100AB00041EF8D2114893BE65516CFFEE6DB18D1B8
:100AC000844B381BF77C1D901DA4BBE4242032848A
:100AD000725E228100C9F124ECA1E53D27434F4D10
:100AE0004D554E49434154494F4E00445259525579
:100AF0004E004552524F525300494E464F00454317
:100B0000484F0047322F4733206261642070617282
:100B1000616D65746572730A00536C6565702E2E85
:100B20002E004D65736820706F696E742063616E6E
:100B30006E6F74206265207265736F6C7665640AEF
:100B400000436C69636B20746F20526573756D652B
:100B50002E2E2E004E6F204D6F76652E00456E6452
:100B60002066696C65206C6973740A004265676968
:100B70006E2066696C65206C6973740A00286E6F5C
:100B80002066696C65290043757272656E74206613
:100B9000696C653A20005344207072696E74696E06
:100BA00067206279746520004E6F74205344207072
:100BB00072696E74696E670A005072696E7420748F
:100BC000696D653A20000A53746174733A2046696E
:100BD0006C616D656E7420757365643A20002C201D
:100BE0004C6F6E67657374206A6F623A2000546FB1
:100BF00074616C2074696D653A20002C204661692F
:100C00006C65643A20002C2046696E6973686564DF
:100C10003A20005072696E74733A20005374617404
:100C2000733A200045202553006F66660044454214
:100C300055473A004D3131322053687574646F77EF
:100C40006E004D31313320530042656420436F6F95
:100C50006C696E672E2E2E004265642048656174B3
:100C6000696E672E2E2E005468696E6B6572205671
:100C7000325F32323039204F46462E004348414DD4
:100C80004245525F54454D504552415455524500DE
:100C90004D4F54494F4E5F4D4F44455300544845C6
:100CA000524D414C5F50524F54454354494F4E00B2
:100CB0004155544F5245504F52545F53445F535423
:100CC000415455530050524F4D50545F535550505E
:100CD0004F525400454D455247454E43595F504190
:100CE0005253455200434153455F4C494748545F76
:100CF0004252494748544E45535300544F47474C7E
:100D0000455F4C494748545300534F46545741524E
:100D1000455F504F574552004255494C445F50453E
:100D20005243454E54004C4556454C494E475F444E
:100D3000415441005A5F50524F4245004155544F73
:100D40004C4556454C005052494E545F4A4F420064
:100D500050524F4752455353004155544F524550FE
:100D60004F52545F54454D5000564F4C554D4554CD
:100D70005249430042494E4152595F46494C455FF2
:100D80005452414E534645520053455249414C5FDF
:100D9000584F4E5F584F4646004649524D574152B4
:100DA000455F4E414D453A4D61726C696E20322E61
:100DB000302E7820284769744875622920534F5592
:100DC0005243455F434F44455F55524C3A687474F3
:100DD00070733A2F2F6769746875622E636F6D2F79
:100DE0004D61726C696E4669726D776172652F4DE7
:100DF00061726C696E2050524F544F434F4C5F5696
:100E0000455253494F4E3A312E30204D41434849C7
:100E10004E455F545950453A5468696E6B6572206F
:100E200056325F323230392045585452554445527B
:100E30005F434F554E543A3120555549443A636506
:100E40006465326132662D343161322D3437343885
:100E50002D396231322D633535633632663336379C
:100E600066660A002F2F20004D31343520533C692F
:100E70006E6465783E206F7574206F662072616EB7
:100E800067652028302D31290A00416363656C6550
:100E9000726174696F6E3A20500020466C6F773A29
:100EA000200050726F7465637465642050696E0A27
:100EB000004D424C2041646A757374205A002069C9
:100EC0003A006469730043290A0061626C6564201A
:100ED000286D696E2074656D702000436F6C64200E
:100EE00065787472756465732061726520004F6661
:100EF0006673657473204170706C69656400457237
:100F0000723A20546F6F206661722100546F6F2017
:100F10006661722066726F6D207265666572656EBD
:100F2000636520706F696E740A00454550524F4DDD
:100F3000204F4B0A002074656D7065726174757284
:100F400065207072657761726E207472696767657B
:100F50007265643A200020686F6D696E6720736562
:100F60006E73697469766974793A2000496E7661A6
:100F70006C69640A0056616C69640A004E6F205007
:100F80004C520A00504C52204578697374730A0021
:100F9000506F7765722D6C6F7373207265636F7617
:100FA0006572792000FE0AF90AF20AEB0ADD0A45A9
:100FB00072726F722077726974696E6720746F2025
:100FC000454550524F4D210A00627573793A2070A1
:100FD000617573656420666F7220696E7075740A3E
:100FE00000627573793A2070617573656420666F6D
:100FF0007220757365720A00627573793A20707297
:101000006F63657373696E670A0053544F505045A0
:10101000442E20005072696E7465722073746F7074
:101020007065642064756520746F206572726F72DC
:10103000732E2046697820746865206572726F721D
:1010400020616E6420757365204D39393920746FC5
:1010500020726573746172742E202854656D7065FA
:101060007261747572652069732072657365742E80
:1010700020536574206974206166746572207265FE
:101080007374617274696E67290A004E6F20436839
:1010900065636B73756D2077697468206C696E6524
:1010A000206E756D6265722C204C617374204C69E2
:1010B0006E653A2000636865636B73756D206D69BA
:1010C000736D617463682C204C617374204C696E7D
:1010D000653A20004C696E65204E756D6265722020
:1010E0006973206E6F74204C617374204C696E6557
:1010F000204E756D6265722B312C204C617374200B
:101100004C696E653A20004D313130004D31313738
:10111000004D333100534420726561642065727262
:101120006F720A00446F6E65207072696E74696E2A
:10113000672066696C650A002063757272656E745B
:101140002064656372656173656420746F20006D4F
:1011500041290A0020647269766572206F76657293
:1011600074656D7065726174757265207761726EF9
:10117000696E67212028004B494C4C2063617573D0
:101180006564206279204B494C4C20627574746F01
:101190006E2F70696E0A004B494C4C206361757369
:1011A000656420627920746F6F206D7563682069B3
:1011B0006E6163746976652074696D65202D2063A6
:1011C000757272656E7420636F6D6D616E643A2026
:1011D00000506C65617365205265736574005052F0
:1011E000494E5445522048414C5445440025533AF9
:1011F000202553004B494C4C45442E200050726929
:101200006E7465722068616C7465642E206B696C05
:101210006C28292063616C6C6564210A0065636831
:101220006F3A004572726F723A0066616C736500C6
:10123000747275650025301D0C282924311C0B455E
:1012400027232F1B0A4443212A193F40222B1A41EE
:101250004203380906360308020600010A4D65619B
:10126000737572656420706F696E74733A0A003525
:101270007835206D6573682E205A206F6666736519
:10128000743A2000486F74656E6420746F6F206339
:101290006F6C640A004D3630303A20546F6F204333
:1012A0006F6C6400507265737320627574746F6E36
:1012B00020746F20726573756D650A0050726573D6
:1012C0007320627574746F6E20746F20686561742A
:1012D000206E6F7A7A6C650A004C6F616400506F03
:1012E0007765722D6C6F73732066696C6520636C13
:1012F0006F7365206661696C65642E0A00506F77B4
:1013000065722D6C6F73732066696C6520777269E6
:101310007465206661696C65642E0A005772697491
:1013200065002D2D2D0A00494E56414C494420445C
:101330004154410A007072696E745F6A6F625F6542
:101340006C61707365643A20007364706F733A2047
:101350000073645F66696C656E616D653A20000AB2
:1013600020666164653A20006C6576656C696E671D
:101370003A200066616E5F73706565643A200074A0
:1013800061726765745F74656D70657261747572A2
:10139000655F6265643A20007461726765745F74AA
:1013A000656D70657261747572653A200066656579
:1013B00064726174653A2000706F736974696F6E4E
:1013C0005F73686966743A2000686F6D655F6F6669
:1013D000667365743A200063757272656E745F702F
:1013E0006F736974696F6E3A20002076616C69646E
:1013F0005F666F6F743A00204A6F62205265636FB8
:101400007665727920496E666F2E2E2E0A76616C93
:1014100069645F686561643A002568753A25303211
:10142000687500256875642025303268753A253066
:1014300032687500447269766572206572726F72E7
:1014400000636F696C2073686F72742063697263E4
:101450007569740A006F76657274656D7065726186
:10146000747572650A00206472697665722065720F
:10147000726F722064657465637465643A203078B5
:10148000006D6178002F33310009204261642072C1
:101490006573706F6E736521004C4F570048494764
:1014A00048004F4B004572726F723A20416C6C20BD
:1014B0000020636F6E6E656374696F6E2E2E2E2032
:1014C0000054657374696E672000544D4320434F88
:1014D0004E4E454354494F4E204552524F520030D4
:1014E0003D2E33323500313D2E3138004732362023
:1014F00048656174696E67204E6F7A7A6C65004743
:1015000032362048656174696E6720426564005711
:10151000616974696E6720666F72206865617475B1
:10152000702E0A004669786564204C656E677468A1
:10153000205072696D6500446F6E65205072696D50
:10154000696E67004D616E75616C207072696D69BE
:101550006E672E2E2E004732362043616E63656C17
:101560006564004C656176696E6720473236003FDE
:1015700053706563696669656420582C5920636FF0
:101580006F7264696E617465206F7574206F662078
:10159000626F756E64732E0A003F2852296570656C
:1015A00061742076616C7565206E6F7420706C615B
:1015B000757369626C653B206D757374206265207C
:1015C0006174206C6561737420312E0A003F537082
:1015D00065636966696564206E6F7A7A6C652074EC
:1015E000656D7065726174757265206E6F742070C0
:1015F0006C61757369626C652E0A003F5370656398
:1016000069666965642066696C616D656E742073D6
:10161000697A65206E6F7420706C61757369626C95
:10162000652E0A003F5370656369666965642070C2
:1016300072696D65206C656E677468206E6F7420CA
:10164000706C61757369626C652E0A003F5370653A
:10165000636966696564206E6F7A7A6C6520736968
:101660007A65206E6F7420706C61757369626C6549
:101670002E0A003F52657472616374696F6E204D6B
:10168000756C7469706C696572206D757374206215
:1016900065207370656369666965642E0A003F534F
:1016A000706563696669656420526574726163740C
:1016B000696F6E204D756C7469706C696572206E0F
:1016C0006F7420706C61757369626C652E0A003FDF
:1016D000537065636966696564206C617965722021
:1016E000686569676874206E6F7420706C617573CB
:1016F00069626C652E0A0043292E0A003F5370650B
:10170000636966696564206265642074656D7065EF
:10171000726174757265206E6F7420706C61757380
:1017200069626C65202834302D004732362073748E
:10173000617274696E672E2E2E0A00656E71756572
:101740007565696E672022006F6B00526573656E68
:10175000643A20002569792025696420256968207C
:1017600025696D202569730023646566696E6520AF
:1017700044454641554C545F004B6420004B692062
:10178000004B702000504944204175746F74756E91
:10179000652066696E6973686564212050757420E0
:1017A000746865206C617374204B702C204B692029
:1017B000616E64204B6420636F6E7374616E74732A
:1017C0002066726F6D2062656C6F7720696E746F32
:1017D00020436F6E66696775726174696F6E2E68FB
:1017E0000A00504944204175746F74756E65206617
:1017F00061696C6564212074696D656F75740A0098
:101800000A20436C617373696320504944200A00C5
:10181000204B643A2000204B693A2000204B703A5C
:1018200020000A204E6F206F76657273686F6F74A8
:101830000A002054753A2000204B753A2000206D94
:1018400061783A2000206D696E3A200020643A20C9
:101850000020626961733A20005049442041757448
:101860006F74756E652073746172740A0050494418
:10187000204175746F74756E65206661696C65646E
:10188000212054656D706572617475726520746F86
:101890006F20686967680A00504944204175746F79
:1018A00074756E65206661696C65642120426164AF
:1018B000206578747275646572206E756D626572EC
:1018C0000A004572723A207574663820666F6E742D
:1018D000206E6F7420696E697469616C697A6564E1
:1018E0002E00000C0D00FE07022603BC017FFE083F
:1018F000FE08FE05080806000040F0C888889878B1
:1019000010050808060000C0F88888888888F8054F
:1019100005050600012030F8302005080806000003
:101920002070F820202020E00509090600FF207023
:10193000A8A8B888887020050606060001E08CEA91
:101940008C8A0A0509090600FFF8A8888888888813
:10195000A8F8050A0A0600FE205050505088A8A892
:10196000887003030306000340A040FFFFFFFFFF52
:10197000FFFFFFFFFFFFFFFFFFFFFFFFFFFFFFFF77
:10198000FF0000000605FF010707060200808080B7
:1019900080800080030303060105A0A0A0050606C1
:1019A00006000050F85050F8500509090600FF20C5
:1019B00070A8A07028A87020050707060000C8C8F6
:1019C000102040989805070706000040A0A040A8F6
:1019D000906801030306020580808003090906015F
:1019E000FF2040408080804040200309090601FF1D
:1019F000804040202020404080050707060000204E
:101A0000A8702070A8200505050600012020F820F8
:101A1000200203030601FFC0408005010106000308
:101A2000F8020202060100C0C00507070600000810
:101A3000101020404080050707060000708898A815
:101A4000C8887003070706010040C040404040E0DE
:101A5000050707060000708808102040F8050707F2
:101A6000060000F808103008887005070706000017
:101A700010305090F81010050707060000F880F0AD
:101A800008088870050707060000304080F0888845
:101A900070050707060000F8081010202020050731
:101AA00007060000708888708888700507070600A0
:101AB0000070888878081060020505060100C0C023
:101AC00000C0C00206060601FFC0C000C04080037F
:101AD00005050601012040804020050303060002A1
:101AE000F800F80305050601018040204080050745
:101AF0000706000070881020200020050707060058
:101B0000007088B8A8B880700507070600007088C4
:101B100088F8888888050707060000F0484870485C
:101B200048F00507070600007088808080887005EF
:101B30000707060000F04848484848F00507070630
:101B40000000F88080F08080F8050707060000F8A4
:101B50008080F08080800507070600007088808004
:101B6000988870050707060000888888F8888888A4
:101B7000030707060100E04040404040E00507073A
:101B800006000038101010109060050707060000CE
:101B90008890A0C0A090880507070600008080807C
:101BA000808080F805070706000088D8A888888804
:101BB000880507070600008888C8A8988888050750
:101BC0000706000070888888888870050707060067
:101BD00000F08888F0808080050707060000708884
:101BE0008888A89068050707060000F08888F0A09C
:101BF00090880507070600007088807008887005C7
:101C00000707060000F820202020202005070706EF
:101C10000000888888888888700507070600008883
:101C20008888885050200507070600008888888823
:101C3000A8A850050707060000888850205088880B
:101C40000507070600008888502020202005070788
:101C5000060000F80810204080F80309090601FF7B
:101C6000E080808080808080E0050707060000809B
:101C70004040201010080309090601FFE020202041
:101C800020202020E00503030600052050880501E0
:101C9000010600FEF8030303060105804020050548
:101CA00005060000700878887805070706000080A0
:101CB00080F0888888F0050505060000708080881F
:101CC00070050707060000080878888888780505E9
:101CD000050600007088F0807005070706000030D8
:101CE0004840E04040400507070600FE70888888AD
:101CF0007808700507070600008080F088888888CB
:101D00000307070601004000C0404040E004090905
:101D10000601FE1000301010101090600507070635
:101D2000000080808890E09088030707060100C0CB
:101D30004040404040E0050505060000D0A8A8A8A6
:101D4000A8050505060000B0C888888805050506B1
:101D5000000070888888700507070600FEF08888F4
:101D600088F080800507070600FE78888888780854
:101D700008050505060000B0C88080800505050639
:101D8000000078807008F00507070600002020F8A2
:101D90002020201805050506000088888898680519
:101DA0000505060000888888502005050506000006
:101DB0008888A8A85005050506000088502050888E
:101DC0000507070600FE8888885020408005050525
:101DD000060000F8102040F80309090601FF204022
:101DE000404080404040200109090602FF80808079
:101DF0008080808080800309090601FF8040404088
:101E0000204040408005030306000248A890FF4C94
:101E10006F6164206D6D00556E6C6F6164206D6D37
:101E20000046696C2E204469612E004520696E20B1
:101E30006D6DC2B300200820466163740020082045
:101E40004D6178002008204D696E004175746F74F3
:101E5000656D70005654726176204D696E00566D46
:101E6000696E00566D6178204500566D6178205A84
:101E700000566D6178205900566D617820580041F8
:101E80006D6178204500416D6178205A00416D6197
:101E900078205900416D6178205800412D547261BD
:101EA00076656C00412D5265747261637400416304
:101EB00063656C0056652D4A65726B00565A2D4A53
:101EC00065726B0056592D4A65726B0056582D4A43
:101ED00065726B004F7574616765205265636F763C
:101EE00065727900436F6E66696775726174696FB8
:101EF0006E003F0043616E63656C00313530004217
:101F000045443A486973656E732033393530005261
:101F1000756E617761792057617463683A204F4E1E
:101F2000004D61782054656D7000323735004D6981
:101F30006E2054656D700045313A20486973656EB6
:101F4000732033393530005053550047656E657244
:101F500069630050726F746F636F6C00312E3000D4
:101F600042617564003235303030300052616D624C
:101F70006F004D657368204C6576656C696E67000F
:101F8000457874727564657273005468696E6B6528
:101F9000722056325F3232303900323031392D31D1
:101FA000322D3031005072696E7465722053746145
:101FB000747300546865726D6973746F7273004254
:101FC0006F61726420496E666F005072696E74654D
:101FD0007220496E666F004D313030300053746F9F
:101FE00070205072696E7400526573756D65205073
:101FF00072696E740053746F70004D323100436823
:10200000616E6765204D656469610041626F75743A
:10201000205072696E746572004E6F204D65646960
:10202000610054756E6500496E666F20536372657A
:10203000656E005374617274205072696E7400434F
:10204000616E6E6F7420656E746572207375626464
:1020500069723A2000022E2E004F6666004F6E0015
:10206000544D4320447269766572730046616E2058
:102070005370656564203D00426564205A004D61DF
:10208000696E00537465616C746843686F702045B5
:102090006E61626C6564005374657070696E672070
:1020A0004D6F64650053656E736F726C657373205A
:1020B000486F6D696E67004472697665722043757A
:1020C0007272656E7400436F6E74726F6C00426161
:1020D000627973746570205A00466C6F77002062D5
:1020E000797465733B20637263200053657474696F
:1020F0006E67732053746F726564202800454550E5
:10210000524F4D206461746173697A652065727203
:102110006F722E0A002073746F7265642073657489
:1021200074696E6773207265747269657665642080
:102130002800202863616C63756C617465642921D3
:102140000A0020213D2000454550524F4D2043526A
:1021500043206D69736D61746368202D202873744A
:102160006F726564292000496E6465783A2000200A
:102170004D61726C696E3D563734290A00454550F1
:10218000524F4D2076657273696F6E206D69736D65
:10219000617463682028454550524F4D3D00000052
:1021A000964300009B430000C84324F4D43050C33E
:1021B0008E20C2A24017828B7011127A910D816C11
:1021C000D90AA861E108C7586607615143061E4B4A
:1021D0005D05C145A7041A411104093D98037139F1
:1021E00031034036DB0265339102D4305402802E35
:1021F0001D02632CEE01752AC501B028A00110272D
:1022000081018F2564012B244B01E0223401AC2194
:102210001F018D200D01801FFC00841EED00971D05
:10222000DF00B81CD200E61BC600201BBC00641AED
:10223000B200B219A8000A19A0006A189900D117B3
:10224000910040178B00B516840031167E00B3153F
:1022500079003A157300C7146F0058146A00EE1322
:1022600066008813630025135E00C7125B006C12C2
:10227000570015125400C111510070114F00211167
:102280004B00D61049008D10470046104400021044
:102290004200C00F4000800F3E00420F3C00060F7E
:1022A0003B00CB0E3800930E37005C0E3500270E36
:1022B0003400F30D3200C10D3100900D3000600D7F
:1022C0002E00320D2D00050D2C00D90C2B00AE0C6C
:1022D0002900850C29005C0C2700350C27000E0C0A
:1022E0002600E80B2400C40B2400A00B23007D0B68
:1022F00023005A0B2100390B2100180B2000F80A8B
:102300001F00D90A1E00BB0A1E009D0A1D00800A7C
:102310001D00630A1C00470A1B002C0A1B00110A3F
:102320001A00F7091A00DD091900C4091900AB09E0
:102330001900920917007B091800630917004C095E
:10234000160036091600200916000A091500F508BE
:102350001500E0081400CC081400B8081400A40804
:102360001400900813007D0812006B081300580831
:102370001200460812003408110023081100120848
:10238000110001081100F0071000E0071000D0074D
:102390001000C0071000B0070F00A1071000910740
:1023A0000E0083070F0074070F0065070E00570724
:1023B0000E0049070E003B070D002E070E002007F8
:1023C0000D0013070D0006070D00F9060C00ED06C1
:1023D0000D00E0060C00D4060C00C8060C00BC067C
:1023E0000C00B0060C00A4060B0099060C008D062C
:1023F0000B0082060B0077060B006C060B006106D3
:102400000A0057060B004C060A0042060A0038066E
:102410000A002E060A0024060A001A060A00100600
:10242000090007060A00FD050900F4050900EB058F
:102430000900E2050900D9050900D0050900C70512
:102440000900BE050900B5050800AD050800A50591
:1024500009009C050800940508008C050800840507
:1024600008007C050800740508006C050700650578
:1024700008005D050700560508004E0507004705E2
:1024800007004005080038050700310507002A0548
:102490000700230507001C050600160507000F05A9
:1024A00007000805060002050700FB040600F50406
:1024B0000700EE040600E8040600E2040700DB045F
:1024C0000600D5040600CF040600C9040600C304B4
:1024D0000600BD040600B7040600B1040500AC0404
:1024E0000600A6040600A00405009B04060095044F
:1024F0000500900406008A04050085040500800498
:1025000006007A04050075040500700405006B04DC
:10251000050066040500610405005C04050057041D
:102520000500520405004D0405004804050043045D
:1025300005003E0404003A0405003504050030049B
:1025400004002C04050027040400230405001E04D5
:1025500004001A04040016040500110404000D040C
:102560000400090405000404040000040400FC0342
:102570000400F8030400F4030400F0030400EC0377
:102580000400E8030400E4030400E0030400DC03A7
:102590000400D8030400D4030400D0030400CC03D7
:1025A0000400C8030300C503030024F404D9201B5E
:1025B000C40C5C0E9804C4095F0265077101F40540
:1025C000F900FB04B30048048700C1036900580305
:1025D000550003034500BE023A0084023100530255
:1025E0002A002902250004022000E4011C00C80181
:1025F0001900AF0117009801140084011300710144
:1026000010006101100051010E0043010D00360160
:102610000B002B010B0020010B00150109000C0120
:10262000090003010800FB000800F3000800EB00AC
:102630000700E4000600DE000600D8000600D20015
:102640000600CC000500C7000500C2000500BD0063
:102650000400B9000400B5000400B1000400AD009E
:102660000400A9000400A5000300A20003009F00CD
:1026700004009B00030098000300950002009300F3
:102680000300900003008D0002008B00030088000F
:1026900002008600020084000300810002007F0027
:1026A00002007D0002007B0002007900020077003A
:1026B0000100760002007400020072000100710047
:1026C00002006F0002006D0001006C0002006A0051
:1026D000010069000200670001006600010065005A
:1026E000010064000200620001006100010060005E
:1026F00001005F0002005D0001005C0001005B0062
:1027000001005A0001005900010058000100570063
:102710000100560001005500010054000100530063
:102720000000530001005200010051000100500060
:1027300001004F0001004E0000004E0001004D005E
:1027400001004C0001004B0000004B0001004A005A
:102750000100490001004800000048000100470056
:102760000100460000004600010045000000450051
:10277000010044000100430000004300010042004A
:102780000000420001004100000041000100400043
:1027900001003F0000003F0001003E0000003E003D
:1027A00001003D0000003D0001003C0000003C0035
:1027B00000003C0001003B0000003B0001003A002B
:1027C00000003A0001003900000039000100380023
:1027D000000038000000380001003700000037001A
:1027E0000100360000003600000036000100350010
:1027F0000000350000003500010034000000340006
:1028000000003400010033000000330000003300FA
:1028100001003200000032000000320001003100EF
:1028200000003100000031000100300000003000E5
:102830000000300001002F0000002F0000002F00DA
:1028400000002F0001002E0000002E0000002E00CE
:1028500001002D0000002D0000002D0000002D00C3
:1028600001002C0000002C0000002C0000002C00B7
:1028700001002B0000002B0000002B0000002B00AB
:1028800001002A0000002A0000002A0000002A009F
:102890000100290000002900000029000000290093
:1028A0000000290001002800000028000000280086
:1028B0000000280000002800010027000000270079
:1028C000000027000000270000002700010026006C
:1028D0000000260000002600000026000000260060
:1028E0000100250000002500000025000000250053
:1028F0000000250000002500010024000000240045
:102900000000240000002400000024000100230037
:10291000000023000000230000002300000023002B
:10292000000023000000230001002200000022001C
:10293000000022000000220000002200000022000F
:102940000100210000002100000021000000210002
:1029500000002100000021000000210001002000F3
:1029600000002000000020000000200000002000E7
:1029700000002000000020000000200001001F00D7
:1029800000001F0000001F0000001F0000001F00CB
:1029900000001F0000001F0001001E0000001E00BC
:1029A00000001E0000001E000000043700001E2969
:1029B0000000511B00005810000010090000CC045A
:1029C00000007802000041010000496E76616C69E8
:1029D000642065787472756465720A007C3C3E5EA2
:1029E0002B3D3F2F5B5D3B2C2A225C0045737465B9
:1029F00070732F6D6D005A73746570732F6D6D0059
:102A00005973746570732F6D6D00587374657073AE
:102A10002F6D6D00496E6974004D34323800496E77
:102A2000697469616C697A6520454550524F4D0063
:102A300053746570732F6D6D00416363656C6572CF
:102A40006174696F6E0056656C6F636974790053C9
:102A5000657420486F6D65204F66667365747300FA
:102A60004C6576656C696E6720446F6E6521004E1B
:102A700065787420506F696E74002569202F2025B9
:102A8000750047323920533100436C69636B207401
:102A90006F20426567696E00486F6D696E672058E8
:102AA000595A004661646520486569676874004C3E
:102AB0006576656C204265640046616E20537065E2
:102AC000656400453100626564002C20737973747D
:102AD000656D2073746F7070656421204865617442
:102AE00065725F49443A200048656174696E6720E9
:102AF0004661696C65640048656174696E6720664B
:102B000061696C656400202D20496E76616C696492
:102B1000206578747275646572206E756D62657279
:102B200020210A00544845524D414C2052554E41F7
:102B300057415900546865726D616C2052756E6121
:102B4000776179004572723A204D415854454D5095
:102B5000004D415854454D50207472696767657245
:102B60006564004572723A204D494E54454D5000FF
:102B70004D494E54454D50207472696767657265C2
:102B800064004D383420582059205A204500202F09
:102B9000002042403A0020403A0020573A000040CE
:102BA000012C0173012201AB011801F3010E014850
:102BB000020401AC02FA002A03F000C303E600801D
:102BC00004DC006D05D2006C06C800C707BE0070AB
:102BD00009B4006D0BAA00CB0DA000CF138C00F23E
:102BE0001B7800E9246400142E50009C353C00B88A
:102BF0003A2800A03D14000B3F00004D6F76652081
:102C00005A005072696E742066726F6D204D656453
:102C10006961004D6F76652025736D6D004D6F768F
:102C20006520302E316D6D004D6F766520316D6DF4
:102C3000004D6F76652031306D6D004D6F766520EB
:102C40004178697300486F74656E6420746F6F20FB
:102C5000636F6C64004578747275646572004D6FC3
:102C600076652059004D6F76652058004368616E87
:102C700067652046696C616D656E7400556E6C6F9A
:102C800061642046696C616D656E74004C6F6164AF
:102C90002046696C616D656E74005072656865618F
:102CA0007420414253005072656865617420504C35
:102CB00041005072656865617420437573746F6D6F
:102CC000004261636B00486F6D6520257325732595
:102CD00073204669727374006F70656E2066616957
:102CE0006C65642C2046696C653A200073746561DC
:102CF0006C746843686F70004D32342053256C64E7
:102D00002054256C64004739322E39204525730044
:102D1000473120462564004739322E39205A257321
:102D2000004731205A302046323030004731205899
:102D3000257320592573204633303030004D34320E
:102D40003020532569205A2573004D3130362050EC
:102D5000256920532569004D3130392053256900FC
:102D60004D31393020532569004D32303020442513
:102D700073004739322E392045305A300A47315ACC
:102D8000320A47323852305859004D3432302053CD
:102D900030205A300020506F7765722D4C6F73735E
:102DA000205265636F7665727920446174610A0010
:102DB000496E76616C6964004E6F00617869733AA0
:102DC00070776D5F7363616C652F637572725F738B
:102DD00063616C652F6D6563685F6C6F61647C66B1
:102DE0006C6167737C7761726E636F756E740A00D5
:102DF0004452565F535441545553090050574D5F48
:102E00005343414C45090050574D434F4E4609002E
:102E1000434F4F4C434F4E46090043484F50434F9A
:102E20004E460900544849474809090054434F4F4A
:102E30004C5448525309005450574D54485253096A
:102E400000545354455009090054504F57455244BB
:102E50004F574E0900494F494E0909004753544105
:102E60005409090049484F4C445F4952554E0900E6
:102E700047434F4E46090900737072656164437998
:102E8000636C650020647269766572206D6F64659D
:102E90003A09002064726976657220637572726502
:102EA0006E743A2000207072657761726E20666CD5
:102EB000616720636C65617265640A0020496E7603
:102EC000616C696420657874727564657220002095
:102ED000746F6F206C6F6E6720657874727573699C
:102EE0006F6E2070726576656E7465640A0020638B
:102EF0006F6C6420657874727573696F6E20707280
:102F00006576656E7465640A00496E736572742037
:102F100066696C616D656E7420616E6420707265A7
:102F2000737320627574746F6E0A00220A00556E06
:102F30006B6E6F776E20636F6D6D616E643A2022E9
:102F4000004D6F74696F6E00426564204C65766554
:102F50006C696E670054656D706572617475726539
:102F6000004D38340044697361626C6520537465A8
:102F7000707065727300473238205A00486F6D6573
:102F8000205A00473238205900486F6D652059009B
:102F9000473238205800486F6D6520580047323856
:102FA000004175746F20486F6D65005072656865EB
:102FB000617420504C4120456E6400507265686514
:102FC000617420504C412042656400507265686510
:102FD00061742041425320456E64005072656865FB
:102FE0006174204142532042656400436F6F6C64FA
:102FF0006F776E00687474703A2F2F6D61726C6910
:103000006E66772E6F726700322E302E78004D314B
:10301000303030205300205049445F64543A00203F
:10302000643A002069693A0020703A002020506C10
:10303000616E6E657242756666657242797465731B
:103040003A20002046726565204D656D6F72793AB1
:103050002000436F6D70696C65643A204A756C207E
:10306000203420323032300A00204C6173742055F5
:103070007064617465643A20323031392D31322DFB
:103080003031207C20417574686F723A20286E6F51
:103090006E652C2064656661756C7420636F6E6666
:1030A0006967290A00322E302E780A004D61726C51
:1030B000696E0020536F6674776172652052657384
:1030C00065740A00205761746368646F67205265F5
:1030D0007365740A002042726F776E206F757420DA
:1030E00052657365740A002045787465726E616C70
:1030F0002052657365740A00506F77657255700AC7
:10310000006175746F25632E670047323858590087
:103110006572726F722077726974696E6720746F5E
:103120002066696C650A00446F6E6520736176697C
:103130006E672066696C652E0A004D323900456E57
:103140006473746F707300255320256320256320FA
:10315000256320256300205A3A0020593A00656E05
:103160006473746F7073206869743A200001FFFF04
:10317000FFFFFFFFFFFFFFFFFFFFFF0FFFFFFFFF4F
:10318000FFFFFFFFFFFFFFFFFF1E0000000000002A
:103190000000000007FFFF380000000000000000F2
:1031A000000003FFFF7000000000000000000000AE
:1031B00001FFFF600000000000000000000000FFB1
:1031C000FF6000000000000000000000007FFFC062
:1031D00000000000000000007800003FFFC00FC0AA
:1031E000FC00000000007818001FFFC03FE1FF0056
:1031F00000000000783C000FFFC07FF3FF8000005C
:103200000000783C0007FFC0FFFFFFC00000000087
:10321000783C0003FFC1F87F87E0000000007800E1
:103220000001FFC1F03F03E0000000007800000053
:10323000FFC1E01E01E01F0003E0783C03F07FC106
:10324000E01E01E07FC00FF8783C07FC3FC1E01EA4
:1032500001E1FFE01FFC783C0FFE1FC1E01E01E30F
:10326000FFF03FFE783C1FFE0FC1E01E01E3F3F8C4
:103270003F3E783C3F3F07C1E01E01E7E0FC7C1F7A
:10328000783C3E1F07C1E01E01E7C07C7C0F783C04
:103290003C0F03C1E01E01E7807C780F783C3C0FB7
:1032A00003C1E01E01E7803C7800783C3C0F03C17D
:1032B000E01E01E7803C7800783C3C0F03C1E01E33
:1032C00001E7803C7800783C3C0F03C1E01E01E739
:1032D000C03C7800783C3C0F03C1E01E01E3E03CB9
:1032E00078007C3C3C0F03C1E01E01E3FF3FF80087
:1032F0007FBC3C0F03C1E01E01E1FF3FF8003FBF70
:10330000FC0F03C1E01E01E0FF3FF8001FBFFC0FF0
:1033100003C1E01E01E07F3FF8000FBFFC0F036018
:103320000000000000000000000000000760000036
:103330000000000000000000000006700000000017
:1033400000000000000000000E3800000000000037
:103350000000000000001C1E000000000000000033
:1033600000000000780FFFFFFFFFFFFFFFFFFFFFE0
:10337000FFFFF001FFFFFFFFFFFFFFFFFFFFFFFF6A
:10338000806F70656E00545249474745524544006E
:103390007A5F6D696E00795F6D696E00785F6D6947
:1033A0006E005265706F7274696E6720656E64732B
:1033B000746F70207374617475730A0020436F75A5
:1033C0006E7420583A0020453A00486F6D696E6768
:1033D000204661696C6564005761726E696E673A78
:1033E00020486F6D696E672042756D702044697664
:1033F00069736F72203C20310A0000000000000059
:103400002041000000000000484200004842000047
:1034100080400202040000000000000000000000E4
:103420004000009643000096430000C843FFFFFFA2
:103430002020202020202000256C6425636D001FA3
:10344000E02010201020101020102020102010301C
:10345000300840048003001FE03FF03FF03FF01FC2
:10346000E01FE03FF03FF03FF00FC0078003003F58
:10347000FFF038007030FC3020FC10207810203035
:10348000102C00D02E31D02F7BD02F7BD02E31D0DE
:103490002C00D020301020781020FC1030FC303868
:1034A00000703FFFF03FFFF0380070318630238717
:1034B000102787902F87D02F03D02030102078102E
:1034C0002078102030102F03D02F87D0278790230B
:1034D00087103186303800703FFFF01FFFF81FFF64
:1034E000F804104002082002082004104008208040
:1034F0001041001041000820800410400000001F0F
:10350000FFF81FFFF84C6F61642053657474696E97
:1035100067730053746F72652053657474696E67C6
:103520007300416476616E636564205365747469E9
:103530006E677300554E4C4F41442046494C414DF7
:10354000454E540046494C414D454E542043484158
:103550004E474500526573746F7265206661696CF1
:1035600073616665005072656865617420414253FD
:1035700020436F6E66005072656865617420504C20
:103580004120436F6E66004D373032205425640071
:103590004D36303020423020542564004D373032D3
:1035A000203B2564004D37303120542564004D37D1
:1035B0003032004D373031004D363030204230004F
:1035C000436F6E74696E7565005075726765206D26
:1035D0006F726500524553554D45204F5054494F29
:1035E0004E533A005052494E542050415553454491
:1035F0000020204E6F7A7A6C653A2000256C642E8C
:1036000025696D00457874727564656420546F7423
:10361000616C004C6F6E67657374204A6F62205452
:10362000696D65003E2000546F74616C20507269B2
:103630006E742074696D6500436F6D706C657465A0
:1036400064005072696E7420436F756E740050612F
:10365000726B696E672E2E2E000000576169742010
:10366000666F720066696C616D656E742063686177
:103670006E676500746F20737461727400576169BE
:103680007420666F720066696C616D656E7420757A
:103690006E6C6F616400004E6F7A7A6C65206865AD
:1036A0006174696E6700506C65617365207761694C
:1036B000742E2E2E00005072657373206275747420
:1036C0006F6E00746F2068656174206E6F7A7A6C1B
:1036D000650000496E736572742066696C616D6582
:1036E0006E7400616E64207072657373206275740D
:1036F000746F6E00746F20636F6E74696E75650011
:103700005761697420666F720066696C616D656EE1
:1037100074206C6F61640000507265737320427591
:1037200074746F6E00746F20726573756D652070B0
:1037300072696E7400005761697420666F72207040
:1037400072696E7400746F20726573756D652E2ECC
:103750002E00005761697420666F720066696C61A3
:103760006D656E7420707572676500002053697A0C
:10377000653A200043616E6E6F74206F70656E2035
:10378000737562646972200053442063617264201F
:103790006F6B0A006F70656E526F6F74206661699F
:1037A0006C65640A00766F6C756D652E696E697460
:1037B000206661696C65640A00534420696E69740F
:1037C000206661696C0A004D323320257300577200
:1037D0006974696E6720746F2066696C653A2000B1
:1037E00046696C652073656C65637465640A0046A0
:1037F000696C65206F70656E65643A20006672655D
:10380000736800646F696E67004E6F772000454EE5
:103810004420535542524F5554494E450A002220E8
:10382000706F73002220706172656E743A220053CB
:103830005542524F5554494E452043414C4C2074FB
:1038400061726765743A2200747279696E672074D8
:103850006F2063616C6C207375622D67636F6465A4
:103860002066696C6573207769746820746F6F20B7
:103870006D616E79206C6576656C732E204D4158B4
:10388000206C6576656C2069733A310A0044656C7A
:103890006574696F6E206661696C65642C20466989
:1038A0006C653A200046696C652064656C657465DA
:1038B000643A00506F7765722D6C6F737320666980
:1038C0006C652064656C657465004F46460A004669
:1038D0006164652048656967687420004661696CA9
:1038E000656420746F20656E61626C65204265645A
:1038F000204C6576656C696E670A004D65736820BB
:10390000426564204C6576656C20646174613A0A96
:1039100000496E76616C6964206D6573682E0A00DB
:10392000206E6F7420656E74657265642E0A0020C7
:103930006F6620004D424C2047323920706F696E0F
:103940007420004A206F7574206F662072616E6764
:10395000652028302D0049206F7574206F66207215
:10396000616E67652028302D004D65736820707288
:103970006F62696E6720646F6E652E0A0053746112
:103980007274206D6573682070726F62696E672053
:1039900077697468202247323920533122206669C2
:1039A0007273742E0A004732380A47323920533274
:1039B00000686173206E6F20646174612E0A004D8F
:1039C00065736820426564204C6576656C696E6736
:1039D000200053206F7574206F662072616E6765DA
:1039E0002028302D35292E0A004D34323120696EC1
:1039F000636F727265637420706172616D65746566
:103A0000722075736167650A005741524E494E47EF
:103A100021204C6F77205A204A65726B206D6179A6
:103A2000206C65616420746F20756E77616E7465BB
:103A300064207061757365732E0A00204D39322041
:103A4000580020204D61783A200020204D696E3AC0
:103A50002000536F667420656E6473746F70733AE0
:103A600020004D6963726F737465707320756E61A9
:103A70007661696C61626C650A0045313A200045E7
:103A8000303A20005A3A2000593A20004D53312C48
:103A90004D53322C4D53332050696E730A583A20DF
:103AA000005072696E7420506175736564005061D6
:103AB000757365205072696E74004D65646961208C
:103AC00052656D6F766564004D6564696120496E6D
:103AD000736572746564005468696E6B6572205614
:103AE000325F323230392052656164792E00507273
:103AF000696E74696E672E2E2E005072696E742086
:103B000041626F72746564004D323520500A4D3247
:103B100034004472697665722072656769737465F2
:103B200072733A0A007332767362090073327673E5
:103B30006109003132304309003134334309003127
:103B400035304309003135374309006F7409006F80
:103B50007470770900733267610900733267620914
:103B6000006F6C6109006F6C6209007374737409F3
:103B700000445256535441545553005374616C6C75
:103B800067756172642074687273002D737461725A
:103B9000740900687973746572657369730A2D65B9
:103BA0006E640900626C616E6B2074696D65006FF4
:103BB00066662074696D65004F5420707265776188
:103BC000726E206861730A6265656E20747269673F
:103BD0006765726564004F54207072657761726E1C
:103BE000005B6D6D2F735D090070776D0A746872EC
:103BF0006573686F6C6400747374657009006D732D
:103C00007465707309007673656E736509005057AB
:103C10004D207363616C650043532061637475616B
:103C20006C00486F6C642063757272656E7400522C
:103C3000756E2063757272656E74004D4158206315
:103C4000757272656E7400524D53206375727265A1
:103C50006E74005365742063757272656E740045EE
:103C60006E61626C65640900416464726573730916
:103C70000020540020520048617264636F646564E0
:103C80002044656661756C742053657474696E6751
:103C900073204C6F616465640A0020204D39303612
:103CA0000020204D3931340020204D353639205345
:103CB000310020204D363033200020550046696CFD
:103CC000616D656E74206C6F61642F756E6C6F61D1
:103CD00064206C656E677468733A0A004472697692
:103CE0006572207374657070696E67206D6F6465AE
:103CF0003A0A005374616C6C477561726420746891
:103D0000726573686F6C643A0A0020543020450075
:103D10005374657070657220647269766572206391
:103D2000757272656E743A0A0020204D343133206A
:103D30005300506F7765722D4C6F7373205265631B
:103D40006F766572793A0A0020204D333034205066
:103D50000020490020204D3330312050005049448C
:103D60002073657474696E67733A0A0020460020F8
:103D7000480020204D3134352053004D6174657268
:103D800069616C2068656174757020706172616D25
:103D900065746572733A0A00202047323920533324
:103DA00020580020204D3432302053004D65736878
:103DB00020426564204C6576656C696E673A0A003E
:103DC00020204D323036205800486F6D65206F66D8
:103DD000667365743A0A0020204D32303520420067
:103DE00020453C6D61785F655F6A65726B3E0020BF
:103DF000583C6D61785F785F6A65726B3E20593C14
:103E00006D61785F795F6A65726B3E205A3C6D61C7
:103E1000785F7A5F6A65726B3E00416476616E63BB
:103E200065643A20423C6D696E5F7365676D656ECF
:103E3000745F74696D655F75733E20533C6D696E88
:103E40005F66656564726174653E20543C6D696EA1
:103E50005F74726176656C5F6665656472617465D6
:103E60003E0020204D323034205000416363656CA9
:103E700065726174696F6E2028756E6974732F7333
:103E800032293A20503C7072696E745F61636365D9
:103E90006C3E20523C726574726163745F6163634F
:103EA000656C3E20543C74726176656C5F6163633F
:103EB000656C3E0A0020204D3230312058004D61A3
:103EC00078696D756D20416363656C6572617469B5
:103ED0006F6E2028756E6974732F7332293A0A0049
:103EE00020204D3230332058004D6178696D756D5A
:103EF000206665656472617465732028756E6974E7
:103F0000732F73293A0A00537465707320706572B9
:103F100020756E69743A0A0020204D3230302044FA
:103F2000300A0020204D3230302044002044697394
:103F300061626C65640A0046696C616D656E74202F
:103F400073657474696E67733A0020204D3134399B
:103F50002043203B20556E69747320696E204365B1
:103F60006C736975730A0020286D6D290020204745
:103F70003231202020203B20556E69747320696EF9
:103F8000206D6D00000096430000964300000C4237
:103F90000000C8410000A0420000A0420000C84349
:103FA0000000BA42DC050000DC05000096000000BD
:103FB000DC05000000002100240027002A002D005D
:103FC0003000330001010000040107010A01000074
:103FD0002200250028002B002E00310034000201B1
:103FE0000000050108010B0100002000230026004D
:103FF00029002C002F0032000001000003010601FF
:10400000090105050505070508080808020202025E
:104010000A0A080804040404010101010101010164
:104020000303030303030303040707070C0C0C0C2F
:104030000C0C0C0C02020202060606060606060618
:104040000B0B0B0B0B0B0B0B07070A0A0A0A0A0ACE
:1040500005050504040408080102102020080810C2
:1040600020401020408002010201080402010102E8
:1040700004081020408080402010080402018004C1
:10408000020180402010080402010804020101021C
:10409000040810204080010204081020408010080D
:1040A000040880102040044080102040048000005C
:1040B0000A0B02090C0D0E080703040100000000A2
:1040C00000000000000000000000000000000000F0
:1040D00000000000000000000000121110000000AD
:1040E00000000000000000000000000000000000D0
:1040F00000000000000000000000000000000000C0
:10410000000000004361703A0000F6012003112412
:104110001FBECFEFD1E2DEBFCDBF00E00CBF13E08A
:10412000A0E0B2E0ECE5FDEC02E00BBF02C00790BE
:104130000D92AE39B107D9F728E1AEE9B3E001C07D
:104140001D92A136B207E1F710E2C6E8D0E200E026
:1041500006C021970109802FFE010F94BF62C53868
:10416000D10780E00807A9F70F94DC4E0D949C66F8
:104170000C9400002F923F924F925F926F927F9229
:104180008F929F92AF92BF92CF92DF92EF92FF9267
:104190000F931F93CF93DF93CDB7DEB7E1970FB6A1
:1041A000F894DEBF0FBECDBF89AB20914D0E28AB7A
:1041B00081E080934D0E8091A8048D3409F48CC267
:1041C000843511F40C94B832873411F00C94BF325A
:1041D0008091A6049091A7048A31910509F415C134
:1041E00094F48430910534F482309105D4F597FF2E
:1041F0002CC06EC28430910509F4C8C0459711F4F3
:104200000C94C13265C28A32910509F4E2C16CF4A2
:104210008C31910509F417C10CF4FBC04D9709F0DE
:1042200057C20F949C240C94C1328B35910509F42C
:104230001AC18C35910509F41BC18A35910509F025
:1042400047C21092A7030C94C13280911B028823AD
:1042500011F40C94C1320E9459DE0F9445040C9461
:10426000C13220911B02222311F40C94C13211E0BF
:10427000029709F010E00E9459DE19821A821B820F
:104280001C821D821E821F82188682E50E94B757FB
:10429000882309F44BC00E9437576B017C0120E052
:1042A00030E0A9010F94C45B882309F455C08091C4
:1042B0002F0290913002A0913102B09132028CA372
:1042C0009DA3AEA3BFA38091330290913402A0912D
:1042D0003502B091360288A799A7AAA7BBA78090FC
:1042E000D1069090D206A090D306B090D40640900C
:1042F000D5065090D6066090D7067090D806A501D6
:1043000094016CA17DA18EA19FA10F94C45B81112A
:104310000C94CA32A301920168A579A58AA59BA530
:104320000F94C45B8823C1F00C94CA3289E40E94C4
:10433000B757882331F00E94375769837A838B837C
:104340009C838AE40E94B757882331F00E94375734
:104350006D837E838F83988720E030E0A901698197
:104360007A818B819C810F94C45B81110C947E3384
:1043700020E030E0A9016D817E818F8198850F94C6
:10438000C45B81110C947E330C94913380E50E94C0
:10439000B757882329F00F9418236B017C0103C0C1
:1043A000C12CD12C760183E50E94B757882361F098
:1043B0000E94375720E030E04AE754E40F942A5C2B
:1043C0000F9472646B017C010E9460AE8091DD17D6
:1043D000811105C060E089E19BE00F9416350F94D0
:1043E0008A44C60ED71EE81EF91E0F948A44DC01CB
:1043F000CB018C199D09AE09BF09B7FD02C00C9411
:10440000C13280E00E94ED39F0CF0E94E8570C9451
:10441000C1320E9438D181110C94C1328CE0E5E8A0
:10442000F2E0DE01119601900D928A95E1F760E0CD
:1044300070E080E50E9482E7BE016F5F7F4F0F94BE
:10444000C7330C94C1328091E1068770873011F038
:104450000C94983360E08FE40E94D35781110C9440
:10446000C1320C9498338FE08093A7030C94C1322F
:104470008091A504882349F1893009F0A6C041E95B
:10448000A42E42E0B42E5FE2E52E52E0F52ED12CB0
:1044900000E010E0D5018D915D010E94B75788239F
:1044A00069F00E943757F701608371838283938399
:1044B000133011F401E002C0DD24D3941F5FF4E057
:1044C000EF0EF11C143031F775C091E9292E92E0FE
:1044D000392E25ECE22E25E1F22E2FE232E03DA32B
:1044E0002CA339EBC32E35E1D32E00E010E0D1012F
:1044F0008D911D010E94B757882309F44BC00E947B
:1045000037572B013C01133049F0F60120813181EE
:10451000428153810F94FE622B013C01ACA1BDA1ED
:104520002D913D914D915C91C301B2010F94FE62BA
:104530004B015C012DEB37E346E855EB0F945F65CB
:1045400087FD0AC02DEB37E346E855E3C501B4010A
:104550000F94C45B1816F4F4133051F440923B02EC
:1045600050923C0260923D0270923E0201E012C005
:10457000A5019401F70160817181828193810F947B
:10458000FF62D7016D937D938D939C931397812F39
:104590000F9488031F5FB4E0EB0EF11CECA1FDA1AA
:1045A0003496FDA3ECA3F4E0CF0ED11C143009F037
:1045B0009ECF05C0DD2019F00F94A10806C000238E
:1045C00021F08BE392E00E9471AE0F94A3080C944B
:1045D000C13280911B02882311F40C94C13289E40A
:1045E0000E94B757F82E882321F00E943357182FC6
:1045F00001C010E08AE40E94B757082F882319F001
:104600000E94335701C080E0FF2011F0153020F4E4
:10461000002341F0853030F082E29BE00E94703749
:104620000C94C13290E1EFE2F2E0A1EDB6E001902E
:104630000D929A95E1F7FF2091F024E01202F0012B
:104640001124E859F44F4081518162817381409374
:10465000D1065093D2066093D3067093D4060023FC
:1046600091F034E08302F0011124EC5AF44F808180
:104670009181A281B3818093D5069093D606A093B1
:10468000D706B093D80640E050E0BA0186E40E9415
:1046900053686B017C0120E030E0A9010F945F6555
:1046A00018164CF420E030E040E752E4C701B601B0
:1046B0000F94F96303C060E070E0CB0169837A83F3
:1046C0008B839C83CE0101960F9420070C94C132FA
:1046D0000E94A1F60C94C1328091A6049091A70487
:1046E0008C38910509F480C60CF030C182359105F3
:1046F00009F4CDC60CF0ABC08B31910509F49BC316
:104700000CF053C08531910509F402C39CF5813149
:10471000910509F4E9C22CF4029708F469C20C94DB
:10472000B5328231910509F4C2C6449711F00C9458
:10473000B5328CE69BE00E94703784EA9BE00E94D1
:10474000A2B28BE1E4EAFBE0DE01119601900D924A
:104750008A95E1F760E070E0CE0101960F94842025
:10476000CE0101960E94D44E8DE59BE00E947037E9
:104770000C94C1328831910509F4E8C26CF4863199
:10478000910509F4C9C2479711F00C94B532E09134
:10479000A304F091A404CDC28931910509F432C378
:1047A0004A9709F43AC30C94B5328A32910509F458
:1047B00009C4ECF48E31910509F49AC37CF48C3170
:1047C000910509F48BC34D9711F00C94B53280918B
:1047D000870B8E7F8093870B0C94C1328F319105AC
:1047E00009F4D0C3809709F493C30C94B5328D3487
:1047F000910509F40EC46CF48B34910509F405C4D9
:104800008C34910511F00C94B5320E9446980C94AA
:10481000C1328E34910509F400C48135910511F03F
:104820000C94B5320E942BC70E9428AD0E94DCAFC9
:104830000E94F53668EE73E080E090E00E94FD355E
:1048400060E087E69CE00F9416350C94C1328F36F9
:10485000910509F450C5BCF58936910509F4F1C4F8
:10486000CCF48535910509F44FC654F48335910590
:1048700009F415C68435910509F419C60C94B532AE
:104880008C35910509F45BC68836910509F457C447
:104890000C94B5328C36910509F472C554F48A36FD
:1048A000910509F4E2C48B36910509F402C50C9414
:1048B000B5328D36910509F466C48E36910509F43A
:1048C00007C50C94B5328637910509F457C7CCF467
:1048D0008237910509F4D4C654F48037910509F460
:1048E00055C58137910509F45AC50C94B532833703
:1048F000910509F4CAC68537910509F42FC70C94B0
:10490000B5328937910509F476C794F48737910554
:1049100009F46EC78837910511F00C94B53281E027
:1049200080932114809320140F94D3090C94C132E6
:104930008A37910511F40C94A0318D37910511F04F
:104940000C94B5320E94B5E60C94C1328D39A1E0C9
:104950009A0711F40C9467320CF090C08D3D9105CC
:1049600011F40C94562D0CF03FC08B3C910511F4C2
:104970000C94D02CCCF48E3B910509F44BC554F427
:104980008139910509F43EC78B39910509F457C562
:104990000C94B532883C910509F48FC7893C910588
:1049A00009F4D8C70C94B5328E3C910511F40C94DF
:1049B000232D74F48C3C910511F40C94EF2C8D3C58
:1049C000910511F00C94B5320F9428230C94C13248
:1049D000833D910511F40C94462D8C3D910511F405
:1049E0000C94492D0C94B5328F32E1E09E0711F4FE
:1049F0000C94A62F04F58C3221E0920711F40C944C
:104A00005A2E64F4823E910511F40C94AC2D82323E
:104A1000914011F40C94F82D0C94B5328D32B1E024
:104A20009B0711F40C946F2E8E32914011F40C946C
:104A3000622F0C94B5328F35F1E09F0711F40C947E
:104A400056326CF4803331E0930711F40C94EF2E5E
:104A50008E35914011F40C9421320C94B53280398A
:104A6000B1E09B0711F40C94A92F8A39914011F001
:104A70000C94B5320E944A360C94C1328B35F2E068
:104A80009F0711F40C9434300CF04FC0863F31E096
:104A9000930711F40C940F302CF58C3AB1E09B077E
:104AA00011F40C94AF2F7CF4843AF1E09F0711F4D9
:104AB0000C94AC2F853A914011F00C94B5320F94C0
:104AC000AC230C94C132843F31E0930711F40C9471
:104AD0000C30853F914011F00C94B5320F94E43DB9
:104AE0000C94C1328C30B2E09B0711F40C942C3042
:104AF0006CF4873FF1E09F0711F40C941230883F6B
:104B0000914011F40C941B300C94B532893332E08F
:104B1000930711F40C94A6318835924011F00C944F
:104B2000B5320E94BDE50C94C1328F38B3E09B07CB
:104B300011F40C94A9317CF58A38F3E09F0711F445
:104B40000C94A3316CF48D3B32E0930711F40C9478
:104B5000AD308E3B924011F40C94B0300C94B532D1
:104B60008B38B3E09B0711F40C946F318C38934071
:104B700011F00C94B53260E070E083E50E94C457F8
:104B80008C0160E070E080E50E94C457B8010F948A
:104B9000C9300C94C132803AF3E09F0709F4E2C1B6
:104BA000C4F4803933E0930711F40C94DE31823978
:104BB000934011F00C94B53260E089E40F94902496
:104BC000D82E91E9E92E92E0F92E11E000E00C9444
:104BD000EB31873EB3E09B0711F40C945932883EC9
:104BE000934011F00C94B5320E948BE20C94C132C8
:104BF000A090A304B090A40480E50E94B757882336
:104C000059F00F9418236B017C0111E0672B682B7E
:104C1000692B31F410E004C010E0C12CD12C7601D6
:104C200083E50E94B757882311F40C9465340E94E1
:104C3000375720E030E04AE754E40F942A5C0F94A1
:104C400072646B017C0111110BC0672B682B692BFF
:104C500039F4A114B10421F0D5018C91811102C065
:104C600010E001C011E00E9460AE112329F061E064
:104C7000C5010F949D3505C060E081E49BE00F9471
:104C8000163510914D0E83E080934D0E81E0809398
:104C90004C0EC114D104E104F104B1F00F948A4424
:104CA000C60ED71EE81EF91E0F948A44DC01CB0104
:104CB0008C199D09AE09BF09B7FF0EC080914C0E3B
:104CC00081110C946A3408C080914C0E882321F025
:104CD00080E00E94ED39F8CF0F94C23510924C0E4F
:104CE00010934D0E0C94C13280919F0484FF02C03A
:104CF0000C946F348091A10487FF02C00C946F3430
:104D00008091A204837011F00C946F340C94883459
:104D10000F942C1C0C94C1320F94BB1B8091870BF9
:104D2000877F8093870B0C94C132803209F4108204
:104D3000319680818111F9CF40E061E08091A30438
:104D40009091A4040F94631F0C94C13283E50E94D8
:104D5000B757882321F00E94FF560E94F76E84E522
:104D60000E94B7578823A9F00E94FF566B017C016F
:104D70000E942B98C092A305D092A405E092A505AD
:104D8000F092A605CD28CE28CF2819F081E0809397
:104D9000AB05809192168823E9F080E090E0A8ECC2
:104DA000B2E488A399A3AAA3BBA31C8E1D8E1E8E5A
:104DB0001F8E19821A821B821C8220E0AE01405E87
:104DC0005F4FBE01645E7F4FCE0101960E94284F67
:104DD0000C94C1320E94FA36882381F00F94CC1BC8
:104DE0000E941E378CE397E10F94711B1092A90467
:104DF0001092AA041092AB041092AC040F94C23526
:104E00000C94C1328091870B82FF03C08B7F80930B
:104E1000870B0E94B5E60C94C1328091870B83FD0D
:104E200002C00C94C13283E50E94B75781110C94E3
:104E300093340C94C13283E40E946E57882319F195
:104E400087E89BE00E9470378091EB0C882391F0FB
:104E5000BE016F5F7F4F88EE9CE00E9419B68E0105
:104E60000F5F1F4FF80181918F01882339F00E9455
:104E70006937F8CF8DE79BE00E9470378AE00E9487
:104E800069370C94C1328091870B82FF21C086E97B
:104E90009BE00E9470376091830B7091840B80912E
:104EA000850B9091860B4AE00E9499388FE20E9410
:104EB000693760917F0B7091800B8091810B90918D
:104EC000820B4AE00E9499380E94C6390C94C13284
:104ED00088EA9BE00E9470370C94C13240E060E0A9
:104EE0008091A3049091A4040F94631F0C94C13289
:104EF0008091870B83FD02C00C94C1320E948AF618
:104F00008091A3049091A4040F94951E0C94C13237
:104F10008091870B82FD0E9460AE8091870B83FD9C
:104F200002C00C94C13260E080E50E94D357182F74
:104F3000482F61E08091A3049091A4040F94631F13
:104F400083E50E94B757882321F00E94FF560E94F4
:104F5000F76E0F94CC1B11110C94C1320E941E37B6
:104F60000C94C1322091A3043091A4049091870B3A
:104F700092609093870B40E060E0C9010F94631F3B
:104F80000C94C1320E94F7976C8F7D8F8E8F9F8F0C
:104F9000BE016F5F7F4FCE014C960E94186E60E09D
:104FA000CE0101960F949D350E94B537BE016F5F0B
:104FB0007F4F89EB9BE00E949E378AE00E94693711
:104FC0000C94C13283E50E94B757882311F40C94E6
:104FD000C1320E940F57F82E6DE070E080E50E940C
:104FE000C4578C0197FF02C00C94C132E82E60E0D8
:104FF00089E40E94D35781110C949834802F0F9428
:1050000079498111C6C50C9498340E941E370C94BE
:10501000C1320E9428AD0C94C13260E070E083E59B
:105020000E94C4578E34910531F40E9499AD0F94BB
:10503000C2350C94C1328CE19CE00E9470376091C3
:1050400010147091111483E19CE00E9494376091D8
:1050500012147091131486E09CE00E9494376091C2
:105060001014709111148091121490911314681BF4
:10507000790B8091AB05815021E030E0823010F057
:1050800020E030E0621B730B8BEF9BE00E949437B3
:105090008AE00E9469378CE19CE00E947037809121
:1050A000141490911514A0911614B09117148C8FAC
:1050B0009D8FAE8FBF8FBE016F5F7F4FCE014C962D
:1050C0000E94186EBE016F5F7F4F8EEE9BE00E94C4
:1050D0009E378091181490911914A0911A14B091D0
:1050E0001B148C8F9D8FAE8FBF8FBE016F5F7F4F64
:1050F000CE014C960E94186EBE016F5F7F4F8EED01
:105100009BE00E949E3720E030E04AE754E4609143
:105110001C1470911D1480911E1490911F140F94F3
:10512000F963AB01BC0186EC9BE00E94B5398DE6CA
:105130000E9469378AE00E9469370C94C1328091DD
:10514000BA1383FF02C00C94C1320E9473DF87FF41
:1051500002C00C94C13283E50E94B757882379F0CE
:105160000E9437570F946B648B01CB010E94ECB9FE
:105170000635110524F40E9428AD0F94C2350F9412
:105180009E490C94C1328091BA1383FF02C00C94E3
:10519000C1320E9473DFF82E87FF02C00C94C13227
:1051A00083E50E94B757082F811106C082E50E944F
:1051B000B757182F8823C1F10E9437570F946B649B
:1051C000CB010E94ECB90E94375720E030E04AEA58
:1051D00052E40F94C45B181614F40C94B1340E947A
:1051E00028AD0F94C2356091A90E7091AA0E072EBA
:1051F000000C880B990B0F94CB5B4B015C0140902A
:10520000A50E5090A60E6090A70E7090A80EA30158
:1052100092010F945F65181614F40C94CF34002398
:1052200011F40C94B53411E00F949E49112311F43C
:105230000C94C13240E0602F8F2D0E9463C50C9406
:10524000C1320E9473DF182F87FD0AC088E497E1FE
:105250000E947037812F0E945FC38AE00E946937E5
:10526000F8A9F0934D0E0C94E43560E080E50F94BE
:105270009024182F823010F00C94C13281E40E94E7
:105280006E57882321F060918A0E70E002C06FEFA4
:1052900070E083E50E9482E7E12FF0E0E657F14FEE
:1052A0008F3F910519F010F08FEF90E080830C9400
:1052B000C13260E080E50F949024823010F00C94AD
:1052C000C132E82FF0E0E657F14F10820C94C13262
:1052D0008EE40E94B757882311F40C94C1320E94C7
:1052E000FF56609331057093320580933305909398
:1052F00034050C94C13283E50E946E57882331F047
:1053000060E083E50F9490248093BA130E94B53730
:105310008DE29CE00E9470378091BA13882369F176
:1053200085EAE82E8FE0F82E00E010E020E0809182
:10533000BA1390E0A0E0B0E0002E04C0B695A795A7
:10534000979587950A94D2F780FF0EC0DD24D394F9
:10535000D20E222319F08CE20E946937F701859161
:1053600094910E9470372D2D0F5F1F4F32E0E30E96
:10537000F11C05301105D9F681CD89E29CE07CCD88
:1053800010924C0E10924F020C94C13241E060E03A
:1053900070E084E39CE00E94B9370C94C13283E54D
:1053A0000E94B757882381F00E940F57282F30E0C2
:1053B0002D33310524F4809300020C94C1328CE328
:1053C000809300020C94C1320E94B53740910002D4
:1053D00050E060E070E082E49CE00E9406398AE0E0
:1053E0000E9469370C94C1328091BA1383FF02C0C6
:1053F0000C94C13283E50E94B757882311F40C94B2
:10540000C1320E9437570F946B64CB010E94F15652
:105410000C94C1328091BA1383FF02C00C94C13244
:1054200083E50E94B757182F81110C94D23482E57E
:105430000E94B75781110C94D2340C94C13283E589
:105440000E94B757882311F40C94C1320E940F5761
:10545000182F90E0CD970CF01CE31093A2030F944B
:105460008A446B017C01212F30E0A8EEB3E00F9459
:105470006E62C60ED71EE81EF91EC0929E03D09221
:105480009F03E092A003F092A1030C94C13280919B
:10549000A7038F7D80618093A7030C94C132809114
:1054A000A7038F7E80628093A7030C94C13283E5AB
:1054B0000E94B7578823A1F00E94375720E030E0C0
:1054C0004AE754E40F942A5C0F94726460930102DB
:1054D0007093020280930302909304020C94C132F1
:1054E00080919F0484FF02C00C9408358091A10430
:1054F00087FF02C00C9408358091A204837011F0DC
:105500000C9408350C94353583E50E946E5788233A
:1055100011F40C94C1320E94375720E030E04AE782
:1055200054E40F942A5C0F9472646093A303709305
:10553000A4038093A5039093A6030C94C1320E9408
:1055400073DF87FF02C00C94C13290919F0494FDD9
:1055500004C09091A10497FF0AC011E9C12E12E086
:10556000D12E0BEBE02E03E1F02E10E00AC090915B
:10557000A204937091F7682F81E00F94DD220C94C0
:10558000C132D6018D916D010E94B757882309F46D
:105590006DC0133009F063C00E9437574B015C01A6
:1055A00020E030E040EA51E40F94C45B87FF4EC036
:1055B000A50194016091DB137091DC138091DD13E0
:1055C0009091DE130F94F9632B013C019B01AC0118
:1055D00060916E0E70916F0E8091700E9091710EB1
:1055E0000F942A5C60936E0E70936F0E8093700E12
:1055F0009093710EA30192016091EB137091EC13E3
:105600008091ED139091EE130F942A5C6093EB134D
:105610007093EC138093ED139093EE1360917E0ED4
:1056200070917F0E8091800E9091810E0F94C95BD6
:10563000A30192010F942A5C0F94726460937E0E12
:1056400070937F0E8093800E9093810E8092DB1377
:105650009092DC13A092DD13B092DE1307C00E947B
:105660003757F701648B758B868B978B1F5FF4E040
:10567000EF0EF11C143009F084CF0E943CAE81C7BC
:105680000E9460AE0F94A3087CC789E99DE00E9448
:10569000703760E089E89DE00F94A64860E084E7F9
:1056A0009DE00F94A64861E089E29AE20F94A64833
:1056B00061E089E69DE00F94A64861E089E59DE000
:1056C0000F94A64860E080E59DE00F94A64861E055
:1056D00086E49DE00F94A64860E08CE39DE00F9483
:1056E000A64860E084E39DE00F94A64861E086E26E
:1056F0009DE00F94A64860E088E19DE00F94A648E5
:1057000060E089E09DE00F94A64860E08BEF9CE0AC
:105710000F94A64860E085EE9CE00F94A64860E0F8
:1057200084ED9CE00F94A64860E085EC9CE00F942B
:10573000A64860E080EB9CE00F94A64861E08DE90C
:105740009CE00F94A64860E080E99CE00F94A64896
:1057500060E08CE79CE00F94A64813C78091A304F7
:105760009091A404009709F449CBDC012C912223E9
:1057700009F444CB60E00F949D3503C70091A30466
:105780001091A40494E0F12C40E0915021F1F80133
:105790008081282F2B7F213421F421812133D9F4DA
:1057A00007C08035C1F4818180538A3048F013C02E
:1057B000813421F0853421F441E002C0FF24F394C8
:1057C00098012E5F3F4F89012F5F3F4FF801808185
:1057D0008032C9F3DACF41110E94B537FF2021F0A2
:1057E00084E69EE00E947037C8010E94CC39C9C689
:1057F0000F94B609C6C610922114109220140F946B
:10580000D309BFC660E070E083E50E94C4578C01F5
:105810001127023011053CF00E94B13788E69EE066
:105820000E947037AEC688E40E94B7578823A9F05B
:105830000E9433578A3A91053CF08530F1E09F078A
:105840002CF084E091E002C08AEA90E0F801EE0FCB
:10585000FF1FEF57F94F9183808386E40E94B7576B
:10586000882381F00E94335797FD07C08F3F910531
:1058700029F024F08FEF90E001C080E0F801E758B4
:10588000F94F808382E40E94B757882309F479C6D0
:105890000E9433578530910534F08D3891052CF0F6
:1058A0008CE890E002C085E090E0F801EE0FFF1F69
:1058B000EB58F94F9183808364C60E9473DF182FE1
:1058C00087FD5FC684E40E946E57882309F43FC0B9
:1058D0000E9437576B017C0101E020E030E0A90114
:1058E0000F94C45B811101C000E00093950520E096
:1058F00030E0A901C701B6010F94C45B882339F1D8
:105900000E94375724E01202F0011124E656FA4FA4
:10591000608371838283938320E030E0A9016091EA
:105920009A0570919B0580919C0590919D050F941F
:10593000C45B81110CC080E090E0A0EEBFE38093D7
:105940009A0590939B05A0939C05B0939D050E949A
:1059500086A417C60E9473DF87FD13C661E9E62E91
:1059600062E0F62E0BEB13E17BECC72E73E1D72E32
:10597000D7018D917D010E946E57882359F00E94B6
:1059800037570F947264F801608371838283938325
:105990000E94F5AD0C5F1F4FC016D10649F7F1C547
:1059A0000E9473DF87FDEDC551E9E52E52E0F52E2B
:1059B0000BEB13E1D7018D917D010E946E57882377
:1059C00039F00E943757F80164A375A386A397A303
:1059D0000C5F1F4FF3E10B3C1F0761F7D2C58091AD
:1059E000A00487FF02C00C9438358091A1048E700A
:1059F00011F00C9438354091EF135091F0136091F1
:105A0000F1137091F2138AE89EE00E94B53940913B
:105A1000F3135091F4136091F5137091F61384E72A
:105A20009CE30E94B5394091F7135091F8136091AF
:105A3000F9137091FA1381E79CE30E94B5398AE06B
:105A40000E9469379EC531E9C32E32E0D32E45E26C
:105A5000E42E44E1F42E10E0D6018D916D010E94F8
:105A60006E57882351F00E943757F7016083718386
:105A700082839383812F0F9488031F5FF4E0EF0EDE
:105A8000F11C133049F70F94A3087BC50F94EE2146
:105A900078C583E50E94B757882309F472C50E9430
:105AA000335790936A02809369026BC50E9473DF3B
:105AB000F82E87FD66C583E50E94B7570F2D0F2C82
:105AC000000C110B882369F10E943357F801EE0F87
:105AD000FF1FE75FFD4F91838083000F111F000FB1
