:100000000C94471B0C94781B0C94781B0C94781B55
:100010000C94781B0C94781B0C94781B0C94781B14
:100020000C94781B0C94781B0C94781B0C94781B04
:100030000C94781B0C94781B0C94781B0C94781BF4
:100040000C94781B0C94E2B60C94781B0C94781BDF
:100050000C94781B0C94781B0C94BB900C94BC7E75
:100060000C94781B0C947E390C9474390C94781B86
:100070000C94781B0C94781B0C94781B0C94781BB4
:100080000C94781B0C94781B0C94781B0C94781BA4
:100090000C94781B0C94781B0C94781B0C94781B94
:1000A0000C94781B0C94781B0C94781B0C94781B84
:1000B0000C94781B0C94781B0C94781B0C94781B74
:1000C0000C94781B0C94781B0C94781B0C94781B64
:1000D0000C94781B0C94781B0C94781B0C94781B54
:1000E0000C94781B89A862A865A88CA868A86BA83E
:1000F0006EA87AA871A887A874A877A8E8D027CF97
:1001000060CF24D160CF60CF60CF60CF60CF60CFB1
:1001100060CF60CF60CF60CF60CF60CF60CF60CF67
:1001200060CF60CF60CF60CF60CF60CF60CF60CF57
:1001300060CF60CF60CF60CF1ED160CF60CF60CF87
:1001400060CF60CF60CF60CF60CFF7D060CF60CF9F
:1001500060CF60CF60CF60CF60CF60CF60CF60CF27
:100160003BD15DCF66023002920142026A02BE01BB
:100170000C01360134015402860198014401A801A2
:10018000BE01D40158022401140262016E016C0107
:1001900048026E02D00138025A0230019A0146012B
:1001A000C40154016E0244023A01F601084AD73BE9
:1001B0003BCE016E84BCBFFDC12F3D6C74319ABD36
:1001C00056833DDA3D00C77F11BED9E4BB4C3E915A
:1001D0006BAAAABE000000803F05A84CCDB2D44E49
:1001E000B93836A9020C50B9918688083CA6AAAA4B
:1001F0002ABE000000803F000C9474A80C94B7F64F
:100200000C94F05D0C94599A0C94E5A20C942B5D1F
:100210000C941F640C94B97E0D94CE010C94D95C9F
:100220000C94C3F60C9442F30C942EF30C94ECC98A
:100230000C949D5C0C94E6C40C9432AF0C94E1A237
:100240000C94B15C0C94F58F0D94FC010C94BAF6EF
:100250000C948FCB0C94BBF30C94BACE0C94A7A443
:100260000D94FD020C9441880D94D8010D94D20197
:100270000C9438F30D943E030C9400AB0C94C0F630
:100280000C94A7CE0C94095D0D94EA010D94110312
:100290000C94B4F60C941D5D0C94FDA20C94C0CE8D
:1002A0000C94E9A20C94C2A10D942A030C946BF255
:1002B0000C94825D0C94EFA80C948DCB0C941FF6DB
:1002C0000D9452230D94C0020C947AA80C94C45E31
:1002D0000C94A9A10C94F5A20D94CF020D94C50223
:1002E0000C943BD10C9468A80C94525D0C946A5DFC
:1002F0000C94FAAE0C94EDA20C9493CB0C94ECF30A
:100300000C9447AF0C943CAD0C94D2A80D94E00132
:100310000C94585D0C94DAF30C9488600C9460CFC4
:100320000C9488B00D94B9010C94F2470C94F2F33C
:100330000D94E6010D9407030C94F7D00C945BC563
:100340000C9424B40C944C5D0C94DCA80C94245EA6
:100350000D94EE010D9470230C94F5470C94B6F3B4
:100360000C94FB5C0C94A8F10C946EA80C94D5A290
:100370000C9426F80C942B5E0C9424D10D9401025D
:100380000C945E5D0C9487A80D9420030C94A8C86F
:100390000C9427AF0C94F1A20C9471A80C94C5C4D2
:1003A0000D94E3020C942F5D0D94F4010C945E5EA9
:1003B0000C94D35D0C946A880C94CDA80C9489A8F5
:1003C0000C946BA80C94625E0C9491CB0C94E76136
:1003D0000C940D5E0C9462A80C9427CF0C94875C4F
:1003E0000C94C0F30C945FAF0C94ED5C0D94480337
:1003F0000C94BDF60C94AAC80C941ED10C948CA835
:100400000C94ECA80C9452F50C94A6C80C94F147EB
:100410000C946AA10C943DF30C9410A20C94A2C805
:100420000C9465A80C94DDA20D94BB020C94C55CE1
:100430000C9491B20C94C8A80C94E0F30C94885DD1
:100440000C944EFB0C945DCF0C94BDCE0C948BCBD6
:100450000C94645D0C94D9A20C94AC5D0C94765D04
:100460000D94CA010C94E6F30C948F7E0C94705D8D
:100470000D94EB020C94A5A80C9433F30C94B65D88
:100480000C9427A20D94BD010D9434030C94EAE35F
:100490000D94D9020C94A4C80C9421A20C947C5DF8
:1004A0000C9470B00C94FDA90D94DC010C9419A26D
:1004B0000D94F8010D94F3020C9477A80C94A7AF57
:1004C0000C94F2A80C943DB40C94E8D00D94C701A0
:1004D0000C94F9A20D94C3010C94D7A80D94520367
:1004E0004E414E494E495459494E46CDCCCC3D0A19
:1004F000D7233C17B7D13877CC2B329595E6241FFC
:10050000B14F0A000020410000C84200401C4620B4
:10051000BCBE4CCA1B0E5AAEC59D7400407A10F387
:100520005A00A0724E18090010A5D4E80000E87621
:1005300048170000E40B54020000CA9A3B00000078
:10054000E1F505000080969800000040420F000091
:1005500000A08601000000102700000000E8030052
:100560000000006400000000000A0000000000011C
:1005700000000000002C76D888DC674F0823DFC11C
:10058000DFAE59E1B1B796E5E3E453C63AE65199D7
:100590007696E8E6C28426EB898C9B62ED407C6F00
:1005A000FCEFBC9C9F40F2BAA56FA5F490055A2AB7
:1005B000F75C936B6CF9676DC11BFCE0E40D47FEC3
:1005C000F520E6B500D0ED902E03009435770500B8
:1005D00080841E080000204E0A000000C80C33333F
:1005E00033330F986E12831141EF8D2114893BE64E
:1005F0005516CFFEE6DB18D1844B381BF77C1D90D7
:100600001DA4BBE424203284725E228100C9F1243F
:10061000ECA1E53D27434F4D4D554E4943415449CB
:100620004F4E0044525952554E004552524F52536C
:1006300000494E464F004543484F0047322F47334D
:100640002062616420706172616D65746572730A05
:1006500000536C6565702E2E2E004D6573682070FA
:100660006F696E742063616E6E6F742062652072B4
:1006700065736F6C7665640A00436C69636B207404
:100680006F20526573756D652E2E2E004E6F204DB6
:100690006F76652E00456E642066696C65206C6916
:1006A00073740A00426567696E2066696C65206C28
:1006B0006973740A00286E6F2066696C65290043AF
:1006C000757272656E742066696C653A20005344D9
:1006D000207072696E74696E67206279746520009B
:1006E0004E6F74205344207072696E74696E670A8D
:1006F000005072696E742074696D653A20000A5367
:10070000746174733A2046696C616D656E7420750E
:100710007365643A20002C204C6F6E6765737420FB
:100720006A6F623A2000546F74616C2074696D6561
:100730003A20002C204661696C65643A20002C2028
:1007400046696E69736865643A20005072696E7418
:10075000733A200053746174733A20004520255386
:10076000006F66660044454255473A004D313132CC
:100770002053687574646F776E004D3131332053A8
:100780000042656420436F6F6C696E672E2E2E00E9
:100790004265642048656174696E672E2E2E005490
:1007A00068696E6B6572205632204F46462E0043B4
:1007B00048414D4245525F54454D50455241545574
:1007C0005245004D4F54494F4E5F4D4F44455300E5
:1007D000544845524D414C5F50524F544543544943
:1007E0004F4E004155544F5245504F52545F534461
:1007F0005F5354415455530050524F4D50545F5322
:100800005550504F525400454D455247454E43595F
:100810005F50415253455200434153455F4C494755
:1008200048545F4252494748544E45535300544F31
:1008300047474C455F4C494748545300534F465433
:10084000574152455F504F574552004255494C441D
:100850005F50455243454E54004C4556454C494E19
:10086000475F44415441005A5F50524F4245004156
:1008700055544F4C4556454C005052494E545F4AD2
:100880004F420050524F4752455353004155544F29
:100890005245504F52545F54454D5000564F4C55A1
:1008A0004D45545249430042494E4152595F4649D1
:1008B0004C455F5452414E534645520053455249B0
:1008C000414C5F584F4E5F584F4646004649524D87
:1008D000574152455F4E414D453A4D61726C696ECC
:1008E00020322E302E7820284769744875622920DE
:1008F000534F555243455F434F44455F55524C3A21
:1009000068747470733A2F2F6769746875622E6308
:100910006F6D2F4D61726C696E4669726D77617291
:10092000652F4D61726C696E2050524F544F434F8A
:100930004C5F56455253494F4E3A312E30204D416F
:100940004348494E455F545950453A5468696E6B67
:1009500065722056322045585452554445525F43E3
:100960004F554E543A3120555549443A63656465B4
:10097000326132662D343161322D343734382D39BD
:100980006231322D6335356336326633363766660B
:100990000A002F2F20004D31343520533C696E64FE
:1009A00065783E206F7574206F662072616E676592
:1009B0002028302D31290A00416363656C6572611E
:1009C00074696F6E3A20500020466C6F773A2000B1
:1009D00050726F7465637465642050696E0A004DCF
:1009E000424C2041646A757374205A0020693A00B1
:1009F0006469730043290A0061626C656420286D94
:100A0000696E2074656D702000436F6C642065789A
:100A10007472756465732061726520004F66667339
:100A2000657473204170706C696564004572723A38
:100A300020546F6F206661722100546F6F206661D1
:100A4000722066726F6D207265666572656E636591
:100A500020706F696E740A00454550524F4D204F0B
:100A60004B0A00496E76616C69640A0056616C69D4
:100A7000640A004E6F20504C520A00504C522045E0
:100A800078697374730A00506F7765722D6C6F7399
:100A900073207265636F76657279200036063106C1
:100AA0002A06230615064572726F722077726974E2
:100AB000696E6720746F20454550524F4D210A00E2
:100AC000627573793A2070617573656420666F7220
:100AD00020696E7075740A00627573793A207061CE
:100AE0007573656420666F7220757365720A0062A3
:100AF0007573793A2070726F63657373696E670AF4
:100B00000053544F505045442E20005072696E746B
:100B100065722073746F70706564206475652074ED
:100B20006F206572726F72732E2046697820746828
:100B300065206572726F7220616E64207573652026
:100B40004D39393920746F20726573746172742E57
:100B5000202854656D7065726174757265206973C3
:100B60002072657365742E2053657420697420614A
:100B7000667465722072657374617274696E672938
:100B80000A004E6F20436865636B73756D2077694B
:100B90007468206C696E65206E756D6265722C20BC
:100BA0004C617374204C696E653A2000636865631C
:100BB0006B73756D206D69736D617463682C204C67
:100BC000617374204C696E653A20004C696E652033
:100BD0004E756D626572206973206E6F74204C6172
:100BE0007374204C696E65204E756D6265722B3191
:100BF0002C204C617374204C696E653A20004D3195
:100C00003130004D313137004D33310053442072C3
:100C1000656164206572726F720A00446F6E6520B0
:100C20007072696E74696E672066696C650A004B44
:100C3000494C4C20636175736564206279204B498F
:100C40004C4C20627574746F6E2F70696E0A004B85
:100C5000494C4C2063617573656420627920746F20
:100C60006F206D75636820696E61637469766520B5
:100C700074696D65202D2063757272656E742063D2
:100C80006F6D6D616E643A2000506C656173652014
:100C90005265736574005052494E54455220484184
:100CA0004C5445440025533A202553004B494C4CA5
:100CB00045442E20005072696E7465722068616C24
:100CC0007465642E206B696C6C28292063616C6CE0
:100CD0006564210A0025301D0C282924311C0B4590
:100CE00027232F1B0A4443212A193F40222B1A4154
:100CF000420338090636030802060001473236204F
:100D000048656174696E67204E6F7A7A6C6500473A
:100D100032362048656174696E6720426564005709
:100D2000616974696E6720666F72206865617475A9
:100D3000702E0A004669786564204C656E67746899
:100D4000205072696D6500446F6E65205072696D48
:100D5000696E67004D616E75616C207072696D69B6
:100D60006E672E2E2E004732362043616E63656C0F
:100D70006564004C656176696E6720473236003FD6
:100D800053706563696669656420582C5920636FE8
:100D90006F7264696E617465206F7574206F662070
:100DA000626F756E64732E0A003F28522965706564
:100DB00061742076616C7565206E6F7420706C6153
:100DC000757369626C653B206D7573742062652074
:100DD0006174206C6561737420312E0A003F53707A
:100DE00065636966696564206E6F7A7A6C652074E4
:100DF000656D7065726174757265206E6F742070B8
:100E00006C61757369626C652E0A003F537065638F
:100E100069666965642066696C616D656E742073CE
:100E2000697A65206E6F7420706C61757369626C8D
:100E3000652E0A003F5370656369666965642070BA
:100E400072696D65206C656E677468206E6F7420C2
:100E5000706C61757369626C652E0A003F53706532
:100E6000636966696564206E6F7A7A6C6520736960
:100E70007A65206E6F7420706C61757369626C6541
:100E80002E0A003F52657472616374696F6E204D63
:100E9000756C7469706C696572206D75737420620D
:100EA00065207370656369666965642E0A003F5347
:100EB0007065636966696564205265747261637404
:100EC000696F6E204D756C7469706C696572206E07
:100ED0006F7420706C61757369626C652E0A003FD7
:100EE000537065636966696564206C617965722019
:100EF000686569676874206E6F7420706C617573C3
:100F000069626C652E0A0043292E0A003F53706502
:100F1000636966696564206265642074656D7065E7
:100F2000726174757265206E6F7420706C61757378
:100F300069626C65202834302D0047323620737486
:100F4000617274696E672E2E2E0A006F6B005265F7
:100F500073656E643A20002569792025696420252F
:100F600069682025696D20256973002364656669B9
:100F70006E652044454641554C545F004B6420004B
:100F80004B6920004B702000504944204175746F1C
:100F900074756E652066696E69736865642120509A
:100FA000757420746865206C617374204B702C20FC
:100FB0004B6920616E64204B6420636F6E737461B3
:100FC0006E74732066726F6D2062656C6F77206936
:100FD0006E746F20436F6E66696775726174696FB6
:100FE0006E2E680A00504944204175746F74756E06
:100FF00065206661696C6564212074696D656F7533
:10100000740A000A20436C61737369632050494479
:10101000200A00204B643A2000204B693A2000202F
:101020004B703A20000A204E6F206F76657273680D
:101030006F6F740A002054753A2000204B753A20D7
:1010400000206D61783A2000206D696E3A20002002
:10105000643A200020626961733A200050494420BC
:101060004175746F74756E652073746172740A00D3
:10107000504944204175746F74756E6520666169CE
:101080006C6564212054656D70657261747572655C
:1010900020746F6F20686967680A005049442041D6
:1010A00075746F74756E65206661696C6564212066
:1010B000426164206578747275646572206E756D26
:1010C0006265720A004572723A207574663820664D
:1010D0006F6E74206E6F7420696E697469616C69DB
:1010E0007A65642E002568753A25303268750025CA
:1010F0006875642025303268753A2530326875008D
:10110000000C0D00FE07022603BC017FFE08FE084E
:10111000FE05080806000040F0C888889878100589
:101120000808060000C0F88888888888F805050542
:101130000600012030F83020050808060000207065
:10114000F820202020E00509090600FF2070A8A84B
:10115000B888887020050606060001E08CEA8C8AB3
:101160000A0509090600FFF8A88888888888A8F871
:10117000050A0A0600FE205050505088A8A8887022
:1011800003030306000340A040FFFFFFFFFFFFFF34
:10119000FFFFFFFFFFFFFFFFFFFFFFFFFFFFFF005E
:1011A00000000605FF01070706020080808080809E
:1011B0000080030303060105A0A0A00506060600A3
:1011C0000050F85050F8500509090600FF2070A89B
:1011D000A07028A87020050707060000C8C81020C6
:1011E00040989805070706000040A0A040A8906816
:1011F0000103030602058080800309090601FF2020
:1012000040408080804040200309090601FF804063
:101210004020202040408005070706000020A870DD
:101220002070A8200505050600012020F8202002D6
:1012300003030601FFC04080050101060003F80218
:101240000202060100C0C0050707060000081010D2
:1012500020404080050707060000708898A8C888CD
:101260007003070706010040C040404040E005070A
:1012700007060000708808102040F80507070600E0
:1012800000F80810300888700507070600001030C5
:101290005090F81010050707060000F880F00808C5
:1012A0008870050707060000304080F088887005C8
:1012B0000707060000F80810102020200507070681
:1012C0000000708888708888700507070600007025
:1012D000888878081060020505060100C0C000C0BB
:1012E000C00206060601FFC0C000C040800305051D
:1012F0000601012040804020050303060002F8009B
:10130000F803050506010180402040800507070617
:1013100000007088102020002005070706000070DC
:1013200088B8A8B88070050707060000708888F89C
:10133000888888050707060000F04848704848F08C
:101340000507070600007088808080887005070701
:10135000060000F04848484848F005070706000026
:10136000F88080F08080F8050707060000F880808C
:10137000F0808080050707060000708880809888CC
:1013800070050707060000888888F88888880307A2
:1013900007060100E04040404040E0050707060026
:1013A00000381010101090600507070600008890A4
:1013B000A0C0A0908805070706000080808080807C
:1013C00080F805070706000088D8A888888888055F
:1013D00007070600008888C8A898888805070706B8
:1013E000000070888888888870050707060000F06C
:1013F0008888F0808080050707060000708888884C
:10140000A89068050707060000F08888F0A090887B
:1014100005070706000070888070088870050707B8
:10142000060000F8202020202020050707060000E5
:10143000888888888888700507070600008888885B
:101440008850502005070706000088888888A8A8CB
:101450005005070706000088885020508888050737
:101460000706000088885020202020050707060076
:1014700000F80810204080F80309090601FFE08009
:10148000808080808080E005070706000080404063
:10149000201010080309090601FFE0202020202069
:1014A0002020E00503030600052050880501010601
:1014B00000FEF8030303060105804020050505062C
:1014C000000070087888780507070600008080F023
:1014D000888888F005050506000070808088700502
:1014E000070706000008087888888878050505063B
:1014F00000007088F0807005070706000030484043
:10150000E04040400507070600FE7088888878089C
:10151000700507070600008080F088888888030728
:10152000070601004000C0404040E00409090601F0
:10153000FE10003010101010906005070706000024
:1015400080808890E09088030707060100C0404033
:10155000404040E0050505060000D0A8A8A8A80561
:101560000505060000B0C888888805050506000046
:1015700070888888700507070600FEF0888888F064
:1015800080800507070600FE7888888878080805A7
:101590000505060000B0C88080800505050600002E
:1015A00078807008F00507070600002020F820204A
:1015B0002018050505060000888888986805050537
:1015C00006000088888850200505050600008888E8
:1015D000A8A850050505060000885020508805077A
:1015E000070600FE88888850204080050505060013
:1015F00000F8102040F80309090601FF2040404090
:1016000080404040200109090602FF8080808080E0
:10161000808080800309090601FF8040404020400F
:1016200040408005030306000248A890FF656368F8
:101630006F3A004572726F723A000A4D65617375B8
:1016400072656420706F696E74733A0A003578357C
:10165000206D6573682E205A206F66667365743A34
:101660002000486F74656E6420746F6F20636F6C28
:10167000640A004D3630303A20546F6F20436F6C4F
:101680006400507265737320627574746F6E207499
:101690006F20726573756D650A00507265737320F3
:1016A000627574746F6E20746F2068656174206E4B
:1016B0006F7A7A6C650A004C6F616400506F7765D1
:1016C000722D6C6F73732066696C6520636C6F7329
:1016D00065206661696C65642E0A00506F776572DB
:1016E0002D6C6F73732066696C6520777269746501
:1016F000206661696C65642E0A0057726974650022
:101700002D2D2D0A00494E56414C49442044415448
:10171000410A007072696E745F6A6F625F656C6126
:10172000707365643A20007364706F733A200073BD
:10173000645F66696C656E616D653A20000A2066BB
:101740006164653A20006C6576656C696E673A2065
:101750000066616E5F73706565643A200074617243
:101760006765745F74656D70657261747572655FCD
:101770006265643A20007461726765745F74656DB8
:1017800070657261747572653A2000666565647291
:101790006174653A2000706F736974696F6E5F736E
:1017A000686966743A2000686F6D655F6F6666737E
:1017B00065743A200063757272656E745F706F7342
:1017C0006974696F6E3A20002076616C69645F66A7
:1017D0006F6F743A00204A6F62205265636F7665BE
:1017E000727920496E666F2E2E2E0A76616C6964BE
:1017F0005F686561643A004C6F6164206D6D0055EF
:101800006E6C6F6164206D6D0046696C2E204469BA
:10181000612E004520696E206D6DC2B30020082046
:1018200046616374002008204D6178002008204D37
:10183000696E004175746F74656D70005654726105
:1018400076204D696E00566D696E00566D61782088
:101850004500566D6178205A00566D617820590018
:10186000566D61782058002062797465733B20635F
:101870007263200053657474696E67732053746FCC
:10188000726564202800454550524F4D20646174B4
:101890006173697A65206572726F722E0A00207317
:1018A000746F7265642073657474696E67732072F7
:1018B0006574726965766564202800202863616C10
:1018C00063756C6174656429210A0020213D200044
:1018D000454550524F4D20435243206D69736D6111
:1018E000746368202D202873746F7265642920004A
:1018F000496E6465783A2000204D61726C696E3DD6
:10190000563734290A00454550524F4D20766572AE
:1019100073696F6E206D69736D617463682028450B
:101920004550524F4D3D0020746F6F206C6F6E67B5
:1019300020657874727573696F6E20707265766554
:101940006E7465640A0020636F6C6420657874723D
:101950007573696F6E2070726576656E7465640A62
:1019600000687474703A2F2F6D61726C696E6677BF
:101970002E6F726700322E302E78004D31303030AD
:10198000205300205049445F64543A0020643A00D8
:101990002069693A0020703A002020506C616E6E18
:1019A000657242756666657242797465733A2000A5
:1019B0002046726565204D656D6F72793A2000434F
:1019C0006F6D70696C65643A204A756C2020342014
:1019D000323032300A00204C6173742055706461DB
:1019E0007465643A20323031392D31322D30312056
:1019F0007C20417574686F723A20286E6F6E652C7A
:101A00002064656661756C7420636F6E6669672912
:101A10000A00322E302E780A004D61726C696E0019
:101A200020536F6674776172652052657365740A1E
:101A300000205761746368646F6720526573657432
:101A40000A002042726F776E206F757420526573A2
:101A500065740A002045787465726E616C20526569
:101A60007365740A00506F77657255700A0061756E
:101A7000746F25632E6700473238585900657272BB
:101A80006F722077726974696E6720746F2066695F
:101A90006C650A00446F6E6520736176696E67201D
:101AA00066696C652E0A004D323900456E647374A8
:101AB0006F70730025532025632025632025632044
:101AC000256300205A3A0020593A00656E64737409
:101AD0006F7073206869743A200001FFFFFFFFFFF9
:101AE000FFFFFFFFFFFFFFFF0FFFFFFFFFFFFFFFF6
:101AF000FFFFFFFFFFFF1E000000000000000000CE
:101B00000007FFFF38000000000000000000000395
:101B1000FFFF700000000000000000000001FFFF58
:101B2000600000000000000000000000FFFF6000F7
:101B3000000000000000000000007FFFC000000067
:101B400000000000007800003FFFC00FC0FC000054
:101B50000000007818001FFFC03FE1FF00000000F8
:101B600000783C000FFFC07FF3FF8000000000788A
:101B70003C0007FFC0FFFFFFC000000000783C00F2
:101B800003FFC1F87F87E00000000078000001FF3C
:101B9000C1F03F03E00000000078000000FFC1E05A
:101BA0001E01E01F0003E0783C03F07FC1E01E014E
:101BB000E07FC00FF8783C07FC3FC1E01E01E1FF69
:101BC000E01FFC783C0FFE1FC1E01E01E3FFF03F69
:101BD000FE783C1FFE0FC1E01E01E3F3F83F3E78A4
:101BE0003C3F3F07C1E01E01E7E0FC7C1F783C3E24
:101BF0001F07C1E01E01E7C07C7C0F783C3C0F034F
:101C0000C1E01E01E7807C780F783C3C0F03C1E007
:101C10001E01E7803C7800783C3C0F03C1E01E01C8
:101C2000E7803C7800783C3C0F03C1E01E01E78070
:101C30003C7800783C3C0F03C1E01E01E7C03C78D3
:101C400000783C3C0F03C1E01E01E3E03C78007CDF
:101C50003C3C0F03C1E01E01E3FF3FF8007FBC3CAA
:101C60000F03C1E01E01E1FF3FF8003FBFFC0F037F
:101C7000C1E01E01E0FF3FF8001FBFFC0F03C1E001
:101C80001E01E07F3FF8000FBFFC0F036000000063
:101C900000000000000000000007600000000000DD
:101CA00000000000000000067000000000000000BE
:101CB00000000000000E38000000000000000000DE
:101CC0000000001C1E0000000000000000000000DA
:101CD00000780FFFFFFFFFFFFFFFFFFFFFFFFFF099
:101CE00001FFFFFFFFFFFFFFFFFFFFFFFF804D34FE
:101CF000323120696E636F72726563742070617235
:101D0000616D657465722075736167650A0057417E
:101D1000524E494E4721204C6F77205A204A657217
:101D20006B206D6179206C65616420746F20756E25
:101D300077616E746564207061757365732E0A0037
:101D4000204D393220580020204D61783A20002063
:101D5000204D696E3A2000536F667420656E64737F
:101D6000746F70733A20004D32342053256C642018
:101D700054256C64004739322E39204525730047BD
:101D80003120462564004739322E39205A25730008
:101D90004731205A30204632303000473120582514
:101DA0007320592573204633303030004D343230A3
:101DB00020532569205A2573004D31303620502597
:101DC0006920532569004D31303920532569004D74
:101DD00031393020532569004D323030204425738D
:101DE000004739322E392045305A300A47315A32AD
:101DF0000A47323852305859004D3432302053306F
:101E0000205A300020506F7765722D4C6F7373200D
:101E10005265636F7665727920446174610A004986
:101E20006E76616C6964004E6F0020496E76616C5D
:101E30006964206578747275646572200020536946
:101E40007A653A200043616E6E6F74206F70656E24
:101E50002073756264697220005344206361726468
:101E6000206F6B0A006F70656E526F6F7420666131
:101E7000696C65640A00766F6C756D652E696E69B4
:101E800074206661696C65640A00534420696E6958
:101E900074206661696C0A004D3233202573005747
:101EA000726974696E6720746F2066696C653A2088
:101EB0000046696C652073656C65637465640A002F
:101EC00046696C65206F70656E65643A20006672C5
:101ED00065736800646F696E67004E6F7720004518
:101EE0004E4420535542524F5554494E450A002204
:101EF00020706F73002220706172656E743A220048
:101F0000535542524F5554494E452043414C4C2065
:101F10007461726765743A2200747279696E672021
:101F2000746F2063616C6C207375622D67636F64DE
:101F3000652066696C6573207769746820746F6FBB
:101F4000206D616E79206C6576656C732E204D4135
:101F500058206C6576656C2069733A310A004465D7
:101F60006C6574696F6E206661696C65642C2046CF
:101F7000696C653A200046696C652064656C65741F
:101F800065643A00506F7765722D6C6F73732066CD
:101F9000696C652064656C65746500453100626537
:101FA00064002C2073797374656D2073746F707086
:101FB000656421204865617465725F49443A200078
:101FC00048656174696E67204661696C65640048A4
:101FD000656174696E67206661696C656400202DB7
:101FE00020496E76616C69642065787472756465E9
:101FF00072206E756D62657220210A005448455248
:102000004D414C2052554E4157415900546865721C
:102010006D616C2052756E61776179004572723A1C
:10202000204D415854454D50004D415854454D5058
:1020300020747269676765726564004572723A2040
:102040004D494E54454D50004D494E54454D50203C
:10205000747269676765726564004D383420582072
:1020600059205A204500202F002042403A002040AD
:102070003A000040012C0173012201AB011801F369
:10208000010E0148020401AC02FA002A03F000C369
:1020900003E6008004DC006D05D2006C06C800C7B2
:1020A00007BE007009B4006D0BAA00CB0DA000CFD5
:1020B000138C00F21B7800E9246400142E50009C5D
:1020C000353C00B83A2800A03D14000B3F0000202A
:1020D00020202020202000256C6425636D001FE057
:1020E0002010201020101020102020102010303040
:1020F0000840048003001FE03FF03FF03FF01FE086
:102100001FE03FF03FF03FF00FC0078003003FFFAC
:10211000F038007030FC3020FC1020781020301097
:102120002C00D02E31D02F7BD02F7BD02E31D02C35
:1021300000D020301020781020FC1030FC30380007
:10214000703FFFF03FFFF03800703186302387107A
:102150002787902F87D02F03D02030102078102091
:1021600078102030102F03D02F87D0278790238717
:10217000103186303800703FFFF01FFFF81FFFF866
:10218000041040020820020820041040082080109B
:1021900041001041000820800410400000001FFF93
:1021A000F81FFFF84F7574616765205265636F769D
:1021B00065727900436F6E66696775726174696FE5
:1021C0006E003F0043616E63656C004D313030300E
:1021D0000053746F70205072696E7400526573758D
:1021E0006D65205072696E740053746F70004D32CB
:1021F00031004368616E6765204D65646961004E1A
:102200006F204D656469610054756E6500496E66A6
:102210006F2053637265656E005374617274205051
:1022200072696E740043616E6E6F7420656E7465C2
:1022300072207375626469723A2000022E2E00507B
:1022400061726B696E672E2E2E00000057616974F3
:1022500020666F720066696C616D656E74206368DC
:10226000616E676500746F207374617274005761EA
:10227000697420666F720066696C616D656E7420AA
:10228000756E6C6F616400004E6F7A7A6C652068C1
:10229000656174696E6700506C6561736520776174
:1022A00069742E2E2E00005072657373206275744F
:1022B000746F6E00746F2068656174206E6F7A7A37
:1022C0006C650000496E736572742066696C616D9F
:1022D000656E7400616E6420707265737320627540
:1022E00074746F6E00746F20636F6E74696E7565C1
:1022F000005761697420666F720066696C616D6574
:102300006E74206C6F6164000050726573732042BC
:102310007574746F6E00746F20726573756D6520CF
:102320007072696E7400005761697420666F722064
:102330007072696E7400746F20726573756D652EAE
:102340002E2E00005761697420666F720066696CFA
:10235000616D656E7420707572676500004265641A
:10236000205A004D61696E00436F6F6C646F776E29
:102370000046616E205370656564203D00426162D5
:102380007973746570205A00466C6F7700496E69E6
:1023900074004D34323800496E697469616C697A31
:1023A0006520454550524F4D0053746570732F6D35
:1023B0006D00416363656C65726174696F6E005690
:1023C000656C6F636974790053657420486F6D653F
:1023D000204F666673657473004C6576656C696E34
:1023E0006720446F6E6521004E65787420506F69D8
:1023F0006E74002569202F2025750047323920533F
:102400003100436C69636B20746F20426567696EAD
:1024100000486F6D696E672058595A0046616465BF
:1024200020486569676874004C6576656C20426574
:10243000640046616E2053706565640024F4D430F6
:1024400050C38E20C2A24017828B7011127A910D58
:10245000816CD90AA861E108C75866076151430633
:102460001E4B5D05C145A7041A411104093D98039F
:10247000713931034036DB0265339102D4305402A6
:10248000802E1D02632CEE01752AC501B028A00123
:10249000102781018F2564012B244B01E022340198
:1024A000AC211F018D200D01801FFC00841EED005A
:1024B000971DDF00B81CD200E61BC600201BBC0025
:1024C000641AB200B219A8000A19A0006A1899008B
:1024D000D117910040178B00B516840031167E008D
:1024E000B31579003A157300C7146F0058146A00C9
:1024F000EE1366008813630025135E00C7125B00AD
:102500006C12570015125400C111510070114F0088
:1025100021114B00D61049008D1047004610440091
:1025200002104200C00F4000800F3E00420F3C00EE
:10253000060F3B00CB0E3800930E37005C0E3500C3
:10254000270E3400F30D3200C10D3100900D300024
:10255000600D2E00320D2D00050D2C00D90C2B0026
:10256000AE0C2900850C29005C0C2700350C2700D7
:102570000E0C2600E80B2400C40B2400A00B230043
:102580007D0B23005A0B2100390B2100180B200072
:10259000F80A1F00D90A1E00BB0A1E009D0A1D0072
:1025A000800A1D00630A1C00470A1B002C0A1B003E
:1025B000110A1A00F7091A00DD091900C4091900E7
:1025C000AB091900920917007B091800630917006D
:1025D0004C09160036091600200916000A091500D4
:1025E000F5081500E0081400CC081400B808140021
:1025F000A4081400900813007D0812006B08130053
:10260000580812004608120034081100230811006F
:102610001208110001081100F0071000E007100077
:10262000D0071000C0071000B0070F00A10710006E
:1026300091070E0083070F0074070F0065070E0057
:1026400057070E0049070E003B070D002E070E002E
:1026500020070D0013070D0006070D00F9060C00FA
:10266000ED060D00E0060C00D4060C00C8060C00B8
:10267000BC060C00B0060C00A4060B0099060C006A
:102680008D060B0082060B0077060B006C060B0014
:1026900061060A0057060B004C060A0042060A00B3
:1026A00038060A002E060A0024060A001A060A0046
:1026B0001006090007060A00FD050900F4050900D7
:1026C000EB050900E2050900D9050900D00509005C
:1026D000C7050900BE050900B5050800AD050800DD
:1026E000A50509009C050800940508008C05080054
:1026F000840508007C050800740508006C050700C7
:10270000650508005D050700560508004E05070031
:102710004705070040050800380507003105070098
:102720002A050700230507001C05060016050700FB
:102730000F0507000805060002050700FB04060058
:10274000F5040700EE040600E8040600E2040700B2
:10275000DB040600D5040600CF040600C904060009
:10276000C3040600BD040600B7040600B10405005A
:10277000AC040600A6040600A00405009B040600A5
:1027800095040500900406008A04050085040500F0
:10279000800406007A040500750405007004050035
:1027A0006B04050066040500610405005C04050077
:1027B00057040500520405004D04050048040500B7
:1027C000430405003E0404003A04050035040500F6
:1027D000300404002C040500270404002304050031
:1027E0001E0404001A040400160405001104040069
:1027F0000D0404000904050004040400000404009E
:10280000FC030400F8030400F4030400F0030400D4
:10281000EC030400E8030400E4030400E003040004
:10282000DC030400D8030400D4030400D003040034
:10283000CC030400C8030300C503030024F404D937
:10284000201BC40C5C0E9804C4095F02650771016B
:10285000F405F900FB04B30048048700C1036900D4
:102860005803550003034500BE023A0084023100BC
:1028700053022A002902250004022000E4011C0062
:10288000C8011900AF01170098011400840113005A
:10289000710110006101100051010E0043010D0093
:1028A00036010B002B010B0020010B001501090064
:1028B0000C01090003010800FB000800F3000800F8
:1028C000EB000700E4000600DE000600D80006006A
:1028D000D2000600CC000500C7000500C2000500BC
:1028E000BD000400B9000400B5000400B1000400FC
:1028F000AD000400A9000400A5000300A20003002D
:102900009F0004009B000300980003009500020054
:1029100093000300900003008D0002008B00030071
:10292000880002008600020084000300810002008B
:102930007F0002007D0002007B000200790002009F
:1029400077000100760002007400020072000100AE
:10295000710002006F0002006D0001006C000200B7
:102960006A000100690002006700010066000100C2
:1029700065000100640002006200010061000100C6
:10298000600001005F0002005D0001005C000100CA
:102990005B0001005A0001005900010058000100CD
:1029A00057000100560001005500010054000100CD
:1029B00053000000530001005200010051000100CB
:1029C000500001004F0001004E0000004E000100C9
:1029D0004D0001004C0001004B0000004B000100C5
:1029E0004A000100490001004800000048000100C1
:1029F00047000100460000004600010045000000BD
:102A000045000100440001004300000043000100B4
:102A100042000000420001004100000041000100AE
:102A2000400001003F0000003F0001003E000000A8
:102A30003E0001003D0000003D0001003C000000A0
:102A40003C0000003C0001003B0000003B00010096
:102A50003A0000003A00010039000000390001008E
:102A60003800000038000000380001003700000086
:102A7000370001003600000036000000360001007B
:102A80003500000035000000350001003400000072
:102A90003400000034000100330000003300000067
:102AA000330001003200000032000000320001005B
:102AB0003100000031000000310001003000000052
:102AC00030000000300001002F0000002F00000047
:102AD0002F0000002F0001002E0000002E0000003B
:102AE0002E0001002D0000002D0000002D00000030
:102AF0002D0001002C0000002C0000002C00000024
:102B00002C0001002B0000002B0000002B00000017
:102B10002B0001002A0000002A0000002A0000000B
:102B20002A000100290000002900000029000000FF
:102B300029000000290001002800000028000000F2
:102B400028000000280000002800010027000000E5
:102B500027000000270000002700000027000100D8
:102B600026000000260000002600000026000000CD
:102B700026000100250000002500000025000000BF
:102B800025000000250000002500010024000000B1
:102B900024000000240000002400000024000100A4
:102BA0002300000023000000230000002300000099
:102BB0002300000023000000230001002200000089
:102BC000220000002200000022000000220000007D
:102BD000220001002100000021000000210000006F
:102BE0002100000021000000210000002100010060
:102BF0002000000020000000200000002000000055
:102C00002000000020000000200000002000010043
:102C10001F0000001F0000001F0000001F00000038
:102C20001F0000001F0000001F0001001E00000028
:102C30001E0000001E0000001E00000004370000FF
:102C40001E290000511B0000581000001009000050
:102C5000CC04000078020000410100004D6963725D
:102C60006F737465707320756E617661696C6162F3
:102C70006C650A0045313A200045303A20005A3A46
:102C80002000593A20004D53312C4D53322C4D53D6
:102C9000332050696E730A583A20005072696E747E
:102CA00020506175736564005061757365205072C2
:102CB000696E74004D656469612052656D6F76655B
:102CC00064004D6564696120496E73657274656462
:102CD000005468696E6B65722056322052656164DB
:102CE000792E005072696E74696E672E2E2E005018
:102CF00072696E742041626F72746564004D323582
:102D000020500A4D323400416D6178204500416DFC
:102D10006178205A00416D6178205900416D6178D9
:102D2000205800412D54726176656C00412D52652A
:102D3000747261637400416363656C0056652D4A6B
:102D400065726B00565A2D4A65726B0056592D4AB2
:102D500065726B0056582D4A65726B004573746539
:102D600070732F6D6D005A73746570732F6D6D00E5
:102D70005973746570732F6D6D005873746570733B
:102D80002F6D6D005072696E742066726F6D204DEC
:102D900065646961004368616E67652046696C61BE
:102DA0006D656E7400556E6C6F61642046696C6170
:102DB0006D656E74004C6F61642046696C616D6571
:102DC0006E74005072656865617420414253005012
:102DD00072656865617420504C4100507265686589
:102DE000617420437573746F6D004261636B0048BA
:102DF0006F6D652025732573257320466972737482
:102E000000496E736572742066696C616D656E74DD
:102E100020616E6420707265737320627574746FC4
:102E20006E0A00220A00556E6B6E6F776E20636F1C
:102E30006D6D616E643A202200496E76616C696442
:102E40002065787472756465720A0020573A007CB8
:102E50003C3E5E2B3D3F2F5B5D3B2C2A225C0000FD
:102E60000000000000000000000000000096430089
:102E70000096430000C8430000484200004842005A
:102E80000080400202040000A0400000A0400000BA
:102E90000040FFFFFF5761726E696E673A20486F0E
:102EA0006D696E672042756D702044697669736F35
:102EB00072203C20310A006F70656E206661696C7B
:102EC00065642C2046696C653A20004D6F74696F0B
:102ED0006E00426564204C6576656C696E670054CF
:102EE000656D7065726174757265004D38340044AB
:102EF000697361626C6520537465707065727300EC
:102F0000473238205A00486F6D65205A00473238E2
:102F1000205900486F6D652059004732382058000D
:102F2000486F6D65205800473238004175746F2036
:102F3000486F6D65005072656865617420504C4142
:102F400020456E64005072656865617420504C4184
:102F50002042656400507265686561742041425387
:102F600020456E640050726568656174204142536B
:102F700020426564004C6F61642053657474696E0F
:102F800067730053746F72652053657474696E675C
:102F900073004F6666004F6E00416476616E636534
:102FA000642053657474696E677300554E4C4F41CD
:102FB000442046494C414D454E540046494C414DF4
:102FC000454E54204348414E474500526573746F47
:102FD0007265206661696C73616665005072656830
:102FE0006561742041425320436F6E6600507265E4
:102FF0006865617420504C4120436F6E66004D3708
:10300000303220542564004D363030204230205478
:103010002564004D373032203B2564004D37303178
:1030200020542564004D373032004D373031004D8B
:10303000363030204230005075726765206D6F72F7
:103040006500436F6E74696E756500524553554D4A
:1030500045204F5054494F4E533A005052494E5418
:10306000205041555345440020204E6F7A7A6C65BC
:103070003A20006F70656E005452494747455245EB
:1030800044007A5F6D696E00795F6D696E00785FEC
:103090006D696E005265706F7274696E6720656E3F
:1030A0006473746F70207374617475730A002043C5
:1030B0006F756E7420583A0020453A00486F6D696C
:1030C0006E67204661696C6564004D6F7665205AB5
:1030D000004D6F76652025736D6D004D6F76652010
:1030E000302E316D6D004D6F766520316D6D004D68
:1030F0006F76652031306D6D004D6F7665204178BB
:10310000697300486F74656E6420746F6F20636F1D
:103110006C64004578747275646572004D6F7665F5
:103120002059004D6F7665205800000021002400D2
:1031300027002A002D0030003300010100000401A7
:1031400007010A0100002200250028002B002E00A4
:103150003100340002010000050108010B010000EC
:1031600020002300260029002C002F00320000013F
:10317000000003010601090105050505070508080A
:103180000808020202020A0A0808040404040101F1
:103190000101010101010303030303030303040706
:1031A00007070C0C0C0C0C0C0C0C0202020206069D
:1031B0000606060606060B0B0B0B0B0B0B0B070785
:1031C0000A0A0A0A0A0A0505050404040808010295
:1031D0001020200808102040102040800201020129
:1031E00008040201010204081020408080402010E1
:1031F000080402018004020180402010080402013A
:1032000008040201010204081020408001020408A1
:1032100010204080100804088010204004408010D6
:103220002040048000000A0B02090C0D0E08070361
:103230000401000000000000000000000000000089
:10324000000000000000000000000000000000007E
:10325000121110000000000000000000000000003B
:10326000000000000000000000000000000000005E
:10327000000000000000000000004361703A00659B
:103280006E7175657565696E672022002054002097
:10329000520048617264636F6465642044656661CE
:1032A000756C742053657474696E6773204C6F611C
:1032B0006465640A0020204D36303320002055001C
:1032C00046696C616D656E74206C6F61642F756EFC
:1032D0006C6F6164206C656E677468733A0A0020D5
:1032E000204D343133205300506F7765722D4C6F71
:1032F0007373205265636F766572793A0A002020F5
:103300004D33303420500020490020204D333031DF
:103310002050005049442073657474696E67733A95
:103320000A0020460020480020204D31343520532B
:10333000004D6174657269616C20686561747570B7
:1033400020706172616D65746572733A0A002020A5
:1033500047323920533320580020204D343230205A
:1033600053004D65736820426564204C6576656C3A
:10337000696E673A0A0020204D32303620580048E6
:103380006F6D65206F66667365743A0A0020204D84
:1033900032303520420020453C6D61785F655F6AC0
:1033A00065726B3E0020583C6D61785F785F6A659E
:1033B000726B3E20593C6D61785F795F6A65726B14
:1033C0003E205A3C6D61785F7A5F6A65726B3E00A1
:1033D000416476616E6365643A20423C6D696E5F5C
:1033E0007365676D656E745F74696D655F75733E57
:1033F00020533C6D696E5F66656564726174653EFD
:1034000020543C6D696E5F74726176656C5F6665B1
:103410006564726174653E0020204D323034205066
:1034200000416363656C65726174696F6E20287515
:103430006E6974732F7332293A20503C7072696E32
:10344000745F616363656C3E20523C7265747261A7
:1034500063745F616363656C3E20543C7472617693
:10346000656C5F616363656C3E0A0020204D3230FD
:10347000312058004D6178696D756D204163636539
:103480006C65726174696F6E2028756E6974732F34
:103490007332293A0A0020204D3230332058004D33
:1034A0006178696D756D20666565647261746573B8
:1034B0002028756E6974732F73293A0A0053746556
:1034C00070732070657220756E69743A0A0020204E
:1034D0004D3230302044300A0020204D3230302030
:1034E00044002044697361626C65640A0046696C3B
:1034F000616D656E742073657474696E67733A00EC
:1035000020204D3134392043203B20556E6974739F
:1035100020696E2043656C736975730A0020286DFD
:103520006D29002020473231202020203B20556E7D
:1035300069747320696E206D6D0000009643000071
:10354000964300000C420000C8410000A042000069
:10355000A0420000C8430000BA42DC050000DC05C0
:10356000000096000000DC0500004F46460A0046B9
:103570006164652048656967687420004661696C0C
:10358000656420746F20656E61626C6520426564BD
:10359000204C6576656C696E670A004D657368201E
:1035A000426564204C6576656C20646174613A0AFA
:1035B00000496E76616C6964206D6573682E0A003F
:1035C000206E6F7420656E74657265642E0A00202B
:1035D0006F6620004D424C2047323920706F696E73
:1035E0007420004A206F7574206F662072616E67C8
:1035F000652028302D0049206F7574206F66207279
:10360000616E67652028302D004D657368207072EB
:103610006F62696E6720646F6E652E0A0053746175
:103620007274206D6573682070726F62696E6720B6
:103630007769746820224732392053312220666925
:103640007273742E0A004732380A473239205332D7
:1036500000686173206E6F20646174612E0A004DF2
:1036600065736820426564204C6576656C696E6799
:10367000200053206F7574206F662072616E67653D
:103680002028302D35292E0A0000AA0160011124BE
:103690001FBECFEFD1E2DEBFCDBF00E00CBF13E015
:1036A000A0E0B2E0E6E0FCE602E00BBF02C007905B
:1036B0000D92A034B107D9F726E1A0E4B3E001C030
:1036C0001D92A436B207E1F71BE1C6E4DBE100E09E
:1036D00006C021970109802FFE010F944B32C5349B
:1036E000D10780E00807A9F70F94251B0D94F13549
:1036F0000C9400002F923F924F925F926F927F92B4
:103700008F929F92AF92BF92CF92DF92EF92FF92F1
:103710000F931F93CF93DF93CDB7DEB7E1970FB62B
:10372000F894DEBF0FBECDBF89AB2091750F28ABDB
:1037300011E01093750F80914B168D3409F48CC2F3
:10374000843511F40C942C2D873411F00C94332D06
:103750008091491690914A168A31910509F415C154
:1037600094F48430910534F482309105D4F597FFB8
:103770002CC06EC28430910509F4C8C0459711F47D
:103780000C94352D65C28A32910509F4E2C16CF4BE
:103790008C31910509F417C10CF4FBC04D9709F069
:1037A00057C20F9444170C94352D8B35910509F4AD
:1037B0001AC18C35910509F41BC18A35910509F0B0
:1037C00047C2109249030C94352D80911A02882328
:1037D00011F40C94352D0E94527F0E940FFC0C9422
:1037E000352D20911A02222311F40C94352D11E06D
:1037F000029709F010E00E94527F19821A821B8200
:103800001C821D821E821F82188682E50E945C54E3
:10381000882309F44BC00E94DC536B017C0120E03B
:1038200030E0A9010F94502B882309F455C08091F2
:10383000BA049091BB04A091BC04B091BD048CA3C8
:103840009DA3AEA3BFA38091BE049091BF04A0919D
:10385000C004B091C10488A799A7AAA7BBA780906C
:10386000620F9090630FA090640FB090650F40902E
:10387000660F5090670F6090680F7090690FA501F8
:1038800094016CA17DA18EA19FA10F94502B811159
:103890000C94562DA301920168A579A58AA59BA534
:1038A0000F94502B8823C1F00C94562D89E40E946C
:1038B0005C54882331F00E94DC5369837A838B83C4
:1038C0009C838AE40E945C54882331F00E94DC537C
:1038D0006D837E838F83988720E030E0A901698122
:1038E0007A818B819C810F94502B81110C940A2E2C
:1038F00020E030E0A9016D817E818F8198850F9451
:10390000502B81110C940A2E0C941D2E80E50E94E0
:103910005C54882329F00E94C9866B017C0103C096
:10392000C12CD12C760183E50E945C54882361F080
:103930000E94DC5320E030E04AE754E40F94B62BB9
:103940000F94C7336B017C010E9404E88091690EDB
:10395000811105C060E081E596E00E948CC40F945F
:103960009503C60ED71EE81EF91E0F949503DC01C1
:10397000CB018C199D09AE09BF09B7FD02C00C949B
:10398000352D80E00E94D433F0CF0E94C23C0C94CD
:10399000352D0E948AD681110C94352D8CE0EEE6EF
:1039A000F2E0DE01119601900D928A95E1F760E058
:1039B00070E080E50E948C85BE016F5F7F4F0E94A2
:1039C00062C30C94352D8091720F8770873011F08F
:1039D0000C94242E60E08FE40E949A3C81110C9498
:1039E000352D0C94242E8FE0809349030C94352DB3
:1039F00080914816882349F1893009F0A6C03AE73A
:103A0000A32E32E0B32E4AEBE42E44E0F42ED12C68
:103A100000E010E0D5018D915D010E945C54882387
:103A200069F00E94DC53F701608371838283938382
:103A3000133011F401E002C0DD24D3941F5FF4E0E1
:103A4000EF0EF11C143031F775C08AE7282E82E0A2
:103A5000382E91EAE92E9FE0F92E2AEB34E03DA3BF
:103A60002CA325E9C22E2FE0D22E00E010E0D101D8
:103A70008D911D010E945C54882309F44BC00E9463
:103A8000DC532B013C01133049F0F60120813181D8
:103A9000428153810F9453322B013C01ACA1BDA153
:103AA0002D913D914D915C91C301B2010F94533220
:103AB0004B015C012DEB37E346E855EB0F94B43432
:103AC00087FD0AC02DEB37E346E855E3C501B40195
:103AD0000F94502B1816F4F4133051F44092C6048E
:103AE0005092C7046092C8047092C90401E012C0E9
:103AF000A5019401F70160817181828193810F9406
:103B00005432D7016D937D938D939C931397812F9E
:103B10000E9438EC1F5FB4E0EB0EF11CECA1FDA19C
:103B20003496FDA3ECA3F4E0CF0ED11C143009F0C1
:103B30009ECF05C0DD2019F00F946B0006C0002356
:103B400021F086EC94E00E9415E80F946D000C942F
:103B5000352D80911A02882311F40C94352D89E4B7
:103B60000E945C54F82E882321F00E94AF3C182F4D
:103B700001C010E08AE40E945C54082F882319F0E9
:103B80000E94AF3C01C080E0FF2011F0153020F40E
:103B9000002341F0853030F08AE596E00E94C03184
:103BA0000C94352D90E1EAEBF4E0A2E6BFE0019041
:103BB0000D929A95E1F7FF2091F024E01202F001B6
:103BC0001124E05EFC4E40815181628173814093FB
:103BD000620F5093630F6093640F7093650F00231F
:103BE00091F034E08302F0011124E45FFC4E808107
:103BF0009181A281B3818093660F9093670FA09308
:103C0000680FB093690F40E050E0BA0186E40E946B
:103C10006A4C6B017C0120E030E0A9010F94B434C0
:103C200018164CF420E030E040E752E4C701B6013A
:103C30000F944E3303C060E070E0CB0169837A8358
:103C40008B839C83CE0101960E94EAFE0C94352D55
:103C50000E948FD50C94352D8091491690914A166B
:103C60008937910511F40C9489260CF0F9C08E3433
:103C7000910509F460C40CF067C08A31910509F41C
:103C800053C39CF58431910509F4ACC27CF48131B5
:103C9000910509F493C22CF4029708F413C20C9412
:103CA000292D429709F491C60C94292D873191054D
:103CB00009F4BDC28CF48531910509F4B4C246976C
:103CC00011F00C94292D0E94308B80913F13877F37
:103CD00080933F130C94352D8831910509F4BDC2B2
:103CE000499709F416C30C94292D8F31910509F4D5
:103CF000D7C37CF48C31910509F477C30CF422C34B
:103D00008D31910509F47BC34E9709F47FC30C9460
:103D1000292D8B34910509F406C44CF480329105A9
:103D200009F484C38A9709F4DBC30C94292D8C34DD
:103D3000910509F4FCC38D34910511F00C94292DE3
:103D40000E94CCE60C94352D8C36910509F4A2C561
:103D50000CF047C08535910509F464C64CF58235F1
:103D6000910509F422C6D4F48135910511F00C9423
:103D7000292D0E94F3900E94CCE60E9480E90E94C7
:103D8000453168EE73E080E090E00E94FC5660E010
:103D90008FE997E00E948CC40C94352D83359105F2
:103DA00009F40BC68435910509F40FC60C94292D2E
:103DB0008936910509F4D3C454F48C35910509F47E
:103DC0004CC68836910509F448C40C94292D8A36CE
:103DD000910509F4D7C48B36910509F4F6C40C9407
:103DE000292D8237910509F4D9C6CCF48F36910577
:103DF00009F40CC554F48D36910509F452C48E367D
:103E0000910509F4F0C40C94292D8037910509F42B
:103E100047C58137910509F450C50C94292D863783
:103E2000910509F439C754F48337910509F4BBC6E9
:103E30008537910509F420C70C94292D8737910502
:103E400009F464C78837910511F00C94292D81E09D
:103E50008093960A8093950A0F94A1010C94352DB6
:103E60008E35A1E09A0711F40C94292C0CF084C033
:103E70008E3C910511F40C94AE27DCF58E3B910538
:103E800009F456C5C4F48C38910509F43BC54CF4CB
:103E90008D37910511F00C94292D0E94BF840C944C
:103EA000352D8139910509F43BC78B39910509F40A
:103EB00054C50C94292D8B3C910511F40C945B276F
:103EC00054F4883C910509F486C7893C910509F4AE
:103ED000CFC70C94292D8C3C910511F40C947A27B2
:103EE0008D3C910511F00C94292D0E94D9860C94DB
:103EF000352D8232E1E09E0711F40C948028DCF429
:103F00008C3D910511F40C94D1274CF4833D91051F
:103F100011F00C94292D0E949F850C94352D8D3D18
:103F2000910511F40C94DE27823E910511F40C9456
:103F300034280C94292D8E3221E0920711F40C9430
:103F4000E9296CF48C32A1E09A0711F40C94E22870
:103F50008D32914011F40C94F7280C94292D8F3256
:103F6000E1E09E0711F40C942D2A8033914011F466
:103F70000C9476290C94292D873F21E0920711F4A7
:103F80000C949C2A0CF044C0843AA1E09A0711F4E6
:103F90000C94332AD4F48039E1E09E0711F40C9498
:103FA000302A3CF48F35914011F40C945E2C0C9423
:103FB000292D8A3931E0930709F47BC48D3991406A
:103FC00011F40C94DB2C0C94292D843FB1E09B0759
:103FD00011F40C94962A6CF4853AF1E09F0711F4E1
:103FE0000C94362A8C3A914011F40C94392A0C9492
:103FF000292D853F31E0930711F40C94992A863FCF
:10400000914011F00C94292D0F94A8120C94352D89
:104010008E3BB2E09B0711F40C94392B1CF58835CC
:10402000F2E09F0711F40C94BD2A6CF4883F31E054
:10403000930711F40C94A42A8C30924011F40C9440
:10404000B52A0C94292D8B35B2E09B0711F40C9402
:10405000C02A8D3B924011F00C94292D0E94888239
:104060000C94352D803AF3E09F0709F409C2DCF483
:104070008B3833E0930711F40C94F82B8C38934071
:1040800011F00C94292D60E070E083E50E94B33CB0
:104090008C0160E070E080E50E94B33CB8010E94B2
:1040A00075B60C94352D873EB3E09B0711F40C9444
:1040B000CD2C883E934011F00C94292D0E949580C0
:1040C0000C94352DA0904616B090471680E50E94BE
:1040D0005C54882359F00E94C9866B017C0111E071
:1040E000672B682B692B31F410E004C010E0C12C61
:1040F000D12C760183E50E945C54882311F40C9442
:10410000F12E0E94DC5320E030E04AE754E40F94A3
:10411000B62B0F94C7336B017C0111110BC0672BB9
:10412000682B692B39F4A114B10421F0D5018C91CD
:10413000811102C010E001C011E00E9404E81123C7
:1041400029F061E0C5010E9413C505C060E089E760
:1041500096E00E948CC41091750F83E08093750FD8
:1041600081E08093740FC114D104E104F104B1F033
:104170000F949503C60ED71EE81EF91E0F949503E3
:10418000DC01CB018C199D09AE09BF09B7FF0EC038
:104190008091740F81110C94F62E08C08091740FD9
:1041A000882321F080E00E94D433F8CF0E9438C5E4
:1041B0001092740F1093750F0C94352D8091421648
:1041C00084FF02C00C94FB2E8091441687FF02C02E
:1041D0000C94FB2E80914516837011F00C94FB2EED
:1041E0000C94142F84EA96E00E94C0318CE593E190
:1041F0000E94A3DC8BE1ECE5F3E1DE011196019076
:104200000D928A95E1F760E070E0CE0101960E9480
:10421000D08ECE0101960E947C5485E996E00E94E2
:10422000C0310C94352D0E94A18B0C94352DE0915A
:104230004616F09147168081882329F0803209F4D0
:1042400010823196F8CF40E061E08091461690915F
:1042500047160E94AF8D0C94352D83E50E945C5467
:10426000882321F00E94CC530E940E5384E50E94C3
:104270005C548823A9F00E94CC536B017C010E94FE
:104280007B6FC0922F10D0923010E0923110F092DC
:104290003210CD28CE28CF2819F081E08093371036
:1042A0008091310C8823E9F080E090E0A8ECB2E442
:1042B00088A399A3AAA3BBA31C8E1D8E1E8E1F8E3E
:1042C00019821A821B821C8220E0AE01405E5F4F81
:1042D000BE01645E7F4FCE0101960E94B0590C94DE
:1042E000352D0E944A31882381F00E94418B0E9423
:1042F0006E318BED9CE00E94E68A10924C16109273
:104300004D1610924E1610924F160E9438C50C94FE
:10431000352D80913F1382FF03C08B7F80933F1325
:104320000E94BF840C94352D80913F1383FD02C001
:104330000C94352D83E50E945C5481110C941F2F41
:104340000C94352D83E40E941354882319F18FEBCC
:1043500096E00E94C0318091A314882391F0BE01A1
:104360006F5F7F4F80EA94E10E946ADB8E010F5FEE
:104370001F4FF80181918F01882339F00E94B931D4
:10438000F8CF85EB96E00E94C0318AE00E94B931F7
:104390000C94352D80913F1382FF21C08EEC96E066
:1043A0000E94C03160913B1370913C1380913D138A
:1043B00090913E134AE00E94AF328FE20E94B931E1
:1043C00060913713709138138091391390913A139B
:1043D0004AE00E94AF320E94AD330C94352D80EE3E
:1043E00096E00E94C0310C94352D40E060E0809151
:1043F0004616909147160E94AF8D0C94352D8091F2
:104400003F138E7F80933F130C94352D80913F1383
:1044100083FD02C00C94352D0E94787E8091461653
:10442000909147160E94E18C0C94352D80913F139A
:1044300082FD0E9404E880913F1383FD02C00C942A
:10444000352D60E080E50E949A3C182F482F61E0EE
:1044500080914616909147160E94AF8D83E50E9489
:104460005C54882321F00E94CC530E940E530E947A
:10447000418B11110C94352D0E946E310C94352D09
:10448000209146163091471690913F139260909379
:104490003F1340E060E0C9010E94AF8D0C94352DC0
:1044A0000E94476F6C8F7D8F8E8F9F8FBE016F5FD5
:1044B0007F4FCE014C960E942F5260E0CE010196B4
:1044C0000E9413C50E947059BE016F5F7F4F81EF3C
:1044D00096E00E9468578AE00E94B9310C94352D0D
:1044E00083E50E945C54882311F40C94352D0E94BE
:1044F000763CF82E6DE070E080E50E94B33C8C01C4
:1045000097FF02C00C94352DE82E60E089E40E94EC
:104510009A3C81110C94242F802F0F94001B811141
:10452000C0C50C94242F0E946E310C94352D0E942E
:10453000966F0C94352D60E070E083E50E94B33CEB
:104540008E34910531F40E943DE70E9438C50C94E9
:10455000352D84E597E00E94C0316091850A709105
:10456000860A8BE497E00E943D576091870A70911C
:10457000880A8EE397E00E943D576091850A70910A
:10458000860A8091870A9091880A681B790B80912E
:104590003710815021E030E0823010F020E030E030
:1045A000621B730B83E397E00E943D578AE00E94F1
:1045B000B93184E597E00E94C0318091890A9091D9
:1045C0008A0AA0918B0AB0918C0A8C8F9D8FAE8F36
:1045D000BF8FBE016F5F7F4FCE014C960E942F525E
:1045E000BE016F5F7F4F86E297E00E94685780911F
:1045F0008D0A90918E0AA0918F0AB091900A8C8FAB
:104600009D8FAE8FBF8FBE016F5F7F4FCE014C96E7
:104610000E942F52BE016F5F7F4F86E197E00E949C
:10462000685720E030E04AE754E46091910A7091C5
:10463000920A8091930A9091940A0F944E33AB01A1
:10464000BC018EEF96E00E944A578DE60E94B93178
:104650008AE00E94B9310C94352D8091330A83FF92
:1046600002C00C94352D0E946C8087FF02C00C9410
:10467000352D83E50E945C54882379F00E94DC5339
:104680000F94C0338B01CB010E94CBDF063511059F
:1046900024F40E94CCE60E9438C50F9451220C9459
:1046A000352D8091330A83FF02C00C94352D0E9472
:1046B0006C80F82E87FF02C00C94352D83E50E9494
:1046C0005C54082F811106C082E50E945C54182FAB
:1046D0008823C1F10E94DC530F94C033CB010E94A8
:1046E000CBDF0E94DC5320E030E04AEA52E40F9432
:1046F000502B181614F40C943D2F0E94CCE60E9407
:1047000038C56091220570912305072E000C880B97
:10471000990B0F94572B4B015C0140901E05509054
:104720001F056090200570902105A30192010F9450
:10473000B434181614F40C945B2F002311F40C9469
:10474000412F11E00F945122112311F40C94352DB7
:1047500040E0602F8F2D0E9469E10C94352D0E945E
:104760006C80182F87FF02C00C943A2D8BE49FE0D9
:104770000E94C031812F0E9444908AE00E94B9318A
:104780000C943A2D80E50E94E0D6182F823010F06C
:104790000C94352D81E40E941354882321F06091FC
:1047A000030570E002C06FEF70E083E50E948C8526
:1047B000E12FF0E0ED5FFA4F8F3F910519F010F017
:1047C0008FEF90E080830C94352D80E50E94E0D639
:1047D000823010F00C94352DE82FF0E0ED5FFA4FA9
:1047E00010820C94352D8EE40E945C54882311F4C1
:1047F0000C94352D0E94CC5360938E0470938F04DB
:1048000080939004909391040C94352D83E50E943D
:104810001354882329F083E50E94E0D68093330A5D
:104820000E94705985E697E00E94C0318091330A5A
:10483000882369F10CE9E02E0AE0F02E00E010E098
:1048400020E08091330A90E0A0E0B0E0002E04C0A8
:10485000B695A795979587950A94D2F780FF0EC0D5
:10486000DD24D394D20E222319F08CE20E94B931B8
:10487000F701859194910E94C0312D2D0F5F1F4F3C
:1048800032E0E30EF11C05301105D9F67ECD81E64C
:1048900097E079CD1092740F109219020C94352D77
:1048A00041E060E070E08CE697E00E94CF310C942C
:1048B000352D0E949A300C94352D83E50E945C546E
:1048C000882381F00E94763C282F30E02D3331057B
:1048D00024F4809300020C94352D8CE38093000225
:1048E0000C94352D0E9470594091000250E060E018
:1048F00070E08AE797E00E942C578AE00E94B93165
:104900000C94352D8091330A83FF02C00C94352D11
:1049100083E50E945C54882311F40C94352D0E9489
:10492000DC530F94C033CB010E94683C0C94352DAE
:104930008091330A83FF02C00C94352D83E50E94D9
:104940005C54182F81110C945E2F82E50E945C54F8
:1049500081110C945E2F0C94352D83E50E945C54DC
:10496000882311F40C94352D0E94763C182F90E08A
:10497000CD970CF01CE3109344030F9495036B0147
:104980007C01212F30E0A8EEB3E00F94FA31C60E7F
:10499000D71EE81EF91EC0924003D0924103E09258
:1049A0004203F09243030C94352D809149038F7D8F
:1049B0008061809349030C94352D809149038F7E4B
:1049C0008062809349030C94352D83E50E945C54EA
:1049D0008823A1F00E94DC5320E030E04AE754E451
:1049E0000F94B62B0F94C7336093010270930202A9
:1049F00080930302909304020C94352D809142160B
:104A000084FF02C00C94942F8091441687FF02C04B
:104A10000C94942F80914516837011F00C94942F70
:104A20000C94C12F83E50E941354882311F40C9435
:104A3000352D0E94DC5320E030E04AE754E40F9427
:104A4000B62B0F94C733609345037093460380934E
:104A50004703909348030C94352D0E946C8087FF88
:104A600002C00C94352D9091421694FD04C0909193
:104A7000441697FF0AC0BAE7CB2EB2E0DB2E14E350
:104A8000E12E1AE0F12E10E00AC0909145169370C5
:104A900091F7682F81E00E948E860C94352DD60107
:104AA0008D916D010E945C54882309F46DC0133010
:104AB00009F063C00E94DC534B015C0120E030E050
:104AC00040EA51E40F94502B87FF4EC0A50194019A
:104AD0006091540A7091550A8091560A9091570A34
:104AE0000F944E332B013C019B01AC016091E70414
:104AF0007091E8048091E9049091EA040F94B62B38
:104B00006093E7047093E8048093E9049093EA04C7
:104B1000A30192016091640A7091650A8091660A0E
:104B20009091670A0F94B62B6093640A7093650A9C
:104B30008093660A9093670A6091F7047091F80475
:104B40008091F9049091FA040F94552BA3019201DE
:104B50000F94B62B0F94C7336093F7047093F80447
:104B60008093F9049093FA048092540A9092550A23
:104B7000A092560AB092570A07C00E94DC53F70170
:104B8000648B758B868B978B1F5FF4E0EF0EF11CA7
:104B9000143009F084CF0E94E0E767C70E9404E860
:104BA0000F946D0062C78CEC98E00E94C03160E009
:104BB0008CEB98E00F94D51160E087EA98E00F94B1
:104BC000D51161E082EA93E20F94D51161E08CE99E
:104BD00098E00F94D51161E08CE898E00F94D5111E
:104BE00060E083E898E00F94D51161E089E798E0F0
:104BF0000F94D51160E08FE698E00F94D51160E036
:104C000087E698E00F94D51161E089E598E00F946C
:104C1000D51160E08BE498E00F94D51160E08CE34F
:104C200098E00F94D51160E08EE298E00F94D511D2
:104C300060E088E198E00F94D51160E087E098E0AB
:104C40000F94D51160E088EF97E00F94D51160E0E4
:104C500083EE97E00F94D51161E080ED97E00F941B
:104C6000D51160E083EC97E00F94D51160E08FEAF6
:104C700097E00F94D511F9C680914616909147168A
:104C8000009709F442CBDC012C91222309F43DCB9F
:104C900060E00E9413C5E9C60091461610914716C0
:104CA00094E0F12C40E0915021F1F8018081282F0F
:104CB0002B7F213421F421812133D9F407C08035A1
:104CC000C1F4818180538A3048F013C0813421F0CF
:104CD000853421F441E002C0FF24F39498012E5F53
:104CE0003F4F89012F5F3F4FF80180818032C9F328
:104CF000DACF41110E947059FF2021F082E999E03A
:104D00000E94C031C8010E94B333AFC60F94800126
:104D1000ACC61092960A1092950A0F94A101A5C6EE
:104D200060E070E083E50E94B33C8C011127023003
:104D300011053CF00E946C5986E999E00E94C0314F
:104D400094C688E40E945C548823A9F00E94AF3C7A
:104D50008A3A91053CF08530F1E09F072CF084E021
:104D600091E002C08AEA90E0F801EE0FFF1FEF5ECB
:104D7000F04F9183808386E40E945C54882381F005
:104D80000E94AF3C97FD07C08F3F910529F024F0AA
:104D90008FEF90E001C080E0F801E05EF94E808383
:104DA00082E40E945C54882309F45FC60E94AF3CF1
:104DB0008530910534F08D3891052CF08CE890E029
:104DC00002C085E090E0F801EE0FFF1FE45EF94EAF
:104DD000918380834AC60E946C80182F87FD45C648
:104DE00084E40E941354882309F43FC00E94DC53DA
:104DF0006B017C0101E020E030E0A9010F94502B11
:104E0000811101C000E00093211020E030E0A901F1
:104E1000C701B6010F94502B882339F10E94DC534F
:104E200024E01202F0011124EA5DFF4E60837183D9
:104E30008283938320E030E0A90160912610709175
:104E4000271080912810909129100F94502B8111D8
:104E50000CC080E090E0A0EEBFE38093261090931A
:104E60002710A0932810B09329100E94EAE3FDC5F3
:104E70000E946C8087FDF9C56AE7E62E62E0F62E97
:104E800004E31AE0D7018D917D010E941354882319
:104E900059F00E94DC530F94C733F801608371838B
:104EA000828393830E9499E70C5F1F4FFAE00434DA
:104EB0001F0741F7DAC50E946C8087FDD6C55AE707
:104EC000E52E52E0F52E04E31AE0D7018D917D0125
:104ED0000E941354882339F00E94DC53F80164A324
:104EE00075A386A397A30C5F1F4FFAE004341F0736
:104EF00061F7BBC58091431687FF02C00C94C42F95
:104F0000809144168E7011F00C94C42F4091680A61
:104F10005091690A60916A0A70916B0A88EB99E076
:104F20000E944A5740916C0A50916D0A60916E0A36
:104F300070916F0A8FE892E30E944A574091700A7D
:104F40005091710A6091720A7091730A8CE892E331
:104F50000E944A578AE00E94B93187C53AE7C32EBA
:104F600032E0D32E4AE9E42E4AE0F42E10E0D601D6
:104F70008D916D010E941354882351F00E94DC53DF
:104F8000F7016083718382839383812F0E9438ECC1
:104F90001F5FF4E0EF0EF11C133049F70F946D0022
:104FA00064C583E50E945C54882309F45EC50E94B1
:104FB000AF3C909363028093620257C50E946C805D
:104FC000F82E87FD52C583E50E945C540F2D0F2CEF
:104FD000000C110B882369F10E94AF3CF801EE0F21
:104FE000FF1FE45DFD4F91838083000F111F000FB1
:104FF000111F9801275F3D4F7901BC01990F880B64
:10500000990B0F94572B2AE037ED43E25CE30F94A2
:10501000B62BF801EE5DFF4E208131814281538134
:105020000F94B62BD7016D937D938D939C9313971B
:105030001CC50E94705985E40E94B93180E38F0D30
:105040000E94B931F801EE0FFF1FE45DFD4F608152
:10505000718188EC99E00E945B5785E20E94B9312A
:105060008AE00E94B93101C580E50E94135488236B
:1050700009F4FBC460E070E080E50E94B33CF82EC8
:105080006FEF7FEF83E50E94B33C8C01019603979D
:1050900008F0EBC4F7FCE9C48F2D0F94001B8823A4
:1050A00039F00E946C5980ED99E00E94C031DDC456
:1050B0000E9404E860E08F2D0F9456020F3FBFEF6F
:1050C0001B0731F00130110571F000E010E00DC058
:1050D0008F2D0F94FF2531E020E0892B09F030E07F
:1050E000032F122F02C001E010E08F2D0F94FF2537
:1050F0008017910709F4B9C480E00E94D433F5CF3A
:105100008AE50E945C54811105C083E50E945C54CD
:105110008823E9F10E94DC5320E030E040E050ECCD
:105120000F94502B87FD7BC70E94DC5320E030E0BA
:1051300040E050E40F94B43418160CF46BC70E948E
:10514000DC532091980A2695269520FF20C02091B7
:10515000500A3091510A4091520A5091530A0F94CB
:10516000B62B0F94C0332091EB0D3091EC0D260F30
:10517000371F3093EC0D2093EB0D20915D0D309196
:105180005E0D620F731F70935E0D60935D0D8091D5
:10519000441687FD49C780914516837009F044C7BE
:1051A0000E9470594091B90F5091BA0F6091BB0F96
:1051B0007091BC0F8FED99E00E944A578AE00E94DF
:1051C000B93153C464E071E083E50E948C858C01A1
:1051D00068EE73E080E50E948C858938E3E19E07E4
:1051E00010F088E893E1B8010E945FC43EC485E4F2
:1051F0000E94E0D6811173C080E50E941354882379
:1052000051F00E94DC53609325057093260580932E
:1052100027059093280589E40E941354882381F080
:105220000E94DC532CEA35EC47E25EE30F94B62B88
:105230006093290570932A0580932B0590932C0584
:1052400084E40E941354882381F00E94DC532CEAEA
:1052500035EC47E25EE30F944E3360932D05709377
:105260002E0580932F05909330050E947059409130
:10527000250550912605609127057091280585E93F
:1052800099E10E944A572CEA35EC47E25EE36091CF
:10529000290570912A0580912B0590912C050F947A
:1052A0004E33AB01BC018CEE99E00E944A572CEAC8
:1052B00035EC47E25EE360912D0570912E058091FB
:1052C0002F05909130050F94B62BAB01BC018CE8F3
:1052D00099E10E944A578AE00E94B931C6C30E94F0
:1052E0006C5989E39EE20E94C031BFC380E50E94F1
:1052F0001354882351F00E94DC536093890F7093FC
:105300008A0F80938B0F90938C0F89E40E94135423
:10531000882381F00E94DC532CEA35EC47E25EE3FF
:105320000F94B62B60938D0F70938E0F80938F0F19
:105330009093900F84E40E941354882381F00E947C
:10534000DC532CEA35EC47E25EE30F944E33609376
:10535000910F7093920F8093930F9093940F0E94EC
:1053600070594091890F50918A0F60918B0F709105
:105370008C0F85E999E10E944A572CEA35EC47E207
:105380005EE360918D0F70918E0F80918F0F9091E1
:10539000900F0F944E33AB01BC018CEE99E00E944C
:1053A0004A572CEA35EC47E25EE36091910F709129
:1053B000920F8091930F9091940F0F94B62BAB01A5
:1053C000BC018CE899E10E944A578AE00E94B931F9
:1053D0004CC383E50E941354182F882371F00E9458
:1053E000DC530F94C03370930E0260930D0221E0E2
:1053F000672B09F020E02093190580E50E941354E3
:10540000882359F020910D0230910E02232B11F0C8
:105410000E948A3C8093190528C3111126C30E945B
:10542000705989E09AE00E94C03180911905882363
:1054300019F086E192E202C080EF99E00E94C0314B
:1054400060910D0270910E0288EF99E00E945B5707
:1054500084EF99E00E94C03108C30E94814C05C3CB
:105460000E9404E802C30F940419FFC20E945D87E2
:10547000FCC20E948AD68111F8C20FE51EE22AEB17
:1054800034E03DA32CA3CE0101961C01F2E9CF2EFE
:10549000FEE2DF2E7C01F801659175918591949172
:1054A000ACA1BDA18D909D90AD90BD90BDA3ACA3CE
:1054B000A50194010F9453322B013C01F701608345
:1054C00071838283938320E030E040EA51EC0F94B3
:1054D000B43487FD0AC020E030E040EA51E4C30163
:1054E000B2010F94502B18162CF4F6018491181663
:1054F0000CF4A0C5D7018D909D90AD90BD907D011D
:1055000020E030E040EA51ECC501B4010F94B4341E
:1055100087FD9AC520E030E040EA51E4C501B401BE
:105520000F94502B18160CF0A3C58EC50E94506422
:105530009CC20F94111499C261E083E50E949A3CC9
:1055400081270F941F1491C281E0809350160E940E
:105550002A6910925016882309F487C20E94705954
:1055600088E59AE00E94C03180C280913F1382FF9B
:105570007CC2806480933F1378C20E94C78375C247
:105580000E946C80082F87FD70C285E50E9413542D
:105590008823B1F1E02E002E000CFF080E94DC539E
:1055A0004B015C0120E030E0A9010F94B43487FF87
:1055B00004C0B7FAB094B7F8B094C70173E0880F8D
:1055C000991F7A95E1F79C012B5A394E7901D9013F
:1055D0008D929D92AD92BC92139720E030E046E10F
:1055E00054E4C501B4010F94B43418164CF480E0AF
:1055F00090E0A6E1B4E4F70180839183A283B383B2
:105600008CE40E941354882309F42FC2002E000C4E
:10561000110B0E94DC536B017C0120E030E0A901FA
:105620000F94B43487FF04C0F7FAF094F7F8F094BD
:1056300020E030E046E154E4C701B6010F94B434F1
:10564000980163E0220F331F6A95E1F7F901EB5AE5
:10565000F94E18162CF0C482D582E682F78205C274
:1056600080E090E0A6E1B4E484839583A683B783C9
:10567000FCC10E946C80182F87FDF7C18AE50E944B
:105680005C54882349F040E050E0BA018AE50E946A
:105690006A4C4B015C0106C0812C912C50EAA52E6E
:1056A00051E4B52E412F64E083E00E944EA820E033
:1056B00030E0A901C501B4010F94B43418167CF58B
:1056C00080E090E0A0EAB0E489839A83AB83BC8356
:1056D0002091C2043091C3044091C4045091C50488
:1056E000C501B4010F9454326B017C0120E030E01D
:1056F00048EC53E40F94502B87FD06C0C12CD12CED
:1057000048ECE42E43E4F42ECC8EDD8EEE8EFF8E3C
:10571000BE016F5F7F4FCE014C960F944C0085E524
:105720000E941354882329F00E94DC536B017C01F2
:105730000AC028E01202F0011124EB5AF94EC08091
:10574000D180E280F38020E030E0A901C701B601FA
:105750000F94B43487FF04C0F7FAF094F7F8F0948C
:10576000F7FAF094F7F8F094C982DA82EB82FC82BF
:1057700044E061E0CE0101960E94155B20E030E03C
:10578000A901C501B4010F94B43418165CF580E08A
:1057900090E0A0EAB0E489839A83AB83BC83A5013F
:1057A00094016091C2047091C3048091C4049091EB
:1057B000C5040F9453326B017C0120E030E0A90155
:1057C0000F94B43418161CF0C12CD12C7601CC8E59
:1057D000DD8EEE8EFF8EBE016F5F7F4FCE014C9649
:1057E0000F944C0040E060E089E00E944EA83DC16B
:1057F0003AE7E32E32E0F32E10E0D7018D917D01E0
:105800000E945C54882331F00E94AF3CBC01812F80
:105810000E9484B61F5F143081F782E40E945C54BA
:10582000882331F00E94AF3CBC0184E00E9484B622
:1058300083E50E945C54882309F417C110E00E949C
:10584000AF3CBC01812F0E9484B61F5F1530B9F7B1
:105850000CC183E50E941354811106C02AE7E22E91
:1058600022E0F22E10E00EC010E00E94763C682F7D
:10587000812F0E9454B61F5F1530B9F7EFCF1F5F1D
:10588000143071F0F70181917F010E941354882335
:10589000B1F30E94763C682F812F0E9454B6EFCF5F
:1058A00082E40E941354882331F00E94763C682FD2
:1058B00084E00E9454B60E9475B5D7C083E50E946B
:1058C0005C54882309F466C00E94763C823049F11A
:1058D000833009F44BC0813009F05CC09AE7E92EAF
:1058E00092E0F92E10E0D7018D917D010E945C5469
:1058F000882341F00E94763C2FEF4FEF682F812FD5
:105900000E94DCB51F5F143071F782E40E945C5482
:10591000882309F43FC00E94763C2FEF4FEF682F99
:1059200021C08AE7E82E82E0F82E10E0F70181918D
:105930007F010E945C54882341F00E94763C2FEF47
:10594000482F6FEF812F0E94DCB51F5F143071F775
:1059500082E40E945C548823E9F00E94763C2FEF99
:10596000482F6FEF84E00E94DCB514C00AE712E014
:10597000D8018D918D010E945C5481110E94763C6A
:10598000B2E00E371B07A1F782E40E945C5481113C
:105990000E94763C0E9475B568C081E080931A022F
:1059A0001092BE0E60E083E50E949A3C81115DC0BA
:1059B0000E942C535AC083E50E941354882339F067
:1059C0000E948A3C8093990A0E9446590AC00E940C
:1059D000705987E89AE00E94C0318091990A0E942C
:1059E00020578091431683FD79C38091441681FD31
:1059F00075C387E50E941354882321F061E081E09C
:105A00000E94725880E50E94135481110E946954CB
:105A100085E40E941354882359F00E94C38A882386
:105A200019F08BE79AE002C083E79AE00E94C03148
:105A300086E50E9413548823C1F00E947254882383
:105A400019F08CE69AE002C083E69AE00E94C03129
:105A50000CC00E948FD509C080914916882329F077
:105A60000E94B6DF02C00E948FD5E9A9E11102C0F1
:105A70000E941C53F8A9F093750FE1960FB6F894A5
:105A8000DEBF0FBECDBFDF91CF911F910F91FF9071
:105A9000EF90DF90CF90BF90AF909F908F907F90CE
:105AA0006F905F904F903F902F90089520E030E0EE
:105AB000A901C701B6010F94502B881F8827881FA2
:105AC000181709F4A2C080E090E0A0E8BFEB8CA713
:105AD0009DA7AEA7BFA72CA13DA14EA15FA1C50167
