:100000000C94D41C0C94051D0C94051D0C94051D1A
:100010000C94051D0C94051D0C94051D0C94051DD8
:100020000C94051D0C94051D0C94051D0C94051DC8
:100030000C94051D0C94051D0C94051D0C94051DB8
:100040000C94051D0C9446E70C94051D0C94051D9D
:100050000C94051D0C94051D0C94AE9D0C94026827
:100060000C94051D0C94A73C0C949D3C0C94051D10
:100070000C94051D0C94051D0C94051D0C94051D78
:100080000C94051D0C94051D0C94051D0C94051D68
:100090000C94051D0C94051D0C94051D0C94051D58
:1000A0000C94051D0C94051D0C94051D0C94051D48
:1000B0000C94051D0C94051D0C94051D0C94051D38
:1000C0000C94051D0C94051D0C94051D0C94051D28
:1000D0000C94051D0C94051D0C94051D0C94051D18
:1000E0000C94051D61776477537757775D779B771D
:1000F00068776C77727776777A7780778477887786
:100100009B778E7792779677D77ADC7AE17AEB7A5B
:10011000F57A6E7BFF7A077B0F7B197B237B2D7B28
:100120003C7B467B6E7B507B5A7B647BACDC8FDCFC
:1001300092DCAFDC95DC98DC9BDCA7DC9EDCBADCD7
:10014000A1DCA4DCEE01CE0108023601080208029F
:10015000080208020802080208020802080208024F
:10016000080208020802080208020802080208023F
:10017000080208020802080208020802080208022F
:100180001C0208020802080208020802080208020B
:1001900008026801080208020802080208020802B0
:1001A0000802080208020802F401C201084AD73B0B
:1001B0003BCE016E84BCBFFDC12F3D6C74319ABD36
:1001C00056833DDA3D00C77F11BED9E4BB4C3E915A
:1001D0006BAAAABE000000803F05A84CCDB2D44E49
:1001E000B93836A9020C50B9918688083CA6AAAA4B
:1001F0002ABE000000803F000C9499620C94F03CF1
:100200000C9444D90C94EE9A0C940DDD0C947A77EE
:100210000C94467B0C94F57A0C94BADC0C94CAC608
:100220000C9495DC0C9424D90C94E4C00C94796261
:100230000C941D900C9453C40C9447D90C94CD414C
:100240000C94A8C00C94EC9A0C9488450C9496C01D
:100250000C94A7DC0C94F29A0C94237B0C94A73D8D
:100260000C9482510C9419DD0C946DC00D940D0604
:100270000C94C68F0C949E4F0C9493C20D94A903BA
:100280000C9435CA0C948A410D94A6030C943199B0
:100290000C94F3C20C94EBC20C9428D90C9472C049
:1002A0000C9490620C94213E0C946ED30C942EC04E
:1002B0000C948B450C94A2410C9420C50C949CC0CA
:1002C0000C94F49A0C94423D0C948EC80C943ED934
:1002D0000D94E0050C949EDC0C94AADA0C94077B38
:1002E0000C94F4500C949BDC0C9434D90C9430D9BD
:1002F0000C94AC3F0C94943D0C948EC20C9461779A
:100300000C9492770C9412660C9478410C946C7750
:100310000C941A3D0C947CC00C94764F0C9418D914
:100320000C9440970C940F7B0C94043E0C94CE5389
:100330000C9480770C94C43D0C9487450C942D7BD1
:100340000D94A3030C9468770D94C8270C9414D9CA
:100350000C9441D90C9420D90C945A7B0C94723D86
:100360000C94AFDC0C948E770C94EB7A0C941CD923
:100370000C94A1DC0C946E7B0C9454640C9438D9CE
:100380000C9492DC0D9446040C945F9D0C94FA41FD
:100390000C94E73D0C942FCA0C948D620D941004BC
:1003A0000C94C49A0C94933E0C94D6670C94197BCD
:1003B0000C9453770C94A2C00C9463520C94594340
:1003C0000C943C7B0C94563D0C948F3E0C94507BCB
:1003D0000C942E560C949DC20C94DC7A0D94D1058D
:1003E0000C9477C00C9476770D9424060C9488773F
:1003F0000C9456620C94D9440C94A8410C947277D6
:100400000C944B970C94643D0C9457770C94063DD8
:100410000D9449040C94553E0C944DD30C9410D972
:100420000C9464770C94863D0C944F500C94F09A85
:100430000C94647B0C949B770D9407060C942540D8
:100440000C947E620C9431CA0C94E3D30C943E3E1F
:100450000C9493620C94AE410C94DD9A0C947B87BF
:100460000C94984F0C943BD90C9496770C94F466AA
:100470000C9496410C948F4F0D94AA270C94ACDCED
:100480000C945D770C9498C20C94A4DC0C942DCA47
:100490000C9433CA0C9484770C9490410C94E17AB8
:1004A0000C94FF7A0C9488620C9483620C942CD97F
:1004B0000C9498DC0C949C410C94D77A0C94844155
:1004C0000C942E3D0C948FDC0C94F48F0C947E4194
:1004D0000C945C3E0C9444D74E414E494E495459BD
:1004E000494E46CDCCCC3D0AD7233C17B7D13877FF
:1004F000CC2B329595E6241FB14F0A000020410015
:1005000000C84200401C4620BCBE4CCA1B0E5AAE5E
:10051000C59D7400407A10F35A00A0724E1809006D
:1005200010A5D4E80000E87648170000E40B540258
:100530000000CA9A3B000000E1F505000080969893
:1005400000000040420F000000A0860100000010E3
:100550002700000000E80300000000640000000025
:10056000000A00000000000100000000002C76D806
:1005700088DC674F0823DFC1DFAE59E1B1B796E5EC
:10058000E3E453C63AE651997696E8E6C28426EB50
:10059000898C9B62ED407C6FFCEFBC9C9F40F2BA63
:1005A000A56FA5F490055A2AF75C936B6CF9676DFB
:1005B000C11BFCE0E40D47FEF520E6B500D0ED9050
:1005C0002E0300943577050080841E080000204E1D
:1005D0000A000000C80C333333330F986E128311B6
:1005E00041EF8D2114893BE65516CFFEE6DB18D18D
:1005F000844B381BF77C1D901DA4BBE4242032845F
:10060000725E228100C9F124ECA1E53D27434F4DE4
:100610004D554E49434154494F4E0044525952554D
:100620004E004552524F525300494E464F004543EB
:10063000484F0047322F4733206261642070617257
:10064000616D65746572730A00536C6565702E2E5A
:100650002E004D65736820706F696E742063616E43
:100660006E6F74206265207265736F6C7665640AC4
:1006700000436C69636B20746F20526573756D6500
:100680002E2E2E00456E642066696C65206C6973A1
:10069000740A00426567696E2066696C65206C6942
:1006A00073740A00286E6F2066696C6529004375B3
:1006B0007272656E742066696C653A20005344203E
:1006C0007072696E74696E67206279746520004E7D
:1006D0006F74205344207072696E74696E670A00EB
:1006E0005072696E742074696D653A20000A537403
:1006F0006174733A2046696C616D656E7420757320
:1007000065643A20002C204C6F6E67657374206A14
:100710006F623A2000546F74616C2074696D653AA1
:1007200020002C204661696C65643A20002C20462C
:10073000696E69736865643A20005072696E7473FB
:100740003A200053746174733A2000452025530009
:100750006F66660044454255473A004D31313220BC
:1007600053687574646F776E004D313133205300D8
:100770005468696E6B65722056325F4E504E204F42
:1007800046462E004348414D4245525F54454D5028
:1007900045524154555245004D4F54494F4E5F4DBF
:1007A0004F44455300544845524D414C5F50524FC1
:1007B00054454354494F4E004155544F5245504FB4
:1007C00052545F53445F5354415455530050524F59
:1007D0004D50545F535550504F525400454D455263
:1007E00047454E43595F5041525345520043415390
:1007F000455F4C494748545F4252494748544E452B
:10080000535300544F47474C455F4C494748545356
:1008100000534F4654574152455F504F5745520081
:100820004255494C445F50455243454E54004C4557
:1008300056454C494E475F44415441005A5F50521F
:100840004F4245004155544F4C4556454C0050527F
:10085000494E545F4A4F420050524F4752455353FE
:10086000004155544F5245504F52545F54454D50DE
:1008700000564F4C554D45545249430042494E4154
:1008800052595F46494C455F5452414E534645527A
:100890000053455249414C5F584F4E5F584F4646B2
:1008A000004649524D574152455F4E414D453A4DE4
:1008B00061726C696E20322E302E78202847697460
:1008C0004875622920534F555243455F434F444575
:1008D0005F55524C3A68747470733A2F2F6769747D
:1008E0006875622E636F6D2F4D61726C696E46691B
:1008F000726D776172652F4D61726C696E20505216
:100900004F544F434F4C5F56455253494F4E3A3127
:100910002E30204D414348494E455F545950453A89
:100920005468696E6B65722056325F4E504E20459A
:10093000585452554445525F434F554E543A312016
:10094000555549443A63656465326132662D3431E8
:1009500061322D343734382D396231322D633535DB
:100960006336326633363766660A002F2F20004D15
:1009700031343520533C696E6465783E206F757460
:10098000206F662072616E67652028302D31290A3C
:100990000020466C6F773A200050726F7465637464
:1009A00065642050696E0A00496E76616C69642046
:1009B00065787472756465720A0020693A0064692A
:1009C000730043290A0061626C656420286D696EBA
:1009D0002074656D702000436F6C642065787472BC
:1009E000756465732061726520004D343231206971
:1009F0006E636F727265637420706172616D65748D
:100A000065722075736167650A004F666673657469
:100A100073204170706C696564004572723A2054AD
:100A20006F6F206661722100546F6F2066617220C3
:100A300066726F6D207265666572656E63652070A3
:100A40006F696E740A00454550524F4D204F4B0A56
:100A500000496E76616C69640A0056616C69640ACB
:100A6000004E6F20504C520A00504C52204578697D
:100A70007374730A00506F7765722D6C6F737320F7
:100A80007265636F7665727920002E06290622064C
:100A90001B060D064572726F722077726974696E5B
:100AA0006720746F20454550524F4D210A006275F2
:100AB00073793A2070617573656420666F7220697E
:100AC0006E7075740A00627573793A20706175737F
:100AD000656420666F7220757365720A00627573B3
:100AE000793A2070726F63657373696E670A005399
:100AF000544F505045442E20005072696E746572F8
:100B00002073746F707065642064756520746F2045
:100B10006572726F72732E20466978207468652042
:100B20006572726F7220616E6420757365204D3935
:100B3000393920746F20726573746172742E2028A5
:100B400054656D7065726174757265206973207289
:100B5000657365742E205365742069742061667412
:100B600065722072657374617274696E67290A0018
:100B70004E6F20436865636B73756D207769746889
:100B8000206C696E65206E756D6265722C204C61FB
:100B90007374204C696E653A2000636865636B73FB
:100BA000756D206D69736D617463682C204C617381
:100BB00074204C696E653A20004C696E65204E7554
:100BC0006D626572206973206E6F74204C6173745E
:100BD000204C696E65204E756D6265722B312C203C
:100BE0004C617374204C696E653A20004D31313090
:100BF000004D313137004D3331005344207265616F
:100C000064206572726F720A00446F6E65207072A4
:100C1000696E74696E672066696C650A004B494CA1
:100C20004C20636175736564206279204B494C4C9C
:100C300020627574746F6E2F70696E0A004B494C98
:100C40004C2063617573656420627920746F6F2036
:100C50006D75636820696E61637469766520746977
:100C60006D65202D2063757272656E7420636F6DE3
:100C70006D616E643A200025301D0C282924311C3A
:100C80000B4527232F1B044443212A193F40222BC5
:100C90001A414203380906360308020600014C6F68
:100CA0006164206D6D00556E6C6F6164206D6D0028
:100CB00046696C2E204469612E004520696E206DC6
:100CC0006DC2B30020082046616374002008204DE7
:100CD0006178002008204D696E004175746F74655D
:100CE0006D700023646566696E6520444546415514
:100CF0004C545F004B6420004B6920004B70200077
:100D0000504944204175746F74756E652066696E34
:100D10006973686564212050757420746865206C5F
:100D2000617374204B702C204B6920616E64204BE2
:100D30006420636F6E7374616E74732066726F6D7E
:100D40002062656C6F7720696E746F20436F6E66EA
:100D5000696775726174696F6E2E680A0050494444
:100D6000204175746F74756E65206661696C656489
:100D7000212074696D656F75740A000A20436C61E7
:100D80007373696320504944200A00204B643A2061
:100D900000204B693A2000204B703A20000A204E78
:100DA0006F206F76657273686F6F740A00205475D8
:100DB0003A2000204B753A2000206D61783A2000DF
:100DC000206D696E3A200020643A2000206269613B
:100DD000733A2000504944204175746F74756E65F4
:100DE0002073746172740A00504944204175746F15
:100DF00074756E65206661696C6564212054656D4B
:100E0000706572617475726520746F6F20686967B0
:100E1000680A00504944204175746F74756E6520EE
:100E20006661696C65642120426164206578747232
:100E300075646572206E756D6265720A0045727226
:100E40003A207574663820666F6E74206E6F742059
:100E5000696E697469616C697A65642E00000C0DB5
:100E600000FE07022603BC017FFE08FE08FE0508FF
:100E70000806000040F0C888889878100508080621
:100E80000000C0F88888888888F8050505060001F4
:100E90002030F830200508080600002070F82020D7
:100EA0002020E00509090600FF2070A8A8B888885E
:100EB0007020050606060001E08CEA8C8A0A050906
:100EC000090600FFF8A88888888888A8F8050A0A13
:100ED0000600FE205050505088A8A88870030303D5
:100EE00006000340A040FFFFFFFFFFFFFFFFFFFFE3
:100EF000FFFFFFFFFFFFFFFFFFFFFFFF00000006F8
:100F000005FF0107070602008080808080008003C3
:100F10000303060105A0A0A005060606000050F880
:100F20005050F8500509090600FF2070A8A070284D
:100F3000A87020050707060000C8C8102040989830
:100F400005070706000040A0A040A8906801030321
:100F50000602058080800309090601FF20404080C9
:100F600080804040200309090601FF804040202086
:100F70002040408005070706000020A8702070A8C8
:100F8000200505050600012020F8202002030306A5
:100F900001FFC04080050101060003F802020206BD
:100FA0000100C0C0050707060000081010204040DF
:100FB00080050707060000708898A8C88870030796
:100FC0000706010040C040404040E005070706001A
:100FD00000708808102040F8050707060000F80890
:100FE000103008887005070706000010305090F890
:100FF0001010050707060000F880F0080888700543
:101000000707060000304080F08888700507070653
:101010000000F808101020202005070706000070C7
:1010200088887088887005070706000070888878AF
:10103000081060020505060100C0C000C0C002061D
:10104000060601FFC0C000C040800305050601017F
:101050002040804020050303060002F800F8030545
:10106000050601018040204080050707060000704A
:101070008810202000200507070600007088B8A807
:10108000B88070050707060000708888F88888888F
:10109000050707060000F04848704848F0050707B4
:1010A00006000070888080808870050707060000B1
:1010B000F04848484848F0050707060000F88080D7
:1010C000F08080F8050707060000F88080F0808037
:1010D00080050707060000708880809888700507E3
:1010E00007060000888888F88888880307070601B3
:1010F00000E04040404040E005070706000038108F
:1011000010101090600507070600008890A0C0A08E
:101110009088050707060000808080808080F805A1
:10112000070706000088D8A888888888050707066A
:1011300000008888C8A898888805070706000070FE
:10114000888888888870050707060000F08888F07E
:1011500080808005070706000070888888A890684E
:10116000050707060000F08888F0A09088050707AB
:101170000600007088807008887005070706000068
:10118000F8202020202020050707060000888888F6
:10119000888888700507070600008888888850506E
:1011A0002005070706000088888888A8A85005073A
:1011B0000706000088885020508888050707060029
:1011C0000088885020202020050707060000F80826
:1011D00010204080F80309090601FFE0808080802C
:1011E000808080E005070706000080404020101046
:1011F000080309090601FFE020202020202020E02C
:101200000503030600052050880501010600FEF8CD
:101210000303030601058040200505050600007054
:10122000087888780507070600008080F08888889D
:10123000F005050506000070808088700507070628
:101240000000080878888888780505050600007081
:1012500088F08070050707060000304840E04040F5
:10126000400507070600FE70888888780870050723
:10127000070600008080F088888888030707060139
:10128000004000C0404040E00409090601FE100093
:10129000301010101090600507070600008080884D
:1012A00090E09088030707060100C040404040409E
:1012B000E0050505060000D0A8A8A8A805050506B4
:1012C0000000B0C888888805050506000070888879
:1012D00088700507070600FEF0888888F080800582
:1012E00007070600FE78888888780808050505063F
:1012F0000000B0C880808005050506000078807079
:1013000008F00507070600002020F8202020180517
:101310000505060000888888986805050506000010
:1013200088888850200505050600008888A8A850F0
:1013300005050506000088502050880507070600AF
:10134000FE88888850204080050505060000F810BA
:101350002040F80309090601FF204040408040403A
:1013600040200109090602FF808080808080808003
:10137000800309090601FF80404040204040408032
:1013800005030306000248A890FF4F757461676566
:10139000205265636F7665727900436F6E66696788
:1013A00075726174696F6E00256C642E25696D001D
:1013B000457874727564656420546F74616C004C78
:1013C0006F6E67657374204A6F622054696D6500A3
:1013D0003E2000546F74616C205072696E742074EA
:1013E000696D6500436F6D706C6574656400507263
:1013F000696E7420436F756E74003135300042455C
:10140000443A486973656E7320333935300052753C
:101410006E617761792057617463683A204F4E009E
:101420004D61782054656D7000323735004D696E1E
:101430002054656D700045313A20486973656E73BC
:101440002033393530005053550047656E65726959
:10145000630050726F746F636F6C00312E30004206
:10146000617564003235303030300052616D626F2A
:101470000042696C696E656172204C6576656C69C5
:101480006E6700457874727564657273005468699C
:101490006E6B65722056325F4E504E0032303139DD
:1014A0002D31322D3031005072696E7465722053C7
:1014B0007461747300546865726D6973746F7273CC
:1014C00000426F61726420496E666F005072696EEF
:1014D00074657220496E666F004D313030300053B4
:1014E000746F70205072696E7400526573756D650B
:1014F000205072696E740053746F70004D32310069
:101500004368616E6765204D656469610041626F83
:101510007574205072696E746572004E6F204D654F
:101520006469610054756E6500496E666F2053638F
:101530007265656E002062797465733B2063726327
:10154000200053657474696E67732053746F7265FD
:1015500064202800454550524F4D206461746173EA
:10156000697A65206572726F722E0A002073746F3B
:101570007265642073657474696E67732072657434
:10158000726965766564202800202863616C637544
:101590006C6174656429210A0020213D20004545C5
:1015A00050524F4D20435243206D69736D617463F7
:1015B00068202D202873746F726564292000496E9D
:1015C0006465783A2000204D61726C696E3D563733
:1015D00034290A00454550524F4D20766572736993
:1015E0006F6E206D69736D61746368202845455086
:1015F000524F4D3D0054656D706572617475726532
:101600000050726F6265205A204F666673657400E1
:101610004E6F7A7A6C65004D61696E005072656834
:1016200065617420504C4120456E640050726568BD
:1016300065617420504C41204265640050726568B9
:101640006561742041425320456E640050726568A4
:10165000656174204142532042656400436F6F6CA2
:10166000646F776E0046616E205370656564203D3F
:1016700000466C6F770000000000000000000000D2
:10168000000000000000000000000000000000005A
:10169000000000000000000000000000000000004A
:1016A000000000000000000000000000000000003A
:1016B000000000000000000000000000000000002A
:1016C000000000000000000000000000000000001A
:1016D000000000000000000000000000000000000A
:1016E00000000000000000000000000000000000FA
:1016F000000000000000007FFF0FFF0000001F80BF
:1017000060030FFFE000007FFF1FFF8700383FC02E
:1017100070030FFFE000007FFE1FFFC300387FE073
:1017200078030FFFE0000000001801C30030F0F064
:101730007803000000000000001800E30030E078AB
:101740007C03000000000000001800638071C038B6
:101750006E03000000000000001800E38071801894
:101760006703000000000000001800C1E1E1801CD8
:10177000670300000000007FFE1FFFC1FFE3801C25
:10178000630307FFC000007FFF1FFFC07F83801C33
:1017900060030FFFE000007FFF1FFF803F03801CFE
:1017A00060030FFFE0000000001801C00C03801C64
:1017B0006033000000000000001800C00C01801819
:1017C000603B000000000000001800C00C01C018C1
:1017D000603B000000000000001800C00C01C03891
:1017E000601F000000000000001800C00C00E07046
:1017F000600F000000000000001800C00C0079F02D
:10180000600F00000000007FFF1800C00C007FE0A8
:1018100060070FFFE000007FFF1800C00C001F8072
:1018200060030FFFE000007FFE0800C004000F000F
:1018300020010FFFE0000000000000000000000099
:101840000000000000000000000000000000000098
:101850000000000000000000000000000000000088
:101860000000000000000000000000000000000078
:101870000000000000000000000000000000000068
:101880000000000000000000000000000000000058
:101890000000000000000000000000000000000048
:1018A0000000000000000000000000000000000038
:1018B0000000000000000000000000000000000028
:1018C0000000000000000000000000000000000018
:1018D0000000000000000000000C030004000000F5
:1018E00000000000000000003FEC030004000000C6
:1018F000C067C00000000000020C000004000000EF
:101900004044600000000000020C000004000000E1
:1019100060C0600000000000020DE3378471E360E6
:1019200020C0200000000000020E3338C4C3338002
:101930003080600000000000020C3330C4861300C9
:101940003180400000000000020C3330C506130057
:101950001101C00000000000020C3330C707F30083
:101960001903800000000000020C3330C58403001E
:101970001B06000000000000020C3330C4C6030048
:101980000A0C000000000000020C3330C463130096
:101990000E0C000000000000020C3330C431E300E4
:1019A0000E0FE0000000000000000000000000003A
:1019B0000000000000000000000000000000000027
:1019C0000000000000000000000000000000000017
:1019D0000000000000000000000000000000000007
:1019E00000000000000000000000000000000000F7
:1019F00000000000000000000000000000000000E7
:101A000000000000000000000000000000000000D6
:101A100000000000000000000000000000000000C6
:101A200000000000000000000000000000000000B6
:101A300000000000000000000000000000000000A6
:101A40000000000000000000000000000000000096
:101A50000000000000000000000000000000000086
:101A60000000000000000000000000000000000076
:101A700000000000000001FFFFFFFFFFFFFFFFFF6E
:101A8000FFFFFFFF0FFFFFFFFFFFFFFFFFFFFFFF56
:101A9000FFFF1E0000000000000000000007FFFF25
:101AA000380000000000000000000003FFFF70008D
:101AB00000000000000000000001FFFF60000000C7
:101AC0000000000000000000FFFF600000000000B8
:101AD0000000000000007FFFC000000000000000C8
:101AE000007800003FFFC00FC0FC0000000000783D
:101AF00018001FFFC03FE1FF0000000000783C001D
:101B00000FFFC07FF3FF8000000000783C0007FF5C
:101B1000C0FFFFFFC000000000783C0003FFC1F8D9
:101B20007F87E00000000078000001FFC1F03F0364
:101B3000E00000000078000000FFC1E01E01E01F8F
:101B40000003E0783C03F07FC1E01E01E07FC00F9E
:101B5000F8783C07FC3FC1E01E01E1FFE01FFC7884
:101B60003C0FFE1FC1E01E01E3FFF03FFE783C1F6B
:101B7000FE0FC1E01E01E3F3F83F3E783C3F3F0714
:101B8000C1E01E01E7E0FC7C1F783C3E1F07C1E07E
:101B90001E01E7C07C7C0F783C3C0F03C1E01E01B6
:101BA000E7807C780F783C3C0F03C1E01E01E780A2
:101BB0003C7800783C3C0F03C1E01E01E7803C7894
:101BC00000783C3C0F03C1E01E01E7803C780078C0
:101BD0003C3C0F03C1E01E01E7C03C7800783C3C70
:101BE0000F03C1E01E01E3E03C78007C3C3C0F03A6
:101BF000C1E01E01E3FF3FF8007FBC3C0F03C1E0E2
:101C00001E01E1FF3FF8003FBFFC0F03C1E01E01D2
:101C1000E0FF3FF8001FBFFC0F03C1E01E01E07FA3
:101C20003FF8000FBFFC0F03600000000000000041
:101C3000000000000007600000000000000000003D
:101C4000000000067000000000000000000000001E
:101C5000000E380000000000000000000000001C22
:101C60001E000000000000000000000000780FFFD0
:101C7000FFFFFFFFFFFFFFFFFFFFFFF001FFFFFF81
:101C8000FFFFFFFFFFFFFFFFFF80687474703A2FB4
:101C90002F6D61726C696E66772E6F726700322EDF
:101CA000302E78004D3130303020530020504944E0
:101CB0005F64543A0020643A002069693A00207059
:101CC0003A002020506C616E6E65724275666665E2
:101CD0007242797465733A20002046726565204D22
:101CE000656D6F72793A2000436F6D70696C656441
:101CF0003A2041756720323920323032300A0020D4
:101D00004C61737420557064617465643A2032309C
:101D100031392D31322D3031207C20417574686F7E
:101D2000723A20286E6F6E652C2064656661756C52
:101D30007420636F6E666967290A00322E302E7830
:101D40000A004D61726C696E0020536F6674776192
:101D500072652052657365740A0020576174636868
:101D6000646F672052657365740A002042726F7752
:101D70006E206F75742052657365740A0020457873
:101D80007465726E616C2052657365740A00506FE1
:101D900077657255700A006175746F25632E670050
:101DA0004732385859006572726F722077726974C1
:101DB000696E6720746F2066696C650A00446F6EF7
:101DC0006520736176696E672066696C652E0A000E
:101DD0004D323900456E6473746F70730025532063
:101DE000256320256320256320256300205A3A00BF
:101DF00020593A00656E6473746F7073206869745B
:101E00003A200020746F6F206C6F6E6720657874C5
:101E1000727573696F6E2070726576656E74656435
:101E20000A0020636F6C6420657874727573696F43
:101E30006E2070726576656E7465640A000000211C
:101E400000240027002A002D00300033000101008B
:101E500000040107010A0100002200250028002BD0
:101E6000002E003100340002010000050108010BC2
:101E700001000020002300260029002C002F003242
:101E80000000010000030106010901050505050721
:101E90000508080808020202020A0A0808040404E5
:101EA0000401010101010101010303030303030311
:101EB00003040707070C0C0C0C0C0C0C0C020202A0
:101EC0000206060606060606060B0B0B0B0B0B0B93
:101ED0000B07070A0A0A0A0A0A050505040404088A
:101EE0000801021020200808102040102040800225
:101EF0000102010804020101020408102040808050
:101F000040201008040201800402018040201008D3
:101F100004020108040201010204081020408001AB
:101F2000020408102040801008040880102040049B
:101F30004080102040048000000A0B02090C0D0EA6
:101F4000080703040100000000000000000000007A
:101F50000000000000000000000000000000000081
:101F6000000000121110000000000000000000003E
:101F70000000000000000000000000000000000061
:101F8000000000000000000000000000004D6F761F
:101F9000652025736D6D004D6F766520302E316D97
:101FA0006D004D6F766520316D6D004D6F7665204B
:101FB00031306D6D004D6F76652041786973004852
:101FC0006F74656E6420746F6F20636F6C6400457E
:101FD00078747275646572004D6F7665205A004D95
:101FE0006F76652059004D6F766520580043686113
:101FF0006E67652046696C616D656E7400556E6C28
:102000006F61642046696C616D656E74004C6F6130
:10201000642046696C616D656E7400507265686518
:1020200061742041425300507265686561742050AC
:102030004C41005072656865617420437573746F1C
:102040006D004261636B0050726F62696E67205071
:102050006F696E740025532025692F256900507221
:102060006F62696E67206D65736820706F696E744A
:102070002000202844525952554E29004732392019
:102080004175746F20426564204C6576656C696E9D
:1020900067003F20284C2C522C462C4229206F757B
:1020A00074206F6620626F756E64732E0A003F287D
:1020B00056296572626F7365206C6576656C206960
:1020C0006D706C61757369626C652028302D3429E0
:1020D0002E0A00426164205A2076616C75650A0000
:1020E0004E6F2062696C696E656172206772696407
:1020F0000A00416363656C65726174696F6E3A20B2
:1021000050005741524E494E4721204C6F77205A7C
:10211000204A65726B206D6179206C656164207462
:102120006F20756E77616E7465642070617573657C
:10213000732E0A00204D39322058004E6F204D6F0B
:1021400076652E0020204D61783A200020204D69D0
:102150006E3A2000536F667420656E6473746F70FE
:10216000733A20002568753A253032687500256875
:1021700075642025303268753A2530326875002044
:1021800020202020202000256C6425636D001FE0A6
:10219000201020102010102010202010201030308F
:1021A0000840048003001FE03FF03FF03FF01FE0D5
:1021B0001FE03FF03FF03FF00FC0078003003FFFFC
:1021C000F038007030FC3020FC10207810203010E7
:1021D0002C00D02E31D02F7BD02F7BD02E31D02C85
:1021E00000D020301020781020FC1030FC30380057
:1021F000703FFFF03FFFF0380070318630238710CA
:102200002787902F87D02F03D020301020781020E0
:1022100078102030102F03D02F87D0278790238766
:10222000103186303800703FFFF01FFFF81FFFF8B5
:1022300004104002082002082004104008208010EA
:1022400041001041000820800410400000001FFFE2
:10225000F81FFFF82053697A653A200043616E6EDB
:102260006F74206F70656E207375626469722000F0
:1022700053442063617264206F6B0A006F70656E57
:10228000526F6F74206661696C65640A00766F6CCA
:10229000756D652E696E6974206661696C65640A86
:1022A00000534420696E6974206661696C0A004DB0
:1022B00032332025730057726974696E6720746F1A
:1022C0002066696C653A200046696C652073656C10
:1022D00065637465640A0046696C65206F70656E9D
:1022E00065643A2000667265736800646F696E67A2
:1022F000004E6F772000454E4420535542524F55B3
:1023000054494E450A002220706F730022207061EC
:1023100072656E743A2200535542524F5554494EDD
:10232000452043414C4C207461726765743A220029
:10233000747279696E6720746F2063616C6C2073AE
:1023400075622D67636F64652066696C65732077BD
:1023500069746820746F6F206D616E79206C65768A
:10236000656C732E204D4158206C6576656C206934
:10237000733A310A0044656C6574696F6E2066615A
:10238000696C65642C2046696C653A200046696C6E
:10239000652064656C657465643A00506F7765729A
:1023A0002D6C6F73732066696C652064656C657451
:1023B00065004573746570732F6D6D005A73746595
:1023C00070732F6D6D005973746570732F6D6D0090
:1023D0005873746570732F6D6D00496E6974004D8C
:1023E00034323800496E697469616C697A652045D8
:1023F0004550524F4D0053746570732F6D6D004101
:102400006363656C65726174696F6E0056656C6FAD
:10241000636974790053657420486F6D65204F6659
:102420006673657473004661646520486569676812
:1024300074004732380A473239004C6576656C20A3
:102440004265640046616E205370656564004531E5
:102450003A200045303A20004D53312C4D53322C58
:102460004D53332050696E730A583A2000453100AD
:10247000626564002C2073797374656D2073746FCA
:102480007070656421204865617465725F49443AE3
:10249000200048656174696E67204661696C6564F7
:1024A0000048656174696E67206661696C656400E7
:1024B000202D20496E76616C696420657874727590
:1024C000646572206E756D62657220210A00544841
:1024D00045524D414C2052554E4157415900546888
:1024E00065726D616C2052756E617761790045721D
:1024F000723A204D415854454D50004D4158544575
:102500004D50207472696767657265640045727228
:102510003A204D494E54454D50004D494E54454D7D
:102520005020747269676765726564004D383420A5
:10253000582059205A2045000040012C01730122E7
:1025400001AB011801F3010E0148020401AC02FACB
:10255000002A03F000C303E6008004DC006D05D20E
:10256000006C06C800C707BE007009B4006D0BAA56
:1025700000CB0DA000CF138C00F21B7800E924647F
:1025800000142E50009C353C00B83A2800A03D14A1
:10259000000B3F00004D32342053256C642054253D
:1025A0006C64004739322E392045257300473120AD
:1025B000462564004739322E39205A2573004731A9
:1025C000205A3020463230300047312058257320C1
:1025D000592573204633303030004D34323020538B
:1025E0002569205A2573004D313036205025692049
:1025F000532569004739322E392045305A300A4771
:10260000315A320A47323852305859004D31303938
:1026100020532569004D31393020532569004D3252
:10262000303020442573004D343230205330205A4E
:10263000300020506F7765722D4C6F737320526598
:10264000636F7665727920446174610A00496E7621
:10265000616C6964004E6F0020496E76616C69643C
:102660002065787472756465722000202F00204206
:10267000403A0020403A0020573A007C3C3E5E2B16
:102680003D3F2F5B5D3B2C2A225C00486F74656EDA
:102690006420746F6F20636F6C640A004D363030B5
:1026A0003A20546F6F20436F6C64005072657373EF
:1026B00020627574746F6E20746F20726573756D0F
:1026C000650A00507265737320627574746F6E20B2
:1026D000746F2068656174206E6F7A7A6C650A0089
:1026E0004C6F616400506F7765722D6C6F7373204F
:1026F00066696C6520636C6F7365206661696C65E3
:10270000642E0A00506F7765722D6C6F73732066AC
:10271000696C65207772697465206661696C6564AF
:102720002E0A005772697465002D2D2D0A00494E3E
:1027300056414C494420444154410A007072696E2C
:10274000745F6A6F625F656C61707365643A2000E4
:102750007364706F733A200073645F66696C656EB2
:10276000616D653A20000A20666164653A20006C5C
:102770006576656C696E673A200066616E5F73709E
:102780006565643A20007461726765745F74656D95
:1027900070657261747572655F6265643A20007479
:1027A00061726765745F74656D706572617475726E
:1027B000653A200066656564726174653A20007050
:1027C0006F736974696F6E5F73686966743A20002D
:1027D000686F6D655F6F66667365743A2000637538
:1027E0007272656E745F706F736974696F6E3A2090
:1027F000002076616C69645F666F6F743A00204AEE
:102800006F62205265636F7665727920496E666FDC
:102810002E2E2E0A76616C69645F686561643A00E9
:102820004F46460A004661646520486569676874DA
:102830002000426564204C6576656C696E672000F7
:102840004661696C656420746F20656E61626C65B9
:1028500020426564204C6576656C696E670A0049A4
:102860006E76616C6964206D6573682E0A003F00A6
:1028700043616E63656C004D6F74696F6E004175E6
:10288000746F20486F6D65005374617274205072CC
:10289000696E740043616E6E6F7420656E7465724C
:1028A000207375626469723A2000022E2E004D3842
:1028B000340044697361626C65205374657070659F
:1028C000727300473238205A00486F6D65205A00F5
:1028D000473238205900486F6D652059004732381B
:1028E000205800486F6D6520580047323800565414
:1028F000726176204D696E00566D696E00566D618D
:1029000078204500566D6178205A00566D61782018
:102910005900566D6178205800416D61782045005E
:10292000416D6178205A00416D6178205900416DF8
:102930006178205800412D54726176656C00412DFC
:102940005265747261637400416363656C0056651F
:102950002D4A65726B00565A2D4A65726B005659A6
:102960002D4A65726B0056582D4A65726B00507285
:10297000696E74205061757365640050617573658C
:10298000205072696E74004D656469612052656DF6
:102990006F766564004D6564696120496E73657288
:1029A000746564005468696E6B65722056325F4EC0
:1029B000504E2052656164792E005072696E7469C0
:1029C0006E672E2E2E005072696E742041626F72F7
:1029D000746564004D323520500A4D3234004C6F1E
:1029E00061642053657474696E67730053746F7209
:1029F000652053657474696E6773004F6666004F97
:102A00006E00416476616E63656420536574746919
:102A10006E677300554E4C4F41442046494C414D22
:102A2000454E540046494C414D454E542043484183
:102A30004E474500526573746F7265206661696C1C
:102A40007361666500507265686561742041425328
:102A500020436F6E66005072656865617420504C4B
:102A60004120436F6E66004D37303220542564009C
:102A70004D36303020423020542564004D373032FE
:102A8000203B2564004D37303120542564004D37FC
:102A90003032004D373031004D363030204230007A
:102AA000436F6E74696E7565005075726765206D51
:102AB0006F726500524553554D45204F5054494F54
:102AC0004E533A005052494E5420504155534544BC
:102AD0000020204E6F7A7A6C653A20005061726B4C
:102AE000696E672E2E2E0000005761697420666F94
:102AF000720066696C616D656E74206368616E67F3
:102B00006500746F2073746172740057616974207A
:102B1000666F720066696C616D656E7420756E6CAF
:102B20006F616400004E6F7A7A6C6520686561742D
:102B3000696E6700506C6561736520776169742EFA
:102B40002E2E0000507265737320627574746F6E60
:102B500000746F2068656174206E6F7A7A6C65000E
:102B600000496E736572742066696C616D656E7480
:102B700000616E6420707265737320627574746F87
:102B80006E00746F20636F6E74696E7565005761B7
:102B9000697420666F720066696C616D656E742081
:102BA0006C6F6164000050726573732042757474B9
:102BB0006F6E00746F20726573756D652070726939
:102BC0006E7400005761697420666F7220707269BC
:102BD0006E7400746F20726573756D652E2E2E00F5
:102BE000005761697420666F720066696C616D657B
:102BF0006E742070757267650000000000000000B0
:102C00000000000000000000964300009643000012
:102C1000C8430000484200004842000080400202D1
:102C2000040000A0400000A04000000040FFFFFFA3
:102C30005761726E696E673A20486F6D696E6720E2
:102C400042756D702044697669736F72203C203143
:102C50000A0024F4D43050C38E20C2A24017828BC5
:102C60007011127A910D816CD90AA861E108C758D8
:102C70006607615143061E4B5D05C145A7041A4115
:102C80001104093D9803713931034036DB02653385
:102C90009102D4305402802E1D02632CEE01752A5D
:102CA000C501B028A001102781018F2564012B24C4
:102CB0004B01E0223401AC211F018D200D01801F4A
:102CC000FC00841EED00971DDF00B81CD200E61B3F
:102CD000C600201BBC00641AB200B219A8000A1971
:102CE000A0006A189900D117910040178B00B51603
:102CF000840031167E00B31579003A157300C714AD
:102D00006F0058146A00EE136600881363002513E1
:102D10005E00C7125B006C12570015125400C111FF
:102D2000510070114F0021114B00D61049008D1039
:102D300047004610440002104200C00F4000800FC0
:102D40003E00420F3C00060F3B00CB0E3800930EB6
:102D500037005C0E3500270E3400F30D3200C10D34
:102D60003100900D3000600D2E00320D2D00050D4C
:102D70002C00D90C2B00AE0C2900850C29005C0C12
:102D80002700350C27000E0C2600E80B2400C40B8E
:102D90002400A00B23007D0B23005A0B2100390BCC
:102DA0002100180B2000F80A1F00D90A1E00BB0AD8
:102DB0001E009D0A1D00800A1D00630A1C00470AB0
:102DC0001B002C0A1B00110A1A00F7091A00DD0962
:102DD0001900C4091900AB091900920917007B09F1
:102DE0001800630917004C0916003609160020095F
:102DF00016000A091500F5081500E0081400CC08B3
:102E00001400B8081400A4081400900813007D08EA
:102E100012006B081300580812004608120034080C
:102E20001100230811001208110001081100F00719
:102E30001000E0071000D0071000C0071000B00716
:102E40000F00A107100091070E0083070F00740701
:102E50000F0065070E0057070E0049070E003B07DD
:102E60000D002E070E0020070D0013070D000607AA
:102E70000D00F9060C00ED060D00E0060C00D4066E
:102E80000C00C8060C00BC060C00B0060C00A40622
:102E90000B0099060C008D060B0082060B007706CE
:102EA0000B006C060B0061060A0057060B004C066F
:102EB0000A0042060A0038060A002E060A00240606
:102EC0000A001A060A001006090007060A00FD0596
:102ED0000900F4050900EB050900E2050900D90520
:102EE0000900D0050900C7050900BE050900B505A0
:102EF0000800AD050800A50509009C05080094051B
:102F000008008C050800840508007C05080074058D
:102F100008006C050700650508005D0507005605FB
:102F200008004E0507004705070040050800380562
:102F30000700310507002A050700230507001C05C7
:102F40000600160507000F05070008050600020524
:102F50000700FB040600F5040700EE040600E80481
:102F60000600E2040700DB040600D5040600CF04D7
:102F70000600C9040600C3040600BD040600B70429
:102F80000600B1040500AC040600A6040600A00477
:102F900005009B04060095040500900406008A04C1
:102FA000050085040500800406007A040500750408
:102FB0000500700405006B0405006604050061044B
:102FC00005005C04050057040500520405004D048B
:102FD000050048040500430405003E0404003A04CB
:102FE000050035040500300404002C040500270406
:102FF0000400230405001E0404001A04040016043F
:103000000500110404000D04040009040500040473
:10301000040000040400FC030400F8030400F403AB
:103020000400F0030400EC030400E8030400E403DC
:103030000400E0030400DC030400D8030400D4030C
:103040000400D0030400CC030400C8030300C5033C
:10305000030024F404D9201BC40C5C0E9804C4099A
:103060005F0265077101F405F900FB04B300480431
:103070008700C10369005803550003034500BE02E1
:103080003A008402310053022A002902250004027A
:103090002000E4011C00C8011900AF0117009801CD
:1030A000140084011300710110006101100051012E
:1030B0000E0043010D0036010B002B010B00200117
:1030C0000B00150109000C01090003010800FB00B9
:1030D0000800F3000800EB000700E4000600DE0033
:1030E0000600D8000600D2000600CC000500C7008C
:1030F0000500C2000500BD000400B9000400B500D1
:103100000400B1000400AD000400A9000400A50003
:103110000300A20003009F0004009B00030098002E
:1031200003009500020093000300900003008D004F
:1031300002008B0003008800020086000200840069
:103140000300810002007F0002007D0002007B007E
:10315000020079000200770001007600020074008E
:10316000020072000100710002006F0002006D0099
:1031700001006C0002006A000100690002006700A3
:1031800001006600010065000100640002006200A9
:10319000010061000100600001005F0002005D00AD
:1031A00001005C0001005B0001005A0001005900B1
:1031B00001005800010057000100560001005500B1
:1031C00001005400010053000000530001005200B0
:1031D000010051000100500001004F0001004E00AD
:1031E00000004E0001004D0001004C0001004B00AA
:1031F00000004B0001004A000100490001004800A6
:1032000000004800010047000100460000004600A1
:10321000010045000000450001004400010043009A
:103220000000430001004200000042000100410094
:10323000000041000100400001003F0000003F008D
:1032400001003E0000003E0001003D0000003D0086
:1032500001003C0000003C0000003C0001003B007D
:1032600000003B0001003A0000003A000100390074
:10327000000039000100380000003800000038006C
:103280000100370000003700010036000000360062
:103290000000360001003500000035000000350058
:1032A000010034000000340000003400010033004D
:1032B0000000330000003300010032000000320043
:1032C0000000320001003100000031000000310038
:1032D00001003000000030000000300001002F002D
:1032E00000002F0000002F0000002F0001002E0022
:1032F00000002E0000002E0001002D0000002D0017
:1033000000002D0000002D0001002C0000002C000A
:1033100000002C0000002C0001002B0000002B00FE
:1033200000002B0000002B0001002A0000002A00F2
:1033300000002A0000002A000100290000002900E6
:1033400000002900000029000000290001002800D9
:1033500000002800000028000000280000002800CD
:1033600001002700000027000000270000002700C0
:1033700000002700010026000000260000002600B3
:1033800000002600000026000100250000002500A6
:103390000000250000002500000025000000250099
:1033A000010024000000240000002400000024008C
:1033B000000024000100230000002300000023007F
:1033C0000000230000002300000023000000230071
:1033D0000100220000002200000022000000220064
:1033E0000000220000002200010021000000210056
:1033F0000000210000002100000021000000210049
:10340000000021000100200000002000000020003A
:10341000000020000000200000002000000020002C
:103420000000200001001F0000001F0000001F001E
:1034300000001F0000001F0000001F0000001F0010
:1034400001001E0000001E0000001E0000001E0003
:103450000000043700001E290000511B0000581016
:10346000000010090000CC040000780200004101B7
:1034700000004D6963726F737465707320756E61BF
:103480007661696C61626C650A006F70656E2066BA
:1034900061696C65642C2046696C653A2000436163
:1034A000703A0050726F6265204F666673657420D3
:1034B0005A0050726F6265204F66667365745A3A9F
:1034C00020003F5A206F7574206F662072616E670E
:1034D000652028003F59206F7574206F6620726147
:1034E0006E676520282D0020746F20003F58206FE4
:1034F0007574206F662072616E676520282D0050FC
:10350000726F6265204F6666736574205800656E41
:103510007175657565696E672022006F6B00526575
:1035200073656E643A200025697920256964202539
:1035300069682025696D2025697300426564204310
:103540006F6F6C696E672E2E2E0042656420486591
:103550006174696E672E2E2E006F70656E00545276
:1035600049474745524544007A5F6D696E00795F6F
:103570006D696E00785F6D696E005265706F727470
:10358000696E6720656E6473746F70207374617404
:1035900075730A0020436F756E7420583A002045F9
:1035A0003A00486F6D696E67204661696C6564001A
:1035B000506C6561736520526573657400505249A3
:1035C0004E5445522048414C5445440025533A201E
:1035D0002553004B494C4C45442E20005072696ED7
:1035E0007465722068616C7465642E206B696C6C04
:1035F00028292063616C6C6564210A006563686F2B
:103600003A004572726F723A0042696C696E656188
:1036100072204C6576656C696E6720477269643A02
:103620000A005072696E742066726F6D204D656479
:10363000696100205A3A200020593A20004265640E
:1036400020583A200050726F62696E6720466169A7
:103650006C65640A0050726F62696E67204661692A
:103660006C656400486F6D65202573257325732094
:10367000466972737400496E736572742066696C72
:10368000616D656E7420616E642070726573732065
:10369000627574746F6E0A00220A00556E6B6E6F4D
:1036A000776E20636F6D6D616E643A202200205446
:1036B0000020520048617264636F64656420446551
:1036C0006661756C742053657474696E6773204C01
:1036D0006F616465640A0020204D3630332000207D
:1036E000550046696C616D656E74206C6F61642F66
:1036F000756E6C6F6164206C656E677468733A0AEE
:103700000020204D3835312058005A2D50726F62FC
:1037100065204F66667365740020204D3431332078
:103720005300506F7765722D4C6F73732052656331
:103730006F766572793A0A0020204D33303420507C
:103740000020204D33303120500050494420736513
:103750007474696E67733A0A00204600204800209E
:10376000204D3134352053004D6174657269616CB0
:103770002068656174757020706172616D65746533
:1037800072733A0A00204A0020204732392057201D
:10379000490020204D3432302053004175746F2091
:1037A000426564204C6576656C696E673A0A002054
:1037B000204D323036205800486F6D65206F6666A8
:1037C0007365743A0A0020204D32303520420020C3
:1037D000453C6D61785F655F6A65726B3E0020589D
:1037E0003C6D61785F785F6A65726B3E20593C6D15
:1037F00061785F795F6A65726B3E205A3C6D6178D3
:103800005F7A5F6A65726B3E00416476616E6365E4
:10381000643A20423C6D696E5F7365676D656E74D6
:103820005F74696D655F75733E20533C6D696E5FB3
:1038300066656564726174653E20543C6D696E5FB7
:1038400074726176656C5F66656564726174653E0D
:103850000020204D323034205000416363656C6598
:10386000726174696F6E2028756E6974732F73327C
:10387000293A20503C7072696E745F616363656CB5
:103880003E20523C726574726163745F616363656C
:103890006C3E20543C74726176656C5F6163636555
:1038A0006C3E0A0020204D3230312058004D6178A6
:1038B000696D756D20416363656C65726174696FD4
:1038C0006E2028756E6974732F7332293A0A0020AE
:1038D000204D3230332058004D6178696D756D2070
:1038E0006665656472617465732028756E697473AA
:1038F0002F73293A0A005374657073207065722023
:10390000756E69743A0A0020204D32303020443000
:103910000A0020204D323030204400204469736179
:10392000626C65640A0046696C616D656E74207333
:10393000657474696E67733A0020204D3134392004
:1039400043203B20556E69747320696E2043656C7B
:10395000736975730A0020286D6D29002020473295
:1039600031202020203B20556E69747320696E2021
:103970006D6D00000096430000964300000C42006D
:1039800000C8410000A0420000A0420000C843005F
:1039900000BA42DC050000DC05000096000000DCF7
:1039A00005000000A4013C0211241FBECFEFD1E2AC
:1039B000DEBFCDBF00E00CBF13E0A0E0B2E0E8E363
:1039C000F0E702E00BBF02C007900D92A035B107EF
:1039D000D9F726E1A0E5B3E001C01D92AA35B207F0
:1039E000E1F71CE1C3EDDCE100E006C0219701092D
:1039F000802FFE010F945C34C23DD10780E00807A0
:103A0000A9F70F9402200D940A380C9400002F920D
:103A10003F924F925F926F927F928F929F92AF925E
:103A2000BF92CF92DF92EF92FF920F931F93CF93AB
:103A3000DF93CDB7DEB7C555D1090FB6F894DEBF19
:103A40000FBECDBF66968FAF66972091D115259694
:103A50002FAF259791E09093D11580918B148D34E1
:103A600009F40DC4843511F40C94C52E873411F07B
:103A70000C94E02E2090891430908A143BE1231698
:103A8000310409F418C1C4F454E02516310444F497
:103A900082E0281631040CF041C037FE33C0EBC37E
:103AA00094E02916310409F4C7C0A5E12A163104AF
:103AB00011F40C94E22EDFC3BAE22B16310409F4A0
:103AC000B3C26CF4FDE12F16310409F41EC10CF4ED
:103AD0000CC13EE12316310409F42BC1CCC34BE5E4
:103AE0002416310409F4EAC15CE52516310409F411
:103AF000EAC18AE52816310409F0BDC310925903C2
:103B00000C94E22E80911802882311F40C94E22E7A
:103B10000E9491A70E9495FD0C94E22E80911802BC
:103B2000882311F40C94E22E0E9491A782E50E9452
:103B3000DABB882309F44EC00E9482B96B017C0174
:103B400020E030E0A9010F94772D882311F40C9424
:103B5000AE2F2091DB053091DC054091DD055091C1
:103B6000DE052CA33DA34EA35FA38091DF059091BA
:103B7000E005A091E105B091E20588A799A7AAA761
:103B8000BBA78090340E9090350EA090360EB0906A
:103B9000370E4090380E5090390E60903A0E70906B
:103BA0003B0EA50194016CA17DA18EA19FA10F9454
:103BB000772D81110C94EF2EA301920168A579A5B0
:103BC0008AA59BA50F94772D882311F40C94AE2F12
:103BD0000C94EF2E89E40E94DABB882329F00E941E
:103BE00082B96B017C0103C0C12CD12C76018AE41F
:103BF0000E94DABB882311F40C94B52F0E9482B97D
:103C00006CA77DA78EA79FA720E030E0A901C70180
:103C1000B6010F94772D81110C94C22F20E030E073
:103C2000A9016CA57DA58EA59FA50F94772D811167
:103C30000C94C22F0C94AE2F80E50E94DABB88232F
:103C400029F00E942A806B017C0103C0C12CD12C79
:103C5000760183E50E94DABB882361F00E9482B975
:103C600020E030E04AE754E40F94DD2D0F94E03576
:103C70006B017C010E94BBE08091BC0D811105C0ED
:103C800060E089E496E00E9414D30E94B17BC60EE6
:103C9000D71EE81EF91E0E94B17BDC01CB018C19F6
:103CA0009D09AE09BF09B7FD02C00C94E22E80E069
:103CB0000E94FD36F0CF0F94611181110C94E22E19
:103CC0008CE0E2E7F2E0DE01119601900D928A9518
:103CD000E1F760E070E080E50E94AEAEBE016F5F8C
:103CE0007F4F0E94EAD10C94E22E8091CE1587700E
:103CF000873011F00C944F3360E08FE40E94E7BBF3
:103D000081110C94E22E0C944F330F9461118111A8
:103D10000C94E22E8091590E882311F40C94E73311
:103D200060E08FE40E94E7BB81110C94E22E0C94BA
:103D3000E7332091BD153091BE154091BF155091CC
:103D4000C0156091DB057091DC058091DD059091D7
:103D5000DE050F946D34AB01BC0188E50E94B149CA
:103D600069837A838B839C832091C1153091C2151E
:103D70004091C3155091C4156091DF057091E00525
:103D80008091E1059091E2050F946D34AB01BC0187
:103D900089E50E94B1496D837E838F839887BE0138
:103DA0006B5F7F4FCE0101960E94BE80882311F485
:103DB0000C94E22E80E00F94510A0F94890061E088
:103DC00085E40E94E7BB182F21E0482FBE016B5FFE
:103DD0007F4FCE0101960F9417126B017C019B015E
:103DE000AC010F945F3781115FC089809A80AB80EE
:103DF000BC8020E030E0A901C501B4010F94772D0B
:103E000087FF05C027E137EB41E558EB04C027E108
:103E100037EB41E558E3C501B4010F946D34AB01B4
:103E2000BC018DE396E30F94990E8D809E80AF8048
:103E3000B88420E030E0A901C501B4010F94772DCA
:103E400087FF05C027E137EB41E558EB04C027E1C8
:103E500037EB41E558E3C501B4010F946D34AB0174
:103E6000BC0188E396E30F94990E20E030E0A901AD
:103E7000C701B6010F94772D87FF05C067E177EB87
:103E800081E598EB04C067E177EB81E598E3A70152
:103E900096010F946D34AB01BC0183E396E30F945C
:103EA000990E8AE00E94D1350F947000113011F400
:103EB0000E9435DE0F9453020C94E22E8FE0809323
:103EC00059030C94E22E80918814882349F189309B
:103ED00009F0A6C04EE7A42E42E0B42E5BEDE52E1D
:103EE00055E0F52ED12C00E010E0D5018D915D015B
:103EF0000E94DABB882369F00E9482B9F7016083CF
:103F0000718382839383133011F401E002C0DD24B6
:103F1000D3941F5FF4E0EF0EF11C143031F775C03D
:103F20009EE7292E92E0392E28E2E22E2EE0F22E94
:103F30002BED35E03DA32CA331EBC32E35E1D32E81
:103F400000E010E0D1018D911D010E94DABB8823B1
:103F500009F44BC00E9482B92B013C01133049F097
:103F6000F60120813181428153810F946C342B0101
:103F70003C01ACA1BDA12D913D914D915C91C3013E
:103F8000B2010F946C344B015C012DEB37E346E832
:103F900055EB0F94CD3687FD0AC02DEB37E346E88D
:103FA00055E3C501B4010F94772D1816F4F41330BE
:103FB00051F44092E7055092E8056092E90570924D
:103FC000EA0501E012C0A5019401F7016081718149
:103FD000828193810F946D34D7016D937D938D937E
:103FE0009C931397812F0E94F5E41F5FB4E0EB0EC2
:103FF000F11CECA1FDA13496FDA3ECA3F4E0CF0EDF
:10400000D11C143009F09ECF05C0DD2019F00F94AB
:10401000510206C0002321F087EE95E00E94CCE01B
:104020000F9453020C94E22E80911802882311F40D
:104030000C94E22E89E40E94DABBE82E882321F05A
:104040000E947EB9082F01C000E08AE40E94DABB1A
:10405000F82E882321F00E947EB9182F01C010E0AD
:10406000EE2011F0053020F4FF2041F0153030F043
:1040700082E596E00F94E10D0C94E22E80E1EBEDE9
:10408000F5E0A4E3BEE001900D928A95E1F7EE2001
:1040900019F1602F000F770B880B990B0F947E2D71
:1040A0002091DA153091DB154091DC155091DD152A
:1040B0000F94DD2D209114043091150440911604C5
:1040C000509117040F946D346093340E7093350E35
:1040D0008093360E9093370EFF2019F1612F110F48
:1040E000770B880B990B0F947E2D2091DE15309164
:1040F000DF154091E0155091E1150F94DD2D2091D1
:1041000018043091190440911A0450911B040F9423
:104110006D346093380E7093390E80933A0E9093FD
:104120003B0E60E080E50E94E7BB8823C1F1EE20F2
:10413000D1F02091BD153091BE154091BF15509121
:10414000C0156091340E7091350E8091360E9091AD
:10415000370E0F946C346093340E7093350E809349
:10416000360E9093370EFF20D1F02091C11530917B
:10417000C2154091C3155091C4156091380E7091CD
:10418000390E80913A0E90913B0E0F946C346093EF
:10419000380E7093390E80933A0E90933B0E40E0A8
:1041A00050E0BA0186E40E94B1496B017C0120E035
:1041B00030E0A9010F94CD3618165CF420E030E011
:1041C00040E752E4C701B6010F9467356B017C01EB
:1041D00003C0C12CD12C760180906E0290906F02AA
:1041E000A0907002B090710220E030E0A901C701F8
:1041F000B6010F94772D882341F0C0926E02D092C1
:104200006F02E0927002F092710200915D021091D3
:104210005E0284E690E090935E0280935D02C0901F
:104220000C02D0900D02E0900E02F0900F0280E0A0
:1042300090E0A0E8BFE380930C0290930D02A0935E
:104240000E02B0930F020E9495FD80926E02909232
:104250006F02A0927002B092710210935E020093FE
:104260005D02C0920C02D0920D02E0920E02F0921A
:104270000F020C94E22E0F9466100C94E22E009123
:10428000891410918A140D37110509F499C60CF0A0
:1042900027C10135110509F496C60CF09FC00A31FB
:1042A000110509F495C3BCF50431110509F4EEC2FA
:1042B0008CF40131110509F4E5C234F40230110522
:1042C00008F464C20C94C22E0231110509F4A3C68D
:1042D0000C94C22E0731110509F4FDC294F4053186
:1042E000110509F4F4C20631110511F00C94C22E27
:1042F0000E94D3928091AA11877F8093AA110C9477
:10430000E22E0831110509F4FCC20931110509F446
:1043100054C30C94C22E0032110509F4D1C30CF021
:1043200041C00D31110509F4B4C39CF40B311105E2
:1043300009F45CC30C31110511F00C94C22E40E05D
:1043400060E080918614909187140E942B950C94C4
:10435000E22E0E31110509F4A3C30F31110511F03E
:104360000C94C22E0E94F2616C8F7D8F8E8F9F8F76
:10437000BE016F5F7F4FCE014C960E94B8F560E0A2
:10438000CE0101960E949BD30F94CE0EBE016F5FAB
:104390007F4F80EE96E00F94B70E8AE00E94D135F1
:1043A0000C94E22E0C34110509F4E7C36CF40A32C4
:1043B000110509F4BFC30B34110511F00C94C22E82
:1043C0000E9432350C94E22E0D34110509F4D9C344
:1043D0000E34110509F4D9C30C94C22E0D36110503
:1043E00009F489C49CF50C35110509F430C684F430
:1043F0000335110509F408C60CF4FFC50435110591
:1044000009F409C60535110509F408C60C94C22E35
:104410000A36110509F4E2C454F40836110509F40A
:1044200046C40936110509F4C3C40C94C22E0B36D8
:10443000110509F4F6C40C36110511F00C94C22EC6
:104440001092D01510920B020C94E22E0337110536
:1044500009F49BC6F4F40037110509F445C554F47A
:104460000E36110509F4EAC40F36110509F4F7C434
:104470000C94C22E0137110509F441C5023711050C
:1044800011F00C94C22E0E94BBE00F9453020C94C6
:10449000E22E0737110509F423C78CF405371105FF
:1044A00009F4DCC60637110511F00C94C22E0091F8
:1044B00086141091871494E0F12C40E0F5C608377B
:1044C000110509F410C70937110511F00C94C22E1B
:1044D00010924304109242040F9494030C94E22E21
:1044E000003921E0120711F40C94892C0CF08FC0D4
:1044F000033D110511F40C94882A0CF03FC0083CD0
:10450000110509F453C7C4F40139110509F4F3C6C0
:1045100034F40C38110509F414C50C94C22E0B396F
:10452000110509F427C50E3B110511F00C94C22E9C
:104530000E94DBF30C94E22E0C3C110509F4C8C771
:1045400054F4093C110509F47EC70B3C110509F42C
:10455000A0C70C94C22E0D3C110509F4BCC70E3C3B
:10456000110511F00C94C22E4EE7C42E42E0D42E59
:1045700057E4E52E54E0F52E10E0B0C70D3241E0CF
:10458000140711F40C94522BECF4023E110511F4B3
:104590000C94EE2A54F40C3D110509F4BCC70D3DF2
:1045A000110509F4C5C70C94C22E023281E0180728
:1045B00011F40C943A2B0C32114011F40C943D2B55
:1045C0000C94C22E0033A1E01A0711F40C94D22BE4
:1045D0007CF40E32E1E01E0711F40C94452C0F32EE
:1045E000114011F00C94C22E0E94C8490C94E22E86
:1045F0000E3521E0120711F40C94272E0F351140CF
:1046000011F00C94C22E0E94C1AE0C94E22E083F11
:1046100041E0140711F40C945F2D0CF05BC0053AD7
:1046200081E0180711F40C94922C4CF50A39A1E0A2
:104630001A0709F461C4A4F40139E1E01E0711F47A
:104640000C948C2C0239114011F00C94C22E80E095
:104650000E947DDE0E9435DE0F9453020C94E22E00
:104660000D3921E0120711F40C946A2E043A11401E
:1046700011F00C94C22E0E9402BA0C94E22E053F57
:1046800041E0140711F40C94592D7CF40C3A81E0AC
:10469000180711F40C94FB2C043F114011F00C94FA
:1046A000C22E0E94FB560C94E22E063FA1E01A0790
:1046B00011F40C945C2D073F114011F00C94C22EA4
:1046C00061E083E50E94E7BB91E089270F945917C9
:1046D0000C94E22E0335E3E01E0711F40C94772DC1
:1046E0002CF50B3522E0120711F40C947A2D7CF492
:1046F0000C3042E0140711F40C946F2D0835124071
:1047000011F00C94C22E0E94E9AC0C94E22E0D3BE9
:1047100082E0180711F40C94F32D0E3B124011F0B7
:104720000C94C22E0E94C7AA0C94E22E003AA3E079
:104730001A0709F4EFC1DCF40B38E3E01E0711F4AB
:104740000C94F62D0C38134011F00C94C22E60E03E
:1047500070E083E50E94F3818C0160E070E080E509
:104760000E94F381B8010E94D9E60C94E22E073E24
:1047700023E0120711F40C945C2E083E134011F054
:104780000C94C22E0E94D4A80C94E22EA090861401
:10479000B090871480E50E94DABB882359F00E940C
:1047A0002A806B017C0111E0672B682B692B31F4A7
:1047B00010E004C010E0C12CD12C760183E50E94EA
:1047C000DABB882311F40C94EA330E9482B920E00A
:1047D00030E04AE754E40F94DD2D0F94E0356B018F
:1047E0007C0111110BC0672B682B692B39F4A114C4
:1047F000B10421F0D5018C91811102C010E001C0FB
:1048000011E00E94BBE0112329F061E0C5010E9484
:104810009BD305C060E081E796E00E9414D310911D
:10482000D11583E08093D11581E08093D015C11418
:10483000D104E104F104B1F00E94B17BC60ED71E91
:10484000E81EF91E0E94B17BDC01CB018C199D0989
:10485000AE09BF09B7FF0EC08091D01581110C942D
:10486000EF3308C08091D015882321F080E00E94AA
:10487000FD36F8CF0E94C0D31092D0151093D115F9
:104880000C94E22E0E944B7F0C94E22E83E996E07A
:104890000F94E10D87EC91E10E9413B18BE1E7ECFD
:1048A000F1E1DE01119601900D928A95E1F760E049
:1048B00070E0CE0101960E944C96CE0101960E94B6
:1048C0002ABD84E896E00F94E10D0C94E22E0E943C
:1048D00044930C94E22EE0918614F0918714808129
:1048E000882329F0803209F410823196F8CF40E015
:1048F00061E080918614909187140E942B950C940E
:10490000E22E83E50E94DABB882321F00E944AB997
:104910000E9497F684E50E94DABB8823A9F00E94E2
:104920004AB96B017C010E942662C0925E0ED09251
:104930005F0EE092600EF092610ECD28CE28CF2857
:1049400019F081E08093660E8091F90B8823E9F0DD
:1049500080E090E0A8ECB2E488A399A3AAA3BBA34B
:104960001C8E1D8E1E8E1F8E19821A821B821C8227
:1049700020E0AE01405E5F4FBE01645E7F4FCE011E
:1049800001960E94D5BD0C94E22E0E940E3588231C
:1049900081F00E94E4920E94323583EA9CE00E94FA
:1049A0008992109290141092911410929214109275
:1049B00093140E94C0D30C94E22E8091AA1182FF1E
:1049C00003C08B7F8093AA110E94E1AD0C94E22E6C
:1049D0008091AA1183FD02C00C94E22E83E50E940F
:1049E000DABB81110C94F4330C94E22E83E40E9420
:1049F000B9B9882319F18EEA96E00F94E10D809100
:104A00000E13882391F0BE016F5F7F4F8BE093E11F
:104A10000E94DAAF8E010F5F1F4FF80181918F0165
:104A2000882339F00E94D135F8CF84EA96E00F94BC
:104A3000E10D8AE00E94D1350C94E22E8091AA11FA
:104A400082FF21C08DEB96E00F94E10D6091A611DD
:104A50007091A7118091A8119091A9114AE00E942C
:104A6000D8358FE20E94D1356091A2117091A311C7
:104A70008091A4119091A5114AE00E94D8350E941E
:104A8000D6360C94E22E8FEC96E00F94E10D0C9448
:104A9000E22E8091AA118E7F8093AA110C94E22EAF
:104AA0008091AA1183FD02C00C94E22E0E942F7700
:104AB00080918614909187140E945D940C94E22E4C
:104AC0008091AA1182FD0E94BBE08091AA1183FD12
:104AD00002C00C94E22E60E080E50E94E7BB182F34
:104AE000482F61E080918614909187140E942B9545
:104AF00083E50E94DABB882321F00E944AB90E9414
:104B000097F60E94E49211110C94E22E0E94323525
:104B10000C94E22E20918614309187149091AA1162
:104B200092609093AA1140E060E0C9010E942B9529
:104B30000C94E22E83E50E94DABB882311F40C94D6
:104B4000E22E0E945AB9F82E6DE070E080E50E94D6
:104B5000F3818C0197FF02C00C94E22EE82E60E0F6
:104B600089E40E94E7BB81110C94F933802F0F94E4
:104B7000B61F811150C50C94F9330E9441620C9408
:104B8000E22E0E947DDF0C94E22E60E070E083E56F
:104B90000E94F3818E34910531F40E94EEDF0E9471
:104BA000C0D30C94E22E83E497E00F94E10D609162
:104BB0003204709133048AE397E00F948C0E609175
:104BC0003404709135048DE297E00F948C0E60915F
:104BD0003204709133048091340490913504681B41
:104BE000790B8091660E815021E030E0823010F028
:104BF00020E030E0621B730B82E297E00F948C0E92
:104C00008AE00E94D13583E497E00F94E10D809112
:104C1000360490913704A0913804B09139048C8FF8
:104C20009D8FAE8FBF8FBE016F5F7F4FCE014C96C1
:104C30000E94B8F5BE016F5F7F4F85E197E00F944A
:104C4000B70E80913A0490913B04A0913C04B0913E
:104C50003D048C8F9D8FAE8FBF8FBE016F5F7F4FE6
:104C6000CE014C960E94B8F5BE016F5F7F4F85E084
:104C700097E00F94B70E20E030E04AE754E46091EB
:104C80003E0470913F0480914004909141040F9440
:104C90006735AB01BC018DEE96E00F94990E8DE661
:104CA0000E94D1358AE00E94D1350C94E22E809189
:104CB000540B83FF02C00C94E22E0E94ABA887FF26
:104CC00002C00C94E22E83E50E94DABB882379F0BF
:104CD0000E9482B90F94D9358B01CB010E9442B555
:104CE0000635110524F40E947DDF0E94C0D30F9485
:104CF0007A270C94E22E8091540B83FF02C00C940F
:104D0000E22E0E94ABA8F82E87FF02C00C94E22E80
:104D100083E50E94DABB082F811106C082E50E945C
:104D2000DABB182F8823C1F10E9482B90F94D935BC
:104D3000CB010E9442B50E9482B920E030E04AEAED
:104D400052E40F94772D181614F40C9412340E9428
:104D50007DDF0E94C0D36091430670914406072E08
:104D6000000C880B990B0F947E2D4B015C01409039
:104D70003F06509040066090410670904206A301A5
:104D800092010F94CD36181614F40C94303400238D
:104D900011F40C94163411E00F947A27112311F4B6
:104DA0000C94E22E602F8F2D0E94CAB50C94E22E37
:104DB0000E94ABA8182F87FD0AC08BE195E30F94E2
:104DC000E10D812F0E9453B58AE00E94D1352596CE
:104DD000FFAD2597F093D1150C94893460E080E500
:104DE0000E940282182F823010F00C94E22E81E48F
:104DF0000E94B9B9882321F06091240670E002C0B6
:104E00006FEF70E083E50E94AEAEE12FF0E0EC5D65
:104E1000F94F8F3F910519F010F08FEF90E08083EC
:104E2000D1C760E080E50E940282823008F0CAC7E4
:104E3000E82FF0E0EC5DF94F1082C4C78EE40E94C9
:104E4000DABB882309F4BEC70E944AB960931815DB
:104E50007093191580931A1590931B15B3C783E5AA
:104E60000E94B9B9882331F060E083E50E94028294
:104E70008093540B0F94CE0E84E597E00F94E10DD0
:104E80008091540B882369F18AE8E82E8AE0F82E95
:104E900000E010E020E08091540B90E0A0E0B0E052
:104EA000002E04C0B695A795979587950A94D2F7DA
:104EB00080FF0EC0DD24D394D20E222319F08CE2A1
:104EC0000E94D135F701859194910F94E10D2D2D1C
:104ED0000F5F1F4F32E0E30EF11C05301105D9F6CC
:104EE000A8CD80E597E0A3CD41E060E070E08BE5E0
:104EF00097E00F94F60E66C70E94CC3463C783E533
:104F00000E94DABB882371F00E945AB9282F30E042
:104F10002D3331051CF48093000254C78CE3809339
:104F2000000250C70F94CE0E4091000250E060E0A6
:104F300070E089E697E00F947B0E8AE00E94D135FD
:104F400041C78091540B83FD3DC783E50E94DABBC6
:104F5000882309F437C70E9482B90F94D9356C3879
:104F600071050CF48B0110937C0D00937B0D0E9456
:104F70005F9D28C783E50E94DABB882309F422C716
:104F80000E945AB9182F90E0CD970CF01CE31093B3
:104F900054030E94B17B6B017C01212F30E0A8EE0D
:104FA000B3E00F94FA33C60ED71EE81EF91EC09266
:104FB0005003D0925103E0925203F092530302C780
:104FC0000E94E1ADFFC60E94E69D0E947DDF0E9427
:104FD00037E20E9409351092CD151092CC1510922F
:104FE000CB1568EE73E080E090E00F94BD0D60E0BB
:104FF00080E797E00E9414D3E5C6809159038F7D26
:10500000806180935903DEC6809159038F7E806250
:1050100080935903D7C60E94F97ED4C683E50E94C7
:10502000B9B9882309F4CEC60E9482B920E030E0E5
:105030004AE754E40F94DD2D0F94E0356093550357
:10504000709356038093570390935803BBC60E94F6
:10505000ABA887FDB7C690918C1494FD04C09091C5
:105060008E1497FF0AC01EE7C12E12E0D12E05E56F
:10507000E02E0BE0F02E10E009C090918F14937099
:1050800091F7682F81E00E94797F9CC6D6018D91AF
:105090006D010E94DABB882309F46DC0133009F05A
:1050A00063C00E9482B94B015C0120E030E040EA1D
:1050B00051E40F94772D87FF4EC0A50194016091B4
:1050C000750B7091760B8091770B9091780B0F9404
:1050D00067352B013C019B01AC0160910806709182
:1050E000090680910A0690910B060F94DD2D6093BE
:1050F00008067093090680930A0690930B06A30195
:1051000092016091850B7091860B8091870B909135
:10511000880B0F94DD2D6093850B7093860B809325
:10512000870B9093880B60911806709119068091F7
:105130001A0690911B060F947C2DA30192010F94E7
:10514000DD2D0F94E0356093180670931906809357
:105150001A0690931B068092750B9092760BA09284
:10516000770BB092780B07C00E9482B9F701648B6D
:10517000758B868B978B1F5FF4E0EF0EF11C14305C
:1051800009F084CF0E9497E01DC681EA98E00F9451
:10519000E10D60E081E998E00E942EFB60E08CE781
:1051A00098E00E942EFB61E08FEE93E20E942EFBBE
:1051B00061E081E798E00E942EFB61E081E698E0E3
:1051C0000E942EFB60E088E598E00E942EFB61E0E3
:1051D0008EE498E00E942EFB61E084E498E00E9457
:1051E0002EFB61E08CE398E00E942EFB61E08EE2F2
:1051F00098E00E942EFB60E080E298E00E942EFB87
:1052000060E081E198E00E942EFB60E083E098E09E
:105210000E942EFB60E08DEE97E00E942EFB60E086
:105220008CED97E00E942EFB60E08DEC97E00E94F1
:105230002EFB60E088EB97E00E942EFB61E085EAA0
:1052400097E00E942EFB60E088E997E00E942EFB29
:1052500060E084E897E00E942EFBB4C5809186143C
:1052600090918714009709F4A4CBDC012C912223A0
:1052700009F49FCB60E00E949BD3A4C5F801808114
:10528000282F2B7F213499F08035E9F481818053D8
:105290008A30C8F498012E5F3F4F89012F5F3F4F3E
:1052A000F80180818032C9F3915041F70CC021810F
:1052B000213349F4813421F0853461F741E0EACFAC
:1052C000FF24F394E7CF41110F94CE0EFF2021F07D
:1052D0008BE699E00F94E10DC8010E94DC3672C59F
:1052E0000F9473036FC581E080934304809342045D
:1052F0000F94940367C560E070E083E50E94F3813A
:105300008C011127023011053CF00F94CA0E8FE674
:1053100099E00F94E10D56C588E40E94DABB88231A
:10532000A9F00E947EB98A3A91053CF08530F1E0FF
:105330009F072CF084E091E002C08AEA90E0F80137
:10534000EE0FFF1FE055F44F9183808386E40E94A7
:10535000DABB882381F00E947EB997FD07C08F3F9A
:10536000910529F024F08FEF90E001C080E0F80172
:10537000E651FA4E808382E40E94DABB882309F466
:1053800021C50E947EB98530910534F08D38910594
:105390002CF08CE890E002C085E090E0F801EE0F80
:1053A000FF1FE451FA4E918380830CC50E94ABA885
:1053B000182F87FD07C584E40E94B9B9882309F432
:1053C0003FC00E9482B96B017C0101E020E030E027
:1053D000A9010F94772D811101C000E00093500EB8
:1053E00020E030E0A901C701B6010F94772D882392
:1053F00039F10E9482B924E01202F0011124EB5A23
:10540000F14F608371838283938320E030E0A901B0
:105410006091550E7091560E8091570E9091580ED6
:105420000F94772D81110CC080E090E0A0EEBFE3D7
:105430008093550E9093560EA093570EB093580E2E
:105440000E9419DDBFC40E94ABA887FDBBC47EE7E4
:10545000E72E72E0F72E05E51BE0E5E6CE2EEBE049
:10546000DE2ED7018D917D010E94B9B9882359F0B4
:105470000E9482B90F94E035F801608371838283C2
:1054800093830E9450E00C5F1F4FC016D10649F76E
:1054900099C40E94ABA887FD95C46EE7E62E62E032
:1054A000F62E05E51BE0D7018D917D010E94B9B96B
:1054B000882339F00E9482B9F80164A375A386A3FA
:1054C00097A30C5F1F4FFBE005361F0761F77AC4F7
:1054D0000E94B47F77C40E943A8074C4D6018D9133
:1054E0006D010E94B9B9882351F00E9482B9F70179
:1054F0006083718382839383812F0E94F5E41F5F11
:10550000F4E0EF0EF11C133049F70F9453025AC424
:105510000E940A7E57C483E50E94DABB882309F4FF
:1055200051C40E947EB990935E0280935D024AC48A
:105530000E94ABA8F82E87FD45C483E50E94DABB24
:105540000F2D0F2C000C110B882369F10E947EB9DE
:10555000F801EE0FFF1FEC5DFD4F91838083000F7C
:10556000111F000F111F9801245F3D4F7901BC01ED
:10557000990F880B990B0F947E2D2AE037ED43E2AB
:105580005CE30F94DD2DF801EF5AF14F208131815A
:10559000428153810F94DD2DD7016D937D938D93BF
:1055A0009C9313970FC40F94CE0E85E40E94D135BF
:1055B00080E38F0D0E94D135F801EE0FFF1FEC5DE7
:1055C000FD4F6081718181E999E00F94AA0E85E217
:1055D0000E94D1358AE00E94D135F4C380E50E9453
:1055E000B9B9882309F4EEC360E070E080E50E9459
:1055F000F381F82E6FEF7FEF83E50E94F3818C013A
:105600000196039708F0DEC3F7FCDCC38F2D0F94DF
:10561000B61F882339F00F94CA0E89E999E00F94D8
:10562000E10DD0C30E94BBE060E08F2D0E94727A32
:105630000F3FBFEF1B0731F00130110571F000E0A3
:1056400010E00DC08F2D0F94512731E020E0892B01
:1056500009F030E0032F122F02C001E010E08F2D7F
:105660000F9451278017910709F4ACC380E00E9482
:10567000FD36F5CF0E947BFAA5C364E071E083E5B7
:105680000E94AEAE8C0168EE73E080E50E94AEAE83
:105690008938E3E19E0710F088E893E1B8010E94A1
:1056A000E7D290C360E085E40E940282811173C05A
:1056B00080E50E94B9B9882351F00E9482B96093B5
:1056C000460670934706809348069093490689E4FE
:1056D0000E94B9B9882381F00E9482B92CEA35EC86
:1056E00047E25EE30F94DD2D60934A0670934B060C
:1056F00080934C0690934D0684E40E94B9B98823A8
:1057000081F00E9482B92CEA35EC47E25EE30F9407
:10571000673560934E0670934F06809350069093C2
:1057200051060F94CE0E4091460650914706609167
:105730004806709149068EEB9CE10F94990E2CEA75
:1057400035EC47E25EE360914A0670914B0680912A
:105750004C0690914D060F946735AB01BC018AEB66
:1057600099E00F94990E2CEA35EC47E25EE36091E4
:105770004E0670914F0680915006909151060F94FD
:10578000DD2DAB01BC0185EB9CE10F94990E8AE005
:105790000E94D13517C30F94CA0E88EA99E00F947E
:1057A000E10D10C380E50E94B9B9882351F00E9431
:1057B00082B960937E0D70937F0D8093800D9093DE
:1057C000810D89E40E94B9B9882381F00E9482B9D1
:1057D0002CEA35EC47E25EE30F94DD2D6093820DF9
:1057E0007093830D8093840D9093850D84E40E94C3
:1057F000B9B9882381F00E9482B92CEA35EC47E2DE
:105800005EE30F9467356093860D7093870D8093E8
:10581000880D9093890D0F94CE0E40917E0D50917E
:105820007F0D6091800D7091810D8EEB9CE10F9446
:10583000990E2CEA35EC47E25EE36091820D70919F
:10584000830D8091840D9091850D0F946735AB0188
:10585000BC018AEB99E00F94990E2CEA35EC47E2F3
:105860005EE36091860D7091870D8091880D909117
:10587000890D0F94DD2DAB01BC0185EB9CE10F94EC
:10588000990E8AE00E94D1359DC283E50E94B9B984
:10589000182F882371F00E9482B90F94D935709324
:1058A00011026093100221E0672B09F020E02093A1
:1058B0003A0680E50E94B9B9882359F02091100278
:1058C00030911102232B11F00E946EB980933A0699
:1058D00079C2111177C20F94CE0E87ED99E00F9423
:1058E000E10D80913A06882319F082E395E102C028
:1058F0008EEB99E00F94E10D60911002709111020E
:1059000086EC99E00F94AA0E82EC99E00F94E10DD9
:1059100059C20E94BBE056C281E00E947DDE0F9416
:10592000530250C26FEF7FEF89E40E94F381182F7A
:105930006FEF7FEF8AE40E94F381082F8AE50E94CF
:10594000B9B9F82E811105C081E50E94B9B9D82EE8
:1059500001C0D12C17FD06C007FD04C0F11009C01D
:10596000D11007C00F94CA0E8AEE99E00F94E10D92
:1059700029C2153010F4053038F00F94CA0E82E5B4
:1059800096E00F94E10D1EC2E12E110FFF08002ECC
:10599000000C110B0E9482B9DD2099F025E02E9DAC
:1059A000F0012F9DF00D1124E00FF11FEE0FFF1FEE
:1059B000EE0FFF1FE051FA4E208131814281538169
:1059C00003C020E030E0A901A5E0AE9DF001AF9D4D
:1059D000F00D11240E0F1F1F000F111F000F111FBC
:1059E00000511A4E0F946D34D8016D937D938D93B1
:1059F0009C931397E7C10F9461118111E3C10AEFE2
:105A00001BE2EBEDF5E0FDA3ECA39E012F5F3F4F02
:105A100019017DE2C72E7CE2D72E7901F80165914C
:105A2000759185919491ACA1BDA18D909D90AD9003
:105A3000BD90BDA3ACA3A50194010F946C342B01C0
:105A40003C01F701608371838283938320E030E01F
:105A500040EA51EC0F94CD3687FD0AC020E030E0DB
:105A600040EA51E4C301B2010F94772D18162CF4CB
:105A7000F601849118160CF4F6C6D7018D909D900E
:105A8000AD90BD907D0120E030E040EA51ECC501D1
:105A9000B4010F94CD3687FD25C720E030E040EA01
:105AA00051E4C501B4010F94772D18160CF0E5C62A
:105AB00019C70F944B1786C10F94B91583C19093E2
:105AC000D5150E94C25B1092D515882309F47AC1BE
:105AD0000F94CE0E86E49AE00F94E10D73C180918D
