:100000000C94D41A0C94051B0C94051B0C94051B22
:100010000C94051B0C94051B0C94051B0C94051BE0
:100020000C94051B0C94051B0C94051B0C94051BD0
:100030000C94051B0C94051B0C94051B0C94051BC0
:100040000C94051B0C94F3ED0C94051B0C94051BF0
:100050000C94051B0C94051B0C9425850C946F8443
:100060000C94051B0C9491420C9487420C94051B34
:100070000C94051B0C94051B0C94051B0C94051B80
:100080000C94051B0C94051B0C94051B0C94051B70
:100090000C94051B0C94051B0C94051B0C94051B60
:1000A0000C94051B0C94051B0C94051B0C94051B50
:1000B0000C94051B0C94051B0C94051B0C94051B40
:1000C0000C94051B0C94051B0C94051B0C94051B30
:1000D0000C94051B0C94051B0C94051B0C94051B20
:1000E0000C94051B2D6E106E136E306E166E196E0D
:1000F0001C6E286E1F6E3B6E226E256E997D9C7D58
:100100008B7D8F7D957DD37DA07DA47DAA7DAE7DE9
:10011000B27DB87DBC7DC07DD37DC67DCA7DCE7DE0
:100120000F811481198123812D81A68137813F811F
:10013000478151815B81658174817E81A68188813F
:1001400092819C81B0B8EFB628B7ECB828B728B731
:1001500028B728B728B728B728B728B728B728B7A7
:1001600028B728B728B728B728B728B728B728B797
:1001700028B728B728B728B728B728B728B728B787
:10018000E6B828B728B728B728B728B728B728B7B8
:1001900028B7BFB828B728B728B728B728B728B7CF
:1001A00028B728B728B728B703B925B7084AD73BD7
:1001B0003BCE016E84BCBFFDC12F3D6C74319ABD36
:1001C00056833DDA3D00C77F11BED9E4BB4C3E915A
:1001D0006BAAAABE000000803F05A84CCDB2D44E49
:1001E000B93836A9020C50B9918688083CA6AAAA4B
:1001F0002ABE000000803F000C944DB60C94ABCF9B
:100200000C948F7D0C948B320C9471B60D942F024C
:100210000C94F8D70C94806C0C9465810C949A34EF
:100220000C9416550C94FCD70C94966C0C945A3A7A
:100230000C9413580C9420330C94306E0C943FBAE9
:100240000C94936C0C9408330C94906C0C94256E65
:100250000C9415D50C943F810C943B6E0C9425B7EF
:100260000C9416580C94B5CF0C942D6E0C9400354C
:100270000C948E6E0D942A020C94B0B80C941D67E9
:100280000C9442840C946EB60C9477320C94748166
:100290000C941F6E0C9439BA0C94F6D70C945D3400
:1002A0000C9437810C94D5320C94BACF0D94EE0295
:1002B0000C948C6C0C9476CB0C94786C0D94D003CD
:1002C0000C94C6CF0D94BB250C9411D50C942338F7
:1002D0000C9494D10C9428B70C9483CF0C94518136
:1002E0000C94C2670C94C4360C9457D60C941058D6
:1002F0000C949C810C94FC320C9449330C948B7DAF
:100300000C94B87D0C943FB60D943E020C946C6C2A
:100310000C9406340C94AA7D0C94144E0C949F32C9
:100320000C94C0CF0D94B2020D949D250C94529E56
:100330000C9447810C94226E0C940F810D94DC0276
:100340000C94166E0C94B3320C94D9320D94340282
:100350000C9488810C942D810C945B810C94A6CF15
:100360000D9430050C94886C0C947D500C947E8117
:100370000C94CE7D0C94957D0C9423810C947C6C14
:100380000C94A47D0C94FC330C94D34E0C944FD35A
:100390000C949A5B0C94A44D0C9412DB0C94403496
:1003A0000C94CA7D0C94A6810C940B4E0C949281F3
:1003B0000C94BDCF0C94AE7D0C94706C0C94D684D0
:1003C0000D94B7020C94B27D0C94FED70C940FD50B
:1003D0000C94B35B0C94224E0C94997D0C946C8419
:1003E0000C949C7D0C941C6E0C941A330C94DC427F
:1003F0000C9431690C94EFB60C94BD4D0C942633DB
:100400000D94D6020C940CCC0C94106E0D94E80252
:100410000C94136E0C9414810C945BB60C94C07DF8
:100420000C94B0CF0C947BB60C949E340C94D942AF
:100430000C9463320C9414330C9402330C941C4EC1
:100440000C94196E0C94FAD70C9403B90C94BC7DDF
:100450000C9413D50C94746C0C94996C0C941981B5
:100460000C94E6B80C94C1320C94A07D0C940E331D
:100470000C9488B60C9497CB0D94E2020C94286EE1
:100480000C94D37D0C94686C0C94075A0C94458F93
:100490000D94BC020D9439020C94F6320C94BFB842
:1004A0000C94846C0C941C8F0C944D320C94C67D6F
:1004B0000C94ECB80C9474B60C9450680C949C6A30
:1004C0000C94FC590C94D8420C94654D0C94DD525C
:1004D0000C9423340C940DD54E414E494E49545939
:1004E000494E46CDCCCC3D0AD7233C17B7D13877FF
:1004F000CC2B329595E6241FB14F0A000020410015
:1005000000C84200401C4620BCBE4CCA1B0E5AAE5E
:10051000C59D7400407A10F35A00A0724E1809006D
:1005200010A5D4E80000E87648170000E40B540258
:100530000000CA9A3B000000E1F505000080969893
:1005400000000040420F000000A0860100000010E3
:100550002700000000E80300000000640000000025
:10056000000A00000000000100000000002C76D806
:1005700088DC674F0823DFC1DFAE59E1B1B796E5EC
:10058000E3E453C63AE651997696E8E6C28426EB50
:10059000898C9B62ED407C6FFCEFBC9C9F40F2BA63
:1005A000A56FA5F490055A2AF75C936B6CF9676DFB
:1005B000C11BFCE0E40D47FEF520E6B500D0ED9050
:1005C0002E0300943577050080841E080000204E1D
:1005D0000A000000C80C333333330F986E128311B6
:1005E00041EF8D2114893BE65516CFFEE6DB18D18D
:1005F000844B381BF77C1D901DA4BBE4242032845F
:10060000725E228100C9F124ECA1E53D27434F4DE4
:100610004D554E49434154494F4E0044525952554D
:100620004E004552524F525300494E464F004543EB
:10063000484F0047322F4733206261642070617257
:10064000616D65746572730A00536C6565702E2E5A
:100650002E004D65736820706F696E742063616E43
:100660006E6F74206265207265736F6C7665640AC4
:10067000004E6F204D6F76652E00456E64206669D2
:100680006C65206C6973740A00426567696E206648
:10069000696C65206C6973740A00286E6F20666946
:1006A0006C65290043757272656E742066696C65AD
:1006B0003A20005344207072696E74696E6720623C
:1006C00079746520004E6F74205344207072696EF7
:1006D00074696E670A005072696E742074696D6582
:1006E0003A20000A53746174733A2046696C616D54
:1006F000656E7420757365643A20002C204C6F6E13
:1007000067657374206A6F623A2000546F74616C7D
:100710002074696D653A20002C204661696C65641F
:100720003A20002C2046696E69736865643A20009F
:100730005072696E74733A200053746174733A2076
:100740000045202553006F66660044454255473AF0
:10075000004D3131322053687574646F776E004DEF
:100760003131332053005468696E6B657220563204
:100770005F4E504E204F46462E004348414D424565
:10078000525F54454D5045524154555245004D4FCE
:1007900054494F4E5F4D4F44455300544845524DC8
:1007A000414C5F50524F54454354494F4E004155C0
:1007B000544F5245504F52545F53445F5354415429
:1007C00055530050524F4D50545F535550504F5257
:1007D0005400454D455247454E43595F5041525391
:1007E000455200434153455F4C494748545F42528C
:1007F000494748544E45535300544F47474C455F73
:100800004C494748545300534F4654574152455F53
:10081000504F574552004255494C445F5045524352
:10082000454E54004C4556454C494E475F44415453
:1008300041005A5F50524F4245004155544F4C457C
:1008400056454C005052494E545F4A4F4200505258
:100850004F4752455353004155544F5245504F5204
:10086000545F54454D5000564F4C554D45545249D8
:10087000430042494E4152595F46494C455F5452EC
:10088000414E534645520053455249414C5F584FE3
:100890004E5F584F4646004649524D574152455FBC
:1008A0004E414D453A4D61726C696E20322E302EAC
:1008B0007820284769744875622920534F55524360
:1008C000455F434F44455F55524C3A6874747073AA
:1008D0003A2F2F6769746875622E636F6D2F4D61B3
:1008E000726C696E4669726D776172652F4D6172C7
:1008F0006C696E2050524F544F434F4C5F564552D7
:1009000053494F4E3A312E30204D414348494E45D0
:100910005F545950453A5468696E6B65722056327F
:100920005F4E504E2045585452554445525F434FF8
:10093000554E543A3120555549443A636564653201
:100940006132662D343161322D343734382D3962BD
:1009500031322D6335356336326633363766660A93
:10096000002F2F20004D31343520533C696E6465D3
:10097000783E206F7574206F662072616E67652007
:1009800028302D31290A0020466C6F773A2000501C
:10099000726F7465637465642050696E0A00496EF5
:1009A00076616C69642065787472756465720A009A
:1009B00020693A006469730043290A0061626C652A
:1009C0006420286D696E2074656D702000436F6C23
:1009D00064206578747275646573206172652000A7
:1009E0004D34323120696E636F72726563742070AA
:1009F0006172616D657465722075736167650A0067
:100A00004F666673657473204170706C696564002D
:100A10004572723A20546F6F206661722100546FE4
:100A20006F206661722066726F6D207265666572F6
:100A3000656E636520706F696E740A00454550529B
:100A40004F4D204F4B0A00496E76616C69640A0075
:100A500056616C69640A004E6F20504C520A005077
:100A60004C52204578697374730A00506F77657231
:100A70002D6C6F7373207265636F766572792000D9
:100A80002E06290622061B060D064C6F6164206D9A
:100A90006D00556E6C6F6164206D6D0046696C2E43
:100AA000204469612E004520696E206D6DC2B3003F
:100AB00020082046616374002008204D61780020E2
:100AC00008204D696E004175746F74656D70005635
:100AD00054726176204D696E00566D696E00566DD8
:100AE0006178204500566D6178205A00566D617816
:100AF000205900566D61782058004572726F72203F
:100B000077726974696E6720746F20454550524F43
:100B10004D210A00627573793A20706175736564BE
:100B200020666F7220696E7075740A006275737941
:100B30003A2070617573656420666F722075736505
:100B4000720A00627573793A2070726F636573730D
:100B5000696E670A0053544F505045442E20005090
:100B600072696E7465722073746F7070656420644E
:100B7000756520746F206572726F72732E204669DE
:100B80007820746865206572726F7220616E6420CF
:100B9000757365204D39393920746F20726573740F
:100BA0006172742E202854656D706572617475725F
:100BB000652069732072657365742E2053657420F7
:100BC00069742061667465722072657374617274F1
:100BD000696E67290A004E6F20436865636B737501
:100BE0006D2077697468206C696E65206E756D6222
:100BF00065722C204C617374204C696E653A20003C
:100C0000636865636B73756D206D69736D61746383
:100C1000682C204C617374204C696E653A20004C3E
:100C2000696E65204E756D626572206973206E6F06
:100C300074204C617374204C696E65204E756D6232
:100C400065722B312C204C617374204C696E653AAF
:100C500020004D313130004D313137004D333100FE
:100C600053442072656164206572726F720A004499
:100C70006F6E65207072696E74696E672066696C4C
:100C8000650A004B494C4C206361757365642062B2
:100C900079204B494C4C20627574746F6E2F7069CB
:100CA0006E0A004B494C4C20636175736564206289
:100CB0007920746F6F206D75636820696E6163744D
:100CC0006976652074696D65202D20637572726583
:100CD0006E7420636F6D6D616E643A200025301D67
:100CE0000C282924311C0B4527232F1B04444321A6
:100CF0002A193F40222B1A414203380906360308BD
:100D00000206000123646566696E6520444546411C
:100D1000554C545F004B6420004B6920004B702001
:100D200000504944204175746F74756E6520666982
:100D30006E6973686564212050757420746865203D
:100D40006C617374204B702C204B6920616E6420A1
:100D50004B6420636F6E7374616E74732066726F80
:100D60006D2062656C6F7720696E746F20436F6EC3
:100D700066696775726174696F6E2E680A00504902
:100D800044204175746F74756E65206661696C6589
:100D900064212074696D656F75740A000A20436CC4
:100DA000617373696320504944200A00204B643A00
:100DB0002000204B693A2000204B703A20000A2086
:100DC0004E6F206F76657273686F6F740A002054DF
:100DD000753A2000204B753A2000206D61783A204A
:100DE00000206D696E3A200020643A20002062697C
:100DF00061733A2000504944204175746F74756ED8
:100E0000652073746172740A0050494420417574FE
:100E10006F74756E65206661696C65642120546528
:100E20006D706572617475726520746F6F2068698A
:100E300067680A00504944204175746F74756E6587
:100E4000206661696C656421204261642065787464
:100E50007275646572206E756D6265720A00457206
:100E6000723A207574663820666F6E74206E6F74E7
:100E700020696E697469616C697A65642E00256801
:100E8000753A253032687500256875642025303242
:100E900068753A253032687500000C0D00FE0702B7
:100EA0002603BC017FFE08FE08FE050808060000B8
:100EB00040F0C88888987810050808060000C0F837
:100EC0008888888888F80505050600012030F830F4
:100ED000200508080600002070F820202020E005EA
:100EE00009090600FF2070A8A8B8888870200506A8
:100EF00006060001E08CEA8C8A0A0509090600FF53
:100F0000F8A88888888888A8F8050A0A0600FE20BC
:100F10005050505088A8A88870030303060003406F
:100F2000A040FFFFFFFFFFFFFFFFFFFFFFFFFFFFEF
:100F3000FFFFFFFFFFFFFFFF0000000605FF0107A7
:100F40000706020080808080800080030303060182
:100F500005A0A0A005060606000050F85050F85065
:100F60000509090600FF2070A8A07028A8702005B8
:100F70000707060000C8C810204098980507070614
:100F8000000040A0A040A89068010303060205806D
:100F900080800309090601FF204040808080404096
:100FA000200309090601FF804040202020404080A6
:100FB00005070706000020A8702070A82005050579
:100FC0000600012020F820200203030601FFC04094
:100FD00080050101060003F8020202060100C0C0FC
:100FE000050707060000081010204040800507078D
:100FF000060000708898A8C88870030707060100DB
:1010000040C040404040E0050707060000708808E7
:10101000102040F8050707060000F808103008887F
:101020007005070706000010305090F810100507F3
:1010300007060000F880F00808887005070706001A
:1010400000304080F0888870050707060000F80827
:10105000101020202005070706000070888870887F
:1010600088700507070600007088887808106002FD
:101070000505060100C0C000C0C00206060601FF4B
:10108000C0C000C04080030505060101204080402B
:1010900020050303060002F800F803050506010118
:1010A000804020408005070706000070881020203F
:1010B00000200507070600007088B8A8B8807005F2
:1010C0000707060000708888F888888805070706E3
:1010D0000000F04848704848F00507070600007017
:1010E000888080808870050707060000F04848481F
:1010F0004848F0050707060000F88080F08080F877
:10110000050707060000F88080F08080800507074B
:101110000600007088808098887005070706000028
:10112000888888F8888888030707060100E040401F
:10113000404040E0050707060000381010101090EE
:10114000600507070600008890A0C0A090880507EA
:1011500007060000808080808080F8050707060071
:101160000088D8A88888888805070706000088882E
:10117000C8A89888880507070600007088888888AE
:101180008870050707060000F08888F080808005D9
:10119000070706000070888888A89068050707067A
:1011A0000000F08888F0A09088050707060000700E
:1011B000888070088870050707060000F820202046
:1011C0002020200507070600008888888888887006
:1011D0000507070600008888888850502005070703
:1011E00006000088888888A8A85005070706000020
:1011F0008888502050888805070706000088885096
:1012000020202020050707060000F8081020408055
:10121000F80309090601FFE080808080808080E07B
:101220000507070600008040402010100803090948
:101230000601FFE020202020202020E005030306F7
:1012400000052050880501010600FEF8030303068F
:1012500001058040200505050600007008788878A3
:101260000507070600008080F0888888F0050505DE
:1012700006000070808088700507070600000808D7
:1012800078888888780505050600007088F08070E9
:10129000050707060000304840E0404040050707CA
:1012A0000600FE7088888878087005070706000029
:1012B0008080F0888888880307070601004000C006
:1012C000404040E00409090601FE100030101010F3
:1012D00010906005070706000080808890E09088E5
:1012E000030707060100C04040404040E0050505F7
:1012F000060000D0A8A8A8A8050505060000B0C8EB
:1013000088888805050506000070888888700507AC
:10131000070600FEF0888888F08080050707060031
:10132000FE78888888780808050505060000B0C89A
:1013300080808005050506000078807008F00507AC
:10134000070600002020F8202020180505050600CB
:1013500000888888986805050506000088888850F8
:10136000200505050600008888A8A8500505050683
:10137000000088502050880507070600FE888888EE
:1013800050204080050505060000F8102040F803B5
:1013900009090601FF2040404080404040200109EB
:1013A000090602FF80808080808080808003090998
:1013B0000601FF8040404020404040800503030676
:1013C000000248A890FF4F757461676520526563FD
:1013D0006F7665727900436F6E66696775726174C6
:1013E000696F6E003F0043616E63656C0050726907
:1013F0006E74657220537461747300546865726D05
:101400006973746F727300426F61726420496E6613
:101410006F005072696E74657220496E666F004D80
:10142000313030300053746F70205072696E740028
:10143000526573756D65205072696E740053746FD8
:1014400070004D3231004368616E6765204D656400
:1014500069610041626F7574205072696E746572C3
:10146000004E6F204D656469610054756E650049DA
:101470006E666F2053637265656E0053746172749B
:10148000205072696E740043616E6E6F7420656ED9
:10149000746572207375626469723A2000022E2EA0
:1014A000004F6666004F6E00416476616E6365644E
:1014B0002053657474696E677300496E6974004DDA
:1014C00034323800496E697469616C697A65204507
:1014D0004550524F4D0053746570732F6D6D004130
:1014E0006363656C65726174696F6E0056656C6FDD
:1014F000636974790053657420486F6D65204F6689
:1015000066736574730053746F72652053657474E9
:10151000696E6773004C6F61642053657474696E03
:1015200067730046616465204865696768740047B1
:1015300032380A473239004C6576656C2042656462
:101540000046616E20537065656400526573746F68
:101550007265206661696C736166650050726568CA
:101560006561742041425320436F6E66005072657E
:101570006865617420504C4120436F6E66002062A4
:10158000797465733B2063726320005365747469DA
:101590006E67732053746F72656420280045455050
:1015A000524F4D206461746173697A65206572726F
:1015B0006F722E0A002073746F72656420736574F5
:1015C00074696E67732072657472696576656420EC
:1015D0002800202863616C63756C6174656429213F
:1015E0000A0020213D2000454550524F4D204352D6
:1015F00043206D69736D61746368202D20287374B6
:101600006F726564292000496E6465783A20002075
:101610004D61726C696E3D563734290A004545505C
:10162000524F4D2076657273696F6E206D69736DD0
:10163000617463682028454550524F4D3D00554E1A
:101640004C4F41442046494C414D454E540046497B
:101650004C414D454E54204348414E4745004D377F
:10166000303220542564004D363030204230205432
:101670002564004D373032203B2564004D37303132
:1016800020542564004D373032004D373031004D45
:10169000363030204230005075726765206D6F72B1
:1016A0006500436F6E74696E756500524553554D04
:1016B00045204F5054494F4E533A005052494E54D2
:1016C000205041555345440020204E6F7A7A6C6576
:1016D0003A2000256C642E25696D0045787472757A
:1016E00064656420546F74616C004C6F6E67657341
:1016F00074204A6F622054696D65003E2000546F6B
:1017000074616C205072696E742074696D65004359
:101710006F6D706C65746564005072696E742043FF
:101720006F756E7400313530004245443A48697334
:10173000656E7320333935300052756E617761798B
:101740002057617463683A204F4E004D61782054F1
:10175000656D7000323735004D696E2054656D70CF
:101760000045313A20486973656E7320333935304E
:10177000005053550047656E657269630050726F83
:10178000746F636F6C00312E3000426175640032FB
:1017900035303030300052616D626F0042696C69E3
:1017A0006E656172204C6576656C696E6700457880
:1017B00074727564657273005468696E6B6572202B
:1017C00056325F4E504E00323031392D31322D308D
:1017D00031005061726B696E672E2E2E000000572B
:1017E00061697420666F720066696C616D656E7404
:1017F000206368616E676500746F20737461727432
:10180000005761697420666F720066696C616D656E
:101810006E7420756E6C6F616400004E6F7A7A6C26
:10182000652068656174696E6700506C65617365F9
:1018300020776169742E2E2E00005072657373201C
:10184000627574746F6E00746F2068656174206EC9
:101850006F7A7A6C650000496E73657274206669F0
:101860006C616D656E7400616E6420707265737377
:1018700020627574746F6E00746F20636F6E74698C
:101880006E7565005761697420666F720066696CD9
:10189000616D656E74206C6F6164000050726573D9
:1018A0007320427574746F6E00746F207265737567
:1018B0006D65207072696E740000576169742066EE
:1018C0006F72207072696E7400746F207265737528
:1018D0006D652E2E2E00005761697420666F7200B0
:1018E00066696C616D656E74207075726765000065
:1018F00020746F6F206C6F6E6720657874727573DB
:10190000696F6E2070726576656E7465640A00207A
:10191000636F6C6420657874727573696F6E207084
:10192000726576656E7465640A000000210024000B
:1019300027002A002D0030003300010100000401BF
:1019400007010A0100002200250028002B002E00BC
:101950003100340002010000050108010B01000004
:1019600020002300260029002C002F003200000157
:101970000000030106010901050505050705080822
:101980000808020202020A0A080804040404010109
:10199000010101010101030303030303030304071E
:1019A00007070C0C0C0C0C0C0C0C020202020606B5
:1019B0000606060606060B0B0B0B0B0B0B0B07079D
:1019C0000A0A0A0A0A0A05050504040408080102AD
:1019D0001020200808102040102040800201020141
:1019E00008040201010204081020408080402010F9
:1019F0000804020180040201804020100804020152
:101A000008040201010204081020408001020408B9
:101A100010204080100804088010204004408010EE
:101A20002040048000000A0B02090C0D0E08070379
:101A300004010000000000000000000000000000A1
:101A40000000000000000000000000000000000096
:101A50001211100000000000000000000000000053
:101A60000000000000000000000000000000000076
:101A7000000000000000000000004D6F766520258A
:101A8000736D6D004D6F766520302E316D6D004D9C
:101A90006F766520316D6D004D6F76652031306D4C
:101AA0006D004D6F7665204178697300486F7465ED
:101AB0006E6420746F6F20636F6C6400457874727D
:101AC00075646572004D6F7665205A004D6F7665BE
:101AD0002059004D6F76652058004368616E676538
:101AE0002046696C616D656E7400556E6C6F616443
:101AF0002046696C616D656E74004C6F61642046B0
:101B0000696C616D656E7400507265686561742002
:101B1000414253005072656865617420504C410029
:101B20005072656865617420437573746F6D00420F
:101B300061636B00687474703A2F2F6D61726C6909
:101B40006E66772E6F726700322E302E78004D3120
:101B5000303030205300205049445F64543A002014
:101B6000643A002069693A0020703A002020506CE5
:101B7000616E6E65724275666665724279746573F0
:101B80003A20002046726565204D656D6F72793A86
:101B90002000436F6D70696C65643A204A756C2053
:101BA000203420323032300A00204C6173742055CA
:101BB0007064617465643A20323031392D31322DD0
:101BC0003031207C20417574686F723A20286E6F26
:101BD0006E652C2064656661756C7420636F6E663B
:101BE0006967290A00322E302E780A004D61726C26
:101BF000696E0020536F6674776172652052657359
:101C000065740A00205761746368646F67205265C9
:101C10007365740A002042726F776E206F757420AE
:101C200052657365740A002045787465726E616C44
:101C30002052657365740A00506F77657255700A9B
:101C4000006175746F25632E67004732385859005C
:101C50006572726F722077726974696E6720746F33
:101C60002066696C650A00446F6E65207361766951
:101C70006E672066696C652E0A004D323900456E2C
:101C80006473746F707300255320256320256320CF
:101C9000256320256300205A3A0020593A00656EDA
:101CA0006473746F7073206869743A200001FFFFD9
:101CB000FFFFFFFFFFFFFFFFFFFFFF0FFFFFFFFF24
:101CC000FFFFFFFFFFFFFFFFFF1E000000000000FF
:101CD0000000000007FFFF380000000000000000C7
:101CE000000003FFFF700000000000000000000083
:101CF00001FFFF600000000000000000000000FF86
:101D0000FF6000000000000000000000007FFFC036
:101D100000000000000000007800003FFFC00FC07E
:101D2000FC00000000007818001FFFC03FE1FF002A
:101D300000000000783C000FFFC07FF3FF80000030
:101D40000000783C0007FFC0FFFFFFC0000000005C
:101D5000783C0003FFC1F87F87E0000000007800B6
:101D60000001FFC1F03F03E0000000007800000028
:101D7000FFC1E01E01E01F0003E0783C03F07FC1DB
:101D8000E01E01E07FC00FF8783C07FC3FC1E01E79
:101D900001E1FFE01FFC783C0FFE1FC1E01E01E3E4
:101DA000FFF03FFE783C1FFE0FC1E01E01E3F3F899
:101DB0003F3E783C3F3F07C1E01E01E7E0FC7C1F4F
:101DC000783C3E1F07C1E01E01E7C07C7C0F783CD9
:101DD0003C0F03C1E01E01E7807C780F783C3C0F8C
:101DE00003C1E01E01E7803C7800783C3C0F03C152
:101DF000E01E01E7803C7800783C3C0F03C1E01E08
:101E000001E7803C7800783C3C0F03C1E01E01E70D
:101E1000C03C7800783C3C0F03C1E01E01E3E03C8D
:101E200078007C3C3C0F03C1E01E01E3FF3FF8005B
:101E30007FBC3C0F03C1E01E01E1FF3FF8003FBF44
:101E4000FC0F03C1E01E01E0FF3FF8001FBFFC0FC5
:101E500003C1E01E01E07F3FF8000FBFFC0F0360ED
:101E6000000000000000000000000000076000000B
:101E700000000000000000000000067000000000EC
:101E800000000000000000000E380000000000000C
:101E90000000000000001C1E000000000000000008
:101EA00000000000780FFFFFFFFFFFFFFFFFFFFFB5
:101EB000FFFFF001FFFFFFFFFFFFFFFFFFFFFFFF3F
:101EC0008045313A200045303A20004D53312C4DA9
:101ED00053322C4D53332050696E730A583A200008
:101EE000453100626564002C2073797374656D2040
:101EF00073746F7070656421204865617465725FEA
:101F000049443A200048656174696E6720466169FA
:101F10006C65640048656174696E67206661696C10
:101F2000656400202D20496E76616C6964206578B7
:101F3000747275646572206E756D62657220210A17
:101F400000544845524D414C2052554E415741593D
:101F500000546865726D616C2052756E61776179AD
:101F6000004572723A204D415854454D50004D4144
:101F70005854454D502074726967676572656400F6
:101F80004572723A204D494E54454D50004D494ED0
:101F900054454D5020747269676765726564004DE1
:101FA000383420582059205A2045000040012C0187
:101FB00073012201AB011801F3010E014802040173
:101FC000AC02FA002A03F000C303E6008004DC0040
:101FD0006D05D2006C06C800C707BE007009B400CA
:101FE0006D0BAA00CB0DA000CF138C00F21B780064
:101FF000E9246400142E50009C353C00B83A2800B7
:10200000A03D14000B3F00002053697A653A200080
:1020100043616E6E6F74206F70656E2073756264BD
:102020006972200053442063617264206F6B0A0060
:102030006F70656E526F6F74206661696C65640ABB
:1020400000766F6C756D652E696E697420666169C6
:102050006C65640A00534420696E69742066616986
:102060006C0A004D32332025730057726974696E13
:102070006720746F2066696C653A200046696C655C
:102080002073656C65637465640A0046696C65203D
:102090006F70656E65643A200066726573680064EF
:1020A0006F696E67004E6F772000454E4420535590
:1020B00042524F5554494E450A002220706F73001A
:1020C0002220706172656E743A2200535542524F5D
:1020D0005554494E452043414C4C2074617267650C
:1020E000743A2200747279696E6720746F2063619C
:1020F0006C6C207375622D67636F64652066696C14
:102100006573207769746820746F6F206D616E79D4
:10211000206C6576656C732E204D4158206C657679
:10212000656C2069733A310A0044656C6574696FA7
:102130006E206661696C65642C2046696C653A2086
:102140000046696C652064656C657465643A00508E
:102150006F7765722D6C6F73732066696C65206490
:10216000656C657465004D32342053256C642054D1
:10217000256C64004739322E3920452573004731DC
:1021800020462564004739322E39205A25730047EE
:1021900031205A30204632303000473120582573E4
:1021A00020592573204633303030004D34323020F2
:1021B000532569205A2573004D313036205025694A
:1021C00020532569004D31303920532569004D31A8
:1021D000393020532569004D3230302044257300BA
:1021E0004739322E392045305A300A47315A320A9F
:1021F00047323852305859004D3432302053302055
:102200005A300020506F7765722D4C6F73732052D7
:1022100065636F7665727920446174610A00496E66
:1022200076616C6964004E6F0020496E76616C695E
:102230006420657874727564657220002020202007
:1022400020202000256C6425636D001FE0201020F5
:1022500010201010201020201020103030084004D2
:102260008003001FE03FF03FF03FF01FE01FE03F22
:10227000F03FF03FF00FC0078003003FFFF0380051
:102280007030FC3020FC102078102030102C00D052
:102290002E31D02F7BD02F7BD02E31D02C00D020D0
:1022A000301020781020FC1030FC303800703FFFD8
:1022B000F03FFFF038007031863023871027879079
:1022C0002F87D02F03D020301020781020781020B6
:1022D00030102F03D02F87D0278790238710318687
:1022E000303800703FFFF01FFFF81FFFF804104068
:1022F000020820020820041040082080104100102D
:1023000041000820800410400000001FFFF81FFF5C
:10231000F8202F002042403A0020403A0020573A4F
:10232000007C3C3E5E2B3D3F2F5B5D3B2C2A225CBC
:1023300000486F74656E6420746F6F20636F6C6407
:102340000A004D3630303A20546F6F20436F6C6472
:1023500000507265737320627574746F6E20746FB1
:1023600020726573756D650A005072657373206223
:102370007574746F6E20746F2068656174206E6F61
:102380007A7A6C650A004C6F616400506F776572F1
:102390002D6C6F73732066696C6520636C6F736559
:1023A000206661696C65642E0A00506F7765722D36
:1023B0006C6F73732066696C652077726974652031
:1023C0006661696C65642E0A005772697465002D38
:1023D0002D2D0A00494E56414C4944204441544158
:1023E0000A007072696E745F6A6F625F656C61701B
:1023F0007365643A20007364706F733A20007364ED
:102400005F66696C656E616D653A20000A206661E1
:1024100064653A20006C6576656C696E673A2000E9
:1024200066616E5F73706565643A200074617267FF
:1024300065745F74656D70657261747572655F62F5
:1024400065643A20007461726765745F74656D70CD
:10245000657261747572653A2000666565647261C3
:1024600074653A2000706F736974696F6E5F73688A
:102470006966743A2000686F6D655F6F66667365A4
:10248000743A200063757272656E745F706F736961
:1024900074696F6E3A20002076616C69645F666FC4
:1024A0006F743A00204A6F62205265636F766572DE
:1024B0007920496E666F2E2E2E0A76616C69645FF4
:1024C000686561643A004F46460A004661646520CB
:1024D0004865696768742000426564204C657665CC
:1024E0006C696E6720004661696C656420746F20BA
:1024F000656E61626C6520426564204C6576656C32
:10250000696E670A00496E76616C6964206D657357
:10251000682E0A0050726F62696E6720506F696E94
:10252000740025532025692F25690050726F626958
:102530006E67206D65736820706F696E742000206F
:102540002844525952554E2900473239204175745A
:102550006F20426564204C6576656C696E67003F4C
:1025600020284C2C522C462C4229206F7574206F49
:102570006620626F756E64732E0A003F28562965C7
:1025800072626F7365206C6576656C20696D706C26
:1025900061757369626C652028302D34292E0A001C
:1025A000426164205A2076616C75650A004E6F2086
:1025B00062696C696E65617220677269640A0041C4
:1025C0006363656C65726174696F6E3A2050005781
:1025D00041524E494E4721204C6F77205A204A6580
:1025E000726B206D6179206C65616420746F207559
:1025F0006E77616E746564207061757365732E0A01
:1026000000204D393220580020204D61783A2000BA
:1026100020204D696E3A2000536F667420656E6409
:1026200073746F70733A20005072696E7420506139
:1026300075736564005061757365205072696E74BE
:10264000004D656469612052656D6F766564004D6B
:102650006564696120496E736572746564005468CD
:10266000696E6B65722056325F4E504E2052656126
:1026700064792E005072696E74696E672E2E2E007A
:102680005072696E742041626F72746564004D32DD
:102690003520500A4D32340054656D706572617496
:1026A0007572650050726F6265205A204F666673BE
:1026B0006574004E6F7A7A6C65004D61696E0050EA
:1026C0007265686561742041425320456E64005014
:1026D000726568656174204142532042656400431D
:1026E0006F6F6C646F776E0046616E205370656526
:1026F00064203D00466C6F7700416D617820450095
:10270000416D6178205A00416D6178205900416D1A
:102710006178205800412D54726176656C00412D1E
:102720005265747261637400416363656C00566541
:102730002D4A65726B00565A2D4A65726B005659C8
:102740002D4A65726B0056582D4A65726B004573B1
:10275000746570732F6D6D005A73746570732F6D8F
:102760006D005973746570732F6D6D0058737465C7
:1027700070732F6D6D00000000000000000000006D
:10278000000000009643000096430000C84300008C
:10279000484200004842000080400202040000A0BD
:1027A000400000A04000000040FFFFFF5761726E34
:1027B000696E673A20486F6D696E672042756D706B
:1027C0002044697669736F72203C20310A004361AE
:1027D000703A00436C69636B20746F2052657375A7
:1027E0006D652E2E2E0050726F6265204F666673E7
:1027F0006574205A0050726F6265204F666673657B
:10280000745A3A20003F5A206F7574206F66207208
:10281000616E67652028003F59206F7574206F66D0
:102820002072616E676520282D0020746F20003FA4
:1028300058206F7574206F662072616E676520285E
:102840002D0050726F6265204F6666736574205864
:1028500000656E7175657565696E672022006F6B26
:1028600000526573656E643A2000256979202569F8
:1028700064202569682025696D20256973004265FB
:102880006420436F6F6C696E672E2E2E0042656464
:102890002048656174696E672E2E2E0024F4D430B2
:1028A00050C38E20C2A24017828B7011127A910DF4
:1028B000816CD90AA861E108C758660761514306CF
:1028C0001E4B5D05C145A7041A411104093D98033B
:1028D000713931034036DB0265339102D430540242
:1028E000802E1D02632CEE01752AC501B028A001BF
:1028F000102781018F2564012B244B01E022340134
:10290000AC211F018D200D01801FFC00841EED00F5
:10291000971DDF00B81CD200E61BC600201BBC00C0
:10292000641AB200B219A8000A19A0006A18990026
:10293000D117910040178B00B516840031167E0028
:10294000B31579003A157300C7146F0058146A0064
:10295000EE1366008813630025135E00C7125B0048
:102960006C12570015125400C111510070114F0024
:1029700021114B00D61049008D104700461044002D
:1029800002104200C00F4000800F3E00420F3C008A
:10299000060F3B00CB0E3800930E37005C0E35005F
:1029A000270E3400F30D3200C10D3100900D3000C0
:1029B000600D2E00320D2D00050D2C00D90C2B00C2
:1029C000AE0C2900850C29005C0C2700350C270073
:1029D0000E0C2600E80B2400C40B2400A00B2300DF
:1029E0007D0B23005A0B2100390B2100180B20000E
:1029F000F80A1F00D90A1E00BB0A1E009D0A1D000E
:102A0000800A1D00630A1C00470A1B002C0A1B00D9
:102A1000110A1A00F7091A00DD091900C409190082
:102A2000AB091900920917007B0918006309170008
:102A30004C09160036091600200916000A0915006F
:102A4000F5081500E0081400CC081400B8081400BC
:102A5000A4081400900813007D0812006B081300EE
:102A6000580812004608120034081100230811000B
:102A70001208110001081100F0071000E007100013
:102A8000D0071000C0071000B0070F00A10710000A
:102A900091070E0083070F0074070F0065070E00F3
:102AA00057070E0049070E003B070D002E070E00CA
:102AB00020070D0013070D0006070D00F9060C0096
:102AC000ED060D00E0060C00D4060C00C8060C0054
:102AD000BC060C00B0060C00A4060B0099060C0006
:102AE0008D060B0082060B0077060B006C060B00B0
:102AF00061060A0057060B004C060A0042060A004F
:102B000038060A002E060A0024060A001A060A00E1
:102B10001006090007060A00FD050900F405090072
:102B2000EB050900E2050900D9050900D0050900F7
:102B3000C7050900BE050900B5050800AD05080078
:102B4000A50509009C050800940508008C050800EF
:102B5000840508007C050800740508006C05070062
:102B6000650508005D050700560508004E050700CD
:102B70004705070040050800380507003105070034
:102B80002A050700230507001C0506001605070097
:102B90000F0507000805060002050700FB040600F4
:102BA000F5040700EE040600E8040600E20407004E
:102BB000DB040600D5040600CF040600C9040600A5
:102BC000C3040600BD040600B7040600B1040500F6
:102BD000AC040600A6040600A00405009B04060041
:102BE00095040500900406008A040500850405008C
:102BF000800406007A0405007504050070040500D1
:102C00006B04050066040500610405005C04050012
:102C100057040500520405004D0405004804050052
:102C2000430405003E0404003A0405003504050091
:102C3000300404002C0405002704040023040500CC
:102C40001E0404001A040400160405001104040004
:102C50000D04040009040500040404000004040039
:102C6000FC030400F8030400F4030400F003040070
:102C7000EC030400E8030400E4030400E0030400A0
:102C8000DC030400D8030400D4030400D0030400D0
:102C9000CC030400C8030300C503030024F404D9D3
:102CA000201BC40C5C0E9804C4095F026507710107
:102CB000F405F900FB04B30048048700C103690070
:102CC0005803550003034500BE023A008402310058
:102CD00053022A002902250004022000E4011C00FE
:102CE000C8011900AF0117009801140084011300F6
:102CF000710110006101100051010E0043010D002F
:102D000036010B002B010B0020010B0015010900FF
:102D10000C01090003010800FB000800F300080093
:102D2000EB000700E4000600DE000600D800060005
:102D3000D2000600CC000500C7000500C200050057
:102D4000BD000400B9000400B5000400B100040097
:102D5000AD000400A9000400A5000300A2000300C8
:102D60009F0004009B0003009800030095000200F0
:102D700093000300900003008D0002008B0003000D
:102D80008800020086000200840003008100020027
:102D90007F0002007D0002007B000200790002003B
:102DA000770001007600020074000200720001004A
:102DB000710002006F0002006D0001006C00020053
:102DC0006A0001006900020067000100660001005E
:102DD0006500010064000200620001006100010062
:102DE000600001005F0002005D0001005C00010066
:102DF0005B0001005A000100590001005800010069
:102E00005700010056000100550001005400010068
:102E10005300000053000100520001005100010066
:102E2000500001004F0001004E0000004E00010064
:102E30004D0001004C0001004B0000004B00010060
:102E40004A0001004900010048000000480001005C
:102E50004700010046000000460001004500000058
:102E60004500010044000100430000004300010050
:102E7000420000004200010041000000410001004A
:102E8000400001003F0000003F0001003E00000044
:102E90003E0001003D0000003D0001003C0000003C
:102EA0003C0000003C0001003B0000003B00010032
:102EB0003A0000003A00010039000000390001002A
:102EC0003800000038000000380001003700000022
:102ED0003700010036000000360000003600010017
:102EE000350000003500000035000100340000000E
:102EF0003400000034000100330000003300000003
:102F000033000100320000003200000032000100F6
:102F100031000000310000003100010030000000ED
:102F200030000000300001002F0000002F000000E2
:102F30002F0000002F0001002E0000002E000000D6
:102F40002E0001002D0000002D0000002D000000CB
:102F50002D0001002C0000002C0000002C000000BF
:102F60002C0001002B0000002B0000002B000000B3
:102F70002B0001002A0000002A0000002A000000A7
:102F80002A0001002900000029000000290000009B
:102F9000290000002900010028000000280000008E
:102FA0002800000028000000280001002700000081
:102FB0002700000027000000270000002700010074
:102FC0002600000026000000260000002600000069
:102FD000260001002500000025000000250000005B
:102FE000250000002500000025000100240000004D
:102FF0002400000024000000240000002400010040
:103000002300000023000000230000002300000034
:103010002300000023000000230001002200000024
:103020002200000022000000220000002200000018
:10303000220001002100000021000000210000000A
:1030400021000000210000002100000021000100FB
:1030500020000000200000002000000020000000F0
:1030600020000000200000002000000020000100DF
:103070001F0000001F0000001F0000001F000000D4
:103080001F0000001F0000001F0001001E000000C4
:103090001E0000001E0000001E000000043700009B
:1030A0001E290000511B00005810000010090000EC
:1030B000CC04000078020000410100004D696372F9
:1030C0006F737465707320756E617661696C61628F
:1030D0006C650A006F70656E206661696C65642CB2
:1030E0002046696C653A20006F70656E0054524945
:1030F000474745524544007A5F6D696E00795F6DC0
:10310000696E00785F6D696E005265706F727469E8
:103110006E6720656E6473746F702073746174756C
:10312000730A0020436F756E7420583A0020453AA8
:1031300000486F6D696E67204661696C6564004D7B
:103140006F74696F6E004175746F20486F6D650014
:103150004D38340044697361626C65205374657046
:103160007065727300473238205A00486F6D6520D1
:103170005A00473238205900486F6D652059004782
:103180003238205800486F6D6520580047323800AB
:103190005072656865617420504C4120456E640032
:1031A0005072656865617420504C4120426564002E
:1031B000506C6561736520526573657400505249A7
:1031C0004E5445522048414C5445440025533A2022
:1031D0002553004B494C4C45442E20005072696EDB
:1031E0007465722068616C7465642E206B696C6C08
:1031F00028292063616C6C6564210A006563686F2F
:103200003A004572726F723A0042696C696E65618C
:1032100072204C6576656C696E6720477269643A06
:103220000A005072696E742066726F6D204D65647D
:10323000696100205A3A200020593A200042656412
:1032400020583A200050726F62696E6720466169AB
:103250006C65640A0050726F62696E67204661692E
:103260006C656400486F6D65202573257325732098
:10327000466972737400496E736572742066696C76
:10328000616D656E7420616E642070726573732069
:10329000627574746F6E0A00220A00556E6B6E6F51
:1032A000776E20636F6D6D616E643A20220020544A
:1032B0000020520048617264636F64656420446555
:1032C0006661756C742053657474696E6773204C05
:1032D0006F616465640A0020204D36303320002081
:1032E000550046696C616D656E74206C6F61642F6A
:1032F000756E6C6F6164206C656E677468733A0AF2
:103300000020204D3835312058005A2D50726F6200
:1033100065204F66667365740020204D343133207C
:103320005300506F7765722D4C6F73732052656335
:103330006F766572793A0A0020204D333034205080
:103340000020204D33303120500050494420736517
:103350007474696E67733A0A0020460020480020A2
:10336000204D3134352053004D6174657269616CB4
:103370002068656174757020706172616D65746537
:1033800072733A0A00204A00202047323920572021
:10339000490020204D3432302053004175746F2095
:1033A000426564204C6576656C696E673A0A002058
:1033B000204D323036205800486F6D65206F6666AC
:1033C0007365743A0A0020204D32303520420020C7
:1033D000453C6D61785F655F6A65726B3E002058A1
:1033E0003C6D61785F785F6A65726B3E20593C6D19
:1033F00061785F795F6A65726B3E205A3C6D6178D7
:103400005F7A5F6A65726B3E00416476616E6365E8
:10341000643A20423C6D696E5F7365676D656E74DA
:103420005F74696D655F75733E20533C6D696E5FB7
:1034300066656564726174653E20543C6D696E5FBB
:1034400074726176656C5F66656564726174653E11
:103450000020204D323034205000416363656C659C
:10346000726174696F6E2028756E6974732F733280
:10347000293A20503C7072696E745F616363656CB9
:103480003E20523C726574726163745F6163636570
:103490006C3E20543C74726176656C5F6163636559
:1034A0006C3E0A0020204D3230312058004D6178AA
:1034B000696D756D20416363656C65726174696FD8
:1034C0006E2028756E6974732F7332293A0A0020B2
:1034D000204D3230332058004D6178696D756D2074
:1034E0006665656472617465732028756E697473AE
:1034F0002F73293A0A005374657073207065722027
:10350000756E69743A0A0020204D32303020443004
:103510000A0020204D32303020440020446973617D
:10352000626C65640A0046696C616D656E74207337
:10353000657474696E67733A0020204D3134392008
:1035400043203B20556E69747320696E2043656C7F
:10355000736975730A0020286D6D29002020473299
:1035600031202020203B20556E69747320696E2025
:103570006D6D00000096430000964300000C420071
:1035800000C8410000A0420000A0420000C8430063
:1035900000BA42DC050000DC05000096000000DCFB
:1035A000050000006201940111241FBECFEFD1E29B
:1035B000DEBFCDBF00E00CBF13E0A0E0B2E0ECE660
:1035C000FCE602E00BBF02C007900D92A035B107E8
:1035D000D9F726E1A0E5B3E001C01D92A036B207FD
:1035E000E1F71AE1C3EDDAE100E006C02197010935
:1035F000802FFE010F947632C23DD10780E008078C
:10360000A9F70F94D51F0D9424360C9400002F9227
:103610003F924F925F926F927F928F929F92AF9262
:10362000BF92CF92DF92EF92FF920F931F93CF93AF
:10363000DF93CDB7DEB7C555D1090FB6F894DEBF1D
:103640000FBECDBF66968FAF66972091D715259692
:103650002FAF259791E09093D71580918C0E8D34E4
:1036600009F40DC4843511F40C94562C873411F0F0
:103670000C94712C20908A0E30908B0E3BE1231617
:10368000310409F418C1C4F454E02516310444F49B
:1036900082E0281631040CF041C037FE33C0EBC382
:1036A00094E02916310409F4C7C0A5E12A163104B3
:1036B00011F40C94732CDFC3BAE22B16310409F415
:1036C000B3C26CF4FDE12F16310409F41EC10CF4F1
:1036D0000CC13EE12316310409F42BC1CCC34BE5E8
:1036E0002416310409F4EAC15CE52516310409F415
:1036F000EAC18AE52816310409F0BDC310925903C6
:103700000C94732C80911302882311F40C94732C65
:103710000E947A960E941CFC0C94732C80911302D8
:10372000882311F40C94732C0E947A9682E50E94EF
:103730000CB2882309F44EC00E94B4AF6B017C0127
:1037400020E030E0A9010F94912B882311F40C9410
:103750003F2D2091FE033091FF03409100045091D2
:1037600001042CA33DA34EA35FA38091020490917A
:103770000304A0910404B091050488A799A7AAA7FF
:10378000BBA78090360E9090370EA090380EB09068
:10379000390E40903A0E50903B0E60903C0E709067
:1037A0003D0EA50194016CA17DA18EA19FA10F9456
:1037B000912B81110C94802CA301920168A579A50D
:1037C0008AA59BA50F94912B882311F40C943F2D6F
:1037D0000C94802C89E40E940CB2882329F00E946A
:1037E000B4AF6B017C0103C0C12CD12C76018AE4FB
:1037F0000E940CB2882311F40C94462D0E94B4AFA1
:103800006CA77DA78EA79FA720E030E0A901C70184
:10381000B6010F94912B81110C94532D20E030E0D0
:10382000A9016CA57DA58EA59FA50F94912B811153
:103830000C94532D0C943F2D80E50E940CB28823EC
:1038400029F00E946FBE6B017C0103C0C12CD12CFA
:10385000760183E50E940CB2882361F00E94B4AF28
:1038600020E030E04AE754E40F94F72B0F94FA334A
:103870006B017C010E94B4DE8091B00D811105C006
:1038800060E089E496E00E943DCB0E94E981C60E8B
:10389000D71EE81EF91E0E94E981DC01CB018C19BC
:1038A0009D09AE09BF09B7FD02C00C94732C80E0DE
:1038B0000E94E73CF0CF0F949A0F81110C94732C67
:1038C0008CE0E2E7F2E0DE01119601900D928A951C
:1038D000E1F760E070E080E50E94979DBE016F5FB8
:1038E0007F4F0E9413CA0C94732C8091D41587705B
:1038F000873011F00C94DC3060E08FE40E9419B244
:1039000081110C94732C0C94DC300F949A0F81115C
:103910000C94732C80915B0E882311F40C947431F9
:1039200060E08FE40E9419B281110C94732C0C9406
:1039300074312091C3153091C4154091C515509133
:10394000C6156091FE037091FF0380910004909171
:1039500001040F948732AB01BC0188E50E94A047A7
:1039600069837A838B839C832091C7153091C81516
:103970004091C9155091CA156091020470910304D9
:1039800080910404909105040F948732AB01BC012F
:1039900089E50E94A0476D837E838F839887BE014F
:1039A0006B5F7F4FCE0101960E9403BF882311F405
:1039B0000C94732C80E00F9488080E9410FF61E043
:1039C00085E40E9419B2182F21E0482FBE016B5FD9
:1039D0007F4FCE0101960F9450106B017C019B012B
:1039E000AC010F94793581115FC089809A80AB80DA
:1039F000BC8020E030E0A901C501B4010F94912BF7
:103A000087FF05C027E137EB41E558EB04C027E10C
:103A100037EB41E558E3C501B4010F948732AB01A0
:103A2000BC018DE392E30F94D00C8D809E80AF801B
:103A3000B88420E030E0A901C501B4010F94912BB6
:103A400087FF05C027E137EB41E558EB04C027E1CC
:103A500037EB41E558E3C501B4010F948732AB0160
:103A6000BC0188E392E30F94D00C20E030E0A90180
:103A7000C701B6010F94912B87FF05C067E177EB73
:103A800081E598EB04C067E177EB81E598E3A70156
:103A900096010F948732AB01BC0183E392E30F944C
:103AA000D00C8AE00E94BB3B0E94F7FE113011F45B
:103AB0000E942EDC0F94DA000C94732C8FE080931C
:103AC00059030C94732C8091890E882349F1893015
:103AD00009F0A6C04EE7A42E42E0B42E5EEFE52E1C
:103AE00053E0F52ED12C00E010E0D5018D915D0161
:103AF0000E940CB2882369F00E94B4AFF701608382
:103B0000718382839383133011F401E002C0DD24BA
:103B1000D3941F5FF4E0EF0EF11C143031F775C041
:103B20009EE7292E92E0392E2AE2E22E2EE0F22E96
:103B30002EEF33E03DA32CA337EBC32E35E1D32E7C
:103B400000E010E0D1018D911D010E940CB288238C
:103B500009F44BC00E94B4AF2B013C01133049F073
:103B6000F60120813181428153810F9486322B01ED
:103B70003C01ACA1BDA12D913D914D915C91C30142
:103B8000B2010F9486324B015C012DEB37E346E81E
:103B900055EB0F94E73487FD0AC02DEB37E346E879
:103BA00055E3C501B4010F94912B1816F4F41330AA
:103BB00051F440920A0450920B0460920C047092EB
:103BC0000D0401E012C0A5019401F701608171812B
:103BD000828193810F948732D7016D937D938D936A
:103BE0009C931397812F0E94EEE21F5FB4E0EB0ECF
:103BF000F11CECA1FDA13496FDA3ECA3F4E0CF0EE3
:103C0000D11C143009F09ECF05C0DD2019F00F94AF
:103C1000D80006C0002321F08AE094E00E94C5DEAF
:103C20000F94DA000C94732C80911302882311F402
:103C30000C94732C89E40E940CB2E82E882321F0A6
:103C40000E94B0AF082F01C000E08AE40E940CB2CD
:103C5000F82E882321F00E94B0AF182F01C010E089
:103C6000EE2011F0053020F4FF2041F0153030F047
:103C700082E596E00F94180C0C94732C80E1EEEF23
:103C8000F3E0A6E3BEE001900D928A95E1F7EE2005
:103C900019F1602F000F770B880B990B0F94982B5D
:103CA0002091E0153091E1154091E2155091E31516
:103CB0000F94F72B2091E6033091E7034091E8033E
:103CC0005091E9030F9487326093360E7093370E4C
:103CD0008093380E9093390EFF2019F1612F110F48
:103CE000770B880B990B0F94982B2091E41530914A
:103CF000E5154091E6155091E7150F94F72B2091AB
:103D0000EA033091EB034091EC035091ED030F94E3
:103D1000873260933A0E70933B0E80933C0E9093E3
:103D20003D0E60E080E50E9419B28823C1F1EE20CB
:103D3000D1F02091C3153091C4154091C515509113
:103D4000C6156091360E7091370E8091380E9091A5
:103D5000390E0F9486326093360E7093370E80932F
:103D6000380E9093390EFF20D1F02091C715309175
:103D7000C8154091C9155091CA1560913A0E7091BD
:103D80003B0E80913C0E90913D0E0F9486326093D5
:103D90003A0E70933B0E80933C0E90933D0E40E0A4
:103DA00050E0BA0186E40E94A0476B017C0120E04C
:103DB00030E0A9010F94E73418165CF420E030E0FD
:103DC00040E752E4C701B6010F9481336B017C01D7
:103DD00003C0C12CD12C760180906E0290906F02AE
:103DE000A0907002B090710220E030E0A901C701FC
:103DF000B6010F94912B882341F0C0926E02D092AD
:103E00006F02E0927002F092710200915D021091D7
:103E10005E0284E690E090935E0280935D02C09023
:103E20000202D0900302E0900402F090050280E0CC
:103E300090E0A0E8BFE38093020290930302A09376
:103E40000402B09305020E941CFC80926E029092C4
:103E50006F02A0927002B092710210935E02009302
:103E60005D02C0920202D0920302E0920402F0923C
:103E700005020C94732C0F949F0E0C94732C0091DC
:103E80008A0E10918B0E0D37110509F42DC60CF01A
:103E90002AC10135110509F42AC60CF0A2C00A3165
:103EA000110509F429C3D4F50431110509F482C2BE
:103EB000A4F40131110509F469C24CF40230110572
:103EC00010F00C94532C0E948CEB0C94732C023148
:103ED000110509F434C60C94532C0731110509F46B
:103EE0008EC294F40531110509F485C2063111051D
:103EF00011F00C94532C0E94F49180915C12877FF6
:103F000080935C120C94732C0831110509F48DC256
:103F10000931110509F4E5C20C94532C0032110546
:103F200009F462C30CF041C00D31110509F445C319
:103F30009CF40B31110509F4EDC20C31110511F09F
:103F40000C94532C40E060E08091870E9091880E95
:103F50000E944C940C94732C0E31110509F434C357
:103F60000F31110511F00C94532C0E94B9666C8F1F
:103F70007D8F8E8F9F8FBE016F5F7F4FCE014C96DE
:103F80000E9416E660E0CE0101960E94C4CB0F9419
:103F9000050DBE016F5F7F4F86ED96E00F94EE0C2E
:103FA0008AE00E94BB3B0C94732C0C34110509F47D
:103FB00078C36CF40A32110509F450C30B341105AF
:103FC00011F00C94532C0E941C3B0C94732C0D3458
:103FD000110509F46AC30E34110509F46AC30C947F
:103FE000532C0D36110509F41AC49CF50C35110536
:103FF00009F4C1C584F40335110509F499C50CF41D
:1040000090C50435110509F49AC50535110509F463
:1040100099C50C94532C0A36110509F473C454F451
:104020000836110509F4D7C30936110509F454C43B
:104030000C94532C0B36110509F487C40C3611056A
:1040400011F00C94532C1092D615109212020C946D
:10405000732C0337110509F42CC6F4F4003711054D
:1040600009F4D6C454F40E36110509F47BC40F3696
:10407000110509F488C40C94532C0137110509F477
:10408000D2C40237110511F00C94532C0E94B4DEF7
:104090000F94DA000C94732C0737110509F4B4C699
:1040A0008CF40537110509F46DC60637110511F0BA
:1040B0000C94532C0091870E1091880E94E0F12CF3
:1040C00040E086C60837110509F4A1C60937110575
:1040D00011F00C94532C1092F8091092F7090F94D8
:1040E0001B020C94732C003921E0120711F40C947C
:1040F0001A2A0CF08CC0033D110509F49AC70CF084
:104100003FC0083C110509F4E5C6C4F401391105A6
:1041100009F485C634F40C38110509F4A6C40C94CE
:10412000532C0B39110509F4B9C40E3B110511F0DC
:104130000C94532C0E9439E40C94732C0C3C110504
:1041400009F457C754F4093C110509F410C70B3C96
:10415000110509F42FC70C94532C0D3C110509F4DB
:104160004BC70E3C110511F00C94532C4EE7C42E96
:1041700042E0D42E5CEFE52E59E0F52E10E03FC76B
:104180000D3241E0140711F40C94E328DCF4023EF4
:10419000110509F4B4C754F40C3D110509F44CC7DA
:1041A0000D3D110509F455C70C94532C023281E0E2
:1041B000180711F40C94CB280C32114009F4EEC707
:1041C0000C94532C0033A1E01A0711F40C946329CA
:1041D0007CF40E32E1E01E0711F40C94D6290F3264
:1041E000114011F00C94532C0E94B7470C94732C7F
:1041F0000E3521E0120711F40C94B82B0F35114045
:1042000011F00C94532C0E94AA9D0C94732C083F1F
:1042100041E0140711F40C94F02A0CF05BC0053A4D
:1042200081E0180711F40C94232A4CF50A39A1E017
:104230001A0709F4F5C3A4F40139E1E01E0711F4EB
:104240000C941D2A0239114011F00C94532C80E07B
:104250000E9476DC0E942EDC0F94DA000C94732C02
:104260000D3921E0120711F40C94FB2B043A114094
:1042700011F00C94532C0E9434B00C94732C053F15
:1042800041E0140711F40C94EA2A7CF40C3A81E022
:10429000180711F40C948C2A043F114011F00C946F
:1042A000532C0E94C25B0C94732C063FA1E01A07AA
:1042B00011F40C94ED2A073F114011F00C94532C8B
:1042C00061E083E50E9419B291E089270F9492156D
:1042D0000C94732C0335E3E01E0711F40C94082BA7
:1042E0002CF50B3522E0120711F40C940B2B7CF407
:1042F0000C3042E0140711F40C94002B08351240E6
:1043000011F00C94532C0E94D29B0C94732C0D3BF7
:1043100082E0180711F40C94842B0E3B124011F02C
:104320000C94532C0E94B0990C94732C003AA3E087
:104330001A0709F483C1DCF40B38E3E01E0711F41B
:104340000C94872B0C38134011F00C94532C60E024
:1043500070E083E50E9438C08C0160E070E080E589
:104360000E9438C0B8010E9486ED0C94732C073E61
:1043700023E0120711F40C94ED2B083E134011F0CA
:104380000C94532C0E94BD970C94732C80918D0E2D
:1043900084FF02C00C94773180918F0E87FF02C09A
:1043A0000C9477318091900E837011F00C947731DA
:1043B0000C94903189E896E00F94180C89E792E10B
:1043C0000E9445A78BE1E9E7F2E1DE011196019039
:1043D0000D928A95E1F760E070E0CE0101960E94AF
:1043E0006D95CE0101960E943BB38AE796E00F944B
:1043F000180C0C94732C0E9465920C94732CE09111
:10440000870EF091880E8081882329F0803209F48C
:1044100010823196F8CF40E061E08091870E909154
:10442000880E0E944C940C94732C83E50E940CB26D
:10443000882321F00E947CAF0E94F5E684E50E946B
:104440000CB28823A9F00E947CAF6B017C010E9412
:10445000ED66C092600ED092610EE092620EF09214
:10446000630ECD28CE28CF2819F081E08093680E06
:104470008091EE0B8823E9F080E090E0A8ECB2E4B4
:1044800088A399A3AAA3BBA31C8E1D8E1E8E1F8E6C
:1044900019821A821B821C8220E0AE01405E5F4FAF
:1044A000BE01645E7F4FCE0101960E94E6B30C947C
:1044B000732C0E94F83A882381F00E9405920E9492
:1044C0001C3B88E99CE00E94AA911092910E1092E8
:1044D000920E1092930E1092940E0E94E9CB0C94BF
:1044E000732C80915C1282FF03C08B7F80935C12DF
:1044F0000E94CA9C0C94732C80915C1283FD02C0B4
:104500000C94732C83E50E940CB281110C949B31A6
:104510000C94732C83E40E94EBAF882319F184EA96
:1045200096E00F94180C8091C013882391F0BE017F
:104530006F5F7F4F8DEB93E10E940CA68E010F5FA2
:104540001F4FD8018D918D01882339F00E94BB3B0C
:10455000F8CF8AE996E00F94180C8AE00E94BB3BE2
:104560000C94732C80915C1282FF21C083EB96E047
:104570000F94180C609158127091591280915A1230
:1045800090915B124AE00E94C23B8FE20E94BB3BCB
:104590006091541270915512809156129091571259
:1045A0004AE00E94C23B0E94C03C0C94732C85ECF4
:1045B00096E00F94180C0C94732C80915C128E7FF3
:1045C00080935C120C94732C80915C1283FD02C06A
:1045D0000C94732C0E94677D8091870E9091880EB9
:1045E0000E947E930C94732C80915C1282FD0E9439
:1045F000B4DE80915C1283FD02C00C94732C60E0E9
:1046000080E50E9419B2182F482F61E08091870E33
:104610009091880E0E944C9483E50E940CB28823EE
:1046200021F00E947CAF0E94F5E60E9405921111D4
:104630000C94732C0E941C3B0C94732C2091870EBD
:104640003091880E90915C12926090935C1240E0E1
:1046500060E0C9010E944C940C94732C83E50E9485
:104660000CB2882311F40C94732C0E948CAFF82E9A
:104670006DE070E080E50E9438C08C0197FF02C0B9
:104680000C94732CE82E60E089E40E9419B2811129
:104690000C94A031802F0F94EF1D81114DC50C9407
:1046A000A0310E9408670C94732C0E9476DD0C9454
:1046B000732C60E070E083E50E9438C08E34910571
:1046C00031F40E94E7DD0E94E9CB0C94732C89E35E
:1046D00097E00F94180C6091E7097091E80980E366
:1046E00097E00F94C30C6091E9097091EA0983E2A5
:1046F00097E00F94C30C6091E7097091E8098091ED
:10470000E9099091EA09681B790B8091680E815044
:1047100021E030E0823010F020E030E0621B730BCB
:1047200088E197E00F94C30C8AE00E94BB3B89E3C9
:1047300097E00F94180C8091EB099091EC09A091EF
:10474000ED09B091EE098C8F9D8FAE8FBF8FBE01AA
:104750006F5F7F4FCE014C960E9416E6BE016F5FE1
:104760007F4F8BE097E00F94EE0C8091EF099091D2
:10477000F009A091F109B091F2098C8F9D8FAE8F55
:10478000BF8FBE016F5F7F4FCE014C960E9416E631
:10479000BE016F5F7F4F8BEF96E00F94EE0C20E031
:1047A00030E04AE754E46091F3097091F409809194
:1047B000F5099091F6090F948133AB01BC0183EEAA
:1047C00096E00F94D00C8DE60E94BB3B8AE00E94DD
:1047D000BB3B0C94732C8091770983FF02C00C942F
:1047E000732C0E94949787FF02C00C94732C83E56E
:1047F0000E940CB2882379F00E94B4AF0F94F33377
:104800008B01CB010E9474AB0635110524F40E9484
:1048100076DD0E94E9CB0F946D250C94732C80916A
:10482000770983FF02C00C94732C0E949497F82E92
:1048300087FF02C00C94732C83E50E940CB2082FF2
:10484000811106C082E50E940CB2182F8823C1F1A5
:104850000E94B4AF0F94F333CB010E9474AB0E945B
:10486000B4AF20E030E04AEA52E40F94912B1816DE
:1048700014F40C94B9310E9476DD0E94E9CB60916A
:10488000660470916704072E000C880B990B0F9437
:10489000982B4B015C01409062045090630460903F
:1048A000640470906504A30192010F94E734181614
:1048B00014F40C94D731002311F40C94BD3111E0A1
:1048C0000F946D25112311F40C94732C602F8F2DF0
:1048D0000E94FCAB0C94732C0E949497182F87FDB8
:1048E0000AC08EE598E20F94180C812F0E9485ABC8
:1048F0008AE00E94BB3B2596BFAD2597B093D715A4
:104900000C94313260E080E50E9447C0182F82305D
:1049100010F00C94732C81E40E94EBAF882321F0FB
:104920006091470470E002C06FEF70E083E50E9481
:10493000979DE12FF0E0E95BFB4F8F3F910519F068
:1049400010F08FEF90E08083CEC760E080E50E949A
:1049500047C0823008F0C7C7E82FF0E0E95BFB4FA3
:104960001082C1C78EE40E940CB2882309F4BBC731
:104970000E947CAF6093190F70931A0F80931B0FE6
:1049800090931C0FB0C783E50E94EBAF882331F0F2
:1049900060E083E50E9447C0809377090F94050D7E
:1049A0008AE497E00F94180C80917709882369F1C5
:1049B00080E8E82E8AE0F82E00E010E020E0809108
:1049C000770990E0A0E0B0E0002E04C0B695A7956E
:1049D000979587950A94D2F780FF0EC0DD24D39473
:1049E000D20E222319F08CE20E94BB3BF701859185
:1049F00094910F94180C2D2D0F5F1F4FE2E0EE0ED7
:104A0000F11C05301105D9F6A8CD86E497E0A3CDB9
:104A100041E060E070E081E597E00F942D0D63C701
:104A20000E94B63A60C783E50E940CB2882371F0F9
:104A30000E948CAF282F30E02D3331051CF4809379
:104A4000000251C78CE3809300024DC70F94050DFF
:104A50004091000250E060E070E08FE597E00F9435
:104A6000B20C8AE00E94BB3B3EC78091770983FD70
:104A70003AC783E50E940CB2882309F434C70E9428
:104A8000B4AF0F94F3336C3871050CF48B011093B1
:104A9000500D00934F0D0E94D68425C783E50E94D8
:104AA0000CB2882309F41FC70E948CAF182F90E026
:104AB000CD970CF01CE3109354030E94E9816B0125
:104AC0007C01212F30E0A8EEB3E00F941432C60E23
:104AD000D71EE81EF91EC0925003D0925103E092F7
:104AE0005203F0925303FFC60E94CA9CFCC60E9468
:104AF0005D850E9476DD0E9430E00E94F33A1092BC
:104B0000D3151092D2151092D11568EE73E080E0A3
:104B100090E00F94F40B60E086E697E00E943DCBB6
:104B2000E2C6809159038F7D806180935903DBC673
:104B3000809159038F7E806280935903D4C60E946E
:104B40006CBDD1C683E50E94EBAF882309F4CBC6C8
:104B50000E94B4AF20E030E04AE754E40F94F72B12
:104B60000F94FA3360935503709356038093570361
:104B700090935803B8C60E94949787FDB4C690914D
:104B80008D0E94FD04C090918F0E97FF0AC01EE712
:104B9000C12E12E0D12E08E7E02E09E0F02E10E041
:104BA00009C09091900E937091F7682F81E00E9458
:104BB000BEBD99C6D6018D916D010E940CB28823AD
:104BC00009F46DC0133009F063C00E94B4AF4B010B
:104BD0005C0120E030E040EA51E40F94912B87FF24
:104BE0004EC0A50194016091980970919909809136
:104BF0009A0990919B090F9481332B013C019B01F1
:104C0000AC0160912B0470912C0480912D04909143
:104C10002E040F94F72B60932B0470932C04809335
:104C20002D0490932E04A30192016091A809709124
:104C3000A9098091AA099091AB090F94F72B609371
:104C4000A8097093A9098093AA099093AB09609170
:104C50003B0470913C0480913D0490913E040F947C
:104C6000962BA30192010F94F72B0F94FA336093C4
:104C70003B0470933C0480933D0490933E048092E7
:104C8000980990929909A0929A09B0929B0907C03D
:104C90000E94B4AFF701648B758B868B978B1F5F77
:104CA000F4E0EF0EF11C143009F084CF0E9490DE86
:104CB0001AC687E998E00F94180C60E087E898E03E
:104CC0000E941AEC60E082E798E00E941AEC61E032
:104CD0008FEC94E10E941AEC61E087E698E00E9474
:104CE0001AEC61E087E598E00E941AEC60E08EE43F
:104CF00098E00E941AEC61E084E498E00E941AECCB
:104D000061E08AE398E00E941AEC61E082E398E0B7
:104D10000E941AEC61E084E298E00E941AEC60E0E4
:104D200086E198E00E941AEC60E087E098E00E943B
:104D30001AEC60E089EF97E00E941AEC60E083EEE5
:104D400097E00E941AEC60E082ED97E00E941AEC76
:104D500060E083EC97E00E941AEC60E08EEA97E056
:104D60000E941AEC61E08BE997E00E941AEC60E087
:104D70008EE897E00E941AEC60E08AE797E00E94D4
:104D80001AECB1C58091870E9091880E009709F4B6
:104D9000A4CBDC012C91222309F49FCB60E00E947C
:104DA000C4CBA1C5F8018081282F2B7F213499F035
:104DB0008035E9F4818180538A30C8F498012E5FF0
:104DC0003F4F89012F5F3F4FF80180818032C9F347
:104DD000915041F70CC02181213349F4813421F0F5
:104DE000853461F741E0EACFFF24F394E7CF411126
:104DF0000F94050DFF2021F081E699E00F94180C27
:104E0000C8010E94C63C6FC50F94FA016CC581E0D1
:104E10008093F8098093F7090F941B0264C560E042
:104E200070E083E50E9438C08C0111270230110523
:104E30003CF00F94010D85E699E00F94180C53C5D2
:104E400088E40E940CB28823A9F00E94B0AF8A3A8D
:104E500091053CF08530F1E09F072CF084E091E073
:104E600002C08AEA90E0F801EE0FFF1FED52F64F04
:104E70009183808386E40E940CB2882381F00E9493
:104E8000B0AF97FD07C08F3F910529F024F08FEF59
:104E900090E001C080E0F801E051FA4E808382E4A6
:104EA0000E940CB2882309F41EC50E94B0AF853061
:104EB000910534F08D3891052CF08CE890E002C01B
:104EC00085E090E0F801EE0FFF1FEE50FA4E91835F
:104ED000808309C50E949497182F87FD04C584E438
:104EE0000E94EBAF882309F43FC00E94B4AF6B016E
:104EF0007C0101E020E030E0A9010F94912B8111A9
:104F000001C000E00093520E20E030E0A901C7018B
:104F1000B6010F94912B882339F10E94B4AF24E09D
:104F20001202F0011124E95AF14F608371838283E8
:104F3000938320E030E0A9016091570E7091580EE4
:104F40008091590E90915A0E0F94912B81110CC0A3
:104F500080E090E0A0EEBFE38093570E9093580E50
:104F6000A093590EB0935A0E0E9412DBBCC40E944B
:104F7000949787FDB8C47EE7E72E72E0F72E08E726
:104F800019E0D7018D917D010E94EBAF882359F084
:104F90000E94B4AF0F94FA33F80160837183828367
:104FA00093830E9449DE0C5F1F4FF9E008381F070A
:104FB00041F799C40E94949787FD95C46EE7E62E49
:104FC00062E0F62E08E719E0D7018D917D010E947D
:104FD000EBAF882339F00E94B4AFF80164A375A346
:104FE00086A397A30C5F1F4FF9E008381F0761F7EE
:104FF0007AC40E94F9BD77C40E947FBE74C4D601F2
:105000008D916D010E94EBAF882351F00E94B4AFE7
:10501000F7016083718382839383812F0E94EEE284
:105020001F5FF4E0EF0EF11C133049F70F94DA0024
:105030005AC40E947DBC57C483E50E940CB28823E9
:1050400009F451C40E94B0AF90935E0280935D0258
:105050004AC40E949497F82E87FD45C483E50E94B8
:105060000CB20F2D0F2C000C110B882369F10E943C
:10507000B0AFF801EE0FFF1FEC5DFD4F9183808311
:10508000000F111F000F111F98012E5F3D4F790176
:10509000BC01990F880B990B0F94982B2AE037EDE0
:1050A00043E25CE30F94F72BF801ED5AF14F2081B6
:1050B0003181428153810F94F72BD7016D937D93FA
:1050C0008D939C9313970FC40F94050D85E40E9454
:1050D000BB3B80E38F0D0E94BB3BF801EE0FFF1F2F
:1050E000EC5DFD4F6081718187E899E00F94E10CE0
:1050F00085E20E94BB3B8AE00E94BB3BF4C380E593
:105100000E94EBAF882309F4EEC360E070E080E515
:105110000E9438C0F82E6FEF7FEF83E50E9438C001
:105120008C010196039708F0DEC3F7FCDCC38F2DDA
:105130000F94EF1D882339F00F94010D8FE899E04B
:105140000F94180CD0C30E94B4DE60E08F2D0E9433
:10515000AA800F3FBFEF1B0731F00130110571F03E
:1051600000E010E00DC08F2D0F94AC1F31E020E067
:10517000892B09F030E0032F122F02C001E010E06C
:105180008F2D0F94AC1F8017910709F4ACC380E0FA
:105190000E94E73CF5CF0E94D9EAA5C364E071E024
:1051A00083E50E94979D8C0168EE73E080E50E9484
:1051B000979D8938E3E19E0710F088E893E1B801F4
:1051C0000E9410CB90C360E085E40E9447C081112B
:1051D00073C080E50E94EBAF882351F00E94B4AF0A
:1051E0006093690470936A0480936B0490936C04D9
:1051F00089E40E94EBAF882381F00E94B4AF2CEACF
:1052000035EC47E25EE30F94F72B60936D047093E7
:105210006E0480936F049093700484E40E94EBAF5B
:10522000882381F00E94B4AF2CEA35EC47E25EE3BC
:105230000F948133609371047093720480937304AC
:10524000909374040F94050D4091690450916A0481
:1052500060916B0470916C0488E69BE10F94D00C14
:105260002CEA35EC47E25EE360916D0470916E04C8
:1052700080916F04909170040F948133AB01BC0155
:1052800080EB99E00F94D00C2CEA35EC47E25EE31A
:105290006091710470917204809173049091740410
:1052A0000F94F72BAB01BC018FE59BE10F94D00C61
:1052B0008AE00E94BB3B17C30F94010D8EE999E071
:1052C0000F94180C10C380E50E94EBAF882351F0B7
:1052D0000E94B4AF6093520D7093530D8093540DA0
:1052E0009093550D89E40E94EBAF882381F00E94D2
:1052F000B4AF2CEA35EC47E25EE30F94F72B6093F2
:10530000560D7093570D8093580D9093590D84E46A
:105310000E94EBAF882381F00E94B4AF2CEA35ECF9
:1053200047E25EE30F94813360935A0D70935B0DF7
:1053300080935C0D90935D0D0F94050D4091520D7F
:105340005091530D6091540D7091550D88E69BE17D
:105350000F94D00C2CEA35EC47E25EE36091560DD9
:105360007091570D8091580D9091590D0F94813384
:10537000AB01BC0180EB99E00F94D00C2CEA35EC2A
:1053800047E25EE360915A0D70915B0D80915C0D78
:1053900090915D0D0F94F72BAB01BC018FE59BE164
:1053A0000F94D00C8AE00E94BB3B9DC283E50E9413
:1053B000EBAF182F882371F00E94B4AF0F94F33332
:1053C000709307026093060221E0672B09F020E04A
:1053D00020935D0480E50E94EBAF882359F0209173
:1053E000060230910702232B11F00E94A0AF809398
:1053F0005D0479C2111177C20F94050D8DEC99E00F
:105400000F94180C80915D04882319F088E794E1CB
:1054100002C084EB99E00F94180C60910602709121
:1054200007028CEB99E00F94E10C88EB99E00F9464
:10543000180C59C20E94B4DE56C281E00E9476DC8C
:105440000F94DA0050C26FEF7FEF89E40E9438C0FA
:10545000182F6FEF7FEF8AE40E9438C0082F8AE58B
:105460000E94EBAFF82E811105C081E50E94EBAFE1
:10547000D82E01C0D12C17FD06C007FD04C0F110C5
:1054800009C0D11007C00F94010D80EE99E00F9470
:10549000180C29C2153010F4053038F00F94010DA6
:1054A00082E596E00F94180C1EC2E12E110FFF0842
:1054B000002E000C110B0E94B4AFDD2099F025E006
:1054C0002E9DF0012F9DF00D1124E00FF11FEE0F26
:1054D000FF1FEE0FFF1FEA50FA4E208131814281FB
:1054E000538103C020E030E0A901A5E0AE9DF001AA
:1054F000AF9DF00D11240E0F1F1F000F111F000F85
:10550000111F0A501A4E0F948732D8016D937D9364
:105510008D939C931397E7C10F949A0F8111E3C168
:1055200006E717E2EEEFF3E0FDA3ECA39E012F5F89
:105530003F4F190179EAC72E77E2D72E7901F8019A
:105540006591759185919491ACA1BDA18D909D902F
:10555000AD90BD90BDA3ACA3A50194010F9486327C
:105560002B013C01F701608371838283938320E0E8
:1055700030E040EA51EC0F94E73487FD0AC020E0A8
:1055800030E040EA51E4C301B2010F94912B1816A8
:105590002CF4F601849118160CF40CC7D7018D90E9
:1055A0009D90AD90BD907D0120E030E040EA51EC4F
:1055B000C501B4010F94E73487FD06C720E030E051
:1055C00040EA51E4C501B4010F94912B18160CF078
:1055D0000FC7FAC60F94841586C10F94F21383C1C6
:1055E0009093DB150E9489601092DB15882309F4E3
:1055F0007AC10F94050D8CE39AE00F94180C73C1D7
:1056000080915C1282FF6FC1806480935C126BC1D9
:105610000E940EE868C10E949497082F87FD63C11D
:1056200085E50E94EBAF8823B1F1E02E002E000C3F
:10563000FF080E94B4AF4B015C0120E030E0A901FB
:105640000F94E73487FF04C0B7FAB094B7F8B0946A
:10565000C70153E0880F991F5A95E1F79C01285123
:105660003A4E7901D9018D929D92AD92BC921397D9
:1056700020E030E046E154E4C501B4010F94E73482
:1056800018164CF480E090E0A6E1B4E4F7018083C2
:105690009183A283B3838CE40E94EBAF882309F447
:1056A00022C1002E000C110B0E94B4AF6B017C01D3
:1056B00020E030E0A9010F94E73487FF04C0F7FA37
:1056C000F094F7F8F09420E030E046E154E4C701AC
:1056D000B6010F94E734980143E0220F331F4A9537
:1056E000E1F7F901E851FA4E18162CF0C482D58280
:1056F000E682F782F8C080E090E0A6E1B4E484831B
:105700009583A683B783EFC00E94939AECC09EE76F
:10571000E92E92E0F92E10E0D7018D917D010E94D3
:105720000CB2882331F00E94B0AFBC01812F0E94DF
:1057300095ED1F5F143081F782E40E940CB288233C
:1057400031F00E94B0AFBC0184E00E9495ED83E58A
:105750000E940CB2882309F4C6C010E00E94B0AFCA
:10576000BC01812F0E9495ED1F5F1530B9F7BBC0BA
:1057700083E50E94EBAF811106C08EE7E82E82E040
:10578000F82E10E00EC010E00E948CAF682F812F21
:105790000E9465ED1F5F1530B9F7EFCF1F5F143022
:1057A00071F0F70181917F010E94EBAF8823B1F383
:1057B0000E948CAF682F812F0E9465EDEFCF82E4AD
:1057C0000E94EBAF882331F00E948CAF682F84E0F9
:1057D0000E9465ED0E94888E86C081E0809313024E
:1057E0001092050E60E083E50E9419B281117BC022
:1057F0000E9413E778C083E50E94EBAF882339F05D
:105800000E94A0AF8093FB090E9422B314C00F94A2
:10581000050D8BE69AE00F94180C8091FB09882304
:1058200019F088E497E102C083E998E00F94180C1E
:105830008AE00E94BB3B80918E0E83FD0FC6809153
:105840008F0E81FD0BC687E50E94EBAF882321F008
:1058500061E081E00E942EB280E50E94EBAF8111F1
:105860000E9419B385E40E94EBAF882359F00E948F
:105870008791882319F08FE59AE002C087E59AE0C6
:105880000F94180C86E50E94EBAF882361F10E940B
:1058900031B3882319F080E59AE002C087E49AE0EA
:1058A0000F94180C20C00F949F0E1DC000918A0EFB
:1058B00010918B0E0023B9F00F94050D84E50E9422
:1058C000BB3BB8017727072E000C880B990B0E9471
:1058D0002F3C80E20E94BB3B8EE999E00F94180CAC
:1058E00002C00F949F0E6696FFAD6697F11102C03D
:1058F0000E9403E725962FAD25972093D715B1C5B4
:1059000011E032E02316310409F010E020E030E02D
:10591000A901C701B6010F94912B881F8827881F02
:105920001813A4C020E030E040E85FE32CA73DA7B7
:105930004EA75FA72CA13DA14EA15FA1C501B40157
:105940000F94863220E030E040E05FE30F94F72BC5
:105950006CA37DA38EA39FA328A539A54AA55BA50B
:10596000C301B2010F94863220E030E040E05FE3F3
:105970000F94F72B68A779A78AA79BA72CA13DA115
:105980004EA15FA1CA01B9010F94F72B4B015C0135
:1059900028A539A54AA55BA5CA01B9010F94F72B23
:1059A0009B01AC01C501B4010F9487320F943535CA
:1059B0004B015C019B01AC01C701B6010F9486321B
:1059C0002B013C01A5019401C701B6010F94873258
:1059D0009B01AC01C301B2010F94F72B6B017C0159
:1059E00020E030E0A9010F94E73487FD07C0C7012C
:1059F000B6010F9435352B013C0103C0412C512CCD
:105A0000320168A579A58AA59BA59058A5019401A6
:105A10000F9481332CA53DA54EA55FA50F94F72BC0
:105A2000A30192010F94F72B2CA13DA14EA15FA1E0
:105A30000F9487326B017C01A50194016CA17DA1BB
:105A40008EA19FA10F9481332CA53DA54EA55FA5E6
:105A50000F94F72BA30192010F94F72B28A539A5DA
:105A60004AA55BA50F9487320C94001C80E090E05F
:105A7000A0E8BFEB8CA79DA7AEA7BFA75BCF0F94F5
:105A8000010D83E396E00F94180C2DCF20E030E059
:105A9000A901C701B6010F94912B882381F31CA69D
:105AA0001DA61EA61FA6A701960150582CA33DA314
:105AB0004EA35FA38CA59DA5AEA5BFA5B05888A792
:105AC00099A7AAA7BBA7CA01B9010F94F72B4B014D
:105AD0005C0128A539A54AA55BA5CA01B9010F94A7
