:100000000C947C200C94AD200C94AD200C94AD206D
:100010000C94AD200C94AD200C94AD200C94AD202C
:100020000C94AD200D94F0400D94F0400D94F040F0
:100030000C94AD200C94AD200C94AD200C94AD200C
:100040000C94AD200C9421A30C94AD200C94AD2005
:100050000C94AD200C94AD200C94FDCD0D94D242A7
:100060000C94AD200C9420440C9416440C94AD20B8
:100070000C94AD200C94AD200C94AD200C94AD20CC
:100080000C94AD200C94AD200C94AD200C94AD20BC
:100090000C947AFD0C9450FD0C94AD200C94AD2082
:1000A0000C94AD200C94AD200C94AD200C94AD209C
:1000B0000C94AD200C94AD200C94AD200C94AD208C
:1000C0000C94AD200C94AD200C94AD200C94AD207C
:1000D0000C94AD200C94AD200C94AD200C94AD206C
:1000E0000C94AD20D345D945E445EF45FA45054686
:1000F00010461B464F464F464F464F4626466E46D5
:100100007A468B469C46AD46BE46CF46E0461747EC
:10011000174717471747EE46364742475347644746
:10012000754786479747A847DF47DF47DF47DF47E1
:10013000B647FE470748164821482C4837484248EA
:100140004C487A487A487A487A485448A8486F49CF
:10015000AE48B848C248CC48E248EF486F49FC482E
:100160006F490A496F4912491C496F496F49304923
:100170003A4942494C49564965498E49884A974906
:10018000A449B149BE49D749E749884AF749884A4D
:10019000084A884A134A234A884A884A3A4A474AB8
:1001A000524A5F4A6C4A7E4AA74AA14BB04ABD4AAE
:1001B000CA4AD74AF04A004BA14B104BA14B214BE6
:1001C000A14B2C4B3C4BA14BA14B534B604B6B4B6E
:1001D000784B854B974BC04B784CC64BCE4BD64B90
:1001E000DE4BF44BFF4B784C0A4C784C164C784C59
:1001F0001E4C2B4C784C784C424C4A4C524C5A4C2E
:10020000624C714CDF901E8F578F1B91578F578F09
:10021000578F578F578F578F578F578F578F578FAE
:10022000578F578F578F578F578F578F578F578F9E
:10023000578F578F578F578F578F578F578F578F8E
:100240001591578F578F578F578F578F578F578FBE
:10025000578FEE90578F578F578F578F578F578FD6
:10026000578F578F578F578F3291548F9E032A0283
:100270003A04D003DC038E02360266045A044604B4
:10028000980344039E021C0224024C04BE0456033D
:100290009C0284032E022E02AA042E023E0398041E
:1002A0006C038402E40286037002FE0118045C03FE
:1002B0009402D202D202B403D2022C022C04A4046F
:1002C000CC03AE03C804280262023204D2039E04A7
:1002D000E202E2023C04E2024E027E047004E0020A
:1002E0008E03C2035C0486020002020386044A02F3
:1002F0004A022E044A027E028404E001DE01620406
:10030000F6011A03C8030602DA03FC016A02660258
:10031000F401CC02C4049C030602760358048A0349
:100320002203F803BC047003FC03BE03BA02820379
:10033000920216041E034203FA026C02BE03A603D5
:10034000CA02D803084AD73B3BCE016E84BCBFFD2E
:10035000C12F3D6C74319ABD56833DDA3D00C77F95
:1003600011BED9E4BB4C3E916BAAAABE000000802E
:100370003F05A84CCDB2D44EB93836A9020C50B9BD
:10038000918688083CA6AAAA2ABE000000803F00E9
:100390000C94856F0C94C9790C94F04A0D94E7265F
:1003A0000C94A38E0C94458D0C940A490D949113D2
:1003B0000C945F4A0C94B04A0C946D8D0D940140DE
:1003C0000D94DE380C945AE80C9415910C94EF457A
:1003D0000C9442480C9410720C94CC480C94F27813
:1003E0000C94BF930C94F5930D941A400D94F33F25
:1003F0000C947EEB0C9430C20D940C400D94EB37B2
:100400000D94BC380D94AD130C94D7930D943B40D0
:100410000C942B4C0D94F9330C947A460D94D92BF3
:100420000D94B2260C94AC570C9413E60C9448E847
:100430000C94208E0C94974B0D946A370C941E7B71
:100440000C941EEA0C949C460D946F370C94D7764E
:100450000D944D380D94DF160D9404380D94AC377F
:100460000C94B18D0C941B910C94E68D0D94EB16AD
:100470000C944C480C94524A0C94104B0C94054626
:100480000C941E4C0C94E9930C94167B0C948647A8
:100490000C94854B0D94E3380C94F5770D946C38DF
:1004A0000C94C5930C9448960C94524C0C9467C7CA
:1004B0000C943A4A0C943C4B0C94898D0C9476C75E
:1004C0000C94FA450D9453380D9463330D941640F3
:1004D0000C942C480D9412400D945B420C94084AE5
:1004E0000D94E5370C941D8D0D9485270C940DE625
:1004F0000C94A4490D94BC130C943D8E0D94D338E8
:100500000C941C490C9427A20D94CC370D94BA3846
:100510000C94A8470C94D1930C9408E60D94E8161B
:100520000C94578F0D9424420D94F8370C94424943
:100530000C94604B0C94A9C20D948B370D946437C6
:100540000C94474A0C94424C0C94DE4B0D9495133A
:100550000C94884A0C94F8C10C9466700C94ABE728
:100560000C9412490C94A74A0C946F490C9478C7C8
:100570000D945D170D9414420C94AE480C9475477D
:100580000C94EF930C9447C20C94B9930C942EFDE9
:100590000C949D8D0D946F420D9420400C94038E0D
:1005A0000C94004B0D9414380C94AE570D949D137D
:1005B0000C94598D0C94FE470D946D260C94E749CC
:1005C0000D949B380D947C380D94D2370D94B9134B
:1005D0000C94727D0C94DA760C9447940C94E38D11
:1005E0000C94A6E70D9440080C94BF8D0C94C45A4B
:1005F0000D94A5130D9451420C9497470C947CC70D
:100600000C94D7490D94C2380C94FB930C94714C04
:100610000C947E4A0D94B9110D94A1130C94FF4BC8
:100620000C94B8480C9430490C9409560C943A49EF
:100630000C94EE460D94F73F0C94784B0D94384291
:100640000C94DD930D94EC410C94A8480C949749BC
:100650000C940A4C0C94E0460D944E100D941F150A
:100660000C9456490C941E8F0C94A4FC0C9470743A
:100670000C94A0920D9489130C949CE70D949C37D4
:100680000C94BE460D9442420D94F4160C94C7FC93
:100690000C9425C20C94A14B0C94214B0C94E39325
:1006A0000C9429E80C94728E0C94EA760D9485379C
:1006B0000C94078D0C9442470D94F3370C94EE90F4
:1006C0000C94BD4A0D9469170C94B78E0C94AD46EA
:1006D0000C944EE80C94F44B0D94A7370D948513AD
:1006E0000D9400420C949C8E0C94BE490D942E40A7
:1006F0000C94DF900C94318D0C9416E60C94A85752
:100700000C94236D0D941C420D9490370D94D737A3
:100710000C947A480D9436400C940A7B0D94A138C1
:100720000C946B4B0C94E46C0C9454480C946C4AF1
:100730000D94F1160C94936D0D9428400D94FC16B5
:100740000C948A6D0C94D9E60C9461C20D946542A8
:100750000C9495C50C9464470D9409270D943A3870
:100760000C942E7B0C94CF460D94FF370C94D276CC
:100770000C94548E0C94D74A0C948CC30D948342E1
:100780000C94534B0D94A6380C94B3FC0C94D9459F
:100790000D94FD3F0C94AA8E0D9434380C94FC48B3
:1007A0000D94FF160D945B380D94BA260C94235CBF
:1007B0000D9479420D9408400D94E5160C94CD8D5E
:1007C0000C9421480D94E22B0C948E490C94AA763B
:1007D0000C94E1FC0C94267B0C94C04B0C94CB93B2
:1007E0000C944EC70C94E2480C94624C0C94164C3A
:1007F0000D94F1410D942B270D940A420C9453470C
:100800000C94CE4B0C94B6470D9447270C94AA57E2
:100810000C94526E0C94E4450C942EE80C942C4BE2
:100820000C941A940C9424E80D94B6130D942E4253
:100830000D94ED370C94548F0C94C64B0C946E466B
:100840000C9407480C94A1E70D94EC2B0D94B01375
:100850000D94E2270C947EC70D940A380D94CE387F
:100860000C9417470D9455380C947B8D0C94107B89
:100870000C94E9C90D94E2160D9467380C947AC76C
:100880000D94AF490C94DF470C94B0570D940A17A0
:100890000C94D64B0C944A4C0D947D370D94914991
:1008A0000C944C490D9492170D948D130C94B149EE
:1008B0000D9432400D94EE160D94B4380C9460E80B
:1008C0000C94F7490D9404400D94B3130D94F7164E
:1008D0000C94EF480C94C2480C9426460C94A16DDD
:1008E0000D9477380D94D1260C949B6D0C94CA4AC4
:1008F0000C945A4C0C94E08D0C94AA5D0D947238B3
:100900000C9472C30C94F76E0D94D9380D94C738BB
:100910000C94784C0C94D3450C948F8E0C94164800
:100920000D94A9130D9499130C944B960C94AE5DF1
:100930000D94A2370D94CF2B0D94D42B0D946038C9
:100940000C948B460C94CD760D940F380C94329108
:100950000C94234A0D9497370C941B460C947AFC04
:100960000C944F460C9437480C9410460D948433E5
:100970000C94B0E70C9436470D94F6410D948337F0
:100980000C94367B0C9454E80D9424400C943C6DEC
:100990000D943F380C9465490C94134A0C9403E66B
:1009A0000C9447960C9445544E414E494E49545927
:1009B000494E46CDCCCC3D0AD7233C17B7D138772A
:1009C000CC2B329595E6241FB14F0A000020410040
:1009D00000C84200401C4620BCBE4CCA1B0E5AAE8A
:1009E000C59D7400407A10F35A00A0724E18090099
:1009F00010A5D4E80000E87648170000E40B540284
:100A00000000CA9A3B000000E1F5050000809698BE
:100A100000000040420F000000A08601000000100E
:100A20002700000000E80300000000640000000050
:100A3000000A00000000000100000000002C76D831
:100A400088DC674F0823DFC1DFAE59E1B1B796E517
:100A5000E3E453C63AE651997696E8E6C28426EB7B
:100A6000898C9B62ED407C6FFCEFBC9C9F40F2BA8E
:100A7000A56FA5F490055A2AF75C936B6CF9676D26
:100A8000C11BFCE0E40D47FEF520E6B500D0ED907B
:100A90002E0300943577050080841E080000204E48
:100AA0000A000000C80C333333330F986E128311E1
:100AB00041EF8D2114893BE65516CFFEE6DB18D1B8
:100AC000844B381BF77C1D901DA4BBE4242032848A
:100AD000725E228100C9F124ECA1E53D27434F4D10
:100AE0004D554E49434154494F4E00445259525579
:100AF0004E004552524F525300494E464F00454317
:100B0000484F0047322F4733206261642070617282
:100B1000616D65746572730A00536C6565702E2E85
:100B20002E004D65736820706F696E742063616E6E
:100B30006E6F74206265207265736F6C7665640AEF
:100B400000436C69636B20746F20526573756D652B
:100B50002E2E2E004E6F204D6F76652E00456E6452
:100B60002066696C65206C6973740A004265676968
:100B70006E2066696C65206C6973740A00286E6F5C
:100B80002066696C65290043757272656E74206613
:100B9000696C653A20005344207072696E74696E06
:100BA00067206279746520004E6F74205344207072
:100BB00072696E74696E670A005072696E7420748F
:100BC000696D653A20000A53746174733A2046696E
:100BD0006C616D656E7420757365643A20002C201D
:100BE0004C6F6E67657374206A6F623A2000546FB1
:100BF00074616C2074696D653A20002C204661692F
:100C00006C65643A20002C2046696E6973686564DF
:100C10003A20005072696E74733A20005374617404
:100C2000733A200045202553006F66660044454214
:100C300055473A004D3131322053687574646F77EF
:100C40006E004D31313320530042656420436F6F95
:100C50006C696E672E2E2E004265642048656174B3
:100C6000696E672E2E2E005468696E6B6572205671
:100C7000325F32323039204F46462E004348414DD4
:100C80004245525F54454D504552415455524500DE
:100C90004D4F54494F4E5F4D4F44455300544845C6
:100CA000524D414C5F50524F54454354494F4E00B2
:100CB0004155544F5245504F52545F53445F535423
:100CC000415455530050524F4D50545F535550505E
:100CD0004F525400454D455247454E43595F504190
:100CE0005253455200434153455F4C494748545F76
:100CF0004252494748544E45535300544F47474C7E
:100D0000455F4C494748545300534F46545741524E
:100D1000455F504F574552004255494C445F50453E
:100D20005243454E54004C4556454C494E475F444E
:100D3000415441005A5F50524F4245004155544F73
:100D40004C4556454C005052494E545F4A4F420064
:100D500050524F4752455353004155544F524550FE
:100D60004F52545F54454D5000564F4C554D4554CD
:100D70005249430042494E4152595F46494C455FF2
:100D80005452414E534645520053455249414C5FDF
:100D9000584F4E5F584F4646004649524D574152B4
:100DA000455F4E414D453A4D61726C696E20322E61
:100DB000302E7820284769744875622920534F5592
:100DC0005243455F434F44455F55524C3A687474F3
:100DD00070733A2F2F6769746875622E636F6D2F79
:100DE0004D61726C696E4669726D776172652F4DE7
:100DF00061726C696E2050524F544F434F4C5F5696
:100E0000455253494F4E3A312E30204D41434849C7
:100E10004E455F545950453A5468696E6B6572206F
:100E200056325F323230392045585452554445527B
:100E30005F434F554E543A3120555549443A636506
:100E40006465326132662D343161322D3437343885
:100E50002D396231322D633535633632663336379C
:100E600066660A002F2F20004D31343520533C692F
:100E70006E6465783E206F7574206F662072616EB7
:100E800067652028302D31290A00416363656C6550
:100E9000726174696F6E3A20500020466C6F773A29
:100EA000200050726F7465637465642050696E0A27
:100EB000004D424C2041646A757374205A002069C9
:100EC0003A006469730043290A0061626C6564201A
:100ED000286D696E2074656D702000436F6C64200E
:100EE00065787472756465732061726520004F6661
:100EF0006673657473204170706C69656400457237
:100F0000723A20546F6F206661722100546F6F2017
:100F10006661722066726F6D207265666572656EBD
:100F2000636520706F696E740A00454550524F4DDD
:100F3000204F4B0A002074656D7065726174757284
:100F400065207072657761726E207472696767657B
:100F50007265643A200020686F6D696E6720736562
:100F60006E73697469766974793A2000496E7661A6
:100F70006C69640A0056616C69640A004E6F205007
:100F80004C520A00504C52204578697374730A0021
:100F9000506F7765722D6C6F7373207265636F7617
:100FA0006572792000FE0AF90AF20AEB0ADD0A45A9
:100FB00072726F722077726974696E6720746F2025
:100FC000454550524F4D210A00627573793A2070A1
:100FD000617573656420666F7220696E7075740A3E
:100FE00000627573793A2070617573656420666F6D
:100FF0007220757365720A00627573793A20707297
:101000006F63657373696E670A0053544F505045A0
:10101000442E20005072696E7465722073746F7074
:101020007065642064756520746F206572726F72DC
:10103000732E2046697820746865206572726F721D
:1010400020616E6420757365204D39393920746FC5
:1010500020726573746172742E202854656D7065FA
:101060007261747572652069732072657365742E80
:1010700020536574206974206166746572207265FE
:101080007374617274696E67290A004E6F20436839
:1010900065636B73756D2077697468206C696E6524
:1010A000206E756D6265722C204C617374204C69E2
:1010B0006E653A2000636865636B73756D206D69BA
:1010C000736D617463682C204C617374204C696E7D
:1010D000653A20004C696E65204E756D6265722020
:1010E0006973206E6F74204C617374204C696E6557
:1010F000204E756D6265722B312C204C617374200B
:101100004C696E653A20004D313130004D31313738
:10111000004D333100534420726561642065727262
:101120006F720A00446F6E65207072696E74696E2A
:10113000672066696C650A002063757272656E745B
:101140002064656372656173656420746F20006D4F
:1011500041290A0020647269766572206F76657293
:1011600074656D7065726174757265207761726EF9
:10117000696E67212028004B494C4C2063617573D0
:101180006564206279204B494C4C20627574746F01
:101190006E2F70696E0A004B494C4C206361757369
:1011A000656420627920746F6F206D7563682069B3
:1011B0006E6163746976652074696D65202D2063A6
:1011C000757272656E7420636F6D6D616E643A2026
:1011D00000506C65617365205265736574005052F0
:1011E000494E5445522048414C5445440025533AF9
:1011F000202553004B494C4C45442E200050726929
:101200006E7465722068616C7465642E206B696C05
:101210006C28292063616C6C6564210A0065636831
:101220006F3A004572726F723A0066616C736500C6
:10123000747275650025301D0C282924311C0B455E
:1012400027232F1B0A4443212A193F40222B1A41EE
:101250004203380906360308020600010A4D65619B
:10126000737572656420706F696E74733A0A003525
:101270007835206D6573682E205A206F6666736519
:10128000743A2000486F74656E6420746F6F206339
:101290006F6C640A004D3630303A20546F6F204333
:1012A0006F6C6400507265737320627574746F6E36
:1012B00020746F20726573756D650A0050726573D6
:1012C0007320627574746F6E20746F20686561742A
:1012D000206E6F7A7A6C650A004C6F616400506F03
:1012E0007765722D6C6F73732066696C6520636C13
:1012F0006F7365206661696C65642E0A00506F77B4
:1013000065722D6C6F73732066696C6520777269E6
:101310007465206661696C65642E0A005772697491
:1013200065002D2D2D0A00494E56414C494420445C
:101330004154410A007072696E745F6A6F625F6542
:101340006C61707365643A20007364706F733A2047
:101350000073645F66696C656E616D653A20000AB2
:1013600020666164653A20006C6576656C696E671D
:101370003A200066616E5F73706565643A200074A0
:1013800061726765745F74656D70657261747572A2
:10139000655F6265643A20007461726765745F74AA
:1013A000656D70657261747572653A200066656579
:1013B00064726174653A2000706F736974696F6E4E
:1013C0005F73686966743A2000686F6D655F6F6669
:1013D000667365743A200063757272656E745F702F
:1013E0006F736974696F6E3A20002076616C69646E
:1013F0005F666F6F743A00204A6F62205265636FB8
:101400007665727920496E666F2E2E2E0A76616C93
:1014100069645F686561643A002568753A25303211
:10142000687500256875642025303268753A253066
:1014300032687500447269766572206572726F72E7
:1014400000636F696C2073686F72742063697263E4
:101450007569740A006F76657274656D7065726186
:10146000747572650A00206472697665722065720F
:10147000726F722064657465637465643A203078B5
:10148000006D6178002F33310009204261642072C1
:101490006573706F6E736521004C6F6164206D6DB4
:1014A00000556E6C6F6164206D6D0046696C2E2076
:1014B0004469612E004520696E206D6DC2B3002025
:1014C000082046616374002008204D6178002008E0
:1014D000204D696E004175746F74656D70005654CF
:1014E000726176204D696E00566D696E00566D61B1
:1014F00078204500566D6178205A00566D6178203D
:101500005900566D6178205800416D617820450082
:10151000416D6178205A00416D6178205900416D1C
:101520006178205800412D54726176656C00412D20
:101530005265747261637400416363656C00566543
:101540002D4A65726B00565A2D4A65726B005659CA
:101550002D4A65726B0056582D4A65726B00303DFE
:101560002E33323500313D2E313800473236204897
:10157000656174696E67204E6F7A7A6C65004732D8
:10158000362048656174696E672042656400576162
:101590006974696E6720666F722068656174757022
:1015A0002E0A004669786564204C656E6774682071
:1015B0005072696D6500446F6E65205072696D6987
:1015C0006E67004D616E75616C207072696D696E39
:1015D000672E2E2E004732362043616E63656C65A0
:1015E00064004C656176696E6720473236003F5370
:1015F000706563696669656420582C5920636F6F54
:101600007264696E617465206F7574206F66206204
:101610006F756E64732E0A003F28522965706561EC
:10162000742076616C7565206E6F7420706C6175C6
:101630007369626C653B206D75737420626520610F
:1016400074206C6561737420312E0A003F537065FD
:10165000636966696564206E6F7A7A6C652074656B
:101660006D7065726174757265206E6F7420706C38
:1016700061757369626C652E0A003F53706563691A
:10168000666965642066696C616D656E7420736956
:101690007A65206E6F7420706C61757369626C6519
:1016A0002E0A003F53706563696669656420707235
:1016B000696D65206C656E677468206E6F7420704C
:1016C0006C61757369626C652E0A003F53706563C7
:1016D0006966696564206E6F7A7A6C652073697AD1
:1016E00065206E6F7420706C61757369626C652E15
:1016F0000A003F52657472616374696F6E204D75A4
:101700006C7469706C696572206D757374206265A4
:10171000207370656369666965642E0A003F5370C3
:101720006563696669656420526574726163746992
:101730006F6E204D756C7469706C696572206E6F88
:101740007420706C61757369626C652E0A003F537A
:101750007065636966696564206C6179657220688B
:101760006569676874206E6F7420706C6175736949
:10177000626C652E0A0043292E0A003F5370656390
:101780006966696564206265642074656D70657260
:101790006174757265206E6F7420706C6175736909
:1017A000626C65202834302D004732362073746116
:1017B0007274696E672E2E2E0A004F75746167650C
:1017C000205265636F7665727900436F6E66696754
:1017D00075726174696F6E003F0043616E63656C82
:1017E00000313530004245443A486973656E7320D4
:1017F000333935300052756E6177617920576174E5
:1018000063683A204F4E004D61782054656D70003A
:10181000323735004D696E2054656D700045313AA0
:1018200020486973656E7320333935300050535545
:101830000047656E657269630050726F746F636F05
:101840006C00312E3000426175640032353030302A
:10185000300052616D626F004D657368204C657693
:10186000656C696E670045787472756465727300A3
:101870005468696E6B65722056325F3232303900BF
:10188000323031392D31322D3031005072696E7461
:10189000657220537461747300546865726D697366
:1018A000746F727300426F61726420496E666F00DC
:1018B0005072696E74657220496E666F004D3130EA
:1018C00030300053746F70205072696E740052652E
:1018D00073756D65205072696E740053746F70007B
:1018E0004D3231004368616E6765204D6564696102
:1018F0000041626F7574205072696E746572004E9B
:101900006F204D656469610054756E6500496E66AF
:101910006F2053637265656E00537461727420505A
:1019200072696E740043616E6E6F7420656E7465CB
:1019300072207375626469723A2000022E2E004F85
:101940006666004F6E00544D43204472697665729E
:10195000730046616E205370656564203D004265EA
:1019600064205A004D61696E00537465616C74683F
:1019700043686F7020456E61626C656400537465E6
:101980007070696E67204D6F64650053656E736F8C
:10199000726C65737320486F6D696E67004472697D
:1019A0007665722043757272656E7400436F6E7453
:1019B000726F6C004261627973746570205A0046E0
:1019C0006C6F77002062797465733B2063726320CB
:1019D0000053657474696E67732053746F72656425
:1019E000202800454550524F4D2064617461736951
:1019F0007A65206572726F722E0A002073746F729E
:101A000065642073657474696E677320726574729F
:101A10006965766564202800202863616C63756CB5
:101A20006174656429210A0020213D20004545504C
:101A3000524F4D20435243206D69736D617463684A
:101A4000202D202873746F726564292000496E640C
:101A500065783A2000204D61726C696E3D563734CE
:101A6000290A00454550524F4D2076657273696FC3
:101A70006E206D69736D617463682028454550520E
:101A80004F4D3D000000964300009B430000C843BB
:101A9000656E7175657565696E672022006F6B00F4
:101AA000526573656E643A20002569792025696462
:101AB000202569682025696D2025697300236465E8
:101AC00066696E652044454641554C545F004B6441
:101AD00020004B6920004B70200050494420417584
:101AE000746F74756E652066696E697368656421CC
:101AF0002050757420746865206C617374204B707D
:101B00002C204B6920616E64204B6420636F6E73E0
:101B100074616E74732066726F6D2062656C6F778E
:101B200020696E746F20436F6E66696775726174A9
:101B3000696F6E2E680A00504944204175746F74B5
:101B4000756E65206661696C6564212074696D65D8
:101B50006F75740A000A20436C61737369632050C7
:101B60004944200A00204B643A2000204B693A2067
:101B700000204B703A20000A204E6F206F7665726D
:101B800073686F6F740A002054753A2000204B75FB
:101B90003A2000206D61783A2000206D696E3A206D
:101BA0000020643A200020626961733A20005049A5
:101BB00044204175746F74756E652073746172741E
:101BC0000A00504944204175746F74756E65206633
:101BD00061696C6564212054656D7065726174750E
:101BE000726520746F6F20686967680A0050494405
:101BF000204175746F74756E65206661696C6564EB
:101C00002120426164206578747275646572206E6B
:101C1000756D6265720A004572723A207574663895
:101C200020666F6E74206E6F7420696E69746961CE
:101C30006C697A65642E00000C0D00FE0702260315
:101C4000BC017FFE08FE08FE05080806000040F003
:101C5000C88888987810050808060000C0F88888A9
:101C6000888888F80505050600012030F830200531
:101C700008080600002070F820202020E00509094F
:101C80000600FF2070A8A8B8888870200506060600
:101C90000001E08CEA8C8A0A0509090600FFF8A811
:101CA0008888888888A8F8050A0A0600FE2050500F
:101CB000505088A8A8887003030306000340A04082
:101CC000FFFFFFFFFFFFFFFFFFFFFFFFFFFFFFFF24
:101CD000FFFFFFFFFFFF0000000605FF01070706EB
:101CE000020080808080800080030303060105A03D
:101CF000A0A005060606000050F85050F85005094F
:101D0000090600FF2070A8A07028A870200507070A
:101D1000060000C8C8102040989805070706000074
:101D200040A0A040A89068010303060205808080BF
:101D30000309090601FF20404080808040402003C5
:101D400009090601FF80404020202040408005070F
:101D50000706000020A8702070A8200505050600D1
:101D6000012020F820200203030601FFC040800567
:101D70000101060003F8020202060100C0C00507C7
:101D800007060000081010204040800507070600E5
:101D900000708898A8C8887003070706010040C033
:101DA00040404040E005070706000070880810200A
:101DB00040F8050707060000F8081030088870058D
:101DC000070706000010305090F8101005070706AE
:101DD0000000F880F008088870050707060000304A
:101DE0004080F0888870050707060000F80810108A
:101DF00020202005070706000070888870888870FA
:101E0000050707060000708888780810600205053D
:101E1000060100C0C000C0C00206060601FFC0C027
:101E200000C04080030505060101204080402005D8
:101E30000303060002F800F80305050601018040CF
:101E40002040800507070600007088102020002031
:101E50000507070600007088B8A8B8807005070756
:101E6000060000708888F888888805070706000043
:101E7000F04848704848F005070706000070888061
:101E800080808870050707060000F04848484848E9
:101E9000F0050707060000F88080F08080F805074D
:101EA00007060000F88080F08080800507070600A4
:101EB0000070888080988870050707060000888871
:101EC00088F8888888030707060100E04040404002
:101ED00040E005070706000038101010109060055C
:101EE00007070600008890A0C0A090880507070695
:101EF0000000808080808080F80507070600008849
:101F0000D8A8888888880507070600008888C8A898
:101F10009888880507070600007088888888887078
:101F2000050707060000F08888F080808005070715
:101F300006000070888888A89068050707060000DA
:101F4000F08888F0A0908805070706000070888058
:101F500070088870050707060000F8202020202060
:101F6000200507070600008888888888887005078C
:101F7000070600008888888850502005070706005B
:101F80000088888888A8A850050707060000888868
:101F900050205088880507070600008888502020B8
:101FA0002020050707060000F80810204080F803ED
:101FB00009090601FFE080808080808080E00507BD
:101FC00007060000804040201010080309090601A0
:101FD000FFE020202020202020E00503030600054C
:101FE0002050880501010600FEF8030303060105E1
:101FF00080402005050506000070087888780507F0
:10200000070600008080F0888888F0050505060036
:10201000007080808870050707060000080878882F
:102020008888780505050600007088F0807005072F
:1020300007060000304840E0404040050707060022
:10204000FE70888888780870050707060000808081
:10205000F0888888880307070601004000C04040D8
:1020600040E00409090601FE100030101010109025
:102070006005070706000080808890E090880307CD
:1020800007060100C04040404040E005050506004D
:1020900000D0A8A8A8A8050505060000B0C8888833
:1020A0008805050506000070888888700507070602
:1020B00000FEF0888888F080800507070600FE781B
:1020C000888888780808050505060000B0C8808063
:1020D0008005050506000078807008F005070706F2
:1020E00000002020F82020201805050506000088A3
:1020F00088889868050505060000888888502005AE
:1021000005050600008888A8A850050505060000FA
:1021100088502050880507070600FE8888885020D0
:102120004080050505060000F8102040F803090965
:102130000601FF2040404080404040200109090640
:1021400002FF8080808080808080800309090601F2
:10215000FF804040402040404080050303060002CD
:1021600048A890FF24F4D43050C38E20C2A2401758
:10217000828B7011127A910D816CD90AA861E108E5
:10218000C7586607615143061E4B5D05C145A7044C
:102190001A411104093D9803713931034036DB02BD
:1021A00065339102D4305402802E1D02632CEE015F
:1021B000752AC501B028A001102781018F2564016F
:1021C0002B244B01E0223401AC211F018D200D0195
:1021D000801FFC00841EED00971DDF00B81CD2009C
:1021E000E61BC600201BBC00641AB200B219A8008E
:1021F0000A19A0006A189900D117910040178B00A6
:10220000B516840031167E00B31579003A157300B7
:10221000C7146F0058146A00EE1366008813630039
:1022200025135E00C7125B006C1257001512540094
:10223000C111510070114F0021114B00D6104900FF
:102240008D1047004610440002104200C00F4000AD
:10225000800F3E00420F3C00060F3B00CB0E3800C3
:10226000930E37005C0E3500270E3400F30D32005C
:10227000C10D3100900D3000600D2E00320D2D008B
:10228000050D2C00D90C2B00AE0C2900850C290063
:102290005C0C2700350C27000E0C2600E80B2400F0
:1022A000C40B2400A00B23007D0B23005A0B21003C
:1022B000390B2100180B2000F80A1F00D90A1E0054
:1022C000BB0A1E009D0A1D00800A1D00630A1C0037
:1022D000470A1B002C0A1B00110A1A00F7091A00F2
:1022E000DD091900C4091900AB091900920917008A
:1022F0007B091800630917004C09160036091600FF
:10230000200916000A091500F5081500E008140058
:10231000CC081400B8081400A40814009008130096
:102320007D0812006B0813005808120046081200BE
:1023300034081100230811001208110001081100CF
:10234000F0071000E0071000D0071000C0071000D1
:10235000B0070F00A107100091070E0083070F00C0
:1023600074070F0065070E0057070E0049070E009F
:102370003B070D002E070E0020070D0013070D0070
:1023800006070D00F9060C00ED060D00E0060C0036
:10239000D4060C00C8060C00BC060C00B0060C00ED
:1023A000A4060B0099060C008D060B0082060B009C
:1023B00077060B006C060B0061060A0057060B003F
:1023C0004C060A0042060A0038060A002E060A00D9
:1023D00024060A001A060A001006090007060A0069
:1023E000FD050900F4050900EB050900E2050900F7
:1023F000D9050900D0050900C7050900BE05090077
:10240000B5050800AD050800A50509009C050800F4
:10241000940508008C050800840508007C05080068
:10242000740508006C050700650508005D050700D8
:10243000560508004E05070047050700400508003F
:1024400038050700310507002A05070023050700A6
:102450001C050600160507000F0507000805060005
:1024600002050700FB040600F5040700EE04060061
:10247000E8040600E2040700DB040600D5040600B9
:10248000CF040600C9040600C3040600BD0406000C
:10249000B7040600B1040500AC040600A60406005B
:1024A000A00405009B0406009504050090040600A6
:1024B0008A04050085040500800406007A040500EE
:1024C00075040500700405006B0405006604050032
:1024D000610405005C040500570405005204050072
:1024E0004D04050048040500430405003E040400B3
:1024F0003A04050035040500300404002C040500EE
:1025000027040400230405001E0404001A04040028
:1025100016040500110404000D040400090405005C
:102520000404040000040400FC030400F803040095
:10253000F4030400F0030400EC030400E8030400C7
:10254000E4030400E0030400DC030400D8030400F7
:10255000D4030400D0030400CC030400C803030028
:10256000C503030024F404D9201BC40C5C0E98049A
:10257000C4095F0265077101F405F900FB04B300AB
:1025800048048700C1036900580355000303450050
:10259000BE023A008402310053022A0029022500BB
:1025A00004022000E4011C00C8011900AF0117005B
:1025B00098011400840113007101100061011000E2
:1025C00051010E0043010D0036010B002B010B00E1
:1025D00020010B00150109000C010900030108008E
:1025E000FB000800F3000800EB000700E400060011
:1025F000DE000600D8000600D2000600CC00050070
:10260000C7000500C2000500BD000400B9000400B9
:10261000B5000400B1000400AD000400A9000400EE
:10262000A5000300A20003009F0004009B0003001C
:10263000980003009500020093000300900003003F
:102640008D0002008B00030088000200860002005B
:1026500084000300810002007F0002007D00020070
:102660007B00020079000200770001007600020082
:102670007400020072000100710002006F0002008D
:102680006D0001006C0002006A0001006900020098
:10269000670001006600010065000100640002009F
:1026A0006200010061000100600001005F000200A3
:1026B0005D0001005C0001005B0001005A000100A8
:1026C00059000100580001005700010056000100A8
:1026D00055000100540001005300000053000100A8
:1026E0005200010051000100500001004F000100A4
:1026F0004E0000004E0001004D0001004C000100A2
:102700004B0000004B0001004A000100490001009D
:10271000480000004800010047000100460000009A
:102720004600010045000000450001004400010092
:10273000430000004300010042000000420001008D
:102740004100000041000100400001003F00000086
:102750003F0001003E0000003E0001003D0000007F
:102760003D0001003C0000003C0000003C00010076
:102770003B0000003B0001003A0000003A0001006D
:102780003900000039000100380000003800000066
:10279000380001003700000037000100360000005B
:1027A0003600000036000100350000003500000052
:1027B0003500010034000000340000003400010046
:1027C000330000003300000033000100320000003D
:1027D0003200000032000100310000003100000032
:1027E0003100010030000000300000003000010026
:1027F0002F0000002F0000002F0000002F0001001C
:102800002E0000002E0000002E0001002D00000010
:102810002D0000002D0000002D0001002C00000004
:102820002C0000002C0000002C0001002B000000F8
:102830002B0000002B0000002B0001002A000000EC
:102840002A0000002A0000002A00010029000000E0
:1028500029000000290000002900000029000100D3
:1028600028000000280000002800000028000000C8
:1028700028000100270000002700000027000000BA
:1028800027000000270001002600000026000000AD
:1028900026000000260000002600010025000000A0
:1028A0002500000025000000250000002500000094
:1028B0002500010024000000240000002400000086
:1028C0002400000024000100230000002300000079
:1028D000230000002300000023000000230000006C
:1028E000230001002200000022000000220000005E
:1028F0002200000022000000220001002100000050
:102900002100000021000000210000002100000043
:102910002100000021000100200000002000000034
:102920002000000020000000200000002000000027
:1029300020000000200001001F0000001F00000018
:102940001F0000001F0000001F0000001F0000000B
:102950001F0001001E0000001E0000001E000000FD
:102960001E000000043700001E290000511B00005B
:102970005810000010090000CC040000780200008C
:1029800041010000496E76616C696420657874725B
:10299000756465720A007C3C3E5E2B3D3F2F5B5D9B
:1029A0003B2C2A225C00737465616C746843686F09
:1029B00070004D32342053256C642054256C640023
:1029C0004739322E3920452573004731204625648A
:1029D000004739322E39205A2573004731205A30AA
:1029E0002046323030004731205825732059257356
:1029F000204633303030004D3432302053256920AA
:102A00005A2573004D3130362050256920532569F1
:102A1000004D31303920532569004D313930205374
:102A20002569004D32303020442573004739322E5D
:102A3000392045305A300A47315A320A4732385223
:102A4000305859004D343230205330205A30002055
:102A5000506F7765722D4C6F7373205265636F767C
:102A600065727920446174610A00496E76616C690F
:102A700064004E6F00617869733A70776D5F7363BD
:102A8000616C652F637572725F7363616C652F6D26
:102A90006563685F6C6F61647C666C6167737C778B
:102AA00061726E636F756E740A004452565F5354C0
:102AB00041545553090050574D5F5343414C45090C
:102AC0000050574D434F4E460900434F4F4C434F24
:102AD0004E46090043484F50434F4E460900544864
:102AE00049474809090054434F4F4C544852530931
:102AF000005450574D5448525309005453544550B4
:102B000009090054504F574552444F574E09004948
:102B10004F494E0909004753544154090900494897
:102B20004F4C445F4952554E090047434F4E4609AA
:102B300009007370726561644379636C6500206499
:102B40007269766572206D6F64653A09002064725F
:102B5000697665722063757272656E743A20002022
:102B60007072657761726E20666C616720636C6558
:102B7000617265640A0020496E76616C6964206543
:102B80007874727564657220004573746570732F74
:102B90006D6D005A73746570732F6D6D0059737489
:102BA0006570732F6D6D005873746570732F6D6D44
:102BB00000496E6974004D34323800496E69746999
:102BC000616C697A6520454550524F4D00537465DC
:102BD00070732F6D6D00416363656C65726174691C
:102BE0006F6E0056656C6F6369747900536574206D
:102BF000486F6D65204F666673657473004C65762B
:102C0000656C696E6720446F6E6521004E6578744F
:102C100020506F696E74002569202F2025750047AC
:102C2000323920533100436C69636B20746F20424A
:102C30006567696E00486F6D696E672058595A0064
:102C40004661646520486569676874004C6576650F
:102C50006C204265640046616E20537065656400B7
:102C6000453100626564002C2073797374656D20B2
:102C700073746F7070656421204865617465725F5C
:102C800049443A200048656174696E67204661696D
:102C90006C65640048656174696E67206661696C83
:102CA000656400202D20496E76616C69642065782A
:102CB000747275646572206E756D62657220210A8A
:102CC00000544845524D414C2052554E41574159B0
:102CD00000546865726D616C2052756E6177617920
:102CE000004572723A204D415854454D50004D41B7
:102CF0005854454D50207472696767657265640069
:102D00004572723A204D494E54454D50004D494E42
:102D100054454D5020747269676765726564004D53
:102D2000383420582059205A204500202F002042B6
:102D3000403A0020403A0020573A000040012C0160
:102D400073012201AB011801F3010E0148020401D5
:102D5000AC02FA002A03F000C303E6008004DC00A2
:102D60006D05D2006C06C800C707BE007009B4002C
:102D70006D0BAA00CB0DA000CF138C00F21B7800C6
:102D8000E9246400142E50009C353C00B83A280019
:102D9000A03D14000B3F00006F70656E20666169F6
:102DA0006C65642C2046696C653A20004D6F766531
:102DB000205A005072696E742066726F6D204D65E6
:102DC000646961004D6F76652025736D6D004D6FF0
:102DD000766520302E316D6D004D6F766520316D3A
:102DE0006D004D6F76652031306D6D004D6F7665ED
:102DF000204178697300486F74656E6420746F6F4A
:102E000020636F6C64004578747275646572004D60
:102E10006F76652059004D6F7665205800436861D4
:102E20006E67652046696C616D656E7400556E6CE9
:102E30006F61642046696C616D656E74004C6F61F2
:102E4000642046696C616D656E74005072656865DA
:102E5000617420414253005072656865617420506E
:102E60004C41005072656865617420437573746FDE
:102E70006D004261636B00486F6D6520257325739B
:102E8000257320466972737400496E7365727420ED
:102E900066696C616D656E7420616E642070726528
:102EA000737320627574746F6E0A004D6F74696F6E
:102EB0006E00426564204C6576656C696E670054EF
:102EC000656D7065726174757265004D38340044CB
:102ED000697361626C65205374657070657273000C
:102EE000473238205A00486F6D65205A0047323803
:102EF000205900486F6D652059004732382058002E
:102F0000486F6D65205800473238004175746F2056
:102F1000486F6D65005072656865617420504C4162
:102F200020456E64005072656865617420504C41A4
:102F300020426564005072656865617420414253A7
:102F400020456E640050726568656174204142538B
:102F50002042656400436F6F6C646F776E0020746D
:102F60006F6F206C6F6E6720657874727573696F10
:102F70006E2070726576656E7465640A0020636FFA
:102F80006C6420657874727573696F6E20707265F9
:102F900076656E7465640A00220A00556E6B6E6F6A
:102FA000776E20636F6D6D616E643A2022004C4F26
:102FB000570048494748004F4B004572726F723ABC
:102FC00020416C6C200020636F6E6E656374696FC6
:102FD0006E2E2E2E200054657374696E6720006873
:102FE0007474703A2F2F6D61726C696E66772E6FF4
:102FF000726700322E302E78004D31303030205341
:1030000000205049445F64543A0020643A0020692B
:10301000693A0020703A002020506C616E6E657233
:1030200042756666657242797465733A200020467F
:10303000726565204D656D6F72793A2000436F6D42
:1030400070696C65643A204A756C203331203230E7
:1030500032300A00204C61737420557064617465CD
:10306000643A20323031392D31322D3031207C20FC
:10307000417574686F723A20286E6F6E652C2064FB
:10308000656661756C7420636F6E666967290A00F6
:10309000322E302E780A004D61726C696E0020531A
:1030A0006F6674776172652052657365740A0020DB
:1030B0005761746368646F672052657365740A00B2
:1030C0002042726F776E206F75742052657365743D
:1030D0000A002045787465726E616C2052657365D4
:1030E000740A00506F77657255700A006175746FCD
:1030F00025632E67004732385859006572726F7227
:103100002077726974696E6720746F2066696C65D8
:103110000A00446F6E6520736176696E6720666988
:103120006C652E0A004D323900456E6473746F7001
:103130007300255320256320256320256320256304
:1031400000205A3A0020593A00656E6473746F701B
:1031500073206869743A200001FFFFFFFFFFFFFF43
:10316000FFFFFFFFFFFF0FFFFFFFFFFFFFFFFFFF5F
:10317000FFFFFFFF1E00000000000000000000072E
:10318000FFFF380000000000000000000003FFFF08
:10319000700000000000000000000001FFFF600060
:1031A00000000000000000000000FFFF60000000C1
:1031B00000000000000000007FFFC00000000000D1
:1031C0000000007800003FFFC00FC0FC00000000BE
:1031D000007818001FFFC03FE1FF000000000078EA
:1031E0003C000FFFC07FF3FF8000000000783C0030
:1031F00007FFC0FFFFFFC000000000783C0003FF96
:10320000C1F87F87E00000000078000001FFC1F0F6
:103210003F03E00000000078000000FFC1E01E0155
:10322000E01F0003E0783C03F07FC1E01E01E07F77
:10323000C00FF8783C07FC3FC1E01E01E1FFE01F32
:10324000FC783C0FFE1FC1E01E01E3FFF03FFE785B
:103250003C1FFE0FC1E01E01E3F3F83F3E783C3F08
:103260003F07C1E01E01E7E0FC7C1F783C3E1F07E2
:10327000C1E01E01E7C07C7C0F783C3C0F03C1E03D
:103280001E01E7807C780F783C3C0F03C1E01E01F3
:10329000E7803C7800783C3C0F03C1E01E01E780EA
:1032A0003C7800783C3C0F03C1E01E01E7803C788D
:1032B00000783C3C0F03C1E01E01E7C03C78007879
:1032C0003C3C0F03C1E01E01E3E03C78007C3C3C49
:1032D0000F03C1E01E01E3FF3FF8007FBC3C0F037A
:1032E000C1E01E01E1FF3FF8003FBFFC0F03C1E05A
:1032F0001E01E0FF3FF8001FBFFC0F03C1E01E01ED
:10330000E07F3FF8000FBFFC0F03600000000000EB
:103310000000000000000007600000000000000046
:103320000000000000067000000000000000000027
:103330000000000E38000000000000000000000047
:10334000001C1E00000000000000000000000078CB
:103350000FFFFFFFFFFFFFFFFFFFFFFFFFF001FF7A
:10336000FFFFFFFFFFFFFFFFFFFFFF806F70656E36
:1033700000545249474745524544007A5F6D696E93
:1033800000795F6D696E00785F6D696E00526570DF
:103390006F7274696E6720656E6473746F702073EA
:1033A00074617475730A0020436F756E7420583A07
:1033B0000020453A00486F6D696E67204661696C70
:1033C0006564005761726E696E673A20486F6D6977
:1033D0006E672042756D702044697669736F722044
:1033E0003C20310A000000000000002041000000E5
:1033F00000000048420000484200008040020204F1
:1034000000000000000000000000004000009643A3
:10341000000096430000C843FFFFFF20202020202B
:10342000202000256C6425636D001FE02010201013
:103430002010102010202010201030300840048070
:1034400003001FE03FF03FF03FF01FE01FE03FF0C0
:103450003FF03FF00FC0078003003FFFF0380070DF
:1034600030FC3020FC102078102030102C00D02EA2
:1034700031D02F7BD02F7BD02E31D02C00D02030DC
:103480001020781020FC1030FC303800703FFFF026
:103490003FFFF03800703186302387102787902F48
:1034A00087D02F03D02030102078102078102030C3
:1034B000102F03D02F87D027879023871031863095
:1034C0003800703FFFF01FFFF81FFFF804104002A4
:1034D00008200208200410400820801041001041FC
:1034E000000820800410400000001FFFF81FFFF8B4
:1034F0004C6F61642053657474696E677300537414
:103500006F72652053657474696E677300416476E9
:10351000616E6365642053657474696E67730055EA
:103520004E4C4F41442046494C414D454E54004677
:10353000494C414D454E54204348414E4745005269
:103540006573746F7265206661696C73616665008E
:10355000507265686561742041425320436F6E6606
:10356000005072656865617420504C4120436F6E55
:1035700066004D37303220542564004D36303020FF
:10358000423020542564004D373032203B25640002
:103590004D37303120542564004D373032004D37DF
:1035A0003031004D36303020423000436F6E746948
:1035B0006E7565005075726765206D6F726500529B
:1035C0004553554D45204F5054494F4E533A0050A6
:1035D00052494E54205041555345440020204E6FCF
:1035E0007A7A6C653A2000256C642E25696D004559
:1035F0007874727564656420546F74616C004C6FEC
:103600006E67657374204A6F622054696D65003E71
:103610002000546F74616C205072696E742074695C
:103620006D6500436F6D706C657465640050726900
:103630006E7420436F756E74005061726B696E67B3
:103640002E2E2E0000005761697420666F7200668E
:10365000696C616D656E74206368616E6765007486
:103660006F207374617274005761697420666F72A1
:103670000066696C616D656E7420756E6C6F616457
:1036800000004E6F7A7A6C652068656174696E67B8
:1036900000506C6561736520776169742E2E2E0071
:1036A00000507265737320627574746F6E00746F6E
:1036B0002068656174206E6F7A7A6C650000496ECF
:1036C000736572742066696C616D656E7400616EFD
:1036D0006420707265737320627574746F6E007409
:1036E0006F20636F6E74696E756500576169742031
:1036F000666F720066696C616D656E74206C6F61D7
:10370000640000507265737320427574746F6E00AC
:10371000746F20726573756D65207072696E7400C8
:10372000005761697420666F72207072696E740050
:10373000746F20726573756D652E2E2E00005761B3
:10374000697420666F720066696C616D656E7420C5
:10375000707572676500002053697A653A200043EE
:10376000616E6E6F74206F70656E20737562646930
:1037700072200053442063617264206F6B0A006FF3
:1037800070656E526F6F74206661696C65640A00C3
:10379000766F6C756D652E696E6974206661696CF3
:1037A00065640A00534420696E6974206661696C1F
:1037B0000A004D32332025730057726974696E67B1
:1037C00020746F2066696C653A200046696C65203C
:1037D00073656C65637465640A0046696C65206F87
:1037E00070656E65643A2000667265736800646F88
:1037F000696E67004E6F772000454E442053554256
:10380000524F5554494E450A002220706F730022D2
:1038100020706172656E743A2200535542524F55C2
:1038200054494E452043414C4C2074617267657485
:103830003A2200747279696E6720746F2063616C3C
:103840006C207375622D67636F64652066696C65B3
:1038500073207769746820746F6F206D616E7920B2
:103860006C6576656C732E204D4158206C657665CD
:103870006C2069733A310A0044656C6574696F6E37
:10388000206661696C65642C2046696C653A20008D
:1038900046696C652064656C657465643A00506FB8
:1038A0007765722D6C6F73732066696C6520646533
:1038B0006C657465004F46460A00466164652048A1
:1038C000656967687420004661696C656420746F7F
:1038D00020656E61626C6520426564204C6576658A
:1038E0006C696E670A004D65736820426564204C00
:1038F0006576656C20646174613A0A00496E766190
:103900006C6964206D6573682E0A00206E6F7420E8
:10391000656E74657265642E0A00206F6620004D26
:10392000424C2047323920706F696E7420004A2063
:103930006F7574206F662072616E67652028302D68
:103940000049206F7574206F662072616E67652074
:1039500028302D004D6573682070726F62696E6744
:1039600020646F6E652E0A005374617274206D6559
:1039700073682070726F62696E672077697468205F
:1039800022473239205331222066697273742E0A1D
:10399000004732380A4732392053320068617320B9
:1039A0006E6F20646174612E0A004D657368204259
:1039B0006564204C6576656C696E67200053206FE6
:1039C0007574206F662072616E67652028302D3512
:1039D000292E0A004D34323120696E636F72726590
:1039E000637420706172616D6574657220757361B6
:1039F00067650A005741524E494E4721204C6F7768
:103A0000205A204A65726B206D6179206C65616473
:103A100020746F20756E77616E74656420706175B7
:103A20007365732E0A00204D393220580020204D36
:103A300061783A200020204D696E3A2000536F666D
:103A40007420656E6473746F70733A20004D6963FF
:103A5000726F737465707320756E617661696C61E5
:103A6000626C650A0045313A200045303A20005A20
:103A70003A2000593A20004D53312C4D53322C4DF1
:103A800053332050696E730A583A20005072696EA1
:103A900074205061757365640050617573652050C2
:103AA00072696E74004D656469612052656D6F7650
:103AB0006564004D6564696120496E736572746563
:103AC00064005468696E6B65722056325F32323022
:103AD000392052656164792E005072696E74696E86
:103AE000672E2E2E005072696E742041626F7274C0
:103AF0006564004D323520500A4D323400447269FD
:103B0000766572207265676973746572733A0A002C
:103B10007332767362090073327673610900313251
:103B20003043090031343343090031353043090053
:103B30003135374309006F7409006F7470770900DD
:103B40007332676109007332676209006F6C610943
:103B5000006F6C6209007374737409004452565309
:103B60005441545553005374616C6C6775617264B1
:103B70002074687273002D7374617274090068791F
:103B800073746572657369730A2D656E64090062EA
:103B90006C616E6B2074696D65006F666620746978
:103BA0006D65004F54207072657761726E20686198
:103BB000730A6265656E2074726967676572656411
:103BC000004F54207072657761726E005B6D6D2FCF
:103BD000735D090070776D0A7468726573686F6C45
:103BE0006400747374657009006D73746570730993
:103BF000007673656E7365090050574D20736361DD
:103C00006C650043532061637475616C00486F6C90
:103C1000642063757272656E740052756E206375F0
:103C20007272656E74004D41582063757272656ED4
:103C30007400524D532063757272656E7400536543
:103C4000742063757272656E7400456E61626C6596
:103C50006409004164647265737309002054002094
:103C6000520048617264636F6465642044656661F4
:103C7000756C742053657474696E6773204C6F6142
:103C80006465640A0020204D3930360020204D390B
:103C900031340020204D3536392053310020204D5D
:103CA000363033200020550046696C616D656E74B6
:103CB000206C6F61642F756E6C6F6164206C656E33
:103CC000677468733A0A0044726976657220737487
:103CD000657070696E67206D6F64653A0A00537491
:103CE000616C6C4775617264207468726573686F8B
:103CF0006C643A0A0020543020450053746570709B
:103D00006572206472697665722063757272656E81
:103D1000743A0A0020204D343133205300506F771D
:103D200065722D4C6F7373205265636F766572797F
:103D30003A0A0020204D3330342050002049002022
:103D4000204D333031205000504944207365747445
:103D5000696E67733A0A0020460020480020204D13
:103D60003134352053004D6174657269616C20688F
:103D7000656174757020706172616D6574657273D0
:103D80003A0A00202047323920533320580020209F
:103D90004D3432302053004D6573682042656420F5
:103DA0004C6576656C696E673A0A0020204D3230AA
:103DB00036205800486F6D65206F66667365743AEB
:103DC0000A0020204D32303520420020453C6D61F4
:103DD000785F655F6A65726B3E0020583C6D617864
:103DE0005F785F6A65726B3E20593C6D61785F79E0
:103DF0005F6A65726B3E205A3C6D61785F7A5F6ADC
:103E000065726B3E00416476616E6365643A204280
:103E10003C6D696E5F7365676D656E745F74696D27
:103E2000655F75733E20533C6D696E5F66656564C2
:103E3000726174653E20543C6D696E5F7472617688
:103E4000656C5F66656564726174653E0020204D37
:103E5000323034205000416363656C65726174696F
:103E60006F6E2028756E6974732F7332293A205053
:103E70003C7072696E745F616363656C3E20523C96
:103E8000726574726163745F616363656C3E205434
:103E90003C74726176656C5F616363656C3E0A00B9
:103EA00020204D3230312058004D6178696D756D9C
:103EB00020416363656C65726174696F6E2028755B
:103EC0006E6974732F7332293A0A0020204D323004
:103ED000332058004D6178696D756D2066656564A5
:103EE00072617465732028756E6974732F73293A33
:103EF0000A0053746570732070657220756E697462
:103F00003A0A0020204D3230302044300A00202070
:103F10004D3230302044002044697361626C656426
:103F20000A0046696C616D656E742073657474690E
:103F30006E67733A0020204D3134392043203B20F6
:103F4000556E69747320696E2043656C736975736F
:103F50000A0020286D6D29002020473231202020C2
:103F6000203B20556E69747320696E206D6D0000D2
:103F70000096430000964300000C420000C8410038
:103F800000A0420000A0420000C8430000BA42DC8A
:103F9000050000DC05000096000000DC05000000C4
:103FA000002100240027002A002D003000330001EA
:103FB000010000040107010A010000220025002879
:103FC000002B002E00310034000201000005010822
:103FD000010B01000020002300260029002C002FE7
:103FE000003200000100000301060109010505057A
:103FF00005070508080808020202020A0A08080460
:10400000040404010101010101010103030303038D
:10401000030303040707070C0C0C0C0C0C0C0C021C
:1040200002020206060606060606060B0B0B0B0B23
:104030000B0B0B07070A0A0A0A0A0A0505050404FE
:104040000408080102102020080810204010204019
:10405000800201020108040201010204081020404C
:10406000808040201008040201800402018040206A
:104070001008040201080402010102040810204093
:1040800080010204081020408010080408801020DD
:1040900040044080102040048000000A0B02090CFC
:1040A0000D0E0807030401000000000000000000DE
:1040B0000000000000000000000000000000000000
:1040C00000000000001211100000000000000000BD
:1040D00000000000000000000000000000000000E0
:1040E000000000000000000000000000000000438D
:1040F00061703A0040044E0411241FBECFEFD1E29C
:10410000DEBFCDBF00E00CBF13E0A0E0B2E0E2EE06
:10411000FCEC02E00BBF02C007900D92AE39B10774
:10412000D9F728E1AEE9B3E001C01D92A136B2078C
:10413000E1F710E2CBE7D0E200E006C021970109E9
:10414000802FFE010F948262CA37D10780E00807F2
:10415000A9F70F94234E0D945F660C9400002F92E4
:104160003F924F925F926F927F928F929F92AF9207
:10417000BF92CF92DF92EF92FF920F931F93CF9354
:10418000DF93CDB7DEB7E1970FB6F894DEBF0FBE71
:10419000CDBF89AB2091280E28AB81E08093280EFB
:1041A00080915A188D3409F48CC2843511F40C9422
:1041B000AD32873411F00C94B4328091581890913C
:1041C00059188A31910509F415C194F48430910588
:1041D00034F482309105D4F597FF2CC06EC2843040
:1041E000910509F4C8C0459711F40C94B63265C224
:1041F0008A32910509F4E2C16CF48C31910509F41D
:1042000017C10CF4FBC04D9709F057C20F94B022B0
:104210000C94B6328B35910509F41AC18C35910591
:1042200009F41BC18A35910509F047C21092A70312
:104230000C94B63280911B02882311F40C94B63290
:104240000E94A8B80F9459020C94B63220911B0218
:10425000222311F40C94B63211E0029709F010E019
:104260000E94A8B819821A821B821C821D821E829B
:104270001F82188682E50E943861882309F44BC0AA
:104280000E94B8606B017C0120E030E0A9010F942E
:10429000875B882309F455C080912F0290913002EA
:1042A000A0913102B09132028CA39DA3AEA3BFA313
:1042B0008091330290913402A0913502B091360280
:1042C00088A799A7AAA7BBA78090150E9090160E55
:1042D000A090170EB090180E4090190E50901A0E24
:1042E00060901B0E70901C0EA50194016CA17DA125
:1042F0008EA19FA10F94875B81110C94BF32A30103
:10430000920168A579A58AA59BA50F94875B882350
:10431000C1F00C94BF3289E40E943861882331F0E7
:104320000E94B86069837A838B839C838AE40E94AD
:104330003861882331F00E94B8606D837E838F835B
:10434000988720E030E0A90169817A818B819C8186
:104350000F94875B81110C94733320E030E0A90146
:104360006D817E818F8198850F94875B81110C947C
:1043700073330C94863380E50E943861882329F0DA
:104380000F942C216B017C0103C0C12CD12C760130
:1043900083E50E943861882361F00E94B86020E0C4
:1043A00030E04AE754E40F94ED5B0F9435646B0101
:1043B0007C010E9401AC8091B917811105C060E0B9
:1043C00089E19BE00F942A330F94C642C60ED71E94
:1043D000E81EF91E0F94C642DC01CB018C199D0921
:1043E000AE09BF09B7FD02C00C94B63280E00E944E
:1043F000E239F0CF0E9469610C94B6320E943FDF2F
:1044000081110C94B6328CE0E5E8F2E0DE01119601
:1044100001900D928A95E1F760E070E080E50E94DE
:10442000E5C1BE016F5F7F4F0F94DB310C94B63254
:104430008091250E8770873011F00C948D3360E0E9
:104440008FE40E94546181110C94B6320C948D3328
:104450008FE08093A7030C94B6328091571888237D
:1044600049F1893009F0A6C041E9A42E42E0B42EFA
:104470005FE2E52E52E0F52ED12C00E010E0D501F0
:104480008D915D010E943861882369F00E94B860B7
:10449000F7016083718382839383133011F401E009
:1044A00002C0DD24D3941F5FF4E0EF0EF11C143042
:1044B00031F775C091E9292E92E0392E21EAE22EDA
:1044C00025E1F22E2FE232E03DA32CA335E9C32EE5
:1044D00035E1D32E00E010E0D1018D911D010E9445
:1044E0003861882309F44BC00E94B8602B013C015D
:1044F000133049F0F60120813181428153810F94BC
:10450000C1622B013C01ACA1BDA12D913D914D910A
:104510005C91C301B2010F94C1624B015C012DEBB0
:1045200037E346E855EB0F94226587FD0AC02DEB73
:1045300037E346E855E3C501B4010F94875B1816CD
:10454000F4F4133051F440923B0250923C026092DA
:104550003D0270923E0201E012C0A5019401F701F4
:1045600060817181828193810F94C262D7016D93C2
:104570007D938D939C931397812F0F949C011F5FC4
:10458000B4E0EB0EF11CECA1FDA13496FDA3ECA36D
:10459000F4E0CF0ED11C143009F09ECF05C0DD2011
:1045A00019F00F94B50606C0002321F08BE392E0CA
:1045B0000E9412AC0F94B7060C94B63280911B0285
:1045C000882311F40C94B63289E40E943861F82EE5
:1045D000882321F00E94B460182F01C010E08AE403
:1045E0000E943861082F882319F00E94B46001C02E
:1045F00080E0FF2011F0153020F4002341F08530D9
:1046000030F082E29BE00E9465370C94B63290E174
:10461000EFE2F2E0A5E1BEE001900D929A95E1F79C
:10462000FF2091F024E01202F0011124E852F54F2E
:1046300040815181628173814093150E5093160E13
:104640006093170E7093180E002391F034E08302EC
:10465000F0011124EC53F54F80819181A281B38147
:104660008093190E90931A0EA0931B0EB0931C0EFC
:1046700040E050E0BA0186E40E946A9A6B017C0136
:1046800020E030E0A9010F94226518164CF420E0D8
:1046900030E040E752E4C701B6010F94BC6303C0A9
:1046A00060E070E0CB0169837A838B839C83CE01C9
:1046B00001960F9434050C94B6320E94DEFB0C94E4
:1046C000B63280915818909159188C38910509F498
:1046D00080C60CF030C18235910509F4CDC60CF0CE
:1046E000ABC08B31910509F49BC30CF053C08531ED
:1046F000910509F402C39CF58131910509F4E9C2E1
:104700002CF4029708F469C20C94AA328231910504
:1047100009F4C2C6449711F00C94AA328CE69BE0CF
:104720000E94653784E19BE00E9443B08BE1E4E1A5
:10473000FBE0DE01119601900D928A95E1F760E0B1
:1047400070E0CE0101960F94981ECE0101960E9452
:10475000C94E8DE59BE00E9465370C94B6328831D6
:10476000910509F4E8C26CF48631910509F4C9C2D7
:10477000479711F00C94AA32E0915518F091561811
:10478000CDC28931910509F432C34A9709F43AC37D
:104790000C94AA328A32910509F409C4ECF48E31E2
:1047A000910509F49AC37CF48C31910509F48BC30B
:1047B0004D9711F00C94AA328091F70A8E7F809366
:1047C000F70A0C94B6328F31910509F4D0C3809763
:1047D00009F493C30C94AA328D34910509F40EC4E4
:1047E0006CF48B34910509F405C48C34910511F0F7
:1047F0000C94AA320E94078A0C94B6328E3491052A
:1048000009F400C48135910511F00C94AA320E947C
:1048100035CE0E94C9AA0E947DAD0E94EA3668EE9C
:1048200073E080E090E00E94F23560E087E69CE073
:104830000F942A330C94B6328F36910509F450C583
:10484000BCF58936910509F4F1C4CCF485359105A0
:1048500009F44FC654F48335910509F415C684351F
:10486000910509F419C60C94AA328C35910509F406
:104870005BC68836910509F457C40C94AA328C366D
:10488000910509F472C554F48A36910509F4E2C41D
:104890008B36910509F402C50C94AA328D36910528
:1048A00009F466C48E36910509F407C50C94AA3242
:1048B0008637910509F457C7CCF48237910509F47E
:1048C000D4C654F48037910509F455C58137910554
:1048D00009F45AC50C94AA328337910509F4CAC663
:1048E0008537910509F42FC70C94AA3289379105B1
:1048F00009F476C794F48737910509F46EC78837B1
:10490000910511F00C94AA3281E08093FD138093FD
:10491000FC130F94E7070C94B6328A37910511F413
:104920000C9495318D37910511F00C94AA320E94A8
:1049300018C10C94B6328D39A1E09A0711F40C9489
:104940005C320CF090C08D3D910511F40C944B2D10
:104950000CF03FC08B3C910511F40C94C52CCCF4A9
:104960008E3B910509F44BC554F48139910509F446
:104970003EC78B39910509F457C50C94AA32883C7F
:10498000910509F48FC7893C910509F4D8C70C94A7
:10499000AA328E3C910511F40C94182D74F48C3CC1
:1049A000910511F40C94E42C8D3C910511F00C94BC
:1049B000AA320F943C210C94B632833D910511F438
:1049C0000C943B2D8C3D910511F40C943E2D0C94D0
:1049D000AA328F32E1E09E0711F40C949B2F04F56C
:1049E0008C3221E0920711F40C944F2E64F4823E35
:1049F000910511F40C94A12D8232914011F40C9484
:104A0000ED2D0C94AA328D32B1E09B0711F40C9479
:104A1000642E8E32914011F40C94572F0C94AA32CC
:104A20008F35F1E09F0711F40C944B326CF4803316
:104A300031E0930711F40C94E42E8E35914011F47B
:104A40000C9416320C94AA328039B1E09B0711F411
:104A50000C949E2F8A39914011F00C94AA320E9436
:104A60003F360C94B6328B35F2E09F0711F40C946C
:104A700029300CF04FC0863F31E0930711F40C94BD
:104A800004302CF58C3AB1E09B0711F40C94A42F60
:104A90007CF4843AF1E09F0711F40C94A12F853A3D
:104AA000914011F00C94AA320F94C0210C94B632AC
:104AB000843F31E0930711F40C940130853F91401D
:104AC00011F00C94AA320F94F83B0C94B6328C304F
:104AD000B2E09B0711F40C9421306CF4873FF1E0B5
:104AE0009F0711F40C940730883F914011F40C9407
:104AF00010300C94AA32893332E0930711F40C94ED
:104B00009B318835924011F00C94AA320E9420C04B
:104B10000C94B6328F38B3E09B0711F40C949E319D
:104B20007CF58A38F3E09F0711F40C9498316CF40B
:104B30008D3B32E0930711F40C94A2308E3B9240EF
:104B400011F40C94A5300C94AA328B38B3E09B0777
:104B500011F40C9464318C38934011F00C94AA3207
:104B600060E070E083E50E9445618C0160E070E0E8
:104B700080E50E944561B8010F94DD2E0C94B63299
:104B8000803AF3E09F0709F4E2C1C4F4803933E0CE
:104B9000930711F40C94D3318239934011F00C94A3
:104BA000AA3260E089E40F94A422D82E91E9E92E7C
:104BB00092E0F92E11E000E00C94E031873EB3E082
:104BC0009B0711F40C944E32883E934011F00C94E4
:104BD000AA320E94EEBC0C94B632A0905518B09048
:104BE000561880E50E943861882359F00F942C21D3
:104BF0006B017C0111E0672B682B692B31F410E00D
:104C000004C010E0C12CD12C760183E50E943861EC
:104C1000882311F40C945A340E94B86020E030E0EC
:104C20004AE754E40F94ED5B0F9435646B017C010B
:104C300011110BC0672B682B692B39F4A114B10437
:104C400021F0D5018C91811102C010E001C011E06A
:104C50000E9401AC112329F061E0C5010F94B1332A
:104C600005C060E081E49BE00F942A331091280E88
:104C700083E08093280E81E08093270EC114D10435
:104C8000E104F104B1F00F94C642C60ED71EE81E2F
:104C9000F91E0F94C642DC01CB018C199D09AE09A7
:104CA000BF09B7FF0EC08091270E81110C945F34AD
:104CB00008C08091270E882321F080E00E94E2390D
:104CC000F8CF0F94D6331092270E1093280E0C9421
:104CD000B6328091511884FF02C00C9464348091E4
:104CE000531887FF02C00C94643480915418837069
:104CF00011F00C9464340C947D340F94401A0C948D
:104D0000B6320F94CF198091F70A877F8093F70A04
:104D10000C94B632803209F4108231968081811170
:104D2000F9CF40E061E080915518909156180F94AA
:104D3000771D0C94B63283E50E943861882321F0F8
:104D40000E9480600E940EA184E50E943861882341
:104D5000A9F00E9480606B017C010E94EC89C092E6
:104D60007F05D0928005E0928105F0928205CD28E2
:104D7000CE28CF2819F081E08093870580916E16A8
:104D80008823E9F080E090E0A8ECB2E488A399A33E
:104D9000AAA3BBA31C8E1D8E1E8E1F8E19821A8283
:104DA0001B821C8220E0AE01405E5F4FBE01645E4C
:104DB0007F4FCE0101960E941D4F0C94B6320E9487
:104DC000EF36882381F00F94E0190E94133788E1B1
:104DD00097E10F9485191092E4041092E504109263
:104DE000E6041092E7040F94D6330C94B632809107
:104DF000F70A82FF03C08B7F8093F70A0E9418C1D5
:104E00000C94B6328091F70A83FD02C00C94B6323E
:104E100083E50E94386181110C9488340C94B63279
:104E200083E40E94EF60882319F187E89BE00E94E9
:104E3000653780915B0C882391F0BE016F5F7F4FD7
:104E400088E59CE00E94BAB38E010F5F1F4FF80106
:104E500081918F01882339F00E945E37F8CF8DE76A
:104E60009BE00E9465378AE00E945E370C94B63260
:104E70008091F70A82FF21C086E99BE00E94653796
:104E80006091F30A7091F40A8091F50A9091F60A04
:104E90004AE00E948E388FE20E945E376091EF0AEE
:104EA0007091F00A8091F10A9091F20A4AE00E9412
:104EB0008E380E94BB390C94B63288EA9BE00E947F
:104EC00065370C94B63240E060E0809155189091BF
:104ED00056180F94771D0C94B6328091F70A83FD13
:104EE00002C00C94B6320E94C7FB80915518909175
:104EF00056180F94A91C0C94B6328091F70A82FDC3
:104F00000E9401AC8091F70A83FD02C00C94B63276
:104F100060E080E50E945461182F482F61E0809185
:104F20005518909156180F94771D83E50E943861AB
:104F3000882321F00E9480600E940EA10F94E01946
:104F400011110C94B6320E9413370C94B632209192
:104F50005518309156189091F70A92609093F70A7D
:104F600040E060E0C9010F94771D0C94B6320E94B6
:104F7000B8896C8F7D8F8E8F9F8FBE016F5F7F4F43
:104F8000CE014C960E942FA060E0CE0101960F94B6
:104F9000B1330E94AA37BE016F5F7F4F89EB9BE060
:104FA0000E9493378AE00E945E370C94B63283E504
:104FB0000E943861882311F40C94B6320E949060EC
:104FC000F82E6DE070E080E50E9445618C0197FF4E
:104FD00002C00C94B632E82E60E089E40E9454616D
:104FE00081110C948D34802F0F943C498111C6C5DA
:104FF0000C948D340E9413370C94B6320E94C9AAC7
:105000000C94B63260E070E083E50E9445618E3416
:10501000910531F40E943AAB0F94D6330C94B6321A
:105020008CE19CE00E9465376091EC137091ED1368
:1050300083E19CE00E9489376091EE137091EF1339
:1050400086E09CE00E9489376091EC137091ED132B
:105050008091EE139091EF13681B790B8091870577
:10506000815021E030E0823010F020E030E0621B1F
:10507000730B8BEF9BE00E9489378AE00E945E37BA
:105080008CE19CE00E9465378091F0139091F113C0
:10509000A091F213B091F3138C8F9D8FAE8FBF8FC1
:1050A000BE016F5F7F4FCE014C960E942FA0BE01C4
:1050B0006F5F7F4F8EEE9BE00E9493378091F413D9
:1050C0009091F513A091F613B091F7138C8F9D8FEB
:1050D000AE8FBF8FBE016F5F7F4FCE014C960E9497
:1050E0002FA0BE016F5F7F4F8EED9BE00E94933734
:1050F00020E030E04AE754E46091F8137091F9132E
:105100008091FA139091FB130F94BC63AB01BC0127
:1051100086EC9BE00E94AA398DE60E945E378AE009
:105120000E945E370C94B63280919A1383FF02C0BE
:105130000C94B6320E94C2B987FF02C00C94B632FA
:1051400083E50E943861882379F00E94B8600F944B
:105150002E648B01CB010E948DB70635110524F416
:105160000E94C9AA0F94D6330F9461490C94B632A9
:1051700080919A1383FF02C00C94B6320E94C2B988
:10518000F82E87FF02C00C94B63283E50E94386186
:10519000082F811106C082E50E943861182F8823EC
:1051A000C1F10E94B8600F942E64CB010E948DB7AC
:1051B0000E94B86020E030E04AEA52E40F94875B36
:1051C000181614F40C94A6340E94C9AA0F94D6336E
:1051D0006091890E70918A0E072E000C880B990B36
:1051E0000F948E5B4B015C014090850E5090860EB3
:1051F0006090870E7090880EA30192010F94226533
:10520000181614F40C94C434002311F40C94AA342A
:1052100011E00F946149112311F40C94B63240E06F
:10522000602F8F2D0E946DCC0C94B6320E94C2B9B3
:10523000182F87FD0AC08DE99AE10E946537812FFA
:105240000E9469CA8AE00E945E37F8A9F093280E8E
:105250000C94D93560E080E50F94A422182F823099
:1052600010F00C94B63281E40E94EF60882321F0A4
:1052700060916A0E70E002C06FEF70E083E50E94FB
:10528000E5C1E12FF0E0E659F14F8F3F910519F0AC
:1052900010F08FEF90E080830C94B63260E080E5F0
:1052A0000F94A422823010F00C94B632E82FF0E074
:1052B000E659F14F10820C94B6328EE40E943861A8
:1052C000882311F40C94B6320E94806060936C05C0
:1052D00070936D0580936E0590936F050C94B632B4
:1052E00083E50E94EF60882331F060E083E50F944E
:1052F000A42280939A130E94AA378DE29CE00E9418
:10530000653780919A13882369F185EAE82E8FE04A
:10531000F82E00E010E020E080919A1390E0A0E0E9
:10532000B0E0002E04C0B695A795979587950A948E
:10533000D2F780FF0EC0DD24D394D20E222319F0C1
:105340008CE20E945E37F701859194910E94653747
:105350002D2D0F5F1F4F32E0E30EF11C05301105BC
:10536000D9F681CD89E29CE07CCD1092270E109277
:105370004F020C94B63241E060E070E084E39CE0C0
:105380000E94AE370C94B63283E50E9438618823C0
:1053900081F00E949060282F30E02D33310524F4F5
:1053A000809300020C94B6328CE3809300020C943C
:1053B000B6320E94AA374091000250E060E070E0EF
:1053C00082E49CE00E94FB388AE00E945E370C94E5
:1053D000B63280919A1383FF02C00C94B63283E5F3
:1053E0000E943861882311F40C94B6320E94B86090
:1053F0000F942E64CB010E9472600C94B63280919F
:105400009A1383FF02C00C94B63283E50E94386180
:10541000182F81110C94C73482E50E9438618111E4
:105420000C94C7340C94B63283E50E94386188230B
:1054300011F40C94B6320E949060182F90E0CD9732
:105440000CF01CE31093A2030F94C6426B017C0185
:10545000212F30E0A8EEB3E00F943162C60ED71EC4
:10546000E81EF91EC0929E03D0929F03E092A00313
:10547000F092A1030C94B6328091A7038F7D8061D6
:105480008093A7030C94B6328091A7038F7E80622D
:105490008093A7030C94B63283E50E943861882379
:1054A000A1F00E94B86020E030E04AE754E40F9495
:1054B000ED5B0F9435646093010270930202809358
:1054C0000302909304020C94B6328091511884FF29
:1054D00002C00C94FD348091531887FF02C00C94D5
:1054E000FD3480915418837011F00C94FD340C94A9
:1054F0002A3583E50E94EF60882311F40C94B632BC
:105500000E94B86020E030E04AE754E40F94ED5B7D
:105510000F9435646093A3037093A4038093A50351
:105520009093A6030C94B6320E94C2B987FF02C0C2
:105530000C94B6329091511894FD04C09091531878
:1055400097FF0AC011E9C12E12E0D12E0BE9E02E1F
:1055500003E1F02E10E00AC090915418937091F777
:10556000682F81E00F94F1200C94B632D6018D9112
:105570006D010E943861882309F46DC0133009F071
:1055800063C00E94B8604B015C0120E030E040EA5B
:1055900051E40F94875B87FF4EC0A5019401609191
:1055A000BB137091BC138091BD139091BE130F94E7
:1055B000BC632B013C019B01AC0160914E0E7091CC
:1055C0004F0E8091500E9091510E0F94ED5B6093B1
:1055D0004E0E70934F0E8093500E9093510EA30178
:1055E00092016091CB137091CC138091CD13909167
:1055F000CE130F94ED5B6093CB137093CC13809319
:10560000CD139093CE1360915E0E70915F0E8091DA
:10561000600E9091610E0F948C5BA30192010F9428
:10562000ED5B0F94356460935E0E70935F0E809314
:10563000600E9093610E8092BB139092BC13A09267
:10564000BD13B092BE1307C00E94B860F701648B0F
:10565000758B868B978B1F5FF4E0EF0EF11C143077
:1056600009F084CF0E94DDAB81C70E9401AC0F948A
:10567000B7067CC789E99DE00E94653760E089E84C
:105680009DE00F94694860E084E79DE00F946948CD
:1056900061E086EC9BE20F94694861E089E69DE059
:1056A0000F94694861E089E59DE00F94694860E0E6
:1056B00080E59DE00F94694861E086E49DE00F94E9
:1056C000694860E08CE39DE00F94694860E084E302
:1056D0009DE00F94694861E086E29DE00F9469487F
:1056E00060E088E19DE00F94694860E089E09DE01A
:1056F0000F94694860E08BEF9CE00F94694860E08C
:1057000085EE9CE00F94694860E084ED9CE00F9486
:10571000694860E085EC9CE00F94694860E080EBAC
:105720009CE00F94694861E08DE99CE00F94694822
:1057300060E080E99CE00F94694860E08CE79CE0C1
:105740000F94694813C78091551890915618009787
:1057500009F449CBDC012C91222309F444CB60E00D
:105760000F94B13303C7009155181091561894E067
:10577000F12C40E0915021F1F8018081282F2B7FFE
:10578000213421F421812133D9F407C08035C1F4BB
:10579000818180538A3048F013C0813421F08534F0
:1057A00021F441E002C0FF24F39498012E5F3F4FA3
:1057B00089012F5F3F4FF80180818032C9F3DACF32
:1057C00041110E94AA37FF2021F084E69EE00E944A
:1057D0006537C8010E94C139C9C60F94CA07C6C639
:1057E0001092FD131092FC130F94E707BFC660E000
:1057F00070E083E50E9445618C011127023011059C
:105800003CF00E94A63788E69EE00E946537AEC64F
:1058100088E40E9438618823A9F00E94B4608A3A23
:1058200091053CF08530F1E09F072CF084E091E099
:1058300002C08AEA90E0F801EE0FFF1FEB53F24F2F
:105840009183808386E40E943861882381F00E94DE
:10585000B46097FD07C08F3F910529F024F08FEFCA
:1058600090E001C080E0F801E354F24F808382E4CD
:105870000E943861882309F479C60E94B46085309B
:10588000910534F08D3891052CF08CE890E002C041
:1058900085E090E0F801EE0FFF1FE754F24F91838F
:1058A000808364C60E94C2B9182F87FD5FC684E456
:1058B0000E94EF60882309F43FC00E94B8606B012A
:1058C0007C0101E020E030E0A9010F94875B8111A9
:1058D00001C000E00093710520E030E0A901C7019C
:1058E000B6010F94875B882339F10E94B86024E0E9
:1058F0001202F0011124EA58FA4F60837183828307
:10590000938320E030E0A9016091760570917705DE
:1059100080917805909179050F94875B81110CC077
:1059200080E090E0A0EEBFE380937605909377054A
:10593000A0937805B09379050E9427A217C60E940C
:10594000C2B987FD13C661E9E62E62E0F62E0BE9C7
:1059500013E17BEAC72E73E1D72ED7018D917D012C
:105960000E94EF60882359F00E94B8600F9435645C
:10597000F80160837183828393830E9496AB0C5FEE
:105980001F4FC016D10649F7F1C50E94C2B987FD65
:10599000EDC551E9E52E52E0F52E0BE913E1D701F3
:1059A0008D917D010E94EF60882339F00E94B860DC
:1059B000F80164A375A386A397A30C5F1F4FF3E1BF
:1059C0000B3A1F0761F7D2C58091521887FF02C0BA
:1059D0000C942D35809153188E7011F00C942D3548
:1059E0004091CF135091D0136091D1137091D21385
:1059F0008AE89EE00E94AA394091D3135091D413B3
:105A00006091D5137091D6138FE59CE30E94AA395B
:105A10004091D7135091D8136091D9137091DA1334
:105A20008CE59CE30E94AA398AE00E945E379EC5FD
:105A300031E9C32E32E0D32E41E0E42E44E1F42ECE
:105A400010E0D6018D916D010E94EF60882351F026
:105A50000E94B860F7016083718382839383812FF2
:105A60000F949C011F5FF4E0EF0EF11C133049F717
:105A70000F94B7067BC50F94022078C583E50E947A
:105A80003861882309F472C50E94B46090936A0259
:105A9000809369026BC50E94C2B9F82E87FD66C566
:105AA00083E50E9438610F2D0F2C000C110B882309
:105AB00069F10E94B460F801EE0FFF1FE75FFD4F30
:105AC00091838083000F111F000F111F9801215C2B
:105AD0003D4F7901BC01990F880B990B0F948E5B98
