:100000000C94AE180C94DF180C94DF180C94DF18C5
:100010000C94DF180C94DF180C94DF180C94DF1884
:100020000C94DF180C94DF180C94DF180C94DF1874
:100030000C94DF180C94DF180C94DF180C94DF1864
:100040000C94DF180C9482560C94DF180C94DF1873
:100050000C94DF180C94DF180C9491A80C94F9DB25
:100060000C94DF180C944C380C94DF180C94DF18A7
:100070000C94DF180C94DF180C94DF180C94DF1824
:100080000C94DF180C94DF180C94DF180C94DF1814
:100090000C94DF180C94DF180C94DF180C94DF1804
:1000A0000C94DF180C94DF180C94DF180C94DF18F4
:1000B0000C94DF180C94DF180C94DF180C94DF18E4
:1000C0000C94DF180C94DF180C94DF180C94DF18D4
:1000D0000C94DF180C94DF180C94DF180C94DF18C4
:1000E0000C94DF18F5B9F8B9E7B9EBB9F1B92FBA43
:1000F000FCB900BA06BA0ABA0EBA14BA18BA1CBACF
:100100002FBA22BA26BA2ABAB2BDB7BDBCBDC6BD87
:10011000D0BD49BEDABDE2BDEABDF4BDFEBD08BE3C
:1001200017BE21BE49BE2BBE35BE3FBEABC7F4C510
:100130002CC6E7C72CC62CC62CC62CC62CC62CC673
:100140002CC62CC62CC62CC62CC62CC62CC62CC61F
:100150002CC62CC62CC62CC62CC62CC62CC62CC60F
:100160002CC62CC62CC62CC6E1C72CC62CC62CC649
:100170002CC62CC62CC62CC62CC6BAC72CC62CC660
:100180002CC62CC62CC62CC62CC62CC62CC62CC6DF
:10019000FEC729C6084AD73B3BCE016E84BCBFFDD3
:1001A000C12F3D6C74319ABD56833DDA3D00C77F47
:1001B00011BED9E4BB4C3E916BAAAABE00000080E0
:1001C0003F05A84CCDB2D44EB93836A9020C50B96F
:1001D000918688083CA6AAAA2ABE000000803F009B
:1001E0004E414E494E495459494E46CDCCCC3D0A1C
:1001F000D7233C17B7D13877CC2B329595E6241FFF
:10020000B14F0A000020410000C84200401C4620B7
:10021000BCBE4CCA1B0E5AAEC59D74434F4D4D55C6
:100220004E49434154494F4E0044525952554E0095
:100230004552524F525300494E464F004543484F96
:100240000047322F47332062616420706172616D14
:1002500065746572730A00536C6565702E2E2E00EE
:10026000436C69636B20746F20726573756D652EC6
:100270002E2E004E6F206D6F76652E00456E642029
:1002800066696C65206C6973740A00426567696E03
:100290002066696C65206C6973740A00286E6F2093
:1002A00066696C65290043757272656E74206669B3
:1002B0006C653A200046696C652064656C65746500
:1002C000643A0044656C6574696F6E206661696CA0
:1002D00065642C2046696C653A2000256973002509
:1002E000696D20256973002569682025696D2025C1
:1002F000697300256964202569682025696D2025BA
:10030000697300256979202569642025696820259D
:10031000696D20256973005072696E742074696D6F
:10032000653A20003C023702300229021B026F6648
:10033000660044454255473A004B494C4C45442ED3
:1003400020004D3131332053006F6B003344205077
:1003500072696E746572204F66662E00544845526D
:100360004D414C5F50524F54454354494F4E00410C
:1003700055544F5245504F52545F53445F5354416C
:1003800054555300454D455247454E43595F5041E2
:100390005253455200434153455F4C494748545FCF
:1003A0004252494748544E45535300544F47474CD7
:1003B000455F4C494748545300534F4654574152A8
:1003C000455F504F574552004255494C445F504598
:1003D0005243454E54004C4556454C494E475F44A8
:1003E000415441005A5F50524F4245004155544FCD
:1003F0004C4556454C005052494E545F4A4F4200BE
:1004000050524F4752455353004155544F52455057
:100410004F52545F54454D5000564F4C554D455426
:1004200052494300454550524F4D005345524941B2
:100430004C5F584F4E5F584F4646004649524D5705
:100440004152455F4E414D453A4D61726C696E2097
:10045000312E312E3920284769746875622920535E
:100460004F555243455F434F44455F55524C3A68A0
:10047000747470733A2F2F6769746875622E636F96
:100480006D2F4D61726C696E4669726D7761726530
:100490002F4D61726C696E2050524F544F434F4C38
:1004A0005F56455253494F4E3A312E30204D41430D
:1004B00048494E455F545950453A3344205072697B
:1004C0006E7465722045585452554445525F434FEF
:1004D000554E543A3120555549443A636564653266
:1004E0006132662D343161322D343734382D396222
:1004F00031322D6335356336326633363766660AF8
:10050000002F2F20004D31343520533C696E646537
:10051000783E206F7574206F662072616E6765206B
:1005200028302D31290A00205400205200416363F5
:10053000656C65726174696F6E3A20500020466C7C
:100540006F773A2000000125301D0CFF2829FF2479
:10055000311C0BFF4527FF232F1B0AFF4443FFFFDE
:10056000FF0403080602FF222B1A4142FF03380949
:10057000FF3620643A0020693A0020703A00496E44
:1005800076616C69642065787472756465720A00BE
:1005900043290A0061626C656420286D696E2074CD
:1005A000656D702000436F6C6420657874727564AB
:1005B000657320617265200020643A0020693A006A
:1005C00020703A004E6F2063617365206C69676824
:1005D000740A00454550524F4D204F4B0A0041636D
:1005E000746976652045787472756465723A200086
:1005F000496E76616C6964206578747275646572A1
:100600000A00656E7175657565696E672022004B1D
:10061000494C4C45442E200053544F505045442ED5
:1006200020005072696E7465722073746F7070650B
:10063000642064756520746F206572726F72732E0A
:100640002046697820746865206572726F72206137
:100650006E6420757365204D39393920746F2072AE
:100660006573746172742E202854656D70657261B3
:10067000747572652069732072657365742E2053DA
:100680006574206974206166746572207265737484
:10069000617274696E67290A004E6F204368656352
:1006A0006B73756D2077697468206C696E65206E58
:1006B000756D6265722C204C617374204C696E6597
:1006C0003A20004E6F20436865636B73756D207729
:1006D000697468206C696E65206E756D6265722C38
:1006E000204C617374204C696E653A200063686524
:1006F000636B73756D206D69736D617463682C2015
:100700004C617374204C696E653A20004C696E65CB
:10071000204E756D626572206973206E6F74204C77
:10072000617374204C696E65204E756D6265722B25
:10073000312C204C617374204C696E653A20004D59
:10074000313130004D3331004732382058004D32BE
:10075000310053442072656164206572726F720AC1
:1007600000446F6E65207072696E74696E672066F2
:10077000696C650A0020496E76616C696420657851
:1007800074727564657220000000000000000000B3
:100790000000000000009643000096430000C8439C
:1007A000486F6D696E67206661696C6564005072A0
:1007B0006F7465637465642050696E0A0020573A4F
:1007C000004520436F6F6C696E672E2E2E0045200A
:1007D00048656174696E672E2E2E000000000000CF
:1007E00000000000000000000000000000E0000029
:1007F00000000000000000000000000003F0000006
:1008000000000000000000000000000007FC0000E5
:1008100000000000000000000000000007FF0000D2
:10082000000000000000000000000000C3FFC00046
:10083000000000000000000000000001E1FFE000F7
:10084000000000000000000000000003F07FF8003E
:10085000000000000000000000000007F81FFE007C
:1008600000000000000000000000000FF807FF007B
:1008700000000000000000000000001FF003FE0068
:1008800000000000000000000000003FE000FC004D
:1008900000000000000000000000007FC0003800E1
:1008A00000000000000000000000007F80001080B9
:1008B00000000000000000000000007F0000038036
:1008C00000000000000000000000007E0020078300
:1008D000FF87FF100081C0600C7FF87C00700F87DD
:1008E000FFCFFF980187F0700CFFFC7C01FE0F80AA
:1008F000000C019C038E38780C00007C07FC0F80F4
:10090000000C018E071C1C7C0C00007C01F00F8089
:10091000000C01870E180C6E0C00007C00E00F83A9
:10092000FF8FFF83FC3006660C7FF87C00000F878A
:10093000FFCFFF01F83006600CFFFC7C00800F80C9
:10094000000C030060300660CC00007C01F00F80DA
:10095000000C018060180C60EC00007C03FC0F8030
:10096000000C0180601C1C607C00007C0FF80F8074
:10097000000C0180600E38603C00007C03E00F83B7
:10098000FF8C01806007F0601C7FF87E01C00F873C
:10099000FFCC01806001C0600CFFFC7F00001F8065
:1009A00000000000000000000000007FC0003F8049
:1009B00000000000000000000000007FF000FF8049
:1009C00000000000000000000000003FFC01FF806C
:1009D00000000000000000000000000FFF07FF0003
:1009E000000000000000000000000003FF9FFC006A
:1009F000000000000000000000000000FF9FF80061
:100A00000000000000000000000000003F9FE00028
:100A10000000000000000000000000001F9F800098
:100A2000000000000000000000000000079F000020
:100A3000000000000000000000000000019C000019
:100A400000000000000000000000000000000000A6
:100A50000000000000000000000000000000000096
:100A6000000000000000000000000025732C005A68
:100A700025752C45256C752C50256C752C542575C9
:100A80002C4225752C002020506C616E6E657242E0
:100A9000756666657242797465733A200020467205
:100AA0006565204D656D6F72793A2000436F6D70FA
:100AB000696C65643A204D617920203520323031EF
:100AC000390A00207C20417574686F723A202865CD
:100AD00072796F6E652C207468696E6B6572323541
:100AE000363020636F6E666967290A00323031380C
:100AF0002D30382D303100204C61737420557064D6
:100B0000617465643A2000312E312E390A004D613E
:100B1000726C696E0020536F667477617265205243
:100B2000657365740A00205761746368646F672099
:100B300052657365740A002042726F776E206F757C
:100B4000742052657365740A002045787465726E6E
:100B5000616C2052657365740A00506F7765725539
:100B6000700A0073746172740A006175746F25698C
:100B70002E67006572726F722077726974696E6792
:100B800020746F2066696C650A00456E6473746F2B
:100B900070732025632025632025632025630020B2
:100BA0005A3A0020593A0020583A00656E6473742E
:100BB0006F7073206869743A20004D3130362053CD
:100BC0003230300047323820590047323820580040
:100BD0004D31303920543020532575004D31393096
:100BE0002053257500446F6E6520736176696E67CA
:100BF0002066696C652E0A004D32390045787472A2
:100C000075646572004D6F7665205A004D6F76658C
:100C10002059004D6F7665205800507265706172E2
:100C20006500496E697469616C697A652045455053
:100C3000524F4D00436F6E74726F6C005265737447
:100C40006F7265206661696C73616665004C6F61E7
:100C5000642073657474696E677300496E697469A2
:100C6000616C697A6520454550524F4D0053746F51
:100C700072652073657474696E67730046696C6190
:100C80006D656E74004D6F74696F6E0054656D70A4
:100C900065726174757265004D61696E00507265B0
:100CA000686561742041425320636F6E6600507224
:100CB000656865617420504C4120636F6E6600501A
:100CC00049442D44005049442D44005049442D4985
:100CD000005049442D49005049442D50005049448A
:100CE0002D500020082046616374002008204661D2
:100CF0006374002008204D6178002008204D617841
:100D0000002008204D6178002008204D696E0020E9
:100D100008204D696E002008204D696E004F666600
:100D2000004F6E20004175746F74656D70004661F0
:100D30006E20737065656420330046616E207370A9
:100D400065656420330046616E20737065656420BC
:100D5000330046616E207370656564203200466121
:100D60006E20737065656420320046616E2073707A
:100D700065656420320046616E207370656564208D
:100D8000310046616E2073706565642031004661F4
:100D90006E207370656564203100426564004265B1
:100DA0006400426564004E6F7A7A6C65004E6F7A1B
:100DB0007A6C65004E6F7A7A6C6500436F6E747260
:100DC0006F6C0053746F72652073657474696E671D
:100DD00073004265640042656400426564004E6FC2
:100DE0007A7A6C65004E6F7A7A6C65004E6F7A7A0B
:100DF0006C650046616E2073706565640046616EC7
:100E00002073706565640046616E2073706565646B
:100E10000054656D706572617475726500556E6B16
:100E20006E6F776E20636F6D6D616E643A20220085
:100E30005344207072696E74696E672062797465BC
:100E400020004E6F74205344207072696E74696E76
:100E5000670A0020746F6F206C6F6E67206578746E
:100E6000727573696F6E2070726576656E746564F5
:100E70000A0020636F6C6420657874727573696F03
:100E80006E2070726576656E7465640A00577269CB
:100E900074696E6720746F2066696C653A20006F14
:100EA00070656E206661696C65642C2046696C65AE
:100EB0003A20006F70656E206661696C65642C2055
:100EC00046696C653A200046696C652073656C65FF
:100ED000637465640A002053697A653A20004669A4
:100EE0006C65206F70656E65643A20002066696CE1
:100EF000653A2000646F696E67006672657368000A
:100F00004E6F772000454E4420535542524F555462
:100F1000494E450A002220706F73002220706172D2
:100F2000656E743A2200535542524F5554494E450E
:100F30002043414C4C207461726765743A22004B27
:100F4000494C4C45442E2000747279696E672074B8
:100F50006F2063616C6C207375622D67636F6465CD
:100F60002066696C6573207769746820746F6F20E0
:100F70006D616E79206C6576656C732E204D4158DD
:100F8000206C6576656C2069733A004572726F72E9
:100F90003A006F70656E206661696C65642C20464E
:100FA000696C653A200043616E6E6F74206F7065E6
:100FB0006E2073756264697220006563686F3A0021
:100FC00024F4D43050C38E20C2A24017828B7011FB
:100FD000127A910D816CD90AA861E108C758660799
:100FE000615143061E4B5D05C145A7041A4111041A
:100FF000093D9803713931034036DB0265339102B4
:10100000D4305402802E1D02632CEE01752AC501D6
:10101000B028A001102781018F2564012B244B01EA
:10102000E0223401AC211F018D200D01801FFC0046
:10103000841EED00971DDF00B81CD200E61BC60021
:10104000201BBC00641AB200B219A8000A19A00043
:101050006A189900D117910040178B00B5168400CB
:1010600031167E00B31579003A157300C7146F006E
:1010700058146A00EE1366008813630025135E009F
:10108000C7125B006C12570015125400C1115100B9
:1010900070114F0021114B00D61049008D104700F0
:1010A0004610440002104200C00F4000800F3E0076
:1010B000420F3C00060F3B00CB0E3800930E37006A
:1010C0005C0E3500270E3400F30D3200C10D3100E7
:1010D000900D3000600D2E00320D2D00050D2C00FE
:1010E000D90C2B00AE0C2900850C29005C0C2700C4
:1010F000350C27000E0C2600E80B2400C40B24003E
:10110000A00B23007D0B23005A0B2100390B21007B
:10111000180B2000F80A1F00D90A1E00BB0A1E0087
:101120009D0A1D00800A1D00630A1C00470A1B005F
:101130002C0A1B00110A1A00F7091A00DD09190010
:10114000C4091900AB091900920917007B0918009E
:10115000630917004C09160036091600200916000D
:101160000A091500F5081500E0081400CC08140061
:10117000B8081400A4081400900813007D08120099
:101180006B081300580812004608120034081100BA
:10119000230811001208110001081100F0071000C7
:1011A000E0071000D0071000C0071000B0070F00C4
:1011B000A107100091070E0083070F0074070F00AE
:1011C00065070E0057070E0049070E003B070D008C
:1011D0002E070E0020070D0013070D0006070D0057
:1011E000F9060C00ED060D00E0060C00D4060C001C
:1011F000C8060C00BC060C00B0060C00A4060B00D0
:1012000099060C008D060B0082060B0077060B007A
:101210006C060B0061060A0057060B004C060A001C
:1012200042060A0038060A002E060A0024060A00B2
:101230001A060A001006090007060A00FD05090043
:10124000F4050900EB050900E2050900D9050900CC
:10125000D0050900C7050900BE050900B50508004D
:10126000AD050800A50509009C05080094050800C7
:101270008C050800840508007C050800740508003A
:101280006C050700650508005D05070056050800A8
:101290004E05070047050700400508003805070010
:1012A000310507002A050700230507001C05060075
:1012B000160507000F0507000805060002050700D0
:1012C000FB040600F5040700EE040600E80406002F
:1012D000E2040700DB040600D5040600CF04060084
:1012E000C9040600C3040600BD040600B7040600D6
:1012F000B1040500AC040600A6040600A004050025
:101300009B04060095040500900406008A0405006D
:1013100085040500800406007A04050075040500B4
:10132000700405006B0405006604050061040500F7
:101330005C04050057040500520405004D04050037
:1013400048040500430405003E0404003A04050077
:1013500035040500300404002C04050027040400B3
:10136000230405001E0404001A04040016040500EA
:10137000110404000D040400090405000404040021
:1013800000040400FC030400F8030400F403040058
:10139000F0030400EC030400E8030400E403040089
:1013A000E0030400DC030400D8030400D4030400B9
:1013B000D0030400CC030400C8030300C5030300EA
:1013C00024F404D9201BC40C5C0E9804C4095F02E9
:1013D00065077101F405F900FB04B30048048700B8
:1013E000C10369005803550003034500BE023A00DB
:1013F0008402310053022A00290225000402200041
:10140000E4011C00C8011900AF0117009801140085
:1014100084011300710110006101100051010E00E0
:1014200043010D0036010B002B010B0020010B00C6
:10143000150109000C01090003010800FB00080068
:10144000F3000800EB000700E4000600DE000600E1
:10145000D8000600D2000600CC000500C700050039
:10146000C2000500BD000400B9000400B50004007E
:10147000B1000400AD000400A9000400A5000300B1
:10148000A20003009F0004009B00030098000300DB
:101490009500020093000300900003008D000200FD
:1014A0008B00030088000200860002008400030015
:1014B000810002007F0002007D0002007B0002002C
:1014C000790002007700010076000200740002003B
:1014D00072000100710002006F0002006D00010047
:1014E0006C0002006A000100690002006700010050
:1014F0006600010065000100640002006200010056
:1015000061000100600001005F0002005D00010059
:101510005C0001005B0001005A000100590001005D
:10152000580001005700010056000100550001005D
:10153000540001005300000053000100520001005C
:1015400051000100500001004F0001004E0000005A
:101550004E0001004D0001004C0001004B00000056
:101560004B0001004A000100490001004800000052
:10157000480001004700010046000000460001004D
:101580004500000045000100440001004300000048
:101590004300010042000000420001004100000041
:1015A00041000100400001003F0000003F00010039
:1015B0003E0000003E0001003D0000003D00010033
:1015C0003C0000003C0000003C0001003B0000002B
:1015D0003B0001003A0000003A0001003900000021
:1015E0003900010038000000380000003800010018
:1015F0003700000037000100360000003600000010
:101600003600010035000000350000003500010003
:1016100034000000340000003400010033000000FA
:1016200033000000330001003200000032000000EF
:1016300032000100310000003100000031000100E3
:101640003000000030000000300001002F000000DA
:101650002F0000002F0000002F0001002E000000CE
:101660002E0000002E0001002D0000002D000000C3
:101670002D0000002D0001002C0000002C000000B7
:101680002C0000002C0001002B0000002B000000AB
:101690002B0000002B0001002A0000002A0000009F
:1016A0002A0000002A000100290000002900000093
:1016B0002900000029000000290001002800000086
:1016C0002800000028000000280000002800010079
:1016D000270000002700000027000000270000006E
:1016E0002700010026000000260000002600000060
:1016F0002600000026000100250000002500000053
:101700002500000025000000250000002500010044
:101710002400000024000000240000002400000039
:10172000240001002300000023000000230000002B
:10173000230000002300000023000000230001001C
:101740002200000022000000220000002200000011
:101750002200000022000100210000002100000002
:1017600021000000210000002100000021000000F5
:1017700021000100200000002000000020000000E7
:1017800020000000200000002000000020000000D9
:10179000200001001F0000001F0000001F000000CB
:1017A0001F0000001F0000001F0000001F000100BC
:1017B0001E0000001E0000001E0000001E000000B1
:1017C000043700001E290000511B000058100000C3
:1017D00010090000CC040000780200004101000064
:1017E0004D31303420532575004739322045257559
:1017F00000473932205A25752E2575004D35303079
:10180000004E4F202000594553202000526573752B
:101810006D65205072696E74203F0025753A253041
:10182000327500253032753A2530327500257564E1
:1018300020253032753A25303275002020202020B6
:1018400020005A00590020202020005800092000C4
:101850000000000000000000000000003FFFF0005A
:1018600000000000000000000000003800700000D0
:101870000000000000000000000030FC300000000C
:1018800000000000000000000020FC10000000002C
:1018900000000000000000002078100000000000A0
:1018A00000000000000000203010000000000000D8
:1018B0000000000000002C00D03FC000000000002D
:1018C00000002082002E31D07FE0000000000000E8
:1018D000001041002F7BD07FE000000000000000DE
:1018E0001041002F7BD07FE00000000000000020AE
:1018F00082002E31D03FC0000000000000004104F3
:10190000002C00D03FC00000000000000082080052
:101910002030107FE000000000000000820800205E
:1019200078107FE00000000000000041040020FC6F
:10193000107FE00000000000000020820030FC303A
:101940001F80000000000000000000003800700F41
:101950000000000000000000FFFFC03FFFF0060095
:1019600000000000000000FFFFC0000000000000B9
:101970000000000000000000003FFFF00000000039
:1019800000000000000000003800700000000000AF
:101990000000000000000031863000000000000060
:1019A000000000000000238710000000000000007D
:1019B00000000000002787900000000000000000E9
:1019C000000000002F87D000000000000000000091
:1019D0000000002F03D03FC00000000000000020E6
:1019E00082002030107FE000000000000000104165
:1019F000002078107FE0000000000000001041008F
:101A00002078107FE000000000000000208200200D
:101A100030103FC0000000000000004104002F0310
:101A2000D03FC0000000000000008208002F87D0D7
:101A30007FE0000000000000008208002787907F00
:101A4000E0000000000000004104002387107FE058
:101A5000000000000000002082003186301F80005E
:101A60000000000000000000003800700F000000BF
:101A70000000000000FFFFC03FFFF0060000000074
:101A800000000000FFFFC0000000454550524F4DD0
:101A9000206461746173697A65206572726F722E59
:101AA0000A00290A002062797465733B206372631F
:101AB000200053657474696E67732053746F726588
:101AC00064202800200D0A62797465733B206372DC
:101AD00063206572726F722000200D0A627974654E
:101AE000733B20637263206572726F7220007265AF
:101AF00061642066696C65206E616D653A2000291D
:101B00000A002062797465733B2063726320007061
:101B10006F7765726F66662073746F726564207389
:101B2000657474696E677320726574726965766531
:101B300064202800290A002062797465733B2063C1
:101B4000726320002073746F72656420736574740F
:101B5000696E6773207265747269657665642028A2
:101B600000202863616C63756C6174656429210AC7
:101B70000020213D2000454550524F4D2043524307
:101B8000206D69736D61746368202D202873746FF4
:101B90007265642920002053697A653A2000496EF5
:101BA0006465783A2000204D61726C696E3D56354F
:101BB00035290A0028454550524F4D3D00454550B6
:101BC000524F4D2076657273696F6E206D69736D2B
:101BD00061746368200048617264636F64656420A7
:101BE00044656661756C742053657474696E6773BF
:101BF000204C6F616465640A00DC050000DC0500B0
:101C00000032000000DC0500000000964300009652
:101C1000430000A0400000C8410000A0420000A016
:101C2000420000C8430000BA4220286D6D29002000
:101C3000440020490020204D3330342050002044FF
:101C40000020490020204D333031205000504944BD
:101C50002073657474696E67733A0A002046002029
:101C6000420020480020204D3134352053004D6182
:101C700074657269616C206865617475702070614B
:101C800072616D65746572733A0A00205A002059BA
:101C90000020204D323036205800486F6D65206F8F
:101CA00066667365743A0A00204500205A00205980
:101CB0000020580020540020530020204D323035A1
:101CC00020420020453C6D61785F655F6A65726BFC
:101CD0003E0020583C6D61785F785F6A65726B3EAC
:101CE00020593C6D61785F795F6A65726B3E205A5E
:101CF0003C6D61785F7A5F6A65726B3E0041647625
:101D0000616E6365643A20423C6D696E5F7365671E
:101D10006D656E745F74696D655F75733E20533CCD
:101D20006D696E5F66656564726174653E20543CE2
:101D30006D696E5F74726176656C5F66656564720D
:101D40006174653E0020540020520020204D323046
:101D500034205000416363656C65726174696F6E15
:101D60002028756E6974732F7332293A20503C70A5
:101D700072696E745F616363656C3E20523C72658C
:101D800074726163745F616363656C3E20543C747C
:101D9000726176656C5F616363656C3E0A00204525
:101DA00000205A0020590020204D323031205800A8
:101DB0004D6178696D756D20416363656C65726115
:101DC00074696F6E2028756E6974732F7332293AA7
:101DD0000A00204500205A0020590020204D3230B2
:101DE000332058004D6178696D756D2066656564B6
:101DF00072617465732028756E6974732F73293A44
:101E00000A00204500205A0020590020204D393278
:101E100020580053746570732070657220756E6968
:101E2000743A0A0020204D3230302044300A00201D
:101E3000204D3230302044002044697361626C656B
:101E4000640A0046696C616D656E74207365747414
:101E5000696E67733A0020204D3134392043203BAE
:101E600020556E69747320696E2043656C736975C3
:101E7000730A002020473231202020203B007A5F67
:101E80006D696E3A2000795F6D696E3A2000785F67
:101E90006D696E3A20005265706F7274696E6720CA
:101EA000656E6473746F70207374617475730A0067
:101EB00020573A0042656420636F6F6C696E672E2D
:101EC0002E2E004265642068656174696E672E2E4F
:101ED0002E00205A3A0020593A0020436F756E7444
:101EE00020583A0020453A00205A3A0020593A003A
:101EF000583A003A004361703A00205A00205900D5
:101F0000580020204D61783A2000205A00205900C6
:101F1000580020204D696E3A20004F6E20004F6619
:101F20006600536F667420656E6473746F70733AE5
:101F300020004B64200023646566696E652044457B
:101F40004641554C545F004B692000236465666927
:101F50006E652044454641554C545F004B7020004F
:101F600023646566696E652044454641554C545F5F
:101F700000504944204175746F74756E6520666920
:101F80006E697368656421205075742074686520DB
:101F90006C617374204B702C204B6920616E64203F
:101FA0004B6420636F6E7374616E74732066726F1E
:101FB0006D2062656C6F7720696E746F20436F6E61
:101FC00066696775726174696F6E2E680A005049A0
:101FD00044204175746F74756E65206661696C6527
:101FE00064212074696D656F75740A004531205451
:101FF0004845524D414C2052554E4157415900429F
:10200000454420544845524D414C2052554E41576D
:10201000415900546865726D616C2052756E61772C
:1020200061790045312048656174696E6720666199
:10203000696C6564004265642068656174696E67F7
:10204000206661696C65640048656174696E67202B
:102050006661696C656400504944204175746F7411
:10206000756E65206661696C6564212054656D70CC
:102070006572617475726520746F6F206869676836
:102080000A00204B643A2000204B693A2000204B84
:10209000703A20000A20436C6173736963205049D1
:1020A00044200A002054753A2000204B753A200045
:1020B000206D61783A2000206D696E3A200020641E
:1020C0003A200020626961733A200050494420415F
:1020D00075746F74756E65206661696C6564212026
:1020E000426164206578747275646572206E756DE6
:1020F0006265720A00504944204175746F74756EB0
:10210000652073746172740A00486F6D65202573D1
:102110002573257320666972737400206669727373
:10212000740A005A0059005800486F6D6520004F2E
:10213000666673657473206170706C6965640045D0
:1021400072723A20546F6F206661722100546F6F73
:10215000206661722066726F6D20726566657265B9
:102160006E636520706F696E740A007C3C3E5E2B66
:102170003D3F2F5B5D3B2C2A225C00526573656EF0
:10218000643A20006F6B0020746F6F206C6F6E6775
:1021900020657874727573696F6E207072657665EC
:1021A0006E7465640A0020636F6C642065787472D5
:1021B0007573696F6E2070726576656E7465640AFA
:1021C00000627573793A2070617573656420666F7B
:1021D0007220696E7075740A00627573793A2070A6
:1021E000617573656420666F7220757365720A008D
:1021F000627573793A2070726F63657373696E6785
:102200000A004B494C4C45442E20004B494C4C2075
:10221000636175736564206279204B494C4C206280
:102220007574746F6E2F70696E0A004B494C4C4583
:10223000442E20004B494C4C20636175736564202B
:10224000627920746F6F206D75636820696E6163B9
:10225000746976652074696D65202D2063757272CE
:10226000656E7420636F6D6D616E643A2000506C12
:1022700065617365207265736574005052494E54F0
:1022800045522048414C544544005072696E746573
:10229000722068616C7465642E206B696C6C2829EF
:1022A0002063616C6C6564210A000000000000007E
:1022B000000000000000000048420000484200000A
:1022C0008040000000005761726E696E673A2048D6
:1022D0006F6D696E672042756D7020446976697311
:1022E0006F72203C20310A000202040000A040006E
:1022F00000A040000000400000964300009643000C
:1023000000C843FFFFFF436172642072656D6F7602
:102310006564004361726420696E736572746564FC
:102320000056652D6A65726B0056652D6A65726B85
:102330000056652D6A65726B00567A2D6A65726B60
:1023400000567A2D6A65726B0056792D6A65726B3C
:102350000056792D6A65726B0056792D6A65726B2D
:102360000056782D6A65726B0056782D6A65726B1F
:102370000056782D6A65726B004D6F74696F6E0040
:102380004573746570732F6D6D004573746570735C
:102390002F6D6D005A73746570732F6D6D005A73D5
:1023A000746570732F6D6D005973746570732F6D44
:1023B0006D005973746570732F6D6D00587374657B
:1023C00070732F6D6D005873746570732F6D6D0091
:1023D0004D6F74696F6E0053746570732F6D6D006F
:1023E0004A65726B00416363656C65726174696F05
:1023F0006E0056656C6F6369747900436F6E74721A
:102400006F6C0046696C2E204469612E0046696C31
:102410002E204469612E004F6666004F6E200045F5
:1024200020696E206D6D3300436F6E74726F6C00A7
:1024300043616E6E6F7420656E7465722073756291
:102440006469723A2000022E2E004D61696E0040D0
:10245000012C0173012201AB011801F3010E0148A7
:10246000020401AC02FA002A03F000C303E6008074
:1024700004DC006D05D2006C06C800C707BE007002
:1024800009B4006D0BAA00CB0DA000CF138C00F295
:102490001B7800E9246400142E50009C353C00B8E1
:1024A0003A2800A03D14000B3F000070012C019061
:1024B000012701B0012201C0011D01F00118011026
:1024C00002130130020E016002090190020401C0F2
:1024D00002FF000003FA004003F5008003F000D083
:1024E00003EB002004E6007004E100E004DC00409F
:1024F00005D700C005D2004006CD00D006C8008038
:1025000007C3003008BE00F008B900C009B400B02D
:102510000AAF00B00BAA00D00CA500000EA000501E
:102520000F9B00C01096005012910000148C00C048
:10253000158700B0178200B0197D00D01B7800000D
:102540001E730040206E0090226900F02464004059
:10255000275F0090295A00E02B5500102E500020D4
:10256000304B0010324600E033410090353C001003
:1025700037370070383200A0392D00B03A2800A05B
:102580003B2300603C1E00103D1900903D140010DC
:102590003E0F00703E0A00C03E0500003F000040B4
:1025A0003FFBFF803FF6FFC03FF1FF45312054481D
:1025B00045524D414C2052554E41574159004245DC
:1025C0004420544845524D414C2052554E415741AC
:1025D0005900546865726D616C2052756E61776147
:1025E00079004531204572723A204D415854454D8D
:1025F00050004572723A204D415854454D5020428A
:102600004544004D415854454D50207472696767E8
:1026100065726564004531204572723A204D494E1D
:1026200054454D50004572723A204D494E54454D27
:102630005020424544004D494E54454D502074723F
:1026400069676765726564004D38342058205920E9
:102650005A20450025732C207361766520656E64D1
:102660002D2D2D2D2D2D2D2D005A25752C45256C0C
:10267000752C50256C752C5425752C4225752C0015
:10268000202F002042403A0020403A0050726568F6
:1026900065617420504C4120456E6400507265683D
:1026A00065617420504C4120426564005072656839
:1026B00065617420504C4100507265706172650014
:1026C000507265686561742041425320456E640014
:1026D0005072656865617420414253204265640010
:1026E0005072656865617420414253005072657094
:1026F000617265004D3432380050726568656174EE
:1027000020504C4100436F6F6C646F776E005072C5
:102710006568656174204142530044697361626C6D
:1027200065207374657070657273004D38340053A2
:10273000657420686F6D65206F66667365747300DD
:102740004175746F20686F6D6500473238004D6FBA
:1027500076652061786973004D61696E004D6F7612
:10276000652058004D6F76652059004D6F766520C5
:102770005A004578747275646572004D6F766520F5
:10278000302E316D6D004D6F766520316D6D004DD1
:102790006F76652031306D6D004D6F766520617804
:1027A0006973004578747275646572004D6F766563
:1027B000205A004D6F76652059004D6F7665205880
:1027C000004D6963726F737465707320756E617606
:1027D00061696C61626C650A0045313A20004530E0
:1027E0003A20005A3A2000593A2000583A20004D29
:1027F00053312C4D53322050696E730A0062656468
:102800000A002C2073797374656D2073746F707077
:10281000656421204865617465725F49443A20000F
:102820004265642068656174696E67206661696CE1
:1028300065640048656174696E67206661696C65EE
:10284000640045312048656174696E67206661697E
:102850006C65640048656174696E67206661696CC7
:1028600065640000002100240027002A002D0030AC
:1028700000330001010000040107010A01000022E9
:1028800000250028002B002E00310034000201003A
:1028900000050108010B010000200023002600298B
:1028A000002C002F00320000010000030106010986
:1028B0000105050505070508080808020202020AC5
:1028C0000A080804040404010101010101010103D3
:1028D00003030303030303040707070C0C0C0C0C8E
:1028E0000C0C0C0202020206060606060606060B81
:1028F0000B0B0B0B0B0B0B010210202008081020F8
:10290000401020408002010201080402010102047B
:10291000081020408080402010080402018004023A
:102920000180402010080402010804020101020491
:102930000810204080010204081020408000000A96
:102940000B02090C0D0E0807030401000000000033
:102950000000000000000000000000000000000077
:102960000000000000000000001211100000000034
:102970000000000000000000000000000000000057
:102980000000004D3234004D323320257300000624
:102990000900FE0701920321207FFF07FF07FF00C8
:1029A000000006000001070706020080808080808A
:1029B0000080030202060105A0A00507070600002B
:1029C0005050F850F850500507070600002078A036
:1029D0007028F020050707060000C0C810204098A6
:1029E000180507070600006090A040A89068020341
:1029F00003060104C0408003070706010020408051
:102A000080804020030707060100804020202040EE
:102A10008005050506000120A870A820050505060B
:102A200000012020F820200203030602FFC040809E
:102A3000050101060003F8020202060200C0C005FB
:102A40000505060001081020408005070706000064
:102A50007088888888887003070706010040C04096
:102A6000404040E00507070600007088087080803D
:102A7000F8050707060000F81020100808F0050701
:102A80000706000010305090F810100507070600E8
:102A900000F880F0080888700507070600007080BD
:102AA00080F0888870050707060000F808102020CD
:102AB0002020050707060000708888708888700548
:102AC0000707060000708888780808700205050668
:102AD0000200C0C000C0C00206060602FFC0C0005F
:102AE000C0408004070706000010204080402010EE
:102AF000050303060002F800F8040707060100803A
:102B0000402010204080050707060000708808104C
:102B100020002005070706000070880868A8A87034
:102B2000050707060000708888F888888805070769
:102B3000060000F08888F08888F005070706000086
:102B400070888080808870050707060000F08888FC
:102B5000888888F0050707060000F88080F08080EC
:102B6000F8050707060000F88080F08080800507E0
:102B700007060000708880B888887005070706007F
:102B800000888888F8888888010707060200808006
:102B90008080808080050707060000381010101024
:102BA00090600507070600008890A0C0A0908805E7
:102BB0000707060000808080808080F805070706F0
:102BC000000088D8A888888888050707060000883C
:102BD00088C8A89888880507070600007088888834
:102BE000888870050707060000F08888F0808080DC
:102BF00005070706000070888888A8906805070701
:102C0000060000F08888F0A09088050707060000FD
:102C1000788080700808F0050707060000F820207B
:102C200020202020050707060000888888888888DB
:102C300070050707060000888888888850200507E7
:102C4000070600008888888888A8500507070600BE
:102C5000008888502050888805070706000088886B
:102C60008850202020050707060000F808102040A3
:102C700080F8030707060100E08080808080E0057F
:102C80000505060001804020100803070706010023
:102C9000E02020202020E0050303060004205088C7
:102CA000050101060000F802020206020580400547
:102CB00005050600007008788878050707060000FB
:102CC0008080B0C88888F005050506000070808007
:102CD0008870050707060000080868988888780546
:102CE00005050600007088F88070050707060000DB
:102CF0003048E0404040400506060600FF708888E6
:102D00007808700507070600008080B0C8888888AA
:102D10000107070602008000808080808003080889
:102D20000601FF200020202020A040040707060005
:102D300000808090A0C0A090030707060100C0405B
:102D400040404040E0050505060000D0A8A8A8A81E
:102D5000050505060000B0C8888888050505060039
:102D60000070888888700506060600FFF08888F0E5
:102D700080800506060600FF788888780808050523
:102D800005060000B0C880808005050506000070BB
:102D9000807008F00407070600004040E040404013
:102DA0003005050506000088888898680505050631
:102DB000000088888850200505050600008888A83E
:102DC000A850050505060000885020508805060615
:102DD0000600FF888888780870050505060000F859
:102DE000102040F8030707060100204040804040C3
:102DF0002001070706020080808080808080030712
:102E00000706010080404020404080050202060085
:102E100002689000000006000000060900FE0000A5
:102E200000000001090008FE000005080806000077
:102E300040F0C88888987810050808060000C0F897
:102E40008888888888F80505050600012030F83054
:102E5000200508080600002070F820202020E0054A
:102E600009090600FF2070A8A8B888887020050905
:102E7000090600FFE080C0B0A8283028280509090D
:102E80000600FFF8A88888888888A8F8050A0A0636
:102E900000FE205050505088A8A8887003030306F5
:102EA000000340A0405654726176206D696E005652
:102EB00054726176206D696E005654726176206D91
:102EC000696E00566D696E00566D696E00566D69CB
:102ED0006E00566D6178204500566D617820450082
:102EE000566D6178204500566D6178205A00566D08
:102EF0006178205A00566D6178205A00566D6178CD
:102F0000205900566D6178205900566D617820591E
:102F100000566D6178205800566D61782058005633
:102F20006D61782058004D6F74696F6E00416D615E
:102F300078204500416D6178204500416D61782021
:102F40005A00416D6178205A00416D617820590026
:102F5000416D6178205900416D6178205800416DC4
:102F60006178205800412D74726176656C00412DA6
:102F700074726176656C00412D7265747261637460
:102F800000412D7265747261637400416363656C06
:102F900000416363656C004D6F74696F6E0033446C
:102FA000205072696E7465722052656164792E00DA
:102FB0005072696E74696E672E2E2E005072696EA3
:102FC0007420706175736564005072696E7420615D
:102FD000626F72746564005072696E742066726FFD
:102FE0006D2053440053746F70207072696E7400CA
:102FF000526573756D65207072696E74004E6F2036
:10300000534420636172640050617573652070726F
:10301000696E7400436F6E74726F6C0050726570ED
:103020006172650054756E6500496E666F2073634A
:103030007265656E004261627973746570205A0032
:103040004261627973746570205A00466C6F770034
:10305000466C6F7700466C6F770046616E20737028
:1030600065656420330046616E2073706565642079
:10307000330046616E2073706565642033004661DD
:103080006E20737065656420320046616E20737037
:1030900065656420320046616E207370656564204A
:1030A000320046616E2073706565642031004661B0
:1030B0006E20737065656420310046616E20737008
:1030C00065656420310042656400426564004265C4
:1030D00064004E6F7A7A6C65004E6F7A7A6C650088
:1030E0004E6F7A7A6C650053706565640053706545
:1030F0006564005370656564004D61696E004572DA
:10310000726F722077726974696E6720746F2045E0
:103110004550524F4D210A00534420636172642090
:103120006F6B0A006F70656E526F6F742066616915
:103130006C65640A00766F6C756D652E696E6974D6
:10314000206661696C65640A00534420696E697485
:10315000206661696C0A00003DE39AE411241FBEF9
:10316000CFEFD1E2DEBFCDBF00E00CBF13E0A0E0A7
:10317000B2E0EAEEF6EE01E00BBF02C007900D925E
:10318000A439B107D9F724E1A4E9B3E001C01D9245
:10319000AC35B207E1F718E1CDEAD8E100E006C0AE
:1031A00021970109802FFE010E949EF2CC3AD1079F
:1031B00080E00807A9F70E945EDC0C9464F30C948D
:1031C00000002F923F924F925F926F927F928F9268
:1031D0009F92AF92BF92CF92DF92EF92FF920F93A6
:1031E0001F93CF93DF93CDB7DEB7CF55D1090FB67D
:1031F000F894DEBF0FBECDBF21E02093FB0F80917E
:10320000780F8D3409F474C6843511F40C94B52C00
:10321000873411F00C94F32C2090760F3090770FB8
:1032200034E02316310409F44BC54CF437FC5CC67A
:1032300080913A0252E0251631047CF529C08AE5D6
:103240002816310409F491C534F4ACE12A1631048E
:1032500009F474C549C6BBE52B16310409F489C5C8
:10326000ECE52E16310409F03FC69FE4292E92E0CA
:10327000392E29E0E22E20E1F22EADE1B4E0BDA727
:10328000ACA738E7C32E30E1D32E00E010E0B1C583
:1032900081110C94FA2C0C94F52C882311F40C94C5
:1032A000F52C0E947D3182E50E947131882309F45A
:1032B00036C10E94F5304B015C0120E030E0A901ED
:1032C0000E946DEB882309F4E1C420911D04309124
:1032D0001E0440911F04509120042CA73DA74EA727
:1032E0005FA78091210490912204A0912304B091C2
:1032F000240488AB99ABAAABBBAB209115103091DD
:10330000161040911710509118102CAF3DAF4EAFD2
:103310005FAF8091191090911A10A0911B10B0917D
:103320001C1088AF99AFAAAFBBAF6CA57DA58EA5C9
:103330009FA50E946DEB81110DC028AD39AD4AAD3E
:103340005BAD68A979A98AA99BA90E946DEB882326
:1033500009F49CC411E092E02916310409F010E050
:1033600020E030E0A901C501B4010E946DEB881F87
:103370008827881F18130BC020E030E040E85FE387
:1033800028962CAF3DAF4EAF5FAF28970AC080E0C4
:1033900090E0A0E8BFEB28968CAF9DAFAEAFBFAF7B
:1033A00028972CA53DA54EA55FA56CAD7DAD8EAD36
:1033B0009FAD0E9496EF24966CAF7DAF8EAF9FAF0E
:1033C000249728A939A94AA95BA968AD79AD8AAD26
:1033D0009BAD0E9496EF6B017C0124962CAD3DAD18
:1033E0004EAD5FAD2497CA01B9010E94D2EB2B010B
:1033F0003C01A7019601C701B6010E94D2EB9B01D7
:10340000AC01C301B2010E9497EF0E9402F26CABC3
:103410007DAB8EAB9FAB20E030E040E05FE30E94ED
:10342000D2EB2B013C01A5019401C501B4010E941E
:10343000D2EB4B015C01A3019201C301B2010E94D6
:10344000D2EB9B01AC01C501B4010E9496EF0E9432
:1034500002F228962CAD3DAD4EAD5FAD28970E948F
:10346000D2EB4B015C01C701B60190582CA93DA9D4
:103470004EA95FA90E9473F0A50194010E94D2EBAE
:103480006B017C012CAD3DAD4EAD5FAD6CA57DA556
:103490008EA59FA50E9497EF20E030E040E05FE31B
:1034A0000E94D2EB9B01AC01C701B6010E9497EFCD
:1034B0002CA53DA54EA55FA50E9496EF6B017C0152
:1034C00028AD39AD4AAD5BAD68A979A98AA99BA998
:1034D0000E9497EF20E030E040E05FE30E94D2EBF3
:1034E0002B013C012CA93DA94EA95FA924966CADE6
:1034F0007DAD8EAD9FAD24970E9473F0A501940120
:103500000E94D2EB9B01AC01C301B2010E9497EF74
:1035100028A939A94AA95BA90E9496EF14C089E499
:103520000E947131882329F00E94F5306B017C01E3
:1035300003C0C12CD12C76018AE40E94713188230A
:10354000D9F00E94F5306CAF7DAF8EAF9FAF20E019
:1035500030E0A901C701B6010E946DEB81111AC0CC
:1035600020E030E0A9016CAD7DAD8EAD9FAD0E9435
:103570006DEB81110FC08AC320E030E0A901C701C3
:10358000B6010E946DEB882309F480C31CAE1DAE0A
:103590001EAE1FAEA701960150582CA73DA74EA7FF
:1035A0005FA78CAD9DADAEADBFADB05888AB99AB4C
:1035B000AAABBBABCA01B9010E94D2EB4B015C01C3
:1035C00028A939A94AA95BA9CA01B9010E94D2EB6D
:1035D0009B01AC01C501B4010E9497EF0E9402F269
:1035E00064966CAF7DAF8EAF9FAF649720911D0442
:1035F00030911E0440911F045091200428AF39AF30
:103600004AAF5BAFA701960168AD79AD8AAD9BADBE
:103610000E9497EF28966CAF7DAF8EAF9FAF289733
:103620008091210490912204A0912304B09124045C
:1036300024968CAF9DAFAEAFBFAF24972CAD3DAD00
:103640004EAD5FADBC01CD010E9497EF68966CAFA7
:103650007DAF8EAF9FAF68972091151030911610F7
:1036600040911710509118102C962CAF3DAF4EAFD3
:103670005FAF2C9728962CAD3DAD4EAD5FAD289732
:103680002C966CAD7DAD8EAD9FAD2C970E9496EFC4
:103690006B017C018091191090911A10A0911B1060
:1036A000B0911C1060968CAF9DAFAEAFBFAF60976E
:1036B00068962CAD3DAD4EAD5FAD6897BC01CD01B8
:1036C0000E9496EF4B015C01209125043091260465
:1036D00040912704509128046C962CAF3DAF4EAF1B
:1036E0005FAF6C9760911D1070911E1080911F103C
:1036F000909120100E9496EF6CAB7DAB8EAB9FAB90
:10370000A70196016CA57DA58EA59FA50E94D2EB71
:103710002B013C01A501940168A979A98AA99BA95B
:103720000E94D2EB9B01AC01C301B2010E9497EF52
:103730002B013C01A50194016CA57DA58EA59FA53B
:103740000E94D2EB4B015C01A701960168A979A9FF
:103750008AA99BA90E94D2EB9B01AC01C501B401CF
:103760000E9496EFA30192010E940AF06B017C0176
:1037700020E030E0A9010E946DEB87FF0AC02BED2D
:103780003FE049EC50E4C701B6010E9497EF6B019E
:103790007C0132E02316310451F42BED3FE049EC7B
:1037A00050E4C701B6010E9496EF6B017C0120E056
:1037B00030E0A901C701B6010E946DEB811126C05E
:1037C0002C962CAD3DAD4EAD5FAD2C9768AD79AD6F
:1037D0008AAD9BAD0E946DEB811118C060962CAD37
:1037E0003DAD4EAD5FAD609724966CAD7DAD8EADB9
:1037F0009FAD24970E946DEB811108C05BEDC52E33
:103800005FE0D52E59ECE52E50E4F52EA701960188
:1038100064966CAD7DAD8EAD9FAD64970E94D2EB8A
:103820004B015C0120E030E0A9016CA97DA98EA9C3
:103830009FA90E946DEB8823D9F0A5019401C501D1
:10384000B4010E94D2EB4B015C012CA93DA94EA909
:103850005FA9CA01B9010E94D2EB9B01AC01C5016D
:10386000B4010E9497EF0E9402F24B015C010DC06F
:1038700020E030E0A901C501B4010E94BDF187FF3D
:1038800004C0B7FAB094B7F8B0942FE632E143E839
:103890005AE3C501B4010E946DEB87FF02C00C948E
:1038A000F52CC501B4010E940CF10E94E0F02296B3
:1038B0007FAF6EAF2297672B31F481E090E02296C4
:1038C0009FAF8EAF22974090290450902A046090B9
:1038D0002B0470902C042296AEADBFAD2297BD0193
:1038E00080E090E00E9471EB4B015C019B01AC0118
:1038F000C701B6010E9473F068AF79AF8AAF9BAF82
:10390000A50194016CA97DA98EA99FA90E9473F0BD
:1039100064966CAF7DAF8EAF9FAF6497A3019201A9
:1039200060912110709122108091231090912410A9
:103930000E9496EFA50194010E9473F0A0966CAFCF
:103940007DAF8EAF9FAFA09728AD39AD4AAD5BADCF
:10395000CA01B9010E94D2EB20E030E040E05FE311
:103960000E94D2EB9B01AC0160E070E080E89FE335
:103970000E9496EF2C966CAF7DAF8EAF9FAF2C97C9
:103980006C962CAD3DAD4EAD5FAD6C9729873A87F7
:103990004B875C874D865E866F86788A60914D0284
:1039A00070914E02072E000C880B990B0E9473EB4E
:1039B00020911F0230912002409121025091220259
:1039C0000E94D2EB2AE037ED43E25CE30E94D2EBA7
:1039D00068A779A78AA79BA70E94EDDB9B01AC0192
:1039E00028533F4F4F4F5F4F60962CAF3DAF4EAFC8
:1039F0005FAF60974CA45DA46EA47FA4222423949F
:103A0000312C39E13CAB22964EAD5FAD2297421589
:103A1000530509F41AC10E9446B40E94EDDBDC0193
:103A2000CB0160962CAD3DAD4EAD5FAD6097821B76
:103A3000930BA40BB50BB7FD10C00E94EDDB9B01EF
:103A4000AC0128533F4F4F4F5F4F60962CAF3DAFB7
:103A50004EAF5FAF60970E9489903CA931503CAB5C
:103A6000332309F441C028A939A94AA95BA92C9696
:103A70006CAD7DAD8EAD9FAD2C970E94D2EB6B01EE
:103A80007C019201A30168AD79AD8AAD9BAD0E9426
:103A9000D2EBA70196010E9497EF7B018C01920166
:103AA000A3012C966CAD7DAD8EAD9FAD2C970E9481
:103AB000D2EB4B015C0128A939A94AA95BA968ADE1
:103AC00079AD8AAD9BAD0E94D2EB9B01AC01C501E3
:103AD000B4010E9496EF2B013C01C701D80188ABCD
:103AE00099ABAAABBBAB4DC0B10180E090E00E94A6
:103AF00071EB28AD39AD4AAD5BAD0E94D2EB4B0105
:103B00005C010E9470F06B017C01C501B4010E9450
:103B1000F8F14B015C01A70196016CA57DA58EA56E
:103B20009FA50E94D2EB2B013C012CAD3DAD4EADCB
:103B30005FADC501B4010E94D2EBA30192010E94C6
:103B400097EF2B013C01A50194016CA57DA58EA5E5
:103B50009FA50E94D2EB4B015C012CAD3DAD4EAD5B
:103B60005FADC701B6010E94D2EB9B01AC01C5015C
:103B7000B4010E9496EF68AB79AB8AAB9BAB49E18D
:103B80004CAB9201A30128966CAD7DAD8EAD9FAD7F
:103B900028970E9497EF69837A838B839C8328A957
:103BA00039A94AA95BA968966CAD7DAD8EAD9FAD74
:103BB00068970E9497EF6D837E838F8398876496C2
:103BC0002CAD3DAD4EAD5FAD649769857A858B8533
:103BD0009C850E9497EF69877A878B879C87A09640
:103BE0002CAD3DAD4EAD5FADA0976D857E858F85CB
:103BF00098890E9497EF6D877E878F87988B809139
:103C00003902882321F0CE0101960E949A8EE0901D
:103C1000041118A219A21AA21BA2CE0180966C014F
:103C20008E01085D1F4F9E01235F3F4FAE01475F2E
:103C30005F4FBE016B5F7F4F4F970E94014188230A
:103C400021F09FEF291A390ADECEE09004111CA260
:103C50001DA21EA21FA2DE0194966D018E01085DB9
:103C60001F4F21E230E14DE150E169E170E185E172
:103C700090E10E94014180E1E5E1F0E1ADE1B4E0D5
:103C800001900D928A95E1F70C94F52CEBE8FFE09A
:103C900084918F010F5F1F4F882321F00E94023211
:103CA000F801F6CFE1E4F2E084918F010F5F1F4F3E
:103CB000882311F40C94F52C0E940232F801F4CF01
:103CC00080E50E947131882329F00E94B5306B0194
:103CD0007C0103C0C12CD12C760183E50E94713197
:103CE000882361F00E94F53020E030E04AE754E498
:103CF0000E94D2EB0E94E0F06B017C010E94165FF3
:103D00008091950B811105C060E087E592E00E94EB
:103D100030C50E94EDDBC60ED71EE81EF91E0E94BC
:103D2000EDDBDC01CB018C199D09AE09BF09B7FDA4
:103D300002C00C94F52C0E948990F1CF809133043D
:103D40008770873011F00C94FE2C8FE40E94713143
:103D5000882319F00E94E63003C08FE40E942831C6
:103D600081110C94F52C0C94FE2C109298030C9459
:103D7000F52C209398030C94F52C0E94F5302B0120
:103D80003C01133049F0D6012D913D914D915C914C
:103D90000E9496EF2B013C01ECA5FDA5208131810D
:103DA00042815381C301B2010E9496EF4B015C0135
:103DB0002DEB37E346E855EB0E94BDF187FD21C0AE
:103DC0002DEB37E346E855E3C501B4010E946DEBE6
:103DD0001816BCF01F5FF4E0EF0EF11C2CA53DA5FA
:103DE0002C5F3F4F3DA72CA734E0C30ED11C1430ED
:103DF00031F1F10181911F010E947131882351F34A
:103E0000BCCF133051F44092290450922A0460929E
:103E10002B0470922C0401E0DDCFA5019401D701A1
:103E20006D917D918D919C910E9497EFF701608338
:103E3000718382839383812F0E94CC2FCBCF002369
:103E400009F44EC020E030E0A9016091290470918E
:103E50002A0480912B0490912C040E9497EF2091CA
:103E6000670B3091680B4091690B50916A0B0E946F
:103E7000D2EB0E94C8F16093110C7093120C8093E6
:103E8000130C9093140C9091EF0B8091F00B9817FA
:103E900019F00E94B85E24C00E94165F80916F00E6
:103EA000982F927081FF05C080916F008D7F809365
:103EB0006F004091110C5091120C6091130C709195
:103EC000140C4093B1105093B2106093B3107093E0
:103ED000B410992329F080916F00826080936F0065
:103EE0000E94C6820C94F52C0E946B4F0C94F52C0A
:103EF0008091760F9091770F8537910509F4ACC7C3
:103F00000CF0B8C08C34910509F4F3C40CF050C027
:103F10008931910509F4A2C21CF58431910509F497
:103F200032C27CF48131910509F422C22CF402974B
:103F300008F4A7C10C94B22C429709F459C60C940A
:103F4000B22C8631910509F462C20CF45CC287314F
:103F5000910509F462C2489709F475C20C94B22C19
:103F60008E31910509F4F6C284F48B31910509F480
:103F700089C20CF479C28C31910509F4E1C24D97E4
:103F800011F40C94F52C0C94B22C8032910509F4A8
:103F90007AC30CF4C4C38A32910509F476C48B3415
:103FA000910511F00C94B22C0E94C9B70C94F52C19
:103FB0008A36910509F4C2C5B4F58435910509F432
:103FC00017C6E4F48135910509F4F3C54CF48D343A
:103FD000910511F00C94B22C0E9400B80C94F52CB1
:103FE0008235910509F401C68335910511F00C94D1
:103FF000B22C81E0809397030C94F52C8C359105BD
:1040000009F442C634F48535910509F424C60C94AC
:10401000B22C8836910509F470C48936910509F4EB
:104020002CC50C94B22C8F36910509F4A8C484F4E5
:104030008C36910509F4F1C40CF4A5C58D369105B3
:1040400009F45BC58E36910509F486C40C94B22C34
:104050008137910509F4E8C40CF4E2C48237910574
:1040600009F49AC68337910511F00C94B22CEBE356
:10407000F4E097C68C3241E0940711F40C94232AA3
:104080000CF07BC0893C910511F40C9457287CF509
:104090008C38910509F434C5ACF48737910509F4DF
:1040A00036C70CF4E8C68837910509F433C7893759
:1040B000910511F00C94B22C1092100410920F0480
:1040C0000C94F52C8B39910509F4F2C434F4813940
:1040D000910509F425C70C94B22C8E3B910509F487
:1040E0002AC5883C910509F492C70C94B22C833DF3
:1040F000910511F40C947B293CF58C3C910511F44D
:104100000C948C2864F48B3C910511F00C94B22C27
:10411000AFE4EA2EA2E0FA2E0FE016E0EEC78D3CE7
:10412000910511F40C9401298E3C910511F00C9429
:10413000B22CEFE4CE2EE2E0DE2EF1E1EF2EF4E041
:10414000FF2E10E00C9469298D3D910511F40C941B
:1041500089293CF48C3D910511F40C947E290C9432
:10416000B22C823E910511F40C94F52982329140D3
:1041700011F40C941A2A0C94B22C8C3AB1E09B07DF
:1041800011F40C947829D4F58E35F1E09F0711F4E1
:104190000C94A32BB4F48E3231E0930711F40C94F9
:1041A000DD2A14F40C94482A8F3251E0950711F45B
:1041B0000C942B2B8033914011F40C942E2B0C94E7
:1041C000B22C8336B1E09B0711F40C941C2C3CF408
:1041D0008F35914011F40C94D22B0C94B22C803971
:1041E00021E0920711F40C94332C8A39914011F09C
:1041F0000C94B22C0E943B7C0C94F52C883F41E03F
:10420000940711F40C94462CECF4853FA1E09A0736
:1042100011F40C94362C4CF4843F914011F00C9422
:10422000B22C0E9401690C94F52C863FF1E09F07A7
:1042300011F40C94392C873F914011F40C943C2CD0
:104240000C94B22C8C3833E0930711F40C948A2C24
:1042500064F48B38934011F00C94B22C8FE4E82E68
:1042600082E0F82E10E00C94692C803AA3E09A07C3
:1042700009F448C2873E934011F40C94A02C0C948E
:10428000B22CA090740FB090750F80E50E94713130
:10429000882359F00E94B5306B017C0111E0672B37
:1042A000682B692B31F410E004C010E0C12CD12C34
:1042B000760183E50E947131882311F40C942A2E33
:1042C0000E94F53020E030E04AE754E40E94D2EB4F
:1042D0000E94E0F06B017C0111110BC0672B682B71
:1042E000692B39F4A114B10421F0F5018081811109
:1042F00002C010E001C011E00E94165F112329F0F6
:1043000061E0C5010E946AC505C060E080E692E0F8
:104310000E9430C583E08093FB0F81E080933A10C8
:10432000C114D104E104F104B1F00E94EDDBC60E2A
:10433000D71EE81EF91E0E94EDDBDC01CB018C19B3
:104340009D09AE09BF09B7FF0DC080913A108111D8
:104350000C942F2E07C080913A10882319F00E94E8
:104360008990F9CF0E9411CF10923A100C94F52C3D
:1043700060E083E792E00E9430C517981698159880
:1043800014980C94F52CEBE8F2E084918F010F5F08
:104390001F4F882321F00E940232F801F6CF1092BD
:1043A000B20E8DE69CE00E9477898BE1EDE6FCE0A1
:1043B000DE01159601900D928A95E1F780916B0CC4
:1043C00090916C0C9C838B8387E692E09A8389831F
:1043D00040E050E0BE016F5F7F4F80E090E00E94C0
:1043E0009B51CE0101960E940D90ECE7F2E0849182
:1043F0008F010F5F1F4F882311F40C94F52C0E943E
:104400000232F801F4CF0E9455DA0C94F52C109288
:10441000350C1092360C0C94F52CE091740FF09141
:10442000750F8081882329F0803209F4108231963B
:10443000F8CF40E061E08091740F9091750F0E9479
:104440005E540C94F52C8091360C882319F081E091
:104450008093350C0E94C9B70C94F52C1092350C42
:104460000E94EBB70C94F52C8091360C882311F444
:104470000C94F52C83E50E94713181110C94332E3C
:104480000C94F52C83E40E942831882309F454C04D
:10449000E6EAF2E084918F010F5F1F4F882321F03D
:1044A0000E940232F801F6CF8091080E882391F025
:1044B000BE016F5F7F4F85E09EE00E943F888E01C6
:1044C0000F5F1F4FD8018D918D01882381F10E94CC
:1044D0000232F8CFECE9F2E084918F010F5F1F4FB9
:1044E000882329F10E940232F801F6CF80915A0BFD
:1044F000882309F485C2B4E2CB2EB3E0DB2EE12C95
:10450000F12C20E080915A0B90E00E2C02C0959582
:1045100087950A94E2F780FD5BC23FEFE31AF30A46
:1045200042E0C40ED11C55E0E516F10459F78AE0CB
:104530000E9402320C94F52C0E94964E0C94F52C9D
:1045400040E060E08091740F9091750F0E945E547E
:104550000C94F52C8091360C882311F40C94F52CD6
:1045600085E09EE00E943BD785E09EE00E941A888D
:104570001092340C1092330C8091360C882311F475
:104580000C94F52C0091740F1091750F1092350C4E
:104590008091080E882321F085E09EE00E941A8811
:1045A000B801CE0180960E94A2538C01892B11F490
:1045B0000C94F52C68A179A16115710511F06C5F5F
:1045C0007F4F19821C8222E0A801CE0101960E9431
:1045D000A68D811102C0F12C14C0CE0101960E945B
:1045E000884F8823C1F361E0CE0101960E942388A1
:1045F000009789F325EEFC0120831C820E94E4D4FD
:10460000F82ECE0101960E94FC31FF2011F1E5EB5E
:10461000F2E084917F012FEFE21AF20A882321F061
:104620000E940232F701F5CFD8018D918D018823C8
:1046300019F00E940232F8CF8AE00E9402321092F2
:10464000650C1092660C1092670C1092680C0C941A
:10465000F52CE3ECF2E084917F01BFEFEB1AFB0A4B
:10466000882321F00E940232F701F5CFF8018191F1
:104670008F01882319F00E940232F8CF8EE20E9447
:1046800002320C94F52C8091350C81110E94165F3A
:104690008091360C882311F40C94F52C80E50E944F
:1046A0007131882319F00E94E63003C080E50E9432
:1046B0002831182F482F61E08091740F9091750F69
:1046C0000E945E5483E50E947131882381F00E942C
:1046D000C530AB01BC014093650C5093660C6093F0
:1046E000670C7093680C85E09EE00E943087809193
:1046F000360C882319F081E08093350C11110C944D
:10470000F52CA8CE8091740F9091750F21E0209325
:10471000340C40E060E00E945E540C94F52C0E9442
:104720007AB77B018C0120E831E541E050E00E943E
:104730005BEFC9016DE671E00E945BF24B015C0129
:10474000C801B70120E13EE040E050E00E945BEF8D
:10475000CA01B90128E130E040E050E00E945BEF7F
:10476000762E672EC62ED72E8CE3282E312C412C88
:10477000512CC801B701A20191010E945BEFF62EF6
:10478000E72ECA01B901A20191010E945BEFCB01A2
:104790008E010F5F1F4F8114910499F0EF92FF92E9
:1047A0007F936F936F927F92BF92AF929F928F92FF
:1047B00083E093E09F938F931F930F930E9407EBE7
:1047C00013C0A114B104B1F0EF92FF927F936F93E5
:1047D0006F927F92BF92AF9283EF92E09F938F93FD
:1047E0001F930F930E9407EB0FB6F894DEBF0FBE26
:1047F000CDBF30C0CD2879F0EF92FF927F936F93B9
:104800006F927F9287EE92E09F938F931F930F9307
:104810000E9407EBE9CF892B69F0EF92FF927F931B
:104820006F938FED92E09F938F931F930F930E944E
:1048300007EBDACFEF92FF928BED92E09F938F938D
:104840001F930F930E9407EB0F900F900F900F9004
:104850000F900F9060E0C8010E946AC5EAEBFFE08C
:1048600084917F01BFEFEB1AFB0A882321F00E949D
:104870000232F701F5CFB80187E193E00E94125EA2
:104880008AE00E9402320C94F52C83E50E9471317B
:10489000882311F40C94F52C0E94D530E82E80E585
:1048A0000E947131882339F00E94D530182F87FF7C
:1048B00003C00C94F52C1DE089E40E94713188231B
:1048C00041F00E94E63081110C94CD2EE5E4F5E034
:1048D0000BC089E40E942831F6CF319625E0E237FB
:1048E000F20711F40C94CD2E84911813F6CF0C948A
:1048F0006A2E0E94EBB70C94F52C88E690E00E949B
:10490000A93581110C94F52C80915A0B83FF02C0BC
:104910000C94F52C83E50E9471318823C9F00E9424
:10492000F5300E94DBF0709303116093021180E078
:104930000E9407AA0E94F53020E030E04AEA52E4E3
:104940000E946DEB181624F00E9400B80E9411CF4F
:104950000E942D5E0C94F52C8EE40E947131882308
:1049600011F40C94F52C0E94C5306093740B709375
:10497000750B8093760B9093770B0C94F52C83E555
:104980000E942831882359F083E50E9471318823E1
:1049900019F00E94D53001C080E080935A0BEAEBF9
:1049A000FFE084918F010F5F1F4F882321F00E9449
:1049B0000232F801F6CFE2E3F3E084918F010F5F5A
:1049C0001F4F882309F492CD0E940232F801F5CFDF
:1049D000BB24B394B20E222319F08CE20E9402325F
:1049E000F60185919491FC0184918F010F5F1F4F17
:1049F000882321F00E940232F801F6CF2B2D8DCDB5
:104A0000EEE2F3E084918F010F5F1F4F882309F4DA
:104A10008ECD0E940232F801F5CF10920602E5C752
:104A200089E393E00E94299083E50E9471318823F5
:104A300059F00E94D5308D3318F480932302D5C7E6
:104A40008CE380932302D1C7EAEBFFE084918F01CE
:104A50000F5F1F4F882321F00E940232F801F6CF2A
:104A60004091230250E060E070E082E493E00E9415
:104A7000BF5D8AE00E940232B8C789E690E00E94DA
:104A8000A935811111C0E9E4F3E084918F010F5F32
:104A90001F4F882321F00E940232F801F6CF0E94B6
:104AA0000EA88AE00E9402321092FB0F0C94F02EA6
:104AB00083E50E947131882309F497C70E94D5309D
:104AC000182F8D3308F01CE3109308100E94EDDBC3
:104AD0006B017C01212F30E0A8EEB3E00E9487EF4C
:104AE000C60ED71EE81EF91EC0920410D092051003
:104AF000E0920610F092071078C70E94FF3575C744
:104B000080915A0B83FF01C070C783E50E94713109
:104B1000882309F46AC70E94F5300E94DBF06639E9
:104B2000710514F066E970E0709301116093001153
:104B30000E94BBA95AC70E943D8557C780E50E94C5
:104B40007131882339F00E94D530182F833008F056
:104B50004CC701C010E083E50E947131882319F031
:104B60000E94C53002C06FEF70E0E12FF0E06F3FB0
:104B7000710510F06FEF70E0EE0FFF1FE15CF94F71
:104B80007183608332C780E50E947131882339F0D8
:104B90000E94C5306330710508F027C702C060E08D
:104BA00070E0660F771FFB01E15CF94F1182108204
:104BB0001CC70E9453AA0E941474109240061092BF
:104BC0003F0610924206109241061092440610923F
:104BD000430668EE73E080E090E00E9443C460E02A
:104BE0008CE493E00E9430C500C710929703FDC685
:104BF00083E50E947131882399F00E94F53020E00E
:104C000030E04AE754E40E94D2EB0E94E0F0609367
:104C10002402709325028093260290932702E5C612
:104C200088E50E94283181110C94432E89E50E9469
:104C3000283181110C94432E8AE50E94283181117C
:104C40000C94432E85E40E94283181110C94432E4C
:104C50000E941474CAC683E50E942831882309F48F
:104C6000C4C60E94F53020E030E04AE754E40E94D8
:104C7000D2EB0E94E0F060930010709301108093DB
:104C8000021090930310B1C63FE4C32E32E0D32E3E
:104C90004BE5E42E4BE0F42E10E0D6018D916D0132
:104CA0000E942831882309F46DC0133009F063C0D5
:104CB0000E94F5304B015C0120E030E040EA51E415
:104CC0000E946DEB87FF4EC0A50194016091670BB8
:104CD0007091680B8091690B90916A0B0E9473F040
:104CE0002B013C019B01AC016091EB057091EC053F
:104CF0008091ED059091EE050E94D2EB6093EB055B
:104D00007093EC058093ED059093EE05A30192015D
:104D100060911B0670911C0680911D0690911E06E5
:104D20000E94D2EB60931B0670931C0680931D06B5
:104D300090931E066091FB057091FC058091FD0526
:104D40009091FE050E9471EBA30192010E94D2EBAB
:104D50000E94E0F06093FB057093FC058093FD05D5
:104D60009093FE058092670B9092680BA092690B5E
:104D7000B0926A0B07C00E94F530F701608371831F
:104D8000828393831F5FF4E0EF0EF11C143009F06F
:104D900084CF0E94FE5F29C60E94165F0E94C682D1
:104DA00024C684918F010F5F1F4F882321F00E943A
:104DB0000232F801F6CF60E08BE294E00E948F822D
:104DC00061E084E294E00E948F8261E089E194E0F6
:104DD0000E948F8261E089E094E00E948F8260E00F
:104DE00080E094E00E948F8261E086EF93E00E9471
:104DF0008F8260E08CEE93E00E948F8260E084EE10
:104E000093E00E948F8260E086ED93E00E948F82A3
:104E100060E088EC93E00E948F8260E089EB93E091
:104E20000E948F8260E08BEA93E00E948F8260E0B4
:104E300085E993E00E948F8260E084E893E00E941D
:104E40008F8260E08FE693E00E948F8261E08CE5C4
:104E500093E00E948F82C9C58091740F9091750F65
:104E6000DC012C91222321F060E00E946AC5BDC5BF
:104E70000E9411CFBAC50091740F1091750F83E095
:104E8000D12C40E08150E1F0F8019081292F2B7F57
:104E90002134C1F721812133A9F7913421F09534D0
:104EA00021F441E002C0DD24D39498012E5F3F4FEE
:104EB00089012F5F3F4FD8019C919032C9F3E2CF17
:104EC000442369F0EAEBFFE084917F01BFEFEB1A26
:104ED000FB0A882321F00E940232F701F5CFDD2082
:104EE00069F0E1E0F5E084917F012FEFE21AF20A28
:104EF000882321F00E940232F701F5CFD8018D916D
:104F00008D01882309F413CB0E940232F7CF0E944F
:104F10009A766BC581E08093100480930F0465C579
:104F200083E50E947131882319F00E94C53002C0C8
:104F300060E070E08B01112702301105CCF0EBE846
:104F4000FFE084918F010F5F1F4F882321F00E94A3
:104F50000232F801F6CFE5E0F5E084918F010F5FB2
:104F60001F4F882309F441C50E940232F801F5CF92
:104F700088E40E9471318823A9F00E94C5306A3A02
:104F800071053CF06530B1E07B072CF064E071E026
:104F900002C06AEA70E0F801EE0FFF1FE553FA4F16
:104FA0007183608386E40E9471318823A9F00E9496
:104FB000C530F801EE0FFF1FE153FA4F7183608394
:104FC0006F3F710519F014F06FEF70E077FF02C0CA
:104FD00060E070E07183608382E40E947131882315
:104FE00009F403C50E94C5306530710534F0683896
:104FF00071052CF067E870E002C065E070E0000F1A
:10500000111FF801E953FA4F71836083EEC488ECF5
:1050100090E00E94A9358111E8C484E40E942831FF
:10502000882309F441C00E94F5306B017C0111E036
:1050300020E030E0A9010E946DEB811101C010E079
:1050400010934B1020E030E0A901C701B6010E9487
:105050006DEB882349F10E94F530E0915B1024E06C
:10506000E29FF0011124E95BFF4E6083718382832C
:10507000938320E030E0A9016091471070914810BF
:105080008091491090914A100E946DEB81110CC0E3
:1050900080E090E0A0EEBFE380934710909348102B
:1050A000A0934910B0934A100E9482739EC4BFE43B
:1050B000EB2EB2E0FB2E03E212E1D7018D917D01D0
:1050C0000E942831882349F00E94F5300E94E0F0C8
:1050D000F80160837183828393830C5F1F4FF2E139
:1050E00003331F0751F70E945D5E7FC40C5F1F4FA3
:1050F000F6E00F311F0709F478C4D7018D917D01C7
:105100000E942831882391F30E94F530F8016083D2
:10511000718382839383EACF83E50E947131882370
:10512000A1F00E94F5306093070670930806809303
:10513000090690930A066093030670930406809311
:1051400005069093060610E001C011E080E50E947C
:105150007131882359F00E94F530609307067093EF
:1051600008068093090690930A0610E082E50E94E3
:105170007131882359F00E94F53060930B067093CB
:105180000C0680930D0690930E0610E084E50E94B5
:105190007131882359F00E94F530609303067093B3
:1051A000040680930506909306061FC4112309F494
:1051B0001CC4409107065091080660910906709141
:1051C0000A068DE295E00E94DC5D40910B0650914D
:1051D0000C0660910D0670910E068AE295E00E9421
:1051E000DC5D4091030650910406609105067091C4
:1051F000060687E295E00E94DC5D8AE00E940232AA
:10520000F4C382E40E942831882349F0AED760932A
:10521000230670932406809325069093260683E543
:105220000E942831882349F0E0D760933B067093B1
:105230003C0680933D0690933E0684E50E9428310B
:10524000882349F0D2D7609337067093380680934D
:10525000390690933A0688E5FBD7882349F0C5D7ED
:105260006093DF057093E0058093E1059093E2057C
:1052700089E5EED7882349F0B8D76093E3057093AA
:10528000E4058093E5059093E6058AE5E1D7882358
:1052900049F0ABD76093E7057093E8058093E90583
:1052A0009093EA0585E4D4D7882309F49EC39DD75B
:1052B0006093EB057093EC058093ED059093EE05FC
:1052C00094C31F5FF4E0EF0EF11C133011F40C9443
:1052D000701FD6018D916D01BBD7882391F385D7BF
:1052E000F7016083718382839383812F55D6E9CF41
:1052F0000E94B2837AC30E94B18177C383E5F1D75C
:10530000882309F472C341D770934E0260934D0213
:105310006CC38DED90E00E94A935811166C383E5D1
:10532000E0D78823D1F100915B1010E02ED7000F59
:10533000111FF801E55BFD4F7183608380915B1065
:1053400090E08C01000F111F000F111F98012C5EBF
:105350003D4F7901880F991FFC01E55BFD4F60818E
:105360007181072E000C880B990B0E9473EB2AE0C9
:1053700037ED43E25CE30E94D2EBF801E65CFD4EC0
:1053800020813181428153810E94D2EBD7016D93FC
:105390007D938D939C93139728C3EAEBFFE0849150
:1053A0008F010F5F1F4F882321F00E940232F80106
:1053B000F6CF85E40E94023280915B10805D0E94EE
:1053C0000232E0915B10F0E0EE0FFF1FE55BFD4F56
:1053D000608171818DE395E00E94F95D85E20E9414
:1053E00002328AE00E94023200C380E531D788236E
:1053F00009F4FBC2CAD66B017C0183E572D788230E
:1054000019F0C3D68B0102C00FEF1FEFC801019640
:10541000039708F0EAC2D7FCE8C28C2DE5E4F5E07A
:105420009491891709F456C43196B5E0E237FB0729
:10543000B9F753C48AE555D7811177C483E551D7AD
:10544000811173C4D2C283E54CD7882311F09DD655
:1054500002C064E071E079A368A380E542D78823A5
:1054600031F093D66938E3E17E0730F402C068EE8C
:1054700073E07A83698304C088E893E19A8389831F
:10548000BE01605E7F4FCE0101960E9494DBADC2EB
:1054900085E427D781110EC080E5DAD6882381F014
:1054A000A4D66093BA057093BB058093BC05909316
:1054B000BD0506C07AD6882379F3EBE8FFE068C023
:1054C00089E4C6D6882379F090D62CEA35EC47E2F9
:1054D0005EE30E94D2EB6093C2057093C305809394
:1054E000C4059093C50584E4B3D6882379F07DD6AE
:1054F0002CEA35EC47E25EE30E9473F06093BE0550
:105500007093BF058093C0059093C105EAEBFFE05F
:1055100084918F010F5F1F4F882319F073D7F80113
:10552000F7CF4091BA055091BB056091BC057091D1
:10553000BD058AE795E00E94DC5D2CEA35EC47E288
:105540005EE36091C2057091C3058091C40590919E
:10555000C5050E9473F0AB01BC0186E795E00E948F
:10556000DC5D2CEA35EC47E25EE36091BE057091AC
:10557000BF058091C0059091C1050E94D2EBAB019F
:10558000BC0182E795E00E94DC5D8AE03BD72DC23A
:1055900084918F010F5F1F4F882319F033D7F801D3
:1055A000F7CFEEE7F5E084918F010F5F1F4F88235F
:1055B00009F41BC227D7F801F6CF83E549D6182F87
:1055C000882369F012D60E94DBF070931902609371
:1055D000180221E0672B09F020E02093450680E5C2
:1055E00037D6882351F02091180230911902232BCD
:1055F00009F0ECD580934506F8C11111F6C1EAEB2C
:10560000FFE084918F010F5F1F4F882319F0FAD6B6
:10561000F801F7CF80914506811103C06CE173E07A
:1056200002C064E773E085EA95E00E94125E609133
:1056300018027091190284E995E00E94F95DE0E991
:10564000F5E084918F010F5F1F4F882309F4CDC1CE
:10565000D9D6F801F6CF0E94927CC7C180E5F8D573
:10566000882349F0C2D56093BD107093BE1080931B
:10567000BF109093C01089E4EBD5882379F0B5D59D
:105680002CEA35EC47E25EE30E94D2EB6093B9105E
:105690007093BA108093BB109093BC1084E4D8D55B
:1056A000882379F0A2D52CEA35EC47E25EE30E942C
:1056B00073F06093B5107093B6108093B710909309
:1056C000B810EAEBFFE084918F010F5F1F4F882332
:1056D00019F098D6F801F7CF4091BD105091BE1047
:1056E0006091BF107091C01080EC95E00E94DC5D6D
:1056F0002CEA35EC47E25EE36091B9107091BA1084
:105700008091BB109091BC100E9473F0AB01BC0162
:105710008CEB95E00E94DC5D2CEA35EC47E25EE321
:105720006091B5107091B6108091B7109091B8103B
:105730000E94D2EBAB01BC0188EB95E00E94DC5DDE
:105740008AE060D652C183E583D5811106C03FE46B
:10575000E32E32E0F32E10E00DC010E026D5682FC6
:10576000812F0E943CB91F5F1530C1F7F0CF1F5F3A
:10577000143061F0D7018D917D016AD58823B9F38A
:1057800014D5682F812F0E943CB9F1CF82E460D5F7
:10579000882329F00AD5682F84E00E943CB90E9432
:1057A00015B823C183E59DD5882309F442C0FDD4F3
:1057B000813049F0823009F03CC09FE4E92E92E04C
:1057C000F92E10E01FC02FE4E22E22E0F22E10E0AE
:1057D000F70181917F0185D5882331F0E6D44FEF21
:1057E000682F812F0E94CDB81F5F143089F782E4A3
:1057F00078D58823F1F0D9D44FEF682F17C01F5FF9
:10580000143069F0D7018D917D016BD58823B9F3F0
:10581000CCD4482F6FEF812F0E94CDB8F0CF82E417
:1058200060D5882331F0C1D4482F6FEF84E00E9407
:10583000CDB80E9415B8D9C0EBE8FFE084918F0184
:105840000F5F1F4F882319F0DDD5F801F7CFE4EC87
:10585000F5E084918F010F5F1F4F882309F4C5C0C5
:10586000D1D5F801F6CF0E94165FBFC00E942E7CF2
:10587000BCC00E94FD7AB9C083E5EAD4882319F040
:10588000A5D491E089270E94FA76AFC02093480FF3
:105890000E94876D1092480F882309F4A6C0EAEB96
:1058A000FFE084918F010F5F1F4F882319F0AAD565
:1058B000F801F7CFE3EDF5E084918F010F5F1F4F03
:1058C000882309F492C09ED5F801F6CF1F5F1430EB
:1058D00059F0F70181917F01BBD48823B9F355D4E6
:1058E000812F0E947EB9F2CF82E4B2D4882321F0C6
:1058F0004CD484E00E947EB983E5AAD4882309F4BD
:1059000074C010E042D4812F0E947EB91F5F153011
:10591000C9F76BC083E5E5D4882319F036D48B0131
:1059200002C000E010E080E5DCD4882319F02DD41B
:10593000CB0102C080E090E0B8010E946FB955C071
:1059400081E080933A021092DE0583E5CAD4882371
:1059500031F03CD4811149C00E94D19446C083E506
:1059600077D4F8CF0E946B4F40C0F090760F0E9422
:10597000165FFF2009F1EAEBFFE084918F010F5FD2
:105980001F4F882319F03ED5F801F7CF84E53AD5AB
:105990006F2D70E080E090E04AE00E943E3580E2AA
:1059A00031D5E0EFF5E084918F010F5F1F4F882321
:1059B000E1F028D5F801F7CF10920411EAEBFFE0EF
:1059C00084918F010F5F1F4F882319F01BD5F801B9
:1059D000F7CF6091041170E08EED95E00E94F95DC3
:1059E0008AE010D502C00E946B4F1092FB0F0E94FC
:1059F000B494F6C182D40E94A093F7CF0E94165FA0
:105A000080911F0290912002A0912102B091220268
:105A100080939B0390939C03A0939D03B0939E035C
:105A200080914D0290914E0290939A038093990336
:105A300084E690E090934E0280934D0211E0109323
:105A4000100488E505D4282E89E502D4082F8AE5BC
:105A5000FFD3382E211004C0011104C0132505C046
:105A6000011102C010E001C0132D80E1EDE1F4E06E
:105A7000A5E1B0E101900D928A95E1F782E531D47C
:105A8000882309F4AEC0B1D36B017C0120E030E083
:105A9000A9010E946DEB882309F4A3C0111105C070
:105AA000211003C0002309F4ADC0C0921D10D09294
:105AB0001E10E0921F10F0922010209125043091CA
:105AC00026044091270450912804C701B6010E9482
:105AD000BDF118160CF085C02091210430912204EC
