:100000000C9476220C94A7220C94A7220C94A7227D
:100010000C94A7220C94A7220C94A7220C94A7223C
:100020000C94A7220D949B440D949B440D949B44E7
:100030000C94A7220C94A7220C94A7220C94A7221C
:100040000C94A7220C945E680C94A7220C94A7220F
:100050000C94A7220C94A7220C94E2F40D947D46F4
:100060000C94A7220C9462440C9458440C94A7223C
:100070000C94A7220C94A7220C94A7220C94A722DC
:100080000C94A7220C94A7220C94A7220C94A722CC
:100090000C944EE80C9424E80C94A7220C94A7220C
:1000A0000C94A7220C94A7220C94A7220C94A722AC
:1000B0000C94A7220C94A7220C94A7220C94A7229C
:1000C0000C94A7220C94A7220C94A7220C94A7228C
:1000D0000C94A7220C94A7220C94A7220C94A7227C
:1000E0000C94A72207450D45184523452E45394553
:1000F00044454F4583458345834583455A45A2453D
:10010000AE45BF45D045E145F245034614464B4652
:100110004B464B464B4622466A46764687469846AD
:10012000A946BA46CB46DC46134713471347134745
:10013000EA4632473B474A47554760476B47764751
:100140008047AE47AE47AE47AE478847DC47A34837
:10015000E247EC47F647004816482348A348304892
:10016000A3483E48A34846485048A348A34864488B
:100170006E48764880488A489948C248BC49CB486E
:10018000D848E548F2480B491B49BC492B49BC49B2
:100190003C49BC4947495749BC49BC496E497B4920
:1001A00086499349A049B249DB49D54AE449F14916
:1001B000FE490B4A244A344AD54A444AD54A554A4C
:1001C000D54A604A704AD54AD54A874A944A9F4AD6
:1001D000AC4AB94ACB4AF44AAC4BFA4A024B0A4BF6
:1001E000124B284B334BAC4B3E4BAC4B4A4BAC4BBE
:1001F000524B5F4BAC4BAC4B764B7E4B864B8E4B96
:10020000964BA54B0C894B878487488984878487C4
:100210008487848784878487848784878487848786
:100220008487848784878487848784878487848776
:100230008487848784878487848784878487848766
:100240004289848784878487848784878487848796
:1002500084871B89848784878487848784878487AD
:1002600084878487848784875F89818761F044F0ED
:1002700047F064F04AF04DF050F05CF053F06FF04E
:1002800056F059F07002E601AE04B80324021E03D2
:10029000D602F40108040804EA030804B80424049C
:1002A0007802E201D20464030C0428022602B2049C
:1002B00008037A037A0304047A03FE0392045003CA
:1002C0000004B8025404160306025E049602680491
:1002D000CE04CE045C03CE0402034E04F8010802EF
:1002E0004002E0024A031C034603F6037C043A0280
:1002F0003A02D4013A02EC03A2021204BA04220424
:1003000072027603F60118030604C4023802780468
:100310006802D4028A03600318034404BA02540337
:100320008E040403C404A60382036203A2041A0415
:10033000C0027404EE0390033C045C026203BE043A
:1003400086030204084AD73B3BCE016E84BCBFFD46
:10035000C12F3D6C74319ABD56833DDA3D00C77F95
:1003600011BED9E4BB4C3E916BAAAABE000000802E
:100370003F05A84CCDB2D44EB93836A9020C50B9BD
:10038000918688083CA6AAAA2ABE000000803F00E9
:100390000C9464480C9468980C9459FE0C94444A4C
:1003A0000C94F1490C9458C50D94F5380C944F45B4
:1003B0000C94524B0D94900D0C9443BE0C949948A0
:1003C0000C94FDED0D94F3370C9450480D94913737
:1003D0000C948F990C94D3ED0C94334B0D941C47D3
:1003E0000C94CB480C944A470D94B7370D94A8430E
:1003F0000D949E380C9406990C94229C0C94804782
:100400000D94183B0C94AC4A0C94E0860D947A3809
:100410000D94C2380C943A9C0C9444F00C94A5C0F2
:100420000C94BF450D948E3B0C94D54A0C947BB82C
:100430000C946FF00C9452AE0C9493BA0C94DB496C
:100440000C940B4A0C94EDC10D94AA370D941438FA
:100450000D9412380D94CC3B0C9415BB0C9403EC0A
:100460000C9457730C94B5E70C94E6970C9429E917
:100470000D94BD430D940A390C94EC470D9416402D
:100480000D94C8380C9456C50C9455470C946A4684
:100490000C94A3C00C94554A0C94DFED0C946CB8EA
:1004A0000C94DDAD0C94E7ED0C9444450C94A946F6
:1004B0000C9416480C947B490D9406460C9454C534
:1004C0000C946E480C94E1860C94A7C00C948A4856
:1004D0000D94C5430C94124B0C94289C0C94184515
:1004E0000D948B370D949E430C94CB4A0C944B8700
:1004F0000D94CE370C94ABC00C9453F00C949178BF
:100500000C9495B80C9430480C941C9C0C94B7E94E
:100510000C943AFD0C940D450C9476480C9461F0C3
:100520000C94C2480C94964B0C94F6470D94823868
:100530000C9464F00C944AF00D941B400C94AF8919
:100540000C9461FE0D9400390C9440990C944B4628
:100550000C94BCAD0C9422460C94F7ED0C94777877
:100560000C942E450D948D0D0C943B470C9450F03B
:100570000D9461380D94DD430D94723B0D94730D11
:100580000D94CF450C94FE9B0D94B7430C94E486D8
:100590000C9423450C94109C0C9400480C944EE74A
:1005A0000C94A3480C945F4B0D94CB430D94B2373D
:1005B0000C94869C0C945CF00C94604A0C949BB850
:1005C0000D94CD380C949E980C9499BC0C94E449ED
:1005D0000C943C490C9476460C94F2480C94DBED58
:1005E0000C9451FE0C9400EE0C9432760C94B6BA36
:1005F0000C9498BA0C9460470C9487460C944889E4
:100600000C940A4B0D9493380D949C450C943B78B4
:100610000D941F380C943E480D94B3100C94EBEDE0
:100620000C944DF00C94AC980C9442890D94743851
:100630000D94E6430C94CDEE0D94E1380D94AC3757
:100640000C94A7B80C9498460C9447490C947E4B94
:100650000C9441FE0C94D0450C94AE450C94BA46D3
:100660000C94E2470D9430130C9432470D942940BA
:100670000C94D8480C9476470C942DFF0C9449FEAA
:100680000C94A0490C9486490C94BC490D94E33811
:100690000C94A1B80D94DB380C9467FE0D94500DAA
:1006A0000D9436380C94E59D0D94E1430C948487A9
:1006B0000C94E3ED0C94864B0D948E380D94F93A1E
:1006C0000D94D3430D942E460D94FE370D94720F66
:1006D0000C945D780C946E490C94944A0C94024BE3
:1006E0000C9444FD0C9459F00C94D9780D94A243C9
:1006F0000D94780D0D943B380C94E2980C94C299AB
:100700000C94D7ED0D94B5450D94D8130D941A465D
:100710000C94F0FF0D94CF430C94244A0C9402E8FF
:100720000D94ED450D947D0D0C949DBA0C9483456C
:100730000C943FFD0D94F4100C94F89B0D943340F1
:100740000D94AE010C949BE70C9450C50D94AB45F1
:100750000C9423480C94C6990C94344A0D94293C6B
:100760000C9439450C94FE490C9410980C94CFEDE0
:100770000D94A4370C94FA4A0C942A730C94669F37
:100780000C94764B0C94E1450C9456F00C94C5985F
:100790000C94AE470C941BBB0C940C890C94E3B8DE
:1007A0000D94503B0C9488990C94EFED0C94049CA0
:1007B0000C94169C0C94284B0C949F4A0C942498EF
:1007C0000C945B7B0C94AC4B0D949B0E0D94B91068
:1007D0000C94349C0D94BE370D94FA380D94E34577
:1007E0000C945A450C9438980C9446480D94E9386A
:1007F0000D9420400D943A470C9498EA0D942B38B0
:100800000D945B380D9424460D9426380D94B34313
:100810000D94D3370C94FC970D940C380C9487E707
:100820000C94CCBB0D9405390C94A2450C9474998E
:100830000D94013B0D94C7450C94F44A0C94DF9A37
:100840000C9403460D94AF430D94C9370C9457494B
:100850000C9414460C94EA460C940A9C0C945A98F6
:100860000C94F2450C94BF980C940DBB0C942F760D
:100870000C9464670C947C980D94FC450C94DC47B4
:100880000C941B490C946AFE0D94D9430C944C981B
:100890000C9493490C9490980C9447F00D949938CB
:1008A0000C94FAED0C94B94A0D9466380C942DB85A
:1008B0000D942E3B0C942C760C940B490D947C38A3
:1008C0000C94704A0C94599C0C94C2980C942B492B
:1008D0000D9487380C9480480C94A54B0C941B897C
:1008E0000C9484E80C946B470D94D9450C941347F1
:1008F0000D94C1430C94B1C30D94EE380C948EBA90
:100900000C94874A0C94B2490C94907E0C948847BE
:100910000C94CB460C9407450C944A4B0D94974588
:100920000C94DC460D9431380C9476B80C94CEF0CF
:100930000C942E9C0C9481990C94C2F00C9478E742
:100940000D94B43A0D94BF450C945D990C9404BB7E
:100950000C94747B0D9401140C94F3ED0D94963764
:100960000C948E4B0D941A380C94E5480C94A9C045
:100970000D94C3370D94AC430C9423990D941046F9
:100980000C9446780C9481870D94A1450C94A2791F
:100990000C9471B80C943E4B0C9452C50D94A33832
:1009A0000C945F890D94F9374E414E494E49545984
:1009B000494E46CDCCCC3D0AD7233C17B7D138772A
:1009C000CC2B329595E6241FB14F0A000020410040
:1009D00000C84200401C4620BCBE4CCA1B0E5AAE8A
:1009E000C59D7400407A10F35A00A0724E18090099
:1009F00010A5D4E80000E87648170000E40B540284
:100A00000000CA9A3B000000E1F5050000809698BE
:100A100000000040420F000000A08601000000100E
:100A20002700000000E80300000000640000000050
:100A3000000A00000000000100000000002C76D831
:100A400088DC674F0823DFC1DFAE59E1B1B796E517
:100A5000E3E453C63AE651997696E8E6C28426EB7B
:100A6000898C9B62ED407C6FFCEFBC9C9F40F2BA8E
:100A7000A56FA5F490055A2AF75C936B6CF9676D26
:100A8000C11BFCE0E40D47FEF520E6B500D0ED907B
:100A90002E0300943577050080841E080000204E48
:100AA0000A000000C80C333333330F986E128311E1
:100AB00041EF8D2114893BE65516CFFEE6DB18D1B8
:100AC000844B381BF77C1D901DA4BBE4242032848A
:100AD000725E228100C9F124ECA1E53D27434F4D10
:100AE0004D554E49434154494F4E00445259525579
:100AF0004E004552524F525300494E464F00454317
:100B0000484F0047322F4733206261642070617282
:100B1000616D65746572730A00536C6565702E2E85
:100B20002E004D65736820706F696E742063616E6E
:100B30006E6F74206265207265736F6C7665640AEF
:100B400000436C69636B20746F20526573756D652B
:100B50002E2E2E004E6F204D6F76652E00456E6452
:100B60002066696C65206C6973740A004265676968
:100B70006E2066696C65206C6973740A00286E6F5C
:100B80002066696C65290043757272656E74206613
:100B9000696C653A20005344207072696E74696E06
:100BA00067206279746520004E6F74205344207072
:100BB00072696E74696E670A005072696E7420748F
:100BC000696D653A20000A53746174733A2046696E
:100BD0006C616D656E7420757365643A20002C201D
:100BE0004C6F6E67657374206A6F623A2000546FB1
:100BF00074616C2074696D653A20002C204661692F
:100C00006C65643A20002C2046696E6973686564DF
:100C10003A20005072696E74733A20005374617404
:100C2000733A200045202553006F66660044454214
:100C300055473A004D3131322053687574646F77EF
:100C40006E004D31313320530042656420436F6F95
:100C50006C696E672E2E2E004265642048656174B3
:100C6000696E672E2E2E005468696E6B6572205671
:100C7000325F32323039204F46462E004348414DD4
:100C80004245525F54454D504552415455524500DE
:100C90004D4F54494F4E5F4D4F44455300544845C6
:100CA000524D414C5F50524F54454354494F4E00B2
:100CB0004155544F5245504F52545F53445F535423
:100CC000415455530050524F4D50545F535550505E
:100CD0004F525400454D455247454E43595F504190
:100CE0005253455200434153455F4C494748545F76
:100CF0004252494748544E45535300544F47474C7E
:100D0000455F4C494748545300534F46545741524E
:100D1000455F504F574552004255494C445F50453E
:100D20005243454E54004C4556454C494E475F444E
:100D3000415441005A5F50524F4245004155544F73
:100D40004C4556454C005052494E545F4A4F420064
:100D500050524F4752455353004155544F524550FE
:100D60004F52545F54454D5000564F4C554D4554CD
:100D70005249430042494E4152595F46494C455FF2
:100D80005452414E534645520053455249414C5FDF
:100D9000584F4E5F584F4646004649524D574152B4
:100DA000455F4E414D453A4D61726C696E20322E61
:100DB000302E7820284769744875622920534F5592
:100DC0005243455F434F44455F55524C3A687474F3
:100DD00070733A2F2F6769746875622E636F6D2F79
:100DE0004D61726C696E4669726D776172652F4DE7
:100DF00061726C696E2050524F544F434F4C5F5696
:100E0000455253494F4E3A312E30204D41434849C7
:100E10004E455F545950453A5468696E6B6572206F
:100E200056325F323230392045585452554445527B
:100E30005F434F554E543A3120555549443A636506
:100E40006465326132662D343161322D3437343885
:100E50002D396231322D633535633632663336379C
:100E600066660A002F2F20004D31343520533C692F
:100E70006E6465783E206F7574206F662072616EB7
:100E800067652028302D31290A00416363656C6550
:100E9000726174696F6E3A20500020466C6F773A29
:100EA000200050726F7465637465642050696E0A27
:100EB000004D424C2041646A757374205A002069C9
:100EC0003A006469730043290A0061626C6564201A
:100ED000286D696E2074656D702000436F6C64200E
:100EE00065787472756465732061726520004F6661
:100EF0006673657473204170706C69656400457237
:100F0000723A20546F6F206661722100546F6F2017
:100F10006661722066726F6D207265666572656EBD
:100F2000636520706F696E740A00454550524F4DDD
:100F3000204F4B0A002074656D7065726174757284
:100F400065207072657761726E207472696767657B
:100F50007265643A200020686F6D696E6720736562
:100F60006E73697469766974793A2000496E7661A6
:100F70006C69640A0056616C69640A004E6F205007
:100F80004C520A00504C52204578697374730A0021
:100F9000506F7765722D6C6F7373207265636F7617
:100FA0006572792000FE0AF90AF20AEB0ADD0A45A9
:100FB00072726F722077726974696E6720746F2025
:100FC000454550524F4D210A00627573793A2070A1
:100FD000617573656420666F7220696E7075740A3E
:100FE00000627573793A2070617573656420666F6D
:100FF0007220757365720A00627573793A20707297
:101000006F63657373696E670A0053544F505045A0
:10101000442E20005072696E7465722073746F7074
:101020007065642064756520746F206572726F72DC
:10103000732E2046697820746865206572726F721D
:1010400020616E6420757365204D39393920746FC5
:1010500020726573746172742E202854656D7065FA
:101060007261747572652069732072657365742E80
:1010700020536574206974206166746572207265FE
:101080007374617274696E67290A004E6F20436839
:1010900065636B73756D2077697468206C696E6524
:1010A000206E756D6265722C204C617374204C69E2
:1010B0006E653A2000636865636B73756D206D69BA
:1010C000736D617463682C204C617374204C696E7D
:1010D000653A20004C696E65204E756D6265722020
:1010E0006973206E6F74204C617374204C696E6557
:1010F000204E756D6265722B312C204C617374200B
:101100004C696E653A20004D313130004D31313738
:10111000004D333100534420726561642065727262
:101120006F720A00446F6E65207072696E74696E2A
:10113000672066696C650A002063757272656E745B
:101140002064656372656173656420746F20006D4F
:1011500041290A0020647269766572206F76657293
:1011600074656D7065726174757265207761726EF9
:10117000696E67212028004B494C4C2063617573D0
:101180006564206279204B494C4C20627574746F01
:101190006E2F70696E0A004B494C4C206361757369
:1011A000656420627920746F6F206D7563682069B3
:1011B0006E6163746976652074696D65202D2063A6
:1011C000757272656E7420636F6D6D616E643A2026
:1011D0000025301D0C282924311C0B4527232F1BEB
:1011E0000A4443212A193F40222B1A41420338095D
:1011F00006360308020600012D2D2D0A00494E5621
:10120000414C494420444154410A007072696E7453
:101210005F6A6F625F656C61707365643A2000732A
:1012200064706F733A200073645F66696C656E6109
:101230006D653A20000A20666164653A20006C659D
:1012400076656C696E673A200066616E5F737065E3
:1012500065643A20007461726765745F74656D70CF
:10126000657261747572655F6265643A20007461CD
:10127000726765745F74656D7065726174757265AF
:101280003A200066656564726174653A2000706F8B
:10129000736974696F6E5F73686966743A20006879
:1012A0006F6D655F6F66667365743A200063757273
:1012B00072656E745F706F736974696F6E3A200047
:1012C0002076616C69645F666F6F743A00204A6FC4
:1012D00062205265636F7665727920496E666F2E63
:1012E0002E2E0A76616C69645F686561643A002538
:1012F00068753A2530326875002568756420253098
:101300003268753A253032687500447269766572C4
:10131000206572726F7200636F696C2073686F7200
:101320007420636972637569740A006F76657274FC
:10133000656D70657261747572650A00206472690A
:10134000766572206572726F72206465746563746D
:1013500065643A203078006D6178002F33310009E0
:101360002042616420726573706F6E73652100475F
:1013700032362048656174696E67204E6F7A7A6CE8
:1013800065004732362048656174696E67204265A2
:10139000640057616974696E6720666F72206865C2
:1013A000617475702E0A004669786564204C656E1C
:1013B000677468205072696D6500446F6E652050D7
:1013C00072696D696E67004D616E75616C20707237
:1013D000696D696E672E2E2E004732362043616E8E
:1013E00063656C6564004C656176696E67204732A1
:1013F00036003F53706563696669656420582C59EF
:1014000020636F6F7264696E617465206F757420FC
:101410006F6620626F756E64732E0A003F28522932
:1014200065706561742076616C7565206E6F7420DF
:10143000706C61757369626C653B206D75737420A7
:101440006265206174206C6561737420312E0A001E
:101450003F537065636966696564206E6F7A7A6C64
:10146000652074656D7065726174757265206E6F4C
:101470007420706C61757369626C652E0A003F534D
:1014800070656369666965642066696C616D656E27
:10149000742073697A65206E6F7420706C61757347
:1014A00069626C652E0A003F537065636966696501
:1014B00064207072696D65206C656E677468206E5B
:1014C0006F7420706C61757369626C652E0A003FE1
:1014D000537065636966696564206E6F7A7A6C65BE
:1014E0002073697A65206E6F7420706C6175736902
:1014F000626C652E0A003F52657472616374696F95
:101500006E204D756C7469706C696572206D7573B1
:1015100074206265207370656369666965642E0A6C
:10152000003F537065636966696564205265747233
:10153000616374696F6E204D756C7469706C696558
:1015400072206E6F7420706C61757369626C652EA9
:101550000A003F537065636966696564206C617950
:10156000657220686569676874206E6F7420706C9E
:1015700061757369626C652E0A0043292E0A003F6B
:10158000537065636966696564206265642074658B
:101590006D7065726174757265206E6F7420706C09
:1015A00061757369626C65202834302D00473236CE
:1015B000207374617274696E672E2E2E0A00206289
:1015C000797465733B2063726320004E6F2045453C
:1015D00050524F4D2E0A00205400205200454550D5
:1015E000524F4D206461746173697A65206572722F
:1015F0006F722E0A002073746F72656420736574B5
:1016000074696E67732072657472696576656420AB
:101610002800202863616C63756C617465642921FE
:101620000A0020213D2000454550524F4D20435295
:1016300043206D69736D61746368202D2028737475
:101640006F726564292000496E6465783A20002035
:101650004D61726C696E3D563734290A004545501C
:10166000524F4D2076657273696F6E206D69736D90
:10167000617463682028454550524F4D3D004861D4
:101680007264636F6465642044656661756C742080
:1016900053657474696E6773204C6F616465640A86
:1016A0000020204D3930360020204D3931340020C3
:1016B000204D3536392053310020204D363033202F
:1016C0000020550046696C616D656E74206C6F6119
:1016D000642F756E6C6F6164206C656E67746873DF
:1016E0003A0A004472697665722073746570706995
:1016F0006E67206D6F64653A0A005374616C6C47C5
:1017000075617264207468726573686F6C643A0AFC
:101710000020543020450053746570706572206459
:1017200072697665722063757272656E743A0A002A
:1017300020204D343133205300506F7765722D4C8B
:101740006F7373205265636F766572793A0A002071
:10175000490020204D33303120500050494420733F
:10176000657474696E67733A0A0020460020480069
:1017700020204D3134352053004D6174657269610C
:101780006C2068656174757020706172616D65743C
:101790006572733A0A0020204732392053332058AB
:1017A0000020204D3432302053004D6573682042B4
:1017B0006564204C6576656C696E673A0A00202086
:1017C0004D323036205800486F6D65206F66667365
:1017D00065743A0A0020204D323035204200204501
:1017E0003C6D61785F655F6A65726B3E0020583CB6
:1017F0006D61785F785F6A65726B3E20593C6D6100
:10180000785F795F6A65726B3E205A3C6D61785FE4
:101810007A5F6A65726B3E00416476616E636564EF
:101820003A20423C6D696E5F7365676D656E745FEB
:1018300074696D655F75733E20533C6D696E5F66BC
:10184000656564726174653E20543C6D696E5F74B9
:10185000726176656C5F66656564726174653E0091
:1018600020204D323034205000416363656C657236
:101870006174696F6E2028756E6974732F733229D5
:101880003A20503C7072696E745F616363656C3EB0
:1018900020523C726574726163745F616363656C4E
:1018A0003E20543C74726176656C5F616363656C65
:1018B0003E0A0020204D3230312058004D617869B9
:1018C0006D756D20416363656C65726174696F6EDF
:1018D0002028756E6974732F7332293A0A0020200C
:1018E0004D3230332058004D6178696D756D20663A
:1018F00065656472617465732028756E6974732FF1
:1019000073293A0A005374657073207065722075EC
:101910006E69743A0A0020204D3230302044300A7B
:101920000020204D32303020440020446973616231
:101930006C65640A0046696C616D656E7420736540
:101940007474696E67733A0020204D313439204336
:10195000203B20556E69747320696E2043656C735B
:101960006975730A0020286D6D29002020473231E7
:10197000202020203B20556E69747320696E206DF5
:101980006D00000096430000964300000C420000EA
:10199000C8410000A0420000A0420000C84300006F
:1019A000BA42DC050000DC05000096000000DC0502
:1019B000000024F4D43050C38E20C2A24017828B82
:1019C0007011127A910D816CD90AA861E108C7588B
:1019D0006607615143061E4B5D05C145A7041A41C8
:1019E0001104093D9803713931034036DB02653338
:1019F0009102D4305402802E1D02632CEE01752A10
:101A0000C501B028A001102781018F2564012B2476
:101A10004B01E0223401AC211F018D200D01801FFC
:101A2000FC00841EED00971DDF00B81CD200E61BF1
:101A3000C600201BBC00641AB200B219A8000A1923
:101A4000A0006A189900D117910040178B00B516B5
:101A5000840031167E00B31579003A157300C7145F
:101A60006F0058146A00EE13660088136300251394
:101A70005E00C7125B006C12570015125400C111B2
:101A8000510070114F0021114B00D61049008D10EC
:101A900047004610440002104200C00F4000800F73
:101AA0003E00420F3C00060F3B00CB0E3800930E69
:101AB00037005C0E3500270E3400F30D3200C10DE7
:101AC0003100900D3000600D2E00320D2D00050DFF
:101AD0002C00D90C2B00AE0C2900850C29005C0CC5
:101AE0002700350C27000E0C2600E80B2400C40B41
:101AF0002400A00B23007D0B23005A0B2100390B7F
:101B00002100180B2000F80A1F00D90A1E00BB0A8A
:101B10001E009D0A1D00800A1D00630A1C00470A62
:101B20001B002C0A1B00110A1A00F7091A00DD0914
:101B30001900C4091900AB091900920917007B09A3
:101B40001800630917004C09160036091600200911
:101B500016000A091500F5081500E0081400CC0865
:101B60001400B8081400A4081400900813007D089D
:101B700012006B08130058081200460812003408BF
:101B80001100230811001208110001081100F007CC
:101B90001000E0071000D0071000C0071000B007C9
:101BA0000F00A107100091070E0083070F007407B4
:101BB0000F0065070E0057070E0049070E003B0790
:101BC0000D002E070E0020070D0013070D0006075D
:101BD0000D00F9060C00ED060D00E0060C00D40621
:101BE0000C00C8060C00BC060C00B0060C00A406D5
:101BF0000B0099060C008D060B0082060B00770681
:101C00000B006C060B0061060A0057060B004C0621
:101C10000A0042060A0038060A002E060A002406B8
:101C20000A001A060A001006090007060A00FD0548
:101C30000900F4050900EB050900E2050900D905D2
:101C40000900D0050900C7050900BE050900B50552
:101C50000800AD050800A50509009C0508009405CD
:101C600008008C050800840508007C050800740540
:101C700008006C050700650508005D0507005605AE
:101C800008004E0507004705070040050800380515
:101C90000700310507002A050700230507001C057A
:101CA0000600160507000F050700080506000205D7
:101CB0000700FB040600F5040700EE040600E80434
:101CC0000600E2040700DB040600D5040600CF048A
:101CD0000600C9040600C3040600BD040600B704DC
:101CE0000600B1040500AC040600A6040600A0042A
:101CF00005009B04060095040500900406008A0474
:101D0000050085040500800406007A0405007504BA
:101D10000500700405006B040500660405006104FD
:101D200005005C04050057040500520405004D043D
:101D3000050048040500430405003E0404003A047D
:101D4000050035040500300404002C0405002704B8
:101D50000400230405001E0404001A0404001604F1
:101D60000500110404000D04040009040500040426
:101D7000040000040400FC030400F8030400F4035E
:101D80000400F0030400EC030400E8030400E4038F
:101D90000400E0030400DC030400D8030400D403BF
:101DA0000400D0030400CC030400C8030300C503EF
:101DB000030024F404D9201BC40C5C0E9804C4094D
:101DC0005F0265077101F405F900FB04B3004804E4
:101DD0008700C10369005803550003034500BE0294
:101DE0003A008402310053022A002902250004022D
:101DF0002000E4011C00C8011900AF011700980180
:101E000014008401130071011000610110005101E0
:101E10000E0043010D0036010B002B010B002001C9
:101E20000B00150109000C01090003010800FB006B
:101E30000800F3000800EB000700E4000600DE00E5
:101E40000600D8000600D2000600CC000500C7003E
:101E50000500C2000500BD000400B9000400B50083
:101E60000400B1000400AD000400A9000400A500B6
:101E70000300A20003009F0004009B0003009800E1
:101E800003009500020093000300900003008D0002
:101E900002008B000300880002008600020084001C
:101EA0000300810002007F0002007D0002007B0031
:101EB0000200790002007700010076000200740041
:101EC000020072000100710002006F0002006D004C
:101ED00001006C0002006A00010069000200670056
:101EE000010066000100650001006400020062005C
:101EF000010061000100600001005F0002005D0060
:101F000001005C0001005B0001005A000100590063
:101F10000100580001005700010056000100550063
:101F20000100540001005300000053000100520062
:101F3000010051000100500001004F0001004E005F
:101F400000004E0001004D0001004C0001004B005C
:101F500000004B0001004A00010049000100480058
:101F60000000480001004700010046000000460054
:101F7000010045000000450001004400010043004D
:101F80000000430001004200000042000100410047
:101F9000000041000100400001003F0000003F0040
:101FA00001003E0000003E0001003D0000003D0039
:101FB00001003C0000003C0000003C0001003B0030
:101FC00000003B0001003A0000003A000100390027
:101FD000000039000100380000003800000038001F
:101FE0000100370000003700010036000000360015
:101FF000000036000100350000003500000035000B
:1020000001003400000034000000340001003300FF
:1020100000003300000033000100320000003200F5
:1020200000003200010031000000310000003100EA
:1020300001003000000030000000300001002F00DF
:1020400000002F0000002F0000002F0001002E00D4
:1020500000002E0000002E0001002D0000002D00C9
:1020600000002D0000002D0001002C0000002C00BD
:1020700000002C0000002C0001002B0000002B00B1
:1020800000002B0000002B0001002A0000002A00A5
:1020900000002A0000002A00010029000000290099
:1020A000000029000000290000002900010028008C
:1020B0000000280000002800000028000000280080
:1020C0000100270000002700000027000000270073
:1020D0000000270001002600000026000000260066
:1020E0000000260000002600010025000000250059
:1020F000000025000000250000002500000025004C
:10210000010024000000240000002400000024003E
:102110000000240001002300000023000000230031
:102120000000230000002300000023000000230023
:102130000100220000002200000022000000220016
:102140000000220000002200010021000000210008
:1021500000002100000021000000210000002100FB
:1021600000002100010020000000200000002000ED
:1021700000002000000020000000200000002000DF
:102180000000200001001F0000001F0000001F00D1
:1021900000001F0000001F0000001F0000001F00C3
:1021A00001001E0000001E0000001E0000001E00B6
:1021B0000000043700001E290000511B00005810C9
:1021C000000010090000CC0400007802000041016A
:1021D0000000416476616E636564205365747469C0
:1021E0006E677300496E6974004D34323800496E71
:1021F000697469616C697A6520454550524F4D009C
:1022000053746570732F6D6D00416363656C657207
:102210006174696F6E0056656C6F63697479005301
:10222000657420486F6D65204F6666736574730032
:102230004C6576656C696E6720446F6E6521004E53
:1022400065787420506F696E74002569202F2025F1
:10225000750047323920533100436C69636B207439
:102260006F20426567696E00486F6D696E67205820
:10227000595A0053746F72652053657474696E67A0
:1022800073004C6F61642053657474696E677300EA
:102290004661646520486569676874004C657665C9
:1022A0006C204265640046616E2053706565640071
:1022B000526573746F7265206661696C73616665DF
:1022C00000507265686561742041425320436F6E0F
:1022D00066005072656865617420504C4120436F00
:1022E0006E66002020202020202000256C642563BD
:1022F0006D004D656469612052656D6F766564009F
:102300004D6564696120496E736572746564001F70
:10231000E02010201020101020102020102010305D
:10232000300840048003001FE03FF03FF03FF01F03
:10233000E01FE03FF03FF03FF00FC0078003003F99
:10234000FFF038007030FC3020FC10207810203076
:10235000102C00D02E31D02F7BD02F7BD02E31D01F
:102360002C00D020301020781020FC1030FC3038A9
:1023700000703FFFF03FFFF0380070318630238758
:10238000102787902F87D02F03D02030102078106F
:102390002078102030102F03D02F87D0278790234C
:1023A00087103186303800703FFFF01FFFF81FFFA5
:1023B000F804104002082002082004104008208081
:1023C0001041001041000820800410400000001F50
:1023D000FFF81FFFF84572723A2075746638206660
:1023E0006F6E74206E6F7420696E697469616C69B8
:1023F0007A65642E00000C0D00FE07022603BC0166
:102400007FFE08FE08FE05080806000040F0C888A8
:1024100088987810050808060000C0F88888888821
:1024200088F80505050600012030F8302005080869
:102430000600002070F820202020E0050909060091
:10244000FF2070A8A8B8888870200506060600013D
:10245000E08CEA8C8A0A0509090600FFF8A888883A
:10246000888888A8F8050A0A0600FE2050505050B7
:1024700088A8A8887003030306000340A040FFFF5C
:10248000FFFFFFFFFFFFFFFFFFFFFFFFFFFFFFFF5C
:10249000FFFFFFFF0000000605FF0107070602001F
:1024A00080808080800080030303060105A0A0A037
:1024B00005060606000050F85050F85005090906B8
:1024C00000FF2070A8A07028A8702005070706004C
:1024D00000C8C8102040989805070706000040A0D3
:1024E000A040A890680103030602058080800309CC
:1024F000090601FF204040808080404020030909F8
:102500000601FF804040202020404080050707064C
:10251000000020A8702070A82005050506000120F5
:1025200020F820200203030601FFC04080050101BE
:10253000060003F8020202060100C0C005070706F4
:1025400000000810102040408005070706000070BA
:102550008898A8C8887003070706010040C040405B
:102560004040E0050707060000708808102040F88A
:10257000050707060000F8081030088870050707EF
:1025800006000010305090F81010050707060000F4
:10259000F880F008088870050707060000304080C2
:1025A000F0888870050707060000F8081010202042
:1025B0002005070706000070888870888870050766
:1025C000070600007088887808106002050506017B
:1025D00000C0C000C0C00206060601FFC0C000C0A7
:1025E00040800305050601012040804020050303CB
:1025F000060002F800F803050506010180402040AE
:1026000080050707060000708810202000200507BD
:10261000070600007088B8A8B88070050707060094
:1026200000708888F8888888050707060000F04849
:1026300048704848F00507070600007088808080D1
:102640008870050707060000F04848484848F0052C
:102650000707060000F88080F08080F8050707066D
:102660000000F88080F08080800507070600007079
:10267000888080988870050707060000888888F899
:10268000888888030707060100E04040404040E09A
:1026900005070706000038101010109060050707A6
:1026A0000600008890A0C0A09088050707060000DB
:1026B000808080808080F805070706000088D8A801
:1026C000888888880507070600008888C8A8988831
:1026D00088050707060000708888888888700507C5
:1026E00007060000F08888F0808080050707060054
:1026F0000070888888A89068050707060000F088A1
:1027000088F0A09088050707060000708880700890
:102710008870050707060000F820202020202005EB
:1027200007070600008888888888887005070706DC
:102730000000888888885050200507070600008818
:10274000888888A8A85005070706000088885020B8
:102750005088880507070600008888502020202020
:10276000050707060000F80810204080F803090953
:102770000601FFE080808080808080E005070706FA
:102780000000804040201010080309090601FFE006
:1027900020202020202020E00503030600052050F3
:1027A000880501010600FEF80303030601058040C9
:1027B00020050505060000700878887805070706DB
:1027C00000008080F0888888F0050505060000700C
:1027D00080808870050707060000080878888888C8
:1027E000780505050600007088F08070050707066B
:1027F0000000304840E04040400507070600FE70FA
:102800008888887808700507070600008080F088AF
:102810008888880307070601004000C0404040E068
:102820000409090601FE1000301010101090600518
:10283000070706000080808890E09088030707065D
:102840000100C04040404040E0050505060000D0C2
:10285000A8A8A8A8050505060000B0C888888805AE
:10286000050506000070888888700507070600FEC9
:10287000F0888888F080800507070600FE78888841
:1028800088780808050505060000B0C88080800526
:10289000050506000078807008F0050707060000AF
:1028A0002020F820202018050505060000888888CB
:1028B00098680505050600008888885020050505EC
:1028C0000600008888A8A850050505060000885065
:1028D0002050880507070600FE8888885020408021
:1028E000050505060000F8102040F8030909060157
:1028F000FF2040404080404040200109090602FF7F
:102900008080808080808080800309090601FF80AC
:10291000404040204040408005030306000248A894
:1029200090FF496E76616C69642065787472756495
:1029300065720A007C3C3E5E2B3D3F2F5B5D3B2C6D
:102940002A225C004C6F6164206D6D00556E6C6FC7
:102950006164206D6D0046696C2E204469612E0013
:102960004520696E206D6DC2B3002008204661636A
:1029700074002008204D6178002008204D696E0009
:102980004175746F74656D70005072696E7420507B
:102990006175736564005061757365205072696E6E
:1029A00074005468696E6B65722056325F32323043
:1029B000392052656164792E005072696E74696EB7
:1029C000672E2E2E005072696E742041626F7274F1
:1029D0006564004D323520500A4D32340053657421
:1029E00074696E67732053746F72656420280000E9
:1029F00000964300009B430000C843737465616CFC
:102A0000746843686F70004D32342053256C642025
:102A100054256C64004739322E3920452573004710
:102A20003120462564004739322E39205A2573005B
:102A30004731205A30204632303000473120582567
:102A40007320592573204633303030004D343230F6
:102A500020532569205A2573004D313036205025EA
:102A60006920532569004739322E392045305A30C4
:102A70000A47315A320A47323852305859004D31DC
:102A8000303920532569004D3139302053256900F4
:102A90004D32303020442573004D343230205330D5
:102AA000205A300020506F7765722D4C6F73732061
:102AB0005265636F7665727920446174610A0049DA
:102AC0006E76616C6964004E6F00617869733A706C
:102AD000776D5F7363616C652F637572725F73638B
:102AE000616C652F6D6563685F6C6F61647C666C9B
:102AF0006167737C7761726E636F756E740A0044F0
:102B000052565F535441545553090050574D5F532B
:102B100043414C45090050574D434F4E4609004331
:102B20004F4F4C434F4E46090043484F50434F4E82
:102B3000460900544849474809090054434F4F4C3F
:102B40005448525309005450574D544852530900A9
:102B5000545354455009090054504F574552444F5F
:102B6000574E0900494F494E0909004753544154F3
:102B700009090049484F4C445F4952554E090047E6
:102B8000434F4E460909007370726561644379636F
:102B90006C650020647269766572206D6F64653AB9
:102BA0000900206472697665722063757272656EC1
:102BB000743A2000207072657761726E20666C61D5
:102BC0006720636C65617265640A0020496E7661F6
:102BD0006C696420657874727564657220004F7545
:102BE00074616765205265636F7665727900436F23
:102BF0006E66696775726174696F6E003F0043614C
:102C00006E63656C004D6F74696F6E004D313030CE
:102C1000300053746F70205072696E740052657387
:102C2000756D65205072696E740053746F70004D3D
:102C30003231004368616E6765204D6564696100EB
:102C400041626F7574205072696E746572004E6FC8
:102C5000204D656469610054756E6500496E666F4C
:102C60002053637265656E005374617274205072F4
:102C7000696E740043616E6E6F7420656E74657268
:102C8000207375626469723A2000022E2E00565439
:102C9000726176204D696E00566D696E00566D61E9
:102CA00078204500566D6178205A00566D61782075
:102CB0005900566D6178205800416D6178204500BB
:102CC000416D6178205A00416D6178205900416D55
:102CD0006178205800412D54726176656C00412D59
:102CE0005265747261637400416363656C0056657C
:102CF0002D4A65726B00565A2D4A65726B00565903
:102D00002D4A65726B0056582D4A65726B004573EB
:102D1000746570732F6D6D005A73746570732F6DC9
:102D20006D005973746570732F6D6D005873746501
:102D300070732F6D6D006F70656E206661696C65D4
:102D4000642C2046696C653A20004D6F7665205AE8
:102D5000005072696E742066726F6D204D656469F3
:102D600061004D6F76652025736D6D004D6F766542
:102D700020302E316D6D004D6F766520316D6D0008
:102D80004D6F76652031306D6D004D6F7665204159
:102D900078697300486F74656E6420746F6F206388
:102DA0006F6C64004578747275646572004D6F765F
:102DB000652059004D6F76652058004368616E6745
:102DC000652046696C616D656E7400556E6C6F614F
:102DD000642046696C616D656E74004C6F6164209F
:102DE00046696C616D656E740050726568656174EA
:102DF00020414253005072656865617420504C4117
:102E0000005072656865617420437573746F6D005E
:102E10004261636B00486F6D6520257325732573D0
:102E200020466972737400496E7365727420666916
:102E30006C616D656E7420616E6420707265737371
:102E400020627574746F6E0A0020746F6F206C6F4F
:102E50006E6720657874727573696F6E2070726525
:102E600076656E7465640A0020636F6C6420657813
:102E700074727573696F6E2070726576656E7465B5
:102E8000640A00220A00556E6B6E6F776E20636FC6
:102E90006D6D616E643A2022004C4F5700484947DF
:102EA00048004F4B004572726F723A20416C6C20A3
:102EB0000020636F6E6E656374696F6E2E2E2E2018
:102EC0000054657374696E67200000000000000004
:102ED00000000000000000000000000000000000F2
:102EE00000000000000000000000000000000000E2
:102EF00000000000000000000000000000000000D2
:102F000000000000000000000000000000000000C1
:102F100000000000000000000000000000000000B1
:102F200000000000000000000000000000000000A1
:102F30000000000000000000000000000000000091
:102F400000000000000000000000007FFF0FFF00F5
:102F500000001F8060030FFFE000007FFF1FFF875E
:102F600000383FC070030FFFE000007FFE1FFFC36B
:102F700000387FE078030FFFE0000000001801C375
:102F80000030F0F07803000000000000001800E3BB
:102F90000030E0787C0300000000000000180063AF
:102FA0008071C0386E03000000000000001800E3CC
:102FB000807180186703000000000000001800C145
:102FC000E1E1801C670300000000007FFE1FFFC1DD
:102FD000FFE3801C630307FFC000007FFF1FFFC0EB
:102FE0007F83801C60030FFFE000007FFF1FFF80D6
:102FF0003F03801C60030FFFE0000000001801C0C9
:103000000C03801C6033000000000000001800C0AA
:103010000C018018603B000000000000001800C098
:103020000C01C018603B000000000000001800C048
:103030000C01C038601F000000000000001800C034
:103040000C00E070600F000000000000001800C0DD
:103050000C0079F0600F00000000007FFF1800C036
:103060000C007FE060070FFFE000007FFF1800C04A
:103070000C001F8060030FFFE000007FFE0800C00F
:1030800004000F0020010FFFE0000000000000001E
:103090000000000000000000000000000000000030
:1030A0000000000000000000000000000000000020
:1030B0000000000000000000000000000000000010
:1030C0000000000000000000000000000000000000
:1030D00000000000000000000000000000000000F0
:1030E00000000000000000000000000000000000E0
:1030F00000000000000000000000000000000000D0
:1031000000000000000000000000000000000000BF
:1031100000000000000000000000000000000000AF
:10312000000000000000000000000000000C030090
:103130000400000000000000000000003FEC03005D
:1031400004000000C067C00000000000020C000086
:10315000040000004044600000000000020C000079
:103160000400000060C0600000000000020DE337B2
:103170008471E36020C0200000000000020E33389C
:10318000C4C333803080600000000000020C333084
:10319000C48613003180400000000000020C333070
:1031A000C50613001101C00000000000020C3330FE
:1031B000C707F3001903800000000000020C333041
:1031C000C58403001B06000000000000020C333021
:1031D000C4C603000A0C000000000000020C3330DB
:1031E000C46313000E0C000000000000020C33301A
:1031F000C431E3000E0FE0000000000000000000FA
:1032000000000000000000000000000000000000BE
:1032100000000000000000000000000000000000AE
:10322000000000000000000000000000000000009E
:10323000000000000000000000000000000000008E
:10324000000000000000000000000000000000007E
:10325000000000000000000000000000000000006E
:10326000000000000000000000000000000000005E
:10327000000000000000000000000000000000004E
:10328000000000000000000000000000000000003E
:10329000000000000000000000000000000000002E
:1032A000000000000000000000000000000000001E
:1032B000000000000000000000000000000000000E
:1032C0000000000000000000000001FFFFFFFFFF02
:1032D000FFFFFFFFFFFFFFFF0FFFFFFFFFFFFFFFEE
:1032E000FFFFFFFFFFFF1E000000000000000000C6
:1032F0000007FFFF3800000000000000000000038E
:10330000FFFF700000000000000000000001FFFF50
:10331000600000000000000000000000FFFF6000EF
:10332000000000000000000000007FFFC00000005F
:1033300000000000007800003FFFC00FC0FC00004C
:103340000000007818001FFFC03FE1FF00000000F0
:1033500000783C000FFFC07FF3FF80000000007882
:103360003C0007FFC0FFFFFFC000000000783C00EA
:1033700003FFC1F87F87E00000000078000001FF34
:10338000C1F03F03E00000000078000000FFC1E052
:103390001E01E01F0003E0783C03F07FC1E01E0146
:1033A000E07FC00FF8783C07FC3FC1E01E01E1FF61
:1033B000E01FFC783C0FFE1FC1E01E01E3FFF03F61
:1033C000FE783C1FFE0FC1E01E01E3F3F83F3E789C
:1033D0003C3F3F07C1E01E01E7E0FC7C1F783C3E1C
:1033E0001F07C1E01E01E7C07C7C0F783C3C0F0347
:1033F000C1E01E01E7807C780F783C3C0F03C1E000
:103400001E01E7803C7800783C3C0F03C1E01E01C0
:10341000E7803C7800783C3C0F03C1E01E01E78068
:103420003C7800783C3C0F03C1E01E01E7C03C78CB
:1034300000783C3C0F03C1E01E01E3E03C78007CD7
:103440003C3C0F03C1E01E01E3FF3FF8007FBC3CA2
:103450000F03C1E01E01E1FF3FF8003FBFFC0F0377
:10346000C1E01E01E0FF3FF8001FBFFC0F03C1E0F9
:103470001E01E07F3FF8000FBFFC0F03600000005B
:1034800000000000000000000007600000000000D5
:1034900000000000000000067000000000000000B6
:1034A00000000000000E38000000000000000000D6
:1034B0000000001C1E0000000000000000000000D2
:1034C00000780FFFFFFFFFFFFFFFFFFFFFFFFFF091
:1034D00001FFFFFFFFFFFFFFFFFFFFFFFF8068749B
:1034E00074703A2F2F6D61726C696E66772E6F72F1
:1034F0006700322E302E78004D31303030205300AE
:10350000205049445F64543A0020643A00206969BD
:103510003A0020703A002020506C616E6E65724255
:10352000756666657242797465733A20002046724A
:103530006565204D656D6F72793A2000436F6D703F
:10354000696C65643A204F63742020392032303230
:10355000300A00204C617374205570646174656496
:103560003A20323031392D31322D3031207C20411A
:103570007574686F723A20286E6F6E652C206465D2
:103580006661756C7420636F6E666967290A003224
:103590002E302E780A004D61726C696E0020536FD8
:1035A0006674776172652052657365740A002057EE
:1035B00061746368646F672052657365740A0020E4
:1035C00042726F776E206F75742052657365740A4E
:1035D000002045787465726E616C20526573657465
:1035E0000A00506F77657255700A006175746F2517
:1035F000632E67004732385859006572726F722027
:1036000077726974696E6720746F2066696C650AE9
:1036100000446F6E6520736176696E672066696C21
:10362000652E0A004D323900456E6473746F7073F5
:103630000025532025632025632025632025630072
:10364000205A3A0020593A00656E6473746F7073A3
:10365000206869743A2000554E4C4F414420464939
:103660004C414D454E540046494C414D454E542029
:103670004348414E4745004D3730322054256400C1
:103680004D36303020423020542564004D373032E2
:10369000203B2564004D37303120542564004D37E0
:1036A0003032004D373031004D363030204230005E
:1036B0005075726765206D6F726500436F6E746937
:1036C0006E756500524553554D45204F5054494F36
:1036D0004E533A005052494E5420504155534544A0
:1036E0000020204E6F7A7A6C653A2000256C642E9B
:1036F00025696D00457874727564656420546F7433
:10370000616C004C6F6E67657374204A6F62205461
:10371000696D65003E2000546F74616C20507269C1
:103720006E742074696D6500436F6D706C657465AF
:1037300064005072696E7420436F756E7400313589
:1037400030004245443A486973656E732033393519
:10375000300052756E617761792057617463683A01
:10376000204F4E004D61782054656D700032373522
:10377000004D696E2054656D700045313A204869EE
:1037800073656E73203339353000505355004765EB
:103790006E657269630050726F746F636F6C003195
:1037A0002E300042617564003235303030300052C6
:1037B000616D626F004D657368204C6576656C695C
:1037C0006E67004578747275646572730054686939
:1037D0006E6B65722056325F3232303900323031D2
:1037E000392D31322D3031005072696E746572207E
:1037F000537461747300546865726D6973746F7289
:103800007300426F61726420496E666F0050726986
:103810006E74657220496E666F005061726B696EDE
:10382000672E2E2E0000005761697420666F7200AB
:1038300066696C616D656E74206368616E676500B2
:10384000746F207374617274005761697420666FBD
:10385000720066696C616D656E7420756E6C6F6167
:103860006400004E6F7A7A6C652068656174696ED9
:103870006700506C6561736520776169742E2E2E28
:103880000000507265737320627574746F6E0074FB
:103890006F2068656174206E6F7A7A6C65000049EC
:1038A0006E736572742066696C616D656E7400611B
:1038B0006E6420707265737320627574746F6E002D
:1038C000746F20636F6E74696E75650057616974FB
:1038D00020666F720066696C616D656E74206C6F36
:1038E00061640000507265737320427574746F6E6A
:1038F00000746F20726573756D65207072696E74E7
:1039000000005761697420666F72207072696E746E
:1039100000746F20726573756D652E2E2E00005732
:1039200061697420666F720066696C616D656E74A2
:103930002070757267650000453100626564002C77
:103940002073797374656D2073746F707065642172
:10395000204865617465725F49443A20004865619A
:1039600074696E67204661696C65640048656174BE
:10397000696E67206661696C656400202D20496E60
:1039800076616C6964206578747275646572206E06
:10399000756D62657220210A00544845524D414CB4
:1039A0002052554E4157415900546865726D616C03
:1039B0002052756E61776179004572723A204D41EF
:1039C0005854454D50004D415854454D5020747247
:1039D00069676765726564004572723A204D494EA9
:1039E00054454D50004D494E54454D502074726918
:1039F000676765726564004D383420582059205A35
:103A0000204500202F002042403A0020403A00206C
:103A1000573A000040012C0173012201AB0118014B
:103A2000F3010E0148020401AC02FA002A03F0007F
:103A3000C303E6008004DC006D05D2006C06C800FC
:103A4000C707BE007009B4006D0BAA00CB0DA00023
:103A5000CF138C00F21B7800E9246400142E500070
:103A60009C353C00B83A2800A03D14000B3F0000F4
:103A7000426564204C6576656C696E670054656DBF
:103A80007065726174757265004D383400446973F5
:103A900061626C65205374657070657273004732A3
:103AA00038205A00486F6D65205A00473238205937
:103AB00000486F6D65205900473238205800486F24
:103AC0006D65205800473238004175746F20486F8B
:103AD0006D65005072656865617420504C412045E9
:103AE0006E64005072656865617420504C412042DC
:103AF00065640050726568656174204142532045D9
:103B00006E640050726568656174204142532042C2
:103B1000656400436F6F6C646F776E006F70656EE5
:103B200000545249474745524544007A5F6D696EDB
:103B300000795F6D696E00785F6D696E0052657027
:103B40006F7274696E6720656E6473746F70207332
:103B500074617475730A0020436F756E7420583A4F
:103B60000020453A00486F6D696E67204661696CB8
:103B70006564005761726E696E673A20486F6D69BF
:103B80006E672042756D702044697669736F72208C
:103B90003C20310A0000000000000020410000002D
:103BA0000000004842000048420000804002020439
:103BB00000000000000000000000004000009643EC
:103BC000000096430000C843FFFFFF4F6666004FAA
:103BD0006E00544D432044726976657273004661ED
:103BE0006E205370656564203D00426564205A0074
:103BF0004D61696E00537465616C746843686F70E1
:103C000020456E61626C6564005374657070696E06
:103C100067204D6F64650053656E736F726C6573DA
:103C20007320486F6D696E67004472697665722013
:103C300043757272656E7400436F6E74726F6C00C0
:103C40004261627973746570205A00466C6F770028
:103C50002053697A653A200043616E6E6F74206F5D
:103C600070656E207375626469722000534420632E
:103C7000617264206F6B0A006F70656E526F6F74B3
:103C8000206661696C65640A00766F6C756D652EDF
:103C9000696E6974206661696C65640A005344202A
:103CA000696E6974206661696C0A004D32332025A3
:103CB000730057726974696E6720746F2066696C4F
:103CC000653A200046696C652073656C65637465B0
:103CD000640A0046696C65206F70656E65643A2001
:103CE00000667265736800646F696E67004E6F7777
:103CF0002000454E4420535542524F5554494E459D
:103D00000A002220706F73002220706172656E7449
:103D10003A2200535542524F5554494E4520434193
:103D20004C4C207461726765743A22007472796930
:103D30006E6720746F2063616C6C207375622D67F1
:103D4000636F64652066696C6573207769746820A9
:103D5000746F6F206D616E79206C6576656C732E63
:103D6000204D4158206C6576656C2069733A310AA4
:103D70000044656C6574696F6E206661696C65648A
:103D80002C2046696C653A200046696C65206465A4
:103D90006C657465643A00506F7765722D6C6F7353
:103DA000732066696C652064656C657465004361A9
:103DB000703A00656E7175657565696E67202200E1
:103DC0006F6B00526573656E643A20002569792037
:103DD000256964202569682025696D20256973009F
:103DE00023646566696E652044454641554C545FC1
:103DF000004B6420004B6920004B70200050494468
:103E0000204175746F74756E652066696E6973689C
:103E10006564212050757420746865206C6173742A
:103E2000204B702C204B6920616E64204B64206312
:103E30006F6E7374616E74732066726F6D2062654D
:103E40006C6F7720696E746F20436F6E666967755B
:103E5000726174696F6E2E680A0050494420417582
:103E6000746F74756E65206661696C656421207479
:103E7000696D656F75740A000A20436C617373691C
:103E80006320504944200A00204B643A2000204B14
:103E9000693A2000204B703A20002054753A2000E7
:103EA000204B753A2000206D61783A2000206D6922
:103EB0006E3A200020643A200020626961733A2043
:103EC00000504944204175746F74756E6520737499
:103ED0006172740A00504944204175746F74756EA4
:103EE00065206661696C6564212054656D7065723A
:103EF000617475726520746F6F20686967680A0065
:103F0000504944204175746F74756E65206661690F
:103F10006C65642120426164206578747275646503
:103F200072206E756D6265720A004F46460A004641
:103F30006164652048656967687420004661696C42
:103F4000656420746F20656E61626C6520426564F3
:103F5000204C6576656C696E670A004D6573682054
:103F6000426564204C6576656C20646174613A0A30
:103F700000496E76616C6964206D6573682E0A0075
:103F8000206E6F7420656E74657265642E0A002061
:103F90006F6620004D424C2047323920706F696EA9
:103FA0007420004A206F7574206F662072616E67FE
:103FB000652028302D0049206F7574206F662072AF
:103FC000616E67652028302D004D65736820707222
:103FD0006F62696E6720646F6E652E0A00537461AC
:103FE0007274206D6573682070726F62696E6720ED
:103FF000776974682022473239205331222066695C
:104000007273742E0A004732380A4732392053320D
:1040100000686173206E6F20646174612E0A004D28
:1040200065736820426564204C6576656C696E67CF
:10403000200053206F7574206F662072616E676573
:104040002028302D35292E0A004D34323120696E5A
:10405000636F727265637420706172616D657465FF
:10406000722075736167650A005741524E494E4789
:1040700021204C6F77205A204A65726B206D617940
:10408000206C65616420746F20756E77616E746555
:1040900064207061757365732E0A00204D393220DB
:1040A000580020204D61783A200020204D696E3A5A
:1040B0002000536F667420656E6473746F70733A7A
:1040C0002000506C65617365205265736574005003
:1040D00052494E5445522048414C544544002553C2
:1040E0003A202553004B494C4C45442E2000507239
:1040F000696E7465722068616C7465642E206B69EA
:104100006C6C28292063616C6C6564210A0065630E
:10411000686F3A004572726F723A0066616C73653F
:104120000074727565000A4D65617375726564206F
:10413000706F696E74733A0A00357835206D657357
:10414000682E205A206F66667365743A2000486FA7
:1041500074656E6420746F6F20636F6C640A004D29
:104160003630303A20546F6F20436F6C64005072C9
:1041700065737320627574746F6E20746F2072653E
:1041800073756D650A00507265737320627574747F
:104190006F6E20746F2068656174206E6F7A7A6C20
:1041A000650A004C6F616400506F7765722D6C6F0B
:1041B00073732066696C6520636C6F73652066613C
:1041C000696C65642E0A00506F7765722D6C6F7391
:1041D000732066696C652077726974652066616911
:1041E0006C65642E0A0057726974650044726976C2
:1041F0006572207265676973746572733A0A007339
:10420000327673620900733276736109003132309D
:10421000430900313433430900313530430900315B
:1042200035374309006F7409006F747077090073A4
:1042300032676109007332676209006F6C610900BF
:104240006F6C6209007374737409004452565354BE
:1042500041545553005374616C6C677561726420EE
:1042600074687273002D73746172740900687973D5
:10427000746572657369730A2D656E640900626CFA
:10428000616E6B2074696D65006F66662074696D80
:1042900065004F54207072657761726E206861739B
:1042A0000A6265656E20747269676765726564008D
:1042B0004F54207072657761726E005B6D6D2F7365
:1042C0005D090070776D0A7468726573686F6C645D
:1042D00000747374657009006D7374657073090000
:1042E0007673656E7365090050574D207363616C7A
:1042F000650043532061637475616C00486F6C64A2
:104300002063757272656E740052756E20637572EB
:1043100072656E74004D41582063757272656E74DB
:1043200000524D532063757272656E74005365744C
:104330002063757272656E7400456E61626C6564AF
:104340000900416464726573730900303D2E333295
:104350003500313D2E3138004D6963726F737465DD
:10436000707320756E617661696C61626C650A00BC
:1043700045313A200045303A20005A3A2000593A57
:1043800020004D53312C4D53322C4D533320506966
:104390006E730A583A200000002100240027002AEA
:1043A000002D003000330001010000040107010A64
:1043B0000100002200250028002B002E00310034CF
:1043C0000002010000050108010B0100002000238C
:1043D00000260029002C002F0032000001000003FD
:1043E0000106010901050505050705080808080279
:1043F0000202020A0A08080404040401010101017E
:104400000101010303030303030303040707070C6C
:104410000C0C0C0C0C0C0C02020202060606060622
:104420000606060B0B0B0B0B0B0B0B07070A0A0AF6
:104430000A0A0A05050504040408080102102020E0
:1044400008081020401020408002010201080402E8
:10445000010102040810204080804020100804025E
:1044600001800402018040201008040201080402B7
:1044700001010204081020408001020408102040BD
:104480008010080408801020400440801020400460
:104490008000000A0B02090C0D0E0807030401003E
:1044A000000000000000000000000000000000000C
:1044B00000000000000000000000000000121110C9
:1044C00000000000000000000000000000000000EC
:1044D00000000000000000000000000000000000DC
:1044E0000000000000000000FA03EE0111241FBECE
:1044F000CFEFD1E2DEBFCDBF00E00CBF13E0A0E004
:10450000B2E0E6E3F8EC02E00BBF02C007900D92C8
:10451000A83AB107D9F728E1A8EAB3E001C01D9293
:10452000A934B207E1F712E2C5E7D2E200E006C023
:1045300021970109802FFE010F942C60C437D10709
:1045400080E00807A9F70F94994B0D9409640C9427
:1045500000002F923F924F925F926F927F928F92C4
:104560009F92AF92BF92CF92DF92EF92FF920F9302
:104570001F93CF93DF93CDB7DEB7E1970FB6F894D3
:10458000DEBF0FBECDBF89AB2091CA0D28AB81E045
:104590008093CA0D809172178D3409F48CC28435D2
:1045A00011F40C941734873411F00C941E3480915C
:1045B0007017909171178A31910509F415C194F41F
:1045C0008430910534F482309105D4F597FF2CC0E6
:1045D0006EC28430910509F4C8C0459711F40C945B
:1045E000203465C28A32910509F4E2C16CF48C3141
:1045F000910509F417C10CF4FBC04D9709F057C29F
:104600000F94792B0C9420348B35910509F41AC141
:104610008C35910509F41BC18A35910509F047C213
:104620001092B1030C94203480915702882311F426
:104630000C9420340E94DDAE0F94B7070C94203404
:1046400020915702222311F40C94203411E0029798
:1046500009F010E00E94DDAE19821A821B821C82D2
:104660001D821E821F82188682E50E945051882377
:1046700009F44BC00E94D0506B017C0120E030E077
:10468000A9010F943159882309F455C0809135024E
:1046900090913602A0913702B09138028CA39DA36D
:1046A000AEA3BFA38091390290913A02A0913B0240
:1046B000B0913C0288A799A7AAA7BBA78090B70D85
:1046C0009090B80DA090B90DB090BA0D4090BB0D70
:1046D0005090BC0D6090BD0D7090BE0DA501940171
:1046E0006CA17DA18EA19FA10F94315981110C94D1
:1046F0002934A301920168A579A58AA59BA50F94E9
:1047000031598823C1F00C94293489E40E94505116
:10471000882331F00E94D05069837A838B839C83F5
:104720008AE40E945051882331F00E94D0506D835A
:104730007E838F83988720E030E0A90169817A81A8
:104740008B819C810F94315981110C94DD3420E0D0
:1047500030E0A9016D817E818F8198850F94315958
:1047600081110C94DD340C94F03480E50E9450519A
:10477000882329F00F94F5296B017C0103C0C12C1B
:10478000D12C760183E50E945051882361F00E946C
:10479000D05020E030E04AE754E40F9497590F944A
:1047A000DF616B017C010E943E7180917405811173
:1047B00005C060E089E19BE00E9483AD0F947146E3
:1047C000C60ED71EE81EF91E0F947146DC01CB0100
:1047D0008C199D09AE09BF09B7FD02C00C942034A5
:1047E00080E00E94243AF0CF0E9481510C94203442
:1047F0000E9453D081110C9420348CE0E4E8F2E064
:10480000DE01119601900D928A95E1F760E070E06B
:1048100080E50E941AB8BE016F5F7F4F0E9434ACE2
:104820000C9420348091C70D8770873011F00C9460
:10483000F73460E08FE40E946C5181110C942034B5
:104840000C94F7348FE08093B1030C942034809162
:104850006F17882349F1893009F0A6C040E9A42EDA
:1048600042E0B42E55E3E52E52E0F52ED12C00E0C7
:1048700010E0D5018D915D010E945051882369F0AF
:104880000E94D050F7016083718382839383133039
:1048900011F401E002C0DD24D3941F5FF4E0EF0EB9
:1048A000F11C143031F775C090E9292E92E0392EB1
:1048B0002FE9E22E25E1F22E25E332E03DA32CA3E1
:1048C00033E9C32E35E1D32E00E010E0D1018D9104
:1048D0001D010E945051882309F44BC00E94D05002
:1048E0002B013C01133049F0F601208131814281D6
:1048F00053810F946B602B013C01ACA1BDA12D91A4
:104900003D914D915C91C301B2010F946B604B01DD
:104910005C012DEB37E346E855EB0F94CC6287FD45
:104920000AC02DEB37E346E855E3C501B4010F9407
:1049300031591816F4F4133051F440924102509258
:104940004202609243027092440201E012C0A5014B
:104950009401F70160817181828193810F946C6071
:10496000D7016D937D938D939C931397812F0F9413
:10497000FA061F5FB4E0EB0EF11CECA1FDA134962A
:10498000FDA3ECA3F4E0CF0ED11C143009F09ECFB0
:1049900005C0DD2019F00F94130C06C0002321F090
:1049A00081E492E00E944F710F94150C0C94203416
:1049B00080915702882311F40C94203489E40E94DA
:1049C0005051F82E882321F00E94CC50182F01C09E
:1049D00010E08AE40E945051082F882319F00E94A9
:1049E000CC5001C080E0FF2011F0153020F40023EE
:1049F00041F0853030F082E29BE00F946A310C94F4
:104A0000203490E1E5E3F2E0A7EBBDE001900D92E8
:104A10009A95E1F7FF2091F024E01202F0011124B1
:104A2000E658F54F40815181628173814093B70D03
:104A30005093B80D6093B90D7093BA0D002391F0A7
:104A400034E08302F0011124EA59F54F808191810D
:104A5000A281B3818093BB0D9093BC0DA093BD0D3B
:104A6000B093BE0D40E050E0BA0186E40F94FB1B0A
:104A70006B017C0120E030E0A9010F94CC62181694
:104A80004CF420E030E040E752E4C701B6010F9457
:104A9000666103C060E070E0CB0169837A838B8339
:104AA0009C83CE0101960F94920A0C9420340E94AC
:104AB000B2E60C94203480917017909171178D3765
:104AC000910509F418C70CF091C18135910509F4DD
:104AD00015C70CF099C08A31910509F404C49CF5FE
:104AE0008431910509F45DC37CF48131910509F4A9
:104AF00044C32CF4029708F4C4C20C9414344297B3
:104B000009F417C70C9414348731910509F46EC366
:104B10008CF48531910509F465C3469711F00C9426
:104B200014340F943E168091990A877F8093990AD6
:104B30000C9420348831910509F46EC3499709F427
:104B4000C7C30C9414348032910509F444C40CF0AA
:104B50003FC08D31910509F427C494F48B31910540
:104B600009F4CFC34C9711F00C94143440E060E08A
:104B700080916D1790916E170F94E6190C94203464
:104B80008E31910509F417C44F9711F00C94143429
:104B90000E9454A66C8F7D8F8E8F9F8FBE016F5F9A
:104BA0007F4FCE014C960F943D2060E0CE010196E0
:104BB0000E940AAE0F947C33BE016F5F7F4F89EB7A
:104BC0009BE00F9465338AE00E94F8380C942034FF
:104BD0008C34910509F45CC46CF48A32910509F4B3
:104BE00034C48B34910511F00C9414340E9459385C
:104BF0000C9420348D34910509F44EC48E34910503
:104C000009F44EC40C9414348E36910509F4A3C5EE
:104C1000F4F58836910509F4D5C404F58435910579
:104C200009F487C68CF48235910509F47BC6833577
:104C3000910511F00C9414348091B1038F7E806241
:104C40008093B1030C9420348535910509F49DC6F9
:104C50008C35910509F4B2C60C9414348B36910549
:104C600009F46AC554F48936910509F42DC58A36CC
:104C7000910509F43DC50C9414348C36910509F462
:104C8000C2C58D36910509F4C1C40C94143485371E
:104C9000910509F436C70CF08AC08137910509F4F3
:104CA000B8C594F48F36910509F468C5803791052D
:104CB00011F00C94143441E060E070E084E39CE077
:104CC0000F9491360C9420348237910509F414C75F
:104CD0008337910511F00C94143489E99DE00F9409
:104CE0006A3160E089E89DE00F94822760E084E704
:104CF0009DE00F94822761E089EF91E20F94822773
:104D000061E089E69DE00F94822761E089E59DE0FE
:104D10000F94822760E080E59DE00F94822761E098
:104D200086E49DE00F94822760E08CE39DE00F9481
:104D3000822760E084E39DE00F94822761E086E2B1
:104D40009DE00F94822760E088E19DE00F94822728
:104D500060E089E09DE00F94822760E08BEF9CE0AB
:104D60000F94822760E085EE9CE00F94822760E03C
:104D700084ED9CE00F94822760E085EC9CE00F942A
:104D8000822760E080EB9CE00F94822761E08DE950
:104D90009CE00F94822760E080E99CE00F948227DA
:104DA00060E08CE79CE00F9482270C9420348837D5
:104DB000910509F4F0C66CF48637910509F4B1C683
:104DC0008737910511F00C9414340F94280D0C942E
:104DD00020348937910509F4E6C68A37910511F028
:104DE0000C9414340E94EDB10C9420348D39A1E060
:104DF0009A0711F40C94C6330CF089C08C3D9105D0
:104E000011F40C941E2FD4F5893C910509F47AC74E
:104E1000CCF48B39910509F448C554F48C389105CC
:104E200009F41CC58139910509F4C4C60C941434E5
:104E30008E3B910509F427C5883C910509F415C7F7
:104E40000C9414348D3C910509F4D2C754F48B3C76
:104E5000910509F47DC78C3C910509F498C70C9421
:104E600014348E3C910509F4C6C7833D910511F0B9
:104E70000C9414340F94CB280C9420348E32E1E03F
:104E80009E0711F40C94C430FCF4823221E09207A6
:104E900011F40C94CD2F5CF48D3D910509F4DBC722
:104EA000823E910511F40C94812F0C9414348C32B1
:104EB000A1E09A0711F40C942F308D32914011F437
:104EC0000C9444300C9414348F35E1E09E0711F4B7
:104ED0000C94B5336CF48F3221E0920711F40C94EA
:104EE00008318E35914011F40C9480330C941434B5
:104EF0008039A1E09A0711F40C940B318A39914062
:104F000011F00C9414340E9485370C9420348B35A6
:104F1000E2E09E0711F40C9496310CF04FC0863FEE
:104F200021E0920711F40C9471312CF58C3AA1E038
:104F30009A0711F40C9411317CF4843AE1E09E0755
:104F400011F40C940E31853A914011F00C94143404
:104F50000F94892A0C942034843F21E0920711F4A5
:104F60000C946E31853F914011F00C9414340E94E2
:104F700056670C9420348C30A2E09A0711F40C94FC
:104F80008E316CF4873FE1E09E0711F40C9474318C
:104F9000883F914011F40C947D310C941434893382
:104FA00022E0920711F40C9405338835924011F0F9
:104FB0000C9414340E9455B60C9420348F38A3E01E
:104FC0009A0711F40C9408337CF58A38E3E09E07C5
:104FD00011F40C9402336CF48D3B22E0920711F42F
:104FE0000C940F328E3B924011F40C9412320C94BC
:104FF00014348B38A3E09A0711F40C94D1328C3816
:10500000934011F00C94143460E070E083E50E944A
:105010005D518C0160E070E080E50E945D51B80157
:105020000F9424430C942034803AE3E09E0709F463
:10503000FCC1C4F4803923E0920711F40C943D3391
:105040008239934011F00C94143460E089E40F9499
:105050006D2BD82E90E9E92E92E0F92E11E000E0B8
:105060000C944A33873EA3E09A0711F40C94B833AA
:10507000883E934011F00C9414340E9423B30C9496
:105080002034A0906D17B0906E1780E50E945051AB
:10509000882359F00F94F5296B017C0111E0672BEF
:1050A000682B692B31F410E004C010E0C12CD12C26
:1050B000760183E50E945051882311F40C94C43585
:1050C0000E94D05020E030E04AE754E40F94975912
:1050D0000F94DF616B017C0111110BC0672B682BF2
:1050E000692B39F4A114B10421F0F50180818111FB
:1050F00002C010E001C011E00E943E71112329F0AE
:1051000061E0C5010E940AAE05C060E081E49BE059
:105110000E9483AD1091CA0D83E08093CA0D81E097
:105120008093C90DC114D104E104F104B1F00F94CE
:105130007146C60ED71EE81EF91E0F947146DC019B
:10514000CB018C199D09AE09BF09B7FF0EC0809134
:10515000C90D81110C94C93508C08091C90D8823EF
:1051600021F080E00E94243AF8CF0E942FAE1092E6
:10517000C90D1093CA0D0C9420348091691784FFD7
:1051800002C00C94CE3580916B1787FF02C00C943F
:10519000CE3580916C17837011F00C94CE350C9441
:1051A000E7358CE69BE00F946A3186EB9AE00E942B
:1051B000988F8BE1E6EBFAE0DE01119601900D92FB
:1051C0008A95E1F760E070E0CE0101960F94071B2D
:1051D000CE0101960F94602F8DE59BE00F946A310C
:1051E0000C9420340F94AF160C942034E0916D177A
:1051F000F0916E178081882329F0803209F41082A3
:105200003196F8CF40E061E080916D1790916E1774
:105210000F94E6190C94203483E50E9450518823A2
:1052200021F00E9498500F941C2184E50E94505157
:105230008823A9F00E9498506B017C010E9488A6E7
:10524000C0929604D0929704E0929804F092990448
:10525000CD28CE28CF2819F081E080939E0480913C
:1052600033168823E9F080E090E0A8ECB2E488A34C
:1052700099A3AAA3BBA31C8E1D8E1E8E1F8E1982FE
:105280001A821B821C8220E0AE01405E5F4FBE018D
:10529000645E7F4FCE0101960F94BC330C94203492
:1052A0000E943538882381F00F944F160E94593898
:1052B0008DED96E10F94F4151092731710927417F8
:1052C00010927517109276170E942FAE0C9420340E
:1052D0008091990A82FF03C08B7F8093990A0E9474
:1052E0004DB70C9420348091990A83FD02C00C9430
:1052F000203483E50E94505181110C94F2350C94B6
:10530000203483E40E940751882319F187E89BE049
:105310000F946A318091FD0B882391F0BE016F5F7D
:105320007F4F8AEF9BE00E940F938E010F5F1F4F0C
:10533000D8018D918D01882339F00E94F838F8CF7B
:105340008DE79BE00F946A318AE00E94F8380C9454
:1053500020348091990A82FF21C086E99BE00F9456
:105360006A316091950A7091960A8091970A90919E
:10537000980A4AE00E94FF388FE20E94F838609154
:10538000910A7091920A8091930A9091940A4AE04E
:105390000E94FF380E94FD390C94203488EA9BE07B
:1053A0000F946A310C9420348091990A8E7F8093F7
:1053B000990A0C9420348091990A83FD02C00C94C0
:1053C00020340E949BE680916D1790916E170F9488
:1053D00018190C9420348091990A82FD0E943E7124
:1053E0008091990A83FD02C00C94203460E080E52E
:1053F0000E946C51182F482F61E080916D17909199
:105400006E170F94E61983E50E945051882321F00E
:105410000E9498500F941C210F944F1611110C9458
:1054200020340E9459380C94203420916D1730910B
:105430006E179091990A92609093990A40E060E00B
:10544000C9010F94E6190C94203483E50E94505151
:10545000882311F40C9420340E94A850F82E6DE09B
:1054600070E080E50E945D518C0197FF02C00C94B2
:105470002034E82E60E089E40E946C5181110C9484
:10548000F735802F0F94C746811158C50C94F73516
:105490000E94A3A60C9420340E9406700C94203421
:1054A00060E070E083E50E945D518E34910531F437
:1054B0000E9477700E942FAE0C9420348CE19CE007
:1054C0000F946A3160918A1370918B1383E19CE091
:1054D0000F943D3360918C1370918D1386E09CE0A6
:1054E0000F943D3360918A1370918B1380918C13CC
:1054F00090918D13681B790B80919E04815021E05F
:1055000030E0823010F020E030E0621B730B8BEF54
:105510009BE00F943D338AE00E94F8388CE19CE0D8
:105520000F946A3180918E1390918F13A0919013F4
:10553000B09191138C8F9D8FAE8FBF8FBE016F5F27
:105540007F4FCE014C960F943D20BE016F5F7F4F81
:105550008EEE9BE00F94653380919213909193139C
:10556000A0919413B09195138C8F9D8FAE8FBF8FA8
:10557000BE016F5F7F4FCE014C960F943D20BE0160
:105580006F5F7F4F8EED9BE00F94653320E030E03E
:105590004AE754E4609196137091971380919813A1
:1055A000909199130F946661AB01BC0186EC9BE06E
:1055B0000F9447338DE60E94F8388AE00E94F8384D
:1055C0000C9420348091381383FF02C00C94203453
:1055D0000E94F7AF87FF02C00C94203483E50E943D
:1055E0005051882379F00E94D0500F94D8618B01DC
:1055F000CB010E94E2960635110524F40E94067044
:105600000E942FAE0F94EC460C94203480913813F6
:1056100083FF02C00C9420340E94F7AFF82E87FF5E
:1056200002C00C94203483E50E945051082F811150
:1056300006C082E50E945051182F8823C1F10E94B4
:10564000D0500F94D861CB010E94E2960E94D050B6
:1056500020E030E04AEA52E40F943159181614F46D
:105660000C9410360E9406700E942FAE6091270E97
:105670007091280E072E000C880B990B0F94385947
:105680004B015C014090230E5090240E6090250E3B
:105690007090260EA30192010F94CC62181614F498
:1056A0000C942E36002311F40C94143611E00F9450
:1056B000EC46112311F40C94203440E0602F8F2D20
:1056C0000E9452F30C9420340E94F7AF182F87FDEC
:1056D0000AC080EC9DE30F946A31812F0E944EF145
:1056E0008AE00E94F838B8A9B093CA0D0C944337E9
:1056F00060E080E50F946D2B182F823010F00C9431
:10570000203481E40E940751882321F06091080E23
:1057100070E002C06FEF70E083E50E941AB8E12FDD
:10572000F0E0E85FF14F8F3F910519F010F08FEF37
:1057300090E080830C94203460E080E50F946D2B22
:10574000823010F00C942034E82FF0E0E85FF14F45
:1057500010820C9420348EE40E945051882311F45E
:105760000C9420340E9498506093FB177093FC17A0
:105770008093FD179093FE170C94203483E50E94CC
:105780000751882331F060E083E50F946D2B8093FF
:1057900038130F947C338DE29CE00F946A31809132
:1057A0003813882369F185EAE82E8FE0F82E00E0AF
:1057B00010E020E08091381390E0A0E0B0E0002EEF
:1057C00004C0B695A795979587950A94D2F780FF60
:1057D0000EC0DD24D394D20E222319F08CE20E9455
:1057E000F838F701859194910F946A312D2D0F5F50
:1057F0001F4FE2E0EE0EF11C05301105D9F6A4CDE5
:1058000089E29CE09FCD1092C90D109255020C9434
:10581000203483E50E945051882381F00E94A850D3
:10582000282F30E02D33310524F4809300020C94AE
:1058300020348CE3809300020C9420340F947C334A
:105840004091000250E060E070E082E49CE00F9440
:105850002C338AE00E94F8380C942034809138135D
:1058600083FF02C00C94203483E50E9450518823AA
:1058700011F40C9420340E94D0500F94D861CB01C5
:105880000E948A50DDC78091381383FDD9C783E514
:105890000E945051182F81110C94313682E50E94DC
:1058A000505181110C943136CBC783E50E94505181
:1058B000882309F4C5C70E94A850182F90E0CD97FF
:1058C0000CF01CE31093AC030F9471466B017C0148
:1058D000212F30E0A8EEB3E00F94DB5FC60ED71E99
:1058E000E81EF91EC092A803D092A903E092AA0371
:1058F000F092AB03A5C70E944DB7A2C70E941AF54C
:105900000E9406700E94BA720E94303868EE73E0FE
:1059100080E090E00F94463160E087E69CE00E94D2
:1059200083AD8EC78091B1038F7D80618093B10379
:1059300087C783E50E945051882399F00E94D05078
:1059400020E030E04AE754E40F9497590F94DF6168
:105950006093010270930202809303029093040209
:105960006FC78091691784FF02C00C9467368091DD
:105970006B1787FF02C00C94673680916C17837099
:1059800011F00C9467360C94943683E50E9407510D
:10599000882309F455C70E94D05020E030E04AE740
:1059A00054E40F9497590F94DF616093AD037093A3
:1059B000AE038093AF039093B00342C70E94F7AF4A
:1059C00087FD3EC79091691794FD04C090916B17B5
:1059D00097FF0AC010E9C12E12E0D12E09E3E02E94
:1059E00003E1F02E10E009C090916C17937091F7CD
:1059F000682F81E00F94BA2923C7D6018D916D01DC
:105A00000E945051882309F46DC0133009F063C01F
:105A10000E94D0504B015C0120E030E040EA51E4AC
:105A20000F94315987FF4EC0A5019401609159131D
:105A300070915A1380915B1390915C130F9466617F
:105A40002B013C019B01AC016091EC0D7091ED0DBF
:105A50008091EE0D9091EF0D0F9497596093EC0D9E
:105A60007093ED0D8093EE0D9093EF0DA3019201D5
:105A70006091691370916A1380916B1390916C130C
:105A80000F9497596093691370936A1380936B1303
:105A900090936C136091FC0D7091FD0D8091FE0D43
:105AA0009091FF0D0F943659A30192010F949759CD
:105AB0000F94DF616093FC0D7093FD0D8093FE0DDC
:105AC0009093FF0D8092591390925A13A0925B13FA
:105AD000B0925C1307C00E94D050F701648B758BA5
