:100000000C94441D0C94751D0C94751D0C94751D59
:100010000C94751D0C94751D0C94751D0C94751D18
:100020000C94751D0C94751D0C94751D0C94751D08
:100030000C94751D0C94751D0C94751D0C94751DF8
:100040000C94751D0C948B710C94751D0C94751D7E
:100050000C94751D0C94751D0C9407F20D9495234A
:100060000C94751D0C94B53F0C94AB3F0C94751D0E
:100070000C94751D0C94751D0C94751D0C94751DB8
:100080000C9480380C94751D0C94751D0C94751D82
:100090000C94751D0C94751D0C94751D0C94751D98
:1000A0000C94751D0C94751D0C9452380C94751D90
:1000B0000C94751D0C94751D0C94751D0C942438AE
:1000C0000C94751D0C94751D0C94751D0C94751D68
:1000D0000C94751D0C94751D0C94751D0C94751D58
:1000E0000C94751D795B885B8B5B5F5B625B655B0A
:1000F000685B745B6B5B865B6E5B715BD693D9935D
:10010000C893CC93D2931094DD93E193E793EB9350
:10011000EF93F593F993FD931094039407940B9444
:100120004C975197569760976A97E39774977C9787
:1001300084978E979897A297B197BB97E397C597A7
:10014000CF97D997F7ED36EC6FEC33EE6FEC6FECA1
:100150006FEC6FEC6FEC6FEC6FEC6FEC6FEC6FECC7
:100160006FEC6FEC6FEC6FEC6FEC6FEC6FEC6FECB7
:100170006FEC6FEC6FEC6FEC6FEC6FEC6FEC6FECA7
:100180002DEE6FEC6FEC6FEC6FEC6FEC6FEC6FECD7
:100190006FEC06EE6FEC6FEC6FEC6FEC6FEC6FECEE
:1001A0006FEC6FEC6FEC6FEC4AEE6CEC084AD73BEF
:1001B0003BCE016E84BCBFFDC12F3D6C74319ABD36
:1001C00056833DDA3D00C77F11BED9E4BB4C3E915A
:1001D0006BAAAABE000000803F05A84CCDB2D44E49
:1001E000B93836A9020C50B9918688083CA6AAAA4B
:1001F0002ABE000000803F000C949A9A0C9413FFD2
:100200000D944B2C0C940A580C94715B0C9448C1BF
:100210000C94C5970C940E580C9403940C9406EE11
:100220000C94685B0C947E5A0C948E970C943CC191
:100230000C94AFC60C949A4B0C94FD3F0C947C4DDF
:100240000C9438510C9452830C94E3970C94D693ED
:100250000C9453CB0C9416580C94D9970C94B57BF2
:100260000C94CCEB0C94B64B0C948F560C94B38737
:100270000C9406580C9426C90C947B540C9413854A
:100280000C944A4B0C94FE570C947C970C946E5B28
:100290000C94AF4D0C94DC4B0C9461C60C9442C191
:1002A0000C94F7ED0C9407710C946B5B0C94754DEA
:1002B0000C9417C70C94FD4C0C94294C0C94584C7E
:1002C0000C94DEE00C9455C60C94B34D0C94154E72
:1002D0000C94E1930C9420550C94E2E00C94CFEB39
:1002E0000C943D830C94F5DD0C941A580C940794EF
:1002F0000C94FA9F0C94B8F10C9413A00C94769C77
:100300000C9488FF0C94354C0C946FEC0C94069B69
:100310000C94A2530C945E7B0C94DD930C949897F0
:100320000C94FD930C9402580C94B59A0C94795B40
:100330000C9400C60C941E580C9495880C943BDFCA
:100340000C94745B0C94D1860C946F530C94A2970C
:100350000C9412580C94C6C80C94D2930C94724B03
:100360000C94819C0C942DEE0C9456970C94C8938D
:100370000C94EB9A0C94074D0C94F9930C943FC198
:100380000C9474970C94174C0C948B5B0C94EB931B
:100390000C9410940C94FA570C944C970C941EC91E
:1003A0000D942D2C0C94C1C80C944F830C94414D8A
:1003B0000C94D84B0C94B6EB0C945E4B0C94F3DD80
:1003C0000C94C9EB0C9415830C94C4530C9436EC28
:1003D0000C94B1970C94D0C80C94AEC20C945F5B93
:1003E0000C947F9A0C94CF970C9433EE0C94F9DD17
:1003F0000C94CC930C946CEC0C94A84B0C9442830E
:100400000C94AE550C9458830C94E7930C94DBC673
:100410000C94F94B0C94BB970C94054C0C94344BF6
:100420000C942F4C0C94244D0C94655B0C94885BBD
:100430000C940B940C94114C0C944BC10C94865B53
:100440000C94AAC60C940B4C0C94864B0C94DAE0DA
:100450000C94BB530C941D4C0C9445C10C94FF4B55
:100460000C94CA4B0C94CBC80C94F5930C94679ED7
:100470000C944C830C94DCE00C9447830C94F2FEB7
:100480000C948C7B0C9451970C94F7DD0C94D993BD
:100490000C94625B0C9438830C94E0E00C94FC3F69
:1004A0000C944AEE0C9486CA0C94A5C60C948497BE
:1004B0000C9460970C94EF930C94D94F0C940040DB
:1004C0000C945BC00C94F1DD0C94A0C60C94D5C6C2
:1004D0000C946A970C94D09A0C94C9C60C94CFC60D
:1004E0000C94CA530C945E4D0C94234C0C9499A11B
:1004F0004E414E494E495459494E46CDCCCC3D0A09
:10050000D7233C17B7D13877CC2B329595E6241FEB
:10051000B14F0A000020410000C84200401C4620A4
:10052000BCBE4CCA1B0E5AAEC59D7400407A10F377
:100530005A00A0724E18090010A5D4E80000E87611
:1005400048170000E40B54020000CA9A3B00000068
:10055000E1F505000080969800000040420F000081
:1005600000A08601000000102700000000E8030042
:100570000000006400000000000A0000000000010C
:1005800000000000002C76D888DC674F0823DFC10C
:10059000DFAE59E1B1B796E5E3E453C63AE65199C7
:1005A0007696E8E6C28426EB898C9B62ED407C6FF0
:1005B000FCEFBC9C9F40F2BAA56FA5F490055A2AA7
:1005C000F75C936B6CF9676DC11BFCE0E40D47FEB3
:1005D000F520E6B500D0ED902E03009435770500A8
:1005E00080841E080000204E0A000000C80C33332F
:1005F00033330F986E12831141EF8D2114893BE63E
:100600005516CFFEE6DB18D1844B381BF77C1D90C6
:100610001DA4BBE424203284725E228100C9F1242F
:10062000ECA1E53D27434F4D4D554E4943415449BB
:100630004F4E0044525952554E004552524F52535C
:1006400000494E464F004543484F0047322F47333D
:100650002062616420706172616D65746572730AF5
:1006600000536C6565702E2E2E004D6573682070EA
:100670006F696E742063616E6E6F742062652072A4
:1006800065736F6C7665640A004E6F204D6F7665FA
:100690002E00456E642066696C65206C6973740A6F
:1006A00000426567696E2066696C65206C697374C9
:1006B0000A00286E6F2066696C65290043757272A6
:1006C000656E742066696C653A2000534420707230
:1006D000696E74696E67206279746520004E6F746C
:1006E000205344207072696E74696E670A005072FC
:1006F000696E742074696D653A20000A53746174E0
:10070000733A2046696C616D656E7420757365641B
:100710003A20002C204C6F6E67657374206A6F62FC
:100720003A2000546F74616C2074696D653A200042
:100730002C204661696C65643A20002C2046696E65
:1007400069736865643A20005072696E74733A2068
:100750000053746174733A200045202553006F667E
:10076000660044454255473A004D313132205368C6
:100770007574646F776E004D3131332053005468C7
:10078000696E6B65722056325F424C204F46462E92
:10079000004348414D4245525F54454D50455241FA
:1007A00054555245004D4F54494F4E5F4D4F4445AF
:1007B0005300544845524D414C5F50524F544543AD
:1007C00054494F4E004155544F5245504F52545F7B
:1007D00053445F5354415455530050524F4D50545D
:1007E0005F535550504F525400454D455247454E6A
:1007F00043595F50415253455200434153455F4C6A
:10080000494748545F4252494748544E4553530064
:10081000544F47474C455F4C494748545300534F4A
:100820004654574152455F504F5745520042554933
:100830004C445F50455243454E54004C4556454C40
:10084000494E475F44415441005A5F50524F424520
:10085000004155544F4C4556454C005052494E545A
:100860005F4A4F420050524F475245535300415543
:10087000544F5245504F52545F54454D5000564FBF
:100880004C554D45545249430042494E4152595FDF
:1008900046494C455F5452414E53464552005345DC
:1008A0005249414C5F584F4E5F584F4646004649AB
:1008B000524D574152455F4E414D453A4D61726C24
:1008C000696E20322E302E78202847697448756270
:1008D0002920534F555243455F434F44455F55527E
:1008E0004C3A68747470733A2F2F67697468756234
:1008F0002E636F6D2F4D61726C696E4669726D77F4
:100900006172652F4D61726C696E2050524F544F69
:10091000434F4C5F56455253494F4E3A312E30208B
:100920004D414348494E455F545950453A546869D2
:100930006E6B65722056325F424C204558545255BA
:100940004445525F434F554E543A31205555494422
:100950003A63656465326132662D343161322D341B
:100960003734382D396231322D633535633632668E
:1009700033363766660A002F2F20004D313435207C
:10098000533C696E6465783E206F7574206F6620F5
:1009900072616E67652028302D31290A0020466C6F
:1009A0006F773A200050726F7465637465642050ED
:1009B000696E0A00206F7574206F662072616E6721
:1009C000650A0020536572766F2000496E76616C6F
:1009D00069642065787472756465720A0020693AEA
:1009E000006469730043290A0061626C6564202811
:1009F0006D696E2074656D702000436F6C642065B6
:100A00007874727564657320617265200046696C44
:100A1000616D656E742072756E6F757420004D3453
:100A2000323120696E636F72726563742070617217
:100A3000616D657465722075736167650A004F6644
:100A40006673657473204170706C696564004572EB
:100A5000723A20546F6F206661722100546F6F20CC
:100A60006661722066726F6D207265666572656E72
:100A7000636520706F696E740A00454550524F4D92
:100A8000204F4B0A00496E76616C69640A0056611A
:100A90006C69640A004E6F20504C520A00504C5250
:100AA000204578697374730A00506F7765722D6CF6
:100AB0006F7373207265636F7665727920004606E6
:100AC00041063A06330625064572726F7220777228
:100AD0006974696E6720746F20454550524F4D21EF
:100AE0000A00627573793A207061757365642066D7
:100AF0006F7220696E7075740A00627573793A209E
:100B000070617573656420666F7220757365720A13
:100B100000627573793A2070726F63657373696EE2
:100B2000670A004D363030004E6F20436865636BB6
:100B300073756D2077697468206C696E65206E75B9
:100B40006D6265722C204C617374204C696E653A3D
:100B50002000636865636B73756D206D69736D61EB
:100B60007463682C204C617374204C696E653A2064
:100B7000004C696E65204E756D6265722069732048
:100B80006E6F74204C617374204C696E65204E75D5
:100B90006D6265722B312C204C617374204C696E30
:100BA000653A20004D313130004D313137004D3341
:100BB000310053442072656164206572726F720A5D
:100BC00000446F6E65207072696E74696E6720668E
:100BD000696C650A004B494C4C2063617573656410
:100BE000206279204B494C4C20627574746F6E2FD3
:100BF00070696E0A004B494C4C20636175736564E3
:100C000020627920746F6F206D75636820696E6152
:100C100063746976652074696D65202D2063757233
:100C200072656E7420636F6D6D616E643A2000258D
:100C3000301D0C282924311C0B4527232F1B16445B
:100C400043212A193F40222B1A4142033809063614
:100C500003080206000125697920256964202569B9
:100C6000682025696D202569730042656420436F03
:100C70006F6C696E672E2E2E004265642048656198
:100C800074696E672E2E2E0023646566696E65207A
:100C900044454641554C545F004B6420004B69204D
:100CA000004B702000504944204175746F74756E7C
:100CB000652066696E6973686564212050757420CB
:100CC000746865206C617374204B702C204B692014
:100CD000616E64204B6420636F6E7374616E747315
:100CE0002066726F6D2062656C6F7720696E746F1D
:100CF00020436F6E66696775726174696F6E2E68E6
:100D00000A00504944204175746F74756E65206601
:100D100061696C6564212074696D656F75740A0082
:100D20000A20436C617373696320504944200A00B0
:100D3000204B643A2000204B693A2000204B703A47
:100D400020002054753A2000204B753A2000206D79
:100D500061783A2000206D696E3A200020643A20C4
:100D60000020626961733A20005049442041757443
:100D70006F74756E652073746172740A0050494413
:100D8000204175746F74756E65206661696C656469
:100D9000212054656D706572617475726520746F81
:100DA0006F20686967680A00504944204175746F74
:100DB00074756E65206661696C65642120426164AA
:100DC000206578747275646572206E756D626572E7
:100DD0000A004572723A207574663820666F6E7428
:100DE000206E6F7420696E697469616C697A6564DC
:100DF0002E00000C0D00FE07022603BC017FFE083A
:100E0000FE08FE05080806000040F0C888889878AB
:100E100010050808060000C0F88888888888F8054A
:100E200005050600012030F83020050808060000FE
:100E30002070F820202020E00509090600FF20701E
:100E4000A8A8B888887020050606060001E08CEA8C
:100E50008C8A0A0509090600FFF8A888888888880E
:100E6000A8F8050A0A0600FE205050505088A8A88D
:100E7000887003030306000340A040FFFFFFFFFF4D
:100E8000FFFFFFFFFFFFFFFFFFFFFFFFFFFFFFFF72
:100E9000FF0000000605FF010707060200808080B2
:100EA00080800080030303060105A0A0A0050606BC
:100EB00006000050F85050F8500509090600FF20C0
:100EC00070A8A07028A87020050707060000C8C8F1
:100ED000102040989805070706000040A0A040A8F1
:100EE000906801030306020580808003090906015A
:100EF000FF2040408080804040200309090601FF18
:100F00008040402020204040800507070600002048
:100F1000A8702070A8200505050600012020F820F3
:100F2000200203030601FFC0408005010106000303
:100F3000F8020202060100C0C0050707060000080B
:100F4000101020404080050707060000708898A810
:100F5000C8887003070706010040C040404040E0D9
:100F6000050707060000708808102040F8050707ED
:100F7000060000F808103008887005070706000012
:100F800010305090F81010050707060000F880F0A8
:100F900008088870050707060000304080F0888840
:100FA00070050707060000F808101020202005072C
:100FB000070600007088887088887005070706009B
:100FC0000070888878081060020505060100C0C01E
:100FD00000C0C00206060601FFC0C000C04080037A
:100FE000050506010120408040200503030600029C
:100FF000F800F80305050601018040204080050740
:101000000706000070881020200020050707060052
:10101000007088B8A8B880700507070600007088BF
:1010200088F8888888050707060000F04848704857
:1010300048F00507070600007088808080887005EA
:101040000707060000F04848484848F0050707062B
:101050000000F88080F08080F8050707060000F89F
:101060008080F080808005070706000070888080FF
:10107000988870050707060000888888F88888889F
:10108000030707060100E04040404040E005070735
:1010900006000038101010109060050707060000C9
:1010A0008890A0C0A0908805070706000080808077
:1010B000808080F805070706000088D8A8888888FF
:1010C000880507070600008888C8A898888805074B
:1010D0000706000070888888888870050707060062
:1010E00000F08888F080808005070706000070887F
:1010F0008888A89068050707060000F08888F0A097
:1011000090880507070600007088807008887005C1
:101110000707060000F820202020202005070706EA
:10112000000088888888888870050707060000887E
:10113000888888505020050707060000888888881E
:10114000A8A8500507070600008888502050888806
:101150000507070600008888502020202005070783
:10116000060000F80810204080F80309090601FF76
:10117000E080808080808080E00507070600008096
:101180004040201010080309090601FFE02020203C
:1011900020202020E00503030600052050880501DB
:1011A000010600FEF8030303060105804020050543
:1011B000050600007008788878050707060000809B
:1011C00080F0888888F0050505060000708080881A
:1011D00070050707060000080878888888780505E4
:1011E000050600007088F0807005070706000030D3
:1011F0004840E04040400507070600FE70888888A8
:101200007808700507070600008080F088888888C5
:101210000307070601004000C0404040E004090900
:101220000601FE1000301010101090600507070630
:10123000000080808890E09088030707060100C0C6
:101240004040404040E0050505060000D0A8A8A8A1
:10125000A8050505060000B0C888888805050506AC
:10126000000070888888700507070600FEF08888EF
:1012700088F080800507070600FE7888888878084F
:1012800008050505060000B0C88080800505050634
:10129000000078807008F00507070600002020F89D
:1012A0002020201805050506000088888898680514
:1012B0000505060000888888502005050506000001
:1012C0008888A8A850050505060000885020508889
:1012D0000507070600FE8888885020408005050520
:1012E000060000F8102040F80309090601FF20401D
:1012F000404080404040200109090602FF80808074
:101300008080808080800309090601FF8040404082
:10131000204040408005030306000248A890FF4C8F
:101320006F6164206D6D00556E6C6F6164206D6D32
:101330000046696C2E204469612E004520696E20AC
:101340006D6DC2B300200820466163740020082040
:101350004D6178002008204D696E004175746F74EE
:10136000656D70005654726176204D696E00566D41
:10137000696E00566D6178204500566D6178205A7F
:1013800000566D6178205900566D61782058004FE5
:101390007574616765205265636F76657279004385
:1013A0006F6E66696775726174696F6E00256C6433
:1013B0002E25696D00457874727564656420546FDC
:1013C00074616C004C6F6E67657374204A6F6220A5
:1013D00054696D65003E2000546F74616C2050723A
:1013E000696E742074696D6500436F6D706C65740F
:1013F0006564005072696E7420436F756E740031BD
:101400003530004245443A486973656E732033397C
:1014100035300052756E6177617920576174636869
:101420003A204F4E004D61782054656D7000323780
:1014300035004D696E2054656D700045313A204885
:101440006973656E7320333935300050535500474A
:10145000656E657269630050726F746F636F6C00C4
:10146000312E30004261756400323530303030004A
:1014700052616D626F0042696C696E656172204CE9
:101480006576656C696E670045787472756465721F
:1014900073005468696E6B65722056325F424C006F
:1014A000323031392D31322D3031005072696E7445
:1014B000657220537461747300546865726D69734A
:1014C000746F727300426F61726420496E666F00C0
:1014D0005072696E74657220496E666F004D3130CE
:1014E00030300053746F70205072696E7400526512
:1014F00073756D65205072696E740053746F70005F
:101500004D3231004368616E6765204D65646961E5
:101510000041626F7574205072696E746572004E7E
:101520006F204D656469610054756E6500496E6693
:101530006F2053637265656E005761697420666F32
:10154000720066696C616D656E74206368616E67B8
:101550006500746F20737461727400576169742040
:10156000666F720066696C616D656E7420756E6C75
:101570006F616400004E6F7A7A6C652068656174F3
:10158000696E6700506C6561736520776169742EC0
:101590002E2E0000507265737320627574746F6E26
:1015A00000746F2068656174206E6F7A7A6C6500D4
:1015B00000496E736572742066696C616D656E7446
:1015C00000616E6420707265737320627574746F4D
:1015D0006E00746F20636F6E74696E75650057617D
:1015E000697420666F720066696C616D656E742047
:1015F0006C6F61640000507265737320427574747F
:101600006F6E00746F20726573756D6520707269FE
:101610006E7400005761697420666F722070726981
:101620006E7400746F20726573756D652E2E2E00BA
:10163000005761697420666F720066696C616D6540
:101640006E7420707572676500004572723A204DA5
:10165000415854454D50004D415854454D5020740B
:101660007269676765726564004572723A204D4918
:101670004E54454D50004D494E54454D50207472C6
:1016800069676765726564004D38342058205920B9
:101690005A204500202F002042403A0020403A00C6
:1016A00020573A007C3C3E5E2B3D3F2F5B5D3B2C40
:1016B0002A225C002062797465733B206372632088
:1016C0000053657474696E67732053746F72656438
:1016D000202800454550524F4D2064617461736964
:1016E0007A65206572726F722E0A002073746F72B1
:1016F00065642073657474696E67732072657472B3
:101700006965766564202800202863616C63756CC8
:101710006174656429210A0020213D20004545505F
:10172000524F4D20435243206D69736D617463685D
:10173000202D202873746F726564292000496E641F
:1017400065783A2000204D61726C696E3D563734E1
:10175000290A00454550524F4D2076657273696FD6
:101760006E206D69736D6174636820284545505221
:101770004F4D3D0000000000000000000000000090
:101780000000000000000000000000000000000059
:101790000000000000000000000000000000000049
:1017A0000000000000000000000000000000000039
:1017B0000000000000000000000000000000000029
:1017C0000000000000000000000000000000000019
:1017D0000000000000000000000000000000000009
:1017E00000000000000000000000000000000000F9
:1017F00000000000007FFF0FFF0000001F8060035B
:101800000FFFE000007FFF1FFF8700383FC070031D
:101810000FFFE000007FFE1FFFC300387FE078036A
:101820000FFFE0000000001801C30030F0F0780363
:10183000000000000000001800E30030E0787C03A6
:10184000000000000000001800638071C0386E03C3
:10185000000000000000001800E38071801867039A
:10186000000000000000001800C1E1E1801C6703D7
:1018700000000000007FFE1FFFC1FFE3801C630328
:1018800007FFC000007FFF1FFFC07F83801C600335
:101890000FFFE000007FFF1FFF803F03801C6003FD
:1018A0000FFFE0000000001801C00C03801C603333
:1018B000000000000000001800C00C018018603B10
:1018C000000000000000001800C00C01C018603BC0
:1018D000000000000000001800C00C01C038601FAC
:1018E000000000000000001800C00C00E070600F55
:1018F000000000000000001800C00C0079F0600F2C
:1019000000000000007FFF1800C00C007FE06007AF
:101910000FFFE000007FFF1800C00C001F80600375
:101920000FFFE000007FFE0800C004000F00200150
:101930000FFFE000000000000000000000000000B9
:101940000000000000000000000000000000000097
:101950000000000000000000000000000000000087
:101960000000000000000000000000000000000077
:101970000000000000000000000000000000000067
:101980000000000000000000000000000000000057
:101990000000000000000000000000000000000047
:1019A0000000000000000000000000000000000037
:1019B0000000000000000000000000000000000027
:1019C0000000000000000000000000000000000017
:1019D000000000000000000C0300040000000000F4
:1019E0000000000000003FEC030004000000C0679E
:1019F000C00000000000020C000004000000404491
:101A0000600000000000020C00000400000060C044
:101A1000600000000000020DE3378471E36020C025
:101A2000200000000000020E3338C4C33380308031
:101A3000600000000000020C3330C48613003180C7
:101A4000400000000000020C3330C50613001101F5
:101A5000C00000000000020C3330C707F300190378
:101A6000800000000000020C3330C58403001B0618
:101A7000000000000000020C3330C4C603000A0C52
:101A8000000000000000020C3330C46313000E0C91
:101A9000000000000000020C3330C431E3000E0FE0
:101AA000E000000000000000000000000000000056
:101AB0000000000000000000000000000000000026
:101AC0000000000000000000000000000000000016
:101AD0000000000000000000000000000000000006
:101AE00000000000000000000000000000000000F6
:101AF00000000000000000000000000000000000E6
:101B000000000000000000000000000000000000D5
:101B100000000000000000000000000000000000C5
:101B200000000000000000000000000000000000B5
:101B300000000000000000000000000000000000A5
:101B40000000000000000000000000000000000095
:101B50000000000000000000000000000000000085
:101B60000000000000000000000000000000000075
:101B70000000000001FFFFFFFFFFFFFFFFFFFFFF6F
:101B8000FFFF0FFFFFFFFFFFFFFFFFFFFFFFFFFF55
:101B90001E0000000000000000000007FFFF3800EA
:101BA00000000000000000000003FFFF70000000C4
:101BB0000000000000000001FFFF600000000000C6
:101BC000000000000000FFFF6000000000000000B7
:101BD000000000007FFFC00000000000000000784F
:101BE00000003FFFC00FC0FC00000000007818009C
:101BF0001FFFC03FE1FF0000000000783C000FFF26
:101C0000C07FF3FF8000000000783C0007FFC0FFAA
:101C1000FFFFC000000000783C0003FFC1F87F8791
:101C2000E00000000078000001FFC1F03F03E00089
:101C300000000078000000FFC1E01E01E01F00036B
:101C4000E0783C03F07FC1E01E01E07FC00FF87830
:101C50003C07FC3FC1E01E01E1FFE01FFC783C0FA8
:101C6000FE1FC1E01E01E3FFF03FFE783C1FFE0FA8
:101C7000C1E01E01E3F3F83F3E783C3F3F07C1E07F
:101C80001E01E7E0FC7C1F783C3E1F07C1E01E01FF
:101C9000E7C07C7C0F783C3C0F03C1E01E01E7806D
:101CA0007C780F783C3C0F03C1E01E01E7803C7854
:101CB00000783C3C0F03C1E01E01E7803C780078CF
:101CC0003C3C0F03C1E01E01E7803C7800783C3CBF
:101CD0000F03C1E01E01E7C03C7800783C3C0F03D5
:101CE000C1E01E01E3E03C78007C3C3C0F03C1E016
:101CF0001E01E3FF3FF8007FBC3C0F03C1E01E0163
:101D0000E1FF3FF8003FBFFC0F03C1E01E01E0FF11
:101D10003FF8001FBFFC0F03C1E01E01E07F3FF84A
:101D2000000FBFFC0F036000000000000000000077
:101D3000000000076000000000000000000000003C
:101D40000006700000000000000000000000000E0F
:101D5000380000000000000000000000001C1E0011
:101D60000000000000000000000000780FFFFFFFEF
:101D7000FFFFFFFFFFFFFFFFFFF001FFFFFFFFFF80
:101D8000FFFFFFFFFFFFFF80687474703A2F2F6D15
:101D900061726C696E66772E6F726700322E302E1C
:101DA00078004D31303030205300205049445F647A
:101DB000543A0020643A002069693A0020703A00E1
:101DC0002020506C616E6E65724275666665724267
:101DD000797465733A20002046726565204D656D03
:101DE0006F72793A2000436F6D70696C65643A20B8
:101DF0004F637420203920323032300A00204C6189
:101E0000737420557064617465643A2032303139DE
:101E10002D31322D3031207C20417574686F723A3B
:101E200020286E6F6E652C2064656661756C742069
:101E3000636F6E666967290A00322E302E780A00B9
:101E40004D61726C696E0020536F667477617265C4
:101E50002052657365740A00205761746368646F6B
:101E6000672052657365740A002042726F776E2096
:101E70006F75742052657365740A00204578746527
:101E8000726E616C2052657365740A00506F7765DD
:101E90007255700A006175746F25632E67004732B2
:101EA000385859006572726F722077726974696E62
:101EB0006720746F2066696C650A00446F6E652048
:101EC000736176696E672066696C652E0A004D3213
:101ED0003900456E6473746F707300255320256359
:101EE00020256320256320256300205A3A002059CD
:101EF0003A00656E6473746F7073206869743A2079
:101F00000024F4D43050C38E20C2A24017828B70BC
:101F100011127A910D816CD90AA861E108C758663F
:101F200007615143061E4B5D05C145A7041A4111C7
:101F300004093D9803713931034036DB0265339162
:101F400002D4305402802E1D02632CEE01752AC586
:101F500001B028A001102781018F2564012B244B9B
:101F600001E0223401AC211F018D200D01801FFCF6
:101F700000841EED00971DDF00B81CD200E61BC6D2
:101F800000201BBC00641AB200B219A8000A19A0F4
:101F9000006A189900D117910040178B00B516847C
:101FA0000031167E00B31579003A157300C7146F1F
:101FB0000058146A00EE1366008813630025135E50
:101FC00000C7125B006C12570015125400C111516A
:101FD0000070114F0021114B00D61049008D1047A1
:101FE000004610440002104200C00F4000800F3E27
:101FF00000420F3C00060F3B00CB0E3800930E371B
:10200000005C0E3500270E3400F30D3200C10D3197
:1020100000900D3000600D2E00320D2D00050D2CAE
:1020200000D90C2B00AE0C2900850C29005C0C2774
:1020300000350C27000E0C2600E80B2400C40B24EE
:1020400000A00B23007D0B23005A0B2100390B212C
:1020500000180B2000F80A1F00D90A1E00BB0A1E38
:10206000009D0A1D00800A1D00630A1C00470A1B10
:10207000002C0A1B00110A1A00F7091A00DD0919C1
:1020800000C4091900AB091900920917007B09184F
:1020900000630917004C09160036091600200916BE
:1020A000000A091500F5081500E0081400CC081412
:1020B00000B8081400A4081400900813007D08124A
:1020C000006B08130058081200460812003408116B
:1020D00000230811001208110001081100F0071078
:1020E00000E0071000D0071000C0071000B0070F75
:1020F00000A107100091070E0083070F0074070F5F
:102100000065070E0057070E0049070E003B070D3C
:10211000002E070E0020070D0013070D0006070D07
:1021200000F9060C00ED060D00E0060C00D4060CCC
:1021300000C8060C00BC060C00B0060C00A4060B80
:102140000099060C008D060B0082060B0077060B2B
:10215000006C060B0061060A0057060B004C060ACD
:102160000042060A0038060A002E060A0024060A63
:10217000001A060A001006090007060A00FD0509F4
:1021800000F4050900EB050900E2050900D905097D
:1021900000D0050900C7050900BE050900B50508FE
:1021A00000AD050800A50509009C05080094050878
:1021B000008C050800840508007C050800740508EB
:1021C000006C050700650508005D05070056050859
:1021D000004E0507004705070040050800380507C1
:1021E00000310507002A050700230507001C050626
:1021F00000160507000F0507000805060002050781
:1022000000FB040600F5040700EE040600E80406DF
:1022100000E2040700DB040600D5040600CF040634
:1022200000C9040600C3040600BD040600B7040686
:1022300000B1040500AC040600A6040600A00405D5
:10224000009B04060095040500900406008A04051E
:102250000085040500800406007A04050075040565
:1022600000700405006B04050066040500610405A8
:10227000005C04050057040500520405004D0405E8
:102280000048040500430405003E0404003A040528
:102290000035040500300404002C04050027040464
:1022A00000230405001E0404001A0404001604059B
:1022B00000110404000D04040009040500040404D2
:1022C0000000040400FC030400F8030400F4030409
:1022D00000F0030400EC030400E8030400E403043A
:1022E00000E0030400DC030400D8030400D403046A
:1022F00000D0030400CC030400C8030300C503039B
:102300000024F404D9201BC40C5C0E9804C4095F9B
:102310000265077101F405F900FB04B30048048766
:1023200000C10369005803550003034500BE023A8B
:10233000008402310053022A0029022500040220F1
:1023400000E4011C00C8011900AF01170098011436
:102350000084011300710110006101100051010E91
:102360000043010D0036010B002B010B0020010B77
:1023700000150109000C01090003010800FB000819
:1023800000F3000800EB000700E4000600DE000692
:1023900000D8000600D2000600CC000500C70005EA
:1023A00000C2000500BD000400B9000400B500042F
:1023B00000B1000400AD000400A9000400A5000362
:1023C00000A20003009F0004009B0003009800038C
:1023D000009500020093000300900003008D0002AE
:1023E000008B0003008800020086000200840003C6
:1023F00000810002007F0002007D0002007B0002DD
:1024000000790002007700010076000200740002EB
:102410000072000100710002006F0002006D0001F7
:10242000006C0002006A0001006900020067000100
:102430000066000100650001006400020062000106
:102440000061000100600001005F0002005D00010A
:10245000005C0001005B0001005A0001005900010E
:10246000005800010057000100560001005500010E
:10247000005400010053000000530001005200010D
:102480000051000100500001004F0001004E00000B
:10249000004E0001004D0001004C0001004B000007
:1024A000004B0001004A0001004900010048000003
:1024B00000480001004700010046000000460001FE
:1024C00000450000004500010044000100430000F9
:1024D00000430001004200000042000100410000F2
:1024E0000041000100400001003F0000003F0001EA
:1024F000003E0000003E0001003D0000003D0001E4
:10250000003C0000003C0000003C0001003B0000DB
:10251000003B0001003A0000003A000100390000D1
:1025200000390001003800000038000000380001C8
:1025300000370000003700010036000000360000C0
:1025400000360001003500000035000000350001B4
:1025500000340000003400000034000100330000AB
:1025600000330000003300010032000000320000A0
:102570000032000100310000003100000031000194
:10258000003000000030000000300001002F00008B
:10259000002F0000002F0000002F0001002E00007F
:1025A000002E0000002E0001002D0000002D000074
:1025B000002D0000002D0001002C0000002C000068
:1025C000002C0000002C0001002B0000002B00005C
:1025D000002B0000002B0001002A0000002A000050
:1025E000002A0000002A0001002900000029000044
:1025F0000029000000290000002900010028000037
:102600000028000000280000002800000028000129
:10261000002700000027000000270000002700001E
:102620000027000100260000002600000026000010
:102630000026000000260001002500000025000003
:1026400000250000002500000025000000250001F5
:1026500000240000002400000024000000240000EA
:1026600000240001002300000023000000230000DC
:1026700000230000002300000023000000230001CD
:1026800000220000002200000022000000220000C2
:1026900000220000002200010021000000210000B3
:1026A00000210000002100000021000000210000A6
:1026B0000021000100200000002000000020000098
:1026C000002000000020000000200000002000008A
:1026D00000200001001F0000001F0000001F00007C
:1026E000001F0000001F0000001F0000001F00016D
:1026F000001E0000001E0000001E0000001E000062
:1027000000043700001E290000511B000058100073
:102710000010090000CC0400007802000041010014
:10272000002053697A653A200043616E6E6F742011
:102730006F70656E20737562646972200053442067
:1027400063617264206F6B0A006F70656E526F6F09
:1027500074206661696C65640A00766F6C756D65DE
:102760002E696E6974206661696C65640A00534461
:1027700020696E6974206661696C0A004D323320ED
:1027800025730057726974696E6720746F206669DB
:102790006C653A200046696C652073656C656374EE
:1027A00065640A0046696C65206F70656E65643A01
:1027B0002000667265736800646F696E67004E6F13
:1027C000772000454E4420535542524F5554494EB0
:1027D000450A002220706F73002220706172656EBE
:1027E000743A2200535542524F5554494E452043A6
:1027F000414C4C207461726765743A22007472799E
:10280000696E6720746F2063616C6C207375622D34
:1028100067636F64652066696C65732077697468A7
:1028200020746F6F206D616E79206C6576656C73B6
:102830002E204D4158206C6576656C2069733A31C5
:102840000A0044656C6574696F6E206661696C6529
:10285000642C2046696C653A200046696C652064EA
:10286000656C657465643A00506F7765722D6C6FA6
:1028700073732066696C652064656C6574650054CB
:10288000656D70657261747572650050726F626516
:10289000205A204F6666736574004E6F7A7A6C65B5
:1028A000004D61696E005072656865617420504C1E
:1028B0004120426564005072656865617420504C27
:1028C0004120456E64005072656865617420414224
:1028D0005320456E64005072656865617420414202
:1028E000532042656400436F6F6C646F776E0046DF
:1028F000616E205370656564203D00466C6F770003
:1029000000000000000000000000000000009643EE
:10291000000096430000C8430000484200004842BF
:10292000000080400202040000A0400000A040001F
:10293000000040FFFFFF486F6D696E6720466169C8
:102940006C6564005761726E696E673A20486F6DFE
:10295000696E672042756D702044697669736F7285
:10296000203C20310A0000002100240027002A001A
:102970002D003000330001010000040107010A01AD
:1029800000002200250028002B002E00310034001A
:1029900002010000050108010B01000020002300D6
:1029A000260029002C002F00320000010000030146
:1029B00006010901050505050705080808080202C2
:1029C00002020A0A080804040404010101010101C9
:1029D00001010303030303030303040707070C0CAC
:1029E0000C0C0C0C0C0C0202020206060606060673
:1029F00006060B0B0B0B0B0B0B0B07070A0A0A0A3D
:102A00000A0A05050504040408080102102020082C
:102A10000810204010204080020102010804020139
:102A200001020408102040808040201008040201A8
:102A30008004020180402010080402010804020101
:102A40000102040810204080010204081020408088
:102A500010080408801020400440801020400480AA
:102A600000000A0B02090C0D0E0807030401000008
:102A70000000000000000000000000000000000056
:102A80000000000000000000000000001211100013
:102A90000000000000000000000000000000000036
:102AA0000000000000000000000000000000000026
:102AB0000000000000004D6F76652025736D6D00ED
:102AC0004D6F766520302E316D6D004D6F7665202F
:102AD000316D6D004D6F76652031306D6D004D6F3D
:102AE0007665204178697300486F74656E64207460
:102AF0006F6F20636F6C64004578747275646572E3
:102B0000004D6F7665205A004D6F76652059004D57
:102B10006F76652058004368616E67652046696C72
:102B2000616D656E7400556E6C6F61642046696CF2
:102B3000616D656E74004C6F61642046696C616DF7
:102B4000656E74005072656865617420414253007F
:102B50005072656865617420504C41005072656820
:102B600065617420437573746F6D004261636B001F
:102B7000496E6974004D34323800496E6974696178
:102B80006C697A6520454550524F4D00537465700D
:102B9000732F6D6D00416363656C65726174696F5D
:102BA0006E0056656C6F63697479005365742048D4
:102BB0006F6D65204F66667365747300466164656A
:102BC00020486569676874004732380A473239001F
:102BD0004C6576656C2042656400436D643A205311
:102BE000746F7700436D643A204465706C6F7900B0
:102BF000436D643A2053656C662D546573740043CD
:102C00006D643A20526573657400436D643A2053D5
:102C1000572D4D6F64650046616E20537065656485
:102C2000002568753A25303268750025687564207E
:102C300025303268753A2530326875002020202012
:102C400020202000256C6425636D001FE0201020EB
:102C500010201010201020201020103030084004C8
:102C60008003001FE03FF03FF03FF01FE01FE03F18
:102C7000F03FF03FF00FC0078003003FFFF0380047
:102C80007030FC3020FC102078102030102C00D048
:102C90002E31D02F7BD02F7BD02E31D02C00D020C6
:102CA000301020781020FC1030FC303800703FFFCE
:102CB000F03FFFF03800703186302387102787906F
:102CC0002F87D02F03D020301020781020781020AC
:102CD00030102F03D02F87D027879023871031867D
:102CE000303800703FFFF01FFFF81FFFF80410405E
:102CF0000208200208200410400820801041001023
:102D000041000820800410400000001FFFF81FFF52
:102D1000F820746F6F206C6F6E6720657874727521
:102D200073696F6E2070726576656E7465640A00F3
:102D300020636F6C6420657874727573696F6E20A0
:102D400070726576656E7465640A00220A00556EBD
:102D50006B6E6F776E20636F6D6D616E643A2022CB
:102D6000004D32342053256C642054256C64004798
:102D700039322E392045257300473120462564001D
:102D80004739322E39205A2573004731205A3020D6
:102D900046323030004731205825732059257320A2
:102DA0004633303030004D34323020532569205ABC
:102DB0002573004D31303620502569205325690098
:102DC0004739322E392045305A300A47315A320AB3
:102DD00047323852305859004D3130392053256927
:102DE000004D31393020532569004D3230302044B8
:102DF0002573004D343230205330205A300020509B
:102E00006F7765722D4C6F7373205265636F7665B3
:102E1000727920446174610A00496E76616C69645C
:102E2000004E6F0020496E76616C6964206578748D
:102E3000727564657220004C6F6164205365747410
:102E4000696E67730053746F72652053657474699B
:102E50006E677300416476616E63656420536574C8
:102E600074696E6773004F6666004F6E00554E4C76
:102E70004F41442046494C414D454E540046494C33
:102E8000414D454E54204348414E474500526573DD
:102E9000746F7265206661696C736166650050725B
:102EA00065686561742041425320436F6E6600502F
:102EB00072656865617420504C4120436F6E6600F6
:102EC00052756E6F75742053656E736F7200424C4D
:102ED000546F756368004D37303220542564004DBF
:102EE00036303020423020542564004D37303220B7
:102EF0003B2564004D37303120542564004D373078
:102F000032004D373031004D3630302042300050E5
:102F100075726765206D6F726500436F6E74696EC0
:102F2000756500524553554D45204F5054494F4EFD
:102F3000533A005052494E54205041555345440095
:102F400020204E6F7A7A6C653A20005061726B696E
:102F50006E672E2E2E0000003F0043616E63656C8D
:102F6000004D6F74696F6E004175746F20486F6D0E
:102F700065005374617274205072696E740043610D
:102F80006E6E6F7420656E7465722073756264690D
:102F9000723A2000022E2E004D38340044697361CD
:102FA000626C6520537465707065727300473238C7
:102FB000205A00486F6D65205A004732382059006A
:102FC000486F6D65205900473238205800486F6DB2
:102FD0006520580047323800486F74656E6420746D
:102FE0006F6F20636F6C640A004D3630303A2054A6
:102FF0006F6F20436F6C640050726573732062754D
:1030000074746F6E20746F20726573756D650A003D
:10301000507265737320627574746F6E20746F20C4
:1030200068656174206E6F7A7A6C650A004C6F6116
:103030006400506F7765722D6C6F73732066696CD6
:103040006520636C6F7365206661696C65642E0A28
:1030500000506F7765722D6C6F73732066696C65B5
:10306000207772697465206661696C65642E0A0058
:103070005772697465002D2D2D0A00494E56414C3A
:10308000494420444154410A007072696E745F6A79
:103090006F625F656C61707365643A200073647081
:1030A0006F733A200073645F66696C656E616D656D
:1030B0003A20000A20666164653A20006C657665F6
:1030C0006C696E673A200066616E5F737065656457
:1030D0003A20007461726765745F74656D70657223
:1030E00061747572655F6265643A2000746172672D
:1030F00065745F74656D70657261747572653A2090
:103100000066656564726174653A2000706F73696A
:1031100074696F6E5F73686966743A2000686F6DDA
:10312000655F6F66667365743A20006375727265D9
:103130006E745F706F736974696F6E3A20002076E9
:10314000616C69645F666F6F743A00204A6F622039
:103150005265636F7665727920496E666F2E2E2EEA
:103160000A76616C69645F686561643A004F46463F
:103170000A004661646520486569676874200042FA
:103180006564204C6576656C696E672000466169F0
:103190006C656420746F20656E61626C65204265A9
:1031A00064204C6576656C696E670A00496E7661CD
:1031B0006C6964206D6573682E0A0050726F6269D5
:1031C0006E6720506F696E740025532025692F2586
:1031D000690050726F62696E67206D657368207058
:1031E0006F696E742000202844525952554E2900B0
:1031F000473239204175746F20426564204C6576F2
:10320000656C696E67003F20284C2C522C462C427E
:1032100029206F7574206F6620626F756E64732E3F
:103220000A003F2856296572626F7365206C6576C7
:10323000656C20696D706C61757369626C652028BE
:10324000302D34292E0A00426164205A2076616CA8
:1032500075650A004E6F2062696C696E6561722047
:10326000677269640A00416363656C6572617469C1
:103270006F6E3A2050005741524E494E4721204C24
:103280006F77205A204A65726B206D6179206C65DA
:10329000616420746F20756E77616E746564207050
:1032A00061757365732E0A00204D39322058002055
:1032B000204D61783A200020204D696E3A2000535D
:1032C0006F667420656E6473746F70733A2000418A
:1032D0006D6178204500416D6178205A00416D6133
:1032E00078205900416D6178205800412D54726159
:1032F00076656C00412D52657472616374004163A0
:1033000063656C0056652D4A65726B00565A2D4AEE
:1033100065726B0056592D4A65726B0056582D4ADE
:1033200065726B004573746570732F6D6D005A7311
:10333000746570732F6D6D005973746570732F6DA4
:103340006D005873746570732F6D6D0020540020EC
:10335000520048617264636F64656420446566610D
:10336000756C742053657474696E6773204C6F615B
:103370006465640A0020204D363033200020204D43
:1033800034313220530046696C616D656E74207271
:10339000756E6F75742073656E736F723A0A0020D4
:1033A000550046696C616D656E74206C6F61642FA9
:1033B000756E6C6F6164206C656E677468733A0A31
:1033C0000020204D3835312058005A2D50726F6240
:1033D00065204F66667365740020204D34313320BC
:1033E0005300506F7765722D4C6F73732052656375
:1033F0006F766572793A0A0020204D3330312050C3
:10340000005049442073657474696E67733A0A000A
:1034100020460020480020204D3134352053004DF7
:103420006174657269616C20686561747570207083
:103430006172616D65746572733A0A00204A0020FA
:1034400020473239205720490020204D3432302087
:1034500053004175746F20426564204C6576656C3D
:10346000696E673A0A0020204D32303620580048F5
:103470006F6D65206F66667365743A0A0020204D93
:1034800032303520420020453C6D61785F655F6ACF
:1034900065726B3E0020583C6D61785F785F6A65AD
:1034A000726B3E20593C6D61785F795F6A65726B23
:1034B0003E205A3C6D61785F7A5F6A65726B3E00B0
:1034C000416476616E6365643A20423C6D696E5F6B
:1034D0007365676D656E745F74696D655F75733E66
:1034E00020533C6D696E5F66656564726174653E0C
:1034F00020543C6D696E5F74726176656C5F6665C1
:103500006564726174653E0020204D323034205075
:1035100000416363656C65726174696F6E20287524
:103520006E6974732F7332293A20503C7072696E41
:10353000745F616363656C3E20523C7265747261B6
:1035400063745F616363656C3E20543C74726176A2
:10355000656C5F616363656C3E0A0020204D32300C
:10356000312058004D6178696D756D204163636548
:103570006C65726174696F6E2028756E6974732F43
:103580007332293A0A0020204D3230332058004D42
:103590006178696D756D20666565647261746573C7
:1035A0002028756E6974732F73293A0A0053746565
:1035B00070732070657220756E69743A0A0020205D
:1035C0004D3230302044300A0020204D323030203F
:1035D00044002044697361626C65640A0046696C4A
:1035E000616D656E742073657474696E67733A00FB
:1035F00020204D3134392043203B20556E697473AF
:1036000020696E2043656C736975730A0020286D0C
:103610006D29002020473231202020203B20556E8C
:1036200069747320696E206D6D006F70656E005453
:1036300052494747455245440066696C616D656E65
:1036400074007A5F6D696E00795F6D696E00785FF6
:103650006D696E005265706F7274696E6720656E79
:103660006473746F70207374617475730A002043FF
:103670006F756E7420583A0020453A00000096435A
:103680000000964300000C420000C8410000A04228
:103690000000A0420000C8430000BA42DC05000060
:1036A000DC05000096000000DC0500004D69637237
:1036B0006F737465707320756E617661696C616299
:1036C0006C650A0045313A200045303A20004D53E0
:1036D000312C4D53322C4D53332050696E730A58A0
:1036E0003A2000453100626564002C2073797374C0
:1036F000656D2073746F7070656421204865617416
:1037000065725F49443A200048656174696E6720BC
:103710004661696C65640048656174696E6720661E
:1037200061696C656400202D20496E76616C696466
:10373000206578747275646572206E756D6265724D
:1037400020210A00544845524D414C2052554E41CB
:1037500057415900546865726D616C2052756E61F5
:10376000776179000040012C0173012201AB01183F
:1037700001F3010E0148020401AC02FA002A03F031
:1037800000C303E6008004DC006D05D2006C06C8AF
:1037900000C707BE007009B4006D0BAA00CB0DA0D6
:1037A00000CF138C00F21B7800E9246400142E5023
:1037B000009C353C00B83A2800A03D14000B3F00A7
:1037C000005072696E7420506175736564005061B9
:1037D000757365205072696E74004D65646961206F
:1037E00052656D6F766564004D6564696120496E50
:1037F000736572746564005468696E6B65722056F7
:10380000325F424C2052656164792E005072696EBD
:1038100074696E672E2E2E005072696E742041629C
:103820006F72746564004D323520500A4D32340099
:103830006F70656E206661696C65642C2046696CEA
:10384000653A2000506C656173652052657365743C
:10385000005052494E5445522048414C5445440072
:1038600025533A202553004B494C4C45442E20000B
:103870005072696E7465722068616C7465642E2084
:103880006B696C6C28292063616C6C6564210A008B
:103890006563686F3A004572726F723A0042696CF4
:1038A000696E656172204C6576656C696E6720474C
:1038B0007269643A0A0053544F505045442E200018
:1038C0005072696E7465722073746F7070656420D5
:1038D00064756520746F206572726F72732E204656
:1038E000697820746865206572726F7220616E64F9
:1038F00020757365204D39393920746F20726573D6
:10390000746172742E202854656D706572617475CF
:1039100072652069732072657365742E2053657417
:1039200020697420616674657220726573746172B7
:1039300074696E67290A0053544F502063616C6CA0
:1039400065642062656361757365206F6620424C13
:10395000546F756368206572726F72202D207265D6
:1039600073746172742077697468204D3939390A2B
:10397000004361703A00436C69636B20746F20529E
:103980006573756D652E2E2E0050726F6265204F27
:103990006666736574205A0050726F6265204F66C8
:1039A000667365745A3A20003F5A206F7574206F11
:1039B000662072616E67652028003F59206F75741C
:1039C000206F662072616E676520282D0020746F5D
:1039D00020003F58206F7574206F662072616E67FB
:1039E0006520282D0050726F6265204F66667365F2
:1039F00074205800656E7175657565696E67202263
:103A0000006F6B00526573656E643A2000507269F6
:103A10006E742066726F6D204D6564696100205A76
:103A20003A200020593A200042656420583A20008C
:103A3000496E736572742066696C616D656E742081
:103A4000616E6420707265737320627574746F6E3A
:103A50000A0050726F62696E67204661696C656426
:103A60000A0050726F62696E67204661696C656416
:103A700000486F6D65202573257325732046697294
:103A8000737400000001D00111241FBECFEFD1E2FA
:103A9000DEBFCDBF00E00CBF13E0A0E0B2E0E2E784
:103AA000F9E702E00BBF02C007900D92A036B10704
:103AB000D9F726E1A0E6B3E001C01D92A438B20711
:103AC000E1F71DE1C3E4DDE100E006C02197010953
:103AD000802FFE010F940139C234D10780E008071E
:103AE000A9F70F9404240D94A73C0C9400002F9286
:103AF0003F924F925F926F927F928F929F92AF927E
:103B0000BF92CF92DF92EF92FF920F931F93CF93CA
:103B1000DF93CDB7DEB7C555D1090FB6F894DEBF38
:103B20000FBECDBF66968FAF669720917C16259607
:103B30002FAF259791E090937C1680918B158D3453
:103B400009F408C4843511F40C94EF2E873411F075
:103B50000C940A2F2090891530908A153BE123168A
:103B6000310409F418C1C4F454E02516310444F4B6
:103B700082E0281631040CF041C037FE33C0E6C3A2
:103B800094E02916310409F4C7C0A5E12A163104CE
:103B900011F40C940C2FDAC3BAE22B16310409F499
:103BA000AEC26CF4FDE12F16310409F41EC10CF411
:103BB0000CC13EE12316310409F42BC1C7C34BE508
:103BC0002416310409F4E5C15CE52516310409F435
:103BD000E5C18AE52816310409F0B8C310926903DB
:103BE0000C940C2F80914E02882311F40C940C2F0E
:103BF0000E94BBB80E9468900C940C2F80914E02DA
:103C0000882311F40C940C2F0E94BBB882E50E940B
:103C10009CD0882309F44EC00E9443CE6B017C01E6
:103C200020E030E0A9010F941432882311F40C94A1
:103C3000D82F2091ED073091EE074091EF0750917A
:103C4000F0072CA33DA34EA35FA38091F1079091B1
:103C5000F207A091F307B091F40788A799A7AAA744
:103C6000BBA78090590790905A07A0905B07B0902F
:103C70005C0740905D0750905E0760905F07709012
:103C80006007A50194016CA17DA18EA19FA10F9455
:103C9000143281110C94192FA301920168A579A502
:103CA0008AA59BA50F941432882311F40C94D82F65
:103CB0000C94192F89E40E949CD0882329F00E943B
:103CC00043CE6B017C0103C0C12CD12C76018AE468
:103CD0000E949CD0882311F40C94DF2F0E9443CEC5
:103CE0006CA77DA78EA79FA720E030E0A901C701A0
:103CF000B6010F94143281110C94EC2F20E030E0C7
:103D0000A9016CA57DA58EA59FA50F9414328111E4
:103D10000C94EC2F0C94D82F80E50E949CD0882323
:103D200029F00E94E9D66B017C0103C0C12CD12C83
:103D3000760183E50E949CD0882361F00E9443CEE7
:103D400020E030E04AE754E40F947A320F947D3A51
:103D50006B017C010E9437898091C90E811105C0D9
:103D600060E081E696E00E94B9FE0E942698C60EA9
:103D7000D71EE81EF91E0E942698DC01CB018C1983
:103D80009D09AE09BF09B7FD02C00C940C2F80E05D
:103D90000E94DA39F0CF0F94001981110C940C2F86
:103DA0008CE0E2E7F2E0DE01119601900D928A9537
:103DB000E1F760E070E080E50E94D8BFBE016F5F70
:103DC0007F4F0E948FFD0C940C2F80917916877085
:103DD000873011F00C94793360E08FE40E94A9D011
:103DE00081110C940C2F0C9479330F9400198111CC
:103DF0000C940C2F80917E07882311F40C941434BA
:103E000060E08FE40E94A9D081110C940C2F0C94D7
:103E1000143420916D1630916E1640916F165091AA
:103E200070166091ED077091EE078091EF07909109
:103E3000F0070F940A39AB01BC0188E50E942644C3
:103E400069837A838B839C832091711630917216DB
:103E500040917316509174166091F1077091F207BA
:103E60008091F3079091F4070F940A39AB01BC01DC
:103E700089E50E9426446D837E838F839887BE01E7
:103E80006B5F7F4FCE0101960E947DD7882311F48E
:103E90000C940C2F80E00F94A40A0E945C9361E0C4
:103EA00085E40E94A9D021E0482FBE016B5F7F4FBF
:103EB000CE0101960F9456196B017C019B01AC0158
:103EC0000F94FC3B81115FC089809A80AB80BC80DD
:103ED00020E030E0A901C501B4010F94143287FF3E
:103EE00005C027E137EB41E558EB04C027E137EB8C
:103EF00041E558E3C501B4010F940A39AB01BC0197
:103F000088E29AE30F948A0F8D809E80AF80B884F8
:103F100020E030E0A901C501B4010F94143287FFFD
:103F200005C027E137EB41E558EB04C027E137EB4B
:103F300041E558E3C501B4010F940A39AB01BC0156
:103F400083E29AE30F948A0F20E030E0A901C701D1
:103F5000B6010F94143287FF05C067E177EB81E566
:103F600098EB04C067E177EB81E598E3A701960140
:103F70000F940A39AB01BC018EE19AE30F948A0FCA
:103F80008AE00E94AE380E9443930E94C9E70C94D5
:103F90000C2F8FE0809369030C940C2F809188156F
:103FA000882349F1893009F0A6C03EE7A32E32E00C
:103FB000B32E4DEEE42E47E0F42ED12C00E010E0BD
:103FC000D5018D915D010E949CD0882369F00E94EB
:103FD00043CEF7016083718382839383133011F49E
:103FE00001E002C0DD24D3941F5FF4E0EF0EF11C6A
:103FF000143031F775C08EE7282E82E0382E9DE40C
:10400000E92E97E0F92E2DEE37E03DA32CA321E613
:10401000C22E26E1D22E00E010E0D1018D911D01CB
:104020000E949CD0882309F44BC00E9443CE2B01F0
:104030003C01133049F0F6012081318142815381E6
:104040000F9409392B013C01ACA1BDA12D913D91EB
:104050004D915C91C301B2010F9409394B015C0190
:104060002DEB37E346E855EB0F946A3B87FD0AC01A
:104070002DEB37E346E855E3C501B4010F94143244
:104080001816F4F4133051F44092F9075092FA07DD
:104090006092FB077092FC0701E012C0A501940139
:1040A000F70160817181828193810F940A39D70170
:1040B0006D937D938D939C931397812F0E94728EA5
:1040C0001F5FB4E0EB0EF11CECA1FDA13496FDA343
:1040D000ECA3F4E0CF0ED11C143009F09ECF05C044
:1040E000DD2019F00E9477E506C0002321F089EF5A
:1040F00097E00E9448890E94C9E70C940C2F809198
:104100004E02882311F40C940C2F89E40E949CD059
:10411000E82E882321F00E943FCE082F01C000E046
:104120008AE40E949CD0F82E882321F00E943FCE82
:10413000182F01C010E0EE2011F0033020F4FF2012
:1041400041F0133030F08AE696E00F94C60E0C94DE
:104150000C2F80E1EDEEF7E0A9E5B7E001900D92BC
:104160008A95E1F7EE2019F1602F000F770B880B8D
:10417000990B0F941B322091E00D3091E10D40918D
:10418000E20D5091E30D0F947A3220910F0430919B
:10419000100440911104509112040F940A39609355
:1041A000590770935A0780935B0790935C07FF2031
:1041B00019F1612F110F770B880B990B0F941B329C
:1041C0002091E40D3091E50D4091E60D5091E70D01
:1041D0000F947A3220911304309114044091150405
:1041E000509116040F940A3960935D0770935E072F
:1041F00080935F079093600760E080E50E94A9D0FC
:104200008823C1F1EE20D1F020916D1630916E1609
:1042100040916F16509170166091590770915A072E
:1042200080915B0790915C070F940939609359075F
:1042300070935A0780935B0790935C07FF20D1F03F
:104240002091711630917216409173165091741628
:1042500060915D0770915E0780915F0790916007A4
:104260000F94093960935D0770935E0780935F0731
:104270009093600740E050E0BA0186E40E94264433
:104280006B017C0120E030E0A9010F946A3B181615
:104290005CF420E030E040E752E4C701B6010F943F
:1042A000043A6B017C0103C0C12CD12C76018090B3
:1042B0006E0290906F02A0907002B090710220E0A8
:1042C00030E0A901C701B6010F941432882341F0F0
:1042D000C0926E02D0926F02E0927002F092710270
:1042E0000091390210913A0284E690E090933A02EC
:1042F00080933902C0904302D0904402E09045027E
:10430000F090460280E090E0A0E8BFE38093430293
:1043100090934402A0934502B09346020E94689095
:1043200080926E0290926F02A0927002B09271021F
:1043300010933A0200933902C0924302D092440291
:10434000E0924502F09246020C940C2F0E9494B821
:104350000C940C2F0091891510918A150C381105B9
:1043600009F456C60CF09AC10135110509F492C63C
:104370000CF0A2C00A31110509F49AC3D4F5043136
:10438000110509F4F3C2A4F40131110509F4D0C2F6
:104390004CF40230110510F00C94EC2E0F94CC1557
:1043A0000C940C2F0231110509F495C60C94EC2ED7
:1043B0000731110509F4FFC294F40531110509F420
:1043C000F6C20631110511F00C94EC2E0E94817E8C
:1043D00080917812877F809378120C940C2F08318B
:1043E000110509F4FEC20931110509F456C30C94F4
:1043F000EC2E0032110509F4D3C30CF041C00D318D
:10440000110509F4B6C39CF40B31110509F45EC320
:104410000C31110511F00C94EC2E40E060E080911D
:104420008615909187150E9400810C940C2F0E31F7
:10443000110509F4A5C30F31110511F00C94EC2EF0
:104440000E944E6F6C8F7D8F8E8F9F8FBE016F5F2E
:104450007F4FCE014C960E94454A60E0CE01019606
:104460000E9440FF0F949110BE016F5F7F4F8EEE50
:1044700096E00F94A80F8AE00E94AE380C940C2F9F
:104480000C34110509F4E9C36CF40A32110509F47E
:10449000C1C30B34110511F00C94EC2E0E94583658
:1044A0000C940C2F0D34110509F4DBC30E341105E7
:1044B00009F4DBC30C94EC2E0E36110509F42BC560
:1044C000F4F50836110509F462C404F50435110544
:1044D00009F401C68CF40235110509F4F5C503355C
:1044E000110511F00C94EC2E809169038F7E80628F
:1044F000809369030C940C2F0535110509F4EEC562
:104500000C35110509F403C60C94EC2E0B3611057D
:1045100009F4F4C454F40936110509F4B7C40A3691
:10452000110509F4C9C40C94EC2E0C36110509F4DC
:1045300048C50D36110509F44EC40C94EC2E053710
:10454000110509F487C60CF08AC00137110509F47A
:104550003DC594F40F36110509F4EEC4003711057A
:1045600011F00C94EC2E41E060E070E089E697E0F9
:104570000F94B9100C940C2F0237110509F465C67D
:104580000337110511F00C94EC2E8EEA98E00F948D
:10459000C60E60E08EE998E00F945A1660E089E854
:1045A00098E00F945A1661E085E89BE20F945A1642
:1045B00061E08EE798E00F945A1661E08EE698E08D
:1045C0000F945A1660E085E698E00F945A1661E061
:1045D0008BE598E00F945A1661E081E598E00F941E
:1045E0005A1661E089E498E00F945A1661E08BE373
:1045F00098E00F945A1660E08DE298E00F945A16F6
:1046000060E08EE198E00F945A1660E080E198E057
:104610000F945A1660E08AEF97E00F945A1660E004
:1046200089EE97E00F945A1660E08AED97E00F94B8
:104630005A1660E085EC97E00F945A1661E082EB21
:1046400097E00F945A1660E085EA97E00F945A16A7
:1046500060E081E997E00F945A160C940C2F08370C
:10466000110509F441C66CF40637110509F402C6B8
:104670000737110511F00C94EC2E0E94E4E50C9420
:104680000C2F0937110509F437C60D37110511F044
:104690000C94EC2E0E940BBF0C940C2F013921E0DE
:1046A000120711F40C94B52C0CF087C00C3D1105C9
:1046B00009F439C7CCF5093C110509F4CCC6ACF4B2
:1046C0000B39110509F4C0C434F40139110509F49A
:1046D0001AC60C94EC2E0E3B110509F4B2C4083C2A
:1046E000110509F46BC60C94EC2E0D3C110509F470
:1046F000F4C66CF40B3C110509F4D0C60C3C110552
:1047000011F00C94EC2E0E9473D60C940C2F0E3CDE
:10471000110509F4E5C6033D110511F00C94EC2ECA
:104720000E94F7D40C940C2F0D3241E0140711F4C1
:104730000C94F12BECF4083181E0180709F4A2C7BE
:1047400054F40D3D110509F4FBC6023E110509F4B0
:104750004DC70C94EC2E0232A1E01A0711F40C9410
:10476000D92B0C32114011F40C94DC2B0C94EC2E50
:104770000E35E1E01E0711F40C94582E7CF40E3235
:1047800021E0120711F40C94712C0F32114011F03A
:104790000C94EC2E0E943D440C940C2F0F3541E0FC
:1047A000140711F40C948D2E0039114011F00C9463
:1047B000EC2E0E9437890C940C2F083F81E01807DB
:1047C00011F40C94902D0CF057C0053AA1E01A0793
:1047D00011F40C94C72C2CF50C39E1E01E0711F4F0
:1047E0000C94C12C7CF4023921E0120711F40C94D2
:1047F000BB2C0A39114011F00C94EC2E0E94F235BA
:104800000C940C2F0D3941E0140711F40C949E2EDA
:10481000043A114011F00C94EC2E0E94C3CE0C947B
:104820000C2F053F81E0180711F40C948A2D7CF4BD
:104830000C3AA1E01A0711F40C942C2D043F1140FE
:1048400011F00C94EC2E0E94C3640C940C2F063FC4
:10485000E1E01E0711F40C948D2D073F114011F07B
:104860000C94EC2E61E083E50E94A9D091E08927A9
:104870000E947EE80C940C2F033523E0120711F4FC
:104880000C94A82D2CF50B3542E0140711F40C9470
:10489000AB2D7CF40C3082E0180711F40C94A02DA1
:1048A0000835124011F00C94EC2E0E9413BE0C94AB
:1048B0000C2F0D3BA2E01A0711F40C94242E0E3B92
:1048C000124011F00C94EC2E0E94F1BB0C940C2FB2
:1048D000003AE3E01E0709F48DC1DCF40B3823E055
:1048E000120711F40C94272E0C38134011F00C947D
:1048F000EC2E60E070E083E50E94B2D88C0160E0AD
:1049000070E080E50E94B2D8B8010E94D6F90C94FC
:104910000C2F073E43E0140711F40C94902E083E30
:10492000134011F00C94EC2E0E94FEB90C940C2F45
:1049300080918C1584FF02C00C94173480918E15E1
:1049400087FF02C00C94173480918F15837011F08B
:104950000C94173460E089E896E00E94B9FE17983D
:1049600016981598139814980C940C2F81EA96E0D9
:104970000F94C60E85E992E10E941D5D8BE1E5E989
:10498000F2E1DE01119601900D928A95E1F760E067
:1049900070E0CE0101960E942182CE0101960E9414
:1049A000ECD182E996E00F94C60E0C940C2F0E9475
:1049B000F27E0C940C2FE0918615F0918715808182
:1049C000882329F0803209F410823196F8CF40E034
:1049D00061E080918615909187150E9400810C946A
:1049E0000C2F83E50E949CD0882321F00E940BCEDF
:1049F0000E94244B84E50E949CD08823A9F00E9449
:104A00000BCE6B017C010E94826FC092D505D092C3
:104A1000D605E092D705F092D805CD28CE28CF282C
:104A200019F081E08093DD0580912C068823E9F060
:104A300080E090E0A8ECB2E488A399A3AAA3BBA36A
:104A40001C8E1D8E1E8E1F8E19821A821B821C8246
:104A500020E0AE01405E5F4FBE01645E7F4FCE013D
:104A600001960E949ED20C940C2F0E94343688230B
:104A700081F00E94927E0E94583686ED96E00E9458
:104A8000377E1092901510929115109292151092F7
:104A900093150E9465FF0C940C2F8091781282FF71
:104AA00003C08B7F809378120E940BBF0C940C2F55
:104AB0008091781283FD02C00C940C2F83E50E9434
:104AC0009CD081110C9430340C940C2F83E40E9400
:104AD0007ACE882319F18CEB96E00F94C60E809164
:104AE000DC13882391F0BE016F5F7F4F89ED93E166
:104AF0000E94E45B8E010F5F1F4FD8018D918D01E5
:104B0000882339F00E94AE38F8CF82EB96E00F94FC
:104B1000C60E8AE00E94AE380C940C2F8091781259
:104B200082FF21C08BEC96E00F94C60E6091741248
:104B30007091751280917612909177124AE00E94DE
:104B4000B5388FE20E94AE38609170127091711288
:104B500080917212909173124AE00E94B5380E94BF
:104B6000B3390C940C2F8DED96E00F94C60E0C9477
:104B70000C2F809178128E7F809378120C940C2FDA
:104B80008091781283FD02C00C940C2F0E947DB896
:104B900080918615909187150E9432800C940C2F7D
:104BA0008091781282FD0E9437898091781283FD6E
:104BB00002C00C940C2F60E080E50E94A9D0182F51
:104BC000482F61E080918615909187150E940081A1
:104BD00083E50E949CD0882321F00E940BCE0E9486
:104BE000244B0E94927E11110C940C2F0E94583677
:104BF0000C940C2F20918615309187159091781286
:104C000092609093781240E060E0C9010E940081B8
:104C10000C940C2F83E50E949CD0882311F40C94F3
:104C20000C2F0E941BCEF82E6DE070E080E50E94F4
:104C3000B2D88C0197FF02C00C940C2FE82E60E0D4
:104C400089E40E94A9D081110C943534802F0F94EF
:104C5000DF238111E8C40C9435340E949D6F0C94BD
:104C60000C2F0E94207A0C940C2F60E070E083E5FA
:104C70000E94B2D88E34910531F40E94917A0E943C
:104C800065FF0C940C2F81E597E00F94C60E6091A0
:104C900028047091290488E497E00F947D0F6091B7
:104CA0002A0470912B048BE397E00F947D0F6091A1
:104CB00028047091290480912A0490912B04681B88
:104CC000790B8091DD05815021E030E0823010F0D9
:104CD00020E030E0621B730B80E397E00F947D0FC0
:104CE0008AE00E94AE3881E597E00F94C60E80916D
:104CF0002C0490912D04A0912E04B0912F048C8F40
:104D00009D8FAE8FBF8FBE016F5F7F4FCE014C96E0
:104D10000E94454ABE016F5F7F4F83E297E00F9488
:104D2000A80F8091300490913104A0913204B09189
:104D300033048C8F9D8FAE8FBF8FBE016F5F7F4F0F
:104D4000CE014C960E94454ABE016F5F7F4F83E1C2
:104D500097E00F94A80F20E030E04AE754E4609118
:104D600034047091350480913604909137040F9487
:104D7000043AAB01BC018BEF96E00F948A0F8DE6ED
:104D80000E94AE388AE00E94AE380C940C2F8091BD
:104D9000660D83FF02C00C940C2F0E94D5B987FFCB
:104DA00002C00C940C2F83E50E949CD0882379F0DC
:104DB0000E9443CE0F94763A8B01CB010E94306063
:104DC0000635110524F40E94207A0E9465FF0F9495
:104DD000152A0C940C2F8091660D83FF02C00C9451
:104DE0000C2F0E94D5B9F82E87FF02C00C940C2F0F
:104DF00083E50E949CD0082F811106C082E50E94A5
:104E00009CD0182F8823C1F10E9443CE0F94763A8C
:104E1000CB010E9430600E9443CE20E030E04AEA9D
:104E200052E40F941432181614F40C944E340E9469
:104E3000207A0E9465FF6091550870915608072EF0
:104E4000000C880B990B0F941B324B015C014090B6
:104E50005108509052086090530870905408A30174
:104E600092010F946A3B181614F40C946C340023CE
:104E700011F40C94523411E00F94152A112309F403
:104E8000CBC7602F8F2D0E94B860C6C70E94D5B9CE
:104E9000182F87FD0AC081E09AE30F94C60E812F78
:104EA0000E9441608AE00E94AE382596BFAD2597EA
:104EB000B0937C160C94E83460E080E50E94C1D881
:104EC000182F823008F0A8C781E40E947ACE882388
:104ED00021F06091360870E002C06FEF70E083E56A
:104EE0000E94D8BFE12FF0E0EA5CF74F8F3F9105B9
:104EF00019F010F08FEF90E080838EC760E080E5BE
:104F00000E94C1D8823008F087C7E82FF0E0EA5C41
:104F1000F74F108281C78EE40E949CD0882309F449
:104F20007BC70E940BCE609318167093191680935E
:104F30001A1690931B1670C783E50E947ACE8823B9
:104F400031F060E083E50E94C1D88093660D0F9434
:104F5000911082E697E00F94C60E8091660D88232B
:104F600069F10EEBE02E0AE0F02E00E010E020E008
:104F70008091660D90E0A0E0B0E0002E04C0B695F0
:104F8000A795979587950A94D2F780FF0EC0DD24E8
:104F9000D394D20E222319F08CE20E94AE38F7018E
:104FA000859194910F94C60E2D2D0F5F1F4FE2E057
:104FB000EE0EF11C05301105D9F6ABCD8EE597E06C
:104FC000A6CD10927B1610920F0226C783E50E9491
:104FD0009CD0882371F00E941BCE282F30E02D3307
:104FE00031051CF48093000217C78CE38093000204
:104FF00013C70F9491104091000250E060E070E000
:1050000087E797E00F946C0F8AE00E94AE3804C7E0
:105010008091660D83FD00C783E50E949CD08823A4
:1050200009F4FAC60E9443CE0F94763A6C387105A3
:105030000CF48B0110930404009303040E94B8F154
:10504000EBC60E946848E8C683E50E949CD088238E
:1050500009F4E2C60E941BCE182F90E0CD970CF009
:105060001CE3109364030E9426986B017C01212F9E
:1050700030E0A8EEB3E00F94BE38C60ED71EE81E8F
:10508000F91EC0926003D0926103E0926203F09235
:105090006303C2C60E943FF20E94207A0E94928B54
:1050A0000E942F361092EC071092EB071092EA073D
:1050B00068EE73E080E090E00F94090E60E08EE708
:1050C00097E00E94B9FEA8C6809169038F7D806138
:1050D00080936903A1C60E94E6D59EC683E50E941F
:1050E0007ACE882309F498C60E9443CE20E030E0AF
:1050F0004AE754E40F947A320F947D3A6093650343
:1051000070936603809367039093680385C60E943B
:10511000D5B987FD81C690918C1594FD04C09091FE
:105120008E1597FF0AC0BEE7CB2EB2E0DB2E17E646
:10513000E12E1DE0F12E10E009C090918F159370C3
:1051400091F7682F81E00E9438D666C6D6018D910E
:105150006D010E949CD0882309F46DC0133009F0C2
:1051600063C00E9443CE4B015C0120E030E040EA86
:1051700051E40F94143287FF4EC0A5019401609151
:10518000870D7091880D8091890D90918A0D0F94F3
:10519000043A2B013C019B01AC0160911A0870910B
:1051A0001B0880911C0890911D080F947A3260931F
:1051B0001A0870931B0880931C0890931D08A30184
:1051C00092016091970D7091980D8091990D909139
:1051D0009A0D0F947A326093970D7093980D809387
:1051E000990D90939A0D60912A0870912B088091E7
:1051F0002C0890912D080F941932A30192010F945D
:105200007A320F947D3A60932A0870932B0880932A
:105210002C0890932D088092870D9092880DA09273
:10522000890DB0928A0D07C00E9443CEF701648BAE
:10523000758B868B978B1F5FF4E0EF0EF11C14309B
:1052400009F084CF0E943A7BE7C50E9437890E940B
:10525000C9E7E2C58091861590918715009709F4FA
:1052600018CCDC012C91222309F413CC60E00E94BD
:1052700040FFD2C5009186151091871594E0F12C5E
:1052800040E0915021F1F8018081282F2B7F2134BB
:1052900021F421812133D9F407C08035C1F4818103
:1052A00080538A3048F013C0813421F0853421F4D2
:1052B00041E002C0FF24F39498012E5F3F4F890123
:1052C0002F5F3F4FF80180818032C9F3DACF41115F
:1052D0000F949110FF2021F087E799E00F94C60EFC
:1052E000C8010E94B93998C581E080933904809340
:1052F00038040E943FE690C5109239041092380499
:105300000E943FE689C560E070E083E50E94B2D864
:105310008C011127023011053CF00F94BB0F8BE775
:1053200099E00F94C60E78C588E40E949CD088232B
:10533000A9F00E943FCE8A3A91053CF08530F1E019
:105340009F072CF084E091E002C08AEA90E0F80127
:10535000EE0FFF1FE156F84F9183808386E40E9491
:105360009CD0882381F00E943FCE97FD07C08F3FDD
:10537000910529F024F08FEF90E001C080E0F80162
:10538000E051F24F808382E40E949CD0882309F48C
:1053900043C50E943FCE8530910534F08D3891058C
:1053A0002CF08CE890E002C085E090E0F801EE0F70
:1053B000FF1FEE50F24F918380832EC50E94D5B916
:1053C000182F87FD29C584E40E947ACE882309F42A
:1053D0003FC00E9443CE6B017C0101E020E030E041
:1053E000A9010F941432811101C000E000937507E8
:1053F00020E030E0A901C701B6010F9414328823E0
:1054000039F10E9443CE24E01202F0011124E65843
:10541000F84F608371838283938320E030E0A90199
:1054200060917A0770917B0780917C0790917D074E
:105430000F94143281110CC080E090E0A0EEBFE325
:1054400080937A0790937B07A0937C07B0937D07A6
:105450000E949588E1C40E94D5B987FDDDC46EE73E
:10546000E62E62E0F62E07E61DE0D7018D917D0164
:105470000E947ACE882359F00E9443CE0F947D3A41
:10548000F80160837183828393830E94F37A0C5FB7
:105490001F4FFDE007371F0741F7BEC40E94D5B973
:1054A00087FDBAC45EE7E52E52E0F52E07E61DE063
:1054B000D7018D917D010E947ACE882339F00E9418
:1054C00043CEF80164A375A386A397A30C5F1F4F77
:1054D000FDE007371F0761F79FC40E94F9D69CC4FF
:1054E0003EE7C32E32E0D32E4DE3E42E44E0F42E0B
:1054F00010E0D6018D916D010E947ACE882351F083
:105500000E9443CEF7016083718382839383812F4E
:105510000E94728E1F5FF4E0EF0EF11C133049F70A
:105520000E94C9E779C483E50E949CD0882309F4CE
:1055300073C40E943FCE90933A02809339026CC4A8
:105540000E94D5B9F82E87FD67C483E50E949CD0E0
:105550000F2D0F2C000C110B882369F10E943FCEF8
:10556000F801EE0FFF1FE15CFD4F91838083000F78
:10557000111F000F111F98012D5B3D4F7901BC01D8
:10558000990F880B990B0F941B322AE037ED43E2F9
:105590005CE30F947A32F801EA58F84F20813181A8
:1055A000428153810F947A32D7016D937D938D930D
:1055B0009C93139731C40F94911085E40E94AE38E8
:1055C00080E38F0D0E94AE38F801EE0FFF1FE15C03
:1055D000FD4F608171818DE999E00F949B0F85E209
:1055E0000E94AE388AE00E94AE3816C480E50E9460
:1055F0007ACE882309F410C460E070E080E50E9450
:10560000B2D8F82E6FEF7FEF83E50E94B2D88C01FD
:105610000196039708F000C4F7FCFEC38F2D0F948A
:10562000DF23882339F00F94BB0F85EA99E00F94AC
:10563000C60EF2C30E94378960E08F2D0E94E79664
:105640000F3FBFEF1B0731F00130110571F000E093
:1056500010E00DC08F2D0F94042C31E020E0892B39
:1056600009F030E0032F122F02C001E010E08F2D6F
:105670000F94042C8017910709F4CEC380E00E9498
:10568000DA39F5CF80E50E947ACE882309F4C4C3C5
:105690000E943FCE8C01892B09F07FC083E50E94D8
:1056A0007ACE882389F00E943FCE8F3FEFEF9E078E
:1056B00029F481ED91E10E946636AEC3BC0181ED13
:1056C00091E10E943637A8C30F94911060E070E01A
:1056D00083EC99E00F949B0F8091D31128E532E081
:1056E0006901C81AD10887FDD394CC0CDD1CCC0C01
:1056F000DD1C0D2C000CEE08FF088091D21128E86B
:1057000030E04901881A910887FD9394880C991C10
:10571000880C991C092C000CAA08BB088091D11197
:105720008F3FC1F090E0FC01EE0FFF1F8E0F9F1F17
:10573000FC01EC59FE4E2181328153E0220F331FD0
:105740005A95E1F764E0369527956A95E1F72E5F63
:105750003F4F02C020E030E02F5F3F4FC901330FC1
:10576000AA0BBB0B9C01AD01281939094A095B0939
:10577000A4EBB0E00F94AB38A701960128193909C2
:105780004A095B090F948C38B9018BEC96E30F94AE
:105790009B0F8AE00E94AE383FC30F94BB0FB80145
:1057A00084EC99E00F949B0F84EB99E00F94C60E64
:1057B00033C30F94191530C364E071E083E50E9490
:1057C000D8BF8C0168EE73E080E50E94D8BF8938AD
:1057D000F3E19F0710F088E893E1B8010E948CFE86
:1057E0001BC360E085E40E94C1D8811173C080E5CD
:1057F0000E947ACE882351F00E9443CE60935808CD
:105800007093590880935A0890935B0889E40E942A
:105810007ACE882381F00E9443CE2CEA35EC47E211
:105820005EE30F947A3260935C0870935D08809316
:105830005E0890935F0884E40E947ACE882381F00A
:105840000E9443CE2CEA35EC47E25EE30F94043A23
:105850006093600870936108809362089093630876
:105860000F949110409158085091590860915A082E
:1058700070915B088CEB9DE10F948A0F2CEA35EC5C
:1058800047E25EE360915C0870915D0880915E087C
:1058900090915F080F94043AAB01BC018DED99E043
:1058A0000F948A0F2CEA35EC47E25EE360916008C2
:1058B0007091610880916208909163080F947A3228
:1058C000AB01BC0183EB9DE10F948A0F8AE00E943B
:1058D000AE38A2C20F94BB0F8BEC99E00F94C60EAA
:1058E0009BC283E50E947ACE182F882371F00E9414
:1058F00043CE0F94763A709348026093470221E0BA
:10590000672B09F020E020934C0880E50E947ACEB6
:10591000882359F02091470230914802232B11F03F
:105920000E942FCE80934C0877C2111175C20F943C
:1059300091108AEF99E00F94C60E80914C0888234D
:1059400019F086E395E102C081EE99E00F94C60E4E
:10595000609147027091480289EE99E00F949B0F85
:1059600085EE99E00F94C60E57C281E00E9423791C
:105970000E94C9E751C280E00E9423790E94C9E7D2
:105980004BC280918E15867009F0A9C7BFC76FEF13
:105990007FEF89E40E94B2D8182F6FEF7FEF8AE47F
:1059A0000E94B2D8082F8AE50E947ACEF82E811183
:1059B00005C081E50E947ACED82E01C0D12C17FDFA
:1059C00006C007FD04C0F11009C0D11007C00F9434
:1059D000BB0F8EE19AE00F94C60E1EC2133010F476
:1059E000033038F00F94BB0F8AE696E00F94C60E92
:1059F00013C2E12E110FFF08002E000C110B0E94A4
:105A000043CED701AA0FBB1FDD2081F0FD01EE0DB3
:105A1000FF1DE00FF11FEE0FFF1FEE0FFF1FEA50FB
:105A2000F24F208131814281538103C020E030E078
:105A3000A901EA0EFB1E0E0D1F1D000F111F000F06
:105A4000111F0A50124F0F940A39D8016D937D939C
:105A50008D939C931397E0C10F9400198111DCC1C1
:105A600000E019E2EDEEF7E0FDA3ECA39E012F5F4D
:105A70003F4F190173E3C72E79E2D72E7901F80160
:105A80006591759185919491ACA1BDA18D909D90EA
:105A9000AD90BD90BDA3ACA3A50194010F940939AD
:105AA0002B013C01F701608371838283938320E0A3
:105AB00030E040EA51EC0F946A3B87FD0AC020E0D9
:105AC00030E040EA51E4C301B2010F9414321816D9
:105AD0002CF4F601849118160CF423C7D7018D908D
