:100000000C94CA210C94FB210C94FB210C94FB2131
:100010000C94FB210C94FB210C94FB210C94FB21F0
:100020000C94FB210D945D3E0D945D3E0D945D3E60
:100030000C94FB210C94FB210C94FB210C94FB21D0
:100040000C94FB210C94969B0C94FB210C94FB21AB
:100050000C94FB210C94FB210D9446130C944FC57A
:100060000C94FB210C945E490C9454490C94FB2194
:100070000C94FB210C94FB210C94FB210C94FB2190
:100080000C94C63D0C94FB210C94FB210C94FB2199
:100090000C94C3C50C9499C50C94FB210C94FB21C2
:1000A0000C94FB210C94FB210C94983D0C94FB21A7
:1000B0000C94FB210C94FB210C94FB210C946A3DC5
:1000C0000C94FB210C94FB210C94FB210C94FB2140
:1000D0000C94FB210C94FB210C94FB210C94FB2130
:1000E0000C94FB21FA4A004B0B4B164B214B2C4B2B
:1000F000374B424B764B764B764B764B4D4B954B75
:10010000A14BB24BC34BD44BE54BF64B074C3E4C8B
:100110003E4C3E4C3E4C154C5D4C694C7A4C8B4CE5
:100120009C4CAD4CBE4CCF4C064D064D064D064D7D
:10013000DD4C254D2E4D3D4D484D534D5E4D694D89
:10014000734DA14DA14DA14DA14D7B4DCF4D964E6F
:10015000D54DDF4DE94DF34D094E164E964E234ECB
:10016000964E314E964E394E434E964E964E574EC3
:10017000614E694E734E7D4E8C4EB54EAF4FBE4EA6
:10018000CB4ED84EE54EFE4E0E4FAF4F1E4FAF4FEB
:100190002F4FAF4F3A4F4A4FAF4FAF4F614F6E4F58
:1001A000794F864F934FA54FCE4FC850D74FE44F4E
:1001B000F14FFE4F17502750C8503750C850485085
:1001C000C85053506350C850C8507A50875092500E
:1001D0009F50AC50BE50E7509F51ED50F550FD5030
:1001E00005511B5126519F5131519F513D519F51F6
:1001F000455152519F519F516951715179518151CE
:1002000089519851A3C1A9C1AEC1BCC1C2C1C4C169
:10021000CAC1CFC1EBC1EBC1D6C1EBC1DBC1E1C1EA
:10022000E6C10BC211C216C224C22AC22CC232C2FB
:1002300037C253C253C23EC253C243C249C24EC266
:1002400073C279C27EC28CC292C294C29AC29FC249
:10025000BBC2BBC2A6C2BBC2ABC2B1C2B6C2DAC2CB
:10026000E0C2E5C2F3C2F9C2FBC201C306C322C3A6
:1002700022C30DC322C312C318C31DC324FE63FCD3
:100280009CFC60FE9CFC9CFC9CFC9CFC9CFC9CFCE8
:100290009CFC9CFC9CFC9CFC9CFC9CFC9CFC9CFC9E
:1002A0009CFC9CFC9CFC9CFC9CFC9CFC9CFC9CFC8E
:1002B0009CFC9CFC9CFC9CFC5AFE9CFC9CFC9CFCBE
:1002C0009CFC9CFC9CFC9CFC9CFC33FE9CFC9CFCD5
:1002D0009CFC9CFC9CFC9CFC9CFC9CFC9CFC9CFC5E
:1002E00077FE99FC70035802780240023A0420031A
:1002F00048048403CC04E6021E0420044404EC03F6
:100300005C036A0428035E0330030C03C003D603B6
:1003100076040E02BC02A2045E032203CE022C036A
:1003200056042002BA02AC0272028002E001AA0462
:1003300056026A03B60488045E04B80380022603EA
:100340006E044204084AD73B3BCE016E84BCBFFD1D
:10035000C12F3D6C74319ABD56833DDA3D00C77F95
:1003600011BED9E4BB4C3E916BAAAABE000000802E
:100370003F05A84CCDB2D44EB93836A9020C50B9BD
:10038000918688083CA6AAAA2ABE000000803F00E9
:100390000D9481060D9499060C94C37F0C945D4CCA
:1003A0000C94064D0C944A4F0D9431040C94254D39
:1003B0000C9494FA0C94E44F0C94FE4E0C9402C5E9
:1003C0000D94813F0C94A6C20C945AFE0C94F14FEC
:1003D0000C940B8B0C9439540C949CFC0C9406C319
:1003E0000C94694D0C945A800C94CA810C9445511C
:1003F0000D94B92D0C94D1FF0C94EA870C9449C24A
:100400000C94B6750C94E6C10C9463500C94DAC24B
:100410000C949FC20C94094E0C94058B0D948D3D49
:100420000D94C8310D94130A0C94FF820C9437502C
:100430000D9412050D94A3030C94CF4D0C941750FA
:100440000D945E3F0C9453500C94D6F80C9494C2C7
:100450000C9463FC0D9489060C9422C30C94734D88
:100460000C943E4C0C94154C0C94164E0C94F3C208
:100470000C94FE4F0C942F4F0C9401C30C9400FB72
:100480000D94100A0C948D7F0C9433FE0C94394E0D
:100490000C9498510C9452510D94FE020C9450F30C
:1004A0000C94E0C20C9419540C943A4F0D94913F63
:1004B0000D94E6090C9477FE0C94E0870C94BFF53C
:1004C0000C941B510C9480FA0C94614F0C94028391
:1004D0000C94FC820C94318B0C9460FE0C94614E55
:1004E0000C943C7F0D94773F0C94D84E0C94577F1E
:1004F0000D94E9090C94FA4A0C941DC30C9422FB48
:100500000D94F03F0C94B9FF0C94DBC10C94275070
:100510000C9467F50C94934F0D94912C0C94168CBD
:100520000D9491060C94EFFB0C94D6C10C94658449
:100530000C94CFC10C947C8E0C9446F30C94875091
:100540000C9400550C94C3580D94A1060C94CCC483
:100550000C9409F80C9449FB0D946D3F0C94AF4F2B
:100560000D94E70D0C9499FC0D94A82C0C94E54B7C
:100570000C94A14D0D94633F0D94913D0C944955FD
:100580000C94CD810C94BFFF0C94BE4C0C94694E1E
:100590000D9425000C9443FB0D94D60D0D949F3DB6
:1005A0000C94F9C20C947EC20C9443C20C9471F565
:1005B0000C946E4F0C942CC20C94534D0C94B7FBBE
:1005C0000C94A8FA0C9462F50C9476750D940B0AB1
:1005D0000D94BE2C0C94E1FB0D9405090C94238B17
:1005E0000C94B54E0C94C5FF0C949C4C0C94CBFF12
:1005F0000C948C4E0C946CF50C94E65B0C94A87FD8
:100600000C94D0FA0C94E8FB0D94F2390C944850F9
:100610000C94D4FB0C94E5870D94793D0C944D55C6
:100620000C942C4B0C94CF4C0C942E4D0C94DF4D11
:100630000C94C8500C94FA540C9489510D943E02B9
:100640000D94EF090D949B3D0C94F64B0D94D23F05
:100650000D946A3D0C94ED500D94A33D0C944BF316
:100660000D94753D0C94FBC20C94D54D0C94817D7A
:100670000C94C4C10C94AC500D9481530D94132C64
:100680000C94D74F0C9492500D94022D0C949F51C2
:100690000C94B6C20C94505E0C94BE8C0C94734EA9
:1006A0000D94040C0C9479C20C9446FB0C940DC36D
:1006B0000C94E7500C94FF8A0D94603D0D94A83D76
:1006C0000D94E50D0C9416C20C94ED880C94954B8A
:1006D0000C9471510D949B3F0C9466FB0C94FCFBA5
:1006E0000D940D0A0C948B4C0C94BCFA0C943D4D5B
:1006F0000C9469510C944D4B0C94545E0C9418C39B
:100700000C9414FB0C94234E0D94FE090D94470297
:100710000C94FD500C9430FB0C949AC20D94892CCF
:100720000D944D020C94E54E0D94442C0C94864F80
:100730000C94138B0C94434E0C94074C0D945C3921
:100740000C94BE4E0C94BBC20C94694C0C94C2C168
:100750000C94AF550D941E0A0C9492C20C94214B2C
:100760000C947CF30D9419240C942AC20C94A3C10C
:100770000D94C83F0C9412C30C940B4B0D94DB31B9
:100780000D947F3D0C94348B0C94574E0C940BC2FB
:100790000D947D390C9479510C94CAC10D947D0649
:1007A0000C94875A0C9431510C943D540D94833D14
:1007B0000C94B3FF0C941D5E0D94362C0C949F503A
:1007C0000D9495060C94DDFF0C9473C20D94BD0D31
:1007D0000C9481510C943D510D94713D0C94764BC9
:1007E0000D94D2310C94C34B0C94727F0C9424C2A0
:1007F0000C94BE500C94A54F0C940E4F0D942502F2
:100800000C94AEC10C947B750D9485060C94515ECE
:100810000D94AC2F0C9476F30C947A500C94D081F8
:100820000C943EC20C94F5500C94424B0C94D7FFA0
:100830000C94A9C10C94314E0D949D060D94F809A9
:100840000D94FB090C94ADFF0C94964E0C9453C27E
:100850000C944E750C941B8B0C943F540C9411C249
:100860000C94C7F50C947B4D0C94794F0D94E531A5
:100870000C947D4E0D94EC090C9437C20C94BCC1C1
:100880000C9405510D94E63F0D946E3D0D94EB0DC7
:100890000D94F2090D948D060C94A9F60C944EC299
:1008A0000C94D44B0C94E5C20C9483FB0D94593FEB
:1008B0000C942E8A0D94ED0D0C94E1C10D94BE3F65
:1008C0000D941E2D0D94A5060C94A14B0C94ECFADE
:1008D0000C94CE4F0D94643D0C9424FE0D94DC3F9B
:1008E0000C94DEFA0C94484D0C946AF30D94873DF9
:1008F0000C9426510C94F34D0C9470F30D94CD315F
:100900000C94B1C20D94CE100C94ABC20C941E4F3B
:100910000D94AF3F0C94D4870C945E4D0C94EBC1B6
:100920000D945C2D0C948CC20C9406550D9463535D
:100930000C942B8B0C94E94D0C94374B0C94004B7E
:100940000C94164B0D94953D0C94DD4C0C942F5447
:100950000C94E3FF0D94893F0C949AFB0C94B8F32C
:100960000D94E02C0C9402F30C94AD4C0D94A53F27
:100970000D94E90D0C947A4C0C94CB4E0C943B5492
:100980000C9432C20D94222C0D94F0230C9441F35C
:100990000C9447540D942F0F0D94F5090C94717518
:1009A0000C94B24B4E414E494E495459494E46CD96
:1009B000CCCC3D0AD7233C17B7D13877CC2B329516
:1009C00095E6241FB14F0A000020410000C84200F4
:1009D000401C4620BCBE4CCA1B0E5AAEC59D7400BE
:1009E000407A10F35A00A0724E18090010A5D4E8FE
:1009F0000000E87648170000E40B54020000CA9A91
:100A00003B000000E1F505000080969800000040E2
:100A1000420F000000A08601000000102700000027
:100A200000E803000000006400000000000A00006D
:100A30000000000100000000002C76D888DC674F21
:100A40000823DFC1DFAE59E1B1B796E5E3E453C651
:100A50003AE651997696E8E6C28426EB898C9B6249
:100A6000ED407C6FFCEFBC9C9F40F2BAA56FA5F4F3
:100A700090055A2AF75C936B6CF9676DC11BFCE01B
:100A8000E40D47FEF520E6B500D0ED902E0300946E
:100A90003577050080841E080000204E0A00000003
:100AA000C80C333333330F986E12831141EF8D210D
:100AB00014893BE65516CFFEE6DB18D1844B381B74
:100AC000F77C1D901DA4BBE424203284725E228139
:100AD00000C9F124ECA1E53D27434F4D4D554E494A
:100AE000434154494F4E0044525952554E004552CD
:100AF000524F525300494E464F004543484F00471E
:100B0000322F47332062616420706172616D6574B9
:100B10006572730A00536C6565702E2E2E005A2084
:100B200050726F62652050617374204265640A00E0
:100B30005A2050726F626520506173742042656460
:100B400000486F6D652058592066697273740A00F9
:100B5000486F6D65205859204669727374004D6561
:100B6000736820706F696E742063616E6E6F74209D
:100B70006265207265736F6C7665640A00456E6409
:100B80002066696C65206C6973740A004265676948
:100B90006E2066696C65206C6973740A00286E6F3C
:100BA0002066696C65290043757272656E742066F3
:100BB000696C653A20005344207072696E74696EE6
:100BC00067206279746520004E6F74205344207052
:100BD00072696E74696E670A005072696E7420746F
:100BE000696D653A20000A53746174733A2046694E
:100BF0006C616D656E7420757365643A20002C20FD
:100C00004C6F6E67657374206A6F623A2000546F90
:100C100074616C2074696D653A20002C204661690E
:100C20006C65643A20002C2046696E6973686564BF
:100C30003A20005072696E74733A200053746174E4
:100C4000733A200045202553006F666600444542F4
:100C500055473A004D3131322053687574646F77CF
:100C60006E004D3131332053005468696E6B6572EC
:100C70002056325F424C5F32323039204F46462E8A
:100C8000004348414D4245525F54454D5045524105
:100C900054555245004D4F54494F4E5F4D4F4445BA
:100CA0005300544845524D414C5F50524F544543B8
:100CB00054494F4E004155544F5245504F52545F86
:100CC00053445F5354415455530050524F4D505468
:100CD0005F535550504F525400454D455247454E75
:100CE00043595F50415253455200434153455F4C75
:100CF000494748545F4252494748544E4553530070
:100D0000544F47474C455F4C494748545300534F55
:100D10004654574152455F504F574552004255493E
:100D20004C445F50455243454E54004C4556454C4B
:100D3000494E475F44415441005A5F50524F42452B
:100D4000004155544F4C4556454C005052494E5465
:100D50005F4A4F420050524F47524553530041554E
:100D6000544F5245504F52545F54454D5000564FCA
:100D70004C554D45545249430042494E4152595FEA
:100D800046494C455F5452414E53464552005345E7
:100D90005249414C5F584F4E5F584F4646004649B6
:100DA000524D574152455F4E414D453A4D61726C2F
:100DB000696E20322E302E7820284769744875627B
:100DC0002920534F555243455F434F44455F555289
:100DD0004C3A68747470733A2F2F6769746875623F
:100DE0002E636F6D2F4D61726C696E4669726D77FF
:100DF0006172652F4D61726C696E2050524F544F75
:100E0000434F4C5F56455253494F4E3A312E302096
:100E10004D414348494E455F545950453A546869DD
:100E20006E6B65722056325F424C5F323230392031
:100E300045585452554445525F434F554E543A31EC
:100E400020555549443A63656465326132662D34F4
:100E50003161322D343734382D396231322D6335DA
:100E6000356336326633363766660A002F2F200028
:100E70004D31343520533C696E6465783E206F7582
:100E800074206F662072616E67652028302D3129CD
:100E90000A0020466C6F773A200050726F746563C9
:100EA0007465642050696E0A00206F7574206F6647
:100EB0002072616E67650A0020536572766F2000AC
:100EC000496E76616C6964206578747275646572C8
:100ED0000A0020693A006469730043290A006162CC
:100EE0006C656420286D696E2074656D7020004308
:100EF0006F6C6420657874727564657320617265C7
:100F000020004D34323120696E636F7272656374F4
:100F100020706172616D65746572207573616765BB
:100F20000A004F666673657473204170706C696562
:100F300064004572723A20546F6F2066617221001E
:100F4000546F6F206661722066726F6D20726566E5
:100F50006572656E636520706F696E740A00454541
:100F600050524F4D204F4B0A002074656D706572D2
:100F70006174757265207072657761726E2074722B
:100F8000696767657265643A200020686F6D696EF5
:100F9000672073656E73697469766974793A2000A5
:100FA000FA0AF50AEE0AE70AD90A4572726F722048
:100FB00077726974696E6720746F20454550524F8F
:100FC0004D210A00627573793A207061757365640A
:100FD00020666F7220696E7075740A00627573798D
:100FE0003A2070617573656420666F722075736551
:100FF000720A00627573793A2070726F6365737359
:10100000696E670A004E6F20436865636B73756D88
:101010002077697468206C696E65206E756D6265F5
:10102000722C204C617374204C696E653A20006309
:101030006865636B73756D206D69736D617463684A
:101040002C204C617374204C696E653A20004C6909
:101050006E65204E756D626572206973206E6F74C7
:10106000204C617374204C696E65204E756D62650D
:10107000722B312C204C617374204C696E653A20C0
:10108000004D313130004D313137004D3331005397
:10109000442072656164206572726F720A00446F49
:1010A0006E65207072696E74696E672066696C6522
:1010B0000A002063757272656E74206465637265E0
:1010C0006173656420746F20006D41290A002064FB
:1010D0007269766572206F76657274656D7065727F
:1010E0006174757265207761726E696E6721202860
:1010F000004B494C4C206361757365642062792014
:101100004B494C4C20627574746F6E2F70696E0A77
:10111000004B494C4C2063617573656420627920F3
:10112000746F6F206D75636820696E616374697692
:10113000652074696D65202D2063757272656E740B
:1011400020636F6D6D616E643A200025301D0C28A0
:101150002924311C0B4527232F1B164443212A1910
:101160003F40222B1A414203380906360308020683
:1011700000014C6F616400506F7765722D6C6F7366
:10118000732066696C6520636C6F736520666169A6
:101190006C65642E0A00506F7765722D6C6F7373E7
:1011A0002066696C65207772697465206661696C78
:1011B00065642E0A005772697465002D2D2D0A0092
:1011C000494E56414C494420444154410A007072F2
:1011D000696E745F6A6F625F656C61707365643AB3
:1011E00020007364706F733A200073645F66696CEB
:1011F000656E616D653A20000A20666164653A207B
:10120000006C6576656C696E673A200066616E5F9A
:1012100073706565643A20007461726765745F7409
:10122000656D70657261747572655F6265643A20A0
:10123000007461726765745F74656D706572617466
:101240007572653A200066656564726174653A205E
:1012500000706F736974696F6E5F73686966743A62
:101260002000686F6D655F6F66667365743A200075
:1012700063757272656E745F706F736974696F6E97
:101280003A20002076616C69645F666F6F743A0083
:10129000204A6F62205265636F7665727920496ECD
:1012A000666F2E2E2E0A76616C69645F68656164D4
:1012B0003A002568753A25303268750025687564EE
:1012C0002025303268753A253032687500447269DD
:1012D000766572206572726F7200636F696C20733D
:1012E000686F727420636972637569740A006F763F
:1012F000657274656D70657261747572650A00203F
:10130000647269766572206572726F7220646574AA
:1013100065637465643A203078006D6178002F331E
:101320003100092042616420726573706F6E7365CD
:1013300021004C6F6164206D6D00556E6C6F6164AF
:10134000206D6D0046696C2E204469612E00452099
:10135000696E206D6DC2B300200820466163740081
:101360002008204D6178002008204D696E004175ED
:10137000746F74656D70005654726176204D696E9D
:1013800000566D696E00566D6178204500566D619E
:1013900078205A00566D6178205900566D6178208A
:1013A0005800416D6178204500416D6178205A00F8
:1013B000416D6178205900416D6178205800412DC0
:1013C00054726176656C00412D526574726163746C
:1013D00000416363656C00656E7175657565696E66
:1013E000672022006F6B00526573656E643A2000BF
:1013F00025697920256964202569682025696D2083
:101400002569730042656420436F6F6C696E672EB7
:101410002E2E004265642048656174696E672E2E29
:101420002E0023646566696E652044454641554C2F
:10143000545F004B6420004B6920004B702000502B
:101440004944204175746F74756E652066696E69D4
:1014500073686564212050757420746865206C6120
:101460007374204B702C204B6920616E64204B6498
:1014700020636F6E7374616E74732066726F6D207B
:1014800062656C6F7720696E746F20436F6E66695A
:101490006775726174696F6E2E680A005049442046
:1014A0004175746F74756E65206661696C65642141
:1014B0002074696D656F75740A000A20436C61734E
:1014C00073696320504944200A00204B643A20008D
:1014D000204B693A2000204B703A20002054753A86
:1014E0002000204B753A2000206D61783A200020C2
:1014F0006D696E3A200020643A20002062696173B1
:101500003A2000504944204175746F74756E65200F
:1015100073746172740A00504944204175746F7489
:10152000756E65206661696C6564212054656D7017
:101530006572617475726520746F6F206869676881
:101540000A00504944204175746F74756E652066B9
:1015500061696C65642120426164206578747275EC
:10156000646572206E756D6265720A004572723A2A
:10157000207574663820666F6E74206E6F742069F3
:101580006E697469616C697A65642E00000C0D00E7
:10159000FE07022603BC017FFE08FE08FE050808C0
:1015A00006000040F0C888889878100508080600F2
:1015B00000C0F88888888888F8050505060001209D
:1015C00030F830200508080600002070F8202020A0
:1015D00020E00509090600FF2070A8A8B8888870D7
:1015E00020050606060001E08CEA8C8A0A05090936
:1015F0000600FFF8A88888888888A8F8050A0A06DF
:1016000000FE205050505088A8A88870030303069D
:10161000000340A040FFFFFFFFFFFFFFFFFFFFFFB2
:10162000FFFFFFFFFFFFFFFFFFFFFF0000000605BA
:10163000FF0107070602008080808080008003038E
:1016400003060105A0A0A005060606000050F850FC
:1016500050F8500509090600FF2070A8A07028A8BE
:101660007020050707060000C8C81020409898059C
:10167000070706000040A0A040A8906801030306E9
:1016800002058080800309090601FF204040808018
:10169000804040200309090601FF804040202020AF
:1016A00040408005070706000020A8702070A82091
:1016B0000505050600012020F8202002030306018D
:1016C000FFC04080050101060003F8020202060186
:1016D00000C0C00507070600000810102040408029
:1016E000050707060000708898A8C88870030707D8
:1016F00006010040C040404040E0050707060000EA
:10170000708808102040F8050707060000F8081048
:101710003008887005070706000010305090F81058
:1017200010050707060000F880F008088870050714
:1017300007060000304080F0888870050707060023
:1017400000F8081010202020050707060000708808
:1017500088708888700507070600007088887808F8
:101760001060020505060100C0C000C0C0020606E8
:101770000601FFC0C000C04080030505060101202E
:1017800040804020050303060002F800F803050529
:101790000601018040204080050707060000708890
:1017A00010202000200507070600007088B8A8B8A0
:1017B0008070050707060000708888F8888888050B
:1017C0000707060000F04848704848F0050707067C
:1017D000000070888080808870050707060000F090
:1017E0004848484848F0050707060000F88080F0A0
:1017F0008080F8050707060000F88080F080808070
:101800000507070600007088808098887005070724
:10181000060000888888F888888803070706010082
:10182000E04040404040E005070706000038101047
:10183000101090600507070600008890A0C0A090D7
:1018400088050707060000808080808080F80507F3
:101850000706000088D8A88888888805070706003A
:10186000008888C8A898888805070706000070883F
:101870008888888870050707060000F08888F0804F
:10188000808005070706000070888888A890680592
:101890000707060000F08888F0A090880507070673
:1018A000000070888070088870050707060000F83F
:1018B000202020202020050707060000888888882F
:1018C000888870050707060000888888885050209F
:1018D00005070706000088888888A8A8500507071C
:1018E00006000088885020508888050707060000F9
:1018F00088885020202020050707060000F80810DF
:10190000204080F80309090601FFE0808080808084
:101910008080E00507070600008040402010100886
:101920000309090601FFE020202020202020E005F7
:1019300003030600052050880501010600FEF80398
:101940000303060105804020050505060000700818
:101950007888780507070600008080F0888888F07E
:1019600005050506000070808088700507070600E1
:1019700000080878888888780505050600007088C2
:10198000F08070050707060000304840E040404006
:101990000507070600FE7088888878087005070725
:1019A0000600008080F08888888803070706010009
:1019B0004000C0404040E00409090601FE1000302C
:1019C00010101010906005070706000080808890B6
:1019D000E09088030707060100C04040404040E017
:1019E000050505060000D0A8A8A8A805050506005D
:1019F00000B0C888888805050506000070888888BA
:101A0000700507070600FEF0888888F080800507CB
:101A1000070600FE7888888878080805050506000E
:101A200000B0C88080800505050600007880700839
:101A3000F00507070600002020F8202020180505E3
:101A40000506000088888898680505050600008856
:101A5000888850200505050600008888A8A850053C
:101A6000050506000088502050880507070600FE7F
:101A700088888850204080050505060000F8102061
:101A800040F80309090601FF2040404080404040E3
:101A9000200109090602FF8080808080808080808C
:101AA0000309090601FF8040404020404040800576
:101AB000030306000248A890FF737465616C7468A4
:101AC00043686F70004D32342053256C64205425D8
:101AD0006C64004739322E39204525730047312088
:101AE000462564004739322E39205A257300473184
:101AF000205A30204632303000473120582573209C
:101B0000592573204633303030004D343230205365
:101B10002569205A2573004D313036205025692023
:101B2000532569004739322E392045305A300A474B
:101B3000315A320A47323852305859004D31303913
:101B400020532569004D31393020532569004D322D
:101B5000303020442573004D343230205330205A29
:101B6000300020506F7765722D4C6F737320526573
:101B7000636F7665727920446174610A00496E76FC
:101B8000616C6964004E6F00496E76616C69640A2D
:101B90000056616C69640A004E6F20504C520A0076
:101BA000504C52204578697374730A00506F776502
:101BB000722D6C6F7373207265636F766572792016
:101BC00000617869733A70776D5F7363616C652F3C
:101BD000637572725F7363616C652F6D6563685FB7
:101BE0006C6F61647C666C6167737C7761726E6335
:101BF0006F756E740A004452565F535441545553E6
:101C0000090050574D5F5343414C45090050574D13
:101C1000434F4E460900434F4F4C434F4E46090039
:101C200043484F50434F4E460900544849474809DE
:101C3000090054434F4F4C544852530900545057D5
:101C40004D54485253090054535445500909005407
:101C5000504F574552444F574E0900494F494E097E
:101C60000900475354415409090049484F4C445F07
:101C70004952554E090047434F4E460909007370BB
:101C8000726561644379636C65002064726976658E
:101C900072206D6F64653A0900206472697665721E
:101CA0002063757272656E743A20002070726577D9
:101CB00061726E20666C616720636C656172656439
:101CC0000A0020496E76616C6964206578747275CB
:101CD000646572200050726F6265205A204F6666FC
:101CE0007365740046616E205370656564203D0025
:101CF0004E6F7A7A6C65004D61696E00466C6F7745
:101D0000002020202020202000256C6425636D0009
:101D10001FE0201020102010102010202010201074
:101D200030300840048003001FE03FF03FF03FF0F8
:101D30001FE01FE03FF03FF03FF00FC007800300BF
:101D40003FFFF038007030FC3020FC10207810206D
:101D500030102C00D02E31D02F7BD02F7BD02E31C5
:101D6000D02C00D020301020781020FC1030FC3017
:101D70003800703FFFF03FFFF038007031863023AD
:101D800087102787902F87D02F03D02030102078FE
:101D9000102078102030102F03D02F87D027879065
:101DA0002387103186303800703FFFF01FFFF81F87
:101DB000FFF8041040020820020820041040082008
:101DC00080104100104100082080041040000000F5
:101DD0001FFFF81FFFF84C6F61642053657474692E
:101DE0006E67730053746F72652053657474696E07
:101DF000677300416476616E636564205365747433
:101E0000696E677300554E4C4F41442046494C4122
:101E10004D454E540046494C414D454E5420434893
:101E2000414E474500436D643A2053746F77004339
:101E30006D643A204465706C6F7900436D643A209C
:101E400053572D4D6F646500436D643A2053656CA4
:101E5000662D5465737400436D643A205265736552
:101E6000740046616E20537065656400526573743A
:101E70006F7265206661696C73616665005072659A
:101E8000686561742041425320436F6E6600507252
:101E9000656865617420504C4120436F6E66004256
:101EA0004C546F756368004D373032205425640000
:101EB0004D36303020423020542564004D373032CA
:101EC000203B2564004D37303120542564004D37C8
:101ED0003032004D373031004D3630302042300046
:101EE0005075726765206D6F726500436F6E74691F
:101EF0006E756500524553554D45204F5054494F1E
:101F00004E533A005052494E542050415553454487
:101F10000020204E6F7A7A6C653A200054656D700F
:101F200065726174757265004F6666004F6E00548D
:101F30004D4320447269766572730050726568651E
:101F400061742041425320456E640050726568659B
:101F50006174204142532042656400436F6F6C649A
:101F60006F776E00537465616C746843686F70209E
:101F7000456E61626C6564005374657070696E676C
:101F8000204D6F64650053656E736F726C6573737B
:101F900020486F6D696E67004472697665722043F0
:101FA000757272656E7400436F6E74726F6C0000B0
:101FB0000000000000204100000000000048420036
:101FC00000484200008040020204000000000000BF
:101FD000000000000040000096430000964300000F
:101FE000C843FFFFFF7A5F6D696E00795F6D696EB0
:101FF00000785F6D696E005265706F7274696E670C
:1020000020656E6473746F70207374617475730AE5
:102010000020436F756E7420583A0020453A0048FE
:102020006F6D696E67204661696C65640057617207
:102030006E696E673A20486F6D696E672042756DF4
:10204000702044697669736F72203C20310A002445
:10205000F4D43050C38E20C2A24017828B7011126C
:102060007A910D816CD90AA861E108C758660761A9
:102070005143061E4B5D05C145A7041A41110409D1
:102080003D9803713931034036DB0265339102D448
:10209000305402802E1D02632CEE01752AC501B05A
:1020A00028A001102781018F2564012B244B01E01A
:1020B000223401AC211F018D200D01801FFC008402
:1020C0001EED00971DDF00B81CD200E61BC60020E5
:1020D0001BBC00641AB200B219A8000A19A0006A59
:1020E000189900D117910040178B00B51684003164
:1020F000167E00B31579003A157300C7146F0058A7
:10210000146A00EE1366008813630025135E00C78F
:10211000125B006C12570015125400C1115100706F
:10212000114F0021114B00D61049008D1047004679
:1021300010440002104200C00F4000800F3E0042D9
:102140000F3C00060F3B00CB0E3800930E37005CAF
:102150000E3500270E3400F30D3200C10D31009012
:102160000D3000600D2E00320D2D00050D2C00D914
:102170000C2B00AE0C2900850C29005C0C270035C7
:102180000C27000E0C2600E80B2400C40B2400A032
:102190000B23007D0B23005A0B2100390B21001863
:1021A0000B2000F80A1F00D90A1E00BB0A1E009D62
:1021B0000A1D00800A1D00630A1C00470A1B002C30
:1021C0000A1B00110A1A00F7091A00DD091900C4D8
:1021D000091900AB091900920917007B091800635F
:1021E0000917004C09160036091600200916000AC6
:1021F000091500F5081500E0081400CC081400B813
:10220000081400A4081400900813007D0812006B45
:102210000813005808120046081200340811002361
:102220000811001208110001081100F0071000E069
:10223000071000D0071000C0071000B0070F00A162
:1022400007100091070E0083070F0074070F006549
:10225000070E0057070E0049070E003B070D002E22
:10226000070E0020070D0013070D0006070D00F9EB
:10227000060C00ED060D00E0060C00D4060C00C8AC
:10228000060C00BC060C00B0060C00A4060B00995E
:10229000060C008D060B0082060B0077060B006C07
:1022A000060B0061060A0057060B004C060A0042A6
:1022B000060A0038060A002E060A0024060A001A3A
:1022C000060A001006090007060A00FD050900F4C9
:1022D000050900EB050900E2050900D9050900D050
:1022E000050900C7050900BE050900B5050800ADD0
:1022F000050800A50509009C050800940508008C48
:10230000050800840508007C050800740508006CB9
:10231000050700650508005D050700560508004E25
:10232000050700470507004005080038050700318C
:102330000507002A050700230507001C05060016EF
:102340000507000F0507000805060002050700FB4A
:10235000040600F5040700EE040600E8040600E2A7
:10236000040700DB040600D5040600CF040600C9FC
:10237000040600C3040600BD040600B7040600B14D
:10238000040500AC040600A6040600A00405009B9A
:1023900004060095040500900406008A04050085E3
:1023A000040500800406007A040500750405007029
:1023B0000405006B04050066040500610405005C6B
:1023C00004050057040500520405004D04050048AB
:1023D000040500430405003E0404003A04050035EA
:1023E000040500300404002C040500270404002325
:1023F0000405001E0404001A04040016040500115C
:102400000404000D04040009040500040404000091
:10241000040400FC030400F8030400F4030400F0C7
:10242000030400EC030400E8030400E4030400E0F8
:10243000030400DC030400D8030400D4030400D028
:10244000030400CC030400C8030300C503030024F5
:10245000F404D9201BC40C5C0E9804C4095F026507
:10246000077101F405F900FB04B30048048700C1BB
:102470000369005803550003034500BE023A008477
:1024800002310053022A002902250004022000E440
:10249000011C00C8011900AF011700980114008445
:1024A000011300710110006101100051010E004381
:1024B000010D0036010B002B010B0020010B001554
:1024C0000109000C01090003010800FB000800F3EA
:1024D000000800EB000700E4000600DE000600D85C
:1024E000000600D2000600CC000500C7000500C2AF
:1024F000000500BD000400B9000400B5000400B1EF
:10250000000400AD000400A9000400A5000300A21F
:102510000003009F0004009B000300980003009547
:1025200000020093000300900003008D0002008B66
:10253000000300880002008600020084000300817E
:102540000002007F0002007D0002007B0002007993
:1025500000020077000100760002007400020072A1
:10256000000100710002006F0002006D0001006CAC
:102570000002006A000100690002006700010066B5
:1025800000010065000100640002006200010061BA
:10259000000100600001005F0002005D0001005CBE
:1025A0000001005B0001005A0001005900010058C1
:1025B00000010057000100560001005500010054C1
:1025C00000010053000000530001005200010051BF
:1025D000000100500001004F0001004E0000004EBD
:1025E0000001004D0001004C0001004B0000004BB9
:1025F0000001004A000100490001004800000048B5
:1026000000010047000100460000004600010045AF
:1026100000000045000100440001004300000043A9
:1026200000010042000000420001004100000041A2
:10263000000100400001003F0000003F0001003E9B
:102640000000003E0001003D0000003D0001003C94
:102650000000003C0000003C0001003B0000003B8B
:102660000001003A0000003A000100390000003982
:102670000001003800000038000000380001003779
:102680000000003700010036000000360000003670
:102690000001003500000035000000350001003465
:1026A000000000340000003400010033000000335B
:1026B0000000003300010032000000320000003250
:1026C0000001003100000031000000310001003045
:1026D00000000030000000300001002F0000002F3B
:1026E0000000002F0000002F0001002E0000002E2F
:1026F0000000002E0001002D0000002D0000002D24
:102700000000002D0001002C0000002C0000002C17
:102710000000002C0001002B0000002B0000002B0B
:102720000000002B0001002A0000002A0000002AFF
:102730000000002A000100290000002900000029F3
:1027400000000029000000290001002800000028E6
:1027500000000028000000280000002800010027D9
:1027600000000027000000270000002700000027CD
:1027700000010026000000260000002600000026C0
:1027800000000026000100250000002500000025B3
:1027900000000025000000250000002500010024A5
:1027A0000000002400000024000000240000002499
:1027B000000100230000002300000023000000238C
:1027C000000000230000002300000023000100227D
:1027D0000000002200000022000000220000002271
:1027E0000000002200010021000000210000002163
:1027F0000000002100000021000000210000002155
:102800000001002000000020000000200000002047
:102810000000002000000020000000200000002038
:102820000001001F0000001F0000001F0000001F2B
:102830000000001F0000001F0000001F0001001E1C
:102840000000001E0000001E0000001E000000042A
:102850003700001E290000511B0000581000001016
:10286000090000CC04000078020000410100005083
:10287000726F62696E6720506F696E740025532015
:1028800025692F25690050726F62696E67206D653A
:10289000736820706F696E7420002028445259526A
:1028A000554E2900473239204175746F20426564C6
:1028B000204C6576656C696E67003F20284C2C5271
:1028C0002C462C4229206F7574206F6620626F752C
:1028D0006E64732E0A003F2856296572626F736515
:1028E000206C6576656C20696D706C6175736962CA
:1028F0006C652028302D34292E0A00426164205A4C
:102900002076616C75650A004E6F2062696C696E95
:1029100065617220677269640A00416363656C6572
:10292000726174696F6E3A2050005741524E494EA1
:102930004721204C6F77205A204A65726B206D61C9
:1029400079206C65616420746F20756E77616E7498
:102950006564207061757365732E0A00204D3932ED
:102960002058004E6F204D6F76652E0020204D615F
:10297000783A200020204D696E3A2000536F66742B
:1029800020656E6473746F70733A200020627974EE
:1029900065733B20637263200053657474696E67CE
:1029A000732053746F726564202800454550524F60
:1029B0004D206461746173697A65206572726F720B
:1029C0002E0A002073746F726564207365747469D5
:1029D0006E6773207265747269657665642028007D
:1029E000202863616C63756C6174656429210A0039
:1029F00020213D2000454550524F4D204352432059
:102A00006D69736D61746368202D202873746F7213
:102A10006564292000496E6465783A2000204D6184
:102A2000726C696E3D563734290A00454550524F45
:102A30004D2076657273696F6E206D69736D617478
:102A400063682028454550524F4D3D000000964395
:102A500000009B430000C84344726976657220728F
:102A600065676973746572733A0A007332767362CC
:102A70000900733276736109003132304309003145
:102A800034334309003135304309003135374309C8
:102A9000006F7409006F7470770900733267610901
:102AA000007332676209006F6C6109006F6C620924
:102AB000007374737409004452565354415455536F
:102AC000005374616C6C6775617264207468727312
:102AD000002D73746172740900687973746572658E
:102AE0007369730A2D656E640900626C616E6B20F8
:102AF00074696D65006F66662074696D65004F547A
:102B0000207072657761726E206861730A62656514
:102B10006E20747269676765726564004F54207037
:102B200072657761726E005B6D6D2F735D09007069
:102B3000776D0A7468726573686F6C64007473747F
:102B4000657009006D737465707309007673656E46
:102B50007365090050574D207363616C65004353E2
:102B60002061637475616C00486F6C6420637572DA
:102B700072656E740052756E2063757272656E7444
:102B8000004D41582063757272656E7400524D534A
:102B90002063757272656E7400536574206375727C
:102BA00072656E7400456E61626C65640900416413
:102BB00064726573730900303D2E33323500313D48
:102BC0002E3138004F46460A00466164652048654C
:102BD000696768742000426564204C6576656C699D
:102BE0006E6720004661696C656420746F20656EB5
:102BF00061626C6520426564204C6576656C696E27
:102C0000670A00496E76616C6964206D6573682E91
:102C10000A000000000000000000000000000000AA
:102C200000000000000000000000000000000000A4
:102C30000000000000000000000000000000000094
:102C40000000000000000000000000000000000084
:102C50000000000000000000000000000000000074
:102C60000000000000000000000000000000000064
:102C70000000000000000000000000000000000054
:102C80000000000000000000000000000000000044
:102C90000000007FFF0FFF0000001F8060030FFF98
:102CA000E000007FFF1FFF8700383FC070030FFF69
:102CB000E000007FFE1FFFC300387FE078030FFFB6
:102CC000E0000000001801C30030F0F078030000BD
:102CD00000000000001800E30030E0787C030000F2
:102CE00000000000001800638071C0386E0300000F
:102CF00000000000001800E38071801867030000E6
:102D000000000000001800C1E1E1801C6703000022
:102D10000000007FFE1FFFC1FFE3801C630307FF6D
:102D2000C000007FFF1FFFC07F83801C60030FFF78
:102D3000E000007FFF1FFF803F03801C60030FFF48
:102D4000E0000000001801C00C03801C603300008C
:102D500000000000001800C00C018018603B00005B
:102D600000000000001800C00C01C018603B00000B
:102D700000000000001800C00C01C038601F0000F7
:102D800000000000001800C00C00E070600F0000A0
:102D900000000000001800C00C0079F0600F000077
:102DA0000000007FFF1800C00C007FE060070FFFED
:102DB000E000007FFF1800C00C001F8060030FFFC1
:102DC000E000007FFE0800C004000F0020010FFF9C
:102DD000E000000000000000000000000000000013
:102DE00000000000000000000000000000000000E3
:102DF00000000000000000000000000000000000D3
:102E000000000000000000000000000000000000C2
:102E100000000000000000000000000000000000B2
:102E200000000000000000000000000000000000A2
:102E30000000000000000000000000000000000092
:102E40000000000000000000000000000000000082
:102E50000000000000000000000000000000000072
:102E60000000000000000000000000000000000062
:102E700000000000000C030004000000000000003F
:102E8000000000003FEC030004000000C067C00029
:102E900000000000020C000004000000404460003C
:102EA00000000000020C00000400000060C0600090
:102EB00000000000020DE3378471E36020C02000B1
:102EC00000000000020E3338C4C33380308060003D
:102ED00000000000020C3330C48613003180400033
:102EE00000000000020C3330C50613001101C000C1
:102EF00000000000020C3330C707F3001903800004
:102F000000000000020C3330C58403001B060000E3
:102F100000000000020C3330C4C603000A0C00009D
:102F200000000000020C3330C46313000E0C0000DC
:102F300000000000020C3330C431E3000E0FE0004B
:102F40000000000000000000000000000000000081
:102F50000000000000000000000000000000000071
:102F60000000000000000000000000000000000061
:102F70000000000000000000000000000000000051
:102F80000000000000000000000000000000000041
:102F90000000000000000000000000000000000031
:102FA0000000000000000000000000000000000021
:102FB0000000000000000000000000000000000011
:102FC0000000000000000000000000000000000001
:102FD00000000000000000000000000000000000F1
:102FE00000000000000000000000000000000000E1
:102FF00000000000000000000000000000000000D1
:1030000000000000000000000000000000000000C0
:10301000000001FFFFFFFFFFFFFFFFFFFFFFFFFFBC
:103020000FFFFFFFFFFFFFFFFFFFFFFFFFFF1E0080
:1030300000000000000000000007FFFF3800000053
:103040000000000000000003FFFF7000000000000F
:10305000000000000001FFFF600000000000000011
:1030600000000000FFFF6000000000000000000002
:1030700000007FFFC000000000000000007800009A
:103080003FFFC00FC0FC00000000007818001FFFC9
:10309000C03FE1FF0000000000783C000FFFC07F50
:1030A000F3FF8000000000783C0007FFC0FFFFFF37
:1030B000C000000000783C0003FFC1F87F87E000FB
:1030C00000000078000001FFC1F03F03E0000000B5
:1030D0000078000000FFC1E01E01E01F0003E0785F
:1030E0003C03F07FC1E01E01E07FC00FF8783C0791
:1030F000FC3FC1E01E01E1FFE01FFC783C0FFE1F1A
:10310000C1E01E01E3FFF03FFE783C1FFE0FC1E06F
:103110001E01E3F3F83F3E783C3F3F07C1E01E014C
:10312000E7E0FC7C1F783C3E1F07C1E01E01E7C0C2
:103130007C7C0F783C3C0F03C1E01E01E7807C786B
:103140000F783C3C0F03C1E01E01E7803C7800781B
:103150003C3C0F03C1E01E01E7803C7800783C3C1A
:103160000F03C1E01E01E7803C7800783C3C0F0370
:10317000C1E01E01E7C03C7800783C3C0F03C1E091
:103180001E01E3E03C78007C3C3C0F03C1E01E01E3
:10319000E3FF3FF8007FBC3C0F03C1E01E01E1FFED
:1031A0003FF8003FBFFC0F03C1E01E01E0FF3FF806
:1031B000001FBFFC0F03C1E01E01E07F3FF8000FBE
:1031C000BFFC0F03600000000000000000000000D2
:1031D0000007600000000000000000000000000682
:1031E000700000000000000000000000000E380029
:1031F00000000000000000000000001C1E00000095
:10320000000000000000000000780FFFFFFFFFFF3C
:10321000FFFFFFFFFFFFFFF001FFFFFFFFFFFFFFCB
:10322000FFFFFFFFFF80687474703A2F2F6D61728B
:103230006C696E66772E6F726700322E302E7800C2
:103240004D31303030205300205049445F64543AAF
:103250000020643A002069693A0020703A0020207A
:10326000506C616E6E657242756666657242797405
:1032700065733A20002046726565204D656D6F725A
:10328000793A2000436F6D70696C65643A204F6332
:103290007420203920323032300A00204C6173749F
:1032A00020557064617465643A20323031392D31B3
:1032B000322D3031207C20417574686F723A20289D
:1032C0006E6F6E652C2064656661756C7420636F2B
:1032D0006E666967290A00322E302E780A004D6129
:1032E000726C696E0020536F66747761726520524C
:1032F000657365740A00205761746368646F6720A2
:1033000052657365740A002042726F776E206F7584
:10331000742052657365740A002045787465726E76
:10332000616C2052657365740A00506F7765725541
:10333000700A006175746F25632E67004732385834
:1033400059006572726F722077726974696E6720B6
:10335000746F2066696C650A00446F6E6520736146
:1033600076696E672066696C652E0A004D323900F9
:10337000456E6473746F7073002553202563202598
:103380006320256320256300205A3A0020593A0023
:10339000656E6473746F7073206869743A20007C82
:1033A0003C3E5E2B3D3F2F5B5D3B2C2A225C002088
:1033B000746F6F206C6F6E672065787472757369B7
:1033C0006F6E2070726576656E7465640A002063A6
:1033D0006F6C6420657874727573696F6E2070729B
:1033E0006576656E7465640A00220A00556E6B6E20
:1033F0006F776E20636F6D6D616E643A2022004CB2
:103400004F570048494748004F4B004572726F7252
:103410003A20416C6C200020636F6E6E65637469A6
:103420006F6E2E2E2E200054657374696E67200017
:103430006F70656E206661696C65642C2046696CEE
:10344000653A2000506C6561736520526573657440
:10345000005052494E5445522048414C5445440076
:1034600025533A202553004B494C4C45442E20000F
:103470005072696E7465722068616C7465642E2088
:103480006B696C6C28292063616C6C6564210A008F
:103490006563686F3A004572726F723A0066616CDC
:1034A000736500747275650042696C696E6561725E
:1034B000204C6576656C696E6720477269643A0ACC
:1034C0000053544F505045442E20005072696E7482
:1034D00065722073746F7070656420647565207404
:1034E0006F206572726F72732E204669782074683F
:1034F00065206572726F7220616E6420757365203D
:103500004D39393920746F20726573746172742E6D
:10351000202854656D7065726174757265206973D9
:103520002072657365742E20536574206974206160
:10353000667465722072657374617274696E67294E
:103540000A0053544F502063616C6C6564206265BF
:103550006361757365206F6620424C546F756368B4
:10356000206572726F72202D20726573746172749F
:103570002077697468204D3939390A00486F7465BD
:103580006E6420746F6F20636F6C640A004D363078
:10359000303A20546F6F20436F6C64005072657333
:1035A0007320627574746F6E20746F20726573750A
:1035B0006D650A00507265737320627574746F6E66
:1035C00020746F2068656174206E6F7A7A6C650A6A
:1035D000003F0043616E63656C004D6F74696F6EF0
:1035E000004175746F20486F6D650053746172748B
:1035F000205072696E740043616E6E6F7420656E48
:10360000746572207375626469723A2000022E2E0E
:10361000004D38340044697361626C6520537465F1
:10362000707065727300473238205A00486F6D65BC
:10363000205A00473238205900486F6D65205900E4
:10364000473238205800486F6D652058004732389F
:10365000005072656865617420504C4120456E646D
:10366000005072656865617420504C412042656469
:10367000004F7574616765205265636F7665727976
:1036800000436F6E66696775726174696F6E0025BD
:103690006C642E25696D00457874727564656420CC
:1036A000546F74616C004C6F6E67657374204A6F61
:1036B000622054696D65003E2000546F74616C2077
:1036C0005072696E742074696D6500436F6D706C23
:1036D00065746564005072696E7420436F756E7412
:1036E00000313530004245443A486973656E7320B5
:1036F000333935300052756E6177617920576174C6
:1037000063683A204F4E004D61782054656D70001B
:10371000323735004D696E2054656D700045313A81
:1037200020486973656E7320333935300050535526
:103730000047656E657269630050726F746F636FE6
:103740006C00312E3000426175640032353030300B
:10375000300052616D626F0042696C696E65617222
:10376000204C6576656C696E670045787472756487
:10377000657273005468696E6B65722056325F42E1
:103780004C5F3232303900323031392D31322D3008
:1037900031005072696E74657220537461747300E5
:1037A000546865726D6973746F727300426F6172F1
:1037B0006420496E666F005072696E7465722049AC
:1037C0006E666F004D313030300053746F70205092
:1037D00072696E7400526573756D65205072696E02
:1037E000740053746F70004D3231004368616E672E
:1037F00065204D656469610041626F757420507287
:10380000696E746572004E6F204D65646961005485
:10381000756E6500496E666F2053637265656E0054
:103820005061726B696E672E2E2E00000057616921
:103830007420666F720066696C616D656E742063DA
:1038400068616E676500746F2073746172740057ED
:1038500061697420666F720066696C616D656E7473
:1038600020756E6C6F616400004E6F7A7A6C652013
:1038700068656174696E6700506C65617365207777
:103880006169742E2E2E000050726573732062756C
:1038900074746F6E00746F2068656174206E6F7A47
:1038A0007A6C650000496E736572742066696C619C
:1038B0006D656E7400616E64207072657373206252
:1038C0007574746F6E00746F20636F6E74696E75BB
:1038D00065005761697420666F720066696C616D7E
:1038E000656E74206C6F61640000507265737320A4
:1038F000427574746F6E00746F20726573756D65B8
:10390000207072696E7400005761697420666F726E
:10391000207072696E7400746F20726573756D65C6
:103920002E2E2E00005761697420666F7200666942
:103930006C616D656E742070757267650000566508
:103940002D4A65726B00565A2D4A65726B005659A6
:103950002D4A65726B0056582D4A65726B0045738F
:10396000746570732F6D6D005A73746570732F6D6D
:103970006D005973746570732F6D6D0058737465A5
:1039800070732F6D6D00496E6974004D34323800CC
:10399000496E697469616C697A6520454550524F7A
:1039A0004D0053746570732F6D6D00416363656CDA
:1039B00065726174696F6E0056656C6F63697479C6
:1039C0000053657420486F6D65204F66667365749B
:1039D0007300466164652048656967687400473212
:1039E000380A473239004C6576656C2042656400C0
:1039F000453100626564002C2073797374656D2015
:103A000073746F7070656421204865617465725FBE
:103A100049443A200048656174696E6720466169CF
:103A20006C65640048656174696E67206661696CE5
:103A3000656400202D20496E76616C69642065788C
:103A4000747275646572206E756D62657220210AEC
:103A500000544845524D414C2052554E4157415912
:103A600000546865726D616C2052756E6177617982
:103A7000004572723A204D415854454D50004D4119
:103A80005854454D502074726967676572656400CB
:103A90004572723A204D494E54454D50004D494EA5
:103AA00054454D5020747269676765726564004DB6
:103AB000383420582059205A204500202F00204219
:103AC000403A0020403A0020573A000040012C01C3
:103AD00073012201AB011801F3010E014802040138
:103AE000AC02FA002A03F000C303E6008004DC0005
:103AF0006D05D2006C06C800C707BE007009B4008F
:103B00006D0BAA00CB0DA000CF138C00F21B780028
:103B1000E9246400142E50009C353C00B83A28007B
:103B2000A03D14000B3F00005072696E7420667255
:103B30006F6D204D6564696100205A3A200020595C
:103B40003A200042656420583A20004368616E675D
:103B5000652046696C616D656E7400556E6C6F61B1
:103B6000642046696C616D656E74004C6F61642001
:103B700046696C616D656E7400507265686561744C
:103B800020414253005072656865617420504C4179
:103B9000005072656865617420437573746F6D00C1
:103BA0004261636B0050726F62696E6720466169A3
:103BB0006C65640A0050726F62696E6720466169C5
:103BC0006C656400486F6D6520257325732573202F
:103BD000466972737400496E736572742066696C0D
:103BE000616D656E7420616E642070726573732000
:103BF000627574746F6E0A002053697A653A20000A
:103C000043616E6E6F74206F70656E2073756264B1
:103C10006972200053442063617264206F6B0A0054
:103C20006F70656E526F6F74206661696C65640AAF
:103C300000766F6C756D652E696E697420666169BA
:103C40006C65640A00534420696E6974206661697A
:103C50006C0A004D32332025730057726974696E07
:103C60006720746F2066696C653A200046696C6550
:103C70002073656C65637465640A0046696C652031
:103C80006F70656E65643A200066726573680064E3
:103C90006F696E67004E6F772000454E4420535584
:103CA00042524F5554494E450A002220706F73000E
:103CB0002220706172656E743A2200535542524F51
:103CC0005554494E452043414C4C20746172676500
:103CD000743A2200747279696E6720746F20636190
:103CE0006C6C207375622D67636F64652066696C08
:103CF0006573207769746820746F6F206D616E79C9
:103D0000206C6576656C732E204D4158206C65766D
:103D1000656C2069733A310A0044656C6574696F9B
:103D20006E206661696C65642C2046696C653A207A
:103D30000046696C652064656C657465643A005082
:103D40006F7765722D6C6F73732066696C65206484
:103D5000656C657465004D6963726F73746570732B
:103D600020756E617661696C61626C650A0045312F
:103D70003A200045303A20004D53312C4D53322C1F
:103D80004D53332050696E730A583A2000507269BF
:103D90006E742050617573656400506175736520A1
:103DA0005072696E74004D656469612052656D6F73
:103DB000766564004D6564696120496E736572744F
:103DC0006564005468696E6B65722056325F424CC0
:103DD0005F323230392052656164792E0050726949
:103DE0006E74696E672E2E2E005072696E742041BB
:103DF000626F72746564004D323520500A4D323462
:103E00000000002100240027002A002D003000338C
:103E10000001010000040107010A01000022002541
:103E20000028002B002E00310034000201000005A4
:103E30000108010B01000020002300260029002CAE
:103E4000002F0032000001000003010601090105F6
:103E5000050505070508080808020202020A0A0803
:103E60000804040404010101010101010103030329
:103E70000303030303040707070C0C0C0C0C0C0CC6
:103E80000C0202020206060606060606060B0B0BCD
:103E90000B0B0B0B0B07070A0A0A0A0A0A05050592
:103EA0000404040808010210202008081020401013
:103EB00020408002010201080402010102040810EE
:103EC000204080804020100804020180040201800C
:103ED0004020100804020108040201010204081035
:103EE000204080010204081020408010080408804F
:103EF000102040044080102040048000000A0B0283
:103F0000090C0D0E0807030401000000000000006A
:103F100000000000000000000000000000000000A1
:103F2000000000000000001211100000000000005E
:103F30000000000000000000000000000000000081
:103F40000000000000000000000000000000000071
:103F5000004D6F76652025736D6D004D6F76652081
:103F6000302E316D6D004D6F766520316D6D004DD9
:103F70006F76652031306D6D004D6F76652041782C
:103F8000697300486F74656E6420746F6F20636F8F
:103F90006C64004578747275646572004D6F766567
:103FA000205A004D6F76652059004D6F7665205878
:103FB0000020540020520048617264636F6465649D
:103FC0002044656661756C742053657474696E670E
:103FD00073204C6F616465640A0020204D393036CF
:103FE0000020204D3931340020204D353639205302
:103FF000310020204D363033200020550046696CBA
:10400000616D656E74206C6F61642F756E6C6F618D
:1040100064206C656E677468733A0A00447269764E
:104020006572207374657070696E67206D6F64656A
:104030003A0A005374616C6C47756172642074684D
:10404000726573686F6C643A0A0020543020450032
:10405000537465707065722064726976657220634E
:10406000757272656E743A0A0020204D3835312021
:1040700058005A2D50726F6265204F6666736574E2
:104080000020204D343133205300506F7765722D5E
:104090004C6F7373205265636F766572793A0A00CC
:1040A00020204D3330312050005049442073657436
:1040B00074696E67733A0A00204600204800202089
:1040C0004D3134352053004D6174657269616C2047
:1040D00068656174757020706172616D6574657278
:1040E000733A0A00204A00202047323920572049DD
:1040F0000020204D3432302053004175746F20422F
:104100006564204C6576656C696E673A0A0020200C
:104110004D323036205800486F6D65206F666673EB
:1041200065743A0A0020204D323035204200204587
:104130003C6D61785F655F6A65726B3E0020583C3C
:104140006D61785F785F6A65726B3E20593C6D6186
:10415000785F795F6A65726B3E205A3C6D61785F6B
:104160007A5F6A65726B3E00416476616E63656476
:104170003A20423C6D696E5F7365676D656E745F72
:1041800074696D655F75733E20533C6D696E5F6643
:10419000656564726174653E20543C6D696E5F7440
:1041A000726176656C5F66656564726174653E0018
:1041B00020204D323034205000416363656C6572BD
:1041C0006174696F6E2028756E6974732F7332295C
:1041D0003A20503C7072696E745F616363656C3E37
:1041E00020523C726574726163745F616363656CD5
:1041F0003E20543C74726176656C5F616363656CEC
:104200003E0A0020204D3230312058004D6178693F
:104210006D756D20416363656C65726174696F6E65
:104220002028756E6974732F7332293A0A00202092
:104230004D3230332058004D6178696D756D2066C0
:1042400065656472617465732028756E6974732F77
:1042500073293A0A00537465707320706572207573
:104260006E69743A0A0020204D3230302044300A02
:104270000020204D323030204400204469736162B8
:104280006C65640A0046696C616D656E74207365C7
:104290007474696E67733A0020204D3134392043BD
:1042A000203B20556E69747320696E2043656C73E2
:1042B0006975730A0020286D6D290020204732316E
:1042C000202020203B20556E69747320696E206D7C
:1042D0006D006F70656E0054524947474552454422
:1042E00000000096430000964300000C420000C806
:1042F000410000A0420000A0420000C8430000BAF4
:1043000042DC050000DC05000096000000DC050032
:10431000004361703A00436C69636B20746F2052F4
:104320006573756D652E2E2E0050726F6265204F7D
:104330006666736574205A0050726F6265204F661E
:10434000667365745A3A20003F5A206F7574206F67
:10435000662072616E67652028003F59206F757472
:10436000206F662072616E676520282D003F5820FF
:104370006F7574206F662072616E676520282D004E
:1043800050726F6265204F66667365742058000036
:104390003C03960411241FBECFEFD1E2DEBFCDBF98
:1043A00000E00CBF13E0A0E0B2E0ECE3FFEC02E0C1
:1043B0000BBF02C007900D92AC3BB107D9F728E1C3
:1043C000ACEBB3E001C01D92AD37B207E1F711E2EB
:1043D000C9ECD1E200E006C021970109802FFE015F
:1043E0000F94AF63C83CD10780E00807A9F70F948A
:1043F000484D0D948C670C9400002F923F924F9281
:104400005F926F927F928F929F92AF92BF92CF9264
:10441000DF92EF92FF920F931F93CF93DF93CDB76D
:10442000DEB7C555D1090FB6F894DEBF0FBECDBFBC
:1044300066968FAF66972091511625962FAF2597D8
:1044400081E080935116809172188D3409F408C46C
:10445000843511F40C94B933873411F00C94D433AF
:1044600020907018309071183BE12316310409F444
:1044700018C1C4F454E02516310444F482E028162F
:1044800031040CF041C037FE33C0E6C394E0291676
:10449000310409F4C7C0A5E12A16310411F40C94C3
:1044A000D633DAC3BAE22B16310409F4AEC26CF487
:1044B000FDE12F16310409F41EC10CF40CC13EE1DC
:1044C0002316310409F42BC1C7C34BE5241631046C
:1044D00009F4E5C15CE52516310409F4E5C18AE576
:1044E0002816310409F0B8C31092C5030C94D633D2
:1044F00080917202882311F40C94D6330E94AA6A28
:104500000E949C930C94D63380917202882311F4FC
:104510000C94D6330E94AA6A82E50E9411C18823B6
:1045200009F44EC00E94AEBE6B017C0120E030E079
:10453000A9010F94C25C882311F40C949E3420913D
:1045400043023091440240914502509146022CA30F
:104550003DA34EA35FA38091470290914802A09192
:104560004902B0914A0288A799A7AAA7BBA7809041
:104570003F0590904005A0904105B09042054090C5
:104580004305509044056090450570904605A5018F
:1045900094016CA17DA18EA19FA10F94C25C811199
:1045A0000C94E333A301920168A579A58AA59BA584
:1045B0000F94C25C882311F40C949E340C94E33362
:1045C00089E40E9411C1882329F00E94AEBE6B01CC
:1045D0007C0103C0C12CD12C76018AE40E9411C158
:1045E000882311F40C94A5340E94AEBE6CA77DA75D
:1045F0008EA79FA720E030E0A901C701B6010F9464
:10460000C25C81110C94B23420E030E0A9016CA5A9
:104610007DA58EA59FA50F94C25C81110C94B23428
:104620000C949E3480E50E9411C1882329F00E94D9
:1046300081A96B017C0103C0C12CD12C760183E5DB
:104640000E9411C1882361F00E94AEBE20E030E0DC
:104650004AE754E40F94285D0F9462656B017C0176
:104660000E9463A580919917811105C060E085E1E2
:104670009BE00F9423390F943340C60ED71EE81EDB
:10468000F91E0F943340DC01CB018C199D09AE0952
:10469000BF09B7FD02C00C94D63380E00E94203FD2
:1046A000F0CF0F946E1D81110C94D6338CE0E8E8A6
:1046B000F2E0DE01119601900D928A95E1F760E03B
:1046C00070E080E50E942575BE016F5F7F4F0F94FB
:1046D000D4370C94D63380914E168770873011F002
:1046E0000C94413860E08FE40E941EC181110C944B
:1046F000D6330C9441380F946E1D81110C94D6332F
:1047000080916405882311F40C94963960E08FE45D
:104710000E941EC181110C94D6330C9496392091BD
:1047200042163091431640914416509145166091BF
:1047300043027091440280914502909146020F9489
:10474000EF63AB01BC0188E50E947A6269837A83DA
:104750008B839C83209146163091471640914816D2
:104760005091491660914702709148028091490228
:1047700090914A020F94EF63AB01BC0189E50E945E
:104780007A626D837E838F839887BE016B5F7F4FD4
:10479000CE0101960E9415AA882311F40C94D633F9
:1047A00080E00E947DE90E94909661E085E40E948D
:1047B0001EC121E0482FBE016B5F7F4FCE010196E5
:1047C0000F94C41D6B017C019B01AC010F94E16649
:1047D00081115FC089809A80AB80BC8020E030E08E
:1047E000A901C501B4010F94C25C87FF05C027E190
:1047F00037EB41E558EB04C027E137EB41E558E3DF
:10480000C501B4010F94EF63AB01BC0183E49BE3EA
:104810000E945DEE8D809E80AF80B88420E030E005
:10482000A901C501B4010F94C25C87FF05C027E14F
:1048300037EB41E558EB04C027E137EB41E558E39E
:10484000C501B4010F94EF63AB01BC018EE39BE3A0
:104850000E945DEE20E030E0A901C701B6010F948F
:10486000C25C87FF05C067E177EB81E598EB04C088
:1048700067E177EB81E598E3A70196010F94EF6379
:10488000AB01BC0189E39BE30E945DEE8AE00E94DC
:10489000F43D0E9477960E9493990C94D6338FE052
:1048A0008093C5030C94D63380916F18882349F107
:1048B000893009F0A6C034E9A32E32E0B32E43E4D8
:1048C000E42E42E0F42ED12C00E010E0D5018D91D1
:1048D0005D010E9411C1882369F00E94AEBEF701FC
:1048E0006083718382839383133011F401E002C0EB
:1048F000DD24D3941F5FF4E0EF0EF11C143031F788
:1049000075C084E9282E82E0382E93E3E92E95E0E5
:10491000F92E23E432E03DA32CA326E3C22E26E1A8
:10492000D22E00E010E0D1018D911D010E9411C135
:10493000882309F44BC00E94AEBE2B013C0113300A
:1049400049F0F60120813181428153810F94EE6359
:104950002B013C01ACA1BDA12D913D914D915C91EC
:10496000C301B2010F94EE634B015C012DEB37E301
:1049700046E855EB0F944F6687FD0AC02DEB37E3F1
:1049800046E855E3C501B4010F94C25C1816F4F46F
:10499000133051F440924F025092500260925102F3
:1049A0007092520201E012C0A5019401F7016081EA
:1049B0007181828193810F94EF63D7016D937D9311
:1049C0008D939C931397812F0E94DF921F5FB4E019
:1049D000EB0EF11CECA1FDA13496FDA3ECA3F4E0D9
:1049E000CF0ED11C143009F09ECF05C0DD2019F088
:1049F0000E94589806C0002321F08FE492E00E94A4
:104A000074A50E9493990C94D633809172028823E6
:104A100011F40C94D63389E40E9411C1E82E882346
:104A200021F00E94AABE082F01C000E08AE40E9483
:104A300011C1F82E882321F00E94AABE182F01C0B0
:104A400010E0EE2011F0033020F4FF2041F013308D
:104A500030F08EE59BE00E949FED0C94D63380E110
:104A6000E3E4F2E0AFE3B5E001900D928A95E1F75F
:104A7000EE2019F1602F000F770B880B990B0F9424
:104A8000C95C2091191830911A1840911B18509147
:104A90001C180F94285D2091E2053091E3054091A8
:104AA000E4055091E5050F94EF6360933F05709323
:104AB00040058093410590934205FF2019F1612F35
:104AC000110F770B880B990B0F94C95C20911D185F
:104AD00030911E1840911F18509120180F94285D96
:104AE0002091E6053091E7054091E8055091E905F0
:104AF0000F94EF63609343057093440580934505DD
:104B00009093460560E080E50E941EC18823C1F1B4
:104B1000EE20D1F020914216309143164091441678
:104B20005091451660913F05709140058091410577
:104B3000909142050F94EE6360933F05709340059A
:104B40008093410590934205FF20D1F020914616B5
:104B5000309147164091481650914916609143058F
:104B60007091440580914505909146050F94EE6340
:104B700060934305709344058093450590934605E3
:104B800040E050E0BA0186E40E947A626B017C0149
:104B900020E030E0A9010F944F6618165CF420E085
:104BA00030E040E752E4C701B6010F94E9646B01BD
:104BB0007C0103C0C12CD12C760180907B029090A7
:104BC0007C02A0907D02B0907E0220E030E0A9013E
:104BD000C701B6010F94C25C882341F0C0927B02EA
:104BE000D0927C02E0927D02F0927E0200911C0243
:104BF00010911D0284E690E090931D0280931C02A8
:104C0000C0905302D0905402E0905502F0905602AA
:104C100080E090E0A0E8BFE38093530290935402B9
:104C2000A0935502B09356020E949C9380927B02FF
:104C300090927C02A0927D02B0927E0210931D029F
:104C400000931C02C0925302D0925402E09255028B
:104C5000F09256020C94D6330E9437E00C94D6336F
:104C600000917018109171180139110509F4C9C724
:104C70000CF042C10235110509F439C60CF0BAC076
:104C80000B31110509F42CC30CF05AC00531110584
:104C900009F493C2C4F50131110509F48AC24CF438
:104CA0000230110510F00C94B6330F94924B0C9413
:104CB000D6330231110509F428C60431110511F06B
:104CC0000C94B6338CE89BE00E949FED87E692E15E
:104CD0000E944FC88BE1E7E6F2E1DE0111960190F8
:104CE0000D928A95E1F760E070E0CE0101960F9495
:104CF0001F2BCE0101960E9411548DE79BE00E946C
:104D00009FED0C94D6330831110509F474C274F484
:104D10000631110509F455C20731110511F00C9443
:104D2000B633E0916D18F0916E1858C20931110533
:104D300009F4BDC20A31110509F4C4C20C94B6339A
:104D40000A32110509F483C3FCF40E31110509F48C
:104D500024C384F40C31110509F415C30D31110578
:104D600011F00C94B63380914A128E7F80934A12D0
:104D70000C94D6330F31110509F449C300321105E3
:104D800009F41BC30C94B6330D34110509F486C322
:104D90006CF40B34110509F47DC30C34110511F0CA
:104DA0000C94B6330E940EBC0C94D6330E3411050D
:104DB00009F478C30135110511F00C94B6330F9442
:104DC0007E130E9425A40E94DFA60E94753B1092CC
:104DD000AB071092AA071092A90768EE73E080E073
:104DE00090E00E94E2EC60E089E69CE00F942339B9
:104DF0000C94D6330F36110509F4C3C4BCF509363B
:104E0000110509F462C4CCF40535110509F480C517
:104E100054F40335110509F471C50435110509F47D
:104E200074C50C94B6330C35110509F48AC50836DF
:104E3000110509F4C9C30C94B6330C36110509F4F5
:104E4000E5C454F40A36110509F455C40B361105AE
:104E500009F475C40C94B6330D36110509F4D8C3A2
:104E60000E36110509F47AC40C94B63306371105D1
:104E700009F483C6CCF40237110509F400C654F4D2
:104E80000037110509F4C7C40137110509F4CBC473
:104E90000C94B6330337110509F4F6C5053711052F
:104EA00009F45BC60C94B6330937110509F4A2C6A0
:104EB00094F40737110509F49AC60837110511F063
:104EC0000C94B63381E080930C0680930B060F940C
:104ED000A8420C94D6330D37110509F405C50C38DA
:104EE000110509F4C2C40A37110511F00C94B63348
:104EF0000E94BA6D0C94D6330D3921E0120711F4DB
:104F00000C94B0330CF09AC0023E110509F4E9C7C5
:104F10000CF043C00C3C110509F45DC7E4F4083CF7
:104F2000110509F4C9C66CF40B39110509F4B6C4AE
:104F30000E3B110511F00C94B6330E94BC660C9424
:104F4000D633093C110509F404C70B3C110509F4DB
:104F500023C70C94B633033D110509F45CC79CF4D8
:104F60000D3C110509F43AC70E3C110511F00C94E3
:104F7000B63334E9C32E32E0D32E40E1E42E46E0CE
:104F8000F42E10E02EC70C3D110509F447C70D3D66
:104F9000110509F450C70C94B6330F3241E01407E1
:104FA00011F40C942D3114F50C3281E0180711F432
:104FB0000C94543074F40831A1E01A0709F4DDC7E9
:104FC0000232114011F00C94B6330F94DF4A0C9466
:104FD000D6330D32E1E01E0711F40C9469300E3225
:104FE000114011F40C94E9300C94B633003921E0EF
:104FF000120711F40C9430317CF40E3541E01407A3
:1050000011F40C946D330F35114011F00C94B6333C
:105010000E94F1A60C94D633023981E0180711F4EE
:105020000C94393114F40C9433310A39114011F0D5
:105030000C94B6330E94383B0C94D6330B35B2E057
:105040001B0711F40C9430320CF04DC0063FF1E018
:105050001F0711F40C9408321CF50C3A31E01307C9
:1050600011F40C94A7316CF4043A51E0150711F4D3
:105070000C943F31053A114011F40C9442310C94D8
:10508000B633043F91E0190711F40C940532053F43
:10509000114011F00C94B6330F9421440C94D63384
:1050A0000C30B2E01B0711F40C9425326CF4073F6E
:1050B000F1E01F0711F40C940B32083F114011F47A
:1050C0000C9414320C94B633093332E0130711F404
:1050D0000C94EB320835124011F00C94B6330E9458
:1050E00060730C94D6330C3853E0150711F40C940C
:1050F000D93244F5033593E0190711F40C942D329D
:105100007CF40D3BB2E01B0711F40C94A9320E3B6A
:10511000124011F00C94B6330E943E710C94D633B9
:105120000A38F3E01F0711F40C94E8320B381340EF
:1051300011F00C94B63324E9E22E22E0F22E10E0B6
:105140000C94AF32023933E0130711F40C9423337B
:105150007CF40F3853E0150711F40C94EE3200394B
:10516000134011F00C94B6330E94F96B0C94D633B3
:10517000073E93E0190711F40C94A233083EA3E014
:105180001A0711F40C94B333003A134011F00C9445
:10519000B63320916D1830916E1890914A1292603A
:1051A00090934A1240E060E0C9010F94FE290C94EC
:1051B000D6330E94A2A80C94D6330F94C7260C9421
:1051C000D6330F94562680914A12877F80934A12D5
:1051D0000C94D633803209F410823196808181118B
:1051E000F9CF40E061E080916D1890916E180F94B6
:1051F000FE290C94D63383E50E9411C1882321F047
:105200000E9476BE0E94786984E50E9411C18823BD
:10521000A9F00E9476BE6B017C010E94F3BBC09294
:105220008805D0928905E0928A05F0928B05CD28F9
:10523000CE28CF2819F081E08093900580915216F6
:105240008823E9F080E090E0A8ECB2E488A399A379
:10525000AAA3BBA31C8E1D8E1E8E1F8E19821A82BE
:105260001B821C8220E0AE01405E5F4FBE01645E87
:105270007F4FCE0101960E94A3EF0C94D6330E947B
:105280007A3B882381F00F9467260E949E3B8CEF27
:1052900096E10F940C261092660410926704109207
:1052A0006804109269040F94CF390C94D63380911E
:1052B0004A1282FF03C08B7F80934A120E94587467
:1052C0000C94D63380914A1283FD02C00C94D633DD
:1052D00083E50E9411C181110C9499390C94D63345
:1052E00083E40E94E5BE882319F187EA9BE00E94CF
:1052F0009FED8091AE13882391F0BE016F5F7F4FC9
:105300008BEA93E10E94C6CB8E010F5F1F4FF8011D
:1053100081918F01882339F00E94F43DF8CF8DE907
:105320009BE00E949FED8AE00E94F43D0C94D633EE
:1053300080914A1282FF21C086EB9BE00E949FED84
:1053400060914612709147128091481290914912D3
:105350004AE00E94FB3D8FE20E94F43D60914212C0
:105360007091431280914412909145124AE00E943C
:10537000FB3D0E94F93E0C94D63388EC9BE00E94E2
:105380009FED0C94D63340E060E080916D189091D1
:105390006E180F94FE290C94D63380914A1283FD27
:1053A00002C00C94D6330E9420E080916D18909139
:1053B0006E180F9430290C94D63380914A1282FDD6
:1053C0000E9463A580914A1283FD02C00C94D633DB
:1053D00060E080E50E941EC1182F482F61E0809197
:1053E0006D1890916E180F94FE2983E50E9411C1EB
:1053F000882321F00E9476BE0E9478690F94672668
:1054000011110C94D6330E949E3B0C94D6330E940B
:10541000BFBB6C8F7D8F8E8F9F8FBE016F5F7F4F65
:10542000CE014C960E94996860E0CE0101960F94DF
:10543000AA390E9464EFBE016F5F7F4F89ED9BE048
:105440000E947BEE8AE00E94F43D0C94D63383E503
:105450000E9411C1882311F40C94D6330E9486BE99
:10546000F82E6DE070E080E50E944BAB8C0197FF59
:1054700002C00C94D633E82E60E089E40E941EC17D
:1054800081110C949E39802F0F94F34C811146C5E5
:105490000C949E390E949E3B0C94D6330E9425A406
:1054A0000C94D63360E070E083E50E944BAB8E3401
:1054B000910531F40E9496A40F94CF390C94D63301
:1054C0008CE39CE00E949FED6091FB057091FC05D0
:1054D00083E39CE00E9453EE6091FD057091FE0510
:1054E00086E29CE00E9453EE6091FB057091FC0502
:1054F0008091FD059091FE05681B790B80919005C8
:10550000815021E030E0823010F020E030E0621B7A
:10551000730B8BE19CE00E9453EE8AE00E94F43D05
:105520008CE39CE00E949FED8091FF059091000626
:10553000A0910106B09102068C8F9D8FAE8FBF8F18
:10554000BE016F5F7F4FCE014C960E949968BE01ED
:105550006F5F7F4F8EE09CE00E947BEE80910306A0
:1055600090910406A0910506B09106068C8F9D8F40
:10557000AE8FBF8FBE016F5F7F4FCE014C960E94F2
:105580009968BE016F5F7F4F8EEF9BE00E947BEEBC
:1055900020E030E04AE754E4609107067091080685
:1055A0008091090690910A060F94E964AB01BC0151
:1055B00086EE9BE00E945DEE8DE60E94F43D8AE05F
:1055C0000E94F43D0C94D6338091150D83FF02C0E8
:1055D0000C94D6330E94C46B87FF02C00C94D63360
:1055E00083E50E9411C1882379F00E94AEBE0F941A
:1055F0005B658B01CB010E9484CF0635110524F435
:105600000E9425A40F94CF390F94184D0C94D633D3
:105610008091150D83FF02C00C94D6330E94C46B99
:10562000F82E87FF02C00C94D63383E50E9411C187
:10563000082F811106C082E50E9411C1182F88230E
:10564000C1F10E94AEBE0F945B65CB010E9484CF76
:105650000E94AEBE20E030E04AEA52E40F94C25C01
:10566000181614F40C94B7390E9425A40F94CF395E
:105670006091040870910508072E000C880B990BA7
:105680000F94C95C4B015C014090000850900108E8
:105690006090020870900308A30192010F944F6676
:1056A000181614F40C94D539002311F40C94BB395A
:1056B00011E00F94184D112311F40C94D633602F80
:1056C0008F2D0F94C5110C94D6330E94C46B182FE4
:1056D00087FD0AC084EE93E10E949FED812F0F9415
:1056E0004E118AE00E94F43D2596FFAD2597F09378
:1056F00051160C942E3A60E080E50E945AAB182FA8
:10570000823010F00C94D63381E40E94E5BE8823E9
:1057100021F06091E50770E002C06FEF70E083E573
:105720000E942575E12FF0E0EB51F84F8F3F910576
:1057300019F010F08FEF90E080830C94D63360E086
:1057400080E50E945AAB823010F00C94D633E82FDB
:10575000F0E0EB51F84F10820C94D6338EE40E94A7
:1057600011C1882311F40C94D6330E9476BE609345
:10577000EE047093EF048093F0049093F1040C9482
:10578000D63383E50E94E5BE882331F060E083E5EF
:105790000E945AAB8093150D0E9464EF8DE49CE04B
:1057A0000E949FED8091150D882369F100EAE02E9B
:1057B0000FE0F02E00E010E020E08091150D90E069
:1057C000A0E0B0E0002E04C0B695A7959795879508
:1057D0000A94D2F780FF0EC0DD24D394D20E222388
:1057E00019F08CE20E94F43DF701859194910E949A
:1057F0009FED2D2D0F5F1F4F32E0E30EF11C0530A2
:105800001105D9F690CD89E49CE08BCD109250160D
:1058100010924202CBC741E060E070E084E59CE07A
:105820000E9478F2C3C783E50E9411C1882371F0FA
:105830000E9486BE282F30E02D3331051CF4809362
:105840000002B4C78CE380930002B0C70E9464EFEB
:105850004091000250E060E070E082E69CE00E942F
:1058600042EE8AE00E94F43DA1C78091150D83FDB0
:105870009DC783E50E9411C1882309F497C70E9440
:10588000AEBE0F945B656C3871050CF48B01109300
:105890009F1500939E150F94CE1088C783E50E9434
:1058A00011C1882309F482C70E9486BE182F90E098
:1058B000CD970CF01CE31093C0030F9433406B01A1
:1058C0007C01212F30E0A8EEB3E00F946C63C60E8C
:1058D000D71EE81EF91EC092BC03D092BD03E09211
:1058E000BE03F092BF0362C70E9458745FC78091E5
:1058F000C5038F7D80618093C50358C78091C50320
:105900008F7E80628093C50351C70E9450A84EC706
:1059100083E50E94E5BE882309F448C70E94AEBE15
:1059200020E030E04AE754E40F94285D0F9462656C
:105930006093C1037093C2038093C3039093C40325
:1059400035C70E94C46B87FD31C79091731894FDD1
:1059500004C09091751897FF0AC0B4E9CB2EB2E04D
:10596000DB2E16E1E12E1DE0F12E10E009C0909132
:105970007618937091F7682F81E00E94D0A816C71F
:10598000D6018D916D010E9411C1882309F46DC06B
:10599000133009F063C00E94AEBE4B015C0120E0F1
:1059A00030E040EA51E40F94C25C87FF4EC0A5018D
:1059B00094016091360D7091370D8091380D909162
:1059C000390D0F94E9642B013C019B01AC016091FE
:1059D000C9077091CA078091CB079091CC070F94AB
:1059E000285D6093C9077093CA078093CB07909393
:1059F000CC07A30192016091460D7091470D8091F3
:105A0000480D9091490D0F94285D6093460D709359
:105A1000470D8093480D9093490D6091D90770917F
:105A2000DA078091DB079091DC070F94C75CA30134
:105A300092010F94285D0F9462656093D90770936B
:105A4000DA078093DB079093DC078092360D909203
:105A5000370DA092380DB092390D07C00E94AEBE2E
:105A6000F701648B758B868B978B1F5FF4E0EF0ECD
:105A7000F11C143009F084CF0E943FA597C60E9404
:105A800063A50E94939992C68EE99DE00E949FEDC6
:105A900060E08EE89DE00F94204C60E089E79DE097
:105AA0000F94204C61E08BE999E30F94204C61E066
:105AB0008EE69DE00F94204C61E08EE59DE00F9412
:105AC000204C60E085E59DE00F94204C61E08BE484
:105AD0009DE00F94204C61E081E49DE00F94204C08
