:100000000C9481210C94B2210C94B2210C94B22155
:100010000C94B2210C94B2210C94B2210C94B22114
:100020000C94B2210C94F3EA0C94F3EA0C94F3EAE6
:100030000C94B2210C94B2210C94B2210C94B221F4
:100040000C94B2210C94DDA80C94B2210C94B22132
:100050000C94B2210C94B2210D9480050C9441C3F0
:100060000C94B2210C947A460C9470460C94B221F4
:100070000C94B2210C94B2210C94B2210C94B221B4
:100080000C94B2210C94B2210C94B2210C94B221A4
:100090000C94B5C30C948BC30C94B2210C94B22174
:1000A0000C94B2210C94B2210C94B2210C94B22184
:1000B0000C94B2210C94B2210C94B2210C94B22174
:1000C0000C94B2210C94B2210C94B2210C94B22164
:1000D0000C94B2210C94B2210C94B2210C94B22154
:1000E0000C94B2211F47254730473B4746475147AD
:1000F0005C4767479B479B479B479B477247BA476D
:10010000C647D747E847F9470A481B482C48634881
:100110006348634863483A4882488E489F48B048DD
:10012000C148D248E348F4482B492B492B492B4975
:1001300002494A49534962496D49784983498E4980
:100140009849C649C649C649C649A049F449BB4A67
:10015000FA49044A0E4A184A2E4A3B4ABB4A484AC0
:10016000BB4A564ABB4A5E4A684ABB4ABB4A7C4ABB
:10017000864A8E4A984AA24AB14ADA4AD44BE34A9E
:10018000F04AFD4A0A4B234B334BD44B434BD44BE1
:10019000544BD44B5F4B6F4BD44BD44B864B934B50
:1001A0009E4BAB4BB84BCA4BF34BED4CFC4B094C45
:1001B000164C234C3C4C4C4CED4C5C4CED4C6D4C7B
:1001C000ED4C784C884CED4CED4C9F4CAC4CB74C06
:1001D000C44CD14CE34C0C4DC44D124D1A4D224D24
:1001E0002A4D404D4B4DC44D564DC44D624DC44DEE
:1001F0006A4D774DC44DC44D8E4D964D9E4DA64DC6
:10020000AE4DBD4D42BF48BF4DBF5BBF61BF63BF79
:1002100069BF6EBF8ABF8ABF75BF8ABF7ABF80BF02
:1002200085BFAABFB0BFB5BFC3BFC9BFCBBFD1BF1A
:10023000D6BFF2BFF2BFDDBFF2BFE2BFE8BFEDBF86
:1002400012C018C01DC02BC031C033C039C03EC061
:100250005AC05AC045C05AC04AC050C055C079C0E3
:100260007FC084C092C098C09AC0A0C0A5C0C1C0C1
:10027000C1C0ACC0C1C0B1C0B7C0BCC082E785E7D7
:1002800074E778E77EE7BCE789E78DE793E797E7D0
:100290009BE7A1E7A5E7A9E7BCE7AFE7B3E7B7E7C7
:1002A000EFEBF4EBF9EB03EC0DEC86EC17EC1FEC49
:1002B00027EC31EC3BEC45EC54EC5EEC86EC68EC66
:1002C00072EC7CEC9E036004AC0438036E02B6034F
:1002D0005602B6048A04AC03400402049E02DC0207
:1002E00090021802900290029002900290029002F6
:1002F000900290029002900290029002900290026E
:10030000900290029002900290029002900290025D
:100310009002900290029002D2039002900290020A
:1003200090029002900290029002F20290029002DB
:10033000900290029002900290029002900290022D
:100340008603D603084AD73B3BCE016E84BCBFFD73
:10035000C12F3D6C74319ABD56833DDA3D00C77F95
:1003600011BED9E4BB4C3E916BAAAABE000000802E
:100370003F05A84CCDB2D44EB93836A9020C50B9BD
:10038000918688083CA6AAAA2ABE000000803F00E9
:100390000C941FEC0C9480BF0C9448BF0C94AABF23
:1003A0000D9454220C94B0BF0C94224D0C947CEC10
:1003B0000C94984A0C94684A0C945EEC0C946BC2B2
:1003C0000C9403EC0C9422EF0C94B7E70C9454ECCF
:1003D0000C94ED4C0C94A3CF0C942BF30C9414724E
:1003E0000C948DE70D9476510C949F4C0C94864B95
:1003F0000C9483490C94D9710C946DF20C9478E7A9
:100400000C945C720C94AC4C0C9453490C94964D27
:100410000C94C6470C947C4A0C94B5BF0C9483F2A0
:100420000C949BE70C943B470C94E0CE0C9449D180
:100430000D94C42A0C943C4C0C94C6490C9489D05D
:100440000D941F230C9492FF0C940BD10C946249D1
:100450000C94F9470C940E720C94624D0C945C78D9
:100460000C941B480C94CA4B0D94E4190C9455C081
:100470000C94F9690C94A6D00C9479CF0C942B6B46
:100480000C949AFF0C94B7C00C945F690D940722EA
:100490000C944C4C0C945DF20C94564A0C94A9CFDD
:1004A0000C941FC30D947C230C94F8500D94E70218
:1004B0000C94FCCE0D947C270C94A64D0C94BB4A56
:1004C0000C9450C00D940D1A0C9461BF0C94A5E7C8
:1004D0000C944A490D9495350C9410740D94E102D6
:1004E0000C940CB60C9439EF0C94B74C0C9431EC82
:1004F0000C9442FB0C946B740C9491CF0C942E4A88
:100500000C9472FF0C94EDBF0C949C6C0C94984965
:100510000C947EFF0C941A720C9463740C942A4D04
:100520000D9400290D94E1220C94C44C0C947DF29E
:100530000C9495C20D9408030C948ABF0D94882ADC
:100540000C94AB4B0D94FA010C9485CF0C942B4971
:100550000C9421B60C940E4A0C94F04A0C94184A50
:100560000C9457F20C9493E70C94A4CE0C94EA717B
:100570000C94EECE0C94C1C00C944B4D0C9489E7B6
:100580000C9433FB0C94E5710C941BB60C947FC057
:100590000C94A0C00C9432CF0C94D1BF0C9476FF75
:1005A0000C94F2BF0C94C3BF0C948F770C940DEC99
:1005B0000D9486270C941AFB0D94C7280D946B227A
:1005C0000C94044A0C94F9EB0C940C4D0C9482E7B7
:1005D0000C9461CF0C946DCF0C94884C0C943A48D9
:1005E0000C947ABF0D94972A0C94FA490D94FF3419
:1005F0000D9458510C9436EF0D9420350C94094C01
:100600000C945F4B0C94564D0C945AC00C9451476B
:100610000C94FC690C943CEF0C9467470C94B1C0AB
:100620000C9498C00C94F4500C94A0490C9433C0D2
:100630000C9405D70C943EC00C94784C0C9444CF89
:100640000C94F4EB0C945E4A0C94B84B0C94D24886
:100650000C9485BF0C94774D0D944C220C9486EC31
:100660000C94DDBF0C9431C00C9478490C94BD4DB2
:100670000D9405030C942E6B0C94EF710C9417ECF5
:100680000C94F3B50C947FD00C944AC00C9467CFB3
:100690000C9408920C946EBF0D94A3220C94EFEB73
:1006A0000C9440CF0C94D14C0C94234C0C942CEF14
:1006B0000C947AFF0C9404D10C9484C00C94F7D061
:1006C0000C94E34A0C94404D0C94164C0C94A5C029
:1006D0000C949DCF0C94AE4D0C9426FD0C949AC0B6
:1006E0000C94A24A0C947FCF0C94B0480C9474E7FD
:1006F0000D945D280C940A4B0C94C44D0C944D75CC
:100700000C94234B0C94334B0C9472470D94DB2ABE
:100710000C946D4C0C94D7470C94E99B0C9475F297
:100720000C945C4C0C940B740C947ACE0C94F3FBEC
:100730000C943AB40C9425470C94484A0D94020347
:100740000C9406740C94D6BF0C94E3480C9427ECDC
:100750000C94D44B0C9468EC0D9400030C94CCCF07
:100760000C948AFF0C9479C00C94FD4A0D94E40219
:100770000C943CFB0C9497E70C9469BF0C9442BF1B
:100780000C948E490C94DBFA0D94C5220C94CBBFCB
:100790000C9427EF0C9420720D9460280C94286B15
:1007A0000C941DC00D94BE2A0C94B3E70D94FD2843
:1007B0000C948E4D0C948E4A0C9463920C942F766C
:1007C0000C94E8BF0D9473270C946D490C94A9E721
:1007D0000C9431EF0C94DA4A0C94396B0C9445C0AC
:1007E0000C949F480C948BCF0C94A4C20C94544B43
:1007F0000C9463480C940AB90C9473CF0C946A4D12
:100800000C9498FC0D94F0020C9475BF0C9439C0B4
:100810000C944DBF0C94D2C20C948E480C9404B925
:100820000C94BCE70C94B8C20C94C1480C9424CF2F
:100830000C94BCC00C946D6E0C94E8470C9482FF31
:100840000C94CCCE0C9465B70C94B14A0C9445EC46
:100850000C945BBF0C9445D10C9485E70C9418C0A4
:100860000C94864A0C9497CF0C94F6690C94434BE5
:100870000C9406B90C9408B90C943B4A0C946FD3B1
:100880000D94ED020C942E9A0D9447280C9463BF9E
:100890000C94B8CE0C9410CF0C9407FE0D946927DD
:1008A0000C947EE70C9451F20C9480F10C94F4714A
:1008B0000C9446470C949B470C940A480C94F448BB
:1008C0000D94DB020C94A1E70C943BEC0C949E4B32
:1008D0000C94ACC00C9496FF0C94ABD10C9490CEBD
:1008E0000C9415740C942BC00C945C470C940CB9AC
:1008F0000C94934B0C94E0D00C9486FF0C941A4DFE
:100900000C94CED40C9472EC0C9412D10C941F471E
:100910000C941DB60D94EA020C94C9BF0D9481226B
:100920000C94E34C0C943FF00C9465F20C94F44955
:100930000C9430470C94F34B0D946E270C949E4D01
:100940000D945A280C941FB60C9492C00C94024932
:100950000C94AFE70C9423B60D94DE020C94FC4B80
:100960000C946F4B0C942C480C94124D0D94F30284
:100970000C94C3D00C94F5500C9412C00C94824883
:100980000C94BA470C948EFF0C94E2BF4E414E4932
:100990004E495459494E46CDCCCC3D0AD7233C173D
:1009A000B7D13877CC2B329595E6241FB14F0A008A
:1009B0000020410000C84200401C4620BCBE4CCA7A
:1009C0001B0E5AAEC59D7400407A10F35A00A072F7
:1009D0004E18090010A5D4E80000E876481700007A
:1009E000E40B54020000CA9A3B000000E1F5050048
:1009F0000080969800000040420F000000A0860191
:100A0000000000102700000000E803000000006460
:100A100000000000000A00000000000100000000CB
:100A2000002C76D888DC674F0823DFC1DFAE59E1A0
:100A3000B1B796E5E3E453C63AE651997696E8E60F
:100A4000C28426EB898C9B62ED407C6FFCEFBC9CE2
:100A50009F40F2BAA56FA5F490055A2AF75C936BF4
:100A60006CF9676DC11BFCE0E40D47FEF520E6B5AF
:100A700000D0ED902E0300943577050080841E0889
:100A80000000204E0A000000C80C333333330F98A7
:100A90006E12831141EF8D2114893BE65516CFFE6E
:100AA000E6DB18D1844B381BF77C1D901DA4BBE4FA
:100AB00024203284725E228100C9F124ECA1E53D3C
:100AC00027434F4D4D554E49434154494F4E0044E5
:100AD000525952554E004552524F525300494E46BC
:100AE0004F004543484F0047322F4733206261642F
:100AF00020706172616D65746572730A00536C6574
:100B000065702E2E2E005A2050726F626520506143
:100B10007374204265640A005A2050726F62652027
:100B2000506173742042656400486F6D65205859A8
:100B30002066697273740A00486F6D6520585920E9
:100B40004669727374004D65736820706F696E74C6
:100B50002063616E6E6F74206265207265736F6CC6
:100B60007665640A00456E642066696C65206C6970
:100B700073740A00426567696E2066696C65206C53
:100B80006973740A00286E6F2066696C65290043DA
:100B9000757272656E742066696C653A2000534404
:100BA000207072696E74696E6720627974652000C6
:100BB0004E6F74205344207072696E74696E670AB8
:100BC000005072696E742074696D653A20000A5392
:100BD000746174733A2046696C616D656E7420753A
:100BE0007365643A20002C204C6F6E676573742027
:100BF0006A6F623A2000546F74616C2074696D658D
:100C00003A20002C204661696C65643A20002C2053
:100C100046696E69736865643A20005072696E7443
:100C2000733A200053746174733A200045202553B1
:100C3000006F66660044454255473A004D313132F7
:100C40002053687574646F776E004D3131332053D3
:100C5000005468696E6B65722056325F4E504E5F6D
:100C600032323039204F46462E004348414D4245EE
:100C7000525F54454D5045524154555245004D4FD9
:100C800054494F4E5F4D4F44455300544845524DD3
:100C9000414C5F50524F54454354494F4E004155CB
:100CA000544F5245504F52545F53445F5354415434
:100CB00055530050524F4D50545F535550504F5262
:100CC0005400454D455247454E43595F504152539C
:100CD000455200434153455F4C494748545F425297
:100CE000494748544E45535300544F47474C455F7E
:100CF0004C494748545300534F4654574152455F5F
:100D0000504F574552004255494C445F504552435D
:100D1000454E54004C4556454C494E475F4441545E
:100D200041005A5F50524F4245004155544F4C4587
:100D300056454C005052494E545F4A4F4200505263
:100D40004F4752455353004155544F5245504F520F
:100D5000545F54454D5000564F4C554D45545249E3
:100D6000430042494E4152595F46494C455F5452F7
:100D7000414E534645520053455249414C5F584FEE
:100D80004E5F584F4646004649524D574152455FC7
:100D90004E414D453A4D61726C696E20322E302EB7
:100DA0007820284769744875622920534F5552436B
:100DB000455F434F44455F55524C3A6874747073B5
:100DC0003A2F2F6769746875622E636F6D2F4D61BE
:100DD000726C696E4669726D776172652F4D6172D2
:100DE0006C696E2050524F544F434F4C5F564552E2
:100DF00053494F4E3A312E30204D414348494E45DC
:100E00005F545950453A5468696E6B65722056328A
:100E10005F4E504E5F32323039204558545255445F
:100E200045525F434F554E543A3120555549443A47
:100E300063656465326132662D343161322D343739
:100E400034382D396231322D6335356336326633AD
:100E5000363766660A002F2F20004D313435205377
:100E60003C696E6465783E206F7574206F662072F1
:100E7000616E67652028302D31290A0020466C6F8D
:100E8000773A200050726F7465637465642050690E
:100E90006E0A00496E76616C6964206578747275BB
:100EA0006465720A0020693A006469730043290A84
:100EB0000061626C656420286D696E2074656D70D8
:100EC0002000436F6C6420657874727564657320CC
:100ED00061726520004D34323120696E636F727229
:100EE00065637420706172616D65746572207573DD
:100EF0006167650A004F66667365747320417070A0
:100F00006C696564004572723A20546F6F206661A7
:100F1000722100546F6F206661722066726F6D20BF
:100F20007265666572656E636520706F696E740ABE
:100F300000454550524F4D204F4B0A002074656DBF
:100F40007065726174757265207072657761726E1A
:100F5000207472696767657265643A200020686F63
:100F60006D696E672073656E7369746976697479EB
:100F70003A2000E20ADD0AD60ACF0AC10A45727297
:100F80006F722077726974696E6720746F204545AF
:100F900050524F4D210A00627573793A2070617585
:100FA00073656420666F7220696E7075740A0062E2
:100FB0007573793A2070617573656420666F72206D
:100FC000757365720A00627573793A2070726F6387
:100FD000657373696E670A0053544F505045442E31
:100FE00020005072696E7465722073746F70706542
:100FF000642064756520746F206572726F72732E41
:101000002046697820746865206572726F7220616D
:101010006E6420757365204D39393920746F2072E4
:101020006573746172742E202854656D70657261E9
:10103000747572652069732072657365742E205310
:1010400065742069742061667465722072657374BA
:10105000617274696E67290A004E6F204368656388
:101060006B73756D2077697468206C696E65206E8E
:10107000756D6265722C204C617374204C696E65CD
:101080003A2000636865636B73756D206D69736DDD
:10109000617463682C204C617374204C696E653AEE
:1010A00020004C696E65204E756D62657220697313
:1010B000206E6F74204C617374204C696E65204EF5
:1010C000756D6265722B312C204C617374204C69F4
:1010D0006E653A20004D313130004D313137004DD1
:1010E00033310053442072656164206572726F72FF
:1010F0000A00446F6E65207072696E74696E6720B5
:1011000066696C650A002063757272656E7420648E
:10111000656372656173656420746F20006D412999
:101120000A0020647269766572206F766572746554
:101130006D7065726174757265207761726E696E2B
:1011400067212028004B494C4C206361757365640E
:10115000206279204B494C4C20627574746F6E2F5D
:1011600070696E0A004B494C4C206361757365646D
:1011700020627920746F6F206D75636820696E61DD
:1011800063746976652074696D65202D20637572BE
:1011900072656E7420636F6D6D616E643A20002518
:1011A000301D0C282924311C0B4527232F1B0444F8
:1011B00043212A193F40222B1A414203380906369F
:1011C000030802060001506F7765722D6C6F737310
:1011D0002066696C6520636C6F7365206661696C5D
:1011E00065642E0A00506F7765722D6C6F737320E3
:1011F00066696C65207772697465206661696C65E3
:10120000642E0A005772697465002D2D2D0A00495D
:101210004E56414C494420444154410A0070726981
:101220006E745F6A6F625F656C61707365643A20AB
:10123000007364706F733A200073645F66696C6555
:101240006E616D653A20000A20666164653A20008F
:101250006C6576656C696E673A200066616E5F73D7
:10126000706565643A20007461726765745F7465C7
:101270006D70657261747572655F6265643A2000B5
:101280007461726765745F74656D706572617475A1
:1012900072653A200066656564726174653A200083
:1012A000706F736974696F6E5F73686966743A20F2
:1012B00000686F6D655F6F66667365743A200063E2
:1012C000757272656E745F706F736974696F6E3A70
:1012D00020002076616C69645F666F6F743A00204D
:1012E0004A6F62205265636F7665727920496E6637
:1012F0006F2E2E2E0A76616C69645F686561643AB0
:10130000002568753A2530326875002568756420B7
:1013100025303268753A2530326875004472697636
:101320006572206572726F7200636F696C207368FA
:101330006F727420636972637569740A006F7665F1
:101340007274656D70657261747572650A002064EF
:101350007269766572206572726F72206465746559
:10136000637465643A203078006D6178002F333102
:1013700000092042616420726573706F6E7365218D
:1013800000656E7175657565696E672022006F6B0B
:1013900000526573656E643A2000256979202569DD
:1013A00064202569682025696D20256973004265E0
:1013B0006420436F6F6C696E672E2E2E0042656449
:1013C0002048656174696E672E2E2E002364656661
:1013D000696E652044454641554C545F004B64207E
:1013E000004B6920004B7020005049442041757427
:1013F0006F74756E652066696E6973686564212017
:1014000050757420746865206C617374204B702C67
:10141000204B6920616E64204B6420636F6E73748F
:10142000616E74732066726F6D2062656C6F7720D9
:10143000696E746F20436F6E666967757261746957
:101440006F6E2E680A00504944204175746F7475A0
:101450006E65206661696C6564212074696D656FD5
:1014600075740A000A20436C6173736963205049E4
:1014700044200A00204B643A2000204B693A2000A7
:10148000204B703A20000A204E6F206F76657273F1
:10149000686F6F740A002054753A2000204B753A2B
:1014A0002000206D61783A2000206D696E3A20009E
:1014B00020643A200020626961733A200050494458
:1014C000204175746F74756E652073746172740A4F
:1014D00000504944204175746F74756E65206661D3
:1014E000696C6564212054656D70657261747572F4
:1014F0006520746F6F20686967680A00504944204E
:101500004175746F74756E65206661696C656421E0
:1015100020426164206578747275646572206E750E
:101520006D6265720A004572723A207574663820E1
:10153000666F6E74206E6F7420696E697469616C79
:10154000697A65642E00000C0D00FE07022603BCBC
:10155000017FFE08FE08FE05080806000040F0C8EE
:101560008888987810050808060000C0F8888888E0
:101570008888F80505050600012030F830200508A8
:10158000080600002070F820202020E00509090648
:1015900000FF2070A8A8B8888870200506060600FD
:1015A00001E08CEA8C8A0A0509090600FFF8A88880
:1015B00088888888A8F8050A0A0600FE205050503E
:1015C0005088A8A8887003030306000340A040FFCA
:1015D000FFFFFFFFFFFFFFFFFFFFFFFFFFFFFFFF1B
:1015E000FFFFFFFFFF0000000605FF0107070602DF
:1015F0000080808080800080030303060105A0A096
:10160000A005060606000050F85050F850050909DC
:101610000600FF2070A8A07028A870200507070604
:101620000000C8C810204098980507070600004031
:10163000A0A040A8906801030306020580808003F3
:1016400009090601FF2040408080804040200309B6
:10165000090601FF80404020202040408005070708
:1016600006000020A8702070A820050505060001CE
:101670002020F820200203030601FFC0408005015E
:1016800001060003F8020202060100C0C0050707B8
:1016900006000008101020404080050707060000E3
:1016A000708898A8C8887003070706010040C040EA
:1016B000404040E005070706000070880810204001
:1016C000F8050707060000F80810300888700507BD
:1016D0000706000010305090F810100507070600AC
:1016E00000F880F008088870050707060000304001
:1016F00080F0888870050707060000F808101020A1
:10170000202005070706000070888870888870050B
:101710000707060000708888780810600205050633
:101720000100C0C000C0C00206060601FFC0C00024
:10173000C0408003050506010120408040200503CC
:1017400003060002F800F8030505060101804020A9
:101750004080050707060000708810202000200543
:1017600007070600007088B8A8B88070050707064C
:101770000000708888F8888888050707060000F050
:101780004848704848F005070706000070888080C8
:10179000808870050707060000F04848484848F070
:1017A000050707060000F88080F08080F80507072D
:1017B000060000F88080F0808080050707060000A2
:1017C00070888080988870050707060000888888E0
:1017D000F8888888030707060100E0404040404041
:1017E000E00507070600003810101010906005078C
:1017F000070600008890A0C0A09088050707060093
:1018000000808080808080F805070706000088D867
:10181000A8888888880507070600008888C8A898CF
:101820008888050707060000708888888888700502
:101830000707060000F08888F0808080050707060B
:10184000000070888888A89068050707060000F0E7
:101850008888F0A0908805070706000070888070CF
:10186000088870050707060000F8202020202020A7
:10187000050707060000888888888888700507079C
:101880000600008888888850502005070706000059
:1018900088888888A8A8500507070600008888500F
:1018A00020508888050707060000888850202020DF
:1018B00020050707060000F80810204080F80309FB
:1018C000090601FFE080808080808080E0050707B6
:1018D000060000804040201010080309090601FF9F
:1018E000E020202020202020E00503030600052022
:1018F00050880501010600FEF80303030601058078
:10190000402005050506000070087888780507075F
:101910000600008080F0888888F005050506000034
:10192000708080887005070706000008087888889E
:1019300088780505050600007088F08070050707A7
:10194000060000304840E04040400507070600FE22
:10195000708888887808700507070600008080F086
:10196000888888880307070601004000C04040407F
:10197000E00409090601FE100030101010109060FC
:1019800005070706000080808890E090880307071D
:10199000060100C04040404040E00505050600004B
:1019A000D0A8A8A8A8050505060000B0C8888888A2
:1019B0000505050600007088888870050707060081
:1019C000FEF0888888F080800507070600FE78888A
:1019D0008888780808050505060000B0C880808062
:1019E00005050506000078807008F0050707060069
:1019F000002020F820202018050505060000888812
:101A00008898680505050600008888885020050527
:101A1000050600008888A8A850050505060000886E
:101A2000502050880507070600FE8888885020400F
:101A300080050505060000F8102040F80309090696
:101A400001FF20404040804040402001090906023B
:101A5000FF8080808080808080800309090601FFEC
:101A6000804040402040404080050303060002487B
:101A7000A890FF737465616C746843686F70004D63
:101A800032342053256C642054256C64004739326D
:101A90002E392045257300473120462564004739FB
:101AA000322E39205A2573004731205A30204632D1
:101AB0003030004731205825732059257320463394
:101AC000303030004D34323020532569205A257390
:101AD000004D3130362050256920532569004739A3
:101AE000322E392045305A300A47315A320A4732AD
:101AF0003852305859004D31303920532569004D46
:101B000031393020532569004D323030204425735F
:101B1000004D343230205330205A300020506F773F
:101B200065722D4C6F7373205265636F76657279A1
:101B300020446174610A00496E76616C6964004EEC
:101B40006F00496E76616C69640A0056616C696465
:101B50000A004E6F20504C520A00504C52204578DB
:101B6000697374730A00506F7765722D6C6F7373AD
:101B7000207265636F766572792000617869733AC7
:101B800070776D5F7363616C652F637572725F73DD
:101B900063616C652F6D6563685F6C6F61647C6603
:101BA0006C6167737C7761726E636F756E740A0027
:101BB0004452565F535441545553090050574D5F9A
:101BC0005343414C45090050574D434F4E46090081
:101BD000434F4F4C434F4E46090043484F50434FED
:101BE0004E460900544849474809090054434F4F9D
:101BF0004C5448525309005450574D5448525309BD
:101C000000545354455009090054504F574552440D
:101C10004F574E0900494F494E0909004753544157
:101C20005409090049484F4C445F4952554E090038
:101C300047434F4E460909007370726561644379EA
:101C4000636C650020647269766572206D6F6465EF
:101C50003A09002064726976657220637572726554
:101C60006E743A2000207072657761726E20666C27
:101C7000616720636C65617265640A0020496E7655
:101C8000616C6964206578747275646572200041C6
:101C90006476616E6365642053657474696E6773FE
:101CA00000554E4C4F41442046494C414D454E5401
:101CB0000046494C414D454E54204348414E47450E
:101CC0000053746F72652053657474696E67730096
:101CD0004C6F61642053657474696E67730046616C
:101CE000646520486569676874004732380A47327E
:101CF00039004C6576656C204265640046616E2053
:101D0000537065656400526573746F726520666117
:101D1000696C736166650050726568656174204125
:101D2000425320436F6E660050726568656174208F
:101D3000504C4120436F6E66004D373032205425A1
:101D400064004D36303020423020542564004D3739
:101D50003032203B2564004D37303120542564005B
:101D60004D373032004D373031004D363030204263
:101D700030005075726765206D6F726500436F6E3D
:101D800074696E756500524553554D45204F50544A
:101D9000494F4E533A005052494E542050415553EA
:101DA00045440020204E6F7A7A6C653A20003F004F
:101DB00043616E63656C004D6F74696F6E004175B1
:101DC000746F20486F6D650054656D706572617445
:101DD000757265005374617274205072696E74007C
:101DE00043616E6E6F7420656E74657220737562E8
:101DF0006469723A2000022E2E004D383400446986
:101E00007361626C6520537465707065727300470E
:101E10003238205A00486F6D65205A00473238200A
:101E20005900486F6D6520590047323820580048E6
:101E30006F6D6520580047323800507265686561E3
:101E40007420504C4120456E640050726568656195
:101E50007420504C41204265640050726568656191
:101E60007420414253204265640050726568656188
:101E7000742041425320456E64002062797465737A
:101E80003B20637263200053657474696E6773202E
:101E900053746F726564202800454550524F4D20A1
:101EA0006461746173697A65206572726F722E0A5B
:101EB000002073746F7265642073657474696E6753
:101EC0007320726574726965766564202800202825
:101ED00063616C63756C6174656429210A0020215B
:101EE0003D2000454550524F4D20435243206D69DF
:101EF000736D61746368202D202873746F7265643C
:101F0000292000496E6465783A2000204D61726C8A
:101F1000696E3D563734290A00454550524F4D20D1
:101F200076657273696F6E206D69736D6174636835
:101F30002028454550524F4D3D0000009B430080F6
:101F40008E430000C84350726F62696E6720506F05
:101F5000696E740025532025692F25690050726F22
:101F600062696E67206D65736820706F696E74209A
:101F700000202844525952554E29004732392041F9
:101F800075746F20426564204C6576656C696E6778
:101F9000003F20284C2C522C462C4229206F75746F
:101FA000206F6620626F756E64732E0A003F28569C
:101FB000296572626F7365206C6576656C20696D4A
:101FC000706C61757369626C652028302D34292E20
:101FD0000A00426164205A2076616C75650A004EE1
:101FE0006F2062696C696E65617220677269640A4C
:101FF00000416363656C65726174696F6E3A20506D
:10200000005741524E494E4721204C6F77205A20AD
:102010004A65726B206D6179206C65616420746F14
:1020200020756E77616E7465642070617573657379
:102030002E0A00204D39322058004E6F204D6F7609
:10204000652E0020204D61783A200020204D696ED9
:102050003A2000536F667420656E6473746F7073FA
:102060003A200050726F6265205A204F6666736591
:10207000740046616E205370656564203D004E6FAC
:102080007A7A6C65004D61696E00466C6F7700204E
:1020900020202020202000256C6425636D001FE097
:1020A0002010201020101020102020102010303080
:1020B0000840048003001FE03FF03FF03FF01FE0C6
:1020C0001FE03FF03FF03FF00FC0078003003FFFED
:1020D000F038007030FC3020FC10207810203010D8
:1020E0002C00D02E31D02F7BD02F7BD02E31D02C76
:1020F00000D020301020781020FC1030FC30380048
:10210000703FFFF03FFFF0380070318630238710BA
:102110002787902F87D02F03D020301020781020D1
:1021200078102030102F03D02F87D0278790238757
:10213000103186303800703FFFF01FFFF81FFFF8A6
:1021400004104002082002082004104008208010DB
:1021500041001041000820800410400000001FFFD3
:10216000F81FFFF86F70656E00545249474745529B
:102170004544007A5F6D696E00795F6D696E007825
:102180005F6D696E005265706F7274696E6720656D
:102190006E6473746F70207374617475730A0020B9
:1021A000436F756E7420583A0020453A00486F6DB1
:1021B000696E67204661696C6564005761726E697B
:1021C0006E673A20486F6D696E672042756D7020AA
:1021D00044697669736F72203C20310A0000002048
:1021E000410000C8C1000000000000484200004853
:1021F00042000080400202040000000000000000D5
:10220000000000400000964300009B430000C843CC
:10221000FFFFFF24F4D43050C38E20C2A2401782A7
:102220008B7011127A910D816CD90AA861E108C7EF
:10223000586607615143061E4B5D05C145A7041A48
:10224000411104093D9803713931034036DB0265C1
:10225000339102D4305402802E1D02632CEE01759E
:102260002AC501B028A001102781018F2564012B08
:10227000244B01E0223401AC211F018D200D01808F
:102280001FFC00841EED00971DDF00B81CD200E685
:102290001BC600201BBC00641AB200B219A8000AB9
:1022A00019A0006A189900D117910040178B00B54A
:1022B00016840031167E00B31579003A157300C7F5
:1022C000146F0058146A00EE13660088136300252B
:1022D000135E00C7125B006C12570015125400C148
:1022E00011510070114F0021114B00D61049008D83
:1022F0001047004610440002104200C00F4000800A
:102300000F3E00420F3C00060F3B00CB0E380093FF
:102310000E37005C0E3500270E3400F30D3200C17D
:102320000D3100900D3000600D2E00320D2D000596
:102330000D2C00D90C2B00AE0C2900850C29005C5B
:102340000C2700350C27000E0C2600E80B2400C4D7
:102350000B2400A00B23007D0B23005A0B21003916
:102360000B2100180B2000F80A1F00D90A1E00BB21
:102370000A1E009D0A1D00800A1D00630A1C0047FA
:102380000A1B002C0A1B00110A1A00F7091A00DDAB
:10239000091900C4091900AB091900920917007B3B
:1023A000091800630917004C0916003609160020A9
:1023B0000916000A091500F5081500E0081400CCFC
:1023C000081400B8081400A4081400900813007D35
:1023D0000812006B08130058081200460812003457
:1023E000081100230811001208110001081100F063
:1023F000071000E0071000D0071000C0071000B061
:10240000070F00A107100091070E0083070F00744B
:10241000070F0065070E0057070E0049070E003B27
:10242000070D002E070E0020070D0013070D0006F4
:10243000070D00F9060C00ED060D00E0060C00D4B7
:10244000060C00C8060C00BC060C00B0060C00A46C
:10245000060B0099060C008D060B0082060B007718
:10246000060B006C060B0061060A0057060B004CB9
:10247000060A0042060A0038060A002E060A002450
:10248000060A001A060A001006090007060A00FDDF
:10249000050900F4050900EB050900E2050900D96A
:1024A000050900D0050900C7050900BE050900B5EA
:1024B000050800AD050800A50509009C0508009465
:1024C0000508008C050800840508007C05080074D8
:1024D0000508006C050700650508005D0507005646
:1024E0000508004E050700470507004005080038AD
:1024F000050700310507002A050700230507001C12
:10250000050600160507000F05070008050600026E
:10251000050700FB040600F5040700EE040600E8CA
:10252000040600E2040700DB040600D5040600CF21
:10253000040600C9040600C3040600BD040600B773
:10254000040600B1040500AC040600A6040600A0C1
:102550000405009B04060095040500900406008A0B
:1025600004050085040500800406007A0405007552
:10257000040500700405006B040500660405006195
:102580000405005C04050057040500520405004DD5
:1025900004050048040500430405003E0404003A15
:1025A00004050035040500300404002C0405002750
:1025B000040400230405001E0404001A0404001689
:1025C000040500110404000D0404000904050004BE
:1025D00004040000040400FC030400F8030400F4F5
:1025E000030400F0030400EC030400E8030400E427
:1025F000030400E0030400DC030400D8030400D457
:10260000030400D0030400CC030400C8030300C586
:1026100003030024F404D9201BC40C5C0E9804C4EA
:10262000095F0265077101F405F900FB04B3004876
:10263000048700C10369005803550003034500BE29
:10264000023A008402310053022A002902250004C4
:10265000022000E4011C00C8011900AF0117009816
:102660000114008401130071011000610110005178
:10267000010E0043010D0036010B002B010B002061
:10268000010B00150109000C01090003010800FB02
:10269000000800F3000800EB000700E4000600DE7D
:1026A000000600D8000600D2000600CC000500C7D6
:1026B000000500C2000500BD000400B9000400B51B
:1026C000000400B1000400AD000400A9000400A54E
:1026D000000300A20003009F0004009B0003009879
:1026E0000003009500020093000300900003008D9A
:1026F0000002008B000300880002008600020084B4
:10270000000300810002007F0002007D0002007BC8
:1027100000020079000200770001007600020074D8
:1027200000020072000100710002006F0002006DE3
:102730000001006C0002006A0001006900020067ED
:1027400000010066000100650001006400020062F3
:1027500000010061000100600001005F0002005DF7
:102760000001005C0001005B0001005A00010059FB
:1027700000010058000100570001005600010055FB
:1027800000010054000100530000005300010052FA
:1027900000010051000100500001004F0001004EF7
:1027A0000000004E0001004D0001004C0001004BF4
:1027B0000000004B0001004A0001004900010048F0
:1027C00000000048000100470001004600000046EC
:1027D00000010045000000450001004400010043E5
:1027E00000000043000100420000004200010041DF
:1027F00000000041000100400001003F0000003FD8
:102800000001003E0000003E0001003D0000003DD0
:102810000001003C0000003C0000003C0001003BC7
:102820000000003B0001003A0000003A00010039BE
:1028300000000039000100380000003800000038B6
:1028400000010037000000370001003600000036AC
:1028500000000036000100350000003500000035A2
:102860000001003400000034000000340001003397
:10287000000000330000003300010032000000328D
:102880000000003200010031000000310000003182
:102890000001003000000030000000300001002F77
:1028A0000000002F0000002F0000002F0001002E6C
:1028B0000000002E0000002E0001002D0000002D61
:1028C0000000002D0000002D0001002C0000002C55
:1028D0000000002C0000002C0001002B0000002B49
:1028E0000000002B0000002B0001002A0000002A3D
:1028F0000000002A0000002A000100290000002931
:102900000000002900000029000000290001002823
:102910000000002800000028000000280000002817
:10292000000100270000002700000027000000270A
:1029300000000027000100260000002600000026FD
:1029400000000026000000260001002500000025F0
:1029500000000025000000250000002500000025E3
:1029600000010024000000240000002400000024D6
:1029700000000024000100230000002300000023C9
:1029800000000023000000230000002300000023BB
:1029900000010022000000220000002200000022AE
:1029A00000000022000000220001002100000021A0
:1029B0000000002100000021000000210000002193
:1029C0000000002100010020000000200000002085
:1029D0000000002000000020000000200000002077
:1029E000000000200001001F0000001F0000001F69
:1029F0000000001F0000001F0000001F0000001F5B
:102A00000001001E0000001E0000001E0000001E4D
:102A1000000000043700001E290000511B00005870
:102A200010000010090000CC0400007802000041F2
:102A3000010000416D6178204500416D6178205AA8
:102A400000416D6178205900416D61782058004146
:102A50002D54726176656C00412D5265747261630C
:102A60007400416363656C0056652D4A65726B00A6
:102A7000565A2D4A65726B0056592D4A65726B0085
:102A800056582D4A65726B004573746570732F6DCF
:102A90006D005A73746570732F6D6D005973746592
:102AA00070732F6D6D005873746570732F6D6D00AA
:102AB000496E6974004D34323800496E6974696139
:102AC0006C697A6520454550524F4D0053746570CE
:102AD000732F6D6D00416363656C65726174696F1E
:102AE0006E0056656C6F6369747900536574204895
:102AF0006F6D65204F666673657473004472697606
:102B00006572207265676973746572733A0A00733F
:102B100032767362090073327673610900313230A4
:102B20004309003134334309003135304309003162
:102B300035374309006F7409006F747077090073AB
:102B400032676109007332676209006F6C610900C6
:102B50006F6C6209007374737409004452565354C5
:102B600041545553005374616C6C677561726420F5
:102B700074687273002D73746172740900687973DC
:102B8000746572657369730A2D656E640900626C01
:102B9000616E6B2074696D65006F66662074696D87
:102BA00065004F54207072657761726E20686173A2
:102BB0000A6265656E207472696767657265640094
:102BC0004F54207072657761726E005B6D6D2F736C
:102BD0005D090070776D0A7468726573686F6C6464
:102BE00000747374657009006D7374657073090007
:102BF0007673656E7365090050574D207363616C81
:102C0000650043532061637475616C00486F6C64A8
:102C10002063757272656E740052756E20637572F2
:102C200072656E74004D41582063757272656E74E2
:102C300000524D532063757272656E740053657453
:102C40002063757272656E7400456E61626C6564B6
:102C50000900416464726573730900303D2E33329C
:102C60003500313D2E3138004F46460A004661643A
:102C700065204865696768742000426564204C657A
:102C800076656C696E6720004661696C65642074C6
:102C90006F20656E61626C6520426564204C6576CC
:102CA000656C696E670A00496E76616C6964206DB7
:102CB0006573682E0A00000000000000000000009C
:102CC0000000000000000000000000000000000004
:102CD00000000000000000000000000000000000F4
:102CE00000000000000000000000000000000000E4
:102CF00000000000000000000000000000000000D4
:102D000000000000000000000000000000000000C3
:102D100000000000000000000000000000000000B3
:102D200000000000000000000000000000000000A3
:102D3000000000000000007FFF0FFF0000001F8068
:102D400060030FFFE000007FFF1FFF8700383FC0D8
:102D500070030FFFE000007FFE1FFFC300387FE01D
:102D600078030FFFE0000000001801C30030F0F00E
:102D70007803000000000000001800E30030E07855
:102D80007C03000000000000001800638071C03860
:102D90006E03000000000000001800E3807180183E
:102DA0006703000000000000001800C1E1E1801C82
:102DB000670300000000007FFE1FFFC1FFE3801CCF
:102DC000630307FFC000007FFF1FFFC07F83801CDD
:102DD00060030FFFE000007FFF1FFF803F03801CA8
:102DE00060030FFFE0000000001801C00C03801C0E
:102DF0006033000000000000001800C00C018018C3
:102E0000603B000000000000001800C00C01C0186A
:102E1000603B000000000000001800C00C01C0383A
:102E2000601F000000000000001800C00C00E070EF
:102E3000600F000000000000001800C00C0079F0D6
:102E4000600F00000000007FFF1800C00C007FE052
:102E500060070FFFE000007FFF1800C00C001F801C
:102E600060030FFFE000007FFE0800C004000F00B9
:102E700020010FFFE0000000000000000000000043
:102E80000000000000000000000000000000000042
:102E90000000000000000000000000000000000032
:102EA0000000000000000000000000000000000022
:102EB0000000000000000000000000000000000012
:102EC0000000000000000000000000000000000002
:102ED00000000000000000000000000000000000F2
:102EE00000000000000000000000000000000000E2
:102EF00000000000000000000000000000000000D2
:102F000000000000000000000000000000000000C1
:102F10000000000000000000000C0300040000009E
:102F200000000000000000003FEC0300040000006F
:102F3000C067C00000000000020C00000400000098
:102F40004044600000000000020C0000040000008B
:102F500060C0600000000000020DE3378471E36090
:102F600020C0200000000000020E3338C4C33380AC
:102F70003080600000000000020C3330C486130073
:102F80003180400000000000020C3330C506130001
:102F90001101C00000000000020C3330C707F3002D
:102FA0001903800000000000020C3330C5840300C8
:102FB0001B06000000000000020C3330C4C60300F2
:102FC0000A0C000000000000020C3330C463130040
:102FD0000E0C000000000000020C3330C431E3008E
:102FE0000E0FE000000000000000000000000000E4
:102FF00000000000000000000000000000000000D1
:1030000000000000000000000000000000000000C0
:1030100000000000000000000000000000000000B0
:1030200000000000000000000000000000000000A0
:103030000000000000000000000000000000000090
:103040000000000000000000000000000000000080
:103050000000000000000000000000000000000070
:103060000000000000000000000000000000000060
:103070000000000000000000000000000000000050
:103080000000000000000000000000000000000040
:103090000000000000000000000000000000000030
:1030A0000000000000000000000000000000000020
:1030B00000000000000001FFFFFFFFFFFFFFFFFF18
:1030C000FFFFFFFF0FFFFFFFFFFFFFFFFFFFFFFF00
:1030D000FFFF1E0000000000000000000007FFFFCF
:1030E000380000000000000000000003FFFF700037
:1030F00000000000000000000001FFFF6000000071
:103100000000000000000000FFFF60000000000061
:103110000000000000007FFFC00000000000000071
:10312000007800003FFFC00FC0FC000000000078E6
:1031300018001FFFC03FE1FF0000000000783C00C6
:103140000FFFC07FF3FF8000000000783C0007FF06
:10315000C0FFFFFFC000000000783C0003FFC1F883
:103160007F87E00000000078000001FFC1F03F030E
:10317000E00000000078000000FFC1E01E01E01F39
:103180000003E0783C03F07FC1E01E01E07FC00F48
:10319000F8783C07FC3FC1E01E01E1FFE01FFC782E
:1031A0003C0FFE1FC1E01E01E3FFF03FFE783C1F15
:1031B000FE0FC1E01E01E3F3F83F3E783C3F3F07BE
:1031C000C1E01E01E7E0FC7C1F783C3E1F07C1E028
:1031D0001E01E7C07C7C0F783C3C0F03C1E01E0160
:1031E000E7807C780F783C3C0F03C1E01E01E7804C
:1031F0003C7800783C3C0F03C1E01E01E7803C783E
:1032000000783C3C0F03C1E01E01E7803C78007869
:103210003C3C0F03C1E01E01E7C03C7800783C3C19
:103220000F03C1E01E01E3E03C78007C3C3C0F034F
:10323000C1E01E01E3FF3FF8007FBC3C0F03C1E08B
:103240001E01E1FF3FF8003FBFFC0F03C1E01E017C
:10325000E0FF3FF8001FBFFC0F03C1E01E01E07F4D
:103260003FF8000FBFFC0F036000000000000000EB
:1032700000000000000760000000000000000000E7
:1032800000000006700000000000000000000000C8
:10329000000E380000000000000000000000001CCC
:1032A0001E000000000000000000000000780FFF7A
:1032B000FFFFFFFFFFFFFFFFFFFFFFF001FFFFFF2B
:1032C000FFFFFFFFFFFFFFFFFF80687474703A2F5E
:1032D0002F6D61726C696E66772E6F726700322E89
:1032E000302E78004D31303030205300205049448A
:1032F0005F64543A0020643A002069693A00207003
:103300003A002020506C616E6E657242756666658B
:103310007242797465733A20002046726565204DCB
:10332000656D6F72793A2000436F6D70696C6564EA
:103330003A204F637420333120323032300A00207B
:103340004C61737420557064617465643A20323046
:1033500031392D31322D3031207C20417574686F28
:10336000723A20286E6F6E652C2064656661756CFC
:103370007420636F6E666967290A00322E302E78DA
:103380000A004D61726C696E0020536F667477613C
:1033900072652052657365740A0020576174636812
:1033A000646F672052657365740A002042726F77FC
:1033B0006E206F75742052657365740A002045781D
:1033C0007465726E616C2052657365740A00506F8B
:1033D00077657255700A006175746F25632E6700FA
:1033E0004732385859006572726F7220777269746B
:1033F000696E6720746F2066696C650A00446F6EA1
:103400006520736176696E672066696C652E0A00B7
:103410004D323900456E6473746F7073002553200C
:10342000256320256320256320256300205A3A0068
:1034300020593A00656E6473746F70732068697404
:103440003A20007C3C3E5E2B3D3F2F5B5D3B2C2AAF
:10345000225C004C6F6164206D6D00556E6C6F6175
:1034600064206D6D0046696C2E204469612E004514
:1034700020696E206D6DC2B3002008204661637420
:10348000002008204D6178002008204D696E004121
:1034900075746F74656D70005654726176204D6955
:1034A0006E00566D696E00566D6178204500566D50
:1034B0006178205A00566D6178205900566D617808
:1034C00020580020746F6F206C6F6E6720657874D1
:1034D000727573696F6E2070726576656E7465645F
:1034E0000A0020636F6C6420657874727573696F6D
:1034F0006E2070726576656E7465640A00220A003B
:10350000556E6B6E6F776E20636F6D6D616E643A92
:103510002022004C4F570048494748004F4B004578
:1035200072726F723A20416C6C200020636F6E6E75
:10353000656374696F6E2E2E2E2000546573746956
:103540006E67200000002100240027002A002D00C3
:103550003000330001010000040107010A010000EE
:103560002200250028002B002E003100340002012B
:103570000000050108010B010000200023002600C7
:1035800029002C002F003200000100000301060179
:1035900009010505050507050808080802020202D9
:1035A0000A0A0808040404040101010101010101DF
:1035B0000303030303030303040707070C0C0C0CAA
:1035C0000C0C0C0C02020202060606060606060693
:1035D0000B0B0B0B0B0B0B0B07070A0A0A0A0A0A49
:1035E000050505040404080801021020200808103D
:1035F0002040102040800201020108040201010263
:10360000040810204080804020100804020180043B
:103610000201804020100804020108040201010296
:103620000408102040800102040810204080100887
:1036300004088010204004408010204004800000D6
:103640000A0B02090C0D0E0807030401000000001C
:10365000000000000000000000000000000000006A
:103660000000000000000000000012111000000027
:10367000000000000000000000000000000000004A
:10368000000000000000000000000000000000003A
:10369000000000004D6F76652025736D6D004D6F45
:1036A000766520302E316D6D004D6F766520316D61
:1036B0006D004D6F76652031306D6D004D6F766514
:1036C000204178697300486F74656E6420746F6F71
:1036D00020636F6C64004578747275646572004D88
:1036E0006F7665205A004D6F76652059004D6F76D4
:1036F000652058004368616E67652046696C616D9E
:10370000656E7400556E6C6F61642046696C616D06
:10371000656E74004C6F61642046696C616D656E06
:1037200074005072656865617420414253005072A4
:10373000656865617420504C410050726568656130
:103740007420437573746F6D004261636B004F6644
:1037500066004F6E00544D43204472697665727363
:1037600000436F6F6C646F776E00537465616C74A7
:103770006843686F7020456E61626C6564005374C5
:10378000657070696E67204D6F64650053656E7378
:103790006F726C65737320486F6D696E6700447259
:1037A000697665722043757272656E7400436F6E40
:1037B00074726F6C006F70656E206661696C656411
:1037C0002C2046696C653A20004F7574616765204E
:1037D0005265636F7665727900436F6E66696775CF
:1037E000726174696F6E00256C642E25696D0045E9
:1037F0007874727564656420546F74616C004C6FEA
:103800006E67657374204A6F622054696D65003E6F
:103810002000546F74616C205072696E742074695A
:103820006D6500436F6D706C6574656400507269FE
:103830006E7420436F756E7400313530004245441C
:103840003A486973656E7320333935300052756EAE
:10385000617761792057617463683A204F4E004D5B
:1038600061782054656D7000323735004D696E20E7
:1038700054656D700045313A20486973656E732058
:1038800033393530005053550047656E65726963B2
:103890000050726F746F636F6C00312E30004261A4
:1038A0007564003235303030300052616D626F0027
:1038B00042696C696E656172204C6576656C696EF3
:1038C0006700457874727564657273005468696E38
:1038D0006B65722056325F4E504E5F323230390087
:1038E000323031392D31322D3031005072696E74E1
:1038F000657220537461747300546865726D6973E6
:10390000746F727300426F61726420496E666F005B
:103910005072696E74657220496E666F004D313069
:1039200030300053746F70205072696E74005265AD
:1039300073756D65205072696E740053746F7000FA
:103940004D3231004368616E6765204D6564696181
:103950000041626F7574205072696E746572005414
:10396000756E65004E6F204D6564696100496E6635
:103970006F2053637265656E005061726B696E678C
:103980002E2E2E0000005761697420666F7200664B
:10399000696C616D656E74206368616E6765007443
:1039A0006F207374617274005761697420666F725E
:1039B0000066696C616D656E7420756E6C6F616414
:1039C00000004E6F7A7A6C652068656174696E6775
:1039D00000506C6561736520776169742E2E2E002E
:1039E00000507265737320627574746F6E00746F2B
:1039F0002068656174206E6F7A7A6C650000496E8C
:103A0000736572742066696C616D656E7400616EB9
:103A10006420707265737320627574746F6E0074C5
:103A20006F20636F6E74696E7565005761697420ED
:103A3000666F720066696C616D656E74206C6F6193
:103A4000640000507265737320427574746F6E0069
:103A5000746F20726573756D65207072696E740085
:103A6000005761697420666F72207072696E74000D
:103A7000746F20726573756D652E2E2E0000576170
:103A8000697420666F720066696C616D656E742082
:103A900070757267650000453100626564002C2016
:103AA00073797374656D2073746F70706564212011
:103AB0004865617465725F49443A200048656174E5
:103AC000696E67204661696C656400486561746968
:103AD0006E67206661696C656400202D20496E76F2
:103AE000616C6964206578747275646572206E75A6
:103AF0006D62657220210A00544845524D414C20A8
:103B000052554E4157415900546865726D616C20A1
:103B100052756E61776179004572723A204D415855
:103B200054454D50004D415854454D5020747269D4
:103B3000676765726564004572723A204D494E545C
:103B4000454D50004D494E54454D502074726967A3
:103B50006765726564004D383420582059205A201A
:103B60004500202F002042403A0020403A002057D4
:103B70003A000040012C0173012201AB011801F34E
:103B8000010E0148020401AC02FA002A03F000C34E
:103B900003E6008004DC006D05D2006C06C800C797
:103BA00007BE007009B4006D0BAA00CB0DA000CFBA
:103BB000138C00F21B7800E9246400142E50009C42
:103BC000353C00B83A2800A03D14000B3F000050DF
:103BD0006C65617365205265736574005052494E7F
:103BE0005445522048414C5445440025533A202521
:103BF00053004B494C4C45442E20005072696E7462
:103C000065722068616C7465642E206B696C6C2829
:103C1000292063616C6C6564210A006563686F3AF2
:103C2000004572726F723A0066616C73650074725F
:103C300075650042696C696E656172204C657665D8
:103C40006C696E6720477269643A0A00486F746550
:103C50006E6420746F6F20636F6C640A004D3630A1
:103C6000303A20546F6F20436F6C6400507265735C
:103C70007320627574746F6E20746F207265737533
:103C80006D650A00507265737320627574746F6E8F
:103C900020746F2068656174206E6F7A7A6C650A93
:103CA000004C6F6164002053697A653A20004361DB
:103CB0006E6E6F74206F70656E20737562646972CA
:103CC000200053442063617264206F6B0A006F70A0
:103CD000656E526F6F74206661696C65640A007668
:103CE0006F6C756D652E696E6974206661696C65AF
:103CF000640A00534420696E6974206661696C0A25
:103D0000004D32332025730057726974696E672045
:103D1000746F2066696C653A200046696C65207393
:103D2000656C65637465640A0046696C65206F7034
:103D3000656E65643A2000667265736800646F6939
:103D40006E67004E6F772000454E44205355425217
:103D50004F5554494E450A002220706F73002220AF
:103D6000706172656E743A2200535542524F555439
:103D7000494E452043414C4C207461726765743A4A
:103D80002200747279696E6720746F2063616C6CB5
:103D9000207375622D67636F64652066696C657357
:103DA000207769746820746F6F206D616E79206C64
:103DB0006576656C732E204D4158206C6576656C78
:103DC0002069733A310A0044656C6574696F6E202E
:103DD0006661696C65642C2046696C653A20004612
:103DE000696C652064656C657465643A00506F7732
:103DF00065722D6C6F73732066696C652064656CE9
:103E0000657465004D6963726F73746570732075B6
:103E10006E617661696C61626C650A0045313A20B9
:103E20000045303A20004D53312C4D53322C4D5328
:103E3000332050696E730A583A20005072696E74CC
:103E40002050617573656400506175736520507210
:103E5000696E74004D656469612052656D6F7665A9
:103E600064004D6564696120496E736572746564B0
:103E7000005468696E6B65722056325F4E504E5F1B
:103E8000323230392052656164792E005072696E89
:103E900074696E672E2E2E005072696E7420416216
:103EA0006F72746564004D323520500A4D32340013
:103EB0005072696E742066726F6D204D6564696121
:103EC00000205A3A200020593A20004265642058C8
:103ED0003A200050726F62696E67204661696C65B6
:103EE000640A0050726F62696E67204661696C6592
:103EF0006400486F6D65202573257325732046691E
:103F000072737400496E736572742066696C616DBA
:103F1000656E7420616E64207072657373206275C3
:103F200074746F6E0A00205400205200486172645D
:103F3000636F6465642044656661756C74205365C5
:103F40007474696E6773204C6F616465640A002045
:103F5000204D3930360020204D3931340020204D9D
:103F60003536392053310020204D363033200020A3
:103F7000550046696C616D656E74206C6F61642FCD
:103F8000756E6C6F6164206C656E677468733A0A55
:103F900000447269766572207374657070696E672B
:103FA000206D6F64653A0A005374616C6C477561EB
:103FB0007264207468726573686F6C643A0A0020DA
:103FC00054302045005374657070657220647269C6
:103FD0007665722063757272656E743A0A002020ED
:103FE0004D3835312058005A2D50726F6265204F80
:103FF00066667365740020204D34313320530050C1
:104000006F7765722D4C6F7373205265636F7665A1
:1040100072793A0A0020204D33303420500020209D
:104020004D33303120500050494420736574746919
:104030006E67733A0A0020460020480020204D3168
:1040400034352053004D6174657269616C20686578
:104050006174757020706172616D65746572733A18
:104060000A00204A002020473239205720490020EA
:10407000204D3432302053004175746F2042656406
:10408000204C6576656C696E673A0A0020204D32D7
:104090003036205800486F6D65206F666673657412
:1040A0003A0A0020204D32303520420020453C6D38
:1040B00061785F655F6A65726B3E0020583C6D6198
:1040C000785F785F6A65726B3E20593C6D61785FFE
:1040D000795F6A65726B3E205A3C6D61785F7A5FEA
:1040E0006A65726B3E00416476616E6365643A2076
:1040F000423C6D696E5F7365676D656E745F746970
:104100006D655F75733E20533C6D696E5F666565D6
:1041100064726174653E20543C6D696E5F747261B7
:1041200076656C5F66656564726174653E0020202B
:104130004D323034205000416363656C65726174A8
:10414000696F6E2028756E6974732F7332293A2057
:10415000503C7072696E745F616363656C3E20529F
:104160003C726574726163745F616363656C3E2069
:10417000543C74726176656C5F616363656C3E0A82
:104180000020204D3230312058004D6178696D7526
:104190006D20416363656C65726174696F6E202880
:1041A000756E6974732F7332293A0A0020204D32DC
:1041B00030332058004D6178696D756D20666565F6
:1041C0006472617465732028756E6974732F732926
:1041D0003A0A0053746570732070657220756E69B9
:1041E000743A0A0020204D3230302044300A00203A
:1041F000204D3230302044002044697361626C6588
:10420000640A0046696C616D656E74207365747430
:10421000696E67733A0020204D3134392043203BCA
:1042200020556E69747320696E2043656C736975DF
:10423000730A0020286D6D2900202047323120208C
:1042400020203B20556E69747320696E206D6D00CF
:10425000000096430000964300000C420000C84155
:104260000000A0420000A0420000C8430000BA4283
:10427000DC050000DC05000096000000DC05000005
:104280004361703A00436C69636B20746F20526520
:1042900073756D652E2E2E0050726F6265204F660D
:1042A00066736574205A0050726F6265204F6666AF
:1042B0007365745A3A20003F5A206F7574206F66F8
:1042C0002072616E67652028003F59206F75742049
:1042D0006F662072616E676520282D003F58206F41
:1042E0007574206F662072616E676520282D0050FE
:1042F000726F6265204F6666736574205800F20124
:10430000F80211241FBECFEFD1E2DEBFCDBF00E027
:104310000CBF13E0A0E0B2E0EEE1F8EC02E00BBF6E
:1043200002C007900D92AE3AB107D9F728E1AEEA84
:10433000B3E001C01D92A735B207E1F711E2C0E872
:10434000D1E200E006C021970109802FFE010F9401
:104350001860CF37D10780E00807A9F70F94504ABB
:104360000D94FD630C9400002F923F924F925F9248
:104370006F927F928F929F92AF92BF92CF92DF9275
:10438000EF92FF920F931F93CF93DF93CDB7DEB7DA
:10439000C555D1090FB6F894DEBF0FBECDBF6696E6
:1043A0008FAF66972091AD1725962FAF259781E0A7
:1043B0008093AD1780914C188D3409F40DC4843569
:1043C00011F40C945633873411F00C94713320900F
:1043D0004A1830904B183BE12316310409F418C1F8
:1043E000C4F454E02516310444F482E02816310464
:1043F0000CF041C037FE33C0EBC394E02916310402
:1044000009F4C7C0A5E12A16310411F40C947333E2
:10441000DFC3BAE22B16310409F4B3C26CF4FDE138
:104420002F16310409F41EC10CF40CC13EE1231611
:10443000310409F42BC1CCC34BE52416310409F433
:10444000EAC15CE52516310409F4EAC18AE52816BB
:10445000310409F0BDC31092B7030C9473338091FB
:104460006802882311F40C9473330E94D15E0E9479
:1044700021A10C94733380916802882311F40C9469
:1044800073330E94D15E82E50E94B0BE882309F496
:104490004EC00E9458BC6B017C0120E030E0A901B5
:1044A0000F943359882311F40C943B342091430228
:1044B0003091440240914502509146022CA33DA305
:1044C0004EA35FA38091470290914802A0914902B8
:1044D000B0914A0288A799A7AAA7BBA780903805E0
:1044E00090903905A0903A05B0903B0540903C056E
:1044F00050903D0560903E0570903F05A5019401E8
:104500006CA17DA18EA19FA10F94335981110C94B0
:104510008033A301920168A579A58AA59BA50F9474
:104520003359882311F40C943B340C94803389E480
:104530000E94B0BE882329F00E9458BC6B017C0108
:1045400003C0C12CD12C76018AE40E94B0BE88231E
:1045500011F40C9442340E9458BC6CA77DA78EA71E
:104560009FA720E030E0A901C701B6010F9433599D
:1045700081110C944F3420E030E0A9016CA57DA599
:104580008EA59FA50F94335981110C944F340C9430
:104590003B3480E50E94B0BE882329F00E94EB8A5C
:1045A0006B017C0103C0C12CD12C760183E50E94F4
:1045B000B0BE882361F00E9458BC20E030E04AE79A
:1045C00054E40F9499590F94D3616B017C010E94BC
:1045D000ACB28091DF16811105C060E08DEF9AE0EA
:1045E0000F94C6340E94C9ECC60ED71EE81EF91EF1
:1045F0000E94C9ECDC01CB018C199D09AE09BF09F1
:10460000B7FD02C00C94733380E00E943C3CF0CFB5
:104610000F94C93A81110C9473338CE0E9E8F2E00D
:10462000DE01119601900D928A95E1F760E070E04D
:1046300080E50E944C69BE016F5F7F4F0F94773316
:104640000C9473338091AA178770873011F00C9403
:10465000DE3760E08FE40E94BDBE81110C9473339D
:104660000C94DE370F94C93A81110C947333809106
:104670005D05882311F40C94303960E08FE40E94CA
:10468000BDBE81110C9473330C943039209199176D
:1046900030919A1740919B1750919C17609143025B
:1046A0007091440280914502909146020F9460609F
:1046B000AB01BC0188E50E941E5569837A838B8318
:1046C0009C8320919D1730919E1740919F17509188
:1046D000A017609147027091480280914902909121
:1046E0004A020F946060AB01BC0189E50E941E552F
:1046F0006D837E838F839887BE016B5F7F4FCE0172
:1047000001960E947F8B882311F40C94733380E010
:104710000F94C3110E9415A461E085E40E94BDBE00
:10472000182F21E0482FBE016B5F7F4FCE0101960D
:104730000F947F3B6B017C019B01AC010F94526392
:1047400081115FC089809A80AB80BC8020E030E01E
:10475000A901C501B4010F94335987FF05C027E1B2
:1047600037EB41E558EB04C027E137EB41E558E36F
:10477000C501B4010F946060AB01BC018BEC9EE3FA
:104780000F9411168D809E80AF80B88420E030E0B9
:10479000A901C501B4010F94335987FF05C027E172
:1047A00037EB41E558EB04C027E137EB41E558E32F
:1047B000C501B4010F946060AB01BC0186EC9EE3BF
:1047C0000F94111620E030E0A901C701B6010F9443
:1047D000335987FF05C067E177EB81E598EB04C0AB
:1047E00067E177EB81E598E3A70196010F9460609C
:1047F000AB01BC0181EC9EE30F9411168AE00E948C
:10480000103B0E94FCA3113011F40E9426B00E94BC
:104810000AA70C9473338FE08093B7030C9473331F
:1048200080914918882349F1893009F0A6C045E9EB
:10483000A42E42E0B42E53E4E52E52E0F52ED12C06
:1048400000E010E0D5018D915D010E94B0BE88238B
:1048500069F00E9458BCF70160837183828393835F
:10486000133011F401E002C0DD24D3941F5FF4E0A3
:10487000EF0EF11C143031F775C095E9292E92E046
:10488000392E2CE2E22E25E0F22E23E432E03DA385
:104890002CA33DE8C32E37E1D32E00E010E0D10178
:1048A0008D911D010E94B0BE882309F44BC00E9467
:1048B00058BC2B013C01133049F0F60120813181B5
:1048C000428153810F945F602B013C01ACA1BDA1DB
:1048D0002D913D914D915C91C301B2010F945F60A8
:1048E0004B015C012DEB37E346E855EB0F94C062BA
:1048F00087FD0AC02DEB37E346E855E3C501B40157
:104900000F9433591816F4F4133051F440924F02B7
:1049100050925002609251027092520201E012C015
:10492000A5019401F70160817181828193810F94C7
:104930006060D7016D937D938D939C931397812F26
:104940000E9464A01F5FB4E0EB0EF11CECA1FDA17E
:104950003496FDA3ECA3F4E0CF0ED11C143009F083
:104960009ECF05C0DD2019F00E94DDA506C0002302
:1049700021F08FE492E00E94BDB20E940AA70C943D
:10498000733380916802882311F40C94733389E4A3
:104990000E94B0BEE82E882321F00E9454BC082F4C
:1049A00001C000E08AE40E94B0BEF82E882321F006
:1049B0000E9454BC182F01C010E0EE2011F0053009
:1049C00020F4FF2041F0153030F086E49BE00F9496
:1049D00053150C94733380E1E3E4F2E0A8E3B5E00F
:1049E00001900D928A95E1F7EE2019F1602F000FEA
:1049F000770B880B990B0F943A592091B31730918C
:104A0000B4174091B5175091B6170F94995920914A
:104A1000D9043091DA044091DB045091DC040F9406
:104A20006060609338057093390580933A059093E0
:104A30003B05FF2019F1612F110F770B880B990BA4
:104A40000F943A592091B7173091B8174091B91780
:104A50005091BA170F9499592091DD043091DE04DA
:104A60004091DF045091E0040F94606060933C0536
:104A700070933D0580933E0590933F0560E080E58F
:104A80000E94BDBE8823C1F1EE20D1F0209199177C
:104A900030919A1740919B1750919C17609138055F
:104AA0007091390580913A0590913B050F945F60B4
:104AB000609338057093390580933A0590933B05D0
:104AC000FF20D1F020919D1730919E1740919F17A4
:104AD0005091A01760913C0570913D0580913E0575
:104AE00090913F050F945F6060933C0570933D0586
:104AF00080933E0590933F0540E050E0BA0186E484
:104B00000E941E556B017C0120E030E0A9010F944A
:104B1000C06218165CF420E030E040E752E4C701C0
:104B2000B6010F945A616B017C0103C0C12CD12CDA
:104B300076018090850290908602A0908702B090C6
:104B4000880220E030E0A901C701B6010F94335973
:104B5000882341F0C0928502D0928602E0928702BB
:104B6000F0928802009120021091210284E690E0E8
:104B70009093210280932002C0905302D09054025F
:104B8000E0905502F090560280E090E0A0E8BFE38C
:104B90008093530290935402A0935502B09356020F
:104BA0000E9421A18092850290928602A0928702A3
:104BB000B09288021093210200932002C092530207
:104BC000D0925402E0925502F09256020C94733344
:104BD0000E94CBE60C94733300914A1810914B1845
:104BE0000139110509F4C8C70CF042C1023511059D
:104BF00009F438C60CF0BAC00B31110509F42BC307
:104C00000CF05AC00531110509F492C2C4F5013106
:104C1000110509F489C24CF40230110510F00C940E
:104C200053330F9473480C9473330231110509F414
:104C300027C60431110511F00C94533384E79BE02F
:104C40000F94531588E092E10E9441C68BE1E8E0A1
:104C5000F2E1DE01119601900D928A95E1F760E094
:104C600070E0CE0101960F941321CE0101960F94AE
:104C7000090F85E69BE00F9453150C9473330831AC
:104C8000110509F473C274F40631110509F454C214
:104C90000731110511F00C945333E0914718F0914E
:104CA000481857C20931110509F4BCC20A3111056F
:104CB00009F4C3C20C9453330A32110509F482C3B8
:104CC000FCF40E31110509F423C384F40C311105F1
:104CD00009F414C30D31110511F00C945333809174
:104CE000EB118E7F8093EB110C9473330F31110510
:104CF00009F448C30032110509F41AC30C94533364
:104D00000D34110509F485C36CF40B34110509F455
:104D10007CC30C34110511F00C9453330E94F385BD
:104D20000C9473330E34110509F477C30135110562
:104D300011F00C9453330F94B8050E946EB10E9489
:104D400028B40E94483A1092A9171092A8171092FE
:104D5000A71768EE73E080E090E00F942F1560E0F5
:104D600081E59CE00F94C6340C9473330F36110523
:104D700009F4C2C4BCF50936110509F461C4CCF4C8
:104D80000535110509F47FC554F40335110509F4FF
:104D900070C50435110509F473C50C9453330C35F3
:104DA000110509F489C50836110509F4C8C30C9426
:104DB00053330C36110509F4E4C454F40A361105D2
:104DC00009F454C40B36110509F474C40C9453331C
:104DD0000D36110509F4D7C30E36110509F479C44F
:104DE0000C9453330637110509F482C6CCF402370C
:104DF000110509F4FFC554F40037110509F4C6C4C0
:104E00000137110509F4CAC40C9453330337110553
:104E100009F4F5C50537110509F45AC60C94533346
:104E20000937110509F4A1C694F40737110509F4EF
:104E300099C60837110511F00C94533381E0809323
:104E4000F9058093F8050F94213F0C9473330D37C7
:104E5000110509F404C50C38110509F4C1C40A3759
:104E6000110511F00C9453330E94E1610C947333DB
:104E70000D3921E0120711F40C944D330CF099C058
:104E8000023E110509F4E8C70CF043C00C3C1105C3
:104E900009F45CC7E4F4083C110509F4C8C66CF4D5
:104EA0000B39110509F4B5C40E3B110511F00C9432
:104EB00053330E94E35A0C947333093C110509F4EF
:104EC00003C70B3C110509F422C70C945333033D6F
:104ED000110509F45BC79CF40D3C110509F439C7B1
:104EE0000E3C110511F00C94533345E9C42E42E0F9
:104EF000D42E5DEFE52E55E0F52E10E02DC70C3DCC
:104F0000110509F446C70D3D110509F44FC70C946E
:104F10005333003341E0140711F40C9410300CF5B6
:104F20000D3281E0180711F40C94902F5CF40232DA
:104F3000A1E01A0709F4DCC70C32114009F4DBC701
:104F40000C9453330E32E1E01E0711F40C948330BD
:104F50000F32114011F00C9453330E9435550C94CC
:104F60007333003921E0120711F40C94C7307CF43C
:104F70000E3541E0140711F40C940A330F3511403B
:104F800011F00C9453330E945B880C9473330239F4
:104F900081E0180711F40C94D03014F40C94CA304A
:104FA0000A39114011F00C9453330E940B3A0C94BF
:104FB00073330B35B2E01B0711F40C94CD310CF0B8
:104FC0004DC0063FF1E01F0711F40C94A5311CF50C
:104FD0000C3A31E0130711F40C9444316CF4043AA8
:104FE00051E0150711F40C94D830053A114011F432
:104FF0000C94DB300C945333043F91E0190711F407
:105000000C94A231053F114011F00C9453330F94CE
:10501000C4400C9473330C30B2E01B0711F40C94B1
:10502000C2316CF4073FF1E01F0711F40C94A83172
:10503000083F114011F40C94B1310C9453330933EF
:1050400032E0130711F40C9488320835124011F045
:105050000C9453330E9487670C9473330C3853E0DD
:10506000150711F40C94763244F5033593E01907D3
:1050700011F40C94CA317CF40D3BB2E01B0711F41F
:105080000C9446320E3B124011F00C9453330E94A4
:1050900065650C9473330A38F3E01F0711F40C9420
:1050A00085320B38134011F00C94533325E9E22E6E
:1050B00022E0F22E10E00C944C32023933E0130758
:1050C00011F40C94C0327CF40F3853E0150711F43E
:1050D0000C948B320039134011F00C9453330E941E
:1050E00020600C947333073E93E0190711F40C947D
:1050F0003F33083EA3E01A0711F40C945033003AF2
:10510000134011F00C9453332091471830914818F4
:105110009091EB1192609093EB1140E060E0C90137
:105120000F94F21F0C9473330E940C8A0C94733307
:105130000F94BB1C0C9473330F944A1C8091EB1199
:10514000877F8093EB110C947333803209F41082C3
:10515000319680818111F9CF40E061E0809147185C
:10516000909148180F94F21F0C94733383E50E94BA
:10517000B0BE882321F00E9420BC0E949F5D84E580
:105180000E94B0BE8823A9F00E9420BC6B017C0164
:105190000E94D885C0928105D0928205E092830555
:1051A000F0928405CD28CE28CF2819F081E0809395
:1051B0008905809168158823E9F080E090E0A8ECEB
:1051C000B2E488A399A3AAA3BBA31C8E1D8E1E8E36
:1051D0001F8E19821A821B821C8220E0AE01405E63
:1051E0005F4FBE01645E7F4FCE0101960F9485161E
:1051F0000C9473330E944D3A882381F00F945B1C0A
:105200000E94713A82E196E10F94001C10924204D0
:105210001092430410924404109245040F94723586
:105220000C9473338091EB1182FF03C08B7F8093CA
:10523000EB110E947F680C9473338091EB1183FD16
:1052400002C00C94733383E50E94B0BE81110C94AC
:1052500033390C94733383E40E948FBC882319F193
:105260008FE89BE00F94531580914F13882391F0A2
:10527000BE016F5F7F4F8CE493E10E94B8C98E013D
:105280000F5F1F4FF80181918F01882339F00E9431
:10529000103BF8CF85E89BE00F9453158AE00E94FD
:1052A000103B0C9473338091EB1182FF21C08EE987
:1052B0009BE00F9453156091E7117091E811809174
:1052C000E9119091EA114AE00E94173B8FE20E9497
:1052D000103B6091E3117091E4118091E511909180
:1052E000E6114AE00E94173B0E94153C0C94733370
:1052F00080EB9BE00F9453150C94733340E060E017
:1053000080914718909148180F94F21F0C947333B2
:105310008091EB1183FD02C00C9473330E94B4E6BC
:1053200080914718909148180F94241F0C94733360
:105330008091EB1182FD0E94ACB28091EB1183FD54
:1053400002C00C94733360E080E50E94BDBE182F4C
:10535000482F61E080914718909148180F94F21FF0
:1053600083E50E94B0BE882321F00E9420BC0E94E9
:105370009F5D0F945B1C11110C9473330E94713A62
:105380000C9473330E94A4856C8F7D8F8E8F9F8FBA
:10539000BE016F5F7F4FCE014C960E94C05C60E003
:1053A000CE0101960F944D350F944616BE016F5FE6
:1053B0007F4F81EC9BE00F942F168AE00E94103BF8
:1053C0000C94733383E50E94B0BE882311F40C94CF
:1053D00073330E9430BCF82E6DE070E080E50E94CF
:1053E000B68C8C0197FF02C00C947333E82E60E0FA
:1053F00089E40E94BDBE81110C943839802F0F942E
:10540000D449811146C50C9438390E94713A0C94E4
:1054100073330E946EB10C94733360E070E083E5E7
:105420000E94B68C8E34910531F40E94DFB10F9446
:1054300072350C94733384E29CE00F9453156091A1
:10544000E8057091E9058BE19CE00F9407166091E7
:10545000EA057091EB058EE09CE00F9407166091D1
:10546000E8057091E9058091EA059091EB05681BCC
:10547000790B80918905815021E030E0823010F075
:1054800020E030E0621B730B83E09CE00F94071672
:105490008AE00E94103B84E29CE00F9453158091B7
:1054A000EC059091ED05A091EE05B091EF058C8F84
:1054B0009D8FAE8FBF8FBE016F5F7F4FCE014C9629
:1054C0000E94C05CBE016F5F7F4F86EF9BE00F9430
:1054D0002F168091F0059091F105A091F205B09101
:1054E000F3058C8F9D8FAE8FBF8FBE016F5F7F4F97
:1054F000CE014C960E94C05CBE016F5F7F4F86EE6E
:105500009BE00F942F1620E030E04AE754E46091CE
:10551000F4057091F5058091F6059091F7050F94CB
:105520005A61AB01BC018EEC9BE00F9411168DE625
:105530000E94103B8AE00E94103B0C9473338091D0
:10554000040D83FF02C00C9473330E94EB5F87FF4E
:1055500002C00C94733383E50E94B0BE882379F0B7
:105560000E9458BC0F94CC618B01CB010E9476CD78
:105570000635110524F40E946EB10F9472350F9414
:10558000204A0C9473338091040D83FF02C00C9465
:1055900073330E94EB5FF82E87FF02C00C947333C5
:1055A00083E50E94B0BE082F811106C082E50E94EB
:1055B000B0BE182F8823C1F10E9458BC0F94CC6153
:1055C000CB010E9476CD0E9458BC20E030E04AEA30
:1055D00052E40F943359181614F40C9451390E9464
:1055E0006EB10F9472356091F3077091F407072E36
:1055F000000C880B990B0F943A594B015C014090B9
:10560000EF075090F0076090F1077090F207A30148
:1056100092010F94C062181614F40C946F39002391
:1056200011F40C94553911E00F94204A112311F410
:105630000C947333602F8F2D0F94FF030C947333EE
:105640000E94EB5F182F87FD0AC08EE893E10F944C
:105650005315812F0F9488038AE00E94103B2596F2
:10566000FFAD2597F093AD170C94C83960E080E545
:105670000E94C58C182F823010F00C94733381E493
:105680000E948FBC882321F06091D40770E002C093
:105690006FEF70E083E50E944C69E12FF0E0EC527F
:1056A000F84F8F3F910519F010F08FEF90E0808355
:1056B0000C94733360E080E50E94C58C823010F05A
:1056C0000C947333E82FF0E0EC52F84F10820C94F6
:1056D00073338EE40E94B0BE882311F40C947333AC
:1056E0000E9420BC6093CA047093CB048093CC04C6
:1056F0009093CD040C94733383E50E948FBC882370
:1057000031F060E083E50E94C58C8093040D0F9416
:10571000461685E39CE00F9453158091040D882371
:1057200069F183E7E82E8FE0F82E00E010E020E03A
:105730008091040D90E0A0E0B0E0002E04C0B6958A
:10574000A795979587950A94D2F780FF0EC0DD2420
:10575000D394D20E222319F08CE20E94103BF70161
:10576000859194910F9453152D2D0F5F1F4F32E0AB
:10577000E30EF11C05301105D9F690CD81E39CE0D4
:105780008BCD1092AC1710924202ADC741E060E0A1
:1057900070E08CE39CE00F945A19A5C783E50E9442
:1057A000B0BE882371F00E9430BC282F30E02D332A
:1057B00031051CF48093000296C78CE380930002AD
:1057C00092C70F9446164091000250E060E070E0EE
:1057D0008AE49CE00F94F6158AE00E94103B83C790
:1057E0008091040D83FD7FC783E50E94B0BE8823AE
:1057F00009F479C70E9458BC0F94CC616C387105CC
:105800000CF48B011093C9140093C8140F9408036F
:105810006AC783E50E94B0BE882309F464C70E946A
:1058200030BC182F90E0CD970CF01CE31093B2031E
:105830000E94C9EC6B017C01212F30E0A8EEB3E09F
:105840000F94B65FC60ED71EE81EF91EC092AE03B7
:10585000D092AF03E092B003F092B10344C70E942C
:105860007F6841C78091B7038F7D80618093B703C4
:105870003AC78091B7038F7E80628093B70333C7A6
:105880000E94BA8930C783E50E948FBC882309F43F
:105890002AC70E9458BC20E030E04AE754E40F9445
:1058A00099590F94D3616093B3037093B4038093B9
:1058B000B5039093B60317C70E94EB5F87FD13C72C
:1058C00090914D1894FD04C090914F1897FF0AC015
:1058D00015E9C12E12E0D12E05E0E02E0DE0F02EEC
:1058E00010E009C090915018937091F7682F81E0F3
:1058F0000E943A8AF8C6D6018D916D010E94B0BE11
:10590000882309F46DC0133009F063C00E9458BCAD
:105910004B015C0120E030E040EA51E40F94335940
:1059200087FF4EC0A50194016091250D7091260D51
:105930008091270D9091280D0F945A612B013C0105
:105940009B01AC016091B8077091B9078091BA07CB
:105950009091BB070F9499596093B8077093B9075A
:105960008093BA079093BB07A30192016091350D14
:105970007091360D8091370D9091380D0F94995993
:105980006093350D7093360D8093370D9093380DDD
:105990006091C8077091C9078091CA079091CB07A1
:1059A0000F943859A30192010F9499590F94D36120
:1059B0006093C8077093C9078093CA079093CB0779
:1059C0008092250D9092260DA092270DB092280D61
:1059D00007C00E9458BCF701648B758B868B978B30
:1059E0001F5FF4E0EF0EF11C143009F084CF0E9429
:1059F00088B279C60E94ACB20E940AA774C687E832
:105A00009DE00F94531560E087E79DE00F940149F6
:105A100060E082E69DE00F94014961E085EC9AE246
:105A20000F94014961E087E59DE00F94014961E031
:105A300087E49DE00F94014960E08EE39DE00F94C0
:105A4000014961E084E39DE00F94014961E08AE24D
:105A50009DE00F94014961E082E29DE00F940149CD
:105A600061E084E19DE00F94014960E086E09DE003
:105A70000F94014960E087EF9CE00F94014960E0DA
:105A800089EE9CE00F94014960E083ED9CE00F9467
:105A9000014960E082EC9CE00F94014960E083EBF7
:105AA0009CE00F94014960E08EE99CE00F9401496D
:105AB00061E08BE89CE00F94014960E08EE79CE098
:105AC0000F94014960E08AE69CE00F9401490BC6FF
:105AD0008091471890914818009709F49FCBDC01FA
