:100000000C947C220C94AD220C94AD220C94AD2265
:100010000C94AD220C94AD220C94AD220C94AD2224
:100020000C94AD220D94E3420D94E3420D94E3420F
:100030000C94AD220C94AD220C94AD220C94AD2204
:100040000C94AD220C9446A50C94AD220C94AD22D8
:100050000C94AD220C94AD220C9422D00D94C54486
:100060000C94AD220C944B460C9441460C94AD225A
:100070000C94AD220C94AD220C94AD220C94AD22C4
:100080000C94AD220C94AD220C94AD220C94AD22B4
:100090000C9428E90C94FEE80C94AD220C94AD224B
:1000A0000C94AD220C94AD220C94AD220C94AD2294
:1000B0000C94AD220C94AD220C94AD220C94AD2284
:1000C0000C94AD220C94AD220C94AD220C94AD2274
:1000D0000C94AD220C94AD220C94AD220C94AD2264
:1000E0000C94AD22FE4704480F481A482548304872
:1000F0003B4846487A487A487A487A48514899486D
:10010000A548B648C748D848E948FA480B49424983
:10011000424942494249194961496D497E498F49DD
:10012000A049B149C249D3490A4A0A4A0A4A0A4A75
:10013000E149294A324A414A4C4A574A624A6D4A81
:10014000774AA54AA54AA54AA54A7F4AD34A9A4B67
:10015000D94AE34AED4AF74A0D4B1A4B9A4B274BC3
:100160009A4B354B9A4B3D4B474B9A4B9A4B5B4BBB
:10017000654B6D4B774B814B904BB94BB34CC24B9E
:10018000CF4BDC4BE94B024C124CB34C224CB34CE2
:10019000334CB34C3E4C4E4CB34CB34C654C724C50
:1001A0007D4C8A4C974CA94CD24CCC4DDB4CE84C46
:1001B000F54C024D1B4D2B4DCC4D3B4DCC4D4C4D7C
:1001C000CC4D574D674DCC4DCC4D7E4D8B4D964D06
:1001D000A34DB04DC24DEB4DA34EF14DF94D014E27
:1001E000094E1F4E2A4EA34E354EA34E414EA34EEE
:1001F000494E564EA34EA34E6D4E754E7D4E854EC6
:100200008D4E9C4EFD923C917591399375917591EF
:1002100075917591759175917591759175917591AE
:10022000759175917591759175917591759175919E
:10023000759175917591759175917591759175918E
:1002400033937591759175917591759175917591BE
:1002500075910C93759175917591759175917591D5
:10026000759175917591759150937291B6032603AE
:1002700048025603A402660330043604C003240473
:10028000F602E4014604860450044403EC01E4024F
:10029000D20256024C044C04CA044C0470032602D9
:1002A000F201DE027403BA024E04F403B4048402C1
:1002B0007A02D204D2049A02D20434021004300327
:1002C0009004A6025C020003DA01FA037402E20160
:1002D000D602D6025204D602D6014E037803720229
:1002E0002E03CA036204E8022A046003920478021F
:1002F0007802CE047802EC0366029403FC016804E1
:10030000380324021003C8020204E6024002C803B4
:10031000640222031603DA03C802CC043E0234044A
:10032000CA01BA031A0380048A02AC026803640497
:10033000CC02BC036002300294026A02AC025A0290
:1003400064031202084AD73B3BCE016E84BCBFFD5A
:10035000C12F3D6C74319ABD56833DDA3D00C77F95
:1003600011BED9E4BB4C3E916BAAAABE000000802E
:100370003F05A84CCDB2D44EB93836A9020C50B9BD
:10038000918688083CA6AAAA2ABE000000803F00E9
:100390000D94C72D0D94DF430C940D960D94820D92
:1003A0000C943E4C0C94564E0C9465960D945F3A0A
:1003B0000C94FE8F0D94463A0C94774A0C94C878AE
:1003C0000C940B490D94533A0D94BD100C94B94BF9
:1003D0000C9430480C944C7D0D9476390C94D59047
:1003E0000C941DC40D949A390C94724C0C94A3EB8C
:1003F0000C94B6480C940F480D94F4410C94C8909A
:100400000D94720D0C9401900C944F8F0C945B9092
:100410000C94A34D0C94294A0C947E4D0C94324AB2
:100420000C949FC90D946C440D944E0D0D94C22DE7
:100430000C94964D0C9486C40C94AD900D94620D62
:100440000C944E4C0C94A34E0D94EA410D949539A6
:100450000C94C9590C94638F0C94ED4A0D94790D4A
:100460000D9435440C94FE470D94F7390C94F54CDB
:100470000C943C910C94547D0D94E80E0D942542FF
:100480000D9405420C94E84C0C94974C0C94B1C517
:100490000D94AB100C94347D0C94A1C90C94219054
:1004A0000D946A0D0C9497C50C948FE80D948339C4
:1004B0000C94D24C0D9458440D94323A0C94AFEBFA
:1004C0000D942B440C9464560D940D420D94CC3A2B
:1004D0000C9404900D944E440D9456350C94CB59C5
:1004E0000C94026F0D948E3A0D944E3A0C948CC974
:1004F0000D94D63A0D94EB390C94A94C0C94BB8F07
:100500000D94560D0C9490900D94E6390C94D848A7
:100510000C94BF6F0D94FD430C9439930C947FEBB6
:100520000C94B5EB0C947D4E0D9444440C94124CF9
:100530000C940D4B0D94F2390C9466980C9401EBCD
:100540000C94BA900C948F490D94AE100D942D3AE2
:100550000C94014E0C9446480D9476440C94494EEC
:100560000C94274B0C9465980C94E3950C94754E61
:100570000C943D4B0D94CA390C94F5780C94F14DC4
:100580000C9472900C943B4D0C94D34A0C94C190F3
:100590000D942E420C94E34A0D9417440C9428E8D1
:1005A0000C9470700D947E390C947A480D946F3AC7
:1005B0000C944AC40C9484720C94904B0D94BF39E3
:1005C0000C94D7950C94EB4D0D9478390D94FF4114
:1005D0000D94AD3A0C94EF950C94674D0C94414EEC
:1005E0000C9461490C9473C90C94354E0D94BA1057
:1005F0000C94B16F0C946D490C94907F0C94DB4C6F
:100600000D94403A0C946EE90C94425E0C94094EA1
:100610000C941F4E0C94778F0C942E7D0C94354BBC
:100620000D94F0410C9407960C9404480D941742D5
:100630000D9460280D94E9430D94A24B0D946E0D1A
:100640000C94A86F0D9413420C940ECC0D94A8102A
:100650000D94AD280D94CC2D0C94F74A0D94943A3A
:100660000D94023A0D945E0D0C944C4A0C94A371B7
:100670000D94E6410D94520D0D94DF2D0C94574DC1
:100680000C94EB780D94DA280D9470390C941B4D72
:100690000C9434EA0C9489EB0C9475910D94653AA2
:1006A0000C94DD950C9419960C9401960D94C81039
:1006B0000C945B4B0D94FC280C94654C0C94E77BDC
:1006C0000D94B53A0D94660D0D9462440D94B110DD
:1006D0000D9407440C94B1490C94B34C0D945B11E8
:1006E0000D948F390C94B96F0D94C5390C9463E94E
:1006F0000D946A3A0C94C2490C94CC4D0C94CF8F53
:100700000D94D5290C9433930C94774B0C947291DF
:100710000C94DCE80D943A290C942A4E0C94C748AA
:100720000C948B8F0C9425480D94D13A0C94BE9464
:100730000C949A4B0D94170A0C94C24D0C9475E8C6
:100740000C943B8F0C94998F0C94A54A0C9413969F
:100750000C9450930C94A78F0C94A9EB0C94CF4B52
:100760000D94C4280C940C930C94B04D0D94C510AA
:100770000C94137A0D94E4430D9421440C94624A32
:100780000D94B7100C94224C0C946D4B0C949DC995
:100790000D9409420D94993A0D9484200C946D4A5D
:1007A0000C9408790C94654B0C9442490C94334C8E
:1007B0000C94D3490D941B420C94C7590C94CEC48D
:1007C0000C9471E90C943C7D0C94FB950D942611CE
:1007D0000C943E900C940A4A0D94C63A0C94CD5F4A
:1007E0000C9468E90C945A6F0D94DE390C94FCEA71
:1007F0000D947C0D0D94483A0C94E9480C94F94DF5
:100800000C9406EB0D94FB410C943B480C94024C69
:100810000C9419490C94447D0D947F0D0C946D4EED
:100820000D94FD390C94414A0C947D4C0C9461E874
:100830000C949C4E0C940BEB0C94DC4B0C94FD92A2
:100840000C949BC90C94A5480D94D3100D94820B65
:100850000C9415710D94AF3A0C94854E0C94E99557
:100860000D94B4100C944CA40D9429420D94C01016
:100870000D94760D0C94BBEB0D9477350C94A04938
:100880000C94E1490C94EB8F0D94850D0D94573920
:100890000D94844B0C941A4B0D949F390D94D839B8
:1008A0000D9462390D945A3A0C9499480C9479ED50
:1008B0000C94CF590C94814B0C941A480C94E94B2E
:1008C0000C942E740D94A73A0D940F440D9478292E
:1008D0000D94F7410C94574A0C94D94A0C943896CD
:1008E0000C945EE90D945A0D0C94107B0C945148B5
:1008F0000C94F8780C94DD8F0C947F4A0C94D9EE0C
:100900000D94F3430C946CC40C948D4E0D945D398E
:100910000C94F5950C94474B0C94C24B0C94416F7E
:100920000D94273A0D94BA3A0C942B4D0C944C4DDF
:100930000C9484EB0D941E290C94287D0C948E76D7
:100940000C9452E80C94E35C0C94F0780C94CD5920
:100950000D94A5280D94D52D0C94FA480C948A4C2E
:100960000C94258F0C9469980D94E0390C94F7EA57
:100970000C9455C40D94EC350C94BAC70C947E4974
:100980000C94024D0D9432110C9428580C94C95FAC
:100990000C94A3C90D948A390D9421420D94C13A47
:1009A0000C948B4D0D94073A4E414E494E49545983
:1009B000494E46CDCCCC3D0AD7233C17B7D138772A
:1009C000CC2B329595E6241FB14F0A000020410040
:1009D00000C84200401C4620BCBE4CCA1B0E5AAE8A
:1009E000C59D7400407A10F35A00A0724E18090099
:1009F00010A5D4E80000E87648170000E40B540284
:100A00000000CA9A3B000000E1F5050000809698BE
:100A100000000040420F000000A08601000000100E
:100A20002700000000E80300000000640000000050
:100A3000000A00000000000100000000002C76D831
:100A400088DC674F0823DFC1DFAE59E1B1B796E517
:100A5000E3E453C63AE651997696E8E6C28426EB7B
:100A6000898C9B62ED407C6FFCEFBC9C9F40F2BA8E
:100A7000A56FA5F490055A2AF75C936B6CF9676D26
:100A8000C11BFCE0E40D47FEF520E6B500D0ED907B
:100A90002E0300943577050080841E080000204E48
:100AA0000A000000C80C333333330F986E128311E1
:100AB00041EF8D2114893BE65516CFFEE6DB18D1B8
:100AC000844B381BF77C1D901DA4BBE4242032848A
:100AD000725E228100C9F124ECA1E53D27434F4D10
:100AE0004D554E49434154494F4E00445259525579
:100AF0004E004552524F525300494E464F00454317
:100B0000484F0047322F4733206261642070617282
:100B1000616D65746572730A00536C6565702E2E85
:100B20002E004D65736820706F696E742063616E6E
:100B30006E6F74206265207265736F6C7665640AEF
:100B400000436C69636B20746F20526573756D652B
:100B50002E2E2E004E6F204D6F76652E00456E6452
:100B60002066696C65206C6973740A004265676968
:100B70006E2066696C65206C6973740A00286E6F5C
:100B80002066696C65290043757272656E74206613
:100B9000696C653A20005344207072696E74696E06
:100BA00067206279746520004E6F74205344207072
:100BB00072696E74696E670A005072696E7420748F
:100BC000696D653A20000A53746174733A2046696E
:100BD0006C616D656E7420757365643A20002C201D
:100BE0004C6F6E67657374206A6F623A2000546FB1
:100BF00074616C2074696D653A20002C204661692F
:100C00006C65643A20002C2046696E6973686564DF
:100C10003A20005072696E74733A20005374617404
:100C2000733A200045202553006F66660044454214
:100C300055473A004D3131322053687574646F77EF
:100C40006E004D31313320530042656420436F6F95
:100C50006C696E672E2E2E004265642048656174B3
:100C6000696E672E2E2E005468696E6B6572205671
:100C7000325F32323039204F46462E004348414DD4
:100C80004245525F54454D504552415455524500DE
:100C90004D4F54494F4E5F4D4F44455300544845C6
:100CA000524D414C5F50524F54454354494F4E00B2
:100CB0004155544F5245504F52545F53445F535423
:100CC000415455530050524F4D50545F535550505E
:100CD0004F525400454D455247454E43595F504190
:100CE0005253455200434153455F4C494748545F76
:100CF0004252494748544E45535300544F47474C7E
:100D0000455F4C494748545300534F46545741524E
:100D1000455F504F574552004255494C445F50453E
:100D20005243454E54004C4556454C494E475F444E
:100D3000415441005A5F50524F4245004155544F73
:100D40004C4556454C005052494E545F4A4F420064
:100D500050524F4752455353004155544F524550FE
:100D60004F52545F54454D5000564F4C554D4554CD
:100D70005249430042494E4152595F46494C455FF2
:100D80005452414E534645520053455249414C5FDF
:100D9000584F4E5F584F4646004649524D574152B4
:100DA000455F4E414D453A4D61726C696E20322E61
:100DB000302E7820284769744875622920534F5592
:100DC0005243455F434F44455F55524C3A687474F3
:100DD00070733A2F2F6769746875622E636F6D2F79
:100DE0004D61726C696E4669726D776172652F4DE7
:100DF00061726C696E2050524F544F434F4C5F5696
:100E0000455253494F4E3A312E30204D41434849C7
:100E10004E455F545950453A5468696E6B6572206F
:100E200056325F323230392045585452554445527B
:100E30005F434F554E543A3120555549443A636506
:100E40006465326132662D343161322D3437343885
:100E50002D396231322D633535633632663336379C
:100E600066660A002F2F20004D31343520533C692F
:100E70006E6465783E206F7574206F662072616EB7
:100E800067652028302D31290A00416363656C6550
:100E9000726174696F6E3A20500020466C6F773A29
:100EA000200050726F7465637465642050696E0A27
:100EB000004D424C2041646A757374205A002069C9
:100EC0003A006469730043290A0061626C6564201A
:100ED000286D696E2074656D702000436F6C64200E
:100EE00065787472756465732061726520004F6661
:100EF0006673657473204170706C69656400457237
:100F0000723A20546F6F206661722100546F6F2017
:100F10006661722066726F6D207265666572656EBD
:100F2000636520706F696E740A00454550524F4DDD
:100F3000204F4B0A002074656D7065726174757284
:100F400065207072657761726E207472696767657B
:100F50007265643A200020686F6D696E6720736562
:100F60006E73697469766974793A2000496E7661A6
:100F70006C69640A0056616C69640A004E6F205007
:100F80004C520A00504C52204578697374730A0021
:100F9000506F7765722D6C6F7373207265636F7617
:100FA0006572792000FE0AF90AF20AEB0ADD0A45A9
:100FB00072726F722077726974696E6720746F2025
:100FC000454550524F4D210A00627573793A2070A1
:100FD000617573656420666F7220696E7075740A3E
:100FE00000627573793A2070617573656420666F6D
:100FF0007220757365720A00627573793A20707297
:101000006F63657373696E670A0053544F505045A0
:10101000442E20005072696E7465722073746F7074
:101020007065642064756520746F206572726F72DC
:10103000732E2046697820746865206572726F721D
:1010400020616E6420757365204D39393920746FC5
:1010500020726573746172742E202854656D7065FA
:101060007261747572652069732072657365742E80
:1010700020536574206974206166746572207265FE
:101080007374617274696E67290A004E6F20436839
:1010900065636B73756D2077697468206C696E6524
:1010A000206E756D6265722C204C617374204C69E2
:1010B0006E653A2000636865636B73756D206D69BA
:1010C000736D617463682C204C617374204C696E7D
:1010D000653A20004C696E65204E756D6265722020
:1010E0006973206E6F74204C617374204C696E6557
:1010F000204E756D6265722B312C204C617374200B
:101100004C696E653A20004D313130004D31313738
:10111000004D333100534420726561642065727262
:101120006F720A00446F6E65207072696E74696E2A
:10113000672066696C650A002063757272656E745B
:101140002064656372656173656420746F20006D4F
:1011500041290A0020647269766572206F76657293
:1011600074656D7065726174757265207761726EF9
:10117000696E67212028004B494C4C2063617573D0
:101180006564206279204B494C4C20627574746F01
:101190006E2F70696E0A004B494C4C206361757369
:1011A000656420627920746F6F206D7563682069B3
:1011B0006E6163746976652074696D65202D2063A6
:1011C000757272656E7420636F6D6D616E643A2026
:1011D00000506C65617365205265736574005052F0
:1011E000494E5445522048414C5445440025533AF9
:1011F000202553004B494C4C45442E200050726929
:101200006E7465722068616C7465642E206B696C05
:101210006C28292063616C6C6564210A0065636831
:101220006F3A004572726F723A0066616C736500C6
:10123000747275650025301D0C282924311C0B455E
:1012400027232F1B0A4443212A193F40222B1A41EE
:101250004203380906360308020600010A4D65619B
:10126000737572656420706F696E74733A0A003525
:101270007835206D6573682E205A206F6666736519
:10128000743A2000486F74656E6420746F6F206339
:101290006F6C640A004D3630303A20546F6F204333
:1012A0006F6C6400507265737320627574746F6E36
:1012B00020746F20726573756D650A0050726573D6
:1012C0007320627574746F6E20746F20686561742A
:1012D000206E6F7A7A6C650A004C6F616400506F03
:1012E0007765722D6C6F73732066696C6520636C13
:1012F0006F7365206661696C65642E0A00506F77B4
:1013000065722D6C6F73732066696C6520777269E6
:101310007465206661696C65642E0A005772697491
:1013200065002D2D2D0A00494E56414C494420445C
:101330004154410A007072696E745F6A6F625F6542
:101340006C61707365643A20007364706F733A2047
:101350000073645F66696C656E616D653A20000AB2
:1013600020666164653A20006C6576656C696E671D
:101370003A200066616E5F73706565643A200074A0
:1013800061726765745F74656D70657261747572A2
:10139000655F6265643A20007461726765745F74AA
:1013A000656D70657261747572653A200066656579
:1013B00064726174653A2000706F736974696F6E4E
:1013C0005F73686966743A2000686F6D655F6F6669
:1013D000667365743A200063757272656E745F702F
:1013E0006F736974696F6E3A20002076616C69646E
:1013F0005F666F6F743A00204A6F62205265636FB8
:101400007665727920496E666F2E2E2E0A76616C93
:1014100069645F686561643A002568753A25303211
:10142000687500256875642025303268753A253066
:1014300032687500447269766572206572726F72E7
:1014400000636F696C2073686F72742063697263E4
:101450007569740A006F76657274656D7065726186
:10146000747572650A00206472697665722065720F
:10147000726F722064657465637465643A203078B5
:10148000006D6178002F33310009204261642072C1
:101490006573706F6E736521004C6F6164206D6DB4
:1014A00000556E6C6F6164206D6D0046696C2E2076
:1014B0004469612E004520696E206D6DC2B3002025
:1014C000082046616374002008204D6178002008E0
:1014D000204D696E004175746F74656D70005654CF
:1014E000726176204D696E00566D696E00566D61B1
:1014F00078204500566D6178205A00566D6178203D
:101500005900566D6178205800416D617820450082
:10151000416D6178205A00416D6178205900416D1C
:101520006178205800412D54726176656C00412D20
:101530005265747261637400416363656C00566543
:101540002D4A65726B00565A2D4A65726B005659CA
:101550002D4A65726B0056582D4A65726B00303DFE
:101560002E33323500313D2E313800473236204897
:10157000656174696E67204E6F7A7A6C65004732D8
:10158000362048656174696E672042656400576162
:101590006974696E6720666F722068656174757022
:1015A0002E0A004669786564204C656E6774682071
:1015B0005072696D6500446F6E65205072696D6987
:1015C0006E67004D616E75616C207072696D696E39
:1015D000672E2E2E004732362043616E63656C65A0
:1015E00064004C656176696E6720473236003F5370
:1015F000706563696669656420582C5920636F6F54
:101600007264696E617465206F7574206F66206204
:101610006F756E64732E0A003F28522965706561EC
:10162000742076616C7565206E6F7420706C6175C6
:101630007369626C653B206D75737420626520610F
:1016400074206C6561737420312E0A003F537065FD
:10165000636966696564206E6F7A7A6C652074656B
:101660006D7065726174757265206E6F7420706C38
:1016700061757369626C652E0A003F53706563691A
:10168000666965642066696C616D656E7420736956
:101690007A65206E6F7420706C61757369626C6519
:1016A0002E0A003F53706563696669656420707235
:1016B000696D65206C656E677468206E6F7420704C
:1016C0006C61757369626C652E0A003F53706563C7
:1016D0006966696564206E6F7A7A6C652073697AD1
:1016E00065206E6F7420706C61757369626C652E15
:1016F0000A003F52657472616374696F6E204D75A4
:101700006C7469706C696572206D757374206265A4
:10171000207370656369666965642E0A003F5370C3
:101720006563696669656420526574726163746992
:101730006F6E204D756C7469706C696572206E6F88
:101740007420706C61757369626C652E0A003F537A
:101750007065636966696564206C6179657220688B
:101760006569676874206E6F7420706C6175736949
:10177000626C652E0A0043292E0A003F5370656390
:101780006966696564206265642074656D70657260
:101790006174757265206E6F7420706C6175736909
:1017A000626C65202834302D004732362073746116
:1017B0007274696E672E2E2E0A004F75746167650C
:1017C000205265636F7665727900436F6E66696754
:1017D00075726174696F6E003F0043616E63656C82
:1017E00000313530004245443A486973656E7320D4
:1017F000333935300052756E6177617920576174E5
:1018000063683A204F4E004D61782054656D70003A
:10181000323735004D696E2054656D700045313AA0
:1018200020486973656E7320333935300050535545
:101830000047656E657269630050726F746F636F05
:101840006C00312E3000426175640032353030302A
:10185000300052616D626F004D657368204C657693
:10186000656C696E670045787472756465727300A3
:101870005468696E6B65722056325F3232303900BF
:10188000323031392D31322D3031005072696E7461
:10189000657220537461747300546865726D697366
:1018A000746F727300426F61726420496E666F00DC
:1018B0005072696E74657220496E666F004D3130EA
:1018C00030300053746F70205072696E740052652E
:1018D00073756D65205072696E740053746F70007B
:1018E0004D3231004368616E6765204D6564696102
:1018F0000041626F7574205072696E746572005495
:10190000756E65004E6F204D6564696100496E66B5
:101910006F2053637265656E00537461727420505A
:1019200072696E740043616E6E6F7420656E7465CB
:1019300072207375626469723A2000022E2E004F85
:101940006666004F6E00544D43204472697665729E
:10195000730046616E205370656564203D004265EA
:1019600064205A004D61696E00537465616C74683F
:1019700043686F7020456E61626C656400537465E6
:101980007070696E67204D6F64650053656E736F8C
:10199000726C65737320486F6D696E67004472697D
:1019A0007665722043757272656E7400436F6E7453
:1019B000726F6C004261627973746570205A0046E0
:1019C0006C6F77002062797465733B2063726320CB
:1019D0000053657474696E67732053746F72656425
:1019E000202800454550524F4D2064617461736951
:1019F0007A65206572726F722E0A002073746F729E
:101A000065642073657474696E677320726574729F
:101A10006965766564202800202863616C63756CB5
:101A20006174656429210A0020213D20004545504C
:101A3000524F4D20435243206D69736D617463684A
:101A4000202D202873746F726564292000496E640C
:101A500065783A2000204D61726C696E3D563734CE
:101A6000290A00454550524F4D2076657273696FC3
:101A70006E206D69736D617463682028454550520E
:101A80004F4D3D0000009B4300808E430000C84343
:101A9000656E7175657565696E672022006F6B00F4
:101AA000526573656E643A20002569792025696462
:101AB000202569682025696D2025697300236465E8
:101AC00066696E652044454641554C545F004B6441
:101AD00020004B6920004B70200050494420417584
:101AE000746F74756E652066696E697368656421CC
:101AF0002050757420746865206C617374204B707D
:101B00002C204B6920616E64204B6420636F6E73E0
:101B100074616E74732066726F6D2062656C6F778E
:101B200020696E746F20436F6E66696775726174A9
:101B3000696F6E2E680A00504944204175746F74B5
:101B4000756E65206661696C6564212074696D65D8
:101B50006F75740A000A20436C61737369632050C7
:101B60004944200A00204B643A2000204B693A2067
:101B700000204B703A20000A204E6F206F7665726D
:101B800073686F6F740A002054753A2000204B75FB
:101B90003A2000206D61783A2000206D696E3A206D
:101BA0000020643A200020626961733A20005049A5
:101BB00044204175746F74756E652073746172741E
:101BC0000A00504944204175746F74756E65206633
:101BD00061696C6564212054656D7065726174750E
:101BE000726520746F6F20686967680A0050494405
:101BF000204175746F74756E65206661696C6564EB
:101C00002120426164206578747275646572206E6B
:101C1000756D6265720A004572723A207574663895
:101C200020666F6E74206E6F7420696E69746961CE
:101C30006C697A65642E00000C0D00FE0702260315
:101C4000BC017FFE08FE08FE05080806000040F003
:101C5000C88888987810050808060000C0F88888A9
:101C6000888888F80505050600012030F830200531
:101C700008080600002070F820202020E00509094F
:101C80000600FF2070A8A8B8888870200506060600
:101C90000001E08CEA8C8A0A0509090600FFF8A811
:101CA0008888888888A8F8050A0A0600FE2050500F
:101CB000505088A8A8887003030306000340A04082
:101CC000FFFFFFFFFFFFFFFFFFFFFFFFFFFFFFFF24
:101CD000FFFFFFFFFFFF0000000605FF01070706EB
:101CE000020080808080800080030303060105A03D
:101CF000A0A005060606000050F85050F85005094F
:101D0000090600FF2070A8A07028A870200507070A
:101D1000060000C8C8102040989805070706000074
:101D200040A0A040A89068010303060205808080BF
:101D30000309090601FF20404080808040402003C5
:101D400009090601FF80404020202040408005070F
:101D50000706000020A8702070A8200505050600D1
:101D6000012020F820200203030601FFC040800567
:101D70000101060003F8020202060100C0C00507C7
:101D800007060000081010204040800507070600E5
:101D900000708898A8C8887003070706010040C033
:101DA00040404040E005070706000070880810200A
:101DB00040F8050707060000F8081030088870058D
:101DC000070706000010305090F8101005070706AE
:101DD0000000F880F008088870050707060000304A
:101DE0004080F0888870050707060000F80810108A
:101DF00020202005070706000070888870888870FA
:101E0000050707060000708888780810600205053D
:101E1000060100C0C000C0C00206060601FFC0C027
:101E200000C04080030505060101204080402005D8
:101E30000303060002F800F80305050601018040CF
:101E40002040800507070600007088102020002031
:101E50000507070600007088B8A8B8807005070756
:101E6000060000708888F888888805070706000043
:101E7000F04848704848F005070706000070888061
:101E800080808870050707060000F04848484848E9
:101E9000F0050707060000F88080F08080F805074D
:101EA00007060000F88080F08080800507070600A4
:101EB0000070888080988870050707060000888871
:101EC00088F8888888030707060100E04040404002
:101ED00040E005070706000038101010109060055C
:101EE00007070600008890A0C0A090880507070695
:101EF0000000808080808080F80507070600008849
:101F0000D8A8888888880507070600008888C8A898
:101F10009888880507070600007088888888887078
:101F2000050707060000F08888F080808005070715
:101F300006000070888888A89068050707060000DA
:101F4000F08888F0A0908805070706000070888058
:101F500070088870050707060000F8202020202060
:101F6000200507070600008888888888887005078C
:101F7000070600008888888850502005070706005B
:101F80000088888888A8A850050707060000888868
:101F900050205088880507070600008888502020B8
:101FA0002020050707060000F80810204080F803ED
:101FB00009090601FFE080808080808080E00507BD
:101FC00007060000804040201010080309090601A0
:101FD000FFE020202020202020E00503030600054C
:101FE0002050880501010600FEF8030303060105E1
:101FF00080402005050506000070087888780507F0
:10200000070600008080F0888888F0050505060036
:10201000007080808870050707060000080878882F
:102020008888780505050600007088F0807005072F
:1020300007060000304840E0404040050707060022
:10204000FE70888888780870050707060000808081
:10205000F0888888880307070601004000C04040D8
:1020600040E00409090601FE100030101010109025
:102070006005070706000080808890E090880307CD
:1020800007060100C04040404040E005050506004D
:1020900000D0A8A8A8A8050505060000B0C8888833
:1020A0008805050506000070888888700507070602
:1020B00000FEF0888888F080800507070600FE781B
:1020C000888888780808050505060000B0C8808063
:1020D0008005050506000078807008F005070706F2
:1020E00000002020F82020201805050506000088A3
:1020F00088889868050505060000888888502005AE
:1021000005050600008888A8A850050505060000FA
:1021100088502050880507070600FE8888885020D0
:102120004080050505060000F8102040F803090965
:102130000601FF2040404080404040200109090640
:1021400002FF8080808080808080800309090601F2
:10215000FF804040402040404080050303060002CD
:1021600048A890FF24F4D43050C38E20C2A2401758
:10217000828B7011127A910D816CD90AA861E108E5
:10218000C7586607615143061E4B5D05C145A7044C
:102190001A411104093D9803713931034036DB02BD
:1021A00065339102D4305402802E1D02632CEE015F
:1021B000752AC501B028A001102781018F2564016F
:1021C0002B244B01E0223401AC211F018D200D0195
:1021D000801FFC00841EED00971DDF00B81CD2009C
:1021E000E61BC600201BBC00641AB200B219A8008E
:1021F0000A19A0006A189900D117910040178B00A6
:10220000B516840031167E00B31579003A157300B7
:10221000C7146F0058146A00EE1366008813630039
:1022200025135E00C7125B006C1257001512540094
:10223000C111510070114F0021114B00D6104900FF
:102240008D1047004610440002104200C00F4000AD
:10225000800F3E00420F3C00060F3B00CB0E3800C3
:10226000930E37005C0E3500270E3400F30D32005C
:10227000C10D3100900D3000600D2E00320D2D008B
:10228000050D2C00D90C2B00AE0C2900850C290063
:102290005C0C2700350C27000E0C2600E80B2400F0
:1022A000C40B2400A00B23007D0B23005A0B21003C
:1022B000390B2100180B2000F80A1F00D90A1E0054
:1022C000BB0A1E009D0A1D00800A1D00630A1C0037
:1022D000470A1B002C0A1B00110A1A00F7091A00F2
:1022E000DD091900C4091900AB091900920917008A
:1022F0007B091800630917004C09160036091600FF
:10230000200916000A091500F5081500E008140058
:10231000CC081400B8081400A40814009008130096
:102320007D0812006B0813005808120046081200BE
:1023300034081100230811001208110001081100CF
:10234000F0071000E0071000D0071000C0071000D1
:10235000B0070F00A107100091070E0083070F00C0
:1023600074070F0065070E0057070E0049070E009F
:102370003B070D002E070E0020070D0013070D0070
:1023800006070D00F9060C00ED060D00E0060C0036
:10239000D4060C00C8060C00BC060C00B0060C00ED
:1023A000A4060B0099060C008D060B0082060B009C
:1023B00077060B006C060B0061060A0057060B003F
:1023C0004C060A0042060A0038060A002E060A00D9
:1023D00024060A001A060A001006090007060A0069
:1023E000FD050900F4050900EB050900E2050900F7
:1023F000D9050900D0050900C7050900BE05090077
:10240000B5050800AD050800A50509009C050800F4
:10241000940508008C050800840508007C05080068
:10242000740508006C050700650508005D050700D8
:10243000560508004E05070047050700400508003F
:1024400038050700310507002A05070023050700A6
:102450001C050600160507000F0507000805060005
:1024600002050700FB040600F5040700EE04060061
:10247000E8040600E2040700DB040600D5040600B9
:10248000CF040600C9040600C3040600BD0406000C
:10249000B7040600B1040500AC040600A60406005B
:1024A000A00405009B0406009504050090040600A6
:1024B0008A04050085040500800406007A040500EE
:1024C00075040500700405006B0405006604050032
:1024D000610405005C040500570405005204050072
:1024E0004D04050048040500430405003E040400B3
:1024F0003A04050035040500300404002C040500EE
:1025000027040400230405001E0404001A04040028
:1025100016040500110404000D040400090405005C
:102520000404040000040400FC030400F803040095
:10253000F4030400F0030400EC030400E8030400C7
:10254000E4030400E0030400DC030400D8030400F7
:10255000D4030400D0030400CC030400C803030028
:10256000C503030024F404D9201BC40C5C0E98049A
:10257000C4095F0265077101F405F900FB04B300AB
:1025800048048700C1036900580355000303450050
:10259000BE023A008402310053022A0029022500BB
:1025A00004022000E4011C00C8011900AF0117005B
:1025B00098011400840113007101100061011000E2
:1025C00051010E0043010D0036010B002B010B00E1
:1025D00020010B00150109000C010900030108008E
:1025E000FB000800F3000800EB000700E400060011
:1025F000DE000600D8000600D2000600CC00050070
:10260000C7000500C2000500BD000400B9000400B9
:10261000B5000400B1000400AD000400A9000400EE
:10262000A5000300A20003009F0004009B0003001C
:10263000980003009500020093000300900003003F
:102640008D0002008B00030088000200860002005B
:1026500084000300810002007F0002007D00020070
:102660007B00020079000200770001007600020082
:102670007400020072000100710002006F0002008D
:102680006D0001006C0002006A0001006900020098
:10269000670001006600010065000100640002009F
:1026A0006200010061000100600001005F000200A3
:1026B0005D0001005C0001005B0001005A000100A8
:1026C00059000100580001005700010056000100A8
:1026D00055000100540001005300000053000100A8
:1026E0005200010051000100500001004F000100A4
:1026F0004E0000004E0001004D0001004C000100A2
:102700004B0000004B0001004A000100490001009D
:10271000480000004800010047000100460000009A
:102720004600010045000000450001004400010092
:10273000430000004300010042000000420001008D
:102740004100000041000100400001003F00000086
:102750003F0001003E0000003E0001003D0000007F
:102760003D0001003C0000003C0000003C00010076
:102770003B0000003B0001003A0000003A0001006D
:102780003900000039000100380000003800000066
:10279000380001003700000037000100360000005B
:1027A0003600000036000100350000003500000052
:1027B0003500010034000000340000003400010046
:1027C000330000003300000033000100320000003D
:1027D0003200000032000100310000003100000032
:1027E0003100010030000000300000003000010026
:1027F0002F0000002F0000002F0000002F0001001C
:102800002E0000002E0000002E0001002D00000010
:102810002D0000002D0000002D0001002C00000004
:102820002C0000002C0000002C0001002B000000F8
:102830002B0000002B0000002B0001002A000000EC
:102840002A0000002A0000002A00010029000000E0
:1028500029000000290000002900000029000100D3
:1028600028000000280000002800000028000000C8
:1028700028000100270000002700000027000000BA
:1028800027000000270001002600000026000000AD
:1028900026000000260000002600010025000000A0
:1028A0002500000025000000250000002500000094
:1028B0002500010024000000240000002400000086
:1028C0002400000024000100230000002300000079
:1028D000230000002300000023000000230000006C
:1028E000230001002200000022000000220000005E
:1028F0002200000022000000220001002100000050
:102900002100000021000000210000002100000043
:102910002100000021000100200000002000000034
:102920002000000020000000200000002000000027
:1029300020000000200001001F0000001F00000018
:102940001F0000001F0000001F0000001F0000000B
:102950001F0001001E0000001E0000001E000000FD
:102960001E000000043700001E290000511B00005B
:102970005810000010090000CC040000780200008C
:1029800041010000496E76616C696420657874725B
:10299000756465720A007C3C3E5E2B3D3F2F5B5D9B
:1029A0003B2C2A225C00737465616C746843686F09
:1029B00070004D32342053256C642054256C640023
:1029C0004739322E3920452573004731204625648A
:1029D000004739322E39205A2573004731205A30AA
:1029E0002046323030004731205825732059257356
:1029F000204633303030004D3432302053256920AA
:102A00005A2573004D3130362050256920532569F1
:102A1000004739322E392045305A300A47315A3270
:102A20000A47323852305859004D31303920532539
:102A300069004D31393020532569004D3230302046
:102A4000442573004D343230205330205A3000205A
:102A5000506F7765722D4C6F7373205265636F767C
:102A600065727920446174610A00496E76616C690F
:102A700064004E6F00617869733A70776D5F7363BD
:102A8000616C652F637572725F7363616C652F6D26
:102A90006563685F6C6F61647C666C6167737C778B
:102AA00061726E636F756E740A004452565F5354C0
:102AB00041545553090050574D5F5343414C45090C
:102AC0000050574D434F4E460900434F4F4C434F24
:102AD0004E46090043484F50434F4E460900544864
:102AE00049474809090054434F4F4C544852530931
:102AF000005450574D5448525309005453544550B4
:102B000009090054504F574552444F574E09004948
:102B10004F494E0909004753544154090900494897
:102B20004F4C445F4952554E090047434F4E4609AA
:102B300009007370726561644379636C6500206499
:102B40007269766572206D6F64653A09002064725F
:102B5000697665722063757272656E743A20002022
:102B60007072657761726E20666C616720636C6558
:102B7000617265640A0020496E76616C6964206543
:102B80007874727564657220004573746570732F74
:102B90006D6D005A73746570732F6D6D0059737489
:102BA0006570732F6D6D005873746570732F6D6D44
:102BB00000496E6974004D34323800496E69746999
:102BC000616C697A6520454550524F4D00537465DC
:102BD00070732F6D6D00416363656C65726174691C
:102BE0006F6E0056656C6F6369747900536574206D
:102BF000486F6D65204F666673657473004C65762B
:102C0000656C696E6720446F6E6521004E6578744F
:102C100020506F696E74002569202F2025750047AC
:102C2000323920533100436C69636B20746F20424A
:102C30006567696E00486F6D696E672058595A0064
:102C40004661646520486569676874004C6576650F
:102C50006C204265640046616E20537065656400B7
:102C6000453100626564002C2073797374656D20B2
:102C700073746F7070656421204865617465725F5C
:102C800049443A200048656174696E67204661696D
:102C90006C65640048656174696E67206661696C83
:102CA000656400202D20496E76616C69642065782A
:102CB000747275646572206E756D62657220210A8A
:102CC00000544845524D414C2052554E41574159B0
:102CD00000546865726D616C2052756E6177617920
:102CE000004572723A204D415854454D50004D41B7
:102CF0005854454D50207472696767657265640069
:102D00004572723A204D494E54454D50004D494E42
:102D100054454D5020747269676765726564004D53
:102D2000383420582059205A204500202F002042B6
:102D3000403A0020403A0020573A000040012C0160
:102D400073012201AB011801F3010E0148020401D5
:102D5000AC02FA002A03F000C303E6008004DC00A2
:102D60006D05D2006C06C800C707BE007009B4002C
:102D70006D0BAA00CB0DA000CF138C00F21B7800C6
:102D8000E9246400142E50009C353C00B83A280019
:102D9000A03D14000B3F00006F70656E20666169F6
:102DA0006C65642C2046696C653A20004D6F766531
:102DB000205A005072696E742066726F6D204D65E6
:102DC000646961004D6F76652025736D6D004D6FF0
:102DD000766520302E316D6D004D6F766520316D3A
:102DE0006D004D6F76652031306D6D004D6F7665ED
:102DF000204178697300486F74656E6420746F6F4A
:102E000020636F6C64004578747275646572004D60
:102E10006F76652059004D6F7665205800436861D4
:102E20006E67652046696C616D656E7400556E6CE9
:102E30006F61642046696C616D656E74004C6F61F2
:102E4000642046696C616D656E74005072656865DA
:102E5000617420414253005072656865617420506E
:102E60004C41005072656865617420437573746FDE
:102E70006D004261636B00486F6D6520257325739B
:102E8000257320466972737400496E7365727420ED
:102E900066696C616D656E7420616E642070726528
:102EA000737320627574746F6E0A00000000000076
:102EB0000000000000000000000000000000000012
:102EC0000000000000000000000000000000000002
:102ED00000000000000000000000000000000000F2
:102EE00000000000000000000000000000000000E2
:102EF00000000000000000000000000000000000D2
:102F000000000000000000000000000000000000C1
:102F100000000000000000000000000000000000B1
:102F20000000000000000000000000007FFF0FFF15
:102F30000000001F8060030FFFE000007FFF1FFF05
:102F40008700383FC070030FFFE000007FFE1FFFC7
:102F5000C300387FE078030FFFE000000000180195
:102F6000C30030F0F07803000000000000001800FB
:102F7000E30030E0787C030000000000000018004F
:102F8000638071C0386E030000000000000018006C
:102F9000E380718018670300000000000000180043
:102FA000C1E1E1801C670300000000007FFE1FFFFD
:102FB000C1FFE3801C630307FFC000007FFF1FFF0A
:102FC000C07F83801C60030FFFE000007FFF1FFFB6
:102FD000803F03801C60030FFFE000000000180129
:102FE000C00C03801C6033000000000000001800CB
:102FF000C00C018018603B000000000000001800B9
:10300000C00C01C018603B00000000000000180068
:10301000C00C01C038601F00000000000000180054
:10302000C00C00E070600F000000000000001800FD
:10303000C00C0079F0600F00000000007FFF180056
:10304000C00C007FE060070FFFE000007FFF18006A
:10305000C00C001F8060030FFFE000007FFE08002F
:10306000C004000F0020010FFFE00000000000007E
:103070000000000000000000000000000000000050
:103080000000000000000000000000000000000040
:103090000000000000000000000000000000000030
:1030A0000000000000000000000000000000000020
:1030B0000000000000000000000000000000000010
:1030C0000000000000000000000000000000000000
:1030D00000000000000000000000000000000000F0
:1030E00000000000000000000000000000000000E0
:1030F00000000000000000000000000000000000D0
:1031000000000000000000000000000000000C03B0
:10311000000400000000000000000000003FEC037D
:103120000004000000C067C00000000000020C00A6
:1031300000040000004044600000000000020C0099
:10314000000400000060C0600000000000020DE309
:10315000378471E36020C0200000000000020E33BD
:1031600038C4C333803080600000000000020C339C
:1031700030C48613003180400000000000020C3390
:1031800030C50613001101C00000000000020C331E
:1031900030C707F3001903800000000000020C3361
:1031A00030C58403001B06000000000000020C3341
:1031B00030C4C603000A0C000000000000020C33FB
:1031C00030C46313000E0C000000000000020C333A
:1031D00030C431E3000E0FE00000000000000000EA
:1031E00000000000000000000000000000000000DF
:1031F00000000000000000000000000000000000CF
:1032000000000000000000000000000000000000BE
:1032100000000000000000000000000000000000AE
:10322000000000000000000000000000000000009E
:10323000000000000000000000000000000000008E
:10324000000000000000000000000000000000007E
:10325000000000000000000000000000000000006E
:10326000000000000000000000000000000000005E
:10327000000000000000000000000000000000004E
:10328000000000000000000000000000000000003E
:10329000000000000000000000000000000000002E
:1032A000000000000000000000000001FFFFFFFF21
:1032B000FFFFFFFFFFFFFFFFFF0FFFFFFFFFFFFF0E
:1032C000FFFFFFFFFFFFFF1E0000000000000000E7
:1032D000000007FFFF3800000000000000000000B1
:1032E00003FFFF700000000000000000000001FF6D
:1032F000FF600000000000000000000000FFFF6011
:1033000000000000000000000000007FFFC000007F
:103310000000000000007800003FFFC00FC0FC006C
:10332000000000007818001FFFC03FE1FF00000010
:103330000000783C000FFFC07FF3FF80000000001A
:10334000783C0007FFC0FFFFFFC000000000783C92
:103350000003FFC1F87F87E0000000007800000153
:10336000FFC1F03F03E00000000078000000FFC153
:10337000E01E01E01F0003E0783C03F07FC1E01E87
:1033800001E07FC00FF8783C07FC3FC1E01E01E17F
:10339000FFE01FFC783C0FFE1FC1E01E01E3FFF0C1
:1033A0003FFE783C1FFE0FC1E01E01E3F3F83F3EF5
:1033B000783C3F3F07C1E01E01E7E0FC7C1F783C02
:1033C0003E1F07C1E01E01E7C07C7C0F783C3C0F2C
:1033D00003C1E01E01E7807C780F783C3C0F03C1FD
:1033E000E01E01E7803C7800783C3C0F03C1E01E02
:1033F00001E7803C7800783C3C0F03C1E01E01E708
:10340000803C7800783C3C0F03C1E01E01E7C03CE3
:103410007800783C3C0F03C1E01E01E3E03C7800FB
:103420007C3C3C0F03C1E01E01E3FF3FF8007FBC82
:103430003C0F03C1E01E01E1FF3FF8003FBFFC0F5E
:1034400003C1E01E01E0FF3FF8001FBFFC0F03C1F6
:10345000E01E01E07F3FF8000FBFFC0F036000009B
:1034600000000000000000000000076000000000F5
:1034700000000000000000000670000000000000D6
:103480000000000000000E380000000000000000F6
:10349000000000001C1E00000000000000000000F2
:1034A0000000780FFFFFFFFFFFFFFFFFFFFFFFFFA1
:1034B000F001FFFFFFFFFFFFFFFFFFFFFFFF80683F
:1034C0007474703A2F2F6D61726C696E66772E6F0F
:1034D000726700322E302E78004D3130303020535C
:1034E00000205049445F64543A0020643A00206947
:1034F000693A0020703A002020506C616E6E65724F
:1035000042756666657242797465733A200020469A
:10351000726565204D656D6F72793A2000436F6D5D
:1035200070696C65643A204F637420333120323007
:1035300032300A00204C61737420557064617465E8
:10354000643A20323031392D31322D3031207C2017
:10355000417574686F723A20286E6F6E652C206416
:10356000656661756C7420636F6E666967290A0011
:10357000322E302E780A004D61726C696E00205335
:103580006F6674776172652052657365740A0020F6
:103590005761746368646F672052657365740A00CD
:1035A0002042726F776E206F757420526573657458
:1035B0000A002045787465726E616C2052657365EF
:1035C000740A00506F77657255700A006175746FE8
:1035D00025632E67004732385859006572726F7242
:1035E0002077726974696E6720746F2066696C65F4
:1035F0000A00446F6E6520736176696E67206669A4
:103600006C652E0A004D323900456E6473746F701C
:10361000730025532025632025632025632025631F
:1036200000205A3A0020593A00656E6473746F7036
:1036300073206869743A20004D6F74696F6E0042A0
:103640006564204C6576656C696E670054656D70C5
:1036500065726174757265004D3834004469736138
:10366000626C652053746570706572730047323800
:10367000205A00486F6D65205A00473238205900A3
:10368000486F6D65205900473238205800486F6DEB
:1036900065205800473238004175746F20486F6DBF
:1036A00065005072656865617420504C4120456E1C
:1036B00064005072656865617420504C4120426519
:1036C0006400507265686561742041425320456E04
:1036D0006400507265686561742041425320426500
:1036E0006400436F6F6C646F776E0020746F6F209F
:1036F0006C6F6E6720657874727573696F6E207079
:10370000726576656E7465640A0020636F6C642070
:10371000657874727573696F6E2070726576656E08
:103720007465640A00220A00556E6B6E6F776E2016
:10373000636F6D6D616E643A2022004C4F570048F4
:10374000494748004F4B004572726F723A20416CF6
:103750006C200020636F6E6E656374696F6E2E2E31
:103760002E200054657374696E6720006F70656E5B
:1037700000545249474745524544007A5F6D696E8F
:1037800000795F6D696E00785F6D696E00526570DB
:103790006F7274696E6720656E6473746F702073E6
:1037A00074617475730A0020436F756E7420583A03
:1037B0000020453A00486F6D696E67204661696C6C
:1037C0006564005761726E696E673A20486F6D6973
:1037D0006E672042756D702044697669736F722040
:1037E0003C20310A00000020410000C8C100000058
:1037F00000000048420000484200008040020204ED
:10380000000000000000000000000040000096439F
:1038100000009B430000C843FFFFFF4C6F61642022
:1038200053657474696E67730053746F72652053C7
:10383000657474696E677300416476616E63656474
:103840002053657474696E677300554E4C4F414444
:103850002046494C414D454E540046494C414D454A
:103860004E54204348414E474500526573746F7271
:1038700065206661696C7361666500507265686594
:1038800061742041425320436F6E66005072656838
:1038900065617420504C4120436F6E66004D373097
:1038A0003220542564004D363030204230205425DB
:1038B00064004D373032203B2564004D37303120D5
:1038C000542564004D373032004D373031004D36CD
:1038D0003030204230005075726765206D6F726520
:1038E00000436F6E74696E756500524553554D45C2
:1038F000204F5054494F4E533A005052494E542095
:103900005041555345440020204E6F7A7A6C653AF9
:103910002000256C642E25696D00457874727564ED
:10392000656420546F74616C004C6F6E67657374CE
:10393000204A6F622054696D65003E2000546F7408
:10394000616C205072696E742074696D6500436FFC
:103950006D706C65746564005072696E7420436F9D
:10396000756E74005061726B696E672E2E2E0000AA
:10397000005761697420666F720066696C616D65DD
:103980006E74206368616E676500746F2073746184
:103990007274005761697420666F720066696C61A9
:1039A0006D656E7420756E6C6F616400004E6F7A89
:1039B0007A6C652068656174696E6700506C65613A
:1039C000736520776169742E2E2E00005072657326
:1039D0007320627574746F6E00746F206865617413
:1039E000206E6F7A7A6C650000496E736572742080
:1039F00066696C616D656E7400616E6420707265DD
:103A0000737320627574746F6E00746F20636F6ED1
:103A100074696E7565005761697420666F7200661F
:103A2000696C616D656E74206C6F6164000050722A
:103A300065737320427574746F6E00746F207265C5
:103A400073756D65207072696E74000057616974DA
:103A500020666F72207072696E7400746F207265D8
:103A600073756D652E2E2E00005761697420666F88
:103A7000720066696C616D656E7420707572676541
:103A800000002053697A653A200043616E6E6F74BE
:103A9000206F70656E2073756264697220005344F4
:103AA0002063617264206F6B0A006F70656E526FE5
:103AB0006F74206661696C65640A00766F6C756D61
:103AC000652E696E6974206661696C65640A0053CD
:103AD0004420696E6974206661696C0A004D323356
:103AE0002025730057726974696E6720746F2066B1
:103AF000696C653A200046696C652073656C656386
:103B00007465640A0046696C65206F70656E656453
:103B10003A2000667265736800646F696E67004ED4
:103B20006F772000454E4420535542524F5554491B
:103B30004E450A002220706F73002220706172656A
:103B40006E743A2200535542524F5554494E452007
:103B500043414C4C207461726765743A2200747260
:103B600079696E6720746F2063616C6C2073756275
:103B70002D67636F64652066696C6573207769746F
:103B80006820746F6F206D616E79206C6576656C4E
:103B9000732E204D4158206C6576656C2069733A10
:103BA000310A0044656C6574696F6E206661696CEA
:103BB00065642C2046696C653A200046696C652076
:103BC00064656C657465643A00506F7765722D6C3E
:103BD0006F73732066696C652064656C657465003D
:103BE0004F46460A00466164652048656967687407
:103BF00020004661696C656420746F20656E6162A7
:103C00006C6520426564204C6576656C696E670A58
:103C1000004D65736820426564204C6576656C20B4
:103C2000646174613A0A00496E76616C6964206D62
:103C30006573682E0A00206E6F7420656E7465725D
:103C400065642E0A00206F6620004D424C204732EA
:103C50003920706F696E7420004A206F7574206F70
:103C6000662072616E67652028302D0049206F75CF
:103C700074206F662072616E67652028302D004DBC
:103C80006573682070726F62696E6720646F6E651D
:103C90002E0A005374617274206D6573682070720F
:103CA0006F62696E67207769746820224732392015
:103CB0005331222066697273742E0A004732380A23
:103CC00047323920533200686173206E6F2064617F
:103CD00074612E0A004D65736820426564204C654E
:103CE00076656C696E67200053206F7574206F666F
:103CF0002072616E67652028302D35292E0A004D0F
:103D000034323120696E636F727265637420706142
:103D100072616D657465722075736167650A00571D
:103D200041524E494E4721204C6F77205A204A6518
:103D3000726B206D6179206C65616420746F2075F1
:103D40006E77616E746564207061757365732E0A99
:103D500000204D393220580020204D61783A200053
:103D600020204D696E3A2000536F667420656E64A2
:103D700073746F70733A20002020202020202000D0
:103D8000256C6425636D001FE020102010201010AA
:103D90002010202010201030300840048003001F25
:103DA000E03FF03FF03FF01FE01FE03FF03FF03F0B
:103DB000F00FC0078003003FFFF038007030FC3088
:103DC00020FC102078102030102C00D02E31D02F65
:103DD0007BD02F7BD02E31D02C00D02030102078FB
:103DE0001020FC1030FC303800703FFFF03FFFF037
:103DF0003800703186302387102787902F87D02F87
:103E000003D02030102078102078102030102F039D
:103E1000D02F87D0278790238710318630380070C5
:103E20003FFFF01FFFF81FFFF804104002082002B8
:103E30000820041040082080104100104100082094
:103E4000800410400000001FFFF81FFFF84D696359
:103E5000726F737465707320756E617661696C61E1
:103E6000626C650A0045313A200045303A20005A1C
:103E70003A2000593A20004D53312C4D53322C4DED
:103E800053332050696E730A583A20005072696E9D
:103E900074205061757365640050617573652050BE
:103EA00072696E74004D656469612052656D6F764C
:103EB0006564004D6564696120496E73657274655F
:103EC00064005468696E6B65722056325F3232301E
:103ED000392052656164792E005072696E74696E82
:103EE000672E2E2E005072696E742041626F7274BC
:103EF0006564004D323520500A4D323400447269F9
:103F0000766572207265676973746572733A0A0028
:103F1000733276736209007332767361090031324D
:103F2000304309003134334309003135304309004F
:103F30003135374309006F7409006F7470770900D9
:103F40007332676109007332676209006F6C61093F
:103F5000006F6C6209007374737409004452565305
:103F60005441545553005374616C6C6775617264AD
:103F70002074687273002D7374617274090068791B
:103F800073746572657369730A2D656E64090062E6
:103F90006C616E6B2074696D65006F666620746974
:103FA0006D65004F54207072657761726E20686194
:103FB000730A6265656E207472696767657265640D
:103FC000004F54207072657761726E005B6D6D2FCB
:103FD000735D090070776D0A7468726573686F6C41
:103FE0006400747374657009006D7374657073098F
:103FF000007673656E7365090050574D20736361D9
:104000006C650043532061637475616C00486F6C8C
:10401000642063757272656E740052756E206375EC
:104020007272656E74004D41582063757272656ED0
:104030007400524D532063757272656E740053653F
:10404000742063757272656E7400456E61626C6592
:104050006409004164647265737309002054002090
:10406000520048617264636F6465642044656661F0
:10407000756C742053657474696E6773204C6F613E
:104080006465640A0020204D3930360020204D3907
:1040900031340020204D3536392053310020204D59
:1040A000363033200020550046696C616D656E74B2
:1040B000206C6F61642F756E6C6F6164206C656E2F
:1040C000677468733A0A0044726976657220737483
:1040D000657070696E67206D6F64653A0A0053748D
:1040E000616C6C4775617264207468726573686F87
:1040F0006C643A0A00205430204500537465707097
:104100006572206472697665722063757272656E7D
:10411000743A0A0020204D343133205300506F7719
:1041200065722D4C6F7373205265636F766572797B
:104130003A0A0020204D333034205000204900201E
:10414000204D333031205000504944207365747441
:10415000696E67733A0A0020460020480020204D0F
:104160003134352053004D6174657269616C20688B
:10417000656174757020706172616D6574657273CC
:104180003A0A00202047323920533320580020209B
:104190004D3432302053004D6573682042656420F1
:1041A0004C6576656C696E673A0A0020204D3230A6
:1041B00036205800486F6D65206F66667365743AE7
:1041C0000A0020204D32303520420020453C6D61F0
:1041D000785F655F6A65726B3E0020583C6D617860
:1041E0005F785F6A65726B3E20593C6D61785F79DC
:1041F0005F6A65726B3E205A3C6D61785F7A5F6AD8
:1042000065726B3E00416476616E6365643A20427C
:104210003C6D696E5F7365676D656E745F74696D23
:10422000655F75733E20533C6D696E5F66656564BE
:10423000726174653E20543C6D696E5F7472617684
:10424000656C5F66656564726174653E0020204D33
:10425000323034205000416363656C65726174696B
:104260006F6E2028756E6974732F7332293A20504F
:104270003C7072696E745F616363656C3E20523C92
:10428000726574726163745F616363656C3E205430
:104290003C74726176656C5F616363656C3E0A00B5
:1042A00020204D3230312058004D6178696D756D98
:1042B00020416363656C65726174696F6E20287557
:1042C0006E6974732F7332293A0A0020204D323000
:1042D000332058004D6178696D756D2066656564A1
:1042E00072617465732028756E6974732F73293A2F
:1042F0000A0053746570732070657220756E69745E
:104300003A0A0020204D3230302044300A0020206C
:104310004D3230302044002044697361626C656422
:104320000A0046696C616D656E742073657474690A
:104330006E67733A0020204D3134392043203B20F2
:10434000556E69747320696E2043656C736975736B
:104350000A0020286D6D29002020473231202020BE
:10436000203B20556E69747320696E206D6D0000CE
:104370000096430000964300000C420000C8410034
:1043800000A0420000A0420000C8430000BA42DC86
:10439000050000DC05000096000000DC05000000C0
:1043A000002100240027002A002D003000330001E6
:1043B000010000040107010A010000220025002875
:1043C000002B002E0031003400020100000501081E
:1043D000010B01000020002300260029002C002FE3
:1043E0000032000001000003010601090105050576
:1043F00005070508080808020202020A0A0808045C
:104400000404040101010101010101030303030389
:10441000030303040707070C0C0C0C0C0C0C0C0218
:1044200002020206060606060606060B0B0B0B0B1F
:104430000B0B0B07070A0A0A0A0A0A0505050404FA
:104440000408080102102020080810204010204015
:104450008002010201080402010102040810204048
:104460008080402010080402018004020180402066
:10447000100804020108040201010204081020408F
:1044800080010204081020408010080408801020D9
:1044900040044080102040048000000A0B02090CF8
:1044A0000D0E0807030401000000000000000000DA
:1044B00000000000000000000000000000000000FC
:1044C00000000000001211100000000000000000B9
:1044D00000000000000000000000000000000000DC
:1044E0000000000000000000000000000000004389
:1044F00061703A001C03480411241FBECFEFD1E2C3
:10450000DEBFCDBF00E00CBF13E0A0E0B2E0E6E00C
:10451000F1ED02E00BBF02C007900D92AE39B1077A
:10452000D9F728E1AEE9B3E001C01D92AB35B2077F
:10453000E1F712E2CBE7D2E200E006C021970109E1
:10454000802FFE010F949464CA37D10780E00807DA
:10455000A9F70F9401500D9471680C9400002F92EC
:104560003F924F925F926F927F928F929F92AF9203
:10457000BF92CF92DF92EF92FF920F931F93CF9350
:10458000DF93CDB7DEB7E1970FB6F894DEBF0FBE6D
:10459000CDBF89AB2091280E28AB81E08093280EF7
:1045A000809154188D3409F48CC2843511F40C9424
:1045B000AD34873411F00C94B4348091521890913A
:1045C00053188A31910509F415C194F4843091058A
:1045D00034F482309105D4F597FF2CC06EC284303C
:1045E000910509F4C8C0459711F40C94B63465C21E
:1045F0008A32910509F4E2C16CF48C31910509F419
:1046000017C10CF4FBC04D9709F057C20F94791CE9
:104610000C94B6348B35910509F41AC18C3591058B
:1046200009F41BC18A35910509F047C21092A7030E
:104630000C94B63480911B02882311F40C94B63488
:104640000E94CDBA0F947E040C94B63420911B02C4
:10465000222311F40C94B63411E0029709F010E013
:104660000E94CDBA19821A821B821C821D821E8270
:104670001F82188682E50E945763882309F44BC085
:104680000E94D7626B017C0120E030E0A9010F9409
:10469000995D882309F455C080913A0290913B02BC
:1046A000A0913C02B0913D028CA39DA3AEA3BFA3F9
:1046B00080913E0290913F02A0914002B091410250
:1046C00088A799A7AAA7BBA78090150E9090160E51
:1046D000A090170EB090180E4090190E50901A0E20
:1046E00060901B0E70901C0EA50194016CA17DA121
:1046F0008EA19FA10F94995D81110C94BF34A301E9
:10470000920168A579A58AA59BA50F94995D882338
:10471000C1F00C94BF3489E40E945763882331F0C0
:104720000E94D76269837A838B839C838AE40E9488
:104730005763882331F00E94D7626D837E838F8315
:10474000988720E030E0A90169817A818B819C8182
:104750000F94995D81110C94733520E030E0A9012C
:104760006D817E818F8198850F94995D81110C9464
:1047700073350C94863580E50E945763882329F0B1
:104780000F94F51A6B017C0103C0C12CD12C76016A
:1047900083E50E945763882361F00E94D76220E07E
:1047A00030E04AE754E40F94FF5D0F9447666B01D5
:1047B0007C010E9426AE8091B317811105C060E094
:1047C00089E19BE00F941D350F94B944C60ED71EA6
:1047D000E81EF91E0F94B944DC01CB018C199D0928
:1047E000AE09BF09B7FD02C00C94B63480E00E9448
:1047F0000D3CF0CF0E9488630C94B6340E9464E1B3
:1048000081110C94B6348CE0E5E8F2E0DE011196FB
:1048100001900D928A95E1F760E070E080E50E94DA
:104820000AC4BE016F5F7F4F0F94CE330C94B63431
:104830008091250E8770873011F00C948D3560E0E3
:104840008FE40E94736381110C94B6340C948D35FF
:104850008FE08093A7030C94B6348091511888237D
:1048600049F1893009F0A6C041E9A42E42E0B42EF6
:104870005AE3E52E52E0F52ED12C00E010E0D501F0
:104880008D915D010E945763882369F00E94D76271
:10489000F7016083718382839383133011F401E005
:1048A00002C0DD24D3941F5FF4E0EF0EF11C14303E
:1048B00031F775C091E9292E92E0392E21EAE22ED6
:1048C00025E1F22E2AE332E03DA32CA335E9C32EE5
:1048D00035E1D32E00E010E0D1018D911D010E9441
:1048E0005763882309F44BC00E94D7622B013C0117
:1048F000133049F0F60120813181428153810F94B8
:10490000D3642B013C01ACA1BDA12D913D914D91F2
:104910005C91C301B2010F94D3644B015C012DEB98
:1049200037E346E855EB0F94346787FD0AC02DEB5B
:1049300037E346E855E3C501B4010F94995D1816B5
:10494000F4F4133051F440924602509247026092C0
:1049500048027092490201E012C0A5019401F701DA
:1049600060817181828193810F94D464D7016D93AA
:104970007D938D939C931397812F0F94C1031F5F99
:10498000B4E0EB0EF11CECA1FDA13496FDA3ECA369
:10499000F4E0CF0ED11C143009F09ECF05C0DD200D
:1049A00019F00F94DA0806C0002321F086E492E0A3
:1049B0000E9437AE0F94DC080C94B63480911B0231
:1049C000882311F40C94B63489E40E945763F82EBE
:1049D000882321F00E94D362182F01C010E08AE4DE
:1049E0000E945763082F882319F00E94D36201C0E8
:1049F00080E0FF2011F0153020F4002341F08530D5
:104A000030F082E29BE00E9492390C94B63490E13F
:104A1000EAE3F2E0A5E1BEE001900D929A95E1F79C
:104A2000FF2091F024E01202F0011124E852F54F2A
:104A300040815181628173814093150E5093160E0F
:104A40006093170E7093180E002391F034E08302E8
:104A5000F0011124EC53F54F80819181A281B38143
:104A60008093190E90931A0EA0931B0EB0931C0EF8
:104A700040E050E0BA0186E40E948F9C6B017C010B
:104A800020E030E0A9010F94346718164CF420E0C0
:104A900030E040E752E4C701B6010F94CE6503C091
:104AA00060E070E0CB0169837A838B839C83CE01C5
:104AB00001960F9459070C94B6340E9439FF0C9458
:104AC000B63480915218909153188C38910509F49E
:104AD00080C60CF030C18235910509F4CDC60CF0CA
:104AE000ABC08B31910509F49BC30CF053C08531E9
:104AF000910509F402C39CF58131910509F4E9C2DD
:104B00002CF4029708F469C20C94AA3482319105FE
:104B100009F4C2C6449711F00C94AA348CE69BE0C9
:104B20000E94923984E19BE00E9468B28BE1E4E14B
:104B3000FBE0DE01119601900D928A95E1F760E0AD
:104B400070E0CE0101960F946118CE0101960E948B
:104B500015518DE59BE00E9492390C94B634883152
:104B6000910509F4E8C26CF48631910509F4C9C2D3
:104B7000479711F00C94AA34E0914F18F091501817
:104B8000CDC28931910509F432C34A9709F43AC379
:104B90000C94AA348A32910509F409C4ECF48E31DC
:104BA000910509F49AC37CF48C31910509F48BC307
:104BB0004D9711F00C94AA348091F70A8E7F809360
:104BC000F70A0C94B6348F31910509F4D0C380975D
:104BD00009F493C30C94AA348D34910509F40EC4DE
:104BE0006CF48B34910509F405C48C34910511F0F3
:104BF0000C94AA340E94258C0C94B6348E34910502
:104C000009F400C48135910511F00C94AA340E9476
:104C10005AD00E94EEAC0E94A2AF0E94173968EEF3
:104C200073E080E090E00E941F3860E087E69CE03F
:104C30000F941D350C94B6348F36910509F450C588
:104C4000BCF58936910509F4F1C4CCF4853591059C
:104C500009F44FC654F48335910509F415C684351B
:104C6000910509F419C60C94AA348C35910509F400
:104C70005BC68836910509F457C40C94AA348C3667
:104C8000910509F472C554F48A36910509F4E2C419
:104C90008B36910509F402C50C94AA348D36910522
:104CA00009F466C48E36910509F407C50C94AA343C
:104CB0008637910509F457C7CCF48237910509F47A
:104CC000D4C654F48037910509F455C58137910550
:104CD00009F45AC50C94AA348337910509F4CAC65D
:104CE0008537910509F42FC70C94AA3489379105AB
:104CF00009F476C794F48737910509F46EC78837AD
:104D0000910511F00C94AA3481E080933F0E8093BA
:104D10003E0E0F940C0A0C94B6348A37910511F4A8
:104D20000C9495338D37910511F00C94AA340E94A0
:104D30003DC30C94B6348D39A1E09A0711F40C945C
:104D40005C340CF090C08D3D910511F40C944B2F08
:104D50000CF03FC08B3C910511F40C94C52ECCF4A3
:104D60008E3B910509F44BC554F48139910509F442
:104D70003EC78B39910509F457C50C94AA34883C79
:104D8000910509F48FC7893C910509F4D8C70C94A3
:104D9000AA348E3C910511F40C94182F74F48C3CB9
:104DA000910511F40C94E42E8D3C910511F00C94B6
:104DB000AA340F94051B0C94B634833D910511F46D
:104DC0000C943B2F8C3D910511F40C943E2F0C94C8
:104DD000AA348F32E1E09E0711F40C949B3104F564
:104DE0008C3221E0920711F40C944F3064F4823E2F
:104DF000910511F40C94A12F8232914011F40C947E
:104E0000ED2F0C94AA348D32B1E09B0711F40C9471
:104E100064308E32914011F40C9457310C94AA34C2
:104E20008F35F1E09F0711F40C944B346CF4803310
:104E300031E0930711F40C94E4308E35914011F475
:104E40000C9416340C94AA348039B1E09B0711F409
:104E50000C949E318A39914011F00C94AA340E942E
:104E60006C380C94B6348B35F2E09F0711F40C9437
:104E700029320CF04FC0863F31E0930711F40C94B7
:104E800004322CF58C3AB1E09B0711F40C94A43158
:104E90007CF4843AF1E09F0711F40C94A131853A37
:104EA000914011F00C94AA340F94891B0C94B634E1
:104EB000843F31E0930711F40C940132853F914017
:104EC00011F00C94AA340F94EB3D0C94B6348C3052
:104ED000B2E09B0711F40C9421326CF4873FF1E0AF
:104EE0009F0711F40C940732883F914011F40C9401
:104EF00010320C94AA34893332E0930711F40C94E5
:104F00009B338835924011F00C94AA340E9445C21C
:104F10000C94B6348F38B3E09B0711F40C949E3395
:104F20007CF58A38F3E09F0711F40C9498336CF405
:104F30008D3B32E0930711F40C94A2328E3B9240E9
:104F400011F40C94A5320C94AA348B38B3E09B076F
:104F500011F40C9464338C38934011F00C94AA34FF
:104F600060E070E083E50E9464638C0160E070E0C3
:104F700080E50E946463B8010F94D0300C94B6347D
:104F8000803AF3E09F0709F4E2C1C4F4803933E0CA
:104F9000930711F40C94D3338239934011F00C949D
:104FA000AA3460E089E40F946D1CD82E91E9E92EB3
:104FB00092E0F92E11E000E00C94E033873EB3E07C
:104FC0009B0711F40C944E34883E934011F00C94DE
:104FD000AA340E9413BF0C94B634A0904F18B0901E
:104FE000501880E50E945763882359F00F94F51AF2
:104FF0006B017C0111E0672B682B692B31F410E009
:1050000004C010E0C12CD12C760183E50E945763C7
:10501000882311F40C945A360E94D76220E030E0C5
:105020004AE754E40F94FF5D0F9447666B017C01DF
:1050300011110BC0672B682B692B39F4A114B10433
:1050400021F0D5018C91811102C010E001C011E066
:105050000E9426AE112329F061E0C5010F94A4350A
:1050600005C060E081E49BE00F941D351091280E8F
:1050700083E08093280E81E08093270EC114D10431
:10508000E104F104B1F00F94B944C60ED71EE81E36
:10509000F91E0F94B944DC01CB018C199D09AE09AE
:1050A000BF09B7FF0EC08091270E81110C945F36A7
:1050B00008C08091270E882321F080E00E940D3CDB
:1050C000F8CF0F94C9351092270E1093280E0C9428
:1050D000B63480914B1884FF02C00C9464368091E2
:1050E0004D1887FF02C00C94643680914E1883706F
:1050F00011F00C9464360C947D360F9409140C94C2
:10510000B6340F9498138091F70A877F8093F70A3B
:105110000C94B634803209F410823196808181116A
:10512000F9CF40E061E080914F18909150180F94B2
:1051300040170C94B63483E50E945763882321F00E
:105140000E949F620E9433A384E50E9457638823D4
:10515000A9F00E949F626B017C010E940A8CC092A0
:105160007F05D0928005E0928105F0928205CD28DE
:10517000CE28CF2819F081E08093870580913116E1
:105180008823E9F080E090E0A8ECB2E488A399A33A
:10519000AAA3BBA31C8E1D8E1E8E1F8E19821A827F
:1051A0001B821C8220E0AE01405E5F4FBE01645E48
:1051B0007F4FCE0101960E9469510C94B6340E9433
:1051C0001C39882381F00F94A9130E9440398BED7C
:1051D00096E10F944E131092E4041092E50410929D
:1051E000E6041092E7040F94C9350C94B63480910C
:1051F000F70A82FF03C08B7F8093F70A0E943DC3AA
:105200000C94B6348091F70A83FD02C00C94B63436
:1052100083E50E94576381110C9488360C94B63450
:1052200083E40E940E63882319F187E89BE00E94C3
:10523000923980915B0C882391F0BE016F5F7F4FA4
:1052400088E59CE00E94DFB58E010F5F1F4FF801DB
:1052500081918F01882339F00E948B39F8CF8DE737
:105260009BE00E9492398AE00E948B390C94B634FC
:105270008091F70A82FF21C086E99BE00E94923963
:105280006091F30A7091F40A8091F50A9091F60A00
:105290004AE00E94B93A8FE20E948B396091EF0A8E
:1052A0007091F00A8091F10A9091F20A4AE00E940E
:1052B000B93A0E94E63B0C94B63488EA9BE00E941F
:1052C00092390C94B63440E060E080914F18909190
:1052D00050180F9440170C94B6348091F70A83FD50
:1052E00002C00C94B6340E9422FF80914F18909116
:1052F00050180F9472160C94B6348091F70A82FD00
:105300000E9426AE8091F70A83FD02C00C94B63449
:1053100060E080E50E947363182F482F61E0809160
:105320004F18909150180F94401783E50E945763CF
:10533000882321F00E949F620E9433A30F94A91337
:1053400011110C94B6340E9440390C94B63420915B
:105350004F18309150189091F70A92609093F70A85
:1053600040E060E0C9010F9440170C94B6340E94ED
:10537000D68B6C8F7D8F8E8F9F8FBE016F5F7F4F1F
:10538000CE014C960E9454A260E0CE0101960F948B
:10539000A4350E94D739BE016F5F7F4F89EB9BE038
:1053A0000E94C0398AE00E948B390C94B63483E5A0
:1053B0000E945763882311F40C94B6340E94AF62A4
:1053C000F82E6DE070E080E50E9464638C0197FF29
:1053D00002C00C94B634E82E60E089E40E94736346
:1053E00081110C948D36802F0F942F4B8111C6C5DF
:1053F0000C948D360E9440390C94B6340E94EEAC69
:105400000C94B63460E070E083E50E9464638E34EF
:10541000910531F40E945FAD0F94C9350C94B634F8
:105420008CE19CE00E94923960912E0E70912F0EBB
:1054300083E19CE00E94B6396091300E7091310E8C
:1054400086E09CE00E94B63960912E0E70912F0E7E
:105450008091300E9091310E681B790B80918705F9
:10546000815021E030E0823010F020E030E0621B1B
:10547000730B8BEF9BE00E94B6398AE00E948B3958
:105480008CE19CE00E9492398091320E9091330E13
:10549000A091340EB091350E8C8F9D8FAE8FBF8F43
:1054A000BE016F5F7F4FCE014C960E9454A2BE0199
:1054B0006F5F7F4F8EEE9BE00E94C0398091360E69
:1054C0009091370EA091380EB091390E8C8F9D8F30
:1054D000AE8FBF8FBE016F5F7F4FCE014C960E9493
:1054E00054A2BE016F5F7F4F8EED9BE00E94C039DA
:1054F00020E030E04AE754E460913A0E70913B0EB0
:1055000080913C0E90913D0E0F94CE65AB01BC0195
:1055100086EC9BE00E94D53B8DE60E948B398AE0A9
:105520000E948B390C94B6348091471583FF02C0DA
:105530000C94B6340E94E7BB87FF02C00C94B634CB
:1055400083E50E945763882379F00E94D7620F9405
:1055500040668B01CB010E94B2B90635110524F4D7
:105560000E94EEAC0F94C9350F94544B0C94B63492
:105570008091471583FF02C00C94B6340E94E7BBAC
:10558000F82E87FF02C00C94B63483E50E9457635F
:10559000082F811106C082E50E945763182F8823C7
:1055A000C1F10E94D7620F944066CB010E94B2B94C
:1055B0000E94D76220E030E04AEA52E40F94995DFD
:1055C000181614F40C94A6360E94EEAC0F94C9354C
:1055D0006091361070913710072E000C880B990BD4
:1055E0000F94A05D4B015C0140903210509033103D
:1055F0006090341070903510A30192010F943467BD
:10560000181614F40C94C436002311F40C94AA3622
:1056100011E00F94544B112311F40C94B63440E074
:10562000602F8F2D0E9492CE0C94B6340E94E7BB5F
:10563000182F87FD0AC08DE99AE10E949239812FC7
:105640000E948ECC8AE00E948B39F8A9F093280E34
:105650000C94D93760E080E50F946D1C182F8230D0
:1056600010F00C94B63481E40E940E63882321F07C
:105670006091171070E002C06FEF70E083E50E9448
:105680000AC4E12FF0E0E95EFF4E8F3F910519F06B
:1056900010F08FEF90E080830C94B63460E080E5EA
:1056A0000F946D1C823010F00C94B634E82FF0E0AB
:1056B000E95EFF4E10820C94B6348EE40E9457636C
:1056C000882311F40C94B6340E949F6260936C0599
:1056D00070936D0580936E0590936F050C94B634AE
:1056E00083E50E940E63882331F060E083E50F9428
:1056F0006D1C809347150E94D7398DE29CE00E9473
:10570000923980914715882369F185EAE82E8FE068
:10571000F82E00E010E020E08091471590E0A0E036
:10572000B0E0002E04C0B695A795979587950A948A
:10573000D2F780FF0EC0DD24D394D20E222319F0BD
:105740008CE20E948B39F701859194910E949239E5
:105750002D2D0F5F1F4F32E0E30EF11C05301105B8
:10576000D9F681CD89E29CE07CCD1092270E109273
:1057700039020C94B63441E060E070E084E39CE0D0
:105780000E94DB390C94B63483E50E94576388236A
:1057900081F00E94AF62282F30E02D33310524F4D0
:1057A000809300020C94B6348CE3809300020C9436
:1057B000B6340E94D7394091000250E060E070E0BA
:1057C00082E49CE00E94263B8AE00E948B390C9484
:1057D000B6348091471583FF02C00C94B63483E53C
:1057E0000E945763882311F40C94B6340E94D76248
:1057F0000F944066CB010E9491620C94B634809164
:10580000471583FF02C00C94B63483E50E945763AA
:10581000182F81110C94C73682E50E9457638111BD
:105820000C94C7360C94B63483E50E9457638823E2
:1058300011F40C94B6340E94AF62182F90E0CD970B
:105840000CF01CE31093A2030F94B9446B017C018C
:10585000212F30E0A8EEB3E00F944364C60ED71EAC
:10586000E81EF91EC0929E03D0929F03E092A0030F
:10587000F092A1030C94B6348091A7038F7D8061D0
:105880008093A7030C94B6348091A7038F7E806227
:105890008093A7030C94B63483E50E945763882352
:1058A000A1F00E94D76220E030E04AE754E40F9470
:1058B000FF5D0F944766609301027093020280932C
:1058C0000302909304020C94B63480914B1884FF29
:1058D00002C00C94FD3680914D1887FF02C00C94D5
:1058E000FD3680914E18837011F00C94FD360C94A7
:1058F0002A3783E50E940E63882311F40C94B63492
:105900000E94D76220E030E04AE754E40F94FF5D44
:105910000F9447666093A3037093A4038093A50339
:105920009093A6030C94B6340E94E7BB87FF02C095
:105930000C94B63490914B1894FD04C090914D187E
:1059400097FF0AC011E9C12E12E0D12E08E4E02E23
:1059500005E1F02E10E00AC090914E18937091F777
:10596000682F81E00F94BA1A0C94B634D6018D9149
:105970006D010E945763882309F46DC0133009F04C
:1059800063C00E94D7624B015C0120E030E040EA36
:1059900051E40F94995D87FF4EC0A5019401609179
:1059A00068157091691580916A1590916B150F9427
:1059B000CE652B013C019B01AC016091FB0F709106
:1059C000FC0F8091FD0F9091FE0F0F94FF5D60938F
:1059D000FB0F7093FC0F8093FD0F9093FE0FA301BC
:1059E0009201609178157091791580917A15909156
:1059F0007B150F94FF5D60937815709379158093F4
:105A00007A1590937B1560910B1070910C1080911A
:105A10000D1090910E100F949E5DA30192010F94B2
:105A2000FF5D0F94476660930B1070930C1080938A
:105A30000D1090930E108092681590926915A092A7
:105A40006A15B0926B1507C00E94D762F701648B8C
:105A5000758B868B978B1F5FF4E0EF0EF11C143073
:105A600009F084CF0E9402AE81C70E9426AE0F9437
:105A7000DC087CC789E99DE00E94923960E089E8F2
:105A80009DE00F945C4A60E084E79DE00F945C4ADF
:105A900061E086EC9BE20F945C4A61E089E69DE060
:105AA0000F945C4A61E089E59DE00F945C4A60E0F8
:105AB00080E59DE00F945C4A61E086E49DE00F94F0
:105AC0005C4A60E08CE39DE00F945C4A60E084E314
:105AD0009DE00F945C4A61E086E29DE00F945C4A91
