:100000000C94E11F0C9412200C9412200C941220DA
:100010000C9412200C9412200C9412200C94122098
:100020000C9412200D94803F0D94803F0D94803FDE
:100030000C9412200C9412200C9412200C94122078
:100040000C9412200C948A930C9412200C9412207D
:100050000C9412200C9412200D94570C0C94F3C2A3
:100060000C9412200C9439470C942F470C941220B6
:100070000C9412200C9412200C9412200C94122038
:100080000C94A13B0C9412200C9412200C9412207E
:100090000C9467C30C943DC30C9412200C94122052
:1000A0000C9412200C9412200C94733B0C9412208C
:1000B0000C9412200C9412200C9412200C94453BAA
:1000C0000C9412200C9412200C9412200C941220E8
:1000D0000C9412200C9412200C9412200C941220D8
:1000E0000C941220D548DB48E648F148FC48074903
:1000F00012491D49514951495149514928497049AD
:100100007C498D499E49AF49C049D149E249194AC4
:10011000194A194A194AF049384A444A554A664A1E
:10012000774A884A994AAA4AE14AE14AE14AE14AB9
:10013000B84A004B094B184B234B2E4B394B444BC1
:100140004E4B7C4B7C4B7C4B7C4B564BAA4B714CA7
:10015000B04BBA4BC44BCE4BE44BF14B714CFE4B06
:10016000714C0C4C714C144C1E4C714C714C324CFB
:100170003C4C444C4E4C584C674C904C8A4D994CDE
:10018000A64CB34CC04CD94CE94C8A4DF94C8A4D25
:100190000A4D8A4D154D254D8A4D8A4D3C4D494D90
:1001A000544D614D6E4D804DA94DA34EB24DBF4D86
:1001B000CC4DD94DF24D024EA34E124EA34E234EBE
:1001C000A34E2E4E3E4EA34EA34E554E624E6D4E46
:1001D0007A4E874E994EC24E7A4FC84ED04ED84E68
:1001E000E04EF64E014F7A4F0C4F7A4F184F7A4F30
:1001F000204F2D4F7A4F7A4F444F4C4F544F5C4F06
:10020000644F734F8278C176FA76BE78FA76FA76C2
:10021000FA76FA76FA76FA76FA76FA76FA76FA765E
:10022000FA76FA76FA76FA76FA76FA76FA76FA764E
:10023000FA76FA76FA76FA76FA76FA76FA76FA763E
:10024000B878FA76FA76FA76FA76FA76FA76FA766E
:10025000FA769178FA76FA76FA76FA76FA76FA7685
:10026000FA76FA76FA76FA76D578F7768AF990F908
:1002700095F9A3F9A9F9ABF9B1F9B6F9D2F9D2F91F
:10028000BDF9D2F9C2F9C8F9CDF9F2F9F8F9FDF9D9
:100290000BFA11FA13FA19FA1EFA3AFA3AFA25FA8F
:1002A0003AFA2AFA30FA35FA5AFA60FA65FA73FA23
:1002B00079FA7BFA81FA86FAA2FAA2FA8DFAA2FA00
:1002C00092FA98FA9DFAC1FAC7FACCFADAFAE0FA89
:1002D000E2FAE8FAEDFA09FB09FBF4FA09FBF9FA8C
:1002E000FFFA04FB4202A6027603CA032C0394031E
:1002F000E00210024403AA03EE011C033204D601FB
:100300008E024E04D6024603A2044C04BC03B20380
:10031000C2046C049004720346039A02900306041C
:10032000D20114047A048803F0011603BA03A2036D
:10033000CE04B4029404B803CE02EE0216035A04AB
:10034000A6048E04084AD73B3BCE016E84BCBFFD99
:10035000C12F3D6C74319ABD56833DDA3D00C77F95
:1003600011BED9E4BB4C3E916BAAAABE000000802E
:100370003F05A84CCDB2D44EB93836A9020C50B9BD
:10038000918688083CA6AAAA2ABE000000803F00E9
:100390000C9456C50C94DB480C94CDF90C9464AFC6
:1003A0000C94F1480D947C400C943DC40D94943E03
:1003B0000C94554A0C9443650C94E9AD0D94D60504
:1003C0000C94D1490C94EF660C942FB30C94D04E3E
:1003D0000C94157C0C9425FA0C94C44B0D9467096D
:1003E0000D949A400C94C24E0C94CCFA0D94F032B9
:1003F0000C94F9FA0C9404FB0C94517C0C94B24DBF
:100400000C94094B0C94E04E0C94E4630C94B3AD43
:100410000C94C84E0C94A64C0D9487020C94557500
:100420000D946D090C9413FA0C9484750C94C860A7
:100430000C944C4F0C94A2C30C940C4C0C946E4D29
:100440000C94544F0C943F7C0C942E4E0C941F75BE
:100450000C94664A0C9479FA0C949D7C0C94B84ADE
:100460000C94004B0C940A4D0D94F5050C94194A0C
:100470000C9456C20C9428490C9462AD0C94BFC3E2
:100480000C94EE660D9472090C94B28C0C943AFAAA
:100490000C9438C60C94437A0C94614D0D94F2037D
:1004A0000C94204F0C94E6FD0C94E6480C94A34E5B
:1004B0000C9486FA0C948D490C94AB740D94F21D37
:1004C0000C94A7C30C94FDF90C94FA760C94544D3B
:1004D0000C941E4C0C9430890C946F890D94E25549
:1004E0000C9474C40C9465FA0C94ED890C94B3FCD0
:1004F0000C9487750C944E4C0C94C1760C9492FA23
:100500000C94874E0C94BE780D941C000D94032E11
:100510000C94B04B0C9482780C949E8A0D94833E7C
:100520000C94184B0D94DE050C94FE750C94CD665E
:100530000C94254D0D94BE3E0C945CC40C947175C6
:100540000C9438C40C94A3F90C94A2FA0D94550998
:100550000D94C6050D94C2050C947DAD0D94E9056E
:100560000D9458070C940F7C0D94BE400C9403B36B
:100570000C94C0490C94C8F90C94324C0C94184F4C
:100580000D9424000C94DAFA0C94DF890C940C4F2F
:100590000C94438B0C94F4FA0C94624E0D94E1404D
:1005A0000D94F5150C94884A0D94DF010D948D3E41
:1005B0000C9490F90C94B0C30C94CEAD0C94F64E00
:1005C0000D9461090C941EFA0C94444F0C94707CA9
:1005D0000C94D94C0D94A03A0C94ABF90D94EB40CB
:1005E0000C94A94D0D94EF050C947A4E0C94DBFC01
:1005F0000D94F5320C9407490C949EB50C94CE4B97
:100600000C94BAC30C94AF490C943E4E0C94804D9C
:100610000C9468C40C94674C0C94FE4B0C94CC6006
:100620000C94FEFF0C94B1F90C9491780D94134145
:100630000C94F6C70C94554E0D946A090C94D6FC94
:100640000C94994C0C94FC480C944AB10C942DB326
:100650000D94DA050C94D5780D945B090C944B7CC1
:100660000C94124E0C94714C0C9411750C94C1FAAC
:100670000D94DF090C94F2660C943C4D0C94C4C3A9
:100680000D94FE320C9460FA0D9464090D94CB3EE7
:100690000D94CA050C94E7890C94A7750C947BFA09
:1006A0000C94CA600C94B8780C94994A0C94FFFA94
:1006B0000C947C490C94277C0C94154D0C945AFA9C
:1006C0000C94234E0C941D490D9414000C94734FFC
:1006D0000C9433B30C941DC20C946AC20C9412494E
:1006E0000C9441750D94B83E0C94BA4B0D94580976
:1006F0000D94D62D0D94EB320D94252E0C94D94DDE
:100700000C94014F0D94BE050C9447C20C948A4D75
:100710000D9490400C94BF4D0D94CE050C9481FA2D
:100720000D94C23E0D947F3A0D945E090C945C8E3C
:100730000C947A4F0C94AA4A0C94BC900C94B5C3B8
:100740000C94ADC30D94AC400C94E1750C949DC316
:100750000C94E9740D9480090C94F7760C94BC7A8F
:100760000C94564B0D94A63E0C94E3FC0C94217C07
:100770000D94D2400D94A4400D94A23E0C94F24DE1
:100780000C948AF90C942AFA0D94E2050C94337CAB
:100790000C9432760D9475090C9473FA0C94234BD7
:1007A0000C94F2F90C943F760C9427FF0C9456C9E4
:1007B0000C9430FA0C9484C20C943C4C0D94892D0A
:1007C0000C94B6F90C947C4B0D94EC050C9419FA2E
:1007D0000C94F8F90C94584C0C9488890D940833B7
:1007E0000D94E6050C940BFA0C9451490C94E94CC9
:1007F0000C94D6890C9411FA0C949DFA0D94632EE6
:100800000C948DFA0C94C4750C94E8FA0D94C63EC1
:100810000C94C2F90C946EC40C94F8FF0C9498AD2F
:100820000C942D4F0C94457C0D9481400C9495F9BB
:100830000C94EDFA0C94444B0D94472E0C94384ACA
:100840000C945C4F0C94C7FA0C9431B30D94ED2DBD
:100850000C94D18B0C94C04C0D94A12E0C94D2F915
:100860000C94F14B0D94913E0D94F2050C945A7634
:100870000C942BB30C94AA4B0C94444C0C9435FA66
:100880000C94B34C0C94397C0C948A750C94E0FA5B
:100890000C9409FB0C94994E0D949C3E0D94873E4C
:1008A0000C94FD740C9462C40C94E2490C94D548E9
:1008B0000C9442C40D94F5400C94E2FA0C94C96671
:1008C0000C94444A0C94144C0C94D5740C94A9F9CF
:1008D0000C941B7C0C9470490D94B03E0C94CE602B
:1008E0000C9498FA0D941B1E0C94774A0C94E0FC1F
:1008F0000C94295F0D9486400D9404000C94157699
:100900000C94394B0C944D760C9459AF0C94F94CD3
:100910000C941CB30C94644F0C946D4E0D940941CF
:100920000D94B43E0C94F0490D94C8400C94CC4DF9
:100930000C94E14A0C94494D0D94153B0C94904C49
:100940000C94655D0D94983E0C9446760D94FF4092
:100950000D94FE2E0C94024E0C942E4B0C94D060F1
:100960000C942D7C0D94D2050C94D84E0C94E44B31
:100970000D94C4550C944E4B0C9463750C94D1C2D9
:100980000D94D3090D94AA3E0C942D750C94BDF9C9
:100990000C949E490D94CE2D0C94C1740D94B440CA
:1009A0000D940C004E414E494E495459494E46CD86
:1009B000CCCC3D0AD7233C17B7D13877CC2B329516
:1009C00095E6241FB14F0A000020410000C84200F4
:1009D000401C4620BCBE4CCA1B0E5AAEC59D7400BE
:1009E000407A10F35A00A0724E18090010A5D4E8FE
:1009F0000000E87648170000E40B54020000CA9A91
:100A00003B000000E1F505000080969800000040E2
:100A1000420F000000A08601000000102700000027
:100A200000E803000000006400000000000A00006D
:100A30000000000100000000002C76D888DC674F21
:100A40000823DFC1DFAE59E1B1B796E5E3E453C651
:100A50003AE651997696E8E6C28426EB898C9B6249
:100A6000ED407C6FFCEFBC9C9F40F2BAA56FA5F4F3
:100A700090055A2AF75C936B6CF9676DC11BFCE01B
:100A8000E40D47FEF520E6B500D0ED902E0300946E
:100A90003577050080841E080000204E0A00000003
:100AA000C80C333333330F986E12831141EF8D210D
:100AB00014893BE65516CFFEE6DB18D1844B381B74
:100AC000F77C1D901DA4BBE424203284725E228139
:100AD00000C9F124ECA1E53D27434F4D4D554E494A
:100AE000434154494F4E0044525952554E004552CD
:100AF000524F525300494E464F004543484F00471E
:100B0000322F47332062616420706172616D6574B9
:100B10006572730A00536C6565702E2E2E005A2084
:100B200050726F62652050617374204265640A00E0
:100B30005A2050726F626520506173742042656460
:100B400000486F6D652058592066697273740A00F9
:100B5000486F6D65205859204669727374004D6561
:100B6000736820706F696E742063616E6E6F74209D
:100B70006265207265736F6C7665640A00456E6409
:100B80002066696C65206C6973740A004265676948
:100B90006E2066696C65206C6973740A00286E6F3C
:100BA0002066696C65290043757272656E742066F3
:100BB000696C653A20005344207072696E74696EE6
:100BC00067206279746520004E6F74205344207052
:100BD00072696E74696E670A005072696E7420746F
:100BE000696D653A20000A53746174733A2046694E
:100BF0006C616D656E7420757365643A20002C20FD
:100C00004C6F6E67657374206A6F623A2000546F90
:100C100074616C2074696D653A20002C204661690E
:100C20006C65643A20002C2046696E6973686564BF
:100C30003A20005072696E74733A200053746174E4
:100C4000733A200045202553006F666600444542F4
:100C500055473A004D3131322053687574646F77CF
:100C60006E004D3131332053005468696E6B6572EC
:100C70002056325F424C5F32323039204F46462E8A
:100C8000004348414D4245525F54454D5045524105
:100C900054555245004D4F54494F4E5F4D4F4445BA
:100CA0005300544845524D414C5F50524F544543B8
:100CB00054494F4E004155544F5245504F52545F86
:100CC00053445F5354415455530050524F4D505468
:100CD0005F535550504F525400454D455247454E75
:100CE00043595F50415253455200434153455F4C75
:100CF000494748545F4252494748544E4553530070
:100D0000544F47474C455F4C494748545300534F55
:100D10004654574152455F504F574552004255493E
:100D20004C445F50455243454E54004C4556454C4B
:100D3000494E475F44415441005A5F50524F42452B
:100D4000004155544F4C4556454C005052494E5465
:100D50005F4A4F420050524F47524553530041554E
:100D6000544F5245504F52545F54454D5000564FCA
:100D70004C554D45545249430042494E4152595FEA
:100D800046494C455F5452414E53464552005345E7
:100D90005249414C5F584F4E5F584F4646004649B6
:100DA000524D574152455F4E414D453A4D61726C2F
:100DB000696E20322E302E7820284769744875627B
:100DC0002920534F555243455F434F44455F555289
:100DD0004C3A68747470733A2F2F6769746875623F
:100DE0002E636F6D2F4D61726C696E4669726D77FF
:100DF0006172652F4D61726C696E2050524F544F75
:100E0000434F4C5F56455253494F4E3A312E302096
:100E10004D414348494E455F545950453A546869DD
:100E20006E6B65722056325F424C5F323230392031
:100E300045585452554445525F434F554E543A31EC
:100E400020555549443A63656465326132662D34F4
:100E50003161322D343734382D396231322D6335DA
:100E6000356336326633363766660A002F2F200028
:100E70004D31343520533C696E6465783E206F7582
:100E800074206F662072616E67652028302D3129CD
:100E90000A0020466C6F773A200050726F746563C9
:100EA0007465642050696E0A00206F7574206F6647
:100EB0002072616E67650A0020536572766F2000AC
:100EC000496E76616C6964206578747275646572C8
:100ED0000A0020693A006469730043290A006162CC
:100EE0006C656420286D696E2074656D7020004308
:100EF0006F6C6420657874727564657320617265C7
:100F000020004D34323120696E636F7272656374F4
:100F100020706172616D65746572207573616765BB
:100F20000A00454550524F4D204F4B0A0020746532
:100F30006D7065726174757265207072657761722B
:100F40006E207472696767657265643A2000206874
:100F50006F6D696E672073656E7369746976697405
:100F6000793A2000FA0AF50AEE0AE70AD90A457228
:100F7000726F722077726974696E6720746F204592
:100F80004550524F4D210A00627573793A207061C5
:100F90007573656420666F7220696E7075740A00DF
:100FA000627573793A2070617573656420666F723B
:100FB00020757365720A00627573793A2070726FDA
:100FC00063657373696E670A004E6F2043686563DB
:100FD0006B73756D2077697468206C696E65206E1F
:100FE000756D6265722C204C617374204C696E655E
:100FF0003A2000636865636B73756D206D69736D6E
:10100000617463682C204C617374204C696E653A7E
:1010100020004C696E65204E756D626572206973A3
:10102000206E6F74204C617374204C696E65204E85
:10103000756D6265722B312C204C617374204C6984
:101040006E653A20004D313130004D313137004D61
:1010500033310053442072656164206572726F728F
:101060000A00446F6E65207072696E74696E672045
:1010700066696C650A002063757272656E7420641F
:10108000656372656173656420746F20006D41292A
:101090000A0020647269766572206F7665727465E5
:1010A0006D7065726174757265207761726E696EBC
:1010B00067212028004B494C4C206361757365649F
:1010C000206279204B494C4C20627574746F6E2FEE
:1010D00070696E0A004B494C4C20636175736564FE
:1010E00020627920746F6F206D75636820696E616E
:1010F00063746976652074696D65202D206375724F
:1011000072656E7420636F6D6D616E643A200025A8
:10111000301D0C282924311C0B4527232F1B164476
:1011200043212A193F40222B1A414203380906362F
:101130000308020600014C6F616400506F7765720E
:101140002D6C6F73732066696C6520636C6F7365BB
:10115000206661696C65642E0A00506F7765722D98
:101160006C6F73732066696C652077726974652093
:101170006661696C65642E0A005772697465002D9A
:101180002D2D0A00494E56414C49442044415441BA
:101190000A007072696E745F6A6F625F656C61707D
:1011A0007365643A20007364706F733A200073644F
:1011B0005F66696C656E616D653A20000A20666144
:1011C00064653A20006C6576656C696E673A20004C
:1011D00066616E5F73706565643A20007461726762
:1011E00065745F74656D70657261747572655F6258
:1011F00065643A20007461726765745F74656D7030
:10120000657261747572653A200066656564726125
:1012100074653A2000706F736974696F6E5F7368EC
:101220006966743A2000686F6D655F6F6666736506
:10123000743A200063757272656E745F706F7369C3
:1012400074696F6E3A20002076616C69645F666F26
:101250006F743A00204A6F62205265636F76657240
:101260007920496E666F2E2E2E0A76616C69645F56
:10127000686561643A002568753A25303268750002
:10128000256875642025303268753A2530326875D6
:1012900000447269766572206572726F7200636FC6
:1012A000696C2073686F7274206369726375697406
:1012B0000A006F76657274656D706572617475721F
:1012C000650A0020647269766572206572726F72B9
:1012D0002064657465637465643A203078006D61DC
:1012E00078002F33310009204261642072657370E9
:1012F0006F6E736521004F46460A004661646520A3
:101300004865696768742000426564204C657665AD
:101310006C696E6720004661696C656420746F209B
:10132000656E61626C6520426564204C6576656C13
:10133000696E670A00496E76616C6964206D657339
:10134000682E0A0050726F62696E6720506F696E76
:10135000740025532025692F25690050726F62693A
:101360006E67206D65736820706F696E7420002051
:101370002844525952554E2900473239204175743C
:101380006F20426564204C6576656C696E67003F2E
:1013900020284C2C522C462C4229206F7574206F2B
:1013A0006620626F756E64732E0A003F28562965A9
:1013B00072626F7365206C6576656C20696D706C08
:1013C00061757369626C652028302D34292E0A00FE
:1013D000426164205A2076616C75650A004E6F2068
:1013E00062696C696E65617220677269640A0041A6
:1013F0006363656C65726174696F6E3A2050005763
:1014000041524E494E4721204C6F77205A204A6561
:10141000726B206D6179206C65616420746F20753A
:101420006E77616E746564207061757365732E0AE2
:1014300000204D39322058004E6F204D6F76652EBA
:101440000020204D61783A200020204D696E3A201E
:1014500000536F667420656E6473746F70733A2006
:10146000004C6F6164206D6D00556E6C6F6164207F
:101470006D6D0046696C2E204469612E004520691F
:101480006E206D6DC2B30020082046616374002099
:1014900008204D6178002008204D696E0041757468
:1014A0006F74656D70005654726176204D696E00E0
:1014B000566D696E00566D6178204500566D6178F5
:1014C000205A00566D6178205900566D6178205879
:1014D00000416D6178204500416D6178205A0041DE
:1014E0006D6178205900416D6178205800412D547C
:1014F000726176656C00412D52657472616374008F
:10150000416363656C0056652D4A65726B00565ADF
:101510002D4A65726B0056592D4A65726B005658FC
:101520002D4A65726B00656E7175657565696E67CC
:101530002022006F6B00526573656E643A200025AF
:10154000697920256964202569682025696D202531
:1015500069730042656420436F6F6C696E672E2E5D
:101560002E004265642048656174696E672E2E2ED8
:101570000023646566696E652044454641554C54B8
:101580005F004B6420004B6920004B7020005049E5
:1015900044204175746F74756E652066696E697359
:1015A000686564212050757420746865206C6173CF
:1015B00074204B702C204B6920616E64204B64209A
:1015C000636F6E7374616E74732066726F6D2062E8
:1015D000656C6F7720696E746F20436F6E66696704
:1015E00075726174696F6E2E680A0050494420411B
:1015F00075746F74756E65206661696C6564212011
:1016000074696D656F75740A000A20436C617373A9
:10161000696320504944200A00204B643A2000208E
:101620004B693A2000204B703A20000A204E6F2070
:101630006F76657273686F6F740A002054753A2074
:1016400000204B753A2000206D61783A2000206D13
:10165000696E3A200020643A200020626961733A82
:101660002000504944204175746F74756E65207375
:10167000746172740A00504944204175746F747526
:101680006E65206661696C6564212054656D7065C6
:1016900072617475726520746F6F20686967680A7B
:1016A00000504944204175746F74756E6520666101
:1016B000696C656421204261642065787472756488
:1016C0006572206E756D6265720A004572723A200D
:1016D0007574663820666F6E74206E6F7420696E44
:1016E000697469616C697A65642E00000C0D00FEF6
:1016F00007022603BC017FFE08FE08FE0508080657
:10170000000040F0C8888898781005080806000096
:10171000C0F88888888888F805050506000120300B
:10172000F830200508080600002070F8202020204E
:10173000E00509090600FF2070A8A8B88888702075
:10174000050606060001E08CEA8C8A0A05090906EE
:1017500000FFF8A88888888888A8F8050A0A060083
:10176000FE205050505088A8A8887003030306003C
:101770000340A040FFFFFFFFFFFFFFFFFFFFFFFF52
:10178000FFFFFFFFFFFFFFFFFFFF0000000605FF59
:101790000107070602008080808080008003030329
:1017A000060105A0A0A005060606000050F850504E
:1017B000F8500509090600FF2070A8A07028A8703D
:1017C00020050707060000C8C810204098980507A4
:1017D0000706000040A0A040A8906801030306028D
:1017E000058080800309090601FF20404080808039
:1017F0004040200309090601FF804040202020408E
:10180000408005070706000020A8702070A820056A
:1018100005050600012020F820200203030601FF31
:10182000C04080050101060003F802020206010023
:10183000C0C00507070600000810102040408005C2
:101840000707060000708898A8C888700307070675
:10185000010040C040404040E0050707060000701E
:101860008808102040F8050707060000F808103027
:1018700008887005070706000010305090F8101017
:10188000050707060000F880F008088870050707BC
:10189000060000304080F0888870050707060000C9
:1018A000F80810102020200507070600007088881F
:1018B000708888700507070600007088887808100F
:1018C00060020505060100C0C000C0C00206060691
:1018D00001FFC0C000C04080030505060101204093
:1018E000804020050303060002F800F80305050602
:1018F0000101804020408005070706000070881025
:10190000202000200507070600007088B8A8B880CE
:1019100070050707060000708888F8888888050722
:1019200007060000F04848704848F0050707060021
:101930000070888080808870050707060000F048E6
:1019400048484848F0050707060000F88080F08006
:1019500080F8050707060000F88080F08080800589
:1019600007070600007088808098887005070706C2
:101970000000888888F8888888030707060100E047
:101980004040404040E005070706000038101010B6
:101990001090600507070600008890A0C0A09088FE
:1019A000050707060000808080808080F805070713
:1019B00006000088D8A888888888050707060000E0
:1019C0008888C8A898888805070706000070888856
:1019D00088888870050707060000F08888F08080F6
:1019E0008005070706000070888888A890680507AA
:1019F00007060000F08888F0A09088050707060019
:101A00000070888070088870050707060000F820BD
:101A10002020202020050707060000888888888865
:101A200088700507070600008888888850502005C0
:101A3000070706000088888888A8A85005070706B9
:101A40000000888850205088880507070600008815
:101A5000885020202020050707060000F8081020E5
:101A60004080F80309090601FFE0808080808080C3
:101A700080E00507070600008040402010100803A2
:101A800009090601FFE020202020202020E0050396
:101A9000030600052050880501010600FEF8030337
:101AA0000306010580402005050506000070087842
:101AB00088780507070600008080F0888888F00590
:101AC0000505060000708080887005070706000085
:101AD000080878888888780505050600007088F071
:101AE0008070050707060000304840E04040400590
:101AF00007070600FE7088888878087005070706C3
:101B000000008080F088888888030707060100406D
:101B100000C0404040E00409090601FE10003010FA
:101B2000101010906005070706000080808890E084
:101B30009088030707060100C04040404040E00590
:101B40000505060000D0A8A8A8A805050506000000
:101B5000B0C88888880505050600007088888870E8
:101B60000507070600FEF0888888F08080050707D3
:101B70000600FE78888888780808050505060000B4
:101B8000B0C880808005050506000078807008F0E8
:101B90000507070600002020F8202020180505056D
:101BA0000600008888889868050505060000888872
:101BB0008850200505050600008888A8A85005055E
:101BC0000506000088502050880507070600FE889B
:101BD000888850204080050505060000F810204048
:101BE000F80309090601FF204040408040404020A2
:101BF0000109090602FF8080808080808080800348
:101C000009090601FF804040402040404080050314
:101C10000306000248A890FF737465616C74684302
:101C2000686F70004D32342053256C642054256C4D
:101C300064004739322E392045257300473120464C
:101C40002564004739322E39205A25730047312048
:101C50005A30204632303000473120582573205901
:101C60002573204633303030004D34323020532538
:101C700069205A2573004D31303620502569205394
:101C80002569004D31303920532569004D313930F7
:101C900020532569004D32303020442573004739E8
:101CA000322E392045305A300A47315A320A4732EB
:101CB0003852305859004D343230205330205A3089
:101CC0000020506F7765722D4C6F737320526563DF
:101CD0006F7665727920446174610A00496E76619D
:101CE0006C6964004E6F00496E76616C69640A002D
:101CF00056616C69640A004E6F20504C520A0050C5
:101D00004C52204578697374730A00506F7765727E
:101D10002D6C6F7373207265636F76657279200026
:101D2000617869733A70776D5F7363616C652F6377
:101D30007572725F7363616C652F6D6563685F6C4C
:101D40006F61647C666C6167737C7761726E636FD0
:101D5000756E740A004452565F53544154555309EA
:101D60000050574D5F5343414C45090050574D4378
:101D70004F4E460900434F4F4C434F4E46090043D8
:101D8000484F50434F4E46090054484947480909B7
:101D90000054434F4F4C5448525309005450574D30
:101DA00054485253090054535445500909005450A3
:101DB0004F574552444F574E0900494F494E090964
:101DC00000475354415409090049484F4C445F4966
:101DD00052554E090047434F4E4609090073707231
:101DE0006561644379636C6500206472697665722D
:101DF000206D6F64653A090020647269766572200F
:101E000063757272656E743A200020707265776136
:101E1000726E20666C616720636C65617265640A2E
:101E20000020496E76616C6964206578747275640F
:101E3000657220004F7574616765205265636F7627
:101E400065727900436F6E66696775726174696F58
:101E50006E003F0043616E63656C003135300042B7
:101E600045443A486973656E732033393530005202
:101E7000756E617761792057617463683A204F4EBF
:101E8000004D61782054656D7000323735004D6922
:101E90006E2054656D700045313A20486973656E57
:101EA000732033393530005053550047656E6572E5
:101EB00069630050726F746F636F6C00312E300075
:101EC00042617564003235303030300052616D62ED
:101ED0006F0042696C696E656172204C6576656C55
:101EE000696E670045787472756465727300546832
:101EF000696E6B65722056325F424C5F3232303908
:101F000000323031392D31322D3031005072696E4E
:101F100074657220537461747300546865726D69DE
:101F200073746F727300426F61726420496E666FE2
:101F3000005072696E74657220496E666F004D3193
:101F40003030300053746F70205072696E740052DC
:101F50006573756D65205072696E740053746F708F
:101F6000004D3231004368616E6765204D656469DC
:101F7000610041626F7574205072696E7465720001
:101F800054756E65004E6F204D6564696100496E41
:101F9000666F2053637265656E00537461727420BE
:101FA0005072696E740043616E6E6F7420656E745A
:101FB0006572207375626469723A2000022E2E00E9
:101FC00024F4D43050C38E20C2A24017828B7011EB
:101FD000127A910D816CD90AA861E108C758660789
:101FE000615143061E4B5D05C145A7041A4111040A
:101FF000093D9803713931034036DB0265339102A4
:10200000D4305402802E1D02632CEE01752AC501C6
:10201000B028A001102781018F2564012B244B01DA
:10202000E0223401AC211F018D200D01801FFC0036
:10203000841EED00971DDF00B81CD200E61BC60011
:10204000201BBC00641AB200B219A8000A19A00033
:102050006A189900D117910040178B00B5168400BB
:1020600031167E00B31579003A157300C7146F005E
:1020700058146A00EE1366008813630025135E008F
:10208000C7125B006C12570015125400C1115100A9
:1020900070114F0021114B00D61049008D104700E0
:1020A0004610440002104200C00F4000800F3E0066
:1020B000420F3C00060F3B00CB0E3800930E37005A
:1020C0005C0E3500270E3400F30D3200C10D3100D7
:1020D000900D3000600D2E00320D2D00050D2C00EE
:1020E000D90C2B00AE0C2900850C29005C0C2700B4
:1020F000350C27000E0C2600E80B2400C40B24002E
:10210000A00B23007D0B23005A0B2100390B21006B
:10211000180B2000F80A1F00D90A1E00BB0A1E0077
:102120009D0A1D00800A1D00630A1C00470A1B004F
:102130002C0A1B00110A1A00F7091A00DD09190000
:10214000C4091900AB091900920917007B0918008E
:10215000630917004C0916003609160020091600FD
:102160000A091500F5081500E0081400CC08140051
:10217000B8081400A4081400900813007D08120089
:102180006B081300580812004608120034081100AA
:10219000230811001208110001081100F0071000B7
:1021A000E0071000D0071000C0071000B0070F00B4
:1021B000A107100091070E0083070F0074070F009E
:1021C00065070E0057070E0049070E003B070D007C
:1021D0002E070E0020070D0013070D0006070D0047
:1021E000F9060C00ED060D00E0060C00D4060C000C
:1021F000C8060C00BC060C00B0060C00A4060B00C0
:1022000099060C008D060B0082060B0077060B006A
:102210006C060B0061060A0057060B004C060A000C
:1022200042060A0038060A002E060A0024060A00A2
:102230001A060A001006090007060A00FD05090033
:10224000F4050900EB050900E2050900D9050900BC
:10225000D0050900C7050900BE050900B50508003D
:10226000AD050800A50509009C05080094050800B7
:102270008C050800840508007C050800740508002A
:102280006C050700650508005D0507005605080098
:102290004E05070047050700400508003805070000
:1022A000310507002A050700230507001C05060065
:1022B000160507000F0507000805060002050700C0
:1022C000FB040600F5040700EE040600E80406001F
:1022D000E2040700DB040600D5040600CF04060074
:1022E000C9040600C3040600BD040600B7040600C6
:1022F000B1040500AC040600A6040600A004050015
:102300009B04060095040500900406008A0405005D
:1023100085040500800406007A04050075040500A4
:10232000700405006B0405006604050061040500E7
:102330005C04050057040500520405004D04050027
:1023400048040500430405003E0404003A04050067
:1023500035040500300404002C04050027040400A3
:10236000230405001E0404001A04040016040500DA
:10237000110404000D040400090405000404040011
:1023800000040400FC030400F8030400F403040048
:10239000F0030400EC030400E8030400E403040079
:1023A000E0030400DC030400D8030400D4030400A9
:1023B000D0030400CC030400C8030300C5030300DA
:1023C00024F404D9201BC40C5C0E9804C4095F02D9
:1023D00065077101F405F900FB04B30048048700A8
:1023E000C10369005803550003034500BE023A00CB
:1023F0008402310053022A00290225000402200031
:10240000E4011C00C8011900AF0117009801140075
:1024100084011300710110006101100051010E00D0
:1024200043010D0036010B002B010B0020010B00B6
:10243000150109000C01090003010800FB00080058
:10244000F3000800EB000700E4000600DE000600D1
:10245000D8000600D2000600CC000500C700050029
:10246000C2000500BD000400B9000400B50004006E
:10247000B1000400AD000400A9000400A5000300A1
:10248000A20003009F0004009B00030098000300CB
:102490009500020093000300900003008D000200ED
:1024A0008B00030088000200860002008400030005
:1024B000810002007F0002007D0002007B0002001C
:1024C000790002007700010076000200740002002B
:1024D00072000100710002006F0002006D00010037
:1024E0006C0002006A000100690002006700010040
:1024F0006600010065000100640002006200010046
:1025000061000100600001005F0002005D00010049
:102510005C0001005B0001005A000100590001004D
:10252000580001005700010056000100550001004D
:10253000540001005300000053000100520001004C
:1025400051000100500001004F0001004E0000004A
:102550004E0001004D0001004C0001004B00000046
:102560004B0001004A000100490001004800000042
:10257000480001004700010046000000460001003D
:102580004500000045000100440001004300000038
:102590004300010042000000420001004100000031
:1025A00041000100400001003F0000003F00010029
:1025B0003E0000003E0001003D0000003D00010023
:1025C0003C0000003C0000003C0001003B0000001B
:1025D0003B0001003A0000003A0001003900000011
:1025E0003900010038000000380000003800010008
:1025F0003700000037000100360000003600000000
:1026000036000100350000003500000035000100F3
:1026100034000000340000003400010033000000EA
:1026200033000000330001003200000032000000DF
:1026300032000100310000003100000031000100D3
:102640003000000030000000300001002F000000CA
:102650002F0000002F0000002F0001002E000000BE
:102660002E0000002E0001002D0000002D000000B3
:102670002D0000002D0001002C0000002C000000A7
:102680002C0000002C0001002B0000002B0000009B
:102690002B0000002B0001002A0000002A0000008F
:1026A0002A0000002A000100290000002900000083
:1026B0002900000029000000290001002800000076
:1026C0002800000028000000280000002800010069
:1026D000270000002700000027000000270000005E
:1026E0002700010026000000260000002600000050
:1026F0002600000026000100250000002500000043
:102700002500000025000000250000002500010034
:102710002400000024000000240000002400000029
:10272000240001002300000023000000230000001B
:10273000230000002300000023000000230001000C
:102740002200000022000000220000002200000001
:1027500022000000220001002100000021000000F2
:1027600021000000210000002100000021000000E5
:1027700021000100200000002000000020000000D7
:1027800020000000200000002000000020000000C9
:10279000200001001F0000001F0000001F000000BB
:1027A0001F0000001F0000001F0000001F000100AC
:1027B0001E0000001E0000001E0000001E000000A1
:1027C000043700001E290000511B000058100000B3
:1027D00010090000CC040000780200004101000054
:1027E0002062797465733B206372632000536574C3
:1027F00074696E67732053746F7265642028004596
:102800004550524F4D206461746173697A6520654B
:1028100072726F722E0A002073746F726564207377
:10282000657474696E677320726574726965766524
:1028300064202800202863616C63756C6174656492
:1028400029210A0020213D2000454550524F4D20AE
:10285000435243206D69736D61746368202D202895
:1028600073746F726564292000496E6465783A203C
:1028700000204D61726C696E3D563734290A00455F
:102880004550524F4D2076657273696F6E206D69A9
:10289000736D617463682028454550524F4D3D006B
:1028A0000000964300009B430000C84345737465D5
:1028B00070732F6D6D005A73746570732F6D6D009A
:1028C0005973746570732F6D6D00587374657073F0
:1028D0002F6D6D00496E6974004D34323800496EB9
:1028E000697469616C697A6520454550524F4D00A5
:1028F00053746570732F6D6D00416363656C657211
:102900006174696F6E0056656C6F6369747900530A
:10291000657420486F6D65204F666673657473003B
:102920004661646520486569676874004732380A03
:10293000473239004C6576656C2042656400436D12
:10294000643A2053572D4D6F646500436D643A20FF
:1029500053746F7700436D643A204465706C6F79EF
:1029600000436D643A2053656C662D5465737400A2
:10297000436D643A2052657365740046616E20535E
:1029800070656564006F70656E0054524947474535
:10299000524544007A5F6D696E00795F6D696E0023
:1029A000785F6D696E005265706F7274696E672032
:1029B000656E6473746F70207374617475730A004C
:1029C00020436F756E7420583A0020453A00486FD6
:1029D0006D696E67204661696C6564005761726E4F
:1029E000696E673A20486F6D696E672042756D7039
:1029F0002044697669736F72203C20310A00000020
:102A000000000000204100000000000048420000DB
:102A10004842000080400202040000000000000064
:102A2000000000004000009643000096430000C8EC
:102A300043FFFFFF687474703A2F2F6D61726C69E9
:102A40006E66772E6F726700322E302E78004D3111
:102A5000303030205300205049445F64543A002005
:102A6000643A002069693A0020703A002020506CD6
:102A7000616E6E65724275666665724279746573E1
:102A80003A20002046726565204D656D6F72793A77
:102A90002000436F6D70696C65643A204A756C2044
:102AA000203420323032300A00204C6173742055BB
:102AB0007064617465643A20323031392D31322DC1
:102AC0003031207C20417574686F723A20286E6F17
:102AD0006E652C2064656661756C7420636F6E662C
:102AE0006967290A00322E302E780A004D61726C17
:102AF000696E0020536F667477617265205265734A
:102B000065740A00205761746368646F67205265BA
:102B10007365740A002042726F776E206F7574209F
:102B200052657365740A002045787465726E616C35
:102B30002052657365740A00506F77657255700A8C
:102B4000006175746F25632E67004732385859004D
:102B50006572726F722077726974696E6720746F24
:102B60002066696C650A00446F6E65207361766942
:102B70006E672066696C652E0A004D323900456E1D
:102B80006473746F707300255320256320256320C0
:102B9000256320256300205A3A0020593A00656ECB
:102BA0006473746F7073206869743A200001FFFFCA
:102BB000FFFFFFFFFFFFFFFFFFFFFF0FFFFFFFFF15
:102BC000FFFFFFFFFFFFFFFFFF1E000000000000F0
:102BD0000000000007FFFF380000000000000000B8
:102BE000000003FFFF700000000000000000000074
:102BF00001FFFF600000000000000000000000FF77
:102C0000FF6000000000000000000000007FFFC027
:102C100000000000000000007800003FFFC00FC06F
:102C2000FC00000000007818001FFFC03FE1FF001B
:102C300000000000783C000FFFC07FF3FF80000021
:102C40000000783C0007FFC0FFFFFFC0000000004D
:102C5000783C0003FFC1F87F87E0000000007800A7
:102C60000001FFC1F03F03E0000000007800000019
:102C7000FFC1E01E01E01F0003E0783C03F07FC1CC
:102C8000E01E01E07FC00FF8783C07FC3FC1E01E6A
:102C900001E1FFE01FFC783C0FFE1FC1E01E01E3D5
:102CA000FFF03FFE783C1FFE0FC1E01E01E3F3F88A
:102CB0003F3E783C3F3F07C1E01E01E7E0FC7C1F40
:102CC000783C3E1F07C1E01E01E7C07C7C0F783CCA
:102CD0003C0F03C1E01E01E7807C780F783C3C0F7D
:102CE00003C1E01E01E7803C7800783C3C0F03C143
:102CF000E01E01E7803C7800783C3C0F03C1E01EF9
:102D000001E7803C7800783C3C0F03C1E01E01E7FE
:102D1000C03C7800783C3C0F03C1E01E01E3E03C7E
:102D200078007C3C3C0F03C1E01E01E3FF3FF8004C
:102D30007FBC3C0F03C1E01E01E1FF3FF8003FBF35
:102D4000FC0F03C1E01E01E0FF3FF8001FBFFC0FB6
:102D500003C1E01E01E07F3FF8000FBFFC0F0360DE
:102D600000000000000000000000000007600000FC
:102D700000000000000000000000067000000000DD
:102D800000000000000000000E38000000000000FD
:102D90000000000000001C1E0000000000000000F9
:102DA00000000000780FFFFFFFFFFFFFFFFFFFFFA6
:102DB000FFFFF001FFFFFFFFFFFFFFFFFFFFFFFF30
:102DC000804D6F74696F6E004175746F20486F6D30
:102DD000650054656D7065726174757265004D387B
:102DE000340044697361626C65205374657070656A
:102DF000727300473238205A00486F6D65205A00C0
:102E0000473238205900486F6D65205900473238E5
:102E1000205800486F6D65205800473238005072C6
:102E2000656865617420504C4120456E64005072A5
:102E3000656865617420504C4120426564005072A1
:102E40006568656174204142532042656400507298
:102E500065686561742041425320456E6400436F8C
:102E60006F6C646F776E0020746F6F206C6F6E678D
:102E700020657874727573696F6E207072657665FF
:102E80006E7465640A0020636F6C642065787472E8
:102E90007573696F6E2070726576656E7465640A0D
:102EA00000496E736572742066696C616D656E743D
:102EB00020616E6420707265737320627574746F24
:102EC0006E0A00220A00556E6B6E6F776E20636F7C
:102ED0006D6D616E643A2022007C3C3E5E2B3D3F6E
:102EE0002F5B5D3B2C2A225C00506C656173652072
:102EF0005265736574005052494E54455220484102
:102F00004C5445440025533A202553004B494C4C22
:102F100045442E20005072696E7465722068616CA1
:102F20007465642E206B696C6C28292063616C6C5D
:102F30006564210A006563686F3A004572726F72BA
:102F40003A0066616C736500747275650042696C65
:102F5000696E656172204C6576656C696E672047A5
:102F60007269643A0A0053544F505045442E200071
:102F70005072696E7465722073746F70706564202E
:102F800064756520746F206572726F72732E2046AF
:102F9000697820746865206572726F7220616E6452
:102FA00020757365204D39393920746F207265732F
:102FB000746172742E202854656D70657261747529
:102FC00072652069732072657365742E2053657471
:102FD0002069742061667465722072657374617211
:102FE00074696E67290A0053544F502063616C6CFA
:102FF00065642062656361757365206F6620424C6D
:10300000546F756368206572726F72202D2072652F
:1030100073746172742077697468204D3939390A84
:1030200000486F74656E6420746F6F20636F6C640A
:103030000A004D3630303A20546F6F20436F6C6475
:1030400000507265737320627574746F6E20746FB4
:1030500020726573756D650A005072657373206226
:103060007574746F6E20746F2068656174206E6F64
:103070007A7A6C650A006F70656E206661696C65AE
:10308000642C2046696C653A20004472697665724A
:10309000207265676973746572733A0A00733276D9
:1030A000736209007332767361090031323043096B
:1030B00000313433430900313530430900313537AD
:1030C0004309006F7409006F7470770900733267E9
:1030D0006109007332676209006F6C6109006F6CEF
:1030E0006209007374737409004452565354415476
:1030F0005553005374616C6C677561726420746819
:103100007273002D73746172740900687973746549
:1031100072657369730A2D656E640900626C616E75
:103120006B2074696D65006F66662074696D65005B
:103130004F54207072657761726E206861730A6205
:1031400065656E20747269676765726564004F54C7
:10315000207072657761726E005B6D6D2F735D0913
:103160000070776D0A7468726573686F6C640074C0
:103170007374657009006D737465707309007673FC
:10318000656E7365090050574D207363616C65006F
:1031900043532061637475616C00486F6C642063F5
:1031A000757272656E740052756E20637572726509
:1031B0006E74004D41582063757272656E740052D2
:1031C0004D532063757272656E740053657420638D
:1031D000757272656E7400456E61626C656409009B
:1031E0004164647265737309004C4F570048494746
:1031F00048004F4B004572726F723A20416C6C2050
:103200000020636F6E6E656374696F6E2E2E2E20C4
:103210000054657374696E672000544D4320434F1A
:103220004E4E454354494F4E204552524F52003066
:103230003D2E33323500313D2E3138004F66660069
:103240004F6E00544D43204472697665727300508E
:10325000726F6265205A204F66667365740046611E
:103260006E205370656564203D004E6F7A7A6C6500
:10327000004D61696E00537465616C746843686FDA
:103280007020456E61626C6564005374657070698E
:103290006E67204D6F64650053656E736F726C6569
:1032A000737320486F6D696E67004472697665724A
:1032B0002043757272656E7400436F6E74726F6C2A
:1032C00000466C6F77004C6F6164205365747469BD
:1032D0006E67730053746F72652053657474696E02
:1032E000677300416476616E63656420536574742E
:1032F000696E677300554E4C4F41442046494C411E
:103300004D454E540046494C414D454E542043488E
:10331000414E474500526573746F7265206661695E
:103320006C73616665005072656865617420414226
:103330005320436F6E66005072656865617420505B
:103340004C4120436F6E6600424C546F75636800B9
:103350004D37303220542564004D36303020423015
:1033600020542564004D373032203B2564004D3712
:10337000303120542564004D373032004D37303124
:10338000004D36303020423000436F6E74696E75E8
:1033900065005075726765206D6F72650052455308
:1033A000554D45204F5054494F4E533A00505249C5
:1033B0004E54205041555345440020204E6F7A7A98
:1033C0006C653A2000256C642E25696D0045787483
:1033D000727564656420546F74616C004C6F6E6725
:1033E000657374204A6F622054696D65003E200049
:1033F000546F74616C205072696E742074696D65CD
:1034000000436F6D706C65746564005072696E7412
:1034100020436F756E74005061726B696E672E2E5B
:103420002E0000005761697420666F720066696C37
:10343000616D656E74206368616E676500746F20EE
:103440007374617274005761697420666F720066EC
:10345000696C616D656E7420756E6C6F61640000DF
:103460004E6F7A7A6C652068656174696E6700508A
:103470006C6561736520776169742E2E2E00005093
:103480007265737320627574746F6E00746F206858
:10349000656174206E6F7A7A6C650000496E7365A1
:1034A00072742066696C616D656E7400616E642073
:1034B000707265737320627574746F6E00746F2020
:1034C000636F6E74696E7565005761697420666F0D
:1034D000720066696C616D656E74206C6F6164006A
:1034E00000507265737320427574746F6E00746F50
:1034F00020726573756D65207072696E7400005777
:1035000061697420666F72207072696E7400746FE6
:1035100020726573756D652E2E2E000057616974DB
:1035200020666F720066696C616D656E74207075DF
:103530007267650000453100626564002C20737974
:103540007374656D2073746F7070656421204865B5
:10355000617465725F49443A200048656174696E20
:1035600067204661696C65640048656174696E67CF
:10357000206661696C656400202D20496E76616C5F
:103580006964206578747275646572206E756D6209
:10359000657220210A00544845524D414C20525535
:1035A0004E4157415900546865726D616C205275E7
:1035B0006E61776179004572723A204D41585445E9
:1035C0004D50004D415854454D5020747269676705
:1035D00065726564004572723A204D494E54454DFE
:1035E00050004D494E54454D5020747269676765CF
:1035F000726564004D383420582059205A20450007
:10360000202F002042403A0020403A0020573A0044
:103610000040012C0173012201AB011801F3010EDE
:103620000148020401AC02FA002A03F000C303E6D9
:10363000008004DC006D05D2006C06C800C707BE20
:10364000007009B4006D0BAA00CB0DA000CF138C45
:1036500000F21B7800E9246400142E50009C353CD5
:1036600000B83A2800A03D14000B3F0000202020A5
:103670002020202000256C6425636D001FE02010B1
:103680002010201010201020201020103030084072
:10369000048003001FE03FF03FF03FF01FE01FE019
:1036A0003FF03FF03FF00FC0078003003FFFF038CE
:1036B000007030FC3020FC102078102030102C00DE
:1036C000D02E31D02F7BD02F7BD02E31D02C00D0DC
:1036D00020301020781020FC1030FC303800703F73
:1036E000FFF03FFFF03800703186302387102787C6
:1036F000902F87D02F03D020301020781020781002
:103700002030102F03D02F87D027879023871031A8
:1037100086303800703FFFF01FFFF81FFFF80410DD
:1037200040020820020820041040082080104100B8
:103730001041000820800410400000001FFFF81F07
:10374000FFF82053697A653A200043616E6E6F740A
:10375000206F70656E207375626469722000534437
:103760002063617264206F6B0A006F70656E526F28
:103770006F74206661696C65640A00766F6C756DA4
:10378000652E696E6974206661696C65640A005310
:103790004420696E6974206661696C0A004D323399
:1037A0002025730057726974696E6720746F2066F4
:1037B000696C653A200046696C652073656C6563C9
:1037C0007465640A0046696C65206F70656E656497
:1037D0003A2000667265736800646F696E67004E18
:1037E0006F772000454E4420535542524F5554495F
:1037F0004E450A002220706F7300222070617265AE
:103800006E743A2200535542524F5554494E45204A
:1038100043414C4C207461726765743A22007472A3
:1038200079696E6720746F2063616C6C20737562B8
:103830002D67636F64652066696C657320776974B2
:103840006820746F6F206D616E79206C6576656C91
:10385000732E204D4158206C6576656C2069733A53
:10386000310A0044656C6574696F6E206661696C2D
:1038700065642C2046696C653A200046696C6520B9
:1038800064656C657465643A00506F7765722D6C81
:103890006F73732066696C652064656C6574650080
:1038A0005072696E742066726F6D204D6564696137
:1038B00000205A3A200020593A20004265642058DE
:1038C0003A20004368616E67652046696C616D65EA
:1038D0006E7400556E6C6F61642046696C616D6535
:1038E0006E74004C6F61642046696C616D656E7426
:1038F00000507265686561742041425300507265E2
:103900006865617420504C4100507265686561744F
:1039100020437573746F6D004261636B0050726F6A
:1039200062696E67204661696C65640A0050726F57
:1039300062696E67204661696C656400486F6D65F9
:1039400020257325732573204669727374004D69B1
:1039500063726F737465707320756E617661696CE4
:1039600061626C650A0045313A200045303A20001A
:103970004D53312C4D53322C4D53332050696E73BF
:103980000A583A20005072696E7420506175736550
:1039900064005061757365205072696E74004D65E6
:1039A0006469612052656D6F766564004D65646978
:1039B0006120496E736572746564005468696E6B4A
:1039C00065722056325F424C5F3232303920526588
:1039D0006164792E005072696E74696E672E2E2EA6
:1039E000005072696E742041626F72746564004D9C
:1039F000323520500A4D32340000002100240027C7
:103A0000002A002D003000330001010000040107EE
:103A1000010A0100002200250028002B002E0031A1
:103A200000340002010000050108010B0100002024
:103A3000002300260029002C002F00320000010086
:103A40000003010601090105050505070508080829
:103A500008020202020A0A0808040404040101011F
:103A60000101010101030303030303030304070727
:103A7000070C0C0C0C0C0C0C0C02020202060606C5
:103A800006060606060B0B0B0B0B0B0B0B07070AA8
:103A90000A0A0A0A0A0505050404040808010210B6
:103AA0002020080810204010204080020102010858
:103AB0000402010102040810204080804020100808
:103AC0000402018004020180402010080402010861
:103AD00004020101020408102040800102040810C1
:103AE00020408010080408801020400440801020EE
:103AF00040048000000A0B02090C0D0E08070304A5
:103B000001000000000000000000000000000000B4
:103B10000000000000000000000000000000001293
:103B20001110000000000000000000000000000074
:103B30000000000000000000000000000000000085
:103B40000000000000000000004D6F766520257326
:103B50006D6D004D6F766520302E316D6D004D6FAF
:103B6000766520316D6D004D6F76652031306D6D5D
:103B7000004D6F7665204178697300486F74656EFB
:103B80006420746F6F20636F6C6400457874727585
:103B9000646572004D6F7665205A004D6F76652022
:103BA00059004D6F7665205800205400205200487F
:103BB000617264636F6465642044656661756C74EA
:103BC0002053657474696E6773204C6F616465641B
:103BD0000A0020204D3930360020204D3931340084
:103BE00020204D3536392053310020204D363033DA
:103BF000200020550046696C616D656E74206C6F05
:103C000061642F756E6C6F6164206C656E6774689B
:103C1000733A0A0044726976657220737465707035
:103C2000696E67206D6F64653A0A005374616C6C4D
:103C30004775617264207468726573686F6C643A6A
:103C40000A0020543020450053746570706572205E
:103C50006472697665722063757272656E743A0A71
:103C60000020204D3835312058005A2D50726F6297
:103C700065204F66667365740020204D3431332013
:103C80005300506F7765722D4C6F737320526563CC
:103C90006F766572793A0A0020204D333034205017
:103CA0000020204D333031205000504944207365AE
:103CB0007474696E67733A0A002046002048002039
:103CC000204D3134352053004D6174657269616C4B
:103CD0002068656174757020706172616D657465CE
:103CE00072733A0A00204A002020473239205720B8
:103CF000490020204D3432302053004175746F202C
:103D0000426564204C6576656C696E673A0A0020EE
:103D1000204D323036205800486F6D65206F666642
:103D20007365743A0A0020204D323035204200205D
:103D3000453C6D61785F655F6A65726B3E00205837
:103D40003C6D61785F785F6A65726B3E20593C6DAF
:103D500061785F795F6A65726B3E205A3C6D61786D
:103D60005F7A5F6A65726B3E00416476616E63657F
:103D7000643A20423C6D696E5F7365676D656E7471
:103D80005F74696D655F75733E20533C6D696E5F4E
:103D900066656564726174653E20543C6D696E5F52
:103DA00074726176656C5F66656564726174653EA8
:103DB0000020204D323034205000416363656C6533
:103DC000726174696F6E2028756E6974732F733217
:103DD000293A20503C7072696E745F616363656C50
:103DE0003E20523C726574726163745F6163636507
:103DF0006C3E20543C74726176656C5F61636365F0
:103E00006C3E0A0020204D3230312058004D617840
:103E1000696D756D20416363656C65726174696F6E
:103E20006E2028756E6974732F7332293A0A002048
:103E3000204D3230332058004D6178696D756D200A
:103E40006665656472617465732028756E69747344
:103E50002F73293A0A0053746570732070657220BD
:103E6000756E69743A0A0020204D3230302044309B
:103E70000A0020204D323030204400204469736114
:103E8000626C65640A0046696C616D656E742073CE
:103E9000657474696E67733A0020204D313439209F
:103EA00043203B20556E69747320696E2043656C16
:103EB000736975730A0020286D6D29002020473230
:103EC00031202020203B20556E69747320696E20BC
:103ED0006D6D00000096430000964300000C420008
:103EE00000C8410000A0420000A0420000C84300FA
:103EF00000BA42DC050000DC05000096000000DC92
:103F00000500004F666673657473204170706C69BC
:103F10006564004572723A20546F6F2066617221A9
:103F200000546F6F206661722066726F6D2072653B
:103F3000666572656E636520706F696E740A004312
:103F400061703A00436C69636B20746F2052657333
:103F5000756D652E2E2E0050726F6265204F66665D
:103F6000736574205A0050726F6265204F666673E5
:103F700065745A3A20003F5A206F7574206F66208E
:103F800072616E67652028003F59206F7574206F3D
:103F9000662072616E676520282D003F58206F757E
:103FA00074206F662072616E676520282D00507244
:103FB0006F6265204F6666736574205800006E025C
:103FC000B80411241FBECFEFD1E2DEBFCDBF00E0A9
:103FD0000CBF13E0A0E0B2E0E0EBF3ED02E00BBFBA
:103FE00002C007900D92A23BB107D9F728E1A2EBDE
:103FF000B3E001C01D92A539B207E1F71FE1C0EEA1
:10400000DFE100E006C021970109802FFE010F9437
:10401000E965CF3DD10780E00807A9F70F949E4FCF
:104020000D94C6690C9400002F923F924F925F92BC
:104030006F927F928F929F92AF92BF92CF92DF92B8
:10404000EF92FF920F931F93CF93DF93CDB7DEB71D
:10405000C555D1090FB6F894DEBF0FBECDBF669629
:104060008FAF66972091950725962FAF259781E012
:104070008093950780918A188D3409F408C484359B
:1040800011F40C94EA31873411F00C94053220902D
:104090008818309089183BE12316310409F418C1BF
:1040A000C4F454E02516310444F482E028163104A7
:1040B0000CF041C037FE33C0E6C394E0291631044A
:1040C00009F4C7C0A5E12A16310411F40C94073293
:1040D000DAC3BAE22B16310409F4AEC26CF4FDE186
:1040E0002F16310409F41EC10CF40CC13EE1231655
:1040F000310409F42BC1C7C34BE52416310409F47C
:10410000E5C15CE52516310409F4E5C18AE5281608
:10411000310409F0B8C31092BB030C9407328091AC
:104120007002882311F40C9407320E94B67E0E941C
:10413000A9BA0C94073280917002882311F40C9470
:1041400007320E94B67E82E50E9440F8882309F477
:104150004EC00E94C0F76B017C0120E030E0A90155
:104160000F94FC5E882311F40C94CF32209141020D
:104170003091420240914302509144022CA33DA34E
:104180004EA35FA38091450290914602A091470201
:10419000B091480288A799A7AAA7BBA780909C05C1
:1041A00090909D05A0909E05B0909F054090A00521
:1041B0005090A1056090A2057090A305A5019401FF
:1041C0006CA17DA18EA19FA10F94FC5E81110C9426
:1041D0001432A301920168A579A58AA59BA50F9425
:1041E000FC5E882311F40C94CF320C94143289E4D1
:1041F0000E9440F8882329F00E94C0F76B017C01DF
:1042000003C0C12CD12C76018AE40E9440F8882397
:1042100011F40C94D6320E94C0F76CA77DA78EA72C
:104220009FA720E030E0A901C701B6010F94FC5E12
:1042300081110C94E33220E030E0A9016CA57DA54A
:104240008EA59FA50F94FC5E81110C94E3320C9413
:10425000CF3280E50E9440F8882329F00E94615403
:104260006B017C0103C0C12CD12C760183E50E9437
:1042700040F8882361F00E94C0F720E030E04AE770
:1042800054E40F94625F0F949C676B017C010E9461
:10429000579D8091B117811105C060E085E19BE0D9
:1042A0000F94463A0F945641C60ED71EE81EF91ECB
:1042B0000F945641DC01CB018C199D09AE09BF0951
:1042C000B7FD02C00C94073280E00E94FB3CF0CFA7
:1042D0000F94072781110C9407328CE0E9E8F2E093
:1042E000DE01119601900D928A95E1F760E070E091
:1042F00080E50E941D89BE016F5F7F4F0F94F738E4
:104300000C940732809185178770873011F00C94D8
:10431000723660E08FE40E94295881110C940732B4
:104320000C9472360F94072781110C9407328091F8
:10433000C105882311F40C94C73760E08FE40E9414
:10434000295881110C9407320C94C73720917917A2
:1043500030917A1740917B1750917C176091410200
:104360007091420280914302909144020F94296619
:10437000AB01BC0188E50E94116B69837A838B8352
:104380009C8320917D1730917E1740917F1750912B
:10439000801760914502709146028091470290918A
:1043A00048020F942966AB01BC0189E50E94116B9C
:1043B0006D837E838F839887BE016B5F7F4FCE01B5
:1043C00001960E94F554882311F40C94073280E082
:1043D0000E940FE80E949DBD61E085E40E9429587B
:1043E00021E0482FBE016B5F7F4FCE0101960F94F5
:1043F0005D276B017C019B01AC010F941B6981114E
:104400005FC089809A80AB80BC8020E030E0A90149
:10441000C501B4010F94FC5E87FF05C027E137EBAF
:1044200041E558EB04C027E137EB41E558E3C5010E
:10443000B4010F942966AB01BC018BEB98E30E9499
:10444000EFEC8D809E80AF80B88420E030E0A90141
:10445000C501B4010F94FC5E87FF05C027E137EB6F
:1044600041E558EB04C027E137EB41E558E3C501CE
:10447000B4010F942966AB01BC0186EB98E30E945E
:10448000EFEC20E030E0A901C701B6010F94FC5E1B
:1044900087FF05C067E177EB81E598EB04C067E132
:1044A00077EB81E598E3A70196010F942966AB01AC
:1044B000BC0181EB98E30E94EFEC8AE00E94CF3BC5
:1044C0000E9484BD0E94A0C00C9407328FE08093AC
:1044D000BB030C94073280918718882349F18930F7
:1044E00009F0A6C035E9A32E32E0B32E41E4E42E54
:1044F00042E0F42ED12C00E010E0D5018D915D0159
:104500000E9440F8882369F00E94C0F7F701608399
:10451000718382839383133011F401E002C0DD24A0
:10452000D3941F5FF4E0EF0EF11C143031F775C027
:1045300085E9282E82E0382E90E9E92E95E0F92EC3
:1045400021E432E03DA32CA32DE6C22E27E1D22E9A
:1045500000E010E0D1018D911D010E9440F88823F8
:1045600009F44BC00E94C0F72B013C01133049F005
:10457000F60120813181428153810F9428662B01FD
:104580003C01ACA1BDA12D913D914D915C91C30128
:10459000B2010F9428664B015C012DEB37E346E82E
:1045A00055EB0F94896887FD0AC02DEB37E346E889
:1045B00055E3C501B4010F94FC5E1816F4F41330F2
:1045C00051F440924D0250924E0260924F0270920E
:1045D000500201E012C0A5019401F70160817181D0
:1045E000828193810F942966D7016D937D938D937A
:1045F0009C931397812F0E94ECB91F5FB4E0EB0EE0
:10460000F11CECA1FDA13496FDA3ECA3F4E0CF0EC8
:10461000D11C143009F09ECF05C0DD2019F00E9496
:1046200065BF06C0002321F08DE492E00E94689DE2
:104630000E94A0C00C94073280917002882311F46C
:104640000C94073289E40E9440F8E82E882321F078
:104650000E94BCF7082F01C000E08AE40E9440F8E5
:10466000F82E882321F00E94BCF7182F01C010E01B
:10467000EE2011F0033020F4FF2041F0133030F031
:104680008EE59BE00E9431EC0C94073280E1E1E47E
:10469000F2E0ACE9B5E001900D928A95E1F7EE20E9
:1046A00019F1602F000F770B880B990B0F94035FA4
:1046B00020913118309132184091331850913418AC
:1046C0000F94625F20917B0530917C0540917D05C0
:1046D00050917E050F94296660939C0570939D050B
:1046E00080939E0590939F05FF2019F1612F110F74
:1046F000770B880B990B0F94035F2091351830913D
:10470000361840913718509138180F94625F2091F5
:104710007F053091800540918105509182050F946D
:1047200029666093A0057093A1058093A2059093DC
:10473000A30560E080E50E9429588823C1F1EE209E
:10474000D1F02091791730917A1740917B175091D1
:104750007C1760919C0570919D0580919E059091BC
:104760009F050F94286660939C0570939D05809328
:104770009E0590939F05FF20D1F020917D173091E9
:104780007E1740917F17509180176091A00570911E
:10479000A1058091A2059091A3050F9428666093CE
:1047A000A0057093A1058093A2059093A30540E016
:1047B00050E0BA0186E40E94116B6B017C0120E09D
:1047C00030E0A9010F94896818165CF420E030E00D
:1047D00040E752E4C701B6010F9423676B017C01E7
:1047E00003C0C12CD12C760180907C0290907D0278
:1047F000A0907E02B0907F0220E030E0A901C701C6
:10480000B6010F94FC5E882341F0C0927C02D092E6
:104810007D02E0927E02F0927F0200912E021091C2
:104820002F0284E690E090932F0280932E02C09096
:104830005102D0905202E0905302F090540280E076
:1048400090E0A0E8BFE38093510290935202A093BE
:104850005302B09354020E94A9BA80927C029092B3
:104860007D02A0927E02B0927F0210932F020093ED
:104870002E02C0925102D0925202E0925302F09264
:1048800054020C9407320E944DD90C9407320091C7
:104890008818109189180B39110509F409C60CF014
:1048A0003BC10335110509F44AC60CF0A2C00B3117
:1048B000110509F421C30CF05AC00531110509F4A2
:1048C00088C2C4F50131110509F47FC24CF40230ED
:1048D000110510F00C94E7310F94F34C0C9407324F
:1048E0000231110509F432C60431110511F00C949E
:1048F000E7318CE89BE00E9431EC89E992E10E946B
:1049000020DD8BE1E9E9F2E1DE01119601900D92E3
:104910008A95E1F760E070E0CE0101960F942125C1
:10492000CE0101960E94CB518DE79BE00E9431ECB5
:104930000C9407320831110509F469C274F4063188
:10494000110509F44AC20731110511F00C94E73141
:10495000E0918518F09186184DC20931110509F4CE
:10496000B2C20A31110509F4B9C20C94E7310A3216
:10497000110509F478C3FCF40E31110509F419C3CB
:1049800084F40C31110509F40AC30D31110511F03D
:104990000C94E73180917C128E7F80937C120C9472
:1049A00007320F31110509F43EC30032110509F435
:1049B00010C30C94E7310D34110509F47BC36CF47A
:1049C0000B34110509F472C30C34110511F00C9469
:1049D000E7310E94FAAA0C9407320135110509F457
:1049E0008DC50CF0A5C50E34110509F467C30C94F0
:1049F000E7310037110509F415C5E4F50A3611054C
:104A000009F485C4CCF40C35110509F4BBC554F484
:104A10000435110509F49AC50535110509F499C540
:104A20000C94E7310836110509F4DAC3093611058B
:104A300009F457C40C94E7310D36110509F4F4C399
:104A40007CF40B36110509F486C40C36110511F0FF
:104A50000C94E73110929407109240020C940732A4
:104A60000E36110509F486C40F36110509F495C4F4
:104A70000C94E7310737110509F4CDC62CF503373F
:104A8000110509F41DC67CF40137110509F4D2C4DF
:104A90000237110511F00C94E7310E94579D0E94D6
:104AA000A0C00C9407320537110509F472C6063709
:104AB000110511F00C94E7310091851810918618BA
:104AC00094E0F12C40E08BC60A37110511F40C94E8
:104AD00016318CF40837110509F4A0C60937110501
:104AE00011F00C94E7311092F6051092F5050E9432
:104AF0000EC20C9407320C38110509F4BDC40139FB
:104B0000110509F493C60D37110511F00C94E73126
:104B10000E9450880C9407320D3921E0120711F4DD
:104B20000C94E1310CF096C0083141E0140711F407
:104B30000C94D52DECF50D3C110509F461C7E4F496
:104B4000093C110509F41AC754F40E3B110509F488
:104B5000ACC4083C110509F4C4C60C94E7310B3C05
:104B6000110509F42EC70C3C110511F00C94E73126
:104B70000E94EB530C9407320C3D110509F466C7F3
:104B80006CF40E3C110509F43EC7033D110511F00C
:104B90000C94E7310E9441520C9407320D3D1105EF
:104BA00009F461C7023E110509F4B3C70C94E7315B
:104BB000003381E0180711F40C94042F1CF50D321A
:104BC000A1E01A0711F40C94842E6CF40232E1E097
:104BD0001E0711F40C946C2E0C32114011F40C943D
:104BE0006F2E0C94E7310E3221E0120711F40C9471
:104BF000772F0F32114011F00C94E7310E94286B8F
:104C00000C940732003941E0140711F40C94BB2FC7
:104C10007CF40E3581E0180711F40C949E310F35A9
:104C2000114011F00C94E7310E94D1510C940732DD
:104C30000239A1E01A0711F40C94C42F14F40C9457
:104C4000BE2F0A39114011F00C94E7310E9413393C
:104C50000C9407320B35F2E01F0711F40C9460300E
:104C60000CF04DC0063F31E0130711F40C943830BE
:104C70001CF50C3A51E0150711F40C9432306CF429
:104C8000043A91E0190711F40C94CA2F053A114027
:104C900011F40C94CD2F0C94E731043FB1E01B07C5
:104CA00011F40C943530053F114011F00C94E731AC
:104CB0000F9447450C9407320C30F2E01F0711F4B3
:104CC0000C9455306CF4073F31E0130711F40C9449
:104CD0003B30083F114011F40C9444300C94E73100
:104CE000093352E0150711F40C941C3108351240B9
:104CF00011F00C94E7310E9458870C9407320C385D
:104D000093E0190711F40C94073144F50335B3E02F
:104D10001B0711F40C945D307CF40D3BF2E01F078F
:104D200011F40C94D7300E3B124011F00C94E73183
:104D30000E9436850C9407320A3833E0130711F4C9
:104D40000C9419310B38134011F00C94E73125E91C
:104D5000E22E22E0F22E10E00C94DD30023953E016
:104D6000150711F40C9454317CF40F3893E01907B3
:104D700011F40C941F310039134011F00C94E731F9
:104D80000E9405800C940732073EB3E01B0711F424
:104D90000C94D331083EE3E01E0711F40C94E43187
:104DA000003A134011F00C94E731209185183091AE
:104DB000861890917C12926090937C1240E060E0A3
:104DC000C9010F9400240C9407320E9482530C9462
:104DD00007320F94C9200C9407320F945820809109
:104DE0007C12877F80937C120C940732803209F406
:104DF0001082319680818111F9CF40E061E080918D
:104E00008518909186180F9400240C94073283E53E
:104E10000E9440F8882321F00E9488F70E94927334
:104E200084E50E9440F88823A9F00E9488F76B016E
:104E30007C010E94DFAAC0922305D0922405E09253
:104E40002505F0922605CD28CE28CF2819F081E03F
:104E500080932B058091FC158823E9F080E090E099
:104E6000A8ECB2E488A399A3AAA3BBA31C8E1D8EB1
:104E70001E8E1F8E19821A821B821C8220E0AE01B8
:104E8000405E5F4FBE01645E7F4FCE0101960E947F
:104E900035EE0C9407320E945539882381F00F9427
:104EA00069200E94793986EA96E10F940E201092CB
:104EB0005704109258041092590410925A040F94F7
:104EC000F23A0C94073280917C1282FF03C08B7FF0
:104ED00080937C120E9450880C94073280917C123F
:104EE00083FD02C00C94073283E50E9440F88111D3
:104EF0000C94CA370C94073283E40E94F7F7882396
:104F000019F187EA9BE00E9431EC8091E01388233D
:104F100091F0BE016F5F7F4F8DED93E10E9497E0AE
:104F20008E010F5F1F4FD8018D918D01882339F0BD
:104F30000E94CF3BF8CF8DE99BE00E9431EC8AE0E4
:104F40000E94CF3B0C94073280917C1282FF21C0DB
:104F500086EB9BE00E9431EC60917812709179129F
:104F600080917A1290917B124AE00E94D63B8FE2A8
:104F70000E94CF3B609174127091751280917612ED
:104F8000909177124AE00E94D63B0E94D43C0C9448
:104F9000073288EC9BE00E9431EC0C94073240E031
:104FA00060E080918518909186180F9400240C94ED
:104FB000073280917C1283FD02C00C9407320E945C
:104FC00036D980918518909186180F9432230C94CD
:104FD000073280917C1282FD0E94579D80917C1245
:104FE00083FD02C00C94073260E080E50E942958DE
:104FF000182F482F61E080918518909186180F94A2
:10500000002483E50E9440F8882321F00E9488F75D
:105010000E9492730F94692011110C9407320E9420
:1050200079390C9407320E94ABAA6C8F7D8F8E8FDA
:105030009F8FBE016F5F7F4FCE014C960E94B3726F
:1050400060E0CE0101960F94CD3A0E94F6EDBE01CC
:105050006F5F7F4F89ED9BE00E940DED8AE00E941B
:10506000CF3B0C94073283E50E9440F8882311F46B
:105070000C9407320E9498F7F82E6DE070E080E5FE
:105080000E942B568C0197FF02C00C940732E82E29
:1050900060E089E40E94295881110C94CF37802F59
:1050A0000F94494F811152C50C94CF370E94793922
:1050B0000C9407320E94199C0C94073260E070E057
:1050C00083E50E942B568E34910531F40E948A9C10
:1050D0000F94F23A0C9407328CE39CE00E9431EC7E
:1050E0006091E5057091E60583E39CE00E94E5ECA4
:1050F0006091E7057091E80586E29CE00E94E5EC8E
:105100006091E5057091E6058091E7059091E805CD
:10511000681B790B80912B05815021E030E08230B3
:1051200010F020E030E0621B730B8BE19CE00E94EA
:10513000E5EC8AE00E94CF3B8CE39CE00E9431ECDE
:105140008091E9059091EA05A091EB05B091EC05FD
:105150008C8F9D8FAE8FBF8FBE016F5F7F4FCE0153
:105160004C960E94B372BE016F5F7F4F8EE09CE051
:105170000E940DED8091ED059091EE05A091EF0557
:10518000B091F0058C8F9D8FAE8FBF8FBE016F5F8A
:105190007F4FCE014C960E94B372BE016F5F7F4F6E
:1051A0008EEF9BE00E940DED20E030E04AE754E4F2
:1051B0006091F1057091F2058091F3059091F405ED
:1051C0000F942367AB01BC0186EE9BE00E94EFECDD
:1051D0008DE60E94CF3B8AE00E94CF3B0C940732C1
:1051E0008091060D83FF02C00C9407320E94D07F8D
:1051F00087FF02C00C94073283E50E9440F88823A1
:1052000079F00E94C0F70F9495678B01CB010E9443
:1052100055E40635110524F40E94199C0F94F23AC6
:105220000F946E4F0C9407328091060D83FF02C0DD
:105230000C9407320E94D07FF82E87FF02C00C9496
:10524000073283E50E9440F8082F811106C082E5ED
:105250000E9440F8182F8823C1F10E94C0F70F94D4
:105260009567CB010E9455E40E94C0F720E030E032
:105270004AEA52E40F94FC5E181614F40C94E837D2
:105280000E94199C0F94F23A6091F5077091F6070D
:10529000072E000C880B990B0F94035F4B015C01E8
:1052A0004090F1075090F2076090F3077090F40778
:1052B000A30192010F948968181614F40C9406380F
:1052C000002311F40C94EC3711E00F946E4F11236E
:1052D00011F40C940732602F8F2D0F94D60A0C9482
:1052E00007320E94D07F182F87FD0AC083E395E123
:1052F0000E9431EC812F0F945F0A8AE00E94CF3B1D
:105300002596BFAD2597B09395070C94093860E0BA
:1053100080E50E943A56182F823010F00C94073224
:1053200081E40E94F7F7882321F06091D60770E0AE
:1053300002C06FEF70E083E50E941D89E12FF0E06D
:10534000EA52F84F8F3F910519F010F08FEF90E07F
:1053500080830C94073260E080E50E943A568230E8
:1053600010F00C940732E82FF0E0EA52F84F108268
:105370000C9407328EE40E9440F8882311F40C94B8
:1053800007320E9488F76093DF047093E0048093F3
:10539000E1049093E2040C94073283E50E94F7F74E
:1053A000882331F060E083E50E943A568093060D31
:1053B0000E94F6ED8DE49CE00E9431EC8091060D98
:1053C000882369F104E6E02E0FE0F02E00E010E003
:1053D00020E08091060D90E0A0E0B0E0002E04C037
:1053E000B695A795979587950A94D2F780FF0EC03A
:1053F000DD24D394D20E222319F08CE20E94CF3BFD
:10540000F701859194910E9431EC2D2D0F5F1F4F74
:10541000E2E0EE0EF11C05301105D9F690CD89E4DD
:105420009CE08BCD41E060E070E084E59CE00E9470
:105430000AF1EDC783E50E9440F8882371F00E94CD
:1054400098F7282F30E02D3331051CF480930002AB
:10545000DEC78CE380930002DAC70E94F6ED40912C
:10546000000250E060E070E082E69CE00E94D4EC34
:105470008AE00E94CF3BCBC78091060D83FDC7C752
:1054800083E50E9440F8882309F4C1C70E94C0F751
:105490000F9495676C3871050CF48B0110936115AE
:1054A000009360150F94DF09B2C70E94D670AFC792
:1054B00083E50E9440F8882309F4A9C70E9498F761
:1054C000182F90E0CD970CF01CE31093B6030F94C7
:1054D00056416B017C01212F30E0A8EEB3E00F9420
:1054E000A665C60ED71EE81EF91EC092B203D09262
:1054F000B303E092B403F092B50389C70F948F0C05
:105500000E94199C0E94D39E0E94503910929C07C1
:1055100010929B0710929A0768EE73E080E090E08B
:105520000E9474EB60E089E69CE00F94463A6FC7F6
:105530008091BB038F7D80618093BB0368C780919E
:10554000BB038F7E80628093BB0361C70E94305390
:105550005EC783E50E94F7F7882309F458C70E94C5
:10556000C0F720E030E04AE754E40F94625F0F9404
:105570009C676093B7037093B8038093B9039093CB
:10558000BA0345C70E94D07F87FD41C790918B1811
:1055900094FD04C090918D1897FF0AC0B5E9CB2EF9
:1055A000B2E0DB2E17E0E12E1DE0F12E10E009C085
:1055B00090918E18937091F7682F81E00E94B053FC
:1055C00026C7D6018D916D010E9440F8882309F409
:1055D0006DC0133009F063C00E94C0F74B015C013D
:1055E00020E030E040EA51E40F94FC5E87FF4EC0BB
:1055F000A50194016091270D7091280D8091290DCE
:1056000090912A0D0F9423672B013C019B01AC0163
:105610006091BA077091BB078091BC079091BD075C
:105620000F94625F6093BA077093BB078093BC07C7
:105630009093BD07A30192016091370D7091380DD1
:105640008091390D90913A0D0F94625F6093370D00
:105650007093380D8093390D90933A0D6091CA077D
:105660007091CB078091CC079091CD070F94015F8B
:10567000A30192010F94625F0F949C676093CA0725
:105680007093CB078093CC079093CD078092270D22
:105690009092280DA092290DB0922A0D07C00E9469
:1056A000C0F7F701648B758B868B978B1F5FF4E0D7
:1056B000EF0EF11C143009F084CF0E94339DA7C671
:1056C0008EE99DE00E9431EC60E08EE89DE00F9451
:1056D000814D60E089E79DE00F94814D61E089EEA6
:1056E00098E20F94814D61E08EE69DE00F94814D2C
:1056F00061E08EE59DE00F94814D60E085E59DE0E1
:105700000F94814D61E08BE49DE00F94814D61E049
:1057100081E49DE00F94814D61E089E39DE00F9469
:10572000814D61E08BE29DE00F94814D60E08DE161
:105730009DE00F94814D60E08EE09DE00F94814DDF
:1057400060E080E09DE00F94814D60E08AEE9CE097
:105750000F94814D60E089ED9CE00F94814D60E0F5
:105760008AEC9CE00F94814D60E085EB9CE00F9407
:10577000814D61E082EA9CE00F94814D60E085E913
:105780009CE00F94814D60E081E89CE00F94814D96
:105790003EC68091851890918618009709F48FCBAA
:1057A000DC012C91222309F48ACB60E00F94CD3ADE
:1057B0002EC6F8018081282F2B7F213499F0803567
:1057C000E9F4818180538A30C8F498012E5F3F4FFD
:1057D00089012F5F3F4FF80180818032C9F39150DA
:1057E00041F70CC02181213349F4813421F0853403
:1057F00061F741E0EACFFF24F394E7CF41110E9423
:10580000F6EDFF2021F08CE69EE00E9431ECC8010D
:105810000E94DA3CFCC50E94C0C1F9C581E08093BA
:10582000F6058093F5050E940EC2F1C560E070E0B8
:1058300083E50E942B568C011127023011053CF0A4
:105840000E9420ED80E79EE00E9431ECE0C588E4F4
:105850000E9440F88823A9F00E94BCF78A3A91057B
:105860003CF08530F1E09F072CF084E091E002C02D
:105870008AEA90E0F801EE0FFF1FE85EF84E918390
:10588000808386E40E9440F8882381F00E94BCF760
:1058900097FD07C08F3F910529F024F08FEF90E02E
:1058A00001C080E0F801EF5BF74E808382E40E9444
:1058B00040F8882309F4ABC50E94BCF785309105F8
:1058C00034F08D3891052CF08CE890E002C085E032
:1058D00090E0F801EE0FFF1FED5BF74E91838083A0
:1058E00096C50E94D07F182F87FD91C584E40E9441
:1058F000F7F7882309F43FC00E94C0F76B017C01D1
:1059000001E020E030E0A9010F94FC5E811101C0AC
:1059100000E00093B80520E030E0A901C701B6011E
:105920000F94FC5E882339F10E94C0F724E0120234
:10593000F0011124E354FA4F6083718382839383CF
:1059400020E030E0A9016091BD057091BE05809115
:10595000BF059091C0050F94FC5E81110CC080E0E2
:1059600090E0A0EEBFE38093BD059093BE05A093A9
:10597000BF05B093C0050E949EB549C50E94D07F67
:1059800087FD45C565E9E62E62E0F62E07E01DE0DD
:10599000D7018D917D010E94F7F7882359F00E946D
:1059A000C0F70F949C67F8016083718382839383AF
:1059B0000E94EC9C0C5F1F4FFDE007311F0741F771
:1059C00026C50E94D07F87FD22C555E9E52E52E00D
:1059D000F52E07E01DE0D7018D917D010E94F7F7BC
:1059E000882339F00E94C0F7F80164A375A386A349
:1059F00097A30C5F1F4FFDE007311F0761F707C535
:105A00000E94715404C535E9C32E32E0D32E4AEF0B
:105A1000E42E45E0F42E10E0D6018D916D010E9438
:105A2000F7F7882351F00E94C0F7F7016083718374
:105A300082839383812F0E94ECB91F5FF4E0EF0E05
:105A4000F11C133049F70E94A0C0E1C483E50E9415
:105A500040F8882309F4DBC40E94BCF790932F021E
:105A600080932E02D4C40E94D07FF82E87FDCFC42D
:105A700083E50E9440F80F2D0F2C000C110B88239A
:105A800069F10E94BCF7F801EE0FFF1FEC5CFD4FBF
:105A900091838083000F111F000F111F98012F5A4F
:105AA0003D4F7901BC01990F880B990B0F94035F4F
:105AB0002AE037ED43E25CE30F94625FF801E754BC
:105AC000FA4F20813181428153810F94625FD70167
:105AD0006D937D938D939C93139799C40E94F6EDDB
