:100000000C94811F0C94B21F0C94B21F0C94B21F5D
:100010000C94B21F0C94B21F0C94B21F0C94B21F1C
:100020000C94B21F0C94D3DF0C94D3DF0C94D3DF69
:100030000C94B21F0C94B21F0C94B21F0C94B21FFC
:100040000C94B21F0C94DDA70C94B21F0C94B21F39
:100050000C94B21F0C94B21F0C941EFA0C946ECB2D
:100060000C94B21F0C947A440C9470440C94B21FFC
:100070000C94B21F0C94B21F0C94B21F0C94B21FBC
:100080000C94B21F0C94B21F0C94B21F0C94B21FAC
:100090000C94E2CB0C94B8CB0C94B21F0C94B21F0E
:1000A0000C94B21F0C94B21F0C94B21F0C94B21F8C
:1000B0000C94B21F0C94B21F0C94B21F0C94B21F7C
:1000C0000C94B21F0C94B21F0C94B21F0C94B21F6C
:1000D0000C94B21F0C94B21F0C94B21F0C94B21F5C
:1000E0000C94B21F1F45254530453B4546455145BB
:1000F0005C4567459B459B459B459B457245BA457D
:10010000C645D745E845F9450A461B462C46634691
:100110006346634663463A4682468E469F46B046ED
:10012000C146D246E346F4462B472B472B472B4785
:1001300002474A47534762476D47784783478E4790
:100140009847C647C647C647C647A047F447BB4877
:10015000FA4704480E4818482E483B48BB484848D0
:10016000BB485648BB485E486848BB48BB487C48CB
:1001700086488E489848A248B148DA48D449E348AE
:10018000F048FD480A4923493349D4494349D449F1
:100190005449D4495F496F49D449D4498649934960
:1001A0009E49AB49B849CA49F349ED4AFC49094A55
:1001B000164A234A3C4A4C4AED4A5C4AED4A6D4A8B
:1001C000ED4A784A884AED4AED4A9F4AAC4AB74A16
:1001D000C44AD14AE34A0C4BC44B124B1A4B224B34
:1001E0002A4B404B4B4BC44B564BC44B624BC44BFE
:1001F0006A4B774BC44BC44B8E4B964B9E4BA64BD6
:10020000AE4BBD4BE2BCE8BCEDBCFBBC01BD03BDCD
:1002100009BD0EBD2ABD2ABD15BD2ABD1ABD20BD12
:1002200025BD4ABD50BD55BD63BD69BD6BBD71BD2A
:1002300076BD92BD92BD7DBD92BD82BD88BD8DBD96
:10024000B2BDB8BDBDBDCBBDD1BDD3BDD9BDDEBD79
:10025000FABDFABDE5BDFABDEABDF0BDF5BD19BEFA
:100260001FBE24BE32BE38BE3ABE40BE45BE61BED1
:1002700061BE4CBE61BE51BE57BE5CBE62DC65DC79
:1002800054DC58DC5EDC9CDC69DC6DDC73DC77DC28
:100290007BDC81DC85DC89DC9CDC8FDC93DC97DC1F
:1002A000CFE0D4E0D9E0E3E0EDE066E1F7E0FFE0A5
:1002B00007E111E11BE125E134E13EE166E148E1BE
:1002C00052E15CE1D9E718E651E615E851E651E65E
:1002D00051E651E651E651E651E651E651E651E666
:1002E00051E651E651E651E651E651E651E651E656
:1002F00051E651E651E651E651E651E651E651E646
:100300000FE851E651E651E651E651E651E651E675
:1003100051E6E8E751E651E651E651E651E651E68D
:1003200051E651E651E651E62CE84EE6C801F601E9
:100330004C02EC0298028C03BA039E04B804160225
:1003400050038602084AD73B3BCE016E84BCBFFDFA
:10035000C12F3D6C74319ABD56833DDA3D00C77F95
:1003600011BED9E4BB4C3E916BAAAABE000000802E
:100370003F05A84CCDB2D44EB93836A9020C50B9BD
:10038000918688083CA6AAAA2ABE000000803F00E9
:100390000D94A21D0C9430450C944C8D0C94234963
:1003A0000D94061A0C94F4470C948E470C94D1CA01
:1003B0000C9454E40C94FE710C9440BE0C943A4698
:1003C0000C94D9E70C9482460C9468480D94624FC3
:1003D0000C94FFE00C944ABD0C94AC4A0C94C8E415
:1003E0000C942C460C9454490C94F0480D94851DA3
:1003F0000C94EB9A0C94E34A0C940C4B0C94E84547
:100400000C940FE80C94FFCA0C94564B0C942CE8F7
:100410000C94BD5C0C9492E90C949CDC0C94F5BD9E
:100420000C94F5F10C94C1460C945EDC0D94B01D57
:100430000C94105E0C94E3480C94C44B0C94FEF6A0
:100440000C9467450C941BE50C9498470C9452E16E
:100450000C94E5BD0C943B480D94CE260C94728907
:100460000C946BBD0C9462470C945CB30C94B1E596
:100470000D943D1A0C9458710C9446F40D94221A64
:100480000C946A4B0C9402E40C94DFB30C9465DC7E
:100490000C9425E10C941BE10D94881D0D94BE3342
:1004A0000C94D4490D9432260C949F460C94F44E2F
:1004B0000C9440E40C941ABD0C94B1480D94AC26F5
:1004C0000C94ED4A0C94234A0C94BAE40D940F1E3C
:1004D0000C944B4B0C9451BE0D94371A0D942A1A60
:1004E0000C9461B30C944C4A0C942E480C94D4E0B8
:1004F0000C94468D0C948E480C94C2CA0C948FDCDC
:100500000C9466E10D940A1A0C9469BD0D949A1D21
:100510000C9418E40C94448D0C94BF5C0C94624BC6
:100520000C94CB5C0C94774B0C94094A0C9443F5D7
:100530000D948B1D0D9477260C9486490C94C672ED
:100540000C947D890C94C35C0C9472450C94F34913
:100550000C9425BD0C9418480C94F3B80D94F02617
:100560000C94D5B50C9478470C9433F50C9404484E
:100570000D94A01B0C94D2460C941C8D0C9497DC0B
:100580000C9457BE0C944A8D0C9463460C94984876
:100590000C940A460C943ABE0C9455BD0C94FA4740
:1005A0000C94B0460C94B74A0C94ACE40D944933C7
:1005B0000C9411B40C94E3460C9473DC0C9493DC0F
:1005C0000C9448E10C9417F50C94F3B40C94F84E89
:1005D0000C9482BD0C94D9E00D94A51D0C94CA49CD
:1005E0000C94A2480C944EE60C945CE10D94311AE4
:1005F0000C9476BD0D94A72B0C9498E40C940F7278
:100600000C94F9B30C9486E90C94A64B0D94942B9E
:100610000C94E8620C94224B0C943B450C948E8E07
:100620000C940BB40C942BF50C9458DC0C94164AD7
:100630000D94CF160C9457B30C9484E40D940E1AB9
:100640000C94884A0C9411E10C9498CA0C94DBE445
:100650000C9468E40C9493B70C94E5CA0C94E1E410
:100660000C94FAF10C948E460D94341A0C94D9BD66
:100670000C947BDC0C94F0BD0D94992B0C944FE5FD
:100680000C9456480D94D20E0C94D1BD0C9471BDAF
:100690000C9484760D94031E0C942A4B0C94F973DD
:1006A0000D94971D0C94FEE40C94C6450C947DBDEE
:1006B0000D94161A0C94D2F10C9405B40D94261ACC
:1006C0000D941E1A0C94EDE00C947C480C9424615B
:1006D0000C94E2BC0C945CBE0C9448480C941572CB
:1006E0000C94B35C0C94B8BD0C94DAB30C94B84978
:1006F0000C9405F30C9489E50C94D5B30C945347F2
:100700000C94638B0C9477DC0C9438BE0C9419BE5B
:100710000C94F4460C941DF50D948E1D0D941A1A2C
:100720000C947E5D0C949E4B0C948E4B0C94B0718B
:100730000C943FB30C9403BD0C940E480D943A18DE
:100740000C94E3E00C949EE90C94DEE40D949E2B53
:100750000C94BD4B0C947E660C9415E80C94FFF140
:100760000C9496E50C944CBE0D940C270C946D479C
:100770000C94D14A0D94911D0C949F4A0C94DA74F8
:100780000C94BB480C94A6F70C9451450C9407723A
:100790000C9415BD0C946DDC0C94DEBD0D94804F53
:1007A0000C9498E90C94784A0D944A270D943A1ABF
:1007B0000C945E480C94358D0C946CE50C94FD48BB
:1007C0000C94D3BD0C94A0470C9446450C9481DC4A
:1007D0000C9468E90C943EE10C9462DC0C9451E6B4
:1007E0000C94FBBC0C942B470C94AB490C9418E66E
:1007F0000C9438E50D942E1A0C94E0E90C945C4AA4
:100800000D94B12B0C943BF50C9497710C942CE443
:100810000C9485DC0C9474E90C94BA450C94F9455D
:100820000C94C6470C94EABD0C94FC490C94BDBDD5
:100830000C94E4780C9407E10C940EBD0C947AE9C6
:100840000C9488BD0C9423F50C9425450C941A4BFC
:100850000C9454DC0C948CE90C9480E90C949E4923
:100860000C949DE50C941F450C94C15C0C949B4525
:100870000C94CFE00C941FBE0C946EE90C94E8E746
:100880000C946D4A0C9444B30C942ABD0C9432BE63
:100890000C94B2BD0D94381E0C944A470C94F54E3E
:1008A0000C946F490C94AA5D0C9486480C944349AF
:1008B0000C945F490C9492BD0C94F7E00C94834720
:1008C0000C945C450C9493490C941B460C948DBD80
:1008D0000C944DB30C94E8BC0C9420BD0C9452B312
:1008E0000C94964B0C9462E90D94A7270C94D74571
:1008F0000C943C4A0C94DA480C94A4E50C9461BE28
:100900000C943AB30D94121A0C944CCB0C94FABD7F
:100910000C94AE4B0C94488D0C9402F20C944764EA
:100920000D9428330C9409BD0C9402470C9489DC77
:100930000C9450BD0C9424BE0C94404B0D949D1D02
:100940000C946B730C940A490C9433490C9476E420
:100950000C94C44A0C9469DC0C94AE5D0C9401BDFB
:100960000D9496260C9445BE0C94FFB30C94EDBCEC
:100970000D94941D0D947F260C94124B0C944AB345
:100980000C94CBBD0C9434E10C9463BD4E414E49A4
:100990004E495459494E46CDCCCC3D0AD7233C173D
:1009A000B7D13877CC2B329595E6241FB14F0A008A
:1009B0000020410000C84200401C4620BCBE4CCA7A
:1009C0001B0E5AAEC59D7400407A10F35A00A072F7
:1009D0004E18090010A5D4E80000E876481700007A
:1009E000E40B54020000CA9A3B000000E1F5050048
:1009F0000080969800000040420F000000A0860191
:100A0000000000102700000000E803000000006460
:100A100000000000000A00000000000100000000CB
:100A2000002C76D888DC674F0823DFC1DFAE59E1A0
:100A3000B1B796E5E3E453C63AE651997696E8E60F
:100A4000C28426EB898C9B62ED407C6FFCEFBC9CE2
:100A50009F40F2BAA56FA5F490055A2AF75C936BF4
:100A60006CF9676DC11BFCE0E40D47FEF520E6B5AF
:100A700000D0ED902E0300943577050080841E0889
:100A80000000204E0A000000C80C333333330F98A7
:100A90006E12831141EF8D2114893BE65516CFFE6E
:100AA000E6DB18D1844B381BF77C1D901DA4BBE4FA
:100AB00024203284725E228100C9F124ECA1E53D3C
:100AC00027434F4D4D554E49434154494F4E0044E5
:100AD000525952554E004552524F525300494E46BC
:100AE0004F004543484F0047322F4733206261642F
:100AF00020706172616D65746572730A00536C6574
:100B000065702E2E2E005A2050726F626520506143
:100B10007374204265640A005A2050726F62652027
:100B2000506173742042656400486F6D65205859A8
:100B30002066697273740A00486F6D6520585920E9
:100B40004669727374004D65736820706F696E74C6
:100B50002063616E6E6F74206265207265736F6CC6
:100B60007665640A00456E642066696C65206C6970
:100B700073740A00426567696E2066696C65206C53
:100B80006973740A00286E6F2066696C65290043DA
:100B9000757272656E742066696C653A2000534404
:100BA000207072696E74696E6720627974652000C6
:100BB0004E6F74205344207072696E74696E670AB8
:100BC000005072696E742074696D653A20000A5392
:100BD000746174733A2046696C616D656E7420753A
:100BE0007365643A20002C204C6F6E676573742027
:100BF0006A6F623A2000546F74616C2074696D658D
:100C00003A20002C204661696C65643A20002C2053
:100C100046696E69736865643A20005072696E7443
:100C2000733A200053746174733A200045202553B1
:100C3000006F66660044454255473A004D313132F7
:100C40002053687574646F776E004D3131332053D3
:100C5000005468696E6B65722056325F4E504E5F6D
:100C600032323039204F46462E004348414D4245EE
:100C7000525F54454D5045524154555245004D4FD9
:100C800054494F4E5F4D4F44455300544845524DD3
:100C9000414C5F50524F54454354494F4E004155CB
:100CA000544F5245504F52545F53445F5354415434
:100CB00055530050524F4D50545F535550504F5262
:100CC0005400454D455247454E43595F504152539C
:100CD000455200434153455F4C494748545F425297
:100CE000494748544E45535300544F47474C455F7E
:100CF0004C494748545300534F4654574152455F5F
:100D0000504F574552004255494C445F504552435D
:100D1000454E54004C4556454C494E475F4441545E
:100D200041005A5F50524F4245004155544F4C4587
:100D300056454C005052494E545F4A4F4200505263
:100D40004F4752455353004155544F5245504F520F
:100D5000545F54454D5000564F4C554D45545249E3
:100D6000430042494E4152595F46494C455F5452F7
:100D7000414E534645520053455249414C5F584FEE
:100D80004E5F584F4646004649524D574152455FC7
:100D90004E414D453A4D61726C696E20322E302EB7
:100DA0007820284769744875622920534F5552436B
:100DB000455F434F44455F55524C3A6874747073B5
:100DC0003A2F2F6769746875622E636F6D2F4D61BE
:100DD000726C696E4669726D776172652F4D6172D2
:100DE0006C696E2050524F544F434F4C5F564552E2
:100DF00053494F4E3A312E30204D414348494E45DC
:100E00005F545950453A5468696E6B65722056328A
:100E10005F4E504E5F32323039204558545255445F
:100E200045525F434F554E543A3120555549443A47
:100E300063656465326132662D343161322D343739
:100E400034382D396231322D6335356336326633AD
:100E5000363766660A002F2F20004D313435205377
:100E60003C696E6465783E206F7574206F662072F1
:100E7000616E67652028302D31290A0020466C6F8D
:100E8000773A200050726F7465637465642050690E
:100E90006E0A00496E76616C6964206578747275BB
:100EA0006465720A0020693A006469730043290A84
:100EB0000061626C656420286D696E2074656D70D8
:100EC0002000436F6C6420657874727564657320CC
:100ED00061726520004D34323120696E636F727229
:100EE00065637420706172616D65746572207573DD
:100EF0006167650A004F66667365747320417070A0
:100F00006C696564004572723A20546F6F206661A7
:100F1000722100546F6F206661722066726F6D20BF
:100F20007265666572656E636520706F696E740ABE
:100F300000454550524F4D204F4B0A002074656DBF
:100F40007065726174757265207072657761726E1A
:100F5000207472696767657265643A200020686F63
:100F60006D696E672073656E7369746976697479EB
:100F70003A2000E20ADD0AD60ACF0AC10A45727297
:100F80006F722077726974696E6720746F204545AF
:100F900050524F4D210A00627573793A2070617585
:100FA00073656420666F7220696E7075740A0062E2
:100FB0007573793A2070617573656420666F72206D
:100FC000757365720A00627573793A2070726F6387
:100FD000657373696E670A0053544F505045442E31
:100FE00020005072696E7465722073746F70706542
:100FF000642064756520746F206572726F72732E41
:101000002046697820746865206572726F7220616D
:101010006E6420757365204D39393920746F2072E4
:101020006573746172742E202854656D70657261E9
:10103000747572652069732072657365742E205310
:1010400065742069742061667465722072657374BA
:10105000617274696E67290A004E6F204368656388
:101060006B73756D2077697468206C696E65206E8E
:10107000756D6265722C204C617374204C696E65CD
:101080003A2000636865636B73756D206D69736DDD
:10109000617463682C204C617374204C696E653AEE
:1010A00020004C696E65204E756D62657220697313
:1010B000206E6F74204C617374204C696E65204EF5
:1010C000756D6265722B312C204C617374204C69F4
:1010D0006E653A20004D313130004D313137004DD1
:1010E00033310053442072656164206572726F72FF
:1010F0000A00446F6E65207072696E74696E6720B5
:1011000066696C650A002063757272656E7420648E
:10111000656372656173656420746F20006D412999
:101120000A0020647269766572206F766572746554
:101130006D7065726174757265207761726E696E2B
:1011400067212028004B494C4C206361757365640E
:10115000206279204B494C4C20627574746F6E2F5D
:1011600070696E0A004B494C4C206361757365646D
:1011700020627920746F6F206D75636820696E61DD
:1011800063746976652074696D65202D20637572BE
:1011900072656E7420636F6D6D616E643A20002518
:1011A000301D0C282924311C0B4527232F1B0444F8
:1011B00043212A193F40222B1A414203380906369F
:1011C000030802060001506F7765722D6C6F737310
:1011D0002066696C6520636C6F7365206661696C5D
:1011E00065642E0A00506F7765722D6C6F737320E3
:1011F00066696C65207772697465206661696C65E3
:10120000642E0A005772697465002D2D2D0A00495D
:101210004E56414C494420444154410A0070726981
:101220006E745F6A6F625F656C61707365643A20AB
:10123000007364706F733A200073645F66696C6555
:101240006E616D653A20000A20666164653A20008F
:101250006C6576656C696E673A200066616E5F73D7
:10126000706565643A20007461726765745F7465C7
:101270006D70657261747572655F6265643A2000B5
:101280007461726765745F74656D706572617475A1
:1012900072653A200066656564726174653A200083
:1012A000706F736974696F6E5F73686966743A20F2
:1012B00000686F6D655F6F66667365743A200063E2
:1012C000757272656E745F706F736974696F6E3A70
:1012D00020002076616C69645F666F6F743A00204D
:1012E0004A6F62205265636F7665727920496E6637
:1012F0006F2E2E2E0A76616C69645F686561643AB0
:10130000002568753A2530326875002568756420B7
:1013100025303268753A2530326875004472697636
:101320006572206572726F7200636F696C207368FA
:101330006F727420636972637569740A006F7665F1
:101340007274656D70657261747572650A002064EF
:101350007269766572206572726F72206465746559
:10136000637465643A203078006D6178002F333102
:1013700000092042616420726573706F6E7365218D
:1013800000656E7175657565696E672022006F6B0B
:1013900000526573656E643A2000256979202569DD
:1013A00064202569682025696D20256973004265E0
:1013B0006420436F6F6C696E672E2E2E0042656449
:1013C0002048656174696E672E2E2E002364656661
:1013D000696E652044454641554C545F004B64207E
:1013E000004B6920004B7020005049442041757427
:1013F0006F74756E652066696E6973686564212017
:1014000050757420746865206C617374204B702C67
:10141000204B6920616E64204B6420636F6E73748F
:10142000616E74732066726F6D2062656C6F7720D9
:10143000696E746F20436F6E666967757261746957
:101440006F6E2E680A00504944204175746F7475A0
:101450006E65206661696C6564212074696D656FD5
:1014600075740A000A20436C6173736963205049E4
:1014700044200A00204B643A2000204B693A2000A7
:10148000204B703A20000A204E6F206F76657273F1
:10149000686F6F740A002054753A2000204B753A2B
:1014A0002000206D61783A2000206D696E3A20009E
:1014B00020643A200020626961733A200050494458
:1014C000204175746F74756E652073746172740A4F
:1014D00000504944204175746F74756E65206661D3
:1014E000696C6564212054656D70657261747572F4
:1014F0006520746F6F20686967680A00504944204E
:101500004175746F74756E65206661696C656421E0
:1015100020426164206578747275646572206E750E
:101520006D6265720A004572723A207574663820E1
:10153000666F6E74206E6F7420696E697469616C79
:10154000697A65642E00000C0D00FE07022603BCBC
:10155000017FFE08FE08FE05080806000040F0C8EE
:101560008888987810050808060000C0F8888888E0
:101570008888F80505050600012030F830200508A8
:10158000080600002070F820202020E00509090648
:1015900000FF2070A8A8B8888870200506060600FD
:1015A00001E08CEA8C8A0A0509090600FFF8A88880
:1015B00088888888A8F8050A0A0600FE205050503E
:1015C0005088A8A8887003030306000340A040FFCA
:1015D000FFFFFFFFFFFFFFFFFFFFFFFFFFFFFFFF1B
:1015E000FFFFFFFFFF0000000605FF0107070602DF
:1015F0000080808080800080030303060105A0A096
:10160000A005060606000050F85050F850050909DC
:101610000600FF2070A8A07028A870200507070604
:101620000000C8C810204098980507070600004031
:10163000A0A040A8906801030306020580808003F3
:1016400009090601FF2040408080804040200309B6
:10165000090601FF80404020202040408005070708
:1016600006000020A8702070A820050505060001CE
:101670002020F820200203030601FFC0408005015E
:1016800001060003F8020202060100C0C0050707B8
:1016900006000008101020404080050707060000E3
:1016A000708898A8C8887003070706010040C040EA
:1016B000404040E005070706000070880810204001
:1016C000F8050707060000F80810300888700507BD
:1016D0000706000010305090F810100507070600AC
:1016E00000F880F008088870050707060000304001
:1016F00080F0888870050707060000F808101020A1
:10170000202005070706000070888870888870050B
:101710000707060000708888780810600205050633
:101720000100C0C000C0C00206060601FFC0C00024
:10173000C0408003050506010120408040200503CC
:1017400003060002F800F8030505060101804020A9
:101750004080050707060000708810202000200543
:1017600007070600007088B8A8B88070050707064C
:101770000000708888F8888888050707060000F050
:101780004848704848F005070706000070888080C8
:10179000808870050707060000F04848484848F070
:1017A000050707060000F88080F08080F80507072D
:1017B000060000F88080F0808080050707060000A2
:1017C00070888080988870050707060000888888E0
:1017D000F8888888030707060100E0404040404041
:1017E000E00507070600003810101010906005078C
:1017F000070600008890A0C0A09088050707060093
:1018000000808080808080F805070706000088D867
:10181000A8888888880507070600008888C8A898CF
:101820008888050707060000708888888888700502
:101830000707060000F08888F0808080050707060B
:10184000000070888888A89068050707060000F0E7
:101850008888F0A0908805070706000070888070CF
:10186000088870050707060000F8202020202020A7
:10187000050707060000888888888888700507079C
:101880000600008888888850502005070706000059
:1018900088888888A8A8500507070600008888500F
:1018A00020508888050707060000888850202020DF
:1018B00020050707060000F80810204080F80309FB
:1018C000090601FFE080808080808080E0050707B6
:1018D000060000804040201010080309090601FF9F
:1018E000E020202020202020E00503030600052022
:1018F00050880501010600FEF80303030601058078
:10190000402005050506000070087888780507075F
:101910000600008080F0888888F005050506000034
:10192000708080887005070706000008087888889E
:1019300088780505050600007088F08070050707A7
:10194000060000304840E04040400507070600FE22
:10195000708888887808700507070600008080F086
:10196000888888880307070601004000C04040407F
:10197000E00409090601FE100030101010109060FC
:1019800005070706000080808890E090880307071D
:10199000060100C04040404040E00505050600004B
:1019A000D0A8A8A8A8050505060000B0C8888888A2
:1019B0000505050600007088888870050707060081
:1019C000FEF0888888F080800507070600FE78888A
:1019D0008888780808050505060000B0C880808062
:1019E00005050506000078807008F0050707060069
:1019F000002020F820202018050505060000888812
:101A00008898680505050600008888885020050527
:101A1000050600008888A8A850050505060000886E
:101A2000502050880507070600FE8888885020400F
:101A300080050505060000F8102040F80309090696
:101A400001FF20404040804040402001090906023B
:101A5000FF8080808080808080800309090601FFEC
:101A6000804040402040404080050303060002487B
:101A7000A890FF4C6F6164206D6D00556E6C6F61B6
:101A800064206D6D0046696C2E204469612E00450E
:101A900020696E206D6DC2B300200820466163741A
:101AA000002008204D6178002008204D696E00411B
:101AB00075746F74656D70005654726176204D694F
:101AC0006E00566D696E00566D6178204500566D4A
:101AD0006178205A00566D6178205900566D617802
:101AE000205800416D6178204500416D6178205A91
:101AF00000416D6178205900416D617820580041A6
:101B00002D54726176656C00412D5265747261636B
:101B10007400416363656C00737465616C74684341
:101B2000686F70004D32342053256C642054256C4E
:101B300064004739322E392045257300473120464D
:101B40002564004739322E39205A25730047312049
:101B50005A30204632303000473120582573205902
:101B60002573204633303030004D34323020532539
:101B700069205A2573004D31303620502569205395
:101B80002569004739322E392045305A300A47310D
:101B90005A320A47323852305859004D31303920C4
:101BA000532569004D31393020532569004D3230BD
:101BB0003020442573004D343230205330205A30C9
:101BC0000020506F7765722D4C6F737320526563E0
:101BD0006F7665727920446174610A00496E76619E
:101BE0006C6964004E6F00496E76616C69640A002E
:101BF00056616C69640A004E6F20504C520A0050C6
:101C00004C52204578697374730A00506F7765727F
:101C10002D6C6F7373207265636F76657279200027
:101C2000617869733A70776D5F7363616C652F6378
:101C30007572725F7363616C652F6D6563685F6C4D
:101C40006F61647C666C6167737C7761726E636FD1
:101C5000756E740A004452565F53544154555309EB
:101C60000050574D5F5343414C45090050574D4379
:101C70004F4E460900434F4F4C434F4E46090043D9
:101C8000484F50434F4E46090054484947480909B8
:101C90000054434F4F4C5448525309005450574D31
:101CA00054485253090054535445500909005450A4
:101CB0004F574552444F574E0900494F494E090965
:101CC00000475354415409090049484F4C445F4967
:101CD00052554E090047434F4E4609090073707232
:101CE0006561644379636C6500206472697665722E
:101CF000206D6F64653A0900206472697665722010
:101D000063757272656E743A200020707265776137
:101D1000726E20666C616720636C65617265640A2F
:101D20000020496E76616C69642065787472756410
:101D3000657220004F7574616765205265636F7628
:101D400065727900436F6E66696775726174696F59
:101D50006E003F0043616E63656C003135300042B8
:101D600045443A486973656E732033393530005203
:101D7000756E617761792057617463683A204F4EC0
:101D8000004D61782054656D7000323735004D6923
:101D90006E2054656D700045313A20486973656E58
:101DA000732033393530005053550047656E6572E6
:101DB00069630050726F746F636F6C00312E300076
:101DC00042617564003235303030300052616D62EE
:101DD0006F0042696C696E656172204C6576656C56
:101DE000696E670045787472756465727300546833
:101DF000696E6B65722056325F4E504E5F323230E4
:101E00003900323031392D31322D30310050726984
:101E10006E74657220537461747300546865726DDA
:101E20006973746F727300426F61726420496E66E9
:101E30006F005072696E74657220496E666F004D56
:101E4000313030300053746F70205072696E7400FE
:101E5000526573756D65205072696E740053746FAE
:101E600070004D3231004368616E6765204D6564D6
:101E700069610041626F7574205072696E74657299
:101E8000004E6F204D656469610054756E650049B0
:101E90006E666F2053637265656E00537461727471
:101EA000205072696E740043616E6E6F7420656EAF
:101EB000746572207375626469723A2000022E2E76
:101EC000002062797465733B206372632000536560
:101ED0007474696E67732053746F72656420280090
:101EE000454550524F4D206461746173697A652095
:101EF0006572726F722E0A002073746F72656420AF
:101F000073657474696E677320726574726965763F
:101F10006564202800202863616C63756C617465BA
:101F20006429210A0020213D2000454550524F4D93
:101F300020435243206D69736D61746368202D20C6
:101F40002873746F726564292000496E6465783A5D
:101F50002000204D61726C696E3D563734290A00AD
:101F6000454550524F4D2076657273696F6E206DF6
:101F700069736D617463682028454550524F4D3D2B
:101F8000000000964300009B430000C84356652DA7
:101F90004A65726B00565A2D4A65726B0056592D70
:101FA0004A65726B0056582D4A65726B0045737412
:101FB0006570732F6D6D005A73746570732F6D6D3E
:101FC000005973746570732F6D6D0058737465706C
:101FD000732F6D6D00496E6974004D3432380049BD
:101FE0006E697469616C697A6520454550524F4D40
:101FF0000053746570732F6D6D00416363656C658C
:10200000726174696F6E0056656C6F6369747900F4
:1020100053657420486F6D65204F666673657473F1
:102020000046616465204865696768740047323816
:102030000A473239004C6576656C2042656400467B
:10204000616E2053706565640050726F62696E67DF
:1020500020506F696E740025532025692F25690073
:1020600050726F62696E67206D65736820706F696A
:102070006E742000202844525952554E2900473290
:1020800039204175746F20426564204C6576656C1B
:10209000696E67003F20284C2C522C462C42292088
:1020A0006F7574206F6620626F756E64732E0A0000
:1020B0003F2856296572626F7365206C6576656C82
:1020C00020696D706C61757369626C652028302DB4
:1020D00034292E0A00426164205A2076616C7565AD
:1020E0000A004E6F2062696C696E656172206772CA
:1020F00069640A00416363656C65726174696F6E3F
:102100003A2050005741524E494E4721204C6F779C
:10211000205A204A65726B206D6179206C6561647C
:1021200020746F20756E77616E74656420706175C0
:102130007365732E0A00204D39322058004E6F20EF
:102140004D6F76652E0020204D61783A20002020CA
:102150004D696E3A2000536F667420656E64737427
:102160006F70733A20006F70656E00545249474794
:1021700045524544007A5F6D696E00795F6D696E06
:1021800000785F6D696E005265706F7274696E677A
:1021900020656E6473746F70207374617475730A54
:1021A0000020436F756E7420583A0020453A00486D
:1021B0006F6D696E67204661696C65640057617276
:1021C0006E696E673A20486F6D696E672042756D63
:1021D000702044697669736F72203C20310A0000D8
:1021E0000000000000204100000000000048420004
:1021F000004842000080400202040000000000008D
:1022000000000000004000009643000096430000DC
:10221000C843FFFFFF24F4D43050C38E20C2A24035
:1022200017828B7011127A910D816CD90AA861E125
:1022300008C7586607615143061E4B5D05C145A797
:10224000041A411104093D9803713931034036DB0A
:102250000265339102D4305402802E1D02632CEEAD
:1022600001752AC501B028A001102781018F2564BE
:10227000012B244B01E0223401AC211F018D200DE4
:1022800001801FFC00841EED00971DDF00B81CD2EA
:1022900000E61BC600201BBC00641AB200B219A8DD
:1022A000000A19A0006A189900D117910040178BF5
:1022B00000B516840031167E00B31579003A157307
:1022C00000C7146F0058146A00EE13660088136389
:1022D0000025135E00C7125B006C125700151254E4
:1022E00000C111510070114F0021114B00D610494F
:1022F000008D1047004610440002104200C00F40FD
:1023000000800F3E00420F3C00060F3B00CB0E3812
:1023100000930E37005C0E3500270E3400F30D32AB
:1023200000C10D3100900D3000600D2E00320D2DDA
:1023300000050D2C00D90C2B00AE0C2900850C29B2
:10234000005C0C2700350C27000E0C2600E80B243F
:1023500000C40B2400A00B23007D0B23005A0B218B
:1023600000390B2100180B2000F80A1F00D90A1EA3
:1023700000BB0A1E009D0A1D00800A1D00630A1C86
:1023800000470A1B002C0A1B00110A1A00F7091A41
:1023900000DD091900C4091900AB091900920917D9
:1023A000007B091800630917004C0916003609164E
:1023B00000200916000A091500F5081500E00814A8
:1023C00000CC081400B8081400A4081400900813E6
:1023D000007D0812006B081300580812004608120E
:1023E000003408110023081100120811000108111F
:1023F00000F0071000E0071000D0071000C0071021
:1024000000B0070F00A107100091070E0083070F0F
:102410000074070F0065070E0057070E0049070EEE
:10242000003B070D002E070E0020070D0013070DBF
:102430000006070D00F9060C00ED060D00E0060C85
:1024400000D4060C00C8060C00BC060C00B0060C3C
:1024500000A4060B0099060C008D060B0082060BEB
:102460000077060B006C060B0061060A0057060B8E
:10247000004C060A0042060A0038060A002E060A28
:102480000024060A001A060A001006090007060AB8
:1024900000FD050900F4050900EB050900E2050946
:1024A00000D9050900D0050900C7050900BE0509C6
:1024B00000B5050800AD050800A50509009C050844
:1024C00000940508008C050800840508007C0508B8
:1024D00000740508006C050700650508005D050728
:1024E00000560508004E050700470507004005088F
:1024F0000038050700310507002A050700230507F6
:10250000001C050600160507000F05070008050654
:102510000002050700FB040600F5040700EE0406B0
:1025200000E8040600E2040700DB040600D5040608
:1025300000CF040600C9040600C3040600BD04065B
:1025400000B7040600B1040500AC040600A60406AA
:1025500000A00405009B04060095040500900406F5
:10256000008A04050085040500800406007A04053D
:102570000075040500700405006B04050066040581
:1025800000610405005C04050057040500520405C1
:10259000004D04050048040500430405003E040402
:1025A000003A04050035040500300404002C04053D
:1025B0000027040400230405001E0404001A040478
:1025C0000016040500110404000D040400090405AC
:1025D000000404040000040400FC030400F80304E5
:1025E00000F4030400F0030400EC030400E8030417
:1025F00000E4030400E0030400DC030400D8030447
:1026000000D4030400D0030400CC030400C8030377
:1026100000C503030024F404D9201BC40C5C0E98ED
:1026200004C4095F0265077101F405F900FB04B3F6
:102630000048048700C1036900580355000303459F
:1026400000BE023A008402310053022A002902250A
:102650000004022000E4011C00C8011900AF0117AA
:102660000098011400840113007101100061011031
:102670000051010E0043010D0036010B002B010B30
:102680000020010B00150109000C010900030108DD
:1026900000FB000800F3000800EB000700E4000660
:1026A00000DE000600D8000600D2000600CC0005BF
:1026B00000C7000500C2000500BD000400B9000409
:1026C00000B5000400B1000400AD000400A900043E
:1026D00000A5000300A20003009F0004009B00036C
:1026E000009800030095000200930003009000038F
:1026F000008D0002008B00030088000200860002AB
:102700000084000300810002007F0002007D0002BF
:10271000007B0002007900020077000100760002D1
:10272000007400020072000100710002006F0002DC
:10273000006D0001006C0002006A000100690002E7
:1027400000670001006600010065000100640002EE
:10275000006200010061000100600001005F0002F2
:10276000005D0001005C0001005B0001005A0001F7
:1027700000590001005800010057000100560001F7
:1027800000550001005400010053000000530001F7
:10279000005200010051000100500001004F0001F3
:1027A000004E0000004E0001004D0001004C0001F1
:1027B000004B0000004B0001004A000100490001ED
:1027C00000480000004800010047000100460000EA
:1027D00000460001004500000045000100440001E2
:1027E00000430000004300010042000000420001DD
:1027F000004100000041000100400001003F0000D6
:10280000003F0001003E0000003E0001003D0000CE
:10281000003D0001003C0000003C0000003C0001C5
:10282000003B0000003B0001003A0000003A0001BC
:1028300000390000003900010038000000380000B5
:1028400000380001003700000037000100360000AA
:1028500000360000003600010035000000350000A1
:102860000035000100340000003400000034000195
:10287000003300000033000000330001003200008C
:102880000032000000320001003100000031000081
:102890000031000100300000003000000030000175
:1028A000002F0000002F0000002F0000002F00016B
:1028B000002E0000002E0000002E0001002D000060
:1028C000002D0000002D0000002D0001002C000054
:1028D000002C0000002C0000002C0001002B000048
:1028E000002B0000002B0000002B0001002A00003C
:1028F000002A0000002A0000002A00010029000030
:102900000029000000290000002900000029000122
:102910000028000000280000002800000028000017
:102920000028000100270000002700000027000009
:1029300000270000002700010026000000260000FC
:1029400000260000002600000026000100250000EF
:1029500000250000002500000025000000250000E3
:1029600000250001002400000024000000240000D5
:1029700000240000002400010023000000230000C8
:1029800000230000002300000023000000230000BB
:1029900000230001002200000022000000220000AD
:1029A000002200000022000000220001002100009F
:1029B0000021000000210000002100000021000093
:1029C0000021000000210001002000000020000084
:1029D0000020000000200000002000000020000077
:1029E0000020000000200001001F0000001F000068
:1029F000001F0000001F0000001F0000001F00005B
:102A0000001F0001001E0000001E0000001E00004C
:102A1000001E000000043700001E290000511B00AA
:102A2000005810000010090000CC040000780200DB
:102A300000410100004D6F74696F6E004175746F45
:102A400020486F6D650054656D70657261747572B4
:102A500065004D38340044697361626C65205374BD
:102A600065707065727300473238205A00486F6D88
:102A700065205A00473238205900486F6D6520594B
:102A800000473238205800486F6D652058004732A3
:102A900038005072656865617420504C4120426571
:102AA00064005072656865617420504C4120456E29
:102AB000640050726568656174204142532042652C
:102AC0006400507265686561742041425320456E10
:102AD0006400436F6F6C646F776E00447269766553
:102AE00072207265676973746572733A0A00733293
:102AF00076736209007332767361090031323043B4
:102B00000900313433430900313530430900313590
:102B1000374309006F7409006F74707709007332CE
:102B2000676109007332676209006F6C6109006FA9
:102B30006C62090073747374090044525653544113
:102B4000545553005374616C6C67756172642074E2
:102B5000687273002D7374617274090068797374FC
:102B60006572657369730A2D656E640900626C6134
:102B70006E6B2074696D65006F66662074696D65A3
:102B8000004F54207072657761726E206861730A1D
:102B90006265656E20747269676765726564004F6F
:102BA00054207072657761726E005B6D6D2F735D7E
:102BB000090070776D0A7468726573686F6C6400E1
:102BC000747374657009006D7374657073090076B1
:102BD00073656E7365090050574D207363616C65B2
:102BE0000043532061637475616C00486F6C64200E
:102BF00063757272656E740052756E2063757272C1
:102C0000656E74004D41582063757272656E740074
:102C1000524D532063757272656E74005365742053
:102C200063757272656E7400456E61626C656409ED
:102C300000416464726573730900303D2E33323590
:102C400000313D2E3138004F46460A00466164652A
:102C5000204865696768742000426564204C657689
:102C6000656C696E6720004661696C656420746FED
:102C700020656E61626C6520426564204C657665F6
:102C80006C696E670A00496E76616C6964206D65D7
:102C900073682E0A007C3C3E5E2B3D3F2F5B5D3B04
:102CA0002C2A225C00687474703A2F2F6D61726C4C
:102CB000696E66772E6F726700322E302E78004D67
:102CC00031303030205300205049445F64543A0082
:102CD00020643A002069693A0020703A00202050B0
:102CE0006C616E6E65724275666665724279746576
:102CF000733A20002046726565204D656D6F7279CC
:102D00003A2000436F6D70696C65643A20417567C5
:102D100020203520323032300A00204C617374207C
:102D2000557064617465643A20323031392D313226
:102D30002D3031207C20417574686F723A20286EE6
:102D40006F6E652C2064656661756C7420636F6EB0
:102D5000666967290A00322E302E780A004D6172AA
:102D60006C696E0020536F667477617265205265DE
:102D70007365740A00205761746368646F6720523A
:102D8000657365740A002042726F776E206F7574E8
:102D90002052657365740A002045787465726E610F
:102DA0006C2052657365740A00506F7765725570B8
:102DB0000A006175746F25632E67004732385859D1
:102DC000006572726F722077726974696E67207421
:102DD0006F2066696C650A00446F6E6520736176CA
:102DE000696E672066696C652E0A004D32390045B0
:102DF0006E6473746F707300255320256320256300
:102E000020256320256300205A3A0020593A0065A6
:102E10006E6473746F7073206869743A200001FFE8
:102E2000FFFFFFFFFFFFFFFFFFFFFFFF0FFFFFFFA2
:102E3000FFFFFFFFFFFFFFFFFFFF1E00000000007E
:102E4000000000000007FFFF380000000000000045
:102E500000000003FFFF7000000000000000000001
:102E60000001FFFF60000000000000000000000003
:102E7000FFFF6000000000000000000000007FFF76
:102E8000C000000000000000007800003FFFC00FFD
:102E9000C0FC00000000007818001FFFC03FE1FFE9
:102EA0000000000000783C000FFFC07FF3FF8000AF
:102EB000000000783C0007FFC0FFFFFFC0000000DB
:102EC00000783C0003FFC1F87F87E0000000007835
:102ED000000001FFC1F03F03E000000000780000A7
:102EE00000FFC1E01E01E01F0003E0783C03F07F1B
:102EF000C1E01E01E07FC00FF8783C07FC3FC1E055
:102F00001E01E1FFE01FFC783C0FFE1FC1E01E0127
:102F1000E3FFF03FFE783C1FFE0FC1E01E01E3F32C
:102F2000F83F3E783C3F3F07C1E01E01E7E0FC7CF4
:102F30001F783C3E1F07C1E01E01E7C07C7C0F7874
:102F40003C3C0F03C1E01E01E7807C780F783C3CDD
:102F50000F03C1E01E01E7803C7800783C3C0F0382
:102F6000C1E01E01E7803C7800783C3C0F03C1E0E3
:102F70001E01E7803C7800783C3C0F03C1E01E0155
:102F8000E7C03C7800783C3C0F03C1E01E01E3E061
:102F90003C78007C3C3C0F03C1E01E01E3FF3FF89E
:102FA000007FBC3C0F03C1E01E01E1FF3FF8003F82
:102FB000BFFC0F03C1E01E01E0FF3FF8001FBFFC94
:102FC0000F03C1E01E01E07F3FF8000FBFFC0F03BD
:102FD000600000000000000000000000000760002A
:102FE000000000000000000000000006700000006B
:102FF0000000000000000000000E3800000000008B
:10300000000000000000001C1E0000000000000086
:103010000000000000780FFFFFFFFFFFFFFFFFFF32
:10302000FFFFFFF001FFFFFFFFFFFFFFFFFFFFFFBD
:10303000FF8020746F6F206C6F6E672065787472EC
:103040007573696F6E2070726576656E7465640A5B
:103050000020636F6C6420657874727573696F6E9D
:103060002070726576656E7465640A00220A0055E8
:103070006E6B6E6F776E20636F6D6D616E643A205C
:1030800022004C4F570048494748004F4B004572BB
:10309000726F723A20416C6C200020636F6E6E6517
:1030A0006374696F6E2E2E2E200054657374696EE2
:1030B00067200000002100240027002A002D003096
:1030C00000330001010000040107010A0100002291
:1030D00000250028002B002E0031003400020100E2
:1030E00000050108010B0100002000230026002933
:1030F000002C002F0032000001000003010601092E
:103100000105050505070508080808020202020A6C
:103110000A0808040404040101010101010101037A
:1031200003030303030303040707070C0C0C0C0C35
:103130000C0C0C0202020206060606060606060B28
:103140000B0B0B0B0B0B0B07070A0A0A0A0A0A05E3
:1031500005050404040808010210202008081020B6
:103160004010204080020102010804020101020413
:1031700008102040808040201008040201800402D2
:103180000180402010080402010804020101020429
:10319000081020408001020408102040801008041C
:1031A0000880102040044080102040048000000A65
:1031B0000B02090C0D0E08070304010000000000BB
:1031C00000000000000000000000000000000000FF
:1031D00000000000000000000012111000000000BC
:1031E00000000000000000000000000000000000DF
:1031F00000000000000000000000000000000000CF
:103200000000004D6F76652025736D6D004D6F7663
:103210006520302E316D6D004D6F766520316D6DFE
:10322000004D6F76652031306D6D004D6F766520F5
:103230004178697300486F74656E6420746F6F2005
:10324000636F6C64004578747275646572004D6FCD
:103250007665205A004D6F76652059004D6F766572
:103260002058004368616E67652046696C616D6532
:103270006E7400556E6C6F61642046696C616D659B
:103280006E74004C6F61642046696C616D656E748C
:103290000050726568656174204142530050726548
:1032A0006865617420504C410050726568656174B6
:1032B00020437573746F6D004261636B006F7065BE
:1032C0006E206661696C65642C2046696C653A20E5
:1032D000004F6666004F6E00544D4320447269767D
:1032E0006572730050726F6265205A204F66667374
:1032F00065740046616E205370656564203D004E24
:103300006F7A7A6C65004D61696E00537465616C0B
:10331000746843686F7020456E61626C6564005329
:1033200074657070696E67204D6F64650053656EDB
:10333000736F726C65737320486F6D696E670044BC
:1033400072697665722043757272656E7400436FA0
:103350006E74726F6C00466C6F7700453100626569
:1033600064002C2073797374656D2073746F7070B2
:10337000656421204865617465725F49443A2000A4
:1033800048656174696E67204661696C65640048D0
:10339000656174696E67206661696C656400202DE3
:1033A00020496E76616C6964206578747275646515
:1033B00072206E756D62657220210A005448455274
:1033C0004D414C2052554E41574159005468657249
:1033D0006D616C2052756E61776179004572723A49
:1033E000204D415854454D50004D415854454D5085
:1033F00020747269676765726564004572723A206D
:103400004D494E54454D50004D494E54454D502068
:10341000747269676765726564004D38342058209E
:1034200059205A204500202F002042403A002040D9
:103430003A0020573A000040012C0173012201ABF1
:10344000011801F3010E0148020401AC02FA002A3E
:1034500003F000C303E6008004DC006D05D2006CBD
:1034600006C800C707BE007009B4006D0BAA00CBE8
:103470000DA000CF138C00F21B7800E92464001427
:103480002E50009C353C00B83A2800A03D14000B9B
:103490003F0000506C656173652052657365740070
:1034A0005052494E5445522048414C544544002501
:1034B000533A202553004B494C4C45442E20005094
:1034C00072696E7465722068616C7465642E206B1D
:1034D000696C6C28292063616C6C6564210A006545
:1034E00063686F3A004572726F723A0066616C737E
:1034F0006500747275650042696C696E6561722061
:103500004C6576656C696E6720477269643A0A009B
:10351000486F74656E6420746F6F20636F6C640A0B
:10352000004D3630303A20546F6F20436F6C64008A
:10353000507265737320627574746F6E20746F209F
:10354000726573756D650A005072657373206275DC
:1035500074746F6E20746F2068656174206E6F7A6A
:103560007A6C650A004C6F616400202020202020C6
:103570002000256C6425636D001FE02010201020C2
:10358000101020102020102010303008400480033C
:10359000001FE03FF03FF03FF01FE01FE03FF03F33
:1035A000F03FF00FC0078003003FFFF0380070309D
:1035B000FC3020FC102078102030102C00D02E3150
:1035C000D02F7BD02F7BD02E31D02C00D0203010AC
:1035D00020781020FC1030FC303800703FFFF03FA6
:1035E000FFF03800703186302387102787902F87AF
:1035F000D02F03D0203010207810207810203010E9
:103600002F03D02F87D0278790238710318630381B
:1036100000703FFFF01FFFF81FFFF8041040020882
:1036200020020820041040082080104100104100B2
:103630000820800410400000001FFFF81FFFF84C16
:103640006F61642053657474696E67730053746F9F
:1036500072652053657474696E67730041647661A6
:103660006E6365642053657474696E677300554EAC
:103670004C4F41442046494C414D454E540046492B
:103680004C414D454E54204348414E4745005265FC
:1036900073746F7265206661696C73616665005052
:1036A0007265686561742041425320436F6E660005
:1036B0005072656865617420504C4120436F6E669E
:1036C000004D37303220542564004D3630302042D2
:1036D0003020542564004D373032203B2564004DA6
:1036E00037303120542564004D373032004D3730AB
:1036F00031004D36303020423000436F6E74696EB9
:103700007565005075726765206D6F726500524572
:1037100053554D45204F5054494F4E533A00505247
:10372000494E54205041555345440020204E6F7A55
:103730007A6C653A2000256C642E25696D00457809
:1037400074727564656420546F74616C004C6F6EA4
:1037500067657374204A6F622054696D65003E206E
:1037600000546F74616C205072696E742074696DBE
:103770006500436F6D706C65746564005072696EAE
:103780007420436F756E74005061726B696E672EA2
:103790002E2E0000005761697420666F7200666902
:1037A0006C616D656E74206368616E676500746F2F
:1037B000207374617274005761697420666F7200BF
:1037C00066696C616D656E7420756E6C6F61640006
:1037D000004E6F7A7A6C652068656174696E670067
:1037E000506C6561736520776169742E2E2E000020
:1037F000507265737320627574746F6E00746F20FD
:1038000068656174206E6F7A7A6C650000496E732A
:103810006572742066696C616D656E7400616E64BA
:1038200020707265737320627574746F6E00746FAC
:1038300020636F6E74696E756500576169742066E8
:103840006F720066696C616D656E74206C6F616487
:103850000000507265737320427574746F6E00744B
:103860006F20726573756D65207072696E740000EB
:103870005761697420666F72207072696E7400748B
:103880006F20726573756D652E2E2E00005761696D
:103890007420666F720066696C616D656E7420706D
:1038A0007572676500002053697A653A20004361AC
:1038B0006E6E6F74206F70656E20737562646972CE
:1038C000200053442063617264206F6B0A006F70A4
:1038D000656E526F6F74206661696C65640A00766C
:1038E0006F6C756D652E696E6974206661696C65B3
:1038F000640A00534420696E6974206661696C0A29
:10390000004D32332025730057726974696E672049
:10391000746F2066696C653A200046696C65207397
:10392000656C65637465640A0046696C65206F7038
:10393000656E65643A2000667265736800646F693D
:103940006E67004E6F772000454E4420535542521B
:103950004F5554494E450A002220706F73002220B3
:10396000706172656E743A2200535542524F55543D
:10397000494E452043414C4C207461726765743A4E
:103980002200747279696E6720746F2063616C6CB9
:10399000207375622D67636F64652066696C65735B
:1039A000207769746820746F6F206D616E79206C68
:1039B0006576656C732E204D4158206C6576656C7C
:1039C0002069733A310A0044656C6574696F6E2032
:1039D0006661696C65642C2046696C653A20004616
:1039E000696C652064656C657465643A00506F7736
:1039F00065722D6C6F73732066696C652064656CED
:103A0000657465004D6963726F73746570732075BA
:103A10006E617661696C61626C650A0045313A20BD
:103A20000045303A20004D53312C4D53322C4D532C
:103A3000332050696E730A583A20005072696E74D0
:103A40002050617573656400506175736520507214
:103A5000696E74004D656469612052656D6F7665AD
:103A600064004D6564696120496E736572746564B4
:103A7000005468696E6B65722056325F4E504E5F1F
:103A8000323230392052656164792E005072696E8D
:103A900074696E672E2E2E005072696E742041621A
:103AA0006F72746564004D323520500A4D32340017
:103AB0005072696E742066726F6D204D6564696125
:103AC00000205A3A200020593A20004265642058CC
:103AD0003A200050726F62696E67204661696C65BA
:103AE000640A0050726F62696E67204661696C6596
:103AF0006400486F6D652025732573257320466922
:103B000072737400496E736572742066696C616DBE
:103B1000656E7420616E64207072657373206275C7
:103B200074746F6E0A002054002052004861726461
:103B3000636F6465642044656661756C74205365C9
:103B40007474696E6773204C6F616465640A002049
:103B5000204D3930360020204D3931340020204DA1
:103B60003536392053310020204D363033200020A7
:103B7000550046696C616D656E74206C6F61642FD1
:103B8000756E6C6F6164206C656E677468733A0A59
:103B900000447269766572207374657070696E672F
:103BA000206D6F64653A0A005374616C6C477561EF
:103BB0007264207468726573686F6C643A0A0020DE
:103BC00054302045005374657070657220647269CA
:103BD0007665722063757272656E743A0A002020F1
:103BE0004D3835312058005A2D50726F6265204F84
:103BF00066667365740020204D34313320530050C5
:103C00006F7765722D4C6F7373205265636F7665A5
:103C100072793A0A0020204D3330342050002020A1
:103C20004D3330312050005049442073657474691D
:103C30006E67733A0A0020460020480020204D316C
:103C400034352053004D6174657269616C2068657C
:103C50006174757020706172616D65746572733A1C
:103C60000A00204A002020473239205720490020EE
:103C7000204D3432302053004175746F204265640A
:103C8000204C6576656C696E673A0A0020204D32DB
:103C90003036205800486F6D65206F666673657416
:103CA0003A0A0020204D32303520420020453C6D3C
:103CB00061785F655F6A65726B3E0020583C6D619C
:103CC000785F785F6A65726B3E20593C6D61785F02
:103CD000795F6A65726B3E205A3C6D61785F7A5FEE
:103CE0006A65726B3E00416476616E6365643A207A
:103CF000423C6D696E5F7365676D656E745F746974
:103D00006D655F75733E20533C6D696E5F666565DA
:103D100064726174653E20543C6D696E5F747261BB
:103D200076656C5F66656564726174653E0020202F
:103D30004D323034205000416363656C65726174AC
:103D4000696F6E2028756E6974732F7332293A205B
:103D5000503C7072696E745F616363656C3E2052A3
:103D60003C726574726163745F616363656C3E206D
:103D7000543C74726176656C5F616363656C3E0A86
:103D80000020204D3230312058004D6178696D752A
:103D90006D20416363656C65726174696F6E202884
:103DA000756E6974732F7332293A0A0020204D32E0
:103DB00030332058004D6178696D756D20666565FA
:103DC0006472617465732028756E6974732F73292A
:103DD0003A0A0053746570732070657220756E69BD
:103DE000743A0A0020204D3230302044300A00203E
:103DF000204D3230302044002044697361626C658C
:103E0000640A0046696C616D656E74207365747434
:103E1000696E67733A0020204D3134392043203BCE
:103E200020556E69747320696E2043656C736975E3
:103E3000730A0020286D6D29002020473231202090
:103E400020203B20556E69747320696E206D6D00D3
:103E5000000096430000964300000C420000C84159
:103E60000000A0420000A0420000C8430000BA4287
:103E7000DC050000DC05000096000000DC05000009
:103E80004361703A00436C69636B20746F20526524
:103E900073756D652E2E2E0050726F6265204F6611
:103EA00066736574205A0050726F6265204F6666B3
:103EB0007365745A3A20003F5A206F7574206F66FC
:103EC0002072616E67652028003F59206F7574204D
:103ED0006F662072616E676520282D003F58206F45
:103EE0007574206F662072616E676520282D005002
:103EF000726F6265204F6666736574205800CE034A
:103F0000E60111241FBECFEFD1E2DEBFCDBF00E03E
:103F10000CBF13E0A0E0B2E0E2E3F4EC02E00BBF80
:103F200002C007900D92AE3AB107D9F728E1AEEA88
:103F3000B3E001C01D92AD35B207E1F71FE1C0E863
:103F4000DFE100E006C021970109802FFE010F94F8
:103F5000225ECF37D10780E00807A9F70F94794890
:103F60000D9407620C9400002F923F924F925F9243
:103F70006F927F928F929F92AF92BF92CF92DF9279
:103F8000EF92FF920F931F93CF93DF93CDB7DEB7DE
:103F9000C555D1090FB6F894DEBF0FBECDBF6696EA
:103FA0008FAF66972091B31725962FAF259781E0A5
:103FB0008093B317809152188D3409F40DC4843561
:103FC00011F40C945631873411F00C947131209017
:103FD0005018309051183BE12316310409F418C1F0
:103FE000C4F454E02516310444F482E02816310468
:103FF0000CF041C037FE33C0EBC394E02916310406
:1040000009F4C7C0A5E12A16310411F40C947331E8
:10401000DFC3BAE22B16310409F4B3C26CF4FDE13C
:104020002F16310409F41EC10CF40CC13EE1231615
:10403000310409F42BC1CCC34BE52416310409F437
:10404000EAC15CE52516310409F4EAC18AE52816BF
:10405000310409F0BDC31092B7030C947331809101
:104060006502882311F40C9473310E94CA660E9481
:1040700023A00C94733180916502882311F40C9471
:1040800073310E94CA6682E50E9450BC882309F4FD
:104090004EC00E94F8B96B017C0120E030E0A9011C
:1040A0000F943D57882311F40C943B322091410228
:1040B0003091420240914302509144022CA33DA30F
:1040C0004EA35FA38091450290914602A0914702C2
:1040D000B091480288A799A7AAA7BBA78090090515
:1040E00090900A05A0900B05B0900C0540900D052E
:1040F00050900E0560900F0570901005A501940179
:104100006CA17DA18EA19FA10F943D5781110C94AC
:104110008031A301920168A579A58AA59BA50F947A
:104120003D57882311F40C943B320C94803189E480
:104130000E9450BC882329F00E94F8B96B017C01D1
:1041400003C0C12CD12C76018AE40E9450BC882384
:1041500011F40C9442320E94F8B96CA77DA78EA787
:104160009FA720E030E0A901C701B6010F943D5799
:1041700081110C944F3220E030E0A9016CA57DA59F
:104180008EA59FA50F943D5781110C944F320C942E
:104190003B3280E50E9450BC882329F00E94E693C0
:1041A0006B017C0103C0C12CD12C760183E50E94F8
:1041B00050BC882361F00E94F8B920E030E04AE763
:1041C00054E40F94A3570F94DD5F6B017C010E94B0
:1041D000ACB18091E516811105C060E08DEF9AE0E9
:1041E0000F94EF320E94A9E1C60ED71EE81EF91EF9
:1041F0000E94A9E1DC01CB018C199D09AE09BF0920
:10420000B7FD02C00C94733180E00E943C3AF0CFBD
:104210000F94F23881110C9473318CE0E9E8F2E0EC
:10422000DE01119601900D928A95E1F760E070E051
:1042300080E50E944571BE016F5F7F4F0F94A031F2
:104240000C9473318091B0178770873011F00C9403
:10425000DE3560E08FE40E945DBC81110C94733107
:104260000C94DE350F94F23881110C9473318091E7
:104270002E05882311F40C94303760E08FE40E94FF
:104280005DBC81110C9473310C94303720919F17D1
:104290003091A0174091A1175091A217609141024F
:1042A0007091420280914302909144020F946A5EA1
:1042B000AB01BC0188E50E94175369837A838B8325
:1042C0009C832091A3173091A4174091A51750917A
:1042D000A617609145027091460280914702909125
:1042E00048020F946A5EAB01BC0189E50E94175336
:1042F0006D837E838F839887BE016B5F7F4FCE0176
:1043000001960E947A94882311F40C94733180E012
:104310000F9461060E9417A361E085E40E945DBCD2
:10432000182F21E0482FBE016B5F7F4FCE01019611
:104330000F94A8396B017C019B01AC010F945C6167
:1043400081115FC089809A80AB80BC8020E030E022
:10435000A901C501B4010F943D5787FF05C027E1AE
:1043600037EB41E558EB04C027E137EB41E558E373
:10437000C501B4010F946A5EAB01BC018BEC9AE3FA
:104380000F94AF0A8D809E80AF80B88420E030E02B
:10439000A901C501B4010F943D5787FF05C027E16E
:1043A00037EB41E558EB04C027E137EB41E558E333
:1043B000C501B4010F946A5EAB01BC0186EC9AE3BF
:1043C0000F94AF0A20E030E0A901C701B6010F94B5
:1043D0003D5787FF05C067E177EB81E598EB04C0A7
:1043E00067E177EB81E598E3A70196010F946A5E98
:1043F000AB01BC0181EC9AE30F94AF0A8AE00E9402
:1044000010390E94FEA2113011F40E9426AF0E94C2
:104410000CA60C9473318FE08093B7030C94733126
:1044200080914F18882349F1893009F0A6C045E9E9
:10443000A42E42E0B42E51E4E52E52E0F52ED12C0C
:1044400000E010E0D5018D915D010E9450BC8823F1
:1044500069F00E94F8B9F7016083718382839383C6
:10446000133011F401E002C0DD24D3941F5FF4E0A7
:10447000EF0EF11C143031F775C095E9292E92E04A
:10448000392E2DEFE22E24E0F22E21E432E03DA37E
:104490002CA333E9C32E37E1D32E00E010E0D10185
:1044A0008D911D010E9450BC882309F44BC00E94CD
:1044B000F8B92B013C01133049F0F601208131811C
:1044C000428153810F94695E2B013C01ACA1BDA1D7
:1044D0002D913D914D915C91C301B2010F94695EA4
:1044E0004B015C012DEB37E346E855EB0F94CA60B6
:1044F00087FD0AC02DEB37E346E855E3C501B4015B
:104500000F943D571816F4F4133051F440924D02B5
:1045100050924E0260924F027092500201E012C01F
:10452000A5019401F70160817181828193810F94CB
:104530006A5ED7016D937D938D939C931397812F22
:104540000E94669F1F5FB4E0EB0EF11CECA1FDA181
:104550003496FDA3ECA3F4E0CF0ED11C143009F087
:104560009ECF05C0DD2019F00E94DFA406C0002305
:1045700021F08DE492E00E94BDB10E940CA60C9443
:10458000733180916502882311F40C94733189E4AE
:104590000E9450BCE82E882321F00E94F4B9082F15
:1045A00001C000E08AE40E9450BCF82E882321F06C
:1045B0000E94F4B9182F01C010E0EE2011F0053070
:1045C00020F4FF2041F0153030F086E49BE00F949A
:1045D000F1090C94733180E1E1E4F2E0A9E0B5E087
:1045E00001900D928A95E1F7EE2019F1602F000FEE
:1045F000770B880B990B0F9444572091B917309182
:10460000BA174091BB175091BC170F94A357209134
:10461000E6043091E7044091E8045091E9040F94D6
:104620006A5E6093090570930A0580930B05909369
:104630000C05FF2019F1612F110F770B880B990BD7
:104640000F9444572091BD173091BE174091BF176A
:104650005091C0170F94A3572091EA043091EB04B6
:104660004091EC045091ED040F946A5E60930D0547
:1046700070930E0580930F059093100560E080E520
:104680000E945DBC8823C1F1EE20D1F020919F17DC
:104690003091A0174091A1175091A2176091090580
:1046A00070910A0580910B0590910C050F94695E3D
:1046B0006093090570930A0580930B0590930C0590
:1046C000FF20D1F02091A3173091A4174091A51796
:1046D0005091A61760910D0570910E0580910F0500
:1046E000909110050F94695E60930D0570930E050F
:1046F00080930F059093100540E050E0BA0186E4E6
:104700000E9417536B017C0120E030E0A9010F9457
:10471000CA6018165CF420E030E040E752E4C701BC
:10472000B6010F94645F6B017C0103C0C12CD12CD6
:1047300076018090850290908602A0908702B090CA
:10474000880220E030E0A901C701B6010F943D576F
:10475000882341F0C0928502D0928602E0928702BF
:10476000F092880200911E0210911F0284E690E0F0
:1047700090931F0280931E02C0905102D09052026B
:10478000E0905302F090540280E090E0A0E8BFE394
:104790008093510290935202A0935302B09354021B
:1047A0000E9423A08092850290928602A0928702A6
:1047B000B092880210931F0200931E02C092510211
:1047C000D0925202E0925302F09254020C94733150
:1047D0000E94ABDB0C94733100915018109151186A
:1047E0000139110509F4C8C70CF042C102351105A1
:1047F00009F438C60CF0BAC00B31110509F42BC30B
:104800000CF05AC00531110509F492C2C4F501310A
:10481000110509F489C24CF40230110510F00C9412
:1048200053310F949C460C9473310231110509F4F5
:1048300027C60431110511F00C94533184E79BE035
:104840000F94F1098AEF91E10E9461C28BE1EAEFD6
:10485000F1E1DE01119601900D928A95E1F760E099
:1048600070E0CE0101960F943E25CE0101960F9483
:10487000A70385E69BE00F94F1090C94733108318E
:10488000110509F473C274F40631110509F454C218
:104890000731110511F00C945331E0914D18F0914E
:1048A0004E1857C20931110509F4BCC20A3111056D
:1048B00009F4C3C20C9453310A32110509F482C3BE
:1048C000FCF40E31110509F423C384F40C311105F5
:1048D00009F414C30D31110511F00C94533180917A
:1048E000DD118E7F8093DD110C9473310F31110532
:1048F00009F448C30032110509F41AC30C9453316A
:104900000D34110509F485C36CF40B34110509F459
:104910007CC30C34110511F00C9453310E940A87AA
:104920000C9473310E34110509F477C30135110568
:1049300011F00C9453310E9456FA0E946EB00E94FE
:1049400028B30E9448381092AF171092AE171092F9
:10495000AD1768EE73E080E090E00F94CD0960E061
:1049600081E59CE00F94EF320C9473310F36110502
:1049700009F4C2C4BCF50936110509F461C4CCF4CC
:104980000535110509F47FC554F40335110509F403
:1049900070C50435110509F473C50C9453310C35F9
:1049A000110509F489C50836110509F4C8C30C942A
:1049B00053310C36110509F4E4C454F40A361105D8
:1049C00009F454C40B36110509F474C40C94533122
:1049D0000D36110509F4D7C30E36110509F479C453
:1049E0000C9453310637110509F482C6CCF4023712
:1049F000110509F4FFC554F40037110509F4C6C4C4
:104A00000137110509F4CAC40C9453310337110559
:104A100009F4F5C50537110509F45AC60C9453314C
:104A20000937110509F4A1C694F40737110509F4F3
:104A300099C60837110511F00C94533181E0809329
:104A4000C2058093C1050F944A3D0C9473310D3714
:104A5000110509F404C50C38110509F4C1C40A375D
:104A6000110511F00C9453310E94DA690C947331E2
:104A70000D3921E0120711F40C944D310CF099C05E
:104A8000023E110509F4E8C70CF043C00C3C1105C7
:104A900009F45CC7E4F4083C110509F4C8C66CF4D9
:104AA0000B39110509F4B5C40E3B110511F00C9436
:104AB00053310E94DC580C947331093C110509F400
:104AC00003C70B3C110509F422C70C945331033D75
:104AD000110509F45BC79CF40D3C110509F439C7B5
:104AE0000E3C110511F00C94533145E9C42E42E0FF
:104AF000D42E56ECE52E55E0F52E10E02DC70C3DDA
:104B0000110509F446C70D3D110509F44FC70C9472
:104B10005331003341E0140711F40C94102E0CF5BE
:104B20000D3281E0180711F40C94902D5CF40232E0
:104B3000A1E01A0709F4DCC70C32114009F4DBC705
:104B40000C9453310E32E1E01E0711F40C94832EC5
:104B50000F32114011F00C9453310E942E530C94DB
:104B60007331003921E0120711F40C94C72E7CF444
:104B70000E3541E0140711F40C940A310F35114041
:104B800011F00C9453310E9456910C9473310239F8
:104B900081E0180711F40C94D02E14F40C94CA2E52
:104BA0000A39114011F00C9453310E940B380C94C7
:104BB00073310B35B2E01B0711F40C94CD2F0CF0C0
:104BC0004DC0063FF1E01F0711F40C94A52F1CF512
:104BD0000C3A31E0130711F40C94442F6CF4043AAE
:104BE00051E0150711F40C94D82E053A114011F438
:104BF0000C94DB2E0C945331043F91E0190711F40F
:104C00000C94A22F053F114011F00C9453310F94D6
:104C1000ED3E0C9473310C30B2E01B0711F40C9490
:104C2000C22F6CF4073FF1E01F0711F40C94A82F7A
:104C3000083F114011F40C94B12F0C9453310933F7
:104C400032E0130711F40C9488300835124011F04B
:104C50000C9453310E94806F0C9473310C3853E0E4
:104C6000150711F40C94763044F5033593E01907D9
:104C700011F40C94CA2F7CF40D3BB2E01B0711F425
:104C80000C9446300E3B124011F00C9453310E94AC
:104C90005E6D0C9473310A38F3E01F0711F40C9425
:104CA00085300B38134011F00C94533125E9E22E76
:104CB00022E0F22E10E00C944C30023933E013075E
:104CC00011F40C94C0307CF40F3853E0150711F444
:104CD0000C948B300039134011F00C9453310E9426
:104CE00019680C947331073E93E0190711F40C9482
:104CF0003F31083EA3E01A0711F40C945031003AFA
:104D0000134011F00C94533120914D1830914E18EE
:104D10009091DD1192609093DD1140E060E0C90157
:104D20000F941D240C9473310E9407930C947331DB
:104D30000F94E6200C9473310F9475208091DD114F
:104D4000877F8093DD110C947331803209F41082D7
:104D5000319680818111F9CF40E061E080914D185A
:104D600090914E180F941D240C94733183E50E948A
:104D700050BC882321F00E94C0B90E94985B84E552
:104D80000E9450BC8823A9F00E94C0B96B017C012D
:104D90000E94EF86C0925205D0925305E0925405CE
:104DA000F0925505CD28CE28CF2819F081E08093C8
:104DB0005A0580919E158823E9F080E090E0A8ECE8
:104DC000B2E488A399A3AAA3BBA31C8E1D8E1E8E3A
:104DD0001F8E19821A821B821C8220E0AE01405E67
:104DE0005F4FBE01645E7F4FCE0101960F94230B8F
:104DF0000C9473310E944D38882381F00F948620E3
:104E00000E94713888E496E10F942B20109242049E
:104E10001092430410924404109245040F949B3363
:104E20000C9473318091DD1182FF03C08B7F8093DE
:104E3000DD110E9478700C9473318091DD1183FD37
:104E400002C00C94733183E50E9450BC81110C9414
:104E500033370C94733183E40E942FBA882319F1FD
:104E60008FE89BE00F94F10980914113882391F022
:104E7000BE016F5F7F4F8EE393E10E94D8C58E0124
:104E80000F5F1F4FF80181918F01882339F00E9435
:104E90001039F8CF85E89BE00F94F1098AE00E9471
:104EA00010390C9473318091DD1182FF21C08EE99D
:104EB0009BE00F94F1096091D9117091DA11809102
:104EC000DB119091DC114AE00E9417398FE20E94B9
:104ED00010396091D5117091D6118091D7119091B0
:104EE000D8114AE00E9417390E94153A0C94733188
:104EF00080EB9BE00F94F1090C94733140E060E08B
:104F000080914D1890914E180F941D240C9473317C
:104F10008091DD1183FD02C00C9473310E9494DBFB
:104F200080914D1890914E180F944F230C9473312B
:104F30008091DD1182FD0E94ACB18091DD1183FD75
:104F400002C00C94733160E080E50E945DBC182FB4
:104F5000482F61E080914D1890914E180F941D24B8
:104F600083E50E9450BC882321F00E94C0B90E94B2
:104F7000985B0F94862011110C9473310E94713844
:104F80000C9473310E94BB866C8F7D8F8E8F9F8FA8
:104F9000BE016F5F7F4FCE014C960E94B95A60E010
:104FA000CE0101960F9476330F94E40ABE016F5F31
:104FB0007F4F81EC9BE00F94CD0A8AE00E9410396C
:104FC0000C94733183E50E9450BC882311F40C9437
:104FD00073310E94D0B9F82E6DE070E080E50E9438
:104FE000B0958C0197FF02C00C947331E82E60E0FD
:104FF00089E40E945DBC81110C943837802F0F9496
:10500000FD47811146C50C9438370E9471380C94C5
:1050100073310E946EB00C94733160E070E083E5F0
:105020000E94B0958E34910531F40E94DFB00F9448
:105030009B330C94733184E29CE00F94F1096091EE
:10504000B1057091B2058BE19CE00F94A50A6091C7
:10505000B3057091B4058EE09CE00F94A50A6091B1
:10506000B1057091B2058091B3059091B405681BAC
:10507000790B80915A05815021E030E0823010F0A8
:1050800020E030E0621B730B83E09CE00F94A50AE4
:105090008AE00E94103984E29CE00F94F10980912B
:1050A000B5059091B605A091B705B091B8058C8F64
:1050B0009D8FAE8FBF8FBE016F5F7F4FCE014C962D
:1050C0000E94B95ABE016F5F7F4F86EF9BE00F943D
:1050D000CD0A8091B9059091BA05A091BB05B09118
:1050E000BC058C8F9D8FAE8FBF8FBE016F5F7F4FD2
:1050F000CE014C960E94B95ABE016F5F7F4F86EE7B
:105100009BE00F94CD0A20E030E04AE754E4609140
:10511000BD057091BE058091BF059091C0050F94AB
:10512000645FAB01BC018EEC9BE00F94AF0A8DE68F
:105130000E9410398AE00E9410390C9473318091DA
:10514000C60C83FF02C00C9473310E94E46787FF92
:1051500002C00C94733183E50E9450BC882379F01F
:105160000E94F8B90F94D65F8B01CB010E9496C9BB
:105170000635110524F40E946EB00F949B330F94F2
:1051800022480C9473318091C60C83FF02C00C94AA
:1051900073310E94E467F82E87FF02C00C947331CC
:1051A00083E50E9450BC082F811106C082E50E9451
:1051B00050BC182F8823C1F10E94F8B90F94D65F14
:1051C000CB010E9496C90E94F8B920E030E04AEA7B
:1051D00052E40F943D57181614F40C9451370E9462
:1051E0006EB00F949B336091B5077091B607072E90
:1051F000000C880B990B0F9444574B015C014090B5
:10520000B1075090B2076090B3077090B407A30144
:1052100092010F94CA60181614F40C946F3700238F
:1052200011F40C94553711E00F942248112311F416
:105230000C947331602F8F2D0E949DF80C94733164
:105240000E94E467182F87FD0AC08EE893E10F944F
:10525000F109812F0E9426F88AE00E9410392596D4
:10526000FFAD2597F093B3170C94C83760E080E545
:105270000E94BF95182F823010F00C94733181E496
:105280000E942FBA882321F06091960770E002C037
:105290006FEF70E083E50E944571E12FF0E0EA5680
:1052A000F84F8F3F910519F010F08FEF90E0808359
:1052B0000C94733160E080E50E94BF95823010F05D
:1052C0000C947331E82FF0E0EA56F84F10820C94FA
:1052D00073318EE40E9450BC882311F40C94733116
:1052E0000E94C0B96093CA047093CB048093CC042D
:1052F0009093CD040C94733183E50E942FBA8823D8
:1053000031F060E083E50E94BF958093C60C0F9456
:10531000E40A85E39CE00F94F1098091C60C882390
:1053200069F183E7E82E8FE0F82E00E010E020E03E
:105330008091C60C90E0A0E0B0E0002E04C0B695CD
:10534000A795979587950A94D2F780FF0EC0DD2424
:10535000D394D20E222319F08CE20E941039F70167
:10536000859194910F94F1092D2D0F5F1F4F32E01D
:10537000E30EF11C05301105D9F690CD81E39CE0D8
:105380008BCD1092B21710924002ADC741E060E0A1
:1053900070E08CE39CE00F94F80DA5C783E50E94B4
:1053A00050BC882371F00E94D0B9282F30E02D33F3
:1053B00031051CF48093000296C78CE380930002B1
:1053C00092C70F94E40A4091000250E060E070E060
:1053D0008AE49CE00F94940A8AE00E94103983C703
:1053E0008091C60C83FD7FC783E50E9450BC882353
:1053F00009F479C70E94F8B90F94D65F6C3871052B
:105400000CF48B011093BF140093BE140E94A6F7F6
:105410006AC783E50E9450BC882309F464C70E94D0
:10542000D0B9182F90E0CD970CF01CE31093B20385
:105430000E94A9E16B017C01212F30E0A8EEB3E0CE
:105440000F94C05DC60ED71EE81EF91EC092AE03B3
:10545000D092AF03E092B003F092B10344C70E9430
:10546000787041C78091B7038F7D80618093B703C7
:105470003AC78091B7038F7E80628093B70333C7AA
:105480000E94B59230C783E50E942FBA882309F4A1
:105490002AC70E94F8B920E030E04AE754E40F94AC
:1054A000A3570F94DD5F6093B3037093B4038093AD
:1054B000B5039093B60317C70E94E46787FD13C72F
:1054C0009091531894FD04C09091551897FF0AC00D
:1054D00015E9C12E12E0D12E07ECE02E0CE0F02EE3
:1054E00010E009C090915618937091F7682F81E0F1
:1054F0000E943593F8C6D6018D916D010E9450BC73
:10550000882309F46DC0133009F063C00E94F8B914
:105510004B015C0120E030E040EA51E40F943D573C
:1055200087FF4EC0A50194016091E70C7091E80CD3
:105530008091E90C9091EA0C0F94645F2B013C017F
:105540009B01AC0160917A0770917B0780917C0789
:1055500090917D070F94A35760937A0770937B0710
:1055600080937C0790937D07A30192016091F70CD3
:105570007091F80C8091F90C9091FA0C0F94A3574C
:105580006093F70C7093F80C8093F90C9093FA0CDD
:1055900060918A0770918B0780918C0790918D079D
:1055A0000F944257A30192010F94A3570F94DD5F0C
:1055B00060938A0770938B0780938C0790938D0775
:1055C0008092E70C9092E80CA092E90CB092EA0C61
:1055D00007C00E94F8B9F701648B758B868B978B97
:1055E0001F5FF4E0EF0EF11C143009F084CF0E942D
:1055F00088B179C60E94ACB10E940CA674C687E837
:105600009DE00F94F10960E087E79DE00F942A4741
:1056100060E082E69DE00F942A4761E08AEE9FE118
:105620000F942A4761E087E59DE00F942A4761E0E7
:1056300087E49DE00F942A4760E08EE39DE00F949D
:105640002A4761E084E39DE00F942A4761E08AE203
:105650009DE00F942A4761E082E29DE00F942A4783
:1056600061E084E19DE00F942A4760E086E09DE0E0
:105670000F942A4760E087EF9CE00F942A4760E090
:1056800089EE9CE00F942A4760E083ED9CE00F9444
:105690002A4760E082EC9CE00F942A4760E083EBAD
:1056A0009CE00F942A4760E08EE99CE00F942A4723
:1056B00061E08BE89CE00F942A4760E08EE79CE075
:1056C0000F942A4760E08AE69CE00F942A470BC6B5
:1056D00080914D1890914E18009709F49FCBDC01F2
:1056E0002C91222309F49ACB60E00F947633FBC50A
:1056F00000914D1810914E1894E0F12C40E091501B
:1057000021F1F8018081282F2B7F213421F4218180
:105710002133D9F407C08035C1F4818180538A30A8
:1057200048F013C0813421F0853421F441E002C0F7
:10573000FF24F39498012E5F3F4F89012F5F3F4F65
:10574000F80180818032C9F3DACF41110F94E40A65
:10575000FF2021F086E59EE00F94F109C8010E9428
:105760001B3AC1C50E942CA7BEC51092C20510925B
:10577000C1050F944A3DB7C560E070E083E50E9423
:10578000B0958C011127023011053CF00F94E00A0E
:105790008AE59EE00F94F109A6C588E40E9450BCFA
:1057A0008823A9F00E94F4B98A3A91053CF085302B
:1057B000F1E09F072CF084E091E002C08AEA90E0DB
:1057C000F801EE0FFF1FEA5DF24F9183808386E4BC
:1057D0000E9450BC882381F00E94F4B997FD07C055
:1057E0008F3F910529F024F08FEF90E001C080E019
:1057F000F801E753F84E808382E40E9450BC88236E
:1058000009F471C50E94F4B98530910534F08D38E2
:1058100091052CF08CE890E002C085E090E0F80162
:10582000EE0FFF1FE553F84E918380835CC50E9405
:10583000E467182F87FD57C584E40E942FBA882398
:1058400009F43FC00E94F8B96B017C0101E020E03F
:1058500030E0A9010F943D57811101C000E0009391
:10586000250520E030E0A901C701B6010F943D579E
:10587000882339F10E94F8B924E01202F0011124C2
:10588000E65DFA4F608371838283938320E030E08A
:10589000A90160912A0570912B0580912C059091AA
:1058A0002D050F943D5781110CC080E090E0A0EED3
:1058B000BFE380932A0590932B05A0932C05B0930A
:1058C0002D050E94EB9A0FC50E94E46787FD0BC56A
:1058D00075E9E72E72E0F72E07EC1CE0D7018D91F9
:1058E0007D010E942FBA882359F00E94F8B90F94C5
:1058F000DD5FF80160837183828393830E9441B1ED
:105900000C5F1F4FFCE0073D1F0741F7ECC40E94EE
:10591000E46787FDE8C465E9E62E62E0F62E07EC51
:105920001CE0D7018D917D010E942FBA882339F0A8
:105930000E94F8B9F80164A375A386A397A30C5F2E
:105940001F4FFCE0073D1F0761F7CDC40E94709315
:10595000CAC40E94F693C7C4D6018D916D010E94FE
:105960002FBA882351F00E94F8B9F7016083718340
:1059700082839383812F0E94669F1F5FF4E0EF0E66
:10598000F11C133049F70E940CA6ADC40E94C691C9
:10599000AAC483E50E9450BC882309F4A4C40E94D1
:1059A000F4B990931F0280931E029DC40E94E46785
:1059B000F82E87FD98C483E50E9450BC0F2D0F2C54
:1059C000000C110B882369F10E94F4B9F801EE0F65
:1059D000FF1FEC5DFD4F91838083000F111F000FAF
:1059E000111F98012F5A3D4F7901BC01990F880B67
:1059F000990B0F9444572AE037ED43E25CE30F9490
:105A0000A357F801EA5DFA4F208131814281538129
:105A10000F94A357D7016D937D938D939C93139708
:105A200062C40F94E40A85E40E94103980E38F0D6C
:105A30000E941039F801EE0FFF1FEC5DFD4F6081F1
:105A400071818CE79EE00F94C00A85E20E941039B4
:105A50008AE00E94103947C480E50E942FBA88234B
:105A600009F441C460E070E080E50E94B095F82E32
:105A70006FEF7FEF83E50E94B0958C01019603974D
:105A800008F031C4F7FC2FC48F2D0F94FD478823F5
:105A900039F00F94E00A84E89EE00F94F10923C4E2
:105AA0000E94ACB160E08F2D0E946AE00F3FBFEF13
:105AB0001B0731F00130110571F000E010E00DC05E
:105AC0008F2D0F94DA4E31E020E0892B09F030E081
:105AD000032F122F02C001E010E08F2D0F94DA4E39
